{
	"kcbreward.sol": {
		"Uni": {
			"abi": [
				{
					"inputs": [
						{
							"internalType": "address",
							"name": "account",
							"type": "address"
						},
						{
							"internalType": "address",
							"name": "minter_",
							"type": "address"
						},
						{
							"internalType": "uint256",
							"name": "mintingAllowedAfter_",
							"type": "uint256"
						}
					],
					"payable": false,
					"stateMutability": "nonpayable",
					"type": "constructor"
				},
				{
					"anonymous": false,
					"inputs": [
						{
							"indexed": true,
							"internalType": "address",
							"name": "owner",
							"type": "address"
						},
						{
							"indexed": true,
							"internalType": "address",
							"name": "spender",
							"type": "address"
						},
						{
							"indexed": false,
							"internalType": "uint256",
							"name": "amount",
							"type": "uint256"
						}
					],
					"name": "Approval",
					"type": "event"
				},
				{
					"anonymous": false,
					"inputs": [
						{
							"indexed": true,
							"internalType": "address",
							"name": "delegator",
							"type": "address"
						},
						{
							"indexed": true,
							"internalType": "address",
							"name": "fromDelegate",
							"type": "address"
						},
						{
							"indexed": true,
							"internalType": "address",
							"name": "toDelegate",
							"type": "address"
						}
					],
					"name": "DelegateChanged",
					"type": "event"
				},
				{
					"anonymous": false,
					"inputs": [
						{
							"indexed": true,
							"internalType": "address",
							"name": "delegate",
							"type": "address"
						},
						{
							"indexed": false,
							"internalType": "uint256",
							"name": "previousBalance",
							"type": "uint256"
						},
						{
							"indexed": false,
							"internalType": "uint256",
							"name": "newBalance",
							"type": "uint256"
						}
					],
					"name": "DelegateVotesChanged",
					"type": "event"
				},
				{
					"anonymous": false,
					"inputs": [
						{
							"indexed": false,
							"internalType": "address",
							"name": "minter",
							"type": "address"
						},
						{
							"indexed": false,
							"internalType": "address",
							"name": "newMinter",
							"type": "address"
						}
					],
					"name": "MinterChanged",
					"type": "event"
				},
				{
					"anonymous": false,
					"inputs": [
						{
							"indexed": true,
							"internalType": "address",
							"name": "from",
							"type": "address"
						},
						{
							"indexed": true,
							"internalType": "address",
							"name": "to",
							"type": "address"
						},
						{
							"indexed": false,
							"internalType": "uint256",
							"name": "amount",
							"type": "uint256"
						}
					],
					"name": "Transfer",
					"type": "event"
				},
				{
					"constant": true,
					"inputs": [],
					"name": "DELEGATION_TYPEHASH",
					"outputs": [
						{
							"internalType": "bytes32",
							"name": "",
							"type": "bytes32"
						}
					],
					"payable": false,
					"stateMutability": "view",
					"type": "function"
				},
				{
					"constant": true,
					"inputs": [],
					"name": "DOMAIN_TYPEHASH",
					"outputs": [
						{
							"internalType": "bytes32",
							"name": "",
							"type": "bytes32"
						}
					],
					"payable": false,
					"stateMutability": "view",
					"type": "function"
				},
				{
					"constant": true,
					"inputs": [],
					"name": "PERMIT_TYPEHASH",
					"outputs": [
						{
							"internalType": "bytes32",
							"name": "",
							"type": "bytes32"
						}
					],
					"payable": false,
					"stateMutability": "view",
					"type": "function"
				},
				{
					"constant": true,
					"inputs": [
						{
							"internalType": "address",
							"name": "account",
							"type": "address"
						},
						{
							"internalType": "address",
							"name": "spender",
							"type": "address"
						}
					],
					"name": "allowance",
					"outputs": [
						{
							"internalType": "uint256",
							"name": "",
							"type": "uint256"
						}
					],
					"payable": false,
					"stateMutability": "view",
					"type": "function"
				},
				{
					"constant": false,
					"inputs": [
						{
							"internalType": "address",
							"name": "spender",
							"type": "address"
						},
						{
							"internalType": "uint256",
							"name": "rawAmount",
							"type": "uint256"
						}
					],
					"name": "approve",
					"outputs": [
						{
							"internalType": "bool",
							"name": "",
							"type": "bool"
						}
					],
					"payable": false,
					"stateMutability": "nonpayable",
					"type": "function"
				},
				{
					"constant": true,
					"inputs": [
						{
							"internalType": "address",
							"name": "account",
							"type": "address"
						}
					],
					"name": "balanceOf",
					"outputs": [
						{
							"internalType": "uint256",
							"name": "",
							"type": "uint256"
						}
					],
					"payable": false,
					"stateMutability": "view",
					"type": "function"
				},
				{
					"constant": true,
					"inputs": [
						{
							"internalType": "address",
							"name": "",
							"type": "address"
						},
						{
							"internalType": "uint32",
							"name": "",
							"type": "uint32"
						}
					],
					"name": "checkpoints",
					"outputs": [
						{
							"internalType": "uint32",
							"name": "fromBlock",
							"type": "uint32"
						},
						{
							"internalType": "uint96",
							"name": "votes",
							"type": "uint96"
						}
					],
					"payable": false,
					"stateMutability": "view",
					"type": "function"
				},
				{
					"constant": true,
					"inputs": [],
					"name": "decimals",
					"outputs": [
						{
							"internalType": "uint8",
							"name": "",
							"type": "uint8"
						}
					],
					"payable": false,
					"stateMutability": "view",
					"type": "function"
				},
				{
					"constant": false,
					"inputs": [
						{
							"internalType": "address",
							"name": "delegatee",
							"type": "address"
						}
					],
					"name": "delegate",
					"outputs": [],
					"payable": false,
					"stateMutability": "nonpayable",
					"type": "function"
				},
				{
					"constant": false,
					"inputs": [
						{
							"internalType": "address",
							"name": "delegatee",
							"type": "address"
						},
						{
							"internalType": "uint256",
							"name": "nonce",
							"type": "uint256"
						},
						{
							"internalType": "uint256",
							"name": "expiry",
							"type": "uint256"
						},
						{
							"internalType": "uint8",
							"name": "v",
							"type": "uint8"
						},
						{
							"internalType": "bytes32",
							"name": "r",
							"type": "bytes32"
						},
						{
							"internalType": "bytes32",
							"name": "s",
							"type": "bytes32"
						}
					],
					"name": "delegateBySig",
					"outputs": [],
					"payable": false,
					"stateMutability": "nonpayable",
					"type": "function"
				},
				{
					"constant": true,
					"inputs": [
						{
							"internalType": "address",
							"name": "",
							"type": "address"
						}
					],
					"name": "delegates",
					"outputs": [
						{
							"internalType": "address",
							"name": "",
							"type": "address"
						}
					],
					"payable": false,
					"stateMutability": "view",
					"type": "function"
				},
				{
					"constant": true,
					"inputs": [
						{
							"internalType": "address",
							"name": "account",
							"type": "address"
						}
					],
					"name": "getCurrentVotes",
					"outputs": [
						{
							"internalType": "uint96",
							"name": "",
							"type": "uint96"
						}
					],
					"payable": false,
					"stateMutability": "view",
					"type": "function"
				},
				{
					"constant": true,
					"inputs": [
						{
							"internalType": "address",
							"name": "account",
							"type": "address"
						},
						{
							"internalType": "uint256",
							"name": "blockNumber",
							"type": "uint256"
						}
					],
					"name": "getPriorVotes",
					"outputs": [
						{
							"internalType": "uint96",
							"name": "",
							"type": "uint96"
						}
					],
					"payable": false,
					"stateMutability": "view",
					"type": "function"
				},
				{
					"constant": true,
					"inputs": [],
					"name": "minimumTimeBetweenMints",
					"outputs": [
						{
							"internalType": "uint32",
							"name": "",
							"type": "uint32"
						}
					],
					"payable": false,
					"stateMutability": "view",
					"type": "function"
				},
				{
					"constant": false,
					"inputs": [
						{
							"internalType": "address",
							"name": "dst",
							"type": "address"
						},
						{
							"internalType": "uint256",
							"name": "rawAmount",
							"type": "uint256"
						}
					],
					"name": "mint",
					"outputs": [],
					"payable": false,
					"stateMutability": "nonpayable",
					"type": "function"
				},
				{
					"constant": true,
					"inputs": [],
					"name": "mintCap",
					"outputs": [
						{
							"internalType": "uint8",
							"name": "",
							"type": "uint8"
						}
					],
					"payable": false,
					"stateMutability": "view",
					"type": "function"
				},
				{
					"constant": true,
					"inputs": [],
					"name": "minter",
					"outputs": [
						{
							"internalType": "address",
							"name": "",
							"type": "address"
						}
					],
					"payable": false,
					"stateMutability": "view",
					"type": "function"
				},
				{
					"constant": true,
					"inputs": [],
					"name": "mintingAllowedAfter",
					"outputs": [
						{
							"internalType": "uint256",
							"name": "",
							"type": "uint256"
						}
					],
					"payable": false,
					"stateMutability": "view",
					"type": "function"
				},
				{
					"constant": true,
					"inputs": [],
					"name": "name",
					"outputs": [
						{
							"internalType": "string",
							"name": "",
							"type": "string"
						}
					],
					"payable": false,
					"stateMutability": "view",
					"type": "function"
				},
				{
					"constant": true,
					"inputs": [
						{
							"internalType": "address",
							"name": "",
							"type": "address"
						}
					],
					"name": "nonces",
					"outputs": [
						{
							"internalType": "uint256",
							"name": "",
							"type": "uint256"
						}
					],
					"payable": false,
					"stateMutability": "view",
					"type": "function"
				},
				{
					"constant": true,
					"inputs": [
						{
							"internalType": "address",
							"name": "",
							"type": "address"
						}
					],
					"name": "numCheckpoints",
					"outputs": [
						{
							"internalType": "uint32",
							"name": "",
							"type": "uint32"
						}
					],
					"payable": false,
					"stateMutability": "view",
					"type": "function"
				},
				{
					"constant": false,
					"inputs": [
						{
							"internalType": "address",
							"name": "owner",
							"type": "address"
						},
						{
							"internalType": "address",
							"name": "spender",
							"type": "address"
						},
						{
							"internalType": "uint256",
							"name": "rawAmount",
							"type": "uint256"
						},
						{
							"internalType": "uint256",
							"name": "deadline",
							"type": "uint256"
						},
						{
							"internalType": "uint8",
							"name": "v",
							"type": "uint8"
						},
						{
							"internalType": "bytes32",
							"name": "r",
							"type": "bytes32"
						},
						{
							"internalType": "bytes32",
							"name": "s",
							"type": "bytes32"
						}
					],
					"name": "permit",
					"outputs": [],
					"payable": false,
					"stateMutability": "nonpayable",
					"type": "function"
				},
				{
					"constant": false,
					"inputs": [
						{
							"internalType": "address",
							"name": "minter_",
							"type": "address"
						}
					],
					"name": "setMinter",
					"outputs": [],
					"payable": false,
					"stateMutability": "nonpayable",
					"type": "function"
				},
				{
					"constant": true,
					"inputs": [],
					"name": "symbol",
					"outputs": [
						{
							"internalType": "string",
							"name": "",
							"type": "string"
						}
					],
					"payable": false,
					"stateMutability": "view",
					"type": "function"
				},
				{
					"constant": true,
					"inputs": [],
					"name": "totalSupply",
					"outputs": [
						{
							"internalType": "uint256",
							"name": "",
							"type": "uint256"
						}
					],
					"payable": false,
					"stateMutability": "view",
					"type": "function"
				},
				{
					"constant": false,
					"inputs": [
						{
							"internalType": "address",
							"name": "dst",
							"type": "address"
						},
						{
							"internalType": "uint256",
							"name": "rawAmount",
							"type": "uint256"
						}
					],
					"name": "transfer",
					"outputs": [
						{
							"internalType": "bool",
							"name": "",
							"type": "bool"
						}
					],
					"payable": false,
					"stateMutability": "nonpayable",
					"type": "function"
				},
				{
					"constant": false,
					"inputs": [
						{
							"internalType": "address",
							"name": "src",
							"type": "address"
						},
						{
							"internalType": "address",
							"name": "dst",
							"type": "address"
						},
						{
							"internalType": "uint256",
							"name": "rawAmount",
							"type": "uint256"
						}
					],
					"name": "transferFrom",
					"outputs": [
						{
							"internalType": "bool",
							"name": "",
							"type": "bool"
						}
					],
					"payable": false,
					"stateMutability": "nonpayable",
					"type": "function"
				}
			],
			"devdoc": {
				"methods": {
					"allowance(address,address)": {
						"params": {
							"account": "The address of the account holding the funds",
							"spender": "The address of the account spending the funds"
						},
						"return": "The number of tokens approved"
					},
					"approve(address,uint256)": {
						"details": "This will overwrite the approval amount for `spender` and is subject to issues noted [here](https://eips.ethereum.org/EIPS/eip-20#approve)",
						"params": {
							"rawAmount": "The number of tokens that are approved (2^256-1 means infinite)",
							"spender": "The address of the account which may transfer tokens"
						},
						"return": "Whether or not the approval succeeded"
					},
					"balanceOf(address)": {
						"params": {
							"account": "The address of the account to get the balance of"
						},
						"return": "The number of tokens held"
					},
					"constructor": {
						"params": {
							"account": "The initial account to grant all the tokens",
							"minter_": "The account with minting ability",
							"mintingAllowedAfter_": "The timestamp after which minting may occur"
						}
					},
					"delegate(address)": {
						"params": {
							"delegatee": "The address to delegate votes to"
						}
					},
					"delegateBySig(address,uint256,uint256,uint8,bytes32,bytes32)": {
						"params": {
							"delegatee": "The address to delegate votes to",
							"expiry": "The time at which to expire the signature",
							"nonce": "The contract state required to match the signature",
							"r": "Half of the ECDSA signature pair",
							"s": "Half of the ECDSA signature pair",
							"v": "The recovery byte of the signature"
						}
					},
					"getCurrentVotes(address)": {
						"params": {
							"account": "The address to get votes balance"
						},
						"return": "The number of current votes for `account`"
					},
					"getPriorVotes(address,uint256)": {
						"details": "Block number must be a finalized block or else this function will revert to prevent misinformation.",
						"params": {
							"account": "The address of the account to check",
							"blockNumber": "The block number to get the vote balance at"
						},
						"return": "The number of votes the account had as of the given block"
					},
					"mint(address,uint256)": {
						"params": {
							"dst": "The address of the destination account",
							"rawAmount": "The number of tokens to be minted"
						}
					},
					"permit(address,address,uint256,uint256,uint8,bytes32,bytes32)": {
						"params": {
							"deadline": "The time at which to expire the signature",
							"owner": "The address to approve from",
							"r": "Half of the ECDSA signature pair",
							"rawAmount": "The number of tokens that are approved (2^256-1 means infinite)",
							"s": "Half of the ECDSA signature pair",
							"spender": "The address to be approved",
							"v": "The recovery byte of the signature"
						}
					},
					"setMinter(address)": {
						"params": {
							"minter_": "The address of the new minter"
						}
					},
					"transfer(address,uint256)": {
						"params": {
							"dst": "The address of the destination account",
							"rawAmount": "The number of tokens to transfer"
						},
						"return": "Whether or not the transfer succeeded"
					},
					"transferFrom(address,address,uint256)": {
						"params": {
							"dst": "The address of the destination account",
							"rawAmount": "The number of tokens to transfer",
							"src": "The address of the source account"
						},
						"return": "Whether or not the transfer succeeded"
					}
				}
			},
			"evm": {
				"assembly": "    /* \"kcbreward.sol\":6581:23344  contract Uni {... */\n  mstore(0x40, 0x80)\n    /* \"kcbreward.sol\":6965:6981  1_000_000_000e18 */\n  0x033b2e3c9fd0803ce8000000\n    /* \"kcbreward.sol\":6939:6981  uint public totalSupply = 1_000_000_000e18 */\n  0x00\n  sstore\n    /* \"kcbreward.sol\":9960:10399  constructor(address account, address minter_, uint mintingAllowedAfter_) public {... */\n  callvalue\n    /* \"--CODEGEN--\":8:17   */\n  dup1\n    /* \"--CODEGEN--\":5:7   */\n  iszero\n  tag_1\n  jumpi\n    /* \"--CODEGEN--\":30:31   */\n  0x00\n    /* \"--CODEGEN--\":27:28   */\n  dup1\n    /* \"--CODEGEN--\":20:32   */\n  revert\n    /* \"--CODEGEN--\":5:7   */\ntag_1:\n    /* \"kcbreward.sol\":9960:10399  constructor(address account, address minter_, uint mintingAllowedAfter_) public {... */\n  pop\n  mload(0x40)\n  sub(codesize, bytecodeSize)\n  dup1\n  bytecodeSize\n  dup4\n  codecopy\n  dup2\n  add\n  0x40\n  dup2\n  swap1\n  mstore\n  tag_2\n  swap2\n  jump(tag_3)\ntag_2:\n    /* \"kcbreward.sol\":10082:10097  block.timestamp */\n  timestamp\n    /* \"kcbreward.sol\":10058:10078  mintingAllowedAfter_ */\n  dup2\n    /* \"kcbreward.sol\":10058:10097  mintingAllowedAfter_ >= block.timestamp */\n  lt\n  iszero\n    /* \"kcbreward.sol\":10050:10159  require(mintingAllowedAfter_ >= block.timestamp, \"Uni::constructor: minting can only begin after deployment\") */\n  tag_6\n  jumpi\n  mload(0x40)\n  shl(0xe5, 0x461bcd)\n  dup2\n  mstore\n  0x04\n  add\n  tag_7\n  swap1\n  jump(tag_8)\ntag_7:\n  mload(0x40)\n  dup1\n  swap2\n  sub\n  swap1\n  revert\ntag_6:\n    /* \"kcbreward.sol\":10197:10208  totalSupply */\n  0x00\n  dup1\n  sload\n  sub(shl(0xa0, 0x01), 0x01)\n    /* \"kcbreward.sol\":10170:10187  balances[account] */\n  dup6\n  and\n  dup1\n  dup4\n  mstore\n    /* \"kcbreward.sol\":10170:10178  balances */\n  0x04\n    /* \"kcbreward.sol\":10170:10187  balances[account] */\n  0x20\n  mstore\n  0x40\n  dup1\n  dup5\n  keccak256\n    /* \"kcbreward.sol\":10170:10209  balances[account] = uint96(totalSupply) */\n  dup1\n  sload\n  not(sub(shl(0x60, 0x01), 0x01))\n  and\n  sub(shl(0x60, 0x01), 0x01)\n  swap1\n  swap5\n  and\n  swap4\n  swap1\n  swap4\n  or\n  swap1\n  swap3\n  sstore\n    /* \"kcbreward.sol\":10254:10265  totalSupply */\n  dup3\n  sload\n    /* \"kcbreward.sol\":10224:10266  Transfer(address(0), account, totalSupply) */\n  swap2\n  mload\n    /* \"kcbreward.sol\":10170:10187  balances[account] */\n  swap1\n  swap3\n    /* \"kcbreward.sol\":10197:10208  totalSupply */\n  swap2\n    /* \"kcbreward.sol\":10224:10266  Transfer(address(0), account, totalSupply) */\n  0xddf252ad1be2c89b69c2b068fc378daa952ba7f163c4a11628f55a4df523b3ef\n  swap2\n  tag_9\n  swap2\n    /* \"kcbreward.sol\":10254:10265  totalSupply */\n  swap1\n    /* \"kcbreward.sol\":10224:10266  Transfer(address(0), account, totalSupply) */\n  jump(tag_10)\ntag_9:\n  mload(0x40)\n  dup1\n  swap2\n  sub\n  swap1\n  log3\n    /* \"kcbreward.sol\":10276:10282  minter */\n  0x01\n    /* \"kcbreward.sol\":10276:10292  minter = minter_ */\n  dup1\n  sload\n  not(sub(shl(0xa0, 0x01), 0x01))\n  and\n  sub(shl(0xa0, 0x01), 0x01)\n  dup5\n  dup2\n  and\n  swap2\n  swap1\n  swap2\n  or\n  swap2\n  dup3\n  swap1\n  sstore\n    /* \"kcbreward.sol\":10307:10340  MinterChanged(address(0), minter) */\n  mload(0x40)\n  0x3b0007eb941cf645526cbb3a4fdaecda9d28ce4843167d9263b536a1f1edc0f6\n  swap3\n  tag_11\n  swap3\n  0x00\n  swap3\n    /* \"kcbreward.sol\":10333:10339  minter */\n  swap2\n  and\n  swap1\n    /* \"kcbreward.sol\":10307:10340  MinterChanged(address(0), minter) */\n  jump(tag_12)\ntag_11:\n  mload(0x40)\n  dup1\n  swap2\n  sub\n  swap1\n  log1\n    /* \"kcbreward.sol\":10350:10369  mintingAllowedAfter */\n  0x02\n    /* \"kcbreward.sol\":10350:10392  mintingAllowedAfter = mintingAllowedAfter_ */\n  sstore\n  pop\n    /* \"kcbreward.sol\":6581:23344  contract Uni {... */\n  tag_14\n  swap1\n  pop\n  jump\n    /* \"--CODEGEN--\":5:139   */\ntag_15:\n    /* \"--CODEGEN--\":83:96   */\n  dup1\n  mload\n    /* \"--CODEGEN--\":101:134   */\n  tag_16\n    /* \"--CODEGEN--\":83:96   */\n  dup2\n    /* \"--CODEGEN--\":101:134   */\n  jump(tag_17)\ntag_16:\n    /* \"--CODEGEN--\":68:139   */\n  swap3\n  swap2\n  pop\n  pop\n  jump\n    /* \"--CODEGEN--\":146:280   */\ntag_18:\n    /* \"--CODEGEN--\":224:237   */\n  dup1\n  mload\n    /* \"--CODEGEN--\":242:275   */\n  tag_16\n    /* \"--CODEGEN--\":224:237   */\n  dup2\n    /* \"--CODEGEN--\":242:275   */\n  jump(tag_20)\n    /* \"--CODEGEN--\":287:822   */\ntag_3:\n  0x00\n  dup1\n  0x00\n    /* \"--CODEGEN--\":436:438   */\n  0x60\n    /* \"--CODEGEN--\":424:433   */\n  dup5\n    /* \"--CODEGEN--\":415:422   */\n  dup7\n    /* \"--CODEGEN--\":411:434   */\n  sub\n    /* \"--CODEGEN--\":407:439   */\n  slt\n    /* \"--CODEGEN--\":404:406   */\n  iszero\n  tag_21\n  jumpi\n    /* \"--CODEGEN--\":452:453   */\n  0x00\n    /* \"--CODEGEN--\":449:450   */\n  dup1\n    /* \"--CODEGEN--\":442:454   */\n  revert\n    /* \"--CODEGEN--\":404:406   */\ntag_21:\n    /* \"--CODEGEN--\":487:488   */\n  0x00\n    /* \"--CODEGEN--\":504:568   */\n  tag_22\n    /* \"--CODEGEN--\":560:567   */\n  dup7\n    /* \"--CODEGEN--\":540:549   */\n  dup7\n    /* \"--CODEGEN--\":504:568   */\n  jump(tag_15)\ntag_22:\n    /* \"--CODEGEN--\":494:568   */\n  swap4\n  pop\n    /* \"--CODEGEN--\":466:574   */\n  pop\n    /* \"--CODEGEN--\":605:607   */\n  0x20\n    /* \"--CODEGEN--\":623:687   */\n  tag_23\n    /* \"--CODEGEN--\":679:686   */\n  dup7\n    /* \"--CODEGEN--\":670:676   */\n  dup3\n    /* \"--CODEGEN--\":659:668   */\n  dup8\n    /* \"--CODEGEN--\":655:677   */\n  add\n    /* \"--CODEGEN--\":623:687   */\n  jump(tag_15)\ntag_23:\n    /* \"--CODEGEN--\":613:687   */\n  swap3\n  pop\n    /* \"--CODEGEN--\":584:693   */\n  pop\n    /* \"--CODEGEN--\":724:726   */\n  0x40\n    /* \"--CODEGEN--\":742:806   */\n  tag_24\n    /* \"--CODEGEN--\":798:805   */\n  dup7\n    /* \"--CODEGEN--\":789:795   */\n  dup3\n    /* \"--CODEGEN--\":778:787   */\n  dup8\n    /* \"--CODEGEN--\":774:796   */\n  add\n    /* \"--CODEGEN--\":742:806   */\n  jump(tag_18)\ntag_24:\n    /* \"--CODEGEN--\":732:806   */\n  swap2\n  pop\n    /* \"--CODEGEN--\":703:812   */\n  pop\n    /* \"--CODEGEN--\":398:822   */\n  swap3\n  pop\n  swap3\n  pop\n  swap3\n  jump\n    /* \"--CODEGEN--\":829:971   */\ntag_25:\n    /* \"--CODEGEN--\":920:965   */\n  tag_26\n    /* \"--CODEGEN--\":959:964   */\n  dup2\n    /* \"--CODEGEN--\":920:965   */\n  jump(tag_27)\ntag_26:\n    /* \"--CODEGEN--\":915:918   */\n  dup3\n    /* \"--CODEGEN--\":908:966   */\n  mstore\n    /* \"--CODEGEN--\":902:971   */\n  pop\n  pop\n  jump\n    /* \"--CODEGEN--\":978:1091   */\ntag_28:\n    /* \"--CODEGEN--\":1061:1085   */\n  tag_26\n    /* \"--CODEGEN--\":1079:1084   */\n  dup2\n    /* \"--CODEGEN--\":1061:1085   */\n  jump(tag_30)\n    /* \"--CODEGEN--\":1099:1493   */\ntag_31:\n  0x00\n    /* \"--CODEGEN--\":1259:1326   */\n  tag_32\n    /* \"--CODEGEN--\":1323:1325   */\n  0x39\n    /* \"--CODEGEN--\":1318:1321   */\n  dup4\n    /* \"--CODEGEN--\":1259:1326   */\n  jump(tag_33)\ntag_32:\n    /* \"--CODEGEN--\":1359:1393   */\n  0x556e693a3a636f6e7374727563746f723a206d696e74696e672063616e206f6e\n    /* \"--CODEGEN--\":1339:1394   */\n  dup2\n  mstore\n    /* \"--CODEGEN--\":1428:1455   */\n  0x6c7920626567696e206166746572206465706c6f796d656e7400000000000000\n    /* \"--CODEGEN--\":1423:1425   */\n  0x20\n    /* \"--CODEGEN--\":1414:1426   */\n  dup3\n  add\n    /* \"--CODEGEN--\":1407:1456   */\n  mstore\n    /* \"--CODEGEN--\":1484:1486   */\n  0x40\n    /* \"--CODEGEN--\":1475:1487   */\n  add\n  swap3\n    /* \"--CODEGEN--\":1245:1493   */\n  swap2\n  pop\n  pop\n  jump\n    /* \"--CODEGEN--\":1501:1614   */\ntag_34:\n    /* \"--CODEGEN--\":1584:1608   */\n  tag_26\n    /* \"--CODEGEN--\":1602:1607   */\n  dup2\n    /* \"--CODEGEN--\":1584:1608   */\n  jump(tag_36)\n    /* \"--CODEGEN--\":1621:1961   */\ntag_12:\n    /* \"--CODEGEN--\":1775:1777   */\n  0x40\n    /* \"--CODEGEN--\":1760:1778   */\n  dup2\n  add\n    /* \"--CODEGEN--\":1789:1868   */\n  tag_37\n    /* \"--CODEGEN--\":1764:1773   */\n  dup3\n    /* \"--CODEGEN--\":1841:1847   */\n  dup6\n    /* \"--CODEGEN--\":1789:1868   */\n  jump(tag_25)\ntag_37:\n    /* \"--CODEGEN--\":1879:1951   */\n  tag_38\n    /* \"--CODEGEN--\":1947:1949   */\n  0x20\n    /* \"--CODEGEN--\":1936:1945   */\n  dup4\n    /* \"--CODEGEN--\":1932:1950   */\n  add\n    /* \"--CODEGEN--\":1923:1929   */\n  dup5\n    /* \"--CODEGEN--\":1879:1951   */\n  jump(tag_28)\ntag_38:\n    /* \"--CODEGEN--\":1746:1961   */\n  swap4\n  swap3\n  pop\n  pop\n  pop\n  jump\n    /* \"--CODEGEN--\":1968:2375   */\ntag_8:\n    /* \"--CODEGEN--\":2159:2161   */\n  0x20\n    /* \"--CODEGEN--\":2173:2220   */\n  dup1\n  dup3\n  mstore\n    /* \"--CODEGEN--\":2144:2162   */\n  dup2\n  add\n    /* \"--CODEGEN--\":2234:2365   */\n  tag_16\n    /* \"--CODEGEN--\":2144:2162   */\n  dup2\n    /* \"--CODEGEN--\":2234:2365   */\n  jump(tag_31)\n    /* \"--CODEGEN--\":2382:2595   */\ntag_10:\n    /* \"--CODEGEN--\":2500:2502   */\n  0x20\n    /* \"--CODEGEN--\":2485:2503   */\n  dup2\n  add\n    /* \"--CODEGEN--\":2514:2585   */\n  tag_16\n    /* \"--CODEGEN--\":2489:2498   */\n  dup3\n    /* \"--CODEGEN--\":2558:2564   */\n  dup5\n    /* \"--CODEGEN--\":2514:2585   */\n  jump(tag_34)\n    /* \"--CODEGEN--\":2603:2766   */\ntag_33:\n    /* \"--CODEGEN--\":2706:2725   */\n  swap1\n  dup2\n  mstore\n    /* \"--CODEGEN--\":2755:2759   */\n  0x20\n    /* \"--CODEGEN--\":2746:2760   */\n  add\n  swap1\n    /* \"--CODEGEN--\":2699:2766   */\n  jump\n    /* \"--CODEGEN--\":2774:2865   */\ntag_30:\n  0x00\n  sub(shl(0xa0, 0x01), 0x01)\n    /* \"--CODEGEN--\":2934:2988   */\n  dup3\n  and\n    /* \"--CODEGEN--\":2836:2860   */\n  tag_16\n    /* \"--CODEGEN--\":2917:2993   */\n  jump\n    /* \"--CODEGEN--\":3000:3072   */\ntag_36:\n    /* \"--CODEGEN--\":3062:3067   */\n  swap1\n    /* \"--CODEGEN--\":3045:3072   */\n  jump\n    /* \"--CODEGEN--\":3079:3208   */\ntag_27:\n  0x00\n    /* \"--CODEGEN--\":3166:3203   */\n  tag_16\n    /* \"--CODEGEN--\":3197:3202   */\n  dup3\n    /* \"--CODEGEN--\":3215:3336   */\n  0x00\n    /* \"--CODEGEN--\":3294:3331   */\n  tag_16\n    /* \"--CODEGEN--\":3325:3330   */\n  dup3\n    /* \"--CODEGEN--\":3294:3331   */\n  jump(tag_30)\n    /* \"--CODEGEN--\":3458:3575   */\ntag_17:\n    /* \"--CODEGEN--\":3527:3551   */\n  tag_48\n    /* \"--CODEGEN--\":3545:3550   */\n  dup2\n    /* \"--CODEGEN--\":3527:3551   */\n  jump(tag_30)\ntag_48:\n    /* \"--CODEGEN--\":3520:3525   */\n  dup2\n    /* \"--CODEGEN--\":3517:3552   */\n  eq\n    /* \"--CODEGEN--\":3507:3509   */\n  tag_49\n  jumpi\n    /* \"--CODEGEN--\":3566:3567   */\n  0x00\n    /* \"--CODEGEN--\":3563:3564   */\n  dup1\n    /* \"--CODEGEN--\":3556:3568   */\n  revert\n    /* \"--CODEGEN--\":3507:3509   */\ntag_49:\n    /* \"--CODEGEN--\":3501:3575   */\n  pop\n  jump\n    /* \"--CODEGEN--\":3582:3699   */\ntag_20:\n    /* \"--CODEGEN--\":3651:3675   */\n  tag_48\n    /* \"--CODEGEN--\":3669:3674   */\n  dup2\n    /* \"--CODEGEN--\":3651:3675   */\n  jump(tag_36)\n    /* \"--CODEGEN--\":3625:3699   */\ntag_14:\n    /* \"kcbreward.sol\":6581:23344  contract Uni {... */\n  dataSize(sub_0)\n  dup1\n  dataOffset(sub_0)\n  0x00\n  codecopy\n  0x00\n  return\nstop\n\nsub_0: assembly {\n        /* \"kcbreward.sol\":6581:23344  contract Uni {... */\n      mstore(0x40, 0x80)\n      callvalue\n        /* \"--CODEGEN--\":8:17   */\n      dup1\n        /* \"--CODEGEN--\":5:7   */\n      iszero\n      tag_1\n      jumpi\n        /* \"--CODEGEN--\":30:31   */\n      0x00\n        /* \"--CODEGEN--\":27:28   */\n      dup1\n        /* \"--CODEGEN--\":20:32   */\n      revert\n        /* \"--CODEGEN--\":5:7   */\n    tag_1:\n        /* \"kcbreward.sol\":6581:23344  contract Uni {... */\n      pop\n      jumpi(tag_2, lt(calldatasize, 0x04))\n      shr(0xe0, calldataload(0x00))\n      dup1\n      0x6fcfff45\n      gt\n      tag_30\n      jumpi\n      dup1\n      0xb4b5ea57\n      gt\n      tag_31\n      jumpi\n      dup1\n      0xdd62ed3e\n      gt\n      tag_32\n      jumpi\n      dup1\n      0xdd62ed3e\n      eq\n      tag_26\n      jumpi\n      dup1\n      0xe7a324dc\n      eq\n      tag_27\n      jumpi\n      dup1\n      0xf1127ed8\n      eq\n      tag_28\n      jumpi\n      dup1\n      0xfca3b5aa\n      eq\n      tag_29\n      jumpi\n      jump(tag_2)\n    tag_32:\n      dup1\n      0xb4b5ea57\n      eq\n      tag_23\n      jumpi\n      dup1\n      0xc3cda520\n      eq\n      tag_24\n      jumpi\n      dup1\n      0xd505accf\n      eq\n      tag_25\n      jumpi\n      jump(tag_2)\n    tag_31:\n      dup1\n      0x782d6fe1\n      gt\n      tag_33\n      jumpi\n      dup1\n      0x782d6fe1\n      eq\n      tag_19\n      jumpi\n      dup1\n      0x7ecebe00\n      eq\n      tag_20\n      jumpi\n      dup1\n      0x95d89b41\n      eq\n      tag_21\n      jumpi\n      dup1\n      0xa9059cbb\n      eq\n      tag_22\n      jumpi\n      jump(tag_2)\n    tag_33:\n      dup1\n      0x6fcfff45\n      eq\n      tag_16\n      jumpi\n      dup1\n      0x70a08231\n      eq\n      tag_17\n      jumpi\n      dup1\n      0x76c71ca1\n      eq\n      tag_18\n      jumpi\n      jump(tag_2)\n    tag_30:\n      dup1\n      0x30adf81f\n      gt\n      tag_34\n      jumpi\n      dup1\n      0x40c10f19\n      gt\n      tag_35\n      jumpi\n      dup1\n      0x40c10f19\n      eq\n      tag_12\n      jumpi\n      dup1\n      0x587cde1e\n      eq\n      tag_13\n      jumpi\n      dup1\n      0x5c11d62f\n      eq\n      tag_14\n      jumpi\n      dup1\n      0x5c19a95c\n      eq\n      tag_15\n      jumpi\n      jump(tag_2)\n    tag_35:\n      dup1\n      0x30adf81f\n      eq\n      tag_9\n      jumpi\n      dup1\n      0x30b36cef\n      eq\n      tag_10\n      jumpi\n      dup1\n      0x313ce567\n      eq\n      tag_11\n      jumpi\n      jump(tag_2)\n    tag_34:\n      dup1\n      0x06fdde03\n      eq\n      tag_3\n      jumpi\n      dup1\n      0x07546172\n      eq\n      tag_4\n      jumpi\n      dup1\n      0x095ea7b3\n      eq\n      tag_5\n      jumpi\n      dup1\n      0x18160ddd\n      eq\n      tag_6\n      jumpi\n      dup1\n      0x20606b70\n      eq\n      tag_7\n      jumpi\n      dup1\n      0x23b872dd\n      eq\n      tag_8\n      jumpi\n    tag_2:\n      0x00\n      dup1\n      revert\n        /* \"kcbreward.sol\":6649:6688  string public constant name = \"Uniswap\" */\n    tag_3:\n      tag_36\n      tag_37\n      jump\t// in\n    tag_36:\n      mload(0x40)\n      tag_38\n      swap2\n      swap1\n      jump(tag_39)\n    tag_38:\n      mload(0x40)\n      dup1\n      swap2\n      sub\n      swap1\n      return\n        /* \"kcbreward.sol\":7055:7076  address public minter */\n    tag_4:\n      tag_40\n      tag_41\n      jump\t// in\n    tag_40:\n      mload(0x40)\n      tag_38\n      swap2\n      swap1\n      jump(tag_43)\n        /* \"kcbreward.sol\":12846:13252  function approve(address spender, uint rawAmount) external returns (bool) {... */\n    tag_5:\n      tag_44\n      tag_45\n      calldatasize\n      0x04\n      jump(tag_46)\n    tag_45:\n      tag_47\n      jump\t// in\n    tag_44:\n      mload(0x40)\n      tag_38\n      swap2\n      swap1\n      jump(tag_49)\n        /* \"kcbreward.sol\":6939:6981  uint public totalSupply = 1_000_000_000e18 */\n    tag_6:\n      tag_50\n      tag_51\n      jump\t// in\n    tag_50:\n      mload(0x40)\n      tag_38\n      swap2\n      swap1\n      jump(tag_57)\n        /* \"kcbreward.sol\":8251:8373  bytes32 public constant DOMAIN_TYPEHASH = keccak256(\"EIP712Domain(string name,uint256 chainId,address verifyingContract)\") */\n    tag_7:\n      tag_50\n      tag_55\n      jump\t// in\n        /* \"kcbreward.sol\":15853:16509  function transferFrom(address src, address dst, uint rawAmount) external returns (bool) {... */\n    tag_8:\n      tag_44\n      tag_59\n      calldatasize\n      0x04\n      jump(tag_60)\n    tag_59:\n      tag_61\n      jump\t// in\n        /* \"kcbreward.sol\":8668:8805  bytes32 public constant PERMIT_TYPEHASH = keccak256(\"Permit(address owner,address spender,uint256 value,uint256 nonce,uint256 deadline)\") */\n    tag_9:\n      tag_50\n      tag_64\n      jump\t// in\n        /* \"kcbreward.sol\":7143:7174  uint public mintingAllowedAfter */\n    tag_10:\n      tag_50\n      tag_67\n      jump\t// in\n        /* \"kcbreward.sol\":6843:6878  uint8 public constant decimals = 18 */\n    tag_11:\n      tag_69\n      tag_70\n      jump\t// in\n    tag_69:\n      mload(0x40)\n      tag_38\n      swap2\n      swap1\n      jump(tag_72)\n        /* \"kcbreward.sol\":10909:11948  function mint(address dst, uint rawAmount) external {... */\n    tag_12:\n      tag_73\n      tag_74\n      calldatasize\n      0x04\n      jump(tag_46)\n    tag_74:\n      tag_75\n      jump\t// in\n    tag_73:\n      stop\n        /* \"kcbreward.sol\":7716:7761  mapping (address => address) public delegates */\n    tag_13:\n      tag_40\n      tag_77\n      calldatasize\n      0x04\n      jump(tag_78)\n    tag_77:\n      tag_79\n      jump\t// in\n        /* \"kcbreward.sol\":7224:7285  uint32 public constant minimumTimeBetweenMints = 1 days * 365 */\n    tag_14:\n      tag_81\n      tag_82\n      jump\t// in\n    tag_81:\n      mload(0x40)\n      tag_38\n      swap2\n      swap1\n      jump(tag_84)\n        /* \"kcbreward.sol\":16651:16751  function delegate(address delegatee) public {... */\n    tag_15:\n      tag_73\n      tag_86\n      calldatasize\n      0x04\n      jump(tag_78)\n    tag_86:\n      tag_87\n      jump\t// in\n        /* \"kcbreward.sol\":8132:8181  mapping (address => uint32) public numCheckpoints */\n    tag_16:\n      tag_81\n      tag_89\n      calldatasize\n      0x04\n      jump(tag_78)\n    tag_89:\n      tag_90\n      jump\t// in\n        /* \"kcbreward.sol\":14957:15063  function balanceOf(address account) external view returns (uint) {... */\n    tag_17:\n      tag_50\n      tag_93\n      calldatasize\n      0x04\n      jump(tag_78)\n    tag_93:\n      tag_94\n      jump\t// in\n        /* \"kcbreward.sol\":7377:7410  uint8 public constant mintCap = 2 */\n    tag_18:\n      tag_69\n      tag_97\n      jump\t// in\n        /* \"kcbreward.sol\":18786:19971  function getPriorVotes(address account, uint blockNumber) public view returns (uint96) {... */\n    tag_19:\n      tag_99\n      tag_100\n      calldatasize\n      0x04\n      jump(tag_46)\n    tag_100:\n      tag_101\n      jump\t// in\n    tag_99:\n      mload(0x40)\n      tag_38\n      swap2\n      swap1\n      jump(tag_103)\n        /* \"kcbreward.sol\":8883:8922  mapping (address => uint) public nonces */\n    tag_20:\n      tag_50\n      tag_105\n      calldatasize\n      0x04\n      jump(tag_78)\n    tag_105:\n      tag_106\n      jump\t// in\n        /* \"kcbreward.sol\":6746:6783  string public constant symbol = \"UNI\" */\n    tag_21:\n      tag_36\n      tag_109\n      jump\t// in\n        /* \"kcbreward.sol\":15319:15552  function transfer(address dst, uint rawAmount) external returns (bool) {... */\n    tag_22:\n      tag_44\n      tag_112\n      calldatasize\n      0x04\n      jump(tag_46)\n    tag_112:\n      tag_113\n      jump\t// in\n        /* \"kcbreward.sol\":18145:18364  function getCurrentVotes(address account) external view returns (uint96) {... */\n    tag_23:\n      tag_99\n      tag_116\n      calldatasize\n      0x04\n      jump(tag_78)\n    tag_116:\n      tag_117\n      jump\t// in\n        /* \"kcbreward.sol\":17174:17951  function delegateBySig(address delegatee, uint nonce, uint expiry, uint8 v, bytes32 r, bytes32 s) public {... */\n    tag_24:\n      tag_73\n      tag_120\n      calldatasize\n      0x04\n      jump(tag_121)\n    tag_120:\n      tag_122\n      jump\t// in\n        /* \"kcbreward.sol\":13730:14761  function permit(address owner, address spender, uint rawAmount, uint deadline, uint8 v, bytes32 r, bytes32 s) external {... */\n    tag_25:\n      tag_73\n      tag_124\n      calldatasize\n      0x04\n      jump(tag_125)\n    tag_124:\n      tag_126\n      jump\t// in\n        /* \"kcbreward.sol\":12244:12378  function allowance(address account, address spender) external view returns (uint) {... */\n    tag_26:\n      tag_50\n      tag_128\n      calldatasize\n      0x04\n      jump(tag_129)\n    tag_128:\n      tag_130\n      jump\t// in\n        /* \"kcbreward.sol\":8464:8581  bytes32 public constant DELEGATION_TYPEHASH = keccak256(\"Delegation(address delegatee,uint256 nonce,uint256 expiry)\") */\n    tag_27:\n      tag_50\n      tag_133\n      jump\t// in\n        /* \"kcbreward.sol\":7996:8066  mapping (address => mapping (uint32 => Checkpoint)) public checkpoints */\n    tag_28:\n      tag_135\n      tag_136\n      calldatasize\n      0x04\n      jump(tag_137)\n    tag_136:\n      tag_138\n      jump\t// in\n    tag_135:\n      mload(0x40)\n      tag_38\n      swap3\n      swap2\n      swap1\n      jump(tag_140)\n        /* \"kcbreward.sol\":10514:10741  function setMinter(address minter_) external {... */\n    tag_29:\n      tag_73\n      tag_142\n      calldatasize\n      0x04\n      jump(tag_78)\n    tag_142:\n      tag_143\n      jump\t// in\n        /* \"kcbreward.sol\":6649:6688  string public constant name = \"Uniswap\" */\n    tag_37:\n      mload(0x40)\n      dup1\n      0x40\n      add\n      0x40\n      mstore\n      dup1\n      0x07\n      dup2\n      mstore\n      0x20\n      add\n      shl(0xcc, 0x0556e697377617)\n      dup2\n      mstore\n      pop\n      dup2\n      jump\t// out\n        /* \"kcbreward.sol\":7055:7076  address public minter */\n    tag_41:\n      and(sub(shl(0xa0, 0x01), 0x01), sload(0x01))\n      dup2\n      jump\t// out\n        /* \"kcbreward.sol\":12846:13252  function approve(address spender, uint rawAmount) external returns (bool) {... */\n    tag_47:\n        /* \"kcbreward.sol\":12914:12918  bool */\n      0x00\n        /* \"kcbreward.sol\":12930:12943  uint96 amount */\n      dup1\n      not(0x00)\n        /* \"kcbreward.sol\":12957:12966  rawAmount */\n      dup4\n        /* \"kcbreward.sol\":12957:12978  rawAmount == uint(-1) */\n      eq\n        /* \"kcbreward.sol\":12953:13121  if (rawAmount == uint(-1)) {... */\n      iszero\n      tag_145\n      jumpi\n      pop\n      not(0x00)\n      jump(tag_146)\n    tag_145:\n        /* \"kcbreward.sol\":13053:13110  safe96(rawAmount, \"Uni::approve: amount exceeds 96 bits\") */\n      tag_147\n        /* \"kcbreward.sol\":13060:13069  rawAmount */\n      dup4\n        /* \"kcbreward.sol\":13053:13110  safe96(rawAmount, \"Uni::approve: amount exceeds 96 bits\") */\n      mload(0x40)\n      dup1\n      0x60\n      add\n      0x40\n      mstore\n      dup1\n      0x24\n      dup2\n      mstore\n      0x20\n      add\n      data_cb3e128da7f3f16c83a901cce3ab145c66bad45a0cd648091fecc9964ebf42fe\n      0x24\n      swap2\n      codecopy\n        /* \"kcbreward.sol\":13053:13059  safe96 */\n      tag_148\n        /* \"kcbreward.sol\":13053:13110  safe96(rawAmount, \"Uni::approve: amount exceeds 96 bits\") */\n      jump\t// in\n    tag_147:\n        /* \"kcbreward.sol\":13044:13110  amount = safe96(rawAmount, \"Uni::approve: amount exceeds 96 bits\") */\n      swap1\n      pop\n        /* \"kcbreward.sol\":12953:13121  if (rawAmount == uint(-1)) {... */\n    tag_146:\n        /* \"kcbreward.sol\":13142:13152  msg.sender */\n      caller\n        /* \"kcbreward.sol\":13131:13153  allowances[msg.sender] */\n      0x00\n      dup2\n      dup2\n      mstore\n        /* \"kcbreward.sol\":13131:13141  allowances */\n      0x03\n        /* \"kcbreward.sol\":13131:13153  allowances[msg.sender] */\n      0x20\n      swap1\n      dup2\n      mstore\n      0x40\n      dup1\n      dup4\n      keccak256\n      sub(shl(0xa0, 0x01), 0x01)\n        /* \"kcbreward.sol\":13131:13162  allowances[msg.sender][spender] */\n      dup10\n      and\n      dup1\n      dup6\n      mstore\n      swap3\n      mstore\n      swap2\n      dup3\n      swap1\n      keccak256\n        /* \"kcbreward.sol\":13131:13171  allowances[msg.sender][spender] = amount */\n      dup1\n      sload\n      not(sub(shl(0x60, 0x01), 0x01))\n      and\n      sub(shl(0x60, 0x01), 0x01)\n      dup7\n      and\n      or\n      swap1\n      sstore\n        /* \"kcbreward.sol\":13187:13224  Approval(msg.sender, spender, amount) */\n      swap1\n      mload\n        /* \"kcbreward.sol\":13131:13162  allowances[msg.sender][spender] */\n      swap1\n      swap2\n        /* \"kcbreward.sol\":13142:13152  msg.sender */\n      swap1\n        /* \"kcbreward.sol\":13187:13224  Approval(msg.sender, spender, amount) */\n      0x8c5be1e5ebec7d5bd14f71427d1e84f3dd0314c0f7b2291e5b200ac8c7c3b925\n      swap1\n      tag_149\n      swap1\n        /* \"kcbreward.sol\":13131:13171  allowances[msg.sender][spender] = amount */\n      dup6\n      swap1\n        /* \"kcbreward.sol\":13187:13224  Approval(msg.sender, spender, amount) */\n      jump(tag_150)\n    tag_149:\n      mload(0x40)\n      dup1\n      swap2\n      sub\n      swap1\n      log3\n        /* \"kcbreward.sol\":13241:13245  true */\n      0x01\n        /* \"kcbreward.sol\":13234:13245  return true */\n      swap2\n      pop\n      pop\n        /* \"kcbreward.sol\":12846:13252  function approve(address spender, uint rawAmount) external returns (bool) {... */\n    tag_144:\n      swap3\n      swap2\n      pop\n      pop\n      jump\t// out\n        /* \"kcbreward.sol\":6939:6981  uint public totalSupply = 1_000_000_000e18 */\n    tag_51:\n      sload(0x00)\n      dup2\n      jump\t// out\n        /* \"kcbreward.sol\":8251:8373  bytes32 public constant DOMAIN_TYPEHASH = keccak256(\"EIP712Domain(string name,uint256 chainId,address verifyingContract)\") */\n    tag_55:\n        /* \"kcbreward.sol\":8293:8373  keccak256(\"EIP712Domain(string name,uint256 chainId,address verifyingContract)\") */\n      mload(0x40)\n      tag_151\n      swap1\n      jump(tag_152)\n    tag_151:\n      mload(0x40)\n      dup1\n      swap2\n      sub\n      swap1\n      keccak256\n        /* \"kcbreward.sol\":8251:8373  bytes32 public constant DOMAIN_TYPEHASH = keccak256(\"EIP712Domain(string name,uint256 chainId,address verifyingContract)\") */\n      dup2\n      jump\t// out\n        /* \"kcbreward.sol\":15853:16509  function transferFrom(address src, address dst, uint rawAmount) external returns (bool) {... */\n    tag_61:\n      sub(shl(0xa0, 0x01), 0x01)\n        /* \"kcbreward.sol\":16015:16030  allowances[src] */\n      dup4\n      and\n        /* \"kcbreward.sol\":15935:15939  bool */\n      0x00\n        /* \"kcbreward.sol\":16015:16030  allowances[src] */\n      swap1\n      dup2\n      mstore\n        /* \"kcbreward.sol\":16015:16025  allowances */\n      0x03\n        /* \"kcbreward.sol\":16015:16030  allowances[src] */\n      0x20\n      swap1\n      dup2\n      mstore\n      0x40\n      dup1\n      dup4\n      keccak256\n        /* \"kcbreward.sol\":15969:15979  msg.sender */\n      caller\n        /* \"kcbreward.sol\":16015:16039  allowances[src][spender] */\n      dup1\n      dup6\n      mstore\n      swap1\n      dup4\n      mstore\n      dup2\n      dup5\n      keccak256\n      sload\n        /* \"kcbreward.sol\":16065:16122  safe96(rawAmount, \"Uni::approve: amount exceeds 96 bits\") */\n      dup3\n      mload\n      0x60\n      dup2\n      add\n      swap1\n      swap4\n      mstore\n      0x24\n      dup1\n      dup5\n      mstore\n        /* \"kcbreward.sol\":15969:15979  msg.sender */\n      swap2\n      swap4\n      sub(shl(0x60, 0x01), 0x01)\n        /* \"kcbreward.sol\":16015:16039  allowances[src][spender] */\n      swap1\n      swap2\n      and\n      swap3\n        /* \"kcbreward.sol\":15935:15939  bool */\n      dup6\n      swap3\n        /* \"kcbreward.sol\":16065:16122  safe96(rawAmount, \"Uni::approve: amount exceeds 96 bits\") */\n      tag_154\n      swap3\n        /* \"kcbreward.sol\":16072:16081  rawAmount */\n      dup9\n      swap3\n        /* \"kcbreward.sol\":16065:16122  safe96(rawAmount, \"Uni::approve: amount exceeds 96 bits\") */\n      swap2\n      swap1\n      data_cb3e128da7f3f16c83a901cce3ab145c66bad45a0cd648091fecc9964ebf42fe\n      swap1\n      dup4\n      add\n      codecopy\n        /* \"kcbreward.sol\":16065:16071  safe96 */\n      tag_148\n        /* \"kcbreward.sol\":16065:16122  safe96(rawAmount, \"Uni::approve: amount exceeds 96 bits\") */\n      jump\t// in\n    tag_154:\n        /* \"kcbreward.sol\":16049:16122  uint96 amount = safe96(rawAmount, \"Uni::approve: amount exceeds 96 bits\") */\n      swap1\n      pop\n        /* \"kcbreward.sol\":16148:16151  src */\n      dup7\n      sub(shl(0xa0, 0x01), 0x01)\n        /* \"kcbreward.sol\":16137:16151  spender != src */\n      and\n        /* \"kcbreward.sol\":16137:16144  spender */\n      dup4\n      sub(shl(0xa0, 0x01), 0x01)\n        /* \"kcbreward.sol\":16137:16151  spender != src */\n      and\n      eq\n      iszero\n        /* \"kcbreward.sol\":16137:16185  spender != src && spenderAllowance != uint96(-1) */\n      dup1\n      iszero\n      tag_155\n      jumpi\n      pop\n      sub(shl(0x60, 0x01), 0x01)\n        /* \"kcbreward.sol\":16155:16185  spenderAllowance != uint96(-1) */\n      dup3\n      dup2\n      and\n      eq\n      iszero\n        /* \"kcbreward.sol\":16137:16185  spender != src && spenderAllowance != uint96(-1) */\n    tag_155:\n        /* \"kcbreward.sol\":16133:16438  if (spender != src && spenderAllowance != uint96(-1)) {... */\n      iszero\n      tag_156\n      jumpi\n        /* \"kcbreward.sol\":16201:16220  uint96 newAllowance */\n      0x00\n        /* \"kcbreward.sol\":16223:16318  sub96(spenderAllowance, amount, \"Uni::transferFrom: transfer amount exceeds spender allowance\") */\n      tag_157\n        /* \"kcbreward.sol\":16229:16245  spenderAllowance */\n      dup4\n        /* \"kcbreward.sol\":16247:16253  amount */\n      dup4\n        /* \"kcbreward.sol\":16223:16318  sub96(spenderAllowance, amount, \"Uni::transferFrom: transfer amount exceeds spender allowance\") */\n      mload(0x40)\n      dup1\n      0x60\n      add\n      0x40\n      mstore\n      dup1\n      0x3c\n      dup2\n      mstore\n      0x20\n      add\n      data_136758788d48ec4d9744ba8c2136a9c9406d6c92cd4a81eff0de4942b636db13\n      0x3c\n      swap2\n      codecopy\n        /* \"kcbreward.sol\":16223:16228  sub96 */\n      tag_158\n        /* \"kcbreward.sol\":16223:16318  sub96(spenderAllowance, amount, \"Uni::transferFrom: transfer amount exceeds spender allowance\") */\n      jump\t// in\n    tag_157:\n      sub(shl(0xa0, 0x01), 0x01)\n        /* \"kcbreward.sol\":16332:16347  allowances[src] */\n      dup10\n      dup2\n      and\n      0x00\n      dup2\n      dup2\n      mstore\n        /* \"kcbreward.sol\":16332:16342  allowances */\n      0x03\n        /* \"kcbreward.sol\":16332:16347  allowances[src] */\n      0x20\n      swap1\n      dup2\n      mstore\n      0x40\n      dup1\n      dup4\n      keccak256\n        /* \"kcbreward.sol\":16332:16356  allowances[src][spender] */\n      swap5\n      dup11\n      and\n      dup1\n      dup5\n      mstore\n      swap5\n      swap1\n      swap2\n      mstore\n      swap1\n      dup2\n      swap1\n      keccak256\n        /* \"kcbreward.sol\":16332:16371  allowances[src][spender] = newAllowance */\n      dup1\n      sload\n      not(sub(shl(0x60, 0x01), 0x01))\n      and\n      sub(shl(0x60, 0x01), 0x01)\n      dup7\n      and\n      or\n      swap1\n      sstore\n        /* \"kcbreward.sol\":16391:16427  Approval(src, spender, newAllowance) */\n      mload\n        /* \"kcbreward.sol\":16332:16371  allowances[src][spender] = newAllowance */\n      swap3\n      swap4\n      pop\n        /* \"kcbreward.sol\":16332:16356  allowances[src][spender] */\n      swap1\n      swap2\n        /* \"kcbreward.sol\":16391:16427  Approval(src, spender, newAllowance) */\n      0x8c5be1e5ebec7d5bd14f71427d1e84f3dd0314c0f7b2291e5b200ac8c7c3b925\n      swap1\n      tag_159\n      swap1\n        /* \"kcbreward.sol\":16332:16371  allowances[src][spender] = newAllowance */\n      dup6\n      swap1\n        /* \"kcbreward.sol\":16391:16427  Approval(src, spender, newAllowance) */\n      jump(tag_150)\n    tag_159:\n      mload(0x40)\n      dup1\n      swap2\n      sub\n      swap1\n      log3\n        /* \"kcbreward.sol\":16133:16438  if (spender != src && spenderAllowance != uint96(-1)) {... */\n      pop\n    tag_156:\n        /* \"kcbreward.sol\":16448:16481  _transferTokens(src, dst, amount) */\n      tag_160\n        /* \"kcbreward.sol\":16464:16467  src */\n      dup8\n        /* \"kcbreward.sol\":16469:16472  dst */\n      dup8\n        /* \"kcbreward.sol\":16474:16480  amount */\n      dup4\n        /* \"kcbreward.sol\":16448:16463  _transferTokens */\n      tag_161\n        /* \"kcbreward.sol\":16448:16481  _transferTokens(src, dst, amount) */\n      jump\t// in\n    tag_160:\n        /* \"kcbreward.sol\":16498:16502  true */\n      0x01\n        /* \"kcbreward.sol\":16491:16502  return true */\n      swap4\n      pop\n      pop\n      pop\n      pop\n        /* \"kcbreward.sol\":15853:16509  function transferFrom(address src, address dst, uint rawAmount) external returns (bool) {... */\n    tag_153:\n      swap4\n      swap3\n      pop\n      pop\n      pop\n      jump\t// out\n        /* \"kcbreward.sol\":8668:8805  bytes32 public constant PERMIT_TYPEHASH = keccak256(\"Permit(address owner,address spender,uint256 value,uint256 nonce,uint256 deadline)\") */\n    tag_64:\n        /* \"kcbreward.sol\":8710:8805  keccak256(\"Permit(address owner,address spender,uint256 value,uint256 nonce,uint256 deadline)\") */\n      mload(0x40)\n      tag_151\n      swap1\n      jump(tag_163)\n        /* \"kcbreward.sol\":7143:7174  uint public mintingAllowedAfter */\n    tag_67:\n      sload(0x02)\n      dup2\n      jump\t// out\n        /* \"kcbreward.sol\":6843:6878  uint8 public constant decimals = 18 */\n    tag_70:\n        /* \"kcbreward.sol\":6876:6878  18 */\n      0x12\n        /* \"kcbreward.sol\":6843:6878  uint8 public constant decimals = 18 */\n      dup2\n      jump\t// out\n        /* \"kcbreward.sol\":10909:11948  function mint(address dst, uint rawAmount) external {... */\n    tag_75:\n        /* \"kcbreward.sol\":10993:10999  minter */\n      and(sub(shl(0xa0, 0x01), 0x01), sload(0x01))\n        /* \"kcbreward.sol\":10979:10989  msg.sender */\n      caller\n        /* \"kcbreward.sol\":10979:10999  msg.sender == minter */\n      eq\n        /* \"kcbreward.sol\":10971:11039  require(msg.sender == minter, \"Uni::mint: only the minter can mint\") */\n      tag_165\n      jumpi\n      mload(0x40)\n      shl(0xe5, 0x461bcd)\n      dup2\n      mstore\n      0x04\n      add\n      tag_166\n      swap1\n      jump(tag_167)\n    tag_166:\n      mload(0x40)\n      dup1\n      swap2\n      sub\n      swap1\n      revert\n    tag_165:\n        /* \"kcbreward.sol\":11076:11095  mintingAllowedAfter */\n      sload(0x02)\n        /* \"kcbreward.sol\":11057:11072  block.timestamp */\n      timestamp\n        /* \"kcbreward.sol\":11057:11095  block.timestamp >= mintingAllowedAfter */\n      lt\n      iszero\n        /* \"kcbreward.sol\":11049:11134  require(block.timestamp >= mintingAllowedAfter, \"Uni::mint: minting not allowed yet\") */\n      tag_168\n      jumpi\n      mload(0x40)\n      shl(0xe5, 0x461bcd)\n      dup2\n      mstore\n      0x04\n      add\n      tag_166\n      swap1\n      jump(tag_170)\n    tag_168:\n      sub(shl(0xa0, 0x01), 0x01)\n        /* \"kcbreward.sol\":11152:11169  dst != address(0) */\n      dup3\n      and\n        /* \"kcbreward.sol\":11144:11220  require(dst != address(0), \"Uni::mint: cannot transfer to the zero address\") */\n      tag_171\n      jumpi\n      mload(0x40)\n      shl(0xe5, 0x461bcd)\n      dup2\n      mstore\n      0x04\n      add\n      tag_166\n      swap1\n      jump(tag_173)\n    tag_171:\n        /* \"kcbreward.sol\":11280:11334  SafeMath.add(block.timestamp, minimumTimeBetweenMints) */\n      tag_174\n        /* \"kcbreward.sol\":11293:11308  block.timestamp */\n      timestamp\n        /* \"kcbreward.sol\":7273:7285  1 days * 365 */\n      0x01e13380\n        /* \"kcbreward.sol\":11280:11292  SafeMath.add */\n      tag_175\n        /* \"kcbreward.sol\":11280:11334  SafeMath.add(block.timestamp, minimumTimeBetweenMints) */\n      jump\t// in\n    tag_174:\n        /* \"kcbreward.sol\":11258:11277  mintingAllowedAfter */\n      0x02\n        /* \"kcbreward.sol\":11258:11334  mintingAllowedAfter = SafeMath.add(block.timestamp, minimumTimeBetweenMints) */\n      dup2\n      swap1\n      sstore\n      pop\n        /* \"kcbreward.sol\":11372:11385  uint96 amount */\n      0x00\n        /* \"kcbreward.sol\":11388:11442  safe96(rawAmount, \"Uni::mint: amount exceeds 96 bits\") */\n      tag_176\n        /* \"kcbreward.sol\":11395:11404  rawAmount */\n      dup3\n        /* \"kcbreward.sol\":11388:11442  safe96(rawAmount, \"Uni::mint: amount exceeds 96 bits\") */\n      mload(0x40)\n      dup1\n      0x60\n      add\n      0x40\n      mstore\n      dup1\n      0x21\n      dup2\n      mstore\n      0x20\n      add\n      data_bcb6733e7ac2aee3c3602ee664d4b3cb251e429df5c7e9148d412d0b60f07b16\n      0x21\n      swap2\n      codecopy\n        /* \"kcbreward.sol\":11388:11394  safe96 */\n      tag_148\n        /* \"kcbreward.sol\":11388:11442  safe96(rawAmount, \"Uni::mint: amount exceeds 96 bits\") */\n      jump\t// in\n    tag_176:\n        /* \"kcbreward.sol\":11372:11442  uint96 amount = safe96(rawAmount, \"Uni::mint: amount exceeds 96 bits\") */\n      swap1\n      pop\n        /* \"kcbreward.sol\":11470:11523  SafeMath.div(SafeMath.mul(totalSupply, mintCap), 100) */\n      tag_177\n        /* \"kcbreward.sol\":11483:11517  SafeMath.mul(totalSupply, mintCap) */\n      tag_178\n        /* \"kcbreward.sol\":11496:11507  totalSupply */\n      sload(0x00)\n        /* \"kcbreward.sol\":7409:7410  2 */\n      0x02\n        /* \"kcbreward.sol\":11483:11517  SafeMath.mul(totalSupply, mintCap) */\n      0xff\n      and\n        /* \"kcbreward.sol\":11483:11495  SafeMath.mul */\n      tag_179\n        /* \"kcbreward.sol\":11483:11517  SafeMath.mul(totalSupply, mintCap) */\n      jump\t// in\n    tag_178:\n        /* \"kcbreward.sol\":11519:11522  100 */\n      0x64\n        /* \"kcbreward.sol\":11470:11482  SafeMath.div */\n      tag_180\n        /* \"kcbreward.sol\":11470:11523  SafeMath.div(SafeMath.mul(totalSupply, mintCap), 100) */\n      jump\t// in\n    tag_177:\n        /* \"kcbreward.sol\":11460:11466  amount */\n      dup2\n      sub(shl(0x60, 0x01), 0x01)\n        /* \"kcbreward.sol\":11460:11523  amount <= SafeMath.div(SafeMath.mul(totalSupply, mintCap), 100) */\n      and\n      gt\n      iszero\n        /* \"kcbreward.sol\":11452:11556  require(amount <= SafeMath.div(SafeMath.mul(totalSupply, mintCap), 100), \"Uni::mint: exceeded mint cap\") */\n      tag_181\n      jumpi\n      mload(0x40)\n      shl(0xe5, 0x461bcd)\n      dup2\n      mstore\n      0x04\n      add\n      tag_166\n      swap1\n      jump(tag_183)\n    tag_181:\n        /* \"kcbreward.sol\":11580:11663  safe96(SafeMath.add(totalSupply, amount), \"Uni::mint: totalSupply exceeds 96 bits\") */\n      tag_184\n        /* \"kcbreward.sol\":11587:11620  SafeMath.add(totalSupply, amount) */\n      tag_185\n        /* \"kcbreward.sol\":11600:11611  totalSupply */\n      sload(0x00)\n        /* \"kcbreward.sol\":11613:11619  amount */\n      dup4\n      sub(shl(0x60, 0x01), 0x01)\n        /* \"kcbreward.sol\":11587:11620  SafeMath.add(totalSupply, amount) */\n      and\n        /* \"kcbreward.sol\":11587:11599  SafeMath.add */\n      tag_175\n        /* \"kcbreward.sol\":11587:11620  SafeMath.add(totalSupply, amount) */\n      jump\t// in\n    tag_185:\n        /* \"kcbreward.sol\":11580:11663  safe96(SafeMath.add(totalSupply, amount), \"Uni::mint: totalSupply exceeds 96 bits\") */\n      mload(0x40)\n      dup1\n      0x60\n      add\n      0x40\n      mstore\n      dup1\n      0x26\n      dup2\n      mstore\n      0x20\n      add\n      data_1ef2347f5dbb97e8eb7bc1442a128a1c6e65386b013257fe2b8ad95aaaa96ab8\n      0x26\n      swap2\n      codecopy\n        /* \"kcbreward.sol\":11580:11586  safe96 */\n      tag_148\n        /* \"kcbreward.sol\":11580:11663  safe96(SafeMath.add(totalSupply, amount), \"Uni::mint: totalSupply exceeds 96 bits\") */\n      jump\t// in\n    tag_184:\n      sub(shl(0x60, 0x01), 0x01)\n        /* \"kcbreward.sol\":11566:11663  totalSupply = safe96(SafeMath.add(totalSupply, amount), \"Uni::mint: totalSupply exceeds 96 bits\") */\n      swap1\n      dup2\n      and\n        /* \"kcbreward.sol\":11566:11577  totalSupply */\n      0x00\n        /* \"kcbreward.sol\":11566:11663  totalSupply = safe96(SafeMath.add(totalSupply, amount), \"Uni::mint: totalSupply exceeds 96 bits\") */\n      swap1\n      dup2\n      sstore\n      sub(shl(0xa0, 0x01), 0x01)\n        /* \"kcbreward.sol\":11744:11757  balances[dst] */\n      dup6\n      and\n      dup2\n      mstore\n        /* \"kcbreward.sol\":11744:11752  balances */\n      0x04\n        /* \"kcbreward.sol\":11744:11757  balances[dst] */\n      0x20\n      swap1\n      dup2\n      mstore\n      0x40\n      swap2\n      dup3\n      swap1\n      keccak256\n      sload\n        /* \"kcbreward.sol\":11738:11806  add96(balances[dst], amount, \"Uni::mint: transfer amount overflows\") */\n      dup3\n      mload\n      0x60\n      dup2\n      add\n      swap1\n      swap4\n      mstore\n      0x24\n      dup1\n      dup5\n      mstore\n      tag_186\n      swap5\n        /* \"kcbreward.sol\":11744:11757  balances[dst] */\n      swap2\n      swap1\n      swap2\n      and\n      swap3\n        /* \"kcbreward.sol\":11759:11765  amount */\n      dup6\n      swap3\n        /* \"kcbreward.sol\":11738:11806  add96(balances[dst], amount, \"Uni::mint: transfer amount overflows\") */\n      swap1\n      swap2\n      swap1\n      data_0ab5eae08d50cc345c58c2d7d67f9034a98d0a88dd540314c408c39a8dcec01d\n      swap1\n      dup4\n      add\n      codecopy\n        /* \"kcbreward.sol\":11738:11743  add96 */\n      tag_187\n        /* \"kcbreward.sol\":11738:11806  add96(balances[dst], amount, \"Uni::mint: transfer amount overflows\") */\n      jump\t// in\n    tag_186:\n      sub(shl(0xa0, 0x01), 0x01)\n        /* \"kcbreward.sol\":11722:11735  balances[dst] */\n      dup5\n      and\n      0x00\n      dup2\n      dup2\n      mstore\n        /* \"kcbreward.sol\":11722:11730  balances */\n      0x04\n        /* \"kcbreward.sol\":11722:11735  balances[dst] */\n      0x20\n      mstore\n      0x40\n      dup1\n      dup3\n      keccak256\n        /* \"kcbreward.sol\":11722:11806  balances[dst] = add96(balances[dst], amount, \"Uni::mint: transfer amount overflows\") */\n      dup1\n      sload\n      not(sub(shl(0x60, 0x01), 0x01))\n      and\n      sub(shl(0x60, 0x01), 0x01)\n      swap6\n      swap1\n      swap6\n      and\n      swap5\n      swap1\n      swap5\n      or\n      swap1\n      swap4\n      sstore\n        /* \"kcbreward.sol\":11821:11854  Transfer(address(0), dst, amount) */\n      swap2\n      mload\n        /* \"kcbreward.sol\":11722:11735  balances[dst] */\n      swap1\n      swap2\n      swap1\n        /* \"kcbreward.sol\":11821:11854  Transfer(address(0), dst, amount) */\n      0xddf252ad1be2c89b69c2b068fc378daa952ba7f163c4a11628f55a4df523b3ef\n      swap1\n      tag_188\n      swap1\n        /* \"kcbreward.sol\":11847:11853  amount */\n      dup6\n      swap1\n        /* \"kcbreward.sol\":11821:11854  Transfer(address(0), dst, amount) */\n      jump(tag_150)\n    tag_188:\n      mload(0x40)\n      dup1\n      swap2\n      sub\n      swap1\n      log3\n      sub(shl(0xa0, 0x01), 0x01)\n        /* \"kcbreward.sol\":11918:11932  delegates[dst] */\n      dup1\n      dup5\n      and\n        /* \"kcbreward.sol\":11914:11915  0 */\n      0x00\n        /* \"kcbreward.sol\":11918:11932  delegates[dst] */\n      swap1\n      dup2\n      mstore\n        /* \"kcbreward.sol\":11918:11927  delegates */\n      0x05\n        /* \"kcbreward.sol\":11918:11932  delegates[dst] */\n      0x20\n      mstore\n      0x40\n      dup2\n      keccak256\n      sload\n        /* \"kcbreward.sol\":11891:11941  _moveDelegates(address(0), delegates[dst], amount) */\n      tag_189\n      swap3\n        /* \"kcbreward.sol\":11918:11932  delegates[dst] */\n      and\n        /* \"kcbreward.sol\":11934:11940  amount */\n      dup4\n        /* \"kcbreward.sol\":11891:11905  _moveDelegates */\n      tag_190\n        /* \"kcbreward.sol\":11891:11941  _moveDelegates(address(0), delegates[dst], amount) */\n      jump\t// in\n    tag_189:\n        /* \"kcbreward.sol\":10909:11948  function mint(address dst, uint rawAmount) external {... */\n      pop\n      pop\n      pop\n      jump\t// out\n        /* \"kcbreward.sol\":7716:7761  mapping (address => address) public delegates */\n    tag_79:\n      mstore(0x20, 0x05)\n      0x00\n      swap1\n      dup2\n      mstore\n      0x40\n      swap1\n      keccak256\n      sload\n      sub(shl(0xa0, 0x01), 0x01)\n      and\n      dup2\n      jump\t// out\n        /* \"kcbreward.sol\":7224:7285  uint32 public constant minimumTimeBetweenMints = 1 days * 365 */\n    tag_82:\n        /* \"kcbreward.sol\":7273:7285  1 days * 365 */\n      0x01e13380\n        /* \"kcbreward.sol\":7224:7285  uint32 public constant minimumTimeBetweenMints = 1 days * 365 */\n      dup2\n      jump\t// out\n        /* \"kcbreward.sol\":16651:16751  function delegate(address delegatee) public {... */\n    tag_87:\n        /* \"kcbreward.sol\":16712:16744  _delegate(msg.sender, delegatee) */\n      tag_192\n        /* \"kcbreward.sol\":16722:16732  msg.sender */\n      caller\n        /* \"kcbreward.sol\":16734:16743  delegatee */\n      dup3\n        /* \"kcbreward.sol\":16712:16721  _delegate */\n      tag_193\n        /* \"kcbreward.sol\":16712:16744  _delegate(msg.sender, delegatee) */\n      jump\t// in\n    tag_192:\n        /* \"kcbreward.sol\":16651:16751  function delegate(address delegatee) public {... */\n      pop\n      jump\t// out\n        /* \"kcbreward.sol\":8132:8181  mapping (address => uint32) public numCheckpoints */\n    tag_90:\n      mstore(0x20, 0x07)\n      0x00\n      swap1\n      dup2\n      mstore\n      0x40\n      swap1\n      keccak256\n      sload\n      0xffffffff\n      and\n      dup2\n      jump\t// out\n        /* \"kcbreward.sol\":14957:15063  function balanceOf(address account) external view returns (uint) {... */\n    tag_94:\n      sub(shl(0xa0, 0x01), 0x01)\n        /* \"kcbreward.sol\":15039:15056  balances[account] */\n      and\n        /* \"kcbreward.sol\":15016:15020  uint */\n      0x00\n        /* \"kcbreward.sol\":15039:15056  balances[account] */\n      swap1\n      dup2\n      mstore\n        /* \"kcbreward.sol\":15039:15047  balances */\n      0x04\n        /* \"kcbreward.sol\":15039:15056  balances[account] */\n      0x20\n      mstore\n      0x40\n      swap1\n      keccak256\n      sload\n      sub(shl(0x60, 0x01), 0x01)\n      and\n      swap1\n        /* \"kcbreward.sol\":14957:15063  function balanceOf(address account) external view returns (uint) {... */\n      jump\t// out\n        /* \"kcbreward.sol\":7377:7410  uint8 public constant mintCap = 2 */\n    tag_97:\n        /* \"kcbreward.sol\":7409:7410  2 */\n      0x02\n        /* \"kcbreward.sol\":7377:7410  uint8 public constant mintCap = 2 */\n      dup2\n      jump\t// out\n        /* \"kcbreward.sol\":18786:19971  function getPriorVotes(address account, uint blockNumber) public view returns (uint96) {... */\n    tag_101:\n        /* \"kcbreward.sol\":18865:18871  uint96 */\n      0x00\n        /* \"kcbreward.sol\":18905:18917  block.number */\n      number\n        /* \"kcbreward.sol\":18891:18902  blockNumber */\n      dup3\n        /* \"kcbreward.sol\":18891:18917  blockNumber < block.number */\n      lt\n        /* \"kcbreward.sol\":18883:18960  require(blockNumber < block.number, \"Uni::getPriorVotes: not yet determined\") */\n      tag_196\n      jumpi\n      mload(0x40)\n      shl(0xe5, 0x461bcd)\n      dup2\n      mstore\n      0x04\n      add\n      tag_166\n      swap1\n      jump(tag_198)\n    tag_196:\n      sub(shl(0xa0, 0x01), 0x01)\n        /* \"kcbreward.sol\":18993:19016  numCheckpoints[account] */\n      dup4\n      and\n        /* \"kcbreward.sol\":18971:18990  uint32 nCheckpoints */\n      0x00\n        /* \"kcbreward.sol\":18993:19016  numCheckpoints[account] */\n      swap1\n      dup2\n      mstore\n        /* \"kcbreward.sol\":18993:19007  numCheckpoints */\n      0x07\n        /* \"kcbreward.sol\":18993:19016  numCheckpoints[account] */\n      0x20\n      mstore\n      0x40\n      swap1\n      keccak256\n      sload\n      0xffffffff\n      and\n        /* \"kcbreward.sol\":19030:19047  nCheckpoints == 0 */\n      dup1\n        /* \"kcbreward.sol\":19026:19082  if (nCheckpoints == 0) {... */\n      tag_199\n      jumpi\n        /* \"kcbreward.sol\":19070:19071  0 */\n      0x00\n        /* \"kcbreward.sol\":19063:19071  return 0 */\n      swap2\n      pop\n      pop\n      jump(tag_144)\n        /* \"kcbreward.sol\":19026:19082  if (nCheckpoints == 0) {... */\n    tag_199:\n      sub(shl(0xa0, 0x01), 0x01)\n        /* \"kcbreward.sol\":19139:19159  checkpoints[account] */\n      dup5\n      and\n      0x00\n      swap1\n      dup2\n      mstore\n        /* \"kcbreward.sol\":19139:19150  checkpoints */\n      0x06\n        /* \"kcbreward.sol\":19139:19159  checkpoints[account] */\n      0x20\n      swap1\n      dup2\n      mstore\n      0x40\n      dup1\n      dup4\n      keccak256\n        /* \"kcbreward.sol\":19139:19177  checkpoints[account][nCheckpoints - 1] */\n      0xffffffff\n      not(0x00)\n        /* \"kcbreward.sol\":19160:19176  nCheckpoints - 1 */\n      dup7\n      add\n        /* \"kcbreward.sol\":19139:19177  checkpoints[account][nCheckpoints - 1] */\n      dup2\n      and\n      dup6\n      mstore\n      swap3\n      mstore\n      swap1\n      swap2\n      keccak256\n        /* \"kcbreward.sol\":19139:19187  checkpoints[account][nCheckpoints - 1].fromBlock */\n      sload\n      and\n        /* \"kcbreward.sol\":19139:19202  checkpoints[account][nCheckpoints - 1].fromBlock <= blockNumber */\n      dup4\n      lt\n        /* \"kcbreward.sol\":19135:19280  if (checkpoints[account][nCheckpoints - 1].fromBlock <= blockNumber) {... */\n      tag_200\n      jumpi\n      sub(shl(0xa0, 0x01), 0x01)\n        /* \"kcbreward.sol\":19225:19245  checkpoints[account] */\n      dup5\n      and\n      0x00\n      swap1\n      dup2\n      mstore\n        /* \"kcbreward.sol\":19225:19236  checkpoints */\n      0x06\n        /* \"kcbreward.sol\":19225:19245  checkpoints[account] */\n      0x20\n      swap1\n      dup2\n      mstore\n      0x40\n      dup1\n      dup4\n      keccak256\n      not(0x00)\n        /* \"kcbreward.sol\":19246:19262  nCheckpoints - 1 */\n      swap5\n      swap1\n      swap5\n      add\n        /* \"kcbreward.sol\":19225:19263  checkpoints[account][nCheckpoints - 1] */\n      0xffffffff\n      and\n      dup4\n      mstore\n      swap3\n      swap1\n      mstore\n      keccak256\n        /* \"kcbreward.sol\":19225:19269  checkpoints[account][nCheckpoints - 1].votes */\n      sload\n      shl(0x20, 0x01)\n      swap1\n      div\n      sub(shl(0x60, 0x01), 0x01)\n      and\n      swap1\n      pop\n        /* \"kcbreward.sol\":19218:19269  return checkpoints[account][nCheckpoints - 1].votes */\n      jump(tag_144)\n        /* \"kcbreward.sol\":19135:19280  if (checkpoints[account][nCheckpoints - 1].fromBlock <= blockNumber) {... */\n    tag_200:\n      sub(shl(0xa0, 0x01), 0x01)\n        /* \"kcbreward.sol\":19338:19358  checkpoints[account] */\n      dup5\n      and\n      0x00\n      swap1\n      dup2\n      mstore\n        /* \"kcbreward.sol\":19338:19349  checkpoints */\n      0x06\n        /* \"kcbreward.sol\":19338:19358  checkpoints[account] */\n      0x20\n      swap1\n      dup2\n      mstore\n      0x40\n      dup1\n      dup4\n      keccak256\n        /* \"kcbreward.sol\":19338:19361  checkpoints[account][0] */\n      dup4\n      dup1\n      mstore\n      swap1\n      swap2\n      mstore\n      swap1\n      keccak256\n        /* \"kcbreward.sol\":19338:19371  checkpoints[account][0].fromBlock */\n      sload\n        /* \"kcbreward.sol\":19338:19361  checkpoints[account][0] */\n      0xffffffff\n        /* \"kcbreward.sol\":19338:19371  checkpoints[account][0].fromBlock */\n      and\n        /* \"kcbreward.sol\":19338:19385  checkpoints[account][0].fromBlock > blockNumber */\n      dup4\n      lt\n        /* \"kcbreward.sol\":19334:19420  if (checkpoints[account][0].fromBlock > blockNumber) {... */\n      iszero\n      tag_201\n      jumpi\n        /* \"kcbreward.sol\":19408:19409  0 */\n      0x00\n        /* \"kcbreward.sol\":19401:19409  return 0 */\n      swap2\n      pop\n      pop\n      jump(tag_144)\n        /* \"kcbreward.sol\":19334:19420  if (checkpoints[account][0].fromBlock > blockNumber) {... */\n    tag_201:\n        /* \"kcbreward.sol\":19430:19442  uint32 lower */\n      0x00\n      not(0x00)\n        /* \"kcbreward.sol\":19471:19487  nCheckpoints - 1 */\n      dup3\n      add\n        /* \"kcbreward.sol\":19497:19915  while (upper > lower) {... */\n    tag_202:\n        /* \"kcbreward.sol\":19512:19517  lower */\n      dup2\n        /* \"kcbreward.sol\":19504:19517  upper > lower */\n      0xffffffff\n      and\n        /* \"kcbreward.sol\":19504:19509  upper */\n      dup2\n        /* \"kcbreward.sol\":19504:19517  upper > lower */\n      0xffffffff\n      and\n      gt\n        /* \"kcbreward.sol\":19497:19915  while (upper > lower) {... */\n      iszero\n      tag_203\n      jumpi\n        /* \"kcbreward.sol\":19575:19576  2 */\n      0x02\n        /* \"kcbreward.sol\":19558:19571  upper - lower */\n      dup3\n      dup3\n      sub\n        /* \"kcbreward.sol\":19557:19576  (upper - lower) / 2 */\n      0xffffffff\n      and\n      div\n        /* \"kcbreward.sol\":19549:19576  upper - (upper - lower) / 2 */\n      dup2\n      sub\n        /* \"kcbreward.sol\":19617:19637  Checkpoint memory cp */\n      tag_205\n      tag_206\n      jump\t// in\n    tag_205:\n      pop\n      sub(shl(0xa0, 0x01), 0x01)\n        /* \"kcbreward.sol\":19640:19660  checkpoints[account] */\n      dup8\n      and\n      0x00\n      swap1\n      dup2\n      mstore\n        /* \"kcbreward.sol\":19640:19651  checkpoints */\n      0x06\n        /* \"kcbreward.sol\":19640:19660  checkpoints[account] */\n      0x20\n      swap1\n      dup2\n      mstore\n      0x40\n      dup1\n      dup4\n      keccak256\n        /* \"kcbreward.sol\":19640:19668  checkpoints[account][center] */\n      0xffffffff\n      dup6\n      dup2\n      and\n      dup6\n      mstore\n      swap1\n      dup4\n      mstore\n      swap3\n      dup2\n      swap1\n      keccak256\n        /* \"kcbreward.sol\":19617:19668  Checkpoint memory cp = checkpoints[account][center] */\n      dup2\n      mload\n      dup1\n      dup4\n      add\n      swap1\n      swap3\n      mstore\n      sload\n      swap3\n      dup4\n      and\n      dup1\n      dup3\n      mstore\n      shl(0x20, 0x01)\n      swap1\n      swap4\n      div\n      sub(shl(0x60, 0x01), 0x01)\n      and\n      swap2\n      dup2\n      add\n      swap2\n      swap1\n      swap2\n      mstore\n      swap1\n        /* \"kcbreward.sol\":19686:19713  cp.fromBlock == blockNumber */\n      dup8\n      eq\n        /* \"kcbreward.sol\":19682:19905  if (cp.fromBlock == blockNumber) {... */\n      iszero\n      tag_207\n      jumpi\n        /* \"kcbreward.sol\":19740:19748  cp.votes */\n      0x20\n      add\n      mload\n      swap5\n      pop\n        /* \"kcbreward.sol\":19733:19748  return cp.votes */\n      tag_144\n      swap4\n      pop\n      pop\n      pop\n      pop\n      jump\n        /* \"kcbreward.sol\":19682:19905  if (cp.fromBlock == blockNumber) {... */\n    tag_207:\n        /* \"kcbreward.sol\":19773:19785  cp.fromBlock */\n      dup1\n      mload\n        /* \"kcbreward.sol\":19773:19799  cp.fromBlock < blockNumber */\n      0xffffffff\n      and\n      dup8\n      gt\n        /* \"kcbreward.sol\":19769:19905  if (cp.fromBlock < blockNumber) {... */\n      iszero\n      tag_209\n      jumpi\n        /* \"kcbreward.sol\":19827:19833  center */\n      dup2\n        /* \"kcbreward.sol\":19819:19833  lower = center */\n      swap4\n      pop\n        /* \"kcbreward.sol\":19769:19905  if (cp.fromBlock < blockNumber) {... */\n      jump(tag_210)\n    tag_209:\n        /* \"kcbreward.sol\":19889:19890  1 */\n      0x01\n        /* \"kcbreward.sol\":19880:19886  center */\n      dup3\n        /* \"kcbreward.sol\":19880:19890  center - 1 */\n      sub\n        /* \"kcbreward.sol\":19872:19890  upper = center - 1 */\n      swap3\n      pop\n        /* \"kcbreward.sol\":19769:19905  if (cp.fromBlock < blockNumber) {... */\n    tag_210:\n        /* \"kcbreward.sol\":19497:19915  while (upper > lower) {... */\n      pop\n      pop\n      jump(tag_202)\n    tag_203:\n      pop\n      sub(shl(0xa0, 0x01), 0x01)\n        /* \"kcbreward.sol\":19931:19951  checkpoints[account] */\n      dup6\n      and\n      0x00\n      swap1\n      dup2\n      mstore\n        /* \"kcbreward.sol\":19931:19942  checkpoints */\n      0x06\n        /* \"kcbreward.sol\":19931:19951  checkpoints[account] */\n      0x20\n      swap1\n      dup2\n      mstore\n      0x40\n      dup1\n      dup4\n      keccak256\n        /* \"kcbreward.sol\":19931:19958  checkpoints[account][lower] */\n      0xffffffff\n      swap1\n      swap5\n      and\n      dup4\n      mstore\n      swap3\n      swap1\n      mstore\n      keccak256\n        /* \"kcbreward.sol\":19931:19964  checkpoints[account][lower].votes */\n      sload\n      sub(shl(0x60, 0x01), 0x01)\n      shl(0x20, 0x01)\n      swap1\n      swap2\n      div\n      and\n      swap2\n      pop\n      pop\n        /* \"kcbreward.sol\":18786:19971  function getPriorVotes(address account, uint blockNumber) public view returns (uint96) {... */\n      swap3\n      swap2\n      pop\n      pop\n      jump\t// out\n        /* \"kcbreward.sol\":8883:8922  mapping (address => uint) public nonces */\n    tag_106:\n      mstore(0x20, 0x08)\n      0x00\n      swap1\n      dup2\n      mstore\n      0x40\n      swap1\n      keccak256\n      sload\n      dup2\n      jump\t// out\n        /* \"kcbreward.sol\":6746:6783  string public constant symbol = \"UNI\" */\n    tag_109:\n      mload(0x40)\n      dup1\n      0x40\n      add\n      0x40\n      mstore\n      dup1\n      0x03\n      dup2\n      mstore\n      0x20\n      add\n      shl(0xe8, 0x554e49)\n      dup2\n      mstore\n      pop\n      dup2\n      jump\t// out\n        /* \"kcbreward.sol\":15319:15552  function transfer(address dst, uint rawAmount) external returns (bool) {... */\n    tag_113:\n        /* \"kcbreward.sol\":15384:15388  bool */\n      0x00\n        /* \"kcbreward.sol\":15400:15413  uint96 amount */\n      dup1\n        /* \"kcbreward.sol\":15416:15474  safe96(rawAmount, \"Uni::transfer: amount exceeds 96 bits\") */\n      tag_212\n        /* \"kcbreward.sol\":15423:15432  rawAmount */\n      dup4\n        /* \"kcbreward.sol\":15416:15474  safe96(rawAmount, \"Uni::transfer: amount exceeds 96 bits\") */\n      mload(0x40)\n      dup1\n      0x60\n      add\n      0x40\n      mstore\n      dup1\n      0x25\n      dup2\n      mstore\n      0x20\n      add\n      data_9bc67db7413f33b8f7a9995149809b7b3a4a83b5ba884084bea06cfb35986555\n      0x25\n      swap2\n      codecopy\n        /* \"kcbreward.sol\":15416:15422  safe96 */\n      tag_148\n        /* \"kcbreward.sol\":15416:15474  safe96(rawAmount, \"Uni::transfer: amount exceeds 96 bits\") */\n      jump\t// in\n    tag_212:\n        /* \"kcbreward.sol\":15400:15474  uint96 amount = safe96(rawAmount, \"Uni::transfer: amount exceeds 96 bits\") */\n      swap1\n      pop\n        /* \"kcbreward.sol\":15484:15524  _transferTokens(msg.sender, dst, amount) */\n      tag_213\n        /* \"kcbreward.sol\":15500:15510  msg.sender */\n      caller\n        /* \"kcbreward.sol\":15512:15515  dst */\n      dup6\n        /* \"kcbreward.sol\":15517:15523  amount */\n      dup4\n        /* \"kcbreward.sol\":15484:15499  _transferTokens */\n      tag_161\n        /* \"kcbreward.sol\":15484:15524  _transferTokens(msg.sender, dst, amount) */\n      jump\t// in\n    tag_213:\n      pop\n        /* \"kcbreward.sol\":15541:15545  true */\n      0x01\n      swap4\n        /* \"kcbreward.sol\":15319:15552  function transfer(address dst, uint rawAmount) external returns (bool) {... */\n      swap3\n      pop\n      pop\n      pop\n      jump\t// out\n        /* \"kcbreward.sol\":18145:18364  function getCurrentVotes(address account) external view returns (uint96) {... */\n    tag_117:\n      sub(shl(0xa0, 0x01), 0x01)\n        /* \"kcbreward.sol\":18250:18273  numCheckpoints[account] */\n      dup2\n      and\n        /* \"kcbreward.sol\":18210:18216  uint96 */\n      0x00\n        /* \"kcbreward.sol\":18250:18273  numCheckpoints[account] */\n      swap1\n      dup2\n      mstore\n        /* \"kcbreward.sol\":18250:18264  numCheckpoints */\n      0x07\n        /* \"kcbreward.sol\":18250:18273  numCheckpoints[account] */\n      0x20\n      mstore\n      0x40\n      dup2\n      keccak256\n      sload\n      0xffffffff\n      and\n        /* \"kcbreward.sol\":18290:18306  nCheckpoints > 0 */\n      dup1\n        /* \"kcbreward.sol\":18290:18357  nCheckpoints > 0 ? checkpoints[account][nCheckpoints - 1].votes : 0 */\n      tag_215\n      jumpi\n        /* \"kcbreward.sol\":18356:18357  0 */\n      0x00\n        /* \"kcbreward.sol\":18290:18357  nCheckpoints > 0 ? checkpoints[account][nCheckpoints - 1].votes : 0 */\n      jump(tag_153)\n    tag_215:\n      sub(shl(0xa0, 0x01), 0x01)\n        /* \"kcbreward.sol\":18309:18329  checkpoints[account] */\n      dup4\n      and\n      0x00\n      swap1\n      dup2\n      mstore\n        /* \"kcbreward.sol\":18309:18320  checkpoints */\n      0x06\n        /* \"kcbreward.sol\":18309:18329  checkpoints[account] */\n      0x20\n      swap1\n      dup2\n      mstore\n      0x40\n      dup1\n      dup4\n      keccak256\n      not(0x00)\n        /* \"kcbreward.sol\":18330:18346  nCheckpoints - 1 */\n      dup6\n      add\n        /* \"kcbreward.sol\":18309:18347  checkpoints[account][nCheckpoints - 1] */\n      0xffffffff\n      and\n      dup5\n      mstore\n      swap1\n      swap2\n      mstore\n      swap1\n      keccak256\n        /* \"kcbreward.sol\":18309:18353  checkpoints[account][nCheckpoints - 1].votes */\n      sload\n      shl(0x20, 0x01)\n      swap1\n      div\n      sub(shl(0x60, 0x01), 0x01)\n      and\n        /* \"kcbreward.sol\":18283:18357  return nCheckpoints > 0 ? checkpoints[account][nCheckpoints - 1].votes : 0 */\n      swap4\n        /* \"kcbreward.sol\":18145:18364  function getCurrentVotes(address account) external view returns (uint96) {... */\n      swap3\n      pop\n      pop\n      pop\n      jump\t// out\n        /* \"kcbreward.sol\":17174:17951  function delegateBySig(address delegatee, uint nonce, uint expiry, uint8 v, bytes32 r, bytes32 s) public {... */\n    tag_122:\n        /* \"kcbreward.sol\":17289:17312  bytes32 domainSeparator */\n      0x00\n        /* \"kcbreward.sol\":8293:8373  keccak256(\"EIP712Domain(string name,uint256 chainId,address verifyingContract)\") */\n      mload(0x40)\n      tag_218\n      swap1\n      jump(tag_152)\n    tag_218:\n      0x40\n      dup1\n      mload\n      swap2\n      dup3\n      swap1\n      sub\n      dup3\n      keccak256\n        /* \"kcbreward.sol\":17369:17373  name */\n      dup3\n      dup3\n      add\n      swap1\n      swap2\n      mstore\n      0x07\n      dup3\n      mstore\n      shl(0xcc, 0x0556e697377617)\n      0x20\n      swap1\n      swap3\n      add\n      swap2\n      swap1\n      swap2\n      mstore\n        /* \"kcbreward.sol\":17353:17375  keccak256(bytes(name)) */\n      0x99c45e8ee5dde061ced9c812089094fbd28a020e7e37f2851198887e5ca64985\n        /* \"kcbreward.sol\":17377:17389  getChainId() */\n      tag_219\n        /* \"kcbreward.sol\":17377:17387  getChainId */\n      tag_220\n        /* \"kcbreward.sol\":17377:17389  getChainId() */\n      jump\t// in\n    tag_219:\n        /* \"kcbreward.sol\":17399:17403  this */\n      address\n        /* \"kcbreward.sol\":17325:17405  abi.encode(DOMAIN_TYPEHASH, keccak256(bytes(name)), getChainId(), address(this)) */\n      add(0x20, mload(0x40))\n      tag_221\n      swap5\n      swap4\n      swap3\n      swap2\n      swap1\n      jump(tag_222)\n    tag_221:\n      mload(0x40)\n        /* \"--CODEGEN--\":49:53   */\n      0x20\n        /* \"--CODEGEN--\":39:46   */\n      dup2\n        /* \"--CODEGEN--\":30:37   */\n      dup4\n        /* \"--CODEGEN--\":26:47   */\n      sub\n        /* \"--CODEGEN--\":22:54   */\n      sub\n        /* \"--CODEGEN--\":13:20   */\n      dup2\n        /* \"--CODEGEN--\":6:55   */\n      mstore\n        /* \"kcbreward.sol\":17325:17405  abi.encode(DOMAIN_TYPEHASH, keccak256(bytes(name)), getChainId(), address(this)) */\n      swap1\n      0x40\n      mstore\n        /* \"kcbreward.sol\":17315:17406  keccak256(abi.encode(DOMAIN_TYPEHASH, keccak256(bytes(name)), getChainId(), address(this))) */\n      dup1\n      mload\n      swap1\n      0x20\n      add\n      keccak256\n        /* \"kcbreward.sol\":17289:17406  bytes32 domainSeparator = keccak256(abi.encode(DOMAIN_TYPEHASH, keccak256(bytes(name)), getChainId(), address(this))) */\n      swap1\n      pop\n        /* \"kcbreward.sol\":17416:17434  bytes32 structHash */\n      0x00\n        /* \"kcbreward.sol\":8510:8581  keccak256(\"Delegation(address delegatee,uint256 nonce,uint256 expiry)\") */\n      mload(0x40)\n      tag_223\n      swap1\n      jump(tag_224)\n    tag_223:\n      mload(0x40)\n      swap1\n      dup2\n      swap1\n      sub\n      dup2\n      keccak256\n        /* \"kcbreward.sol\":17447:17504  abi.encode(DELEGATION_TYPEHASH, delegatee, nonce, expiry) */\n      tag_225\n      swap2\n        /* \"kcbreward.sol\":17479:17488  delegatee */\n      dup11\n      swap1\n        /* \"kcbreward.sol\":17490:17495  nonce */\n      dup11\n      swap1\n        /* \"kcbreward.sol\":17497:17503  expiry */\n      dup11\n      swap1\n        /* \"kcbreward.sol\":17447:17504  abi.encode(DELEGATION_TYPEHASH, delegatee, nonce, expiry) */\n      0x20\n      add\n      jump(tag_226)\n    tag_225:\n      mload(0x40)\n        /* \"--CODEGEN--\":49:53   */\n      0x20\n        /* \"--CODEGEN--\":39:46   */\n      dup2\n        /* \"--CODEGEN--\":30:37   */\n      dup4\n        /* \"--CODEGEN--\":26:47   */\n      sub\n        /* \"--CODEGEN--\":22:54   */\n      sub\n        /* \"--CODEGEN--\":13:20   */\n      dup2\n        /* \"--CODEGEN--\":6:55   */\n      mstore\n        /* \"kcbreward.sol\":17447:17504  abi.encode(DELEGATION_TYPEHASH, delegatee, nonce, expiry) */\n      swap1\n      0x40\n      mstore\n        /* \"kcbreward.sol\":17437:17505  keccak256(abi.encode(DELEGATION_TYPEHASH, delegatee, nonce, expiry)) */\n      dup1\n      mload\n      swap1\n      0x20\n      add\n      keccak256\n        /* \"kcbreward.sol\":17416:17505  bytes32 structHash = keccak256(abi.encode(DELEGATION_TYPEHASH, delegatee, nonce, expiry)) */\n      swap1\n      pop\n        /* \"kcbreward.sol\":17515:17529  bytes32 digest */\n      0x00\n        /* \"kcbreward.sol\":17571:17586  domainSeparator */\n      dup3\n        /* \"kcbreward.sol\":17588:17598  structHash */\n      dup3\n        /* \"kcbreward.sol\":17542:17599  abi.encodePacked(\"\\x19\\x01\", domainSeparator, structHash) */\n      add(0x20, mload(0x40))\n      tag_227\n      swap3\n      swap2\n      swap1\n      jump(tag_228)\n    tag_227:\n      mload(0x40)\n        /* \"--CODEGEN--\":49:53   */\n      0x20\n        /* \"--CODEGEN--\":39:46   */\n      dup2\n        /* \"--CODEGEN--\":30:37   */\n      dup4\n        /* \"--CODEGEN--\":26:47   */\n      sub\n        /* \"--CODEGEN--\":22:54   */\n      sub\n        /* \"--CODEGEN--\":13:20   */\n      dup2\n        /* \"--CODEGEN--\":6:55   */\n      mstore\n        /* \"kcbreward.sol\":17542:17599  abi.encodePacked(\"\\x19\\x01\", domainSeparator, structHash) */\n      swap1\n      0x40\n      mstore\n        /* \"kcbreward.sol\":17532:17600  keccak256(abi.encodePacked(\"\\x19\\x01\", domainSeparator, structHash)) */\n      dup1\n      mload\n      swap1\n      0x20\n      add\n      keccak256\n        /* \"kcbreward.sol\":17515:17600  bytes32 digest = keccak256(abi.encodePacked(\"\\x19\\x01\", domainSeparator, structHash)) */\n      swap1\n      pop\n        /* \"kcbreward.sol\":17610:17627  address signatory */\n      0x00\n        /* \"kcbreward.sol\":17630:17656  ecrecover(digest, v, r, s) */\n      0x01\n        /* \"kcbreward.sol\":17640:17646  digest */\n      dup3\n        /* \"kcbreward.sol\":17648:17649  v */\n      dup9\n        /* \"kcbreward.sol\":17651:17652  r */\n      dup9\n        /* \"kcbreward.sol\":17654:17655  s */\n      dup9\n        /* \"kcbreward.sol\":17630:17656  ecrecover(digest, v, r, s) */\n      mload(0x40)\n      0x00\n      dup2\n      mstore\n      0x20\n      add\n      0x40\n      mstore\n      mload(0x40)\n      tag_229\n      swap5\n      swap4\n      swap3\n      swap2\n      swap1\n      jump(tag_230)\n    tag_229:\n      0x20\n      mload(0x40)\n      0x20\n      dup2\n      sub\n      swap1\n      dup1\n      dup5\n      sub\n      swap1\n      dup6\n      gas\n      staticcall\n      iszero\n        /* \"--CODEGEN--\":8:17   */\n      dup1\n        /* \"--CODEGEN--\":5:7   */\n      iszero\n      tag_231\n      jumpi\n        /* \"--CODEGEN--\":45:61   */\n      returndatasize\n        /* \"--CODEGEN--\":42:43   */\n      0x00\n        /* \"--CODEGEN--\":39:40   */\n      dup1\n        /* \"--CODEGEN--\":24:62   */\n      returndatacopy\n        /* \"--CODEGEN--\":77:93   */\n      returndatasize\n        /* \"--CODEGEN--\":74:75   */\n      0x00\n        /* \"--CODEGEN--\":67:94   */\n      revert\n        /* \"--CODEGEN--\":5:7   */\n    tag_231:\n      pop\n      pop\n        /* \"kcbreward.sol\":17630:17656  ecrecover(digest, v, r, s) */\n      mload(add(not(0x1f), mload(0x40)))\n      swap2\n      pop\n      pop\n      sub(shl(0xa0, 0x01), 0x01)\n        /* \"kcbreward.sol\":17674:17697  signatory != address(0) */\n      dup2\n      and\n        /* \"kcbreward.sol\":17666:17739  require(signatory != address(0), \"Uni::delegateBySig: invalid signature\") */\n      tag_232\n      jumpi\n      mload(0x40)\n      shl(0xe5, 0x461bcd)\n      dup2\n      mstore\n      0x04\n      add\n      tag_166\n      swap1\n      jump(tag_234)\n    tag_232:\n      sub(shl(0xa0, 0x01), 0x01)\n        /* \"kcbreward.sol\":17766:17783  nonces[signatory] */\n      dup2\n      and\n      0x00\n      swap1\n      dup2\n      mstore\n        /* \"kcbreward.sol\":17766:17772  nonces */\n      0x08\n        /* \"kcbreward.sol\":17766:17783  nonces[signatory] */\n      0x20\n      mstore\n      0x40\n      swap1\n      keccak256\n        /* \"kcbreward.sol\":17766:17785  nonces[signatory]++ */\n      dup1\n      sload\n      0x01\n      dup2\n      add\n      swap1\n      swap2\n      sstore\n        /* \"kcbreward.sol\":17757:17785  nonce == nonces[signatory]++ */\n      dup10\n      eq\n        /* \"kcbreward.sol\":17749:17823  require(nonce == nonces[signatory]++, \"Uni::delegateBySig: invalid nonce\") */\n      tag_235\n      jumpi\n      mload(0x40)\n      shl(0xe5, 0x461bcd)\n      dup2\n      mstore\n      0x04\n      add\n      tag_166\n      swap1\n      jump(tag_237)\n    tag_235:\n        /* \"kcbreward.sol\":17848:17854  expiry */\n      dup8\n        /* \"kcbreward.sol\":17841:17844  now */\n      timestamp\n        /* \"kcbreward.sol\":17841:17854  now <= expiry */\n      gt\n      iszero\n        /* \"kcbreward.sol\":17833:17896  require(now <= expiry, \"Uni::delegateBySig: signature expired\") */\n      tag_238\n      jumpi\n      mload(0x40)\n      shl(0xe5, 0x461bcd)\n      dup2\n      mstore\n      0x04\n      add\n      tag_166\n      swap1\n      jump(tag_240)\n    tag_238:\n        /* \"kcbreward.sol\":17913:17944  _delegate(signatory, delegatee) */\n      tag_241\n        /* \"kcbreward.sol\":17923:17932  signatory */\n      dup2\n        /* \"kcbreward.sol\":17934:17943  delegatee */\n      dup12\n        /* \"kcbreward.sol\":17913:17922  _delegate */\n      tag_193\n        /* \"kcbreward.sol\":17913:17944  _delegate(signatory, delegatee) */\n      jump\t// in\n    tag_241:\n        /* \"kcbreward.sol\":17906:17944  return _delegate(signatory, delegatee) */\n      pop\n      pop\n      pop\n      pop\n        /* \"kcbreward.sol\":17174:17951  function delegateBySig(address delegatee, uint nonce, uint expiry, uint8 v, bytes32 r, bytes32 s) public {... */\n    tag_217:\n      pop\n      pop\n      pop\n      pop\n      pop\n      pop\n      jump\t// out\n        /* \"kcbreward.sol\":13730:14761  function permit(address owner, address spender, uint rawAmount, uint deadline, uint8 v, bytes32 r, bytes32 s) external {... */\n    tag_126:\n        /* \"kcbreward.sol\":13859:13872  uint96 amount */\n      0x00\n      not(0x00)\n        /* \"kcbreward.sol\":13886:13895  rawAmount */\n      dup7\n        /* \"kcbreward.sol\":13886:13907  rawAmount == uint(-1) */\n      eq\n        /* \"kcbreward.sol\":13882:14049  if (rawAmount == uint(-1)) {... */\n      iszero\n      tag_243\n      jumpi\n      pop\n      not(0x00)\n      jump(tag_244)\n    tag_243:\n        /* \"kcbreward.sol\":13982:14038  safe96(rawAmount, \"Uni::permit: amount exceeds 96 bits\") */\n      tag_245\n        /* \"kcbreward.sol\":13989:13998  rawAmount */\n      dup7\n        /* \"kcbreward.sol\":13982:14038  safe96(rawAmount, \"Uni::permit: amount exceeds 96 bits\") */\n      mload(0x40)\n      dup1\n      0x60\n      add\n      0x40\n      mstore\n      dup1\n      0x23\n      dup2\n      mstore\n      0x20\n      add\n      data_58da0b91010307ee6a63257c5283618928105e355857d8f79cf7e017ad7082f4\n      0x23\n      swap2\n      codecopy\n        /* \"kcbreward.sol\":13982:13988  safe96 */\n      tag_148\n        /* \"kcbreward.sol\":13982:14038  safe96(rawAmount, \"Uni::permit: amount exceeds 96 bits\") */\n      jump\t// in\n    tag_245:\n        /* \"kcbreward.sol\":13973:14038  amount = safe96(rawAmount, \"Uni::permit: amount exceeds 96 bits\") */\n      swap1\n      pop\n        /* \"kcbreward.sol\":13882:14049  if (rawAmount == uint(-1)) {... */\n    tag_244:\n        /* \"kcbreward.sol\":14059:14082  bytes32 domainSeparator */\n      0x00\n        /* \"kcbreward.sol\":8293:8373  keccak256(\"EIP712Domain(string name,uint256 chainId,address verifyingContract)\") */\n      mload(0x40)\n      tag_246\n      swap1\n      jump(tag_152)\n    tag_246:\n      0x40\n      dup1\n      mload\n      swap2\n      dup3\n      swap1\n      sub\n      dup3\n      keccak256\n        /* \"kcbreward.sol\":14139:14143  name */\n      dup3\n      dup3\n      add\n      swap1\n      swap2\n      mstore\n      0x07\n      dup3\n      mstore\n      shl(0xcc, 0x0556e697377617)\n      0x20\n      swap1\n      swap3\n      add\n      swap2\n      swap1\n      swap2\n      mstore\n        /* \"kcbreward.sol\":14123:14145  keccak256(bytes(name)) */\n      0x99c45e8ee5dde061ced9c812089094fbd28a020e7e37f2851198887e5ca64985\n        /* \"kcbreward.sol\":14147:14159  getChainId() */\n      tag_247\n        /* \"kcbreward.sol\":14147:14157  getChainId */\n      tag_220\n        /* \"kcbreward.sol\":14147:14159  getChainId() */\n      jump\t// in\n    tag_247:\n        /* \"kcbreward.sol\":14169:14173  this */\n      address\n        /* \"kcbreward.sol\":14095:14175  abi.encode(DOMAIN_TYPEHASH, keccak256(bytes(name)), getChainId(), address(this)) */\n      add(0x20, mload(0x40))\n      tag_248\n      swap5\n      swap4\n      swap3\n      swap2\n      swap1\n      jump(tag_222)\n    tag_248:\n      mload(0x40)\n        /* \"--CODEGEN--\":49:53   */\n      0x20\n        /* \"--CODEGEN--\":39:46   */\n      dup2\n        /* \"--CODEGEN--\":30:37   */\n      dup4\n        /* \"--CODEGEN--\":26:47   */\n      sub\n        /* \"--CODEGEN--\":22:54   */\n      sub\n        /* \"--CODEGEN--\":13:20   */\n      dup2\n        /* \"--CODEGEN--\":6:55   */\n      mstore\n        /* \"kcbreward.sol\":14095:14175  abi.encode(DOMAIN_TYPEHASH, keccak256(bytes(name)), getChainId(), address(this)) */\n      swap1\n      0x40\n      mstore\n        /* \"kcbreward.sol\":14085:14176  keccak256(abi.encode(DOMAIN_TYPEHASH, keccak256(bytes(name)), getChainId(), address(this))) */\n      dup1\n      mload\n      swap1\n      0x20\n      add\n      keccak256\n        /* \"kcbreward.sol\":14059:14176  bytes32 domainSeparator = keccak256(abi.encode(DOMAIN_TYPEHASH, keccak256(bytes(name)), getChainId(), address(this))) */\n      swap1\n      pop\n        /* \"kcbreward.sol\":14186:14204  bytes32 structHash */\n      0x00\n        /* \"kcbreward.sol\":8710:8805  keccak256(\"Permit(address owner,address spender,uint256 value,uint256 nonce,uint256 deadline)\") */\n      mload(0x40)\n      tag_249\n      swap1\n      jump(tag_163)\n    tag_249:\n      0x40\n      dup1\n      mload\n      swap2\n      dup3\n      swap1\n      sub\n      dup3\n      keccak256\n      sub(shl(0xa0, 0x01), 0x01)\n        /* \"kcbreward.sol\":14272:14285  nonces[owner] */\n      dup14\n      and\n      0x00\n      swap1\n      dup2\n      mstore\n        /* \"kcbreward.sol\":14272:14278  nonces */\n      0x08\n        /* \"kcbreward.sol\":14272:14285  nonces[owner] */\n      0x20\n      swap1\n      dup2\n      mstore\n      swap3\n      swap1\n      keccak256\n        /* \"kcbreward.sol\":14272:14287  nonces[owner]++ */\n      dup1\n      sload\n      0x01\n      dup2\n      add\n      swap1\n      swap2\n      sstore\n        /* \"kcbreward.sol\":14217:14298  abi.encode(PERMIT_TYPEHASH, owner, spender, rawAmount, nonces[owner]++, deadline) */\n      tag_250\n      swap4\n        /* \"kcbreward.sol\":8710:8805  keccak256(\"Permit(address owner,address spender,uint256 value,uint256 nonce,uint256 deadline)\") */\n      swap2\n      swap3\n        /* \"kcbreward.sol\":14245:14250  owner */\n      dup15\n      swap3\n        /* \"kcbreward.sol\":14252:14259  spender */\n      dup15\n      swap3\n        /* \"kcbreward.sol\":14261:14270  rawAmount */\n      dup15\n      swap3\n        /* \"kcbreward.sol\":14272:14287  nonces[owner]++ */\n      swap1\n      swap2\n        /* \"kcbreward.sol\":14289:14297  deadline */\n      dup15\n      swap2\n        /* \"kcbreward.sol\":14217:14298  abi.encode(PERMIT_TYPEHASH, owner, spender, rawAmount, nonces[owner]++, deadline) */\n      add\n      jump(tag_251)\n    tag_250:\n      mload(0x40)\n        /* \"--CODEGEN--\":49:53   */\n      0x20\n        /* \"--CODEGEN--\":39:46   */\n      dup2\n        /* \"--CODEGEN--\":30:37   */\n      dup4\n        /* \"--CODEGEN--\":26:47   */\n      sub\n        /* \"--CODEGEN--\":22:54   */\n      sub\n        /* \"--CODEGEN--\":13:20   */\n      dup2\n        /* \"--CODEGEN--\":6:55   */\n      mstore\n        /* \"kcbreward.sol\":14217:14298  abi.encode(PERMIT_TYPEHASH, owner, spender, rawAmount, nonces[owner]++, deadline) */\n      swap1\n      0x40\n      mstore\n        /* \"kcbreward.sol\":14207:14299  keccak256(abi.encode(PERMIT_TYPEHASH, owner, spender, rawAmount, nonces[owner]++, deadline)) */\n      dup1\n      mload\n      swap1\n      0x20\n      add\n      keccak256\n        /* \"kcbreward.sol\":14186:14299  bytes32 structHash = keccak256(abi.encode(PERMIT_TYPEHASH, owner, spender, rawAmount, nonces[owner]++, deadline)) */\n      swap1\n      pop\n        /* \"kcbreward.sol\":14309:14323  bytes32 digest */\n      0x00\n        /* \"kcbreward.sol\":14365:14380  domainSeparator */\n      dup3\n        /* \"kcbreward.sol\":14382:14392  structHash */\n      dup3\n        /* \"kcbreward.sol\":14336:14393  abi.encodePacked(\"\\x19\\x01\", domainSeparator, structHash) */\n      add(0x20, mload(0x40))\n      tag_252\n      swap3\n      swap2\n      swap1\n      jump(tag_228)\n    tag_252:\n      mload(0x40)\n        /* \"--CODEGEN--\":49:53   */\n      0x20\n        /* \"--CODEGEN--\":39:46   */\n      dup2\n        /* \"--CODEGEN--\":30:37   */\n      dup4\n        /* \"--CODEGEN--\":26:47   */\n      sub\n        /* \"--CODEGEN--\":22:54   */\n      sub\n        /* \"--CODEGEN--\":13:20   */\n      dup2\n        /* \"--CODEGEN--\":6:55   */\n      mstore\n        /* \"kcbreward.sol\":14336:14393  abi.encodePacked(\"\\x19\\x01\", domainSeparator, structHash) */\n      swap1\n      0x40\n      mstore\n        /* \"kcbreward.sol\":14326:14394  keccak256(abi.encodePacked(\"\\x19\\x01\", domainSeparator, structHash)) */\n      dup1\n      mload\n      swap1\n      0x20\n      add\n      keccak256\n        /* \"kcbreward.sol\":14309:14394  bytes32 digest = keccak256(abi.encodePacked(\"\\x19\\x01\", domainSeparator, structHash)) */\n      swap1\n      pop\n        /* \"kcbreward.sol\":14404:14421  address signatory */\n      0x00\n        /* \"kcbreward.sol\":14424:14450  ecrecover(digest, v, r, s) */\n      0x01\n        /* \"kcbreward.sol\":14434:14440  digest */\n      dup3\n        /* \"kcbreward.sol\":14442:14443  v */\n      dup10\n        /* \"kcbreward.sol\":14445:14446  r */\n      dup10\n        /* \"kcbreward.sol\":14448:14449  s */\n      dup10\n        /* \"kcbreward.sol\":14424:14450  ecrecover(digest, v, r, s) */\n      mload(0x40)\n      0x00\n      dup2\n      mstore\n      0x20\n      add\n      0x40\n      mstore\n      mload(0x40)\n      tag_253\n      swap5\n      swap4\n      swap3\n      swap2\n      swap1\n      jump(tag_230)\n    tag_253:\n      0x20\n      mload(0x40)\n      0x20\n      dup2\n      sub\n      swap1\n      dup1\n      dup5\n      sub\n      swap1\n      dup6\n      gas\n      staticcall\n      iszero\n        /* \"--CODEGEN--\":8:17   */\n      dup1\n        /* \"--CODEGEN--\":5:7   */\n      iszero\n      tag_254\n      jumpi\n        /* \"--CODEGEN--\":45:61   */\n      returndatasize\n        /* \"--CODEGEN--\":42:43   */\n      0x00\n        /* \"--CODEGEN--\":39:40   */\n      dup1\n        /* \"--CODEGEN--\":24:62   */\n      returndatacopy\n        /* \"--CODEGEN--\":77:93   */\n      returndatasize\n        /* \"--CODEGEN--\":74:75   */\n      0x00\n        /* \"--CODEGEN--\":67:94   */\n      revert\n        /* \"--CODEGEN--\":5:7   */\n    tag_254:\n      pop\n      pop\n        /* \"kcbreward.sol\":14424:14450  ecrecover(digest, v, r, s) */\n      mload(add(not(0x1f), mload(0x40)))\n      swap2\n      pop\n      pop\n      sub(shl(0xa0, 0x01), 0x01)\n        /* \"kcbreward.sol\":14468:14491  signatory != address(0) */\n      dup2\n      and\n        /* \"kcbreward.sol\":14460:14526  require(signatory != address(0), \"Uni::permit: invalid signature\") */\n      tag_255\n      jumpi\n      mload(0x40)\n      shl(0xe5, 0x461bcd)\n      dup2\n      mstore\n      0x04\n      add\n      tag_166\n      swap1\n      jump(tag_257)\n    tag_255:\n        /* \"kcbreward.sol\":14557:14562  owner */\n      dup12\n      sub(shl(0xa0, 0x01), 0x01)\n        /* \"kcbreward.sol\":14544:14562  signatory == owner */\n      and\n        /* \"kcbreward.sol\":14544:14553  signatory */\n      dup2\n      sub(shl(0xa0, 0x01), 0x01)\n        /* \"kcbreward.sol\":14544:14562  signatory == owner */\n      and\n      eq\n        /* \"kcbreward.sol\":14536:14592  require(signatory == owner, \"Uni::permit: unauthorized\") */\n      tag_258\n      jumpi\n      mload(0x40)\n      shl(0xe5, 0x461bcd)\n      dup2\n      mstore\n      0x04\n      add\n      tag_166\n      swap1\n      jump(tag_260)\n    tag_258:\n        /* \"kcbreward.sol\":14617:14625  deadline */\n      dup9\n        /* \"kcbreward.sol\":14610:14613  now */\n      timestamp\n        /* \"kcbreward.sol\":14610:14625  now <= deadline */\n      gt\n      iszero\n        /* \"kcbreward.sol\":14602:14660  require(now <= deadline, \"Uni::permit: signature expired\") */\n      tag_261\n      jumpi\n      mload(0x40)\n      shl(0xe5, 0x461bcd)\n      dup2\n      mstore\n      0x04\n      add\n      tag_166\n      swap1\n      jump(tag_263)\n    tag_261:\n        /* \"kcbreward.sol\":14700:14706  amount */\n      dup5\n        /* \"kcbreward.sol\":14671:14681  allowances */\n      0x03\n        /* \"kcbreward.sol\":14671:14688  allowances[owner] */\n      0x00\n        /* \"kcbreward.sol\":14682:14687  owner */\n      dup15\n      sub(shl(0xa0, 0x01), 0x01)\n        /* \"kcbreward.sol\":14671:14688  allowances[owner] */\n      and\n      sub(shl(0xa0, 0x01), 0x01)\n      and\n      dup2\n      mstore\n      0x20\n      add\n      swap1\n      dup2\n      mstore\n      0x20\n      add\n      0x00\n      keccak256\n        /* \"kcbreward.sol\":14671:14697  allowances[owner][spender] */\n      0x00\n        /* \"kcbreward.sol\":14689:14696  spender */\n      dup14\n      sub(shl(0xa0, 0x01), 0x01)\n        /* \"kcbreward.sol\":14671:14697  allowances[owner][spender] */\n      and\n      sub(shl(0xa0, 0x01), 0x01)\n      and\n      dup2\n      mstore\n      0x20\n      add\n      swap1\n      dup2\n      mstore\n      0x20\n      add\n      0x00\n      keccak256\n      0x00\n        /* \"kcbreward.sol\":14671:14706  allowances[owner][spender] = amount */\n      0x0100\n      exp\n      dup2\n      sload\n      dup2\n      sub(shl(0x60, 0x01), 0x01)\n      mul\n      not\n      and\n      swap1\n      dup4\n      sub(shl(0x60, 0x01), 0x01)\n      and\n      mul\n      or\n      swap1\n      sstore\n      pop\n        /* \"kcbreward.sol\":14738:14745  spender */\n      dup11\n      sub(shl(0xa0, 0x01), 0x01)\n        /* \"kcbreward.sol\":14722:14754  Approval(owner, spender, amount) */\n      and\n        /* \"kcbreward.sol\":14731:14736  owner */\n      dup13\n      sub(shl(0xa0, 0x01), 0x01)\n        /* \"kcbreward.sol\":14722:14754  Approval(owner, spender, amount) */\n      and\n      0x8c5be1e5ebec7d5bd14f71427d1e84f3dd0314c0f7b2291e5b200ac8c7c3b925\n        /* \"kcbreward.sol\":14747:14753  amount */\n      dup8\n        /* \"kcbreward.sol\":14722:14754  Approval(owner, spender, amount) */\n      mload(0x40)\n      tag_264\n      swap2\n      swap1\n      jump(tag_150)\n    tag_264:\n      mload(0x40)\n      dup1\n      swap2\n      sub\n      swap1\n      log3\n        /* \"kcbreward.sol\":13730:14761  function permit(address owner, address spender, uint rawAmount, uint deadline, uint8 v, bytes32 r, bytes32 s) external {... */\n      pop\n      pop\n      pop\n      pop\n      pop\n      pop\n      pop\n      pop\n      pop\n      pop\n      pop\n      pop\n      jump\t// out\n        /* \"kcbreward.sol\":12244:12378  function allowance(address account, address spender) external view returns (uint) {... */\n    tag_130:\n      sub(shl(0xa0, 0x01), 0x01)\n        /* \"kcbreward.sol\":12343:12362  allowances[account] */\n      swap2\n      dup3\n      and\n        /* \"kcbreward.sol\":12320:12324  uint */\n      0x00\n        /* \"kcbreward.sol\":12343:12362  allowances[account] */\n      swap1\n      dup2\n      mstore\n        /* \"kcbreward.sol\":12343:12353  allowances */\n      0x03\n        /* \"kcbreward.sol\":12343:12362  allowances[account] */\n      0x20\n      swap1\n      dup2\n      mstore\n      0x40\n      dup1\n      dup4\n      keccak256\n        /* \"kcbreward.sol\":12343:12371  allowances[account][spender] */\n      swap4\n      swap1\n      swap5\n      and\n      dup3\n      mstore\n      swap2\n      swap1\n      swap2\n      mstore\n      keccak256\n      sload\n      sub(shl(0x60, 0x01), 0x01)\n      and\n      swap1\n        /* \"kcbreward.sol\":12244:12378  function allowance(address account, address spender) external view returns (uint) {... */\n      jump\t// out\n        /* \"kcbreward.sol\":8464:8581  bytes32 public constant DELEGATION_TYPEHASH = keccak256(\"Delegation(address delegatee,uint256 nonce,uint256 expiry)\") */\n    tag_133:\n        /* \"kcbreward.sol\":8510:8581  keccak256(\"Delegation(address delegatee,uint256 nonce,uint256 expiry)\") */\n      mload(0x40)\n      tag_151\n      swap1\n      jump(tag_224)\n        /* \"kcbreward.sol\":7996:8066  mapping (address => mapping (uint32 => Checkpoint)) public checkpoints */\n    tag_138:\n      0x06\n      0x20\n      swap1\n      dup2\n      mstore\n      0x00\n      swap3\n      dup4\n      mstore\n      0x40\n      dup1\n      dup5\n      keccak256\n      swap1\n      swap2\n      mstore\n      swap1\n      dup3\n      mstore\n      swap1\n      keccak256\n      sload\n      0xffffffff\n      dup2\n      and\n      swap1\n      shl(0x20, 0x01)\n      swap1\n      div\n      sub(shl(0x60, 0x01), 0x01)\n      and\n      dup3\n      jump\t// out\n        /* \"kcbreward.sol\":10514:10741  function setMinter(address minter_) external {... */\n    tag_143:\n        /* \"kcbreward.sol\":10591:10597  minter */\n      and(sub(shl(0xa0, 0x01), 0x01), sload(0x01))\n        /* \"kcbreward.sol\":10577:10587  msg.sender */\n      caller\n        /* \"kcbreward.sol\":10577:10597  msg.sender == minter */\n      eq\n        /* \"kcbreward.sol\":10569:10663  require(msg.sender == minter, \"Uni::setMinter: only the minter can change the minter address\") */\n      tag_268\n      jumpi\n      mload(0x40)\n      shl(0xe5, 0x461bcd)\n      dup2\n      mstore\n      0x04\n      add\n      tag_166\n      swap1\n      jump(tag_270)\n    tag_268:\n        /* \"kcbreward.sol\":10692:10698  minter */\n      sload(0x01)\n        /* \"kcbreward.sol\":10678:10708  MinterChanged(minter, minter_) */\n      mload(0x40)\n      0x3b0007eb941cf645526cbb3a4fdaecda9d28ce4843167d9263b536a1f1edc0f6\n      swap2\n      tag_271\n      swap2\n      sub(shl(0xa0, 0x01), 0x01)\n        /* \"kcbreward.sol\":10692:10698  minter */\n      swap1\n      swap2\n      and\n      swap1\n        /* \"kcbreward.sol\":10700:10707  minter_ */\n      dup5\n      swap1\n        /* \"kcbreward.sol\":10678:10708  MinterChanged(minter, minter_) */\n      jump(tag_272)\n    tag_271:\n      mload(0x40)\n      dup1\n      swap2\n      sub\n      swap1\n      log1\n        /* \"kcbreward.sol\":10718:10724  minter */\n      0x01\n        /* \"kcbreward.sol\":10718:10734  minter = minter_ */\n      dup1\n      sload\n      not(sub(shl(0xa0, 0x01), 0x01))\n      and\n      sub(shl(0xa0, 0x01), 0x01)\n      swap3\n      swap1\n      swap3\n      and\n      swap2\n      swap1\n      swap2\n      or\n      swap1\n      sstore\n        /* \"kcbreward.sol\":10514:10741  function setMinter(address minter_) external {... */\n      jump\t// out\n        /* \"kcbreward.sol\":22671:22829  function safe96(uint n, string memory errorMessage) internal pure returns (uint96) {... */\n    tag_148:\n        /* \"kcbreward.sol\":22746:22752  uint96 */\n      0x00\n        /* \"kcbreward.sol\":22783:22795  errorMessage */\n      dup2\n      shl(0x60, 0x01)\n        /* \"kcbreward.sol\":22772:22781  n < 2**96 */\n      dup5\n      lt\n        /* \"kcbreward.sol\":22764:22796  require(n < 2**96, errorMessage) */\n      tag_274\n      jumpi\n      mload(0x40)\n      shl(0xe5, 0x461bcd)\n      dup2\n      mstore\n      0x04\n      add\n      tag_166\n      swap2\n      swap1\n      jump(tag_39)\n    tag_274:\n      pop\n        /* \"kcbreward.sol\":22820:22821  n */\n      swap2\n      swap3\n        /* \"kcbreward.sol\":22671:22829  function safe96(uint n, string memory errorMessage) internal pure returns (uint96) {... */\n      swap2\n      pop\n      pop\n      jump\t// out\n        /* \"kcbreward.sol\":23025:23187  function sub96(uint96 a, uint96 b, string memory errorMessage) internal pure returns (uint96) {... */\n    tag_158:\n        /* \"kcbreward.sol\":23111:23117  uint96 */\n      0x00\n        /* \"kcbreward.sol\":23142:23143  a */\n      dup4\n      sub(shl(0x60, 0x01), 0x01)\n        /* \"kcbreward.sol\":23137:23143  b <= a */\n      and\n        /* \"kcbreward.sol\":23137:23138  b */\n      dup4\n      sub(shl(0x60, 0x01), 0x01)\n        /* \"kcbreward.sol\":23137:23143  b <= a */\n      and\n      gt\n      iszero\n        /* \"kcbreward.sol\":23145:23157  errorMessage */\n      dup3\n        /* \"kcbreward.sol\":23129:23158  require(b <= a, errorMessage) */\n      swap1\n      tag_278\n      jumpi\n      mload(0x40)\n      shl(0xe5, 0x461bcd)\n      dup2\n      mstore\n      0x04\n      add\n      tag_166\n      swap2\n      swap1\n      jump(tag_39)\n    tag_278:\n      pop\n      pop\n      pop\n        /* \"kcbreward.sol\":23175:23180  a - b */\n      swap1\n      sub\n      swap1\n        /* \"kcbreward.sol\":23025:23187  function sub96(uint96 a, uint96 b, string memory errorMessage) internal pure returns (uint96) {... */\n      jump\t// out\n        /* \"kcbreward.sol\":20350:20951  function _transferTokens(address src, address dst, uint96 amount) internal {... */\n    tag_161:\n      sub(shl(0xa0, 0x01), 0x01)\n        /* \"kcbreward.sol\":20443:20460  src != address(0) */\n      dup4\n      and\n        /* \"kcbreward.sol\":20435:20524  require(src != address(0), \"Uni::_transferTokens: cannot transfer from the zero address\") */\n      tag_281\n      jumpi\n      mload(0x40)\n      shl(0xe5, 0x461bcd)\n      dup2\n      mstore\n      0x04\n      add\n      tag_166\n      swap1\n      jump(tag_283)\n    tag_281:\n      sub(shl(0xa0, 0x01), 0x01)\n        /* \"kcbreward.sol\":20542:20559  dst != address(0) */\n      dup3\n      and\n        /* \"kcbreward.sol\":20534:20621  require(dst != address(0), \"Uni::_transferTokens: cannot transfer to the zero address\") */\n      tag_284\n      jumpi\n      mload(0x40)\n      shl(0xe5, 0x461bcd)\n      dup2\n      mstore\n      0x04\n      add\n      tag_166\n      swap1\n      jump(tag_286)\n    tag_284:\n      sub(shl(0xa0, 0x01), 0x01)\n        /* \"kcbreward.sol\":20654:20667  balances[src] */\n      dup4\n      and\n      0x00\n      swap1\n      dup2\n      mstore\n        /* \"kcbreward.sol\":20654:20662  balances */\n      0x04\n        /* \"kcbreward.sol\":20654:20667  balances[src] */\n      0x20\n      swap1\n      dup2\n      mstore\n      0x40\n      swap2\n      dup3\n      swap1\n      keccak256\n      sload\n        /* \"kcbreward.sol\":20648:20733  sub96(balances[src], amount, \"Uni::_transferTokens: transfer amount exceeds balance\") */\n      dup3\n      mload\n      0x60\n      dup2\n      add\n      swap1\n      swap4\n      mstore\n      0x35\n      dup1\n      dup5\n      mstore\n      tag_287\n      swap4\n      sub(shl(0x60, 0x01), 0x01)\n        /* \"kcbreward.sol\":20654:20667  balances[src] */\n      swap1\n      swap3\n      and\n      swap3\n        /* \"kcbreward.sol\":20669:20675  amount */\n      dup6\n      swap3\n        /* \"kcbreward.sol\":20648:20733  sub96(balances[src], amount, \"Uni::_transferTokens: transfer amount exceeds balance\") */\n      swap2\n      swap1\n      data_3230ba2cb739b33589720b8a5892642694535e935234939514431ff16907d24a\n      swap1\n      dup4\n      add\n      codecopy\n        /* \"kcbreward.sol\":20648:20653  sub96 */\n      tag_158\n        /* \"kcbreward.sol\":20648:20733  sub96(balances[src], amount, \"Uni::_transferTokens: transfer amount exceeds balance\") */\n      jump\t// in\n    tag_287:\n      sub(shl(0xa0, 0x01), 0x01)\n        /* \"kcbreward.sol\":20632:20645  balances[src] */\n      dup5\n      dup2\n      and\n      0x00\n      swap1\n      dup2\n      mstore\n        /* \"kcbreward.sol\":20632:20640  balances */\n      0x04\n        /* \"kcbreward.sol\":20632:20645  balances[src] */\n      0x20\n      swap1\n      dup2\n      mstore\n      0x40\n      dup1\n      dup4\n      keccak256\n        /* \"kcbreward.sol\":20632:20733  balances[src] = sub96(balances[src], amount, \"Uni::_transferTokens: transfer amount exceeds balance\") */\n      dup1\n      sload\n      not(sub(shl(0x60, 0x01), 0x01))\n      and\n      sub(shl(0x60, 0x01), 0x01)\n      swap7\n      dup8\n      and\n      or\n      swap1\n      sstore\n        /* \"kcbreward.sol\":20765:20778  balances[dst] */\n      swap3\n      dup7\n      and\n      dup3\n      mstore\n      swap1\n      dup3\n      swap1\n      keccak256\n      sload\n        /* \"kcbreward.sol\":20759:20838  add96(balances[dst], amount, \"Uni::_transferTokens: transfer amount overflows\") */\n      dup3\n      mload\n      0x60\n      dup2\n      add\n      swap1\n      swap4\n      mstore\n      0x2f\n      dup1\n      dup5\n      mstore\n      tag_288\n      swap5\n        /* \"kcbreward.sol\":20765:20778  balances[dst] */\n      swap2\n      swap1\n      swap2\n      and\n      swap3\n        /* \"kcbreward.sol\":20780:20786  amount */\n      dup6\n      swap3\n        /* \"kcbreward.sol\":20759:20838  add96(balances[dst], amount, \"Uni::_transferTokens: transfer amount overflows\") */\n      swap1\n      swap2\n      swap1\n      data_f838ee8b15c3d07740bb9b304b8146ec63bb435a7703825b5e6424ee2072674a\n      swap1\n      dup4\n      add\n      codecopy\n        /* \"kcbreward.sol\":20759:20764  add96 */\n      tag_187\n        /* \"kcbreward.sol\":20759:20838  add96(balances[dst], amount, \"Uni::_transferTokens: transfer amount overflows\") */\n      jump\t// in\n    tag_288:\n      sub(shl(0xa0, 0x01), 0x01)\n        /* \"kcbreward.sol\":20743:20756  balances[dst] */\n      dup4\n      dup2\n      and\n      0x00\n      dup2\n      dup2\n      mstore\n        /* \"kcbreward.sol\":20743:20751  balances */\n      0x04\n        /* \"kcbreward.sol\":20743:20756  balances[dst] */\n      0x20\n      mstore\n      0x40\n      swap1\n      dup2\n      swap1\n      keccak256\n        /* \"kcbreward.sol\":20743:20838  balances[dst] = add96(balances[dst], amount, \"Uni::_transferTokens: transfer amount overflows\") */\n      dup1\n      sload\n      not(sub(shl(0x60, 0x01), 0x01))\n      and\n      sub(shl(0x60, 0x01), 0x01)\n      swap6\n      swap1\n      swap6\n      and\n      swap5\n      swap1\n      swap5\n      or\n      swap1\n      swap4\n      sstore\n        /* \"kcbreward.sol\":20853:20879  Transfer(src, dst, amount) */\n      swap2\n      mload\n      swap1\n      dup6\n      and\n      swap1\n      0xddf252ad1be2c89b69c2b068fc378daa952ba7f163c4a11628f55a4df523b3ef\n      swap1\n      tag_289\n      swap1\n        /* \"kcbreward.sol\":20872:20878  amount */\n      dup6\n      swap1\n        /* \"kcbreward.sol\":20853:20879  Transfer(src, dst, amount) */\n      jump(tag_150)\n    tag_289:\n      mload(0x40)\n      dup1\n      swap2\n      sub\n      swap1\n      log3\n      sub(shl(0xa0, 0x01), 0x01)\n        /* \"kcbreward.sol\":20905:20919  delegates[src] */\n      dup1\n      dup5\n      and\n      0x00\n      swap1\n      dup2\n      mstore\n        /* \"kcbreward.sol\":20905:20914  delegates */\n      0x05\n        /* \"kcbreward.sol\":20905:20919  delegates[src] */\n      0x20\n      mstore\n      0x40\n      dup1\n      dup3\n      keccak256\n      sload\n        /* \"kcbreward.sol\":20921:20935  delegates[dst] */\n      dup6\n      dup5\n      and\n      dup4\n      mstore\n      swap2\n      keccak256\n      sload\n        /* \"kcbreward.sol\":20890:20944  _moveDelegates(delegates[src], delegates[dst], amount) */\n      tag_189\n      swap3\n        /* \"kcbreward.sol\":20905:20919  delegates[src] */\n      swap2\n      dup3\n      and\n      swap2\n        /* \"kcbreward.sol\":20921:20935  delegates[dst] */\n      and\n        /* \"kcbreward.sol\":20937:20943  amount */\n      dup4\n        /* \"kcbreward.sol\":20890:20904  _moveDelegates */\n      tag_190\n        /* \"kcbreward.sol\":20890:20944  _moveDelegates(delegates[src], delegates[dst], amount) */\n      jump\t// in\n        /* \"kcbreward.sol\":1127:1303  function add(uint256 a, uint256 b) internal pure returns (uint256) {... */\n    tag_175:\n        /* \"kcbreward.sol\":1185:1192  uint256 */\n      0x00\n        /* \"kcbreward.sol\":1216:1221  a + b */\n      dup3\n      dup3\n      add\n        /* \"kcbreward.sol\":1239:1245  c >= a */\n      dup4\n      dup2\n      lt\n      iszero\n        /* \"kcbreward.sol\":1231:1277  require(c >= a, \"SafeMath: addition overflow\") */\n      tag_153\n      jumpi\n      mload(0x40)\n      shl(0xe5, 0x461bcd)\n      dup2\n      mstore\n      0x04\n      add\n      tag_166\n      swap1\n      jump(tag_294)\n        /* \"kcbreward.sol\":2824:3283  function mul(uint256 a, uint256 b) internal pure returns (uint256) {... */\n    tag_179:\n        /* \"kcbreward.sol\":2882:2889  uint256 */\n      0x00\n        /* \"kcbreward.sol\":3123:3129  a == 0 */\n      dup3\n        /* \"kcbreward.sol\":3119:3164  if (a == 0) {... */\n      tag_296\n      jumpi\n      pop\n        /* \"kcbreward.sol\":3152:3153  0 */\n      0x00\n        /* \"kcbreward.sol\":3145:3153  return 0 */\n      jump(tag_144)\n        /* \"kcbreward.sol\":3119:3164  if (a == 0) {... */\n    tag_296:\n        /* \"kcbreward.sol\":3186:3191  a * b */\n      dup3\n      dup3\n      mul\n        /* \"kcbreward.sol\":3190:3191  b */\n      dup3\n        /* \"kcbreward.sol\":3186:3187  a */\n      dup5\n        /* \"kcbreward.sol\":3186:3191  a * b */\n      dup3\n        /* \"kcbreward.sol\":3186:3187  a */\n      dup2\n        /* \"kcbreward.sol\":3209:3214  c / a */\n      tag_297\n      jumpi\n      invalid\n    tag_297:\n      div\n        /* \"kcbreward.sol\":3209:3219  c / a == b */\n      eq\n        /* \"kcbreward.sol\":3201:3257  require(c / a == b, \"SafeMath: multiplication overflow\") */\n      tag_153\n      jumpi\n      mload(0x40)\n      shl(0xe5, 0x461bcd)\n      dup2\n      mstore\n      0x04\n      add\n      tag_166\n      swap1\n      jump(tag_300)\n        /* \"kcbreward.sol\":4435:4565  function div(uint256 a, uint256 b) internal pure returns (uint256) {... */\n    tag_180:\n        /* \"kcbreward.sol\":4493:4500  uint256 */\n      0x00\n        /* \"kcbreward.sol\":4519:4558  div(a, b, \"SafeMath: division by zero\") */\n      tag_153\n        /* \"kcbreward.sol\":4523:4524  a */\n      dup4\n        /* \"kcbreward.sol\":4526:4527  b */\n      dup4\n        /* \"kcbreward.sol\":4519:4558  div(a, b, \"SafeMath: division by zero\") */\n      mload(0x40)\n      dup1\n      0x40\n      add\n      0x40\n      mstore\n      dup1\n      0x1a\n      dup2\n      mstore\n      0x20\n      add\n      0x536166654d6174683a206469766973696f6e206279207a65726f000000000000\n      dup2\n      mstore\n      pop\n        /* \"kcbreward.sol\":4519:4522  div */\n      tag_303\n        /* \"kcbreward.sol\":4519:4558  div(a, b, \"SafeMath: division by zero\") */\n      jump\t// in\n        /* \"kcbreward.sol\":22835:23019  function add96(uint96 a, uint96 b, string memory errorMessage) internal pure returns (uint96) {... */\n    tag_187:\n        /* \"kcbreward.sol\":22921:22927  uint96 */\n      0x00\n        /* \"kcbreward.sol\":22950:22955  a + b */\n      dup4\n      dup4\n      add\n        /* \"kcbreward.sol\":22981:22993  errorMessage */\n      dup3\n      sub(shl(0x60, 0x01), 0x01)\n        /* \"kcbreward.sol\":22973:22979  c >= a */\n      dup1\n      dup8\n      and\n      swap1\n      dup4\n      and\n      lt\n      iszero\n        /* \"kcbreward.sol\":22965:22994  require(c >= a, errorMessage) */\n      tag_305\n      jumpi\n      mload(0x40)\n      shl(0xe5, 0x461bcd)\n      dup2\n      mstore\n      0x04\n      add\n      tag_166\n      swap2\n      swap1\n      jump(tag_39)\n    tag_305:\n      pop\n        /* \"kcbreward.sol\":23011:23012  c */\n      swap5\n        /* \"kcbreward.sol\":22835:23019  function add96(uint96 a, uint96 b, string memory errorMessage) internal pure returns (uint96) {... */\n      swap4\n      pop\n      pop\n      pop\n      pop\n      jump\t// out\n        /* \"kcbreward.sol\":20957:21878  function _moveDelegates(address srcRep, address dstRep, uint96 amount) internal {... */\n    tag_190:\n        /* \"kcbreward.sol\":21061:21067  dstRep */\n      dup2\n      sub(shl(0xa0, 0x01), 0x01)\n        /* \"kcbreward.sol\":21051:21067  srcRep != dstRep */\n      and\n        /* \"kcbreward.sol\":21051:21057  srcRep */\n      dup4\n      sub(shl(0xa0, 0x01), 0x01)\n        /* \"kcbreward.sol\":21051:21067  srcRep != dstRep */\n      and\n      eq\n      iszero\n        /* \"kcbreward.sol\":21051:21081  srcRep != dstRep && amount > 0 */\n      dup1\n      iszero\n      tag_308\n      jumpi\n      pop\n        /* \"kcbreward.sol\":21080:21081  0 */\n      0x00\n        /* \"kcbreward.sol\":21071:21077  amount */\n      dup2\n      sub(shl(0x60, 0x01), 0x01)\n        /* \"kcbreward.sol\":21071:21081  amount > 0 */\n      and\n      gt\n        /* \"kcbreward.sol\":21051:21081  srcRep != dstRep && amount > 0 */\n    tag_308:\n        /* \"kcbreward.sol\":21047:21872  if (srcRep != dstRep && amount > 0) {... */\n      iszero\n      tag_189\n      jumpi\n      sub(shl(0xa0, 0x01), 0x01)\n        /* \"kcbreward.sol\":21101:21121  srcRep != address(0) */\n      dup4\n      and\n      iszero\n        /* \"kcbreward.sol\":21097:21473  if (srcRep != address(0)) {... */\n      tag_310\n      jumpi\n      sub(shl(0xa0, 0x01), 0x01)\n        /* \"kcbreward.sol\":21160:21182  numCheckpoints[srcRep] */\n      dup4\n      and\n        /* \"kcbreward.sol\":21141:21157  uint32 srcRepNum */\n      0x00\n        /* \"kcbreward.sol\":21160:21182  numCheckpoints[srcRep] */\n      swap1\n      dup2\n      mstore\n        /* \"kcbreward.sol\":21160:21174  numCheckpoints */\n      0x07\n        /* \"kcbreward.sol\":21160:21182  numCheckpoints[srcRep] */\n      0x20\n      mstore\n      0x40\n      dup2\n      keccak256\n      sload\n      0xffffffff\n      and\n      swap1\n        /* \"kcbreward.sol\":21219:21232  srcRepNum > 0 */\n      dup2\n        /* \"kcbreward.sol\":21219:21279  srcRepNum > 0 ? checkpoints[srcRep][srcRepNum - 1].votes : 0 */\n      tag_311\n      jumpi\n        /* \"kcbreward.sol\":21278:21279  0 */\n      0x00\n        /* \"kcbreward.sol\":21219:21279  srcRepNum > 0 ? checkpoints[srcRep][srcRepNum - 1].votes : 0 */\n      jump(tag_312)\n    tag_311:\n      sub(shl(0xa0, 0x01), 0x01)\n        /* \"kcbreward.sol\":21235:21254  checkpoints[srcRep] */\n      dup6\n      and\n      0x00\n      swap1\n      dup2\n      mstore\n        /* \"kcbreward.sol\":21235:21246  checkpoints */\n      0x06\n        /* \"kcbreward.sol\":21235:21254  checkpoints[srcRep] */\n      0x20\n      swap1\n      dup2\n      mstore\n      0x40\n      dup1\n      dup4\n      keccak256\n      not(0x00)\n        /* \"kcbreward.sol\":21255:21268  srcRepNum - 1 */\n      dup7\n      add\n        /* \"kcbreward.sol\":21235:21269  checkpoints[srcRep][srcRepNum - 1] */\n      0xffffffff\n      and\n      dup5\n      mstore\n      swap1\n      swap2\n      mstore\n      swap1\n      keccak256\n        /* \"kcbreward.sol\":21235:21275  checkpoints[srcRep][srcRepNum - 1].votes */\n      sload\n      shl(0x20, 0x01)\n      swap1\n      div\n      sub(shl(0x60, 0x01), 0x01)\n      and\n        /* \"kcbreward.sol\":21219:21279  srcRepNum > 0 ? checkpoints[srcRep][srcRepNum - 1].votes : 0 */\n    tag_312:\n        /* \"kcbreward.sol\":21200:21279  uint96 srcRepOld = srcRepNum > 0 ? checkpoints[srcRep][srcRepNum - 1].votes : 0 */\n      swap1\n      pop\n        /* \"kcbreward.sol\":21297:21313  uint96 srcRepNew */\n      0x00\n        /* \"kcbreward.sol\":21316:21383  sub96(srcRepOld, amount, \"Uni::_moveVotes: vote amount underflows\") */\n      tag_313\n        /* \"kcbreward.sol\":21322:21331  srcRepOld */\n      dup3\n        /* \"kcbreward.sol\":21333:21339  amount */\n      dup6\n        /* \"kcbreward.sol\":21316:21383  sub96(srcRepOld, amount, \"Uni::_moveVotes: vote amount underflows\") */\n      mload(0x40)\n      dup1\n      0x60\n      add\n      0x40\n      mstore\n      dup1\n      0x27\n      dup2\n      mstore\n      0x20\n      add\n      data_8f9e8e1e6816d4a772d233c08b8292a576126f7dbd1d9b7cd30ef07f7c3d78d2\n      0x27\n      swap2\n      codecopy\n        /* \"kcbreward.sol\":21316:21321  sub96 */\n      tag_158\n        /* \"kcbreward.sol\":21316:21383  sub96(srcRepOld, amount, \"Uni::_moveVotes: vote amount underflows\") */\n      jump\t// in\n    tag_313:\n        /* \"kcbreward.sol\":21297:21383  uint96 srcRepNew = sub96(srcRepOld, amount, \"Uni::_moveVotes: vote amount underflows\") */\n      swap1\n      pop\n        /* \"kcbreward.sol\":21401:21458  _writeCheckpoint(srcRep, srcRepNum, srcRepOld, srcRepNew) */\n      tag_314\n        /* \"kcbreward.sol\":21418:21424  srcRep */\n      dup7\n        /* \"kcbreward.sol\":21426:21435  srcRepNum */\n      dup5\n        /* \"kcbreward.sol\":21437:21446  srcRepOld */\n      dup5\n        /* \"kcbreward.sol\":21448:21457  srcRepNew */\n      dup5\n        /* \"kcbreward.sol\":21401:21417  _writeCheckpoint */\n      tag_315\n        /* \"kcbreward.sol\":21401:21458  _writeCheckpoint(srcRep, srcRepNum, srcRepOld, srcRepNew) */\n      jump\t// in\n    tag_314:\n        /* \"kcbreward.sol\":21097:21473  if (srcRep != address(0)) {... */\n      pop\n      pop\n      pop\n    tag_310:\n      sub(shl(0xa0, 0x01), 0x01)\n        /* \"kcbreward.sol\":21491:21511  dstRep != address(0) */\n      dup3\n      and\n      iszero\n        /* \"kcbreward.sol\":21487:21862  if (dstRep != address(0)) {... */\n      tag_189\n      jumpi\n      sub(shl(0xa0, 0x01), 0x01)\n        /* \"kcbreward.sol\":21550:21572  numCheckpoints[dstRep] */\n      dup3\n      and\n        /* \"kcbreward.sol\":21531:21547  uint32 dstRepNum */\n      0x00\n        /* \"kcbreward.sol\":21550:21572  numCheckpoints[dstRep] */\n      swap1\n      dup2\n      mstore\n        /* \"kcbreward.sol\":21550:21564  numCheckpoints */\n      0x07\n        /* \"kcbreward.sol\":21550:21572  numCheckpoints[dstRep] */\n      0x20\n      mstore\n      0x40\n      dup2\n      keccak256\n      sload\n      0xffffffff\n      and\n      swap1\n        /* \"kcbreward.sol\":21609:21622  dstRepNum > 0 */\n      dup2\n        /* \"kcbreward.sol\":21609:21669  dstRepNum > 0 ? checkpoints[dstRep][dstRepNum - 1].votes : 0 */\n      tag_317\n      jumpi\n        /* \"kcbreward.sol\":21668:21669  0 */\n      0x00\n        /* \"kcbreward.sol\":21609:21669  dstRepNum > 0 ? checkpoints[dstRep][dstRepNum - 1].votes : 0 */\n      jump(tag_318)\n    tag_317:\n      sub(shl(0xa0, 0x01), 0x01)\n        /* \"kcbreward.sol\":21625:21644  checkpoints[dstRep] */\n      dup5\n      and\n      0x00\n      swap1\n      dup2\n      mstore\n        /* \"kcbreward.sol\":21625:21636  checkpoints */\n      0x06\n        /* \"kcbreward.sol\":21625:21644  checkpoints[dstRep] */\n      0x20\n      swap1\n      dup2\n      mstore\n      0x40\n      dup1\n      dup4\n      keccak256\n      not(0x00)\n        /* \"kcbreward.sol\":21645:21658  dstRepNum - 1 */\n      dup7\n      add\n        /* \"kcbreward.sol\":21625:21659  checkpoints[dstRep][dstRepNum - 1] */\n      0xffffffff\n      and\n      dup5\n      mstore\n      swap1\n      swap2\n      mstore\n      swap1\n      keccak256\n        /* \"kcbreward.sol\":21625:21665  checkpoints[dstRep][dstRepNum - 1].votes */\n      sload\n      shl(0x20, 0x01)\n      swap1\n      div\n      sub(shl(0x60, 0x01), 0x01)\n      and\n        /* \"kcbreward.sol\":21609:21669  dstRepNum > 0 ? checkpoints[dstRep][dstRepNum - 1].votes : 0 */\n    tag_318:\n        /* \"kcbreward.sol\":21590:21669  uint96 dstRepOld = dstRepNum > 0 ? checkpoints[dstRep][dstRepNum - 1].votes : 0 */\n      swap1\n      pop\n        /* \"kcbreward.sol\":21687:21703  uint96 dstRepNew */\n      0x00\n        /* \"kcbreward.sol\":21706:21772  add96(dstRepOld, amount, \"Uni::_moveVotes: vote amount overflows\") */\n      tag_319\n        /* \"kcbreward.sol\":21712:21721  dstRepOld */\n      dup3\n        /* \"kcbreward.sol\":21723:21729  amount */\n      dup6\n        /* \"kcbreward.sol\":21706:21772  add96(dstRepOld, amount, \"Uni::_moveVotes: vote amount overflows\") */\n      mload(0x40)\n      dup1\n      0x60\n      add\n      0x40\n      mstore\n      dup1\n      0x26\n      dup2\n      mstore\n      0x20\n      add\n      data_5c6c891434a3c5951db59f5fe43d566b04bf54e07bc444b7f9f72601e608dc42\n      0x26\n      swap2\n      codecopy\n        /* \"kcbreward.sol\":21706:21711  add96 */\n      tag_187\n        /* \"kcbreward.sol\":21706:21772  add96(dstRepOld, amount, \"Uni::_moveVotes: vote amount overflows\") */\n      jump\t// in\n    tag_319:\n        /* \"kcbreward.sol\":21687:21772  uint96 dstRepNew = add96(dstRepOld, amount, \"Uni::_moveVotes: vote amount overflows\") */\n      swap1\n      pop\n        /* \"kcbreward.sol\":21790:21847  _writeCheckpoint(dstRep, dstRepNum, dstRepOld, dstRepNew) */\n      tag_217\n        /* \"kcbreward.sol\":21807:21813  dstRep */\n      dup6\n        /* \"kcbreward.sol\":21815:21824  dstRepNum */\n      dup5\n        /* \"kcbreward.sol\":21826:21835  dstRepOld */\n      dup5\n        /* \"kcbreward.sol\":21837:21846  dstRepNew */\n      dup5\n        /* \"kcbreward.sol\":21790:21806  _writeCheckpoint */\n      tag_315\n        /* \"kcbreward.sol\":21790:21847  _writeCheckpoint(dstRep, dstRepNum, dstRepOld, dstRepNew) */\n      jump\t// in\n        /* \"kcbreward.sol\":19977:20344  function _delegate(address delegator, address delegatee) internal {... */\n    tag_193:\n      sub(shl(0xa0, 0x01), 0x01)\n        /* \"kcbreward.sol\":20079:20099  delegates[delegator] */\n      dup1\n      dup4\n      and\n        /* \"kcbreward.sol\":20053:20076  address currentDelegate */\n      0x00\n        /* \"kcbreward.sol\":20079:20099  delegates[delegator] */\n      dup2\n      dup2\n      mstore\n        /* \"kcbreward.sol\":20079:20088  delegates */\n      0x05\n        /* \"kcbreward.sol\":20079:20099  delegates[delegator] */\n      0x20\n      dup2\n      dup2\n      mstore\n      0x40\n      dup1\n      dup5\n      keccak256\n      dup1\n      sload\n        /* \"kcbreward.sol\":20135:20143  balances */\n      0x04\n        /* \"kcbreward.sol\":20135:20154  balances[delegator] */\n      dup5\n      mstore\n      dup3\n      dup7\n      keccak256\n      sload\n        /* \"kcbreward.sol\":20164:20184  delegates[delegator] */\n      swap5\n      swap1\n      swap4\n      mstore\n        /* \"kcbreward.sol\":20164:20196  delegates[delegator] = delegatee */\n      dup8\n      dup8\n      and\n      not(sub(shl(0xa0, 0x01), 0x01))\n      dup5\n      and\n      dup2\n      or\n      swap1\n      swap2\n      sstore\n        /* \"kcbreward.sol\":20212:20266  DelegateChanged(delegator, currentDelegate, delegatee) */\n      swap1\n      mload\n        /* \"kcbreward.sol\":20079:20099  delegates[delegator] */\n      swap2\n      swap1\n      swap6\n      and\n      swap5\n      sub(shl(0x60, 0x01), 0x01)\n        /* \"kcbreward.sol\":20135:20154  balances[delegator] */\n      swap1\n      swap3\n      and\n      swap4\n        /* \"kcbreward.sol\":20164:20196  delegates[delegator] = delegatee */\n      swap2\n      swap3\n        /* \"kcbreward.sol\":20079:20099  delegates[delegator] */\n      dup6\n      swap3\n      swap2\n        /* \"kcbreward.sol\":20212:20266  DelegateChanged(delegator, currentDelegate, delegatee) */\n      0x3134e8a2e6d97e929a7e54011ea5485d7d196dd5f0ba4d4ef95803e8e3fc257f\n      swap2\n        /* \"kcbreward.sol\":20053:20076  address currentDelegate */\n      swap1\n        /* \"kcbreward.sol\":20212:20266  DelegateChanged(delegator, currentDelegate, delegatee) */\n      log4\n        /* \"kcbreward.sol\":20277:20337  _moveDelegates(currentDelegate, delegatee, delegatorBalance) */\n      tag_322\n        /* \"kcbreward.sol\":20292:20307  currentDelegate */\n      dup3\n        /* \"kcbreward.sol\":20309:20318  delegatee */\n      dup5\n        /* \"kcbreward.sol\":20320:20336  delegatorBalance */\n      dup4\n        /* \"kcbreward.sol\":20277:20291  _moveDelegates */\n      tag_190\n        /* \"kcbreward.sol\":20277:20337  _moveDelegates(currentDelegate, delegatee, delegatorBalance) */\n      jump\t// in\n    tag_322:\n        /* \"kcbreward.sol\":19977:20344  function _delegate(address delegator, address delegatee) internal {... */\n      pop\n      pop\n      pop\n      pop\n      jump\t// out\n        /* \"kcbreward.sol\":23193:23342  function getChainId() internal pure returns (uint) {... */\n    tag_220:\n        /* \"kcbreward.sol\":23301:23310  chainid() */\n      chainid\n        /* \"kcbreward.sol\":23193:23342  function getChainId() internal pure returns (uint) {... */\n      swap1\n      jump\t// out\n        /* \"kcbreward.sol\":5040:5378  function div(uint256 a, uint256 b, string memory errorMessage) internal pure returns (uint256) {... */\n    tag_303:\n        /* \"kcbreward.sol\":5126:5133  uint256 */\n      0x00\n        /* \"kcbreward.sol\":5226:5238  errorMessage */\n      dup2\n        /* \"kcbreward.sol\":5219:5224  b > 0 */\n      dup4\n        /* \"kcbreward.sol\":5211:5239  require(b > 0, errorMessage) */\n      tag_325\n      jumpi\n      mload(0x40)\n      shl(0xe5, 0x461bcd)\n      dup2\n      mstore\n      0x04\n      add\n      tag_166\n      swap2\n      swap1\n      jump(tag_39)\n    tag_325:\n      pop\n        /* \"kcbreward.sol\":5249:5258  uint256 c */\n      0x00\n        /* \"kcbreward.sol\":5265:5266  b */\n      dup4\n        /* \"kcbreward.sol\":5261:5262  a */\n      dup6\n        /* \"kcbreward.sol\":5261:5266  a / b */\n      dup2\n      tag_327\n      jumpi\n      invalid\n    tag_327:\n      div\n      swap6\n        /* \"kcbreward.sol\":5040:5378  function div(uint256 a, uint256 b, string memory errorMessage) internal pure returns (uint256) {... */\n      swap5\n      pop\n      pop\n      pop\n      pop\n      pop\n      jump\t// out\n        /* \"kcbreward.sol\":21884:22501  function _writeCheckpoint(address delegatee, uint32 nCheckpoints, uint96 oldVotes, uint96 newVotes) internal {... */\n    tag_315:\n        /* \"kcbreward.sol\":22001:22019  uint32 blockNumber */\n      0x00\n        /* \"kcbreward.sol\":22022:22097  safe32(block.number, \"Uni::_writeCheckpoint: block number exceeds 32 bits\") */\n      tag_329\n        /* \"kcbreward.sol\":22029:22041  block.number */\n      number\n        /* \"kcbreward.sol\":22022:22097  safe32(block.number, \"Uni::_writeCheckpoint: block number exceeds 32 bits\") */\n      mload(0x40)\n      dup1\n      0x60\n      add\n      0x40\n      mstore\n      dup1\n      0x33\n      dup2\n      mstore\n      0x20\n      add\n      data_66157ef8d926a3327823fecd4ce53edfcb6533c37c90dc98acfb91e4f2854725\n      0x33\n      swap2\n      codecopy\n        /* \"kcbreward.sol\":22022:22028  safe32 */\n      tag_330\n        /* \"kcbreward.sol\":22022:22097  safe32(block.number, \"Uni::_writeCheckpoint: block number exceeds 32 bits\") */\n      jump\t// in\n    tag_329:\n        /* \"kcbreward.sol\":22001:22097  uint32 blockNumber = safe32(block.number, \"Uni::_writeCheckpoint: block number exceeds 32 bits\") */\n      swap1\n      pop\n        /* \"kcbreward.sol\":22125:22126  0 */\n      0x00\n        /* \"kcbreward.sol\":22110:22122  nCheckpoints */\n      dup5\n        /* \"kcbreward.sol\":22110:22126  nCheckpoints > 0 */\n      0xffffffff\n      and\n      gt\n        /* \"kcbreward.sol\":22110:22195  nCheckpoints > 0 && checkpoints[delegatee][nCheckpoints - 1].fromBlock == blockNumber */\n      dup1\n      iszero\n      tag_331\n      jumpi\n      pop\n      sub(shl(0xa0, 0x01), 0x01)\n        /* \"kcbreward.sol\":22130:22152  checkpoints[delegatee] */\n      dup6\n      and\n      0x00\n      swap1\n      dup2\n      mstore\n        /* \"kcbreward.sol\":22130:22141  checkpoints */\n      0x06\n        /* \"kcbreward.sol\":22130:22152  checkpoints[delegatee] */\n      0x20\n      swap1\n      dup2\n      mstore\n      0x40\n      dup1\n      dup4\n      keccak256\n        /* \"kcbreward.sol\":22130:22195  checkpoints[delegatee][nCheckpoints - 1].fromBlock == blockNumber */\n      0xffffffff\n      not(0x00)\n        /* \"kcbreward.sol\":22153:22169  nCheckpoints - 1 */\n      dup10\n      add\n        /* \"kcbreward.sol\":22130:22170  checkpoints[delegatee][nCheckpoints - 1] */\n      dup2\n      and\n      dup6\n      mstore\n      swap3\n      mstore\n      swap1\n      swap2\n      keccak256\n        /* \"kcbreward.sol\":22130:22180  checkpoints[delegatee][nCheckpoints - 1].fromBlock */\n      sload\n        /* \"kcbreward.sol\":22130:22195  checkpoints[delegatee][nCheckpoints - 1].fromBlock == blockNumber */\n      dup3\n      dup3\n      and\n        /* \"kcbreward.sol\":22130:22180  checkpoints[delegatee][nCheckpoints - 1].fromBlock */\n      swap2\n      and\n        /* \"kcbreward.sol\":22130:22195  checkpoints[delegatee][nCheckpoints - 1].fromBlock == blockNumber */\n      eq\n        /* \"kcbreward.sol\":22110:22195  nCheckpoints > 0 && checkpoints[delegatee][nCheckpoints - 1].fromBlock == blockNumber */\n    tag_331:\n        /* \"kcbreward.sol\":22106:22430  if (nCheckpoints > 0 && checkpoints[delegatee][nCheckpoints - 1].fromBlock == blockNumber) {... */\n      iszero\n      tag_332\n      jumpi\n      sub(shl(0xa0, 0x01), 0x01)\n        /* \"kcbreward.sol\":22209:22231  checkpoints[delegatee] */\n      dup6\n      and\n      0x00\n      swap1\n      dup2\n      mstore\n        /* \"kcbreward.sol\":22209:22220  checkpoints */\n      0x06\n        /* \"kcbreward.sol\":22209:22231  checkpoints[delegatee] */\n      0x20\n      swap1\n      dup2\n      mstore\n      0x40\n      dup1\n      dup4\n      keccak256\n      not(0x00)\n        /* \"kcbreward.sol\":22232:22248  nCheckpoints - 1 */\n      dup9\n      add\n        /* \"kcbreward.sol\":22209:22249  checkpoints[delegatee][nCheckpoints - 1] */\n      0xffffffff\n      and\n      dup5\n      mstore\n      swap1\n      swap2\n      mstore\n      swap1\n      keccak256\n        /* \"kcbreward.sol\":22209:22266  checkpoints[delegatee][nCheckpoints - 1].votes = newVotes */\n      dup1\n      sload\n      not(0xffffffffffffffffffffffff00000000)\n      and\n      shl(0x20, 0x01)\n      sub(shl(0x60, 0x01), 0x01)\n      dup6\n      and\n      mul\n      or\n      swap1\n      sstore\n        /* \"kcbreward.sol\":22106:22430  if (nCheckpoints > 0 && checkpoints[delegatee][nCheckpoints - 1].fromBlock == blockNumber) {... */\n      jump(tag_333)\n    tag_332:\n        /* \"kcbreward.sol\":22332:22365  Checkpoint(blockNumber, newVotes) */\n      0x40\n      dup1\n      mload\n      dup1\n      dup3\n      add\n      dup3\n      mstore\n      0xffffffff\n      dup1\n      dup5\n      and\n      dup3\n      mstore\n      sub(shl(0x60, 0x01), 0x01)\n      dup1\n      dup7\n      and\n      0x20\n      dup1\n      dup6\n      add\n      swap2\n      dup3\n      mstore\n      sub(shl(0xa0, 0x01), 0x01)\n        /* \"kcbreward.sol\":22293:22315  checkpoints[delegatee] */\n      dup12\n      and\n      0x00\n      dup2\n      dup2\n      mstore\n        /* \"kcbreward.sol\":22293:22304  checkpoints */\n      0x06\n        /* \"kcbreward.sol\":22293:22315  checkpoints[delegatee] */\n      dup4\n      mstore\n      dup8\n      dup2\n      keccak256\n        /* \"kcbreward.sol\":22293:22329  checkpoints[delegatee][nCheckpoints] */\n      dup13\n      dup8\n      and\n      dup3\n      mstore\n      dup4\n      mstore\n      dup8\n      dup2\n      keccak256\n        /* \"kcbreward.sol\":22293:22365  checkpoints[delegatee][nCheckpoints] = Checkpoint(blockNumber, newVotes) */\n      swap7\n      mload\n      dup8\n      sload\n      swap5\n      mload\n      swap1\n      swap6\n      and\n      shl(0x20, 0x01)\n      mul\n      not(0xffffffffffffffffffffffff00000000)\n      swap6\n      dup8\n      and\n      not(0xffffffff)\n      swap6\n      dup7\n      and\n      or\n      swap6\n      swap1\n      swap6\n      and\n      swap5\n      swap1\n      swap5\n      or\n      swap1\n      swap6\n      sstore\n        /* \"kcbreward.sol\":22377:22402  numCheckpoints[delegatee] */\n      swap4\n      dup3\n      mstore\n        /* \"kcbreward.sol\":22377:22391  numCheckpoints */\n      0x07\n        /* \"kcbreward.sol\":22377:22402  numCheckpoints[delegatee] */\n      swap1\n      swap4\n      mstore\n      swap3\n      swap1\n      swap3\n      keccak256\n        /* \"kcbreward.sol\":22377:22421  numCheckpoints[delegatee] = nCheckpoints + 1 */\n      dup1\n      sload\n        /* \"kcbreward.sol\":22293:22365  checkpoints[delegatee][nCheckpoints] = Checkpoint(blockNumber, newVotes) */\n      0x01\n        /* \"kcbreward.sol\":22405:22421  nCheckpoints + 1 */\n      dup9\n      add\n        /* \"kcbreward.sol\":22377:22421  numCheckpoints[delegatee] = nCheckpoints + 1 */\n      swap1\n      swap4\n      and\n      swap3\n      swap1\n      swap2\n      and\n      swap2\n      swap1\n      swap2\n      or\n      swap1\n      sstore\n        /* \"kcbreward.sol\":22106:22430  if (nCheckpoints > 0 && checkpoints[delegatee][nCheckpoints - 1].fromBlock == blockNumber) {... */\n    tag_333:\n        /* \"kcbreward.sol\":22464:22473  delegatee */\n      dup5\n      sub(shl(0xa0, 0x01), 0x01)\n        /* \"kcbreward.sol\":22443:22494  DelegateVotesChanged(delegatee, oldVotes, newVotes) */\n      and\n      0xdec2bacdd2f05b59de34da9b523dff8be42e5e38e818c82fdb0bae774387a724\n        /* \"kcbreward.sol\":22475:22483  oldVotes */\n      dup5\n        /* \"kcbreward.sol\":22485:22493  newVotes */\n      dup5\n        /* \"kcbreward.sol\":22443:22494  DelegateVotesChanged(delegatee, oldVotes, newVotes) */\n      mload(0x40)\n      tag_334\n      swap3\n      swap2\n      swap1\n      jump(tag_335)\n    tag_334:\n      mload(0x40)\n      dup1\n      swap2\n      sub\n      swap1\n      log2\n        /* \"kcbreward.sol\":21884:22501  function _writeCheckpoint(address delegatee, uint32 nCheckpoints, uint96 oldVotes, uint96 newVotes) internal {... */\n      pop\n      pop\n      pop\n      pop\n      pop\n      jump\t// out\n        /* \"kcbreward.sol\":22507:22665  function safe32(uint n, string memory errorMessage) internal pure returns (uint32) {... */\n    tag_330:\n        /* \"kcbreward.sol\":22582:22588  uint32 */\n      0x00\n        /* \"kcbreward.sol\":22619:22631  errorMessage */\n      dup2\n      shl(0x20, 0x01)\n        /* \"kcbreward.sol\":22608:22617  n < 2**32 */\n      dup5\n      lt\n        /* \"kcbreward.sol\":22600:22632  require(n < 2**32, errorMessage) */\n      tag_274\n      jumpi\n      mload(0x40)\n      shl(0xe5, 0x461bcd)\n      dup2\n      mstore\n      0x04\n      add\n      tag_166\n      swap2\n      swap1\n      jump(tag_39)\n        /* \"kcbreward.sol\":6581:23344  contract Uni {... */\n    tag_206:\n      0x40\n      dup1\n      mload\n      dup1\n      dup3\n      add\n      swap1\n      swap2\n      mstore\n      0x00\n      dup1\n      dup3\n      mstore\n      0x20\n      dup3\n      add\n      mstore\n      swap1\n      jump\t// out\n        /* \"--CODEGEN--\":5:135   */\n    tag_340:\n        /* \"--CODEGEN--\":72:92   */\n      dup1\n      calldataload\n        /* \"--CODEGEN--\":97:130   */\n      tag_144\n        /* \"--CODEGEN--\":72:92   */\n      dup2\n        /* \"--CODEGEN--\":97:130   */\n      jump(tag_342)\n        /* \"--CODEGEN--\":142:272   */\n    tag_343:\n        /* \"--CODEGEN--\":209:229   */\n      dup1\n      calldataload\n        /* \"--CODEGEN--\":234:267   */\n      tag_144\n        /* \"--CODEGEN--\":209:229   */\n      dup2\n        /* \"--CODEGEN--\":234:267   */\n      jump(tag_345)\n        /* \"--CODEGEN--\":416:544   */\n    tag_349:\n        /* \"--CODEGEN--\":482:502   */\n      dup1\n      calldataload\n        /* \"--CODEGEN--\":507:539   */\n      tag_144\n        /* \"--CODEGEN--\":482:502   */\n      dup2\n        /* \"--CODEGEN--\":507:539   */\n      jump(tag_351)\n        /* \"--CODEGEN--\":551:677   */\n    tag_352:\n        /* \"--CODEGEN--\":616:636   */\n      dup1\n      calldataload\n        /* \"--CODEGEN--\":641:672   */\n      tag_144\n        /* \"--CODEGEN--\":616:636   */\n      dup2\n        /* \"--CODEGEN--\":641:672   */\n      jump(tag_354)\n        /* \"--CODEGEN--\":684:925   */\n    tag_78:\n      0x00\n        /* \"--CODEGEN--\":788:790   */\n      0x20\n        /* \"--CODEGEN--\":776:785   */\n      dup3\n        /* \"--CODEGEN--\":767:774   */\n      dup5\n        /* \"--CODEGEN--\":763:786   */\n      sub\n        /* \"--CODEGEN--\":759:791   */\n      slt\n        /* \"--CODEGEN--\":756:758   */\n      iszero\n      tag_355\n      jumpi\n        /* \"--CODEGEN--\":804:805   */\n      0x00\n        /* \"--CODEGEN--\":801:802   */\n      dup1\n        /* \"--CODEGEN--\":794:806   */\n      revert\n        /* \"--CODEGEN--\":756:758   */\n    tag_355:\n        /* \"--CODEGEN--\":839:840   */\n      0x00\n        /* \"--CODEGEN--\":856:909   */\n      tag_356\n        /* \"--CODEGEN--\":901:908   */\n      dup5\n        /* \"--CODEGEN--\":881:890   */\n      dup5\n        /* \"--CODEGEN--\":856:909   */\n      jump(tag_340)\n    tag_356:\n        /* \"--CODEGEN--\":846:909   */\n      swap5\n        /* \"--CODEGEN--\":750:925   */\n      swap4\n      pop\n      pop\n      pop\n      pop\n      jump\n        /* \"--CODEGEN--\":932:1298   */\n    tag_129:\n      0x00\n      dup1\n        /* \"--CODEGEN--\":1053:1055   */\n      0x40\n        /* \"--CODEGEN--\":1041:1050   */\n      dup4\n        /* \"--CODEGEN--\":1032:1039   */\n      dup6\n        /* \"--CODEGEN--\":1028:1051   */\n      sub\n        /* \"--CODEGEN--\":1024:1056   */\n      slt\n        /* \"--CODEGEN--\":1021:1023   */\n      iszero\n      tag_357\n      jumpi\n        /* \"--CODEGEN--\":1069:1070   */\n      0x00\n        /* \"--CODEGEN--\":1066:1067   */\n      dup1\n        /* \"--CODEGEN--\":1059:1071   */\n      revert\n        /* \"--CODEGEN--\":1021:1023   */\n    tag_357:\n        /* \"--CODEGEN--\":1104:1105   */\n      0x00\n        /* \"--CODEGEN--\":1121:1174   */\n      tag_358\n        /* \"--CODEGEN--\":1166:1173   */\n      dup6\n        /* \"--CODEGEN--\":1146:1155   */\n      dup6\n        /* \"--CODEGEN--\":1121:1174   */\n      jump(tag_340)\n    tag_358:\n        /* \"--CODEGEN--\":1111:1174   */\n      swap3\n      pop\n        /* \"--CODEGEN--\":1083:1180   */\n      pop\n        /* \"--CODEGEN--\":1211:1213   */\n      0x20\n        /* \"--CODEGEN--\":1229:1282   */\n      tag_359\n        /* \"--CODEGEN--\":1274:1281   */\n      dup6\n        /* \"--CODEGEN--\":1265:1271   */\n      dup3\n        /* \"--CODEGEN--\":1254:1263   */\n      dup7\n        /* \"--CODEGEN--\":1250:1272   */\n      add\n        /* \"--CODEGEN--\":1229:1282   */\n      jump(tag_340)\n    tag_359:\n        /* \"--CODEGEN--\":1219:1282   */\n      swap2\n      pop\n        /* \"--CODEGEN--\":1190:1288   */\n      pop\n        /* \"--CODEGEN--\":1015:1298   */\n      swap3\n      pop\n      swap3\n      swap1\n      pop\n      jump\n        /* \"--CODEGEN--\":1305:1796   */\n    tag_60:\n      0x00\n      dup1\n      0x00\n        /* \"--CODEGEN--\":1443:1445   */\n      0x60\n        /* \"--CODEGEN--\":1431:1440   */\n      dup5\n        /* \"--CODEGEN--\":1422:1429   */\n      dup7\n        /* \"--CODEGEN--\":1418:1441   */\n      sub\n        /* \"--CODEGEN--\":1414:1446   */\n      slt\n        /* \"--CODEGEN--\":1411:1413   */\n      iszero\n      tag_360\n      jumpi\n        /* \"--CODEGEN--\":1459:1460   */\n      0x00\n        /* \"--CODEGEN--\":1456:1457   */\n      dup1\n        /* \"--CODEGEN--\":1449:1461   */\n      revert\n        /* \"--CODEGEN--\":1411:1413   */\n    tag_360:\n        /* \"--CODEGEN--\":1494:1495   */\n      0x00\n        /* \"--CODEGEN--\":1511:1564   */\n      tag_361\n        /* \"--CODEGEN--\":1556:1563   */\n      dup7\n        /* \"--CODEGEN--\":1536:1545   */\n      dup7\n        /* \"--CODEGEN--\":1511:1564   */\n      jump(tag_340)\n    tag_361:\n        /* \"--CODEGEN--\":1501:1564   */\n      swap4\n      pop\n        /* \"--CODEGEN--\":1473:1570   */\n      pop\n        /* \"--CODEGEN--\":1601:1603   */\n      0x20\n        /* \"--CODEGEN--\":1619:1672   */\n      tag_362\n        /* \"--CODEGEN--\":1664:1671   */\n      dup7\n        /* \"--CODEGEN--\":1655:1661   */\n      dup3\n        /* \"--CODEGEN--\":1644:1653   */\n      dup8\n        /* \"--CODEGEN--\":1640:1662   */\n      add\n        /* \"--CODEGEN--\":1619:1672   */\n      jump(tag_340)\n    tag_362:\n        /* \"--CODEGEN--\":1609:1672   */\n      swap3\n      pop\n        /* \"--CODEGEN--\":1580:1678   */\n      pop\n        /* \"--CODEGEN--\":1709:1711   */\n      0x40\n        /* \"--CODEGEN--\":1727:1780   */\n      tag_363\n        /* \"--CODEGEN--\":1772:1779   */\n      dup7\n        /* \"--CODEGEN--\":1763:1769   */\n      dup3\n        /* \"--CODEGEN--\":1752:1761   */\n      dup8\n        /* \"--CODEGEN--\":1748:1770   */\n      add\n        /* \"--CODEGEN--\":1727:1780   */\n      jump(tag_343)\n    tag_363:\n        /* \"--CODEGEN--\":1717:1780   */\n      swap2\n      pop\n        /* \"--CODEGEN--\":1688:1786   */\n      pop\n        /* \"--CODEGEN--\":1405:1796   */\n      swap3\n      pop\n      swap3\n      pop\n      swap3\n      jump\n        /* \"--CODEGEN--\":1803:2794   */\n    tag_125:\n      0x00\n      dup1\n      0x00\n      dup1\n      0x00\n      dup1\n      0x00\n        /* \"--CODEGEN--\":2007:2010   */\n      0xe0\n        /* \"--CODEGEN--\":1995:2004   */\n      dup9\n        /* \"--CODEGEN--\":1986:1993   */\n      dup11\n        /* \"--CODEGEN--\":1982:2005   */\n      sub\n        /* \"--CODEGEN--\":1978:2011   */\n      slt\n        /* \"--CODEGEN--\":1975:1977   */\n      iszero\n      tag_364\n      jumpi\n        /* \"--CODEGEN--\":2024:2025   */\n      0x00\n        /* \"--CODEGEN--\":2021:2022   */\n      dup1\n        /* \"--CODEGEN--\":2014:2026   */\n      revert\n        /* \"--CODEGEN--\":1975:1977   */\n    tag_364:\n        /* \"--CODEGEN--\":2059:2060   */\n      0x00\n        /* \"--CODEGEN--\":2076:2129   */\n      tag_365\n        /* \"--CODEGEN--\":2121:2128   */\n      dup11\n        /* \"--CODEGEN--\":2101:2110   */\n      dup11\n        /* \"--CODEGEN--\":2076:2129   */\n      jump(tag_340)\n    tag_365:\n        /* \"--CODEGEN--\":2066:2129   */\n      swap8\n      pop\n        /* \"--CODEGEN--\":2038:2135   */\n      pop\n        /* \"--CODEGEN--\":2166:2168   */\n      0x20\n        /* \"--CODEGEN--\":2184:2237   */\n      tag_366\n        /* \"--CODEGEN--\":2229:2236   */\n      dup11\n        /* \"--CODEGEN--\":2220:2226   */\n      dup3\n        /* \"--CODEGEN--\":2209:2218   */\n      dup12\n        /* \"--CODEGEN--\":2205:2227   */\n      add\n        /* \"--CODEGEN--\":2184:2237   */\n      jump(tag_340)\n    tag_366:\n        /* \"--CODEGEN--\":2174:2237   */\n      swap7\n      pop\n        /* \"--CODEGEN--\":2145:2243   */\n      pop\n        /* \"--CODEGEN--\":2274:2276   */\n      0x40\n        /* \"--CODEGEN--\":2292:2345   */\n      tag_367\n        /* \"--CODEGEN--\":2337:2344   */\n      dup11\n        /* \"--CODEGEN--\":2328:2334   */\n      dup3\n        /* \"--CODEGEN--\":2317:2326   */\n      dup12\n        /* \"--CODEGEN--\":2313:2335   */\n      add\n        /* \"--CODEGEN--\":2292:2345   */\n      jump(tag_343)\n    tag_367:\n        /* \"--CODEGEN--\":2282:2345   */\n      swap6\n      pop\n        /* \"--CODEGEN--\":2253:2351   */\n      pop\n        /* \"--CODEGEN--\":2382:2384   */\n      0x60\n        /* \"--CODEGEN--\":2400:2453   */\n      tag_368\n        /* \"--CODEGEN--\":2445:2452   */\n      dup11\n        /* \"--CODEGEN--\":2436:2442   */\n      dup3\n        /* \"--CODEGEN--\":2425:2434   */\n      dup12\n        /* \"--CODEGEN--\":2421:2443   */\n      add\n        /* \"--CODEGEN--\":2400:2453   */\n      jump(tag_343)\n    tag_368:\n        /* \"--CODEGEN--\":2390:2453   */\n      swap5\n      pop\n        /* \"--CODEGEN--\":2361:2459   */\n      pop\n        /* \"--CODEGEN--\":2490:2493   */\n      0x80\n        /* \"--CODEGEN--\":2509:2560   */\n      tag_369\n        /* \"--CODEGEN--\":2552:2559   */\n      dup11\n        /* \"--CODEGEN--\":2543:2549   */\n      dup3\n        /* \"--CODEGEN--\":2532:2541   */\n      dup12\n        /* \"--CODEGEN--\":2528:2550   */\n      add\n        /* \"--CODEGEN--\":2509:2560   */\n      jump(tag_352)\n    tag_369:\n        /* \"--CODEGEN--\":2499:2560   */\n      swap4\n      pop\n        /* \"--CODEGEN--\":2469:2566   */\n      pop\n        /* \"--CODEGEN--\":2597:2600   */\n      0xa0\n        /* \"--CODEGEN--\":2616:2669   */\n      tag_370\n        /* \"--CODEGEN--\":2661:2668   */\n      dup11\n        /* \"--CODEGEN--\":2652:2658   */\n      dup3\n        /* \"--CODEGEN--\":2641:2650   */\n      dup12\n        /* \"--CODEGEN--\":2637:2659   */\n      add\n        /* \"--CODEGEN--\":2616:2669   */\n      jump(tag_343)\n    tag_370:\n        /* \"--CODEGEN--\":2606:2669   */\n      swap3\n      pop\n        /* \"--CODEGEN--\":2576:2675   */\n      pop\n        /* \"--CODEGEN--\":2706:2709   */\n      0xc0\n        /* \"--CODEGEN--\":2725:2778   */\n      tag_371\n        /* \"--CODEGEN--\":2770:2777   */\n      dup11\n        /* \"--CODEGEN--\":2761:2767   */\n      dup3\n        /* \"--CODEGEN--\":2750:2759   */\n      dup12\n        /* \"--CODEGEN--\":2746:2768   */\n      add\n        /* \"--CODEGEN--\":2725:2778   */\n      jump(tag_343)\n    tag_371:\n        /* \"--CODEGEN--\":2715:2778   */\n      swap2\n      pop\n        /* \"--CODEGEN--\":2685:2784   */\n      pop\n        /* \"--CODEGEN--\":1969:2794   */\n      swap3\n      swap6\n      swap9\n      swap2\n      swap5\n      swap8\n      pop\n      swap3\n      swap6\n      pop\n      jump\n        /* \"--CODEGEN--\":2801:3167   */\n    tag_46:\n      0x00\n      dup1\n        /* \"--CODEGEN--\":2922:2924   */\n      0x40\n        /* \"--CODEGEN--\":2910:2919   */\n      dup4\n        /* \"--CODEGEN--\":2901:2908   */\n      dup6\n        /* \"--CODEGEN--\":2897:2920   */\n      sub\n        /* \"--CODEGEN--\":2893:2925   */\n      slt\n        /* \"--CODEGEN--\":2890:2892   */\n      iszero\n      tag_372\n      jumpi\n        /* \"--CODEGEN--\":2938:2939   */\n      0x00\n        /* \"--CODEGEN--\":2935:2936   */\n      dup1\n        /* \"--CODEGEN--\":2928:2940   */\n      revert\n        /* \"--CODEGEN--\":2890:2892   */\n    tag_372:\n        /* \"--CODEGEN--\":2973:2974   */\n      0x00\n        /* \"--CODEGEN--\":2990:3043   */\n      tag_373\n        /* \"--CODEGEN--\":3035:3042   */\n      dup6\n        /* \"--CODEGEN--\":3015:3024   */\n      dup6\n        /* \"--CODEGEN--\":2990:3043   */\n      jump(tag_340)\n    tag_373:\n        /* \"--CODEGEN--\":2980:3043   */\n      swap3\n      pop\n        /* \"--CODEGEN--\":2952:3049   */\n      pop\n        /* \"--CODEGEN--\":3080:3082   */\n      0x20\n        /* \"--CODEGEN--\":3098:3151   */\n      tag_359\n        /* \"--CODEGEN--\":3143:3150   */\n      dup6\n        /* \"--CODEGEN--\":3134:3140   */\n      dup3\n        /* \"--CODEGEN--\":3123:3132   */\n      dup7\n        /* \"--CODEGEN--\":3119:3141   */\n      add\n        /* \"--CODEGEN--\":3098:3151   */\n      jump(tag_343)\n        /* \"--CODEGEN--\":3174:4039   */\n    tag_121:\n      0x00\n      dup1\n      0x00\n      dup1\n      0x00\n      dup1\n        /* \"--CODEGEN--\":3361:3364   */\n      0xc0\n        /* \"--CODEGEN--\":3349:3358   */\n      dup8\n        /* \"--CODEGEN--\":3340:3347   */\n      dup10\n        /* \"--CODEGEN--\":3336:3359   */\n      sub\n        /* \"--CODEGEN--\":3332:3365   */\n      slt\n        /* \"--CODEGEN--\":3329:3331   */\n      iszero\n      tag_375\n      jumpi\n        /* \"--CODEGEN--\":3378:3379   */\n      0x00\n        /* \"--CODEGEN--\":3375:3376   */\n      dup1\n        /* \"--CODEGEN--\":3368:3380   */\n      revert\n        /* \"--CODEGEN--\":3329:3331   */\n    tag_375:\n        /* \"--CODEGEN--\":3413:3414   */\n      0x00\n        /* \"--CODEGEN--\":3430:3483   */\n      tag_376\n        /* \"--CODEGEN--\":3475:3482   */\n      dup10\n        /* \"--CODEGEN--\":3455:3464   */\n      dup10\n        /* \"--CODEGEN--\":3430:3483   */\n      jump(tag_340)\n    tag_376:\n        /* \"--CODEGEN--\":3420:3483   */\n      swap7\n      pop\n        /* \"--CODEGEN--\":3392:3489   */\n      pop\n        /* \"--CODEGEN--\":3520:3522   */\n      0x20\n        /* \"--CODEGEN--\":3538:3591   */\n      tag_377\n        /* \"--CODEGEN--\":3583:3590   */\n      dup10\n        /* \"--CODEGEN--\":3574:3580   */\n      dup3\n        /* \"--CODEGEN--\":3563:3572   */\n      dup11\n        /* \"--CODEGEN--\":3559:3581   */\n      add\n        /* \"--CODEGEN--\":3538:3591   */\n      jump(tag_343)\n    tag_377:\n        /* \"--CODEGEN--\":3528:3591   */\n      swap6\n      pop\n        /* \"--CODEGEN--\":3499:3597   */\n      pop\n        /* \"--CODEGEN--\":3628:3630   */\n      0x40\n        /* \"--CODEGEN--\":3646:3699   */\n      tag_378\n        /* \"--CODEGEN--\":3691:3698   */\n      dup10\n        /* \"--CODEGEN--\":3682:3688   */\n      dup3\n        /* \"--CODEGEN--\":3671:3680   */\n      dup11\n        /* \"--CODEGEN--\":3667:3689   */\n      add\n        /* \"--CODEGEN--\":3646:3699   */\n      jump(tag_343)\n    tag_378:\n        /* \"--CODEGEN--\":3636:3699   */\n      swap5\n      pop\n        /* \"--CODEGEN--\":3607:3705   */\n      pop\n        /* \"--CODEGEN--\":3736:3738   */\n      0x60\n        /* \"--CODEGEN--\":3754:3805   */\n      tag_379\n        /* \"--CODEGEN--\":3797:3804   */\n      dup10\n        /* \"--CODEGEN--\":3788:3794   */\n      dup3\n        /* \"--CODEGEN--\":3777:3786   */\n      dup11\n        /* \"--CODEGEN--\":3773:3795   */\n      add\n        /* \"--CODEGEN--\":3754:3805   */\n      jump(tag_352)\n    tag_379:\n        /* \"--CODEGEN--\":3744:3805   */\n      swap4\n      pop\n        /* \"--CODEGEN--\":3715:3811   */\n      pop\n        /* \"--CODEGEN--\":3842:3845   */\n      0x80\n        /* \"--CODEGEN--\":3861:3914   */\n      tag_380\n        /* \"--CODEGEN--\":3906:3913   */\n      dup10\n        /* \"--CODEGEN--\":3897:3903   */\n      dup3\n        /* \"--CODEGEN--\":3886:3895   */\n      dup11\n        /* \"--CODEGEN--\":3882:3904   */\n      add\n        /* \"--CODEGEN--\":3861:3914   */\n      jump(tag_343)\n    tag_380:\n        /* \"--CODEGEN--\":3851:3914   */\n      swap3\n      pop\n        /* \"--CODEGEN--\":3821:3920   */\n      pop\n        /* \"--CODEGEN--\":3951:3954   */\n      0xa0\n        /* \"--CODEGEN--\":3970:4023   */\n      tag_381\n        /* \"--CODEGEN--\":4015:4022   */\n      dup10\n        /* \"--CODEGEN--\":4006:4012   */\n      dup3\n        /* \"--CODEGEN--\":3995:4004   */\n      dup11\n        /* \"--CODEGEN--\":3991:4013   */\n      add\n        /* \"--CODEGEN--\":3970:4023   */\n      jump(tag_343)\n    tag_381:\n        /* \"--CODEGEN--\":3960:4023   */\n      swap2\n      pop\n        /* \"--CODEGEN--\":3930:4029   */\n      pop\n        /* \"--CODEGEN--\":3323:4039   */\n      swap3\n      swap6\n      pop\n      swap3\n      swap6\n      pop\n      swap3\n      swap6\n      jump\n        /* \"--CODEGEN--\":4046:4410   */\n    tag_137:\n      0x00\n      dup1\n        /* \"--CODEGEN--\":4166:4168   */\n      0x40\n        /* \"--CODEGEN--\":4154:4163   */\n      dup4\n        /* \"--CODEGEN--\":4145:4152   */\n      dup6\n        /* \"--CODEGEN--\":4141:4164   */\n      sub\n        /* \"--CODEGEN--\":4137:4169   */\n      slt\n        /* \"--CODEGEN--\":4134:4136   */\n      iszero\n      tag_382\n      jumpi\n        /* \"--CODEGEN--\":4182:4183   */\n      0x00\n        /* \"--CODEGEN--\":4179:4180   */\n      dup1\n        /* \"--CODEGEN--\":4172:4184   */\n      revert\n        /* \"--CODEGEN--\":4134:4136   */\n    tag_382:\n        /* \"--CODEGEN--\":4217:4218   */\n      0x00\n        /* \"--CODEGEN--\":4234:4287   */\n      tag_383\n        /* \"--CODEGEN--\":4279:4286   */\n      dup6\n        /* \"--CODEGEN--\":4259:4268   */\n      dup6\n        /* \"--CODEGEN--\":4234:4287   */\n      jump(tag_340)\n    tag_383:\n        /* \"--CODEGEN--\":4224:4287   */\n      swap3\n      pop\n        /* \"--CODEGEN--\":4196:4293   */\n      pop\n        /* \"--CODEGEN--\":4324:4326   */\n      0x20\n        /* \"--CODEGEN--\":4342:4394   */\n      tag_359\n        /* \"--CODEGEN--\":4386:4393   */\n      dup6\n        /* \"--CODEGEN--\":4377:4383   */\n      dup3\n        /* \"--CODEGEN--\":4366:4375   */\n      dup7\n        /* \"--CODEGEN--\":4362:4384   */\n      add\n        /* \"--CODEGEN--\":4342:4394   */\n      jump(tag_349)\n        /* \"--CODEGEN--\":4417:4530   */\n    tag_385:\n        /* \"--CODEGEN--\":4500:4524   */\n      tag_386\n        /* \"--CODEGEN--\":4518:4523   */\n      dup2\n        /* \"--CODEGEN--\":4500:4524   */\n      jump(tag_387)\n    tag_386:\n        /* \"--CODEGEN--\":4495:4498   */\n      dup3\n        /* \"--CODEGEN--\":4488:4525   */\n      mstore\n        /* \"--CODEGEN--\":4482:4530   */\n      pop\n      pop\n      jump\n        /* \"--CODEGEN--\":4537:4641   */\n    tag_388:\n        /* \"--CODEGEN--\":4614:4635   */\n      tag_386\n        /* \"--CODEGEN--\":4629:4634   */\n      dup2\n        /* \"--CODEGEN--\":4614:4635   */\n      jump(tag_390)\n        /* \"--CODEGEN--\":4648:4761   */\n    tag_391:\n        /* \"--CODEGEN--\":4731:4755   */\n      tag_386\n        /* \"--CODEGEN--\":4749:4754   */\n      dup2\n        /* \"--CODEGEN--\":4731:4755   */\n      jump(tag_393)\n        /* \"--CODEGEN--\":4768:4920   */\n    tag_394:\n        /* \"--CODEGEN--\":4869:4914   */\n      tag_386\n        /* \"--CODEGEN--\":4889:4913   */\n      tag_396\n        /* \"--CODEGEN--\":4907:4912   */\n      dup3\n        /* \"--CODEGEN--\":4889:4913   */\n      jump(tag_393)\n    tag_396:\n        /* \"--CODEGEN--\":4869:4914   */\n      jump(tag_393)\n        /* \"--CODEGEN--\":4927:5274   */\n    tag_398:\n      0x00\n        /* \"--CODEGEN--\":5039:5078   */\n      tag_399\n        /* \"--CODEGEN--\":5072:5077   */\n      dup3\n        /* \"--CODEGEN--\":5039:5078   */\n      jump(tag_409)\n    tag_399:\n        /* \"--CODEGEN--\":5090:5161   */\n      tag_401\n        /* \"--CODEGEN--\":5154:5160   */\n      dup2\n        /* \"--CODEGEN--\":5149:5152   */\n      dup6\n        /* \"--CODEGEN--\":5090:5161   */\n      jump(tag_402)\n    tag_401:\n        /* \"--CODEGEN--\":5083:5161   */\n      swap4\n      pop\n        /* \"--CODEGEN--\":5166:5218   */\n      tag_403\n        /* \"--CODEGEN--\":5211:5217   */\n      dup2\n        /* \"--CODEGEN--\":5206:5209   */\n      dup6\n        /* \"--CODEGEN--\":5199:5203   */\n      0x20\n        /* \"--CODEGEN--\":5192:5197   */\n      dup7\n        /* \"--CODEGEN--\":5188:5204   */\n      add\n        /* \"--CODEGEN--\":5166:5218   */\n      jump(tag_404)\n    tag_403:\n        /* \"--CODEGEN--\":5239:5268   */\n      tag_405\n        /* \"--CODEGEN--\":5261:5267   */\n      dup2\n        /* \"--CODEGEN--\":5239:5268   */\n      jump(tag_406)\n    tag_405:\n        /* \"--CODEGEN--\":5230:5269   */\n      swap1\n      swap4\n      add\n      swap4\n        /* \"--CODEGEN--\":5019:5274   */\n      swap3\n      pop\n      pop\n      pop\n      jump\n        /* \"--CODEGEN--\":5628:6002   */\n    tag_413:\n      0x00\n        /* \"--CODEGEN--\":5788:5855   */\n      tag_414\n        /* \"--CODEGEN--\":5852:5854   */\n      0x25\n        /* \"--CODEGEN--\":5847:5850   */\n      dup4\n        /* \"--CODEGEN--\":5788:5855   */\n      jump(tag_402)\n    tag_414:\n        /* \"--CODEGEN--\":5888:5922   */\n      0x556e693a3a64656c656761746542795369673a207369676e6174757265206578\n        /* \"--CODEGEN--\":5868:5923   */\n      dup2\n      mstore\n      shl(0xda, 0x1c1a5c9959)\n        /* \"--CODEGEN--\":5952:5954   */\n      0x20\n        /* \"--CODEGEN--\":5943:5955   */\n      dup3\n      add\n        /* \"--CODEGEN--\":5936:5965   */\n      mstore\n        /* \"--CODEGEN--\":5993:5995   */\n      0x40\n        /* \"--CODEGEN--\":5984:5996   */\n      add\n      swap3\n        /* \"--CODEGEN--\":5774:6002   */\n      swap2\n      pop\n      pop\n      jump\n        /* \"--CODEGEN--\":6011:6409   */\n    tag_415:\n      0x00\n        /* \"--CODEGEN--\":6189:6273   */\n      tag_416\n        /* \"--CODEGEN--\":6271:6272   */\n      0x02\n        /* \"--CODEGEN--\":6266:6269   */\n      dup4\n        /* \"--CODEGEN--\":6189:6273   */\n      jump(tag_417)\n    tag_416:\n      shl(0xf0, 0x1901)\n        /* \"--CODEGEN--\":6286:6373   */\n      dup2\n      mstore\n        /* \"--CODEGEN--\":6401:6402   */\n      0x02\n        /* \"--CODEGEN--\":6392:6403   */\n      add\n      swap3\n        /* \"--CODEGEN--\":6175:6409   */\n      swap2\n      pop\n      pop\n      jump\n        /* \"--CODEGEN--\":6418:6745   */\n    tag_418:\n      0x00\n        /* \"--CODEGEN--\":6578:6645   */\n      tag_419\n        /* \"--CODEGEN--\":6642:6644   */\n      0x1b\n        /* \"--CODEGEN--\":6637:6640   */\n      dup4\n        /* \"--CODEGEN--\":6578:6645   */\n      jump(tag_402)\n    tag_419:\n        /* \"--CODEGEN--\":6678:6707   */\n      0x536166654d6174683a206164646974696f6e206f766572666c6f770000000000\n        /* \"--CODEGEN--\":6658:6708   */\n      dup2\n      mstore\n        /* \"--CODEGEN--\":6736:6738   */\n      0x20\n        /* \"--CODEGEN--\":6727:6739   */\n      add\n      swap3\n        /* \"--CODEGEN--\":6564:6745   */\n      swap2\n      pop\n      pop\n      jump\n        /* \"--CODEGEN--\":6754:7128   */\n    tag_420:\n      0x00\n        /* \"--CODEGEN--\":6914:6981   */\n      tag_421\n        /* \"--CODEGEN--\":6978:6980   */\n      0x25\n        /* \"--CODEGEN--\":6973:6976   */\n      dup4\n        /* \"--CODEGEN--\":6914:6981   */\n      jump(tag_402)\n    tag_421:\n        /* \"--CODEGEN--\":7014:7048   */\n      0x556e693a3a64656c656761746542795369673a20696e76616c6964207369676e\n        /* \"--CODEGEN--\":6994:7049   */\n      dup2\n      mstore\n      shl(0xd8, 0x6174757265)\n        /* \"--CODEGEN--\":7078:7080   */\n      0x20\n        /* \"--CODEGEN--\":7069:7081   */\n      dup3\n      add\n        /* \"--CODEGEN--\":7062:7091   */\n      mstore\n        /* \"--CODEGEN--\":7119:7121   */\n      0x40\n        /* \"--CODEGEN--\":7110:7122   */\n      add\n      swap3\n        /* \"--CODEGEN--\":6900:7128   */\n      swap2\n      pop\n      pop\n      jump\n        /* \"--CODEGEN--\":7137:7512   */\n    tag_422:\n      0x00\n        /* \"--CODEGEN--\":7297:7364   */\n      tag_423\n        /* \"--CODEGEN--\":7361:7363   */\n      0x26\n        /* \"--CODEGEN--\":7356:7359   */\n      dup4\n        /* \"--CODEGEN--\":7297:7364   */\n      jump(tag_402)\n    tag_423:\n        /* \"--CODEGEN--\":7397:7431   */\n      0x556e693a3a6765745072696f72566f7465733a206e6f74207965742064657465\n        /* \"--CODEGEN--\":7377:7432   */\n      dup2\n      mstore\n      shl(0xd2, 0x1c9b5a5b9959)\n        /* \"--CODEGEN--\":7461:7463   */\n      0x20\n        /* \"--CODEGEN--\":7452:7464   */\n      dup3\n      add\n        /* \"--CODEGEN--\":7445:7475   */\n      mstore\n        /* \"--CODEGEN--\":7503:7505   */\n      0x40\n        /* \"--CODEGEN--\":7494:7506   */\n      add\n      swap3\n        /* \"--CODEGEN--\":7283:7512   */\n      swap2\n      pop\n      pop\n      jump\n        /* \"--CODEGEN--\":7521:7904   */\n    tag_424:\n      0x00\n        /* \"--CODEGEN--\":7681:7748   */\n      tag_425\n        /* \"--CODEGEN--\":7745:7747   */\n      0x2e\n        /* \"--CODEGEN--\":7740:7743   */\n      dup4\n        /* \"--CODEGEN--\":7681:7748   */\n      jump(tag_402)\n    tag_425:\n        /* \"--CODEGEN--\":7781:7815   */\n      0x556e693a3a6d696e743a2063616e6e6f74207472616e7366657220746f207468\n        /* \"--CODEGEN--\":7761:7816   */\n      dup2\n      mstore\n      shl(0x90, 0x65207a65726f2061646472657373)\n        /* \"--CODEGEN--\":7845:7847   */\n      0x20\n        /* \"--CODEGEN--\":7836:7848   */\n      dup3\n      add\n        /* \"--CODEGEN--\":7829:7867   */\n      mstore\n        /* \"--CODEGEN--\":7895:7897   */\n      0x40\n        /* \"--CODEGEN--\":7886:7898   */\n      add\n      swap3\n        /* \"--CODEGEN--\":7667:7904   */\n      swap2\n      pop\n      pop\n      jump\n        /* \"--CODEGEN--\":7913:8405   */\n    tag_426:\n      0x00\n        /* \"--CODEGEN--\":8091:8176   */\n      tag_427\n        /* \"--CODEGEN--\":8173:8175   */\n      0x52\n        /* \"--CODEGEN--\":8168:8171   */\n      dup4\n        /* \"--CODEGEN--\":8091:8176   */\n      jump(tag_417)\n    tag_427:\n        /* \"--CODEGEN--\":8209:8243   */\n      0x5065726d69742861646472657373206f776e65722c6164647265737320737065\n        /* \"--CODEGEN--\":8189:8244   */\n      dup2\n      mstore\n        /* \"--CODEGEN--\":8278:8312   */\n      0x6e6465722c75696e743235362076616c75652c75696e74323536206e6f6e6365\n        /* \"--CODEGEN--\":8273:8275   */\n      0x20\n        /* \"--CODEGEN--\":8264:8276   */\n      dup3\n      add\n        /* \"--CODEGEN--\":8257:8313   */\n      mstore\n      shl(0x70, 0x2c75696e7432353620646561646c696e6529)\n        /* \"--CODEGEN--\":8342:8344   */\n      0x40\n        /* \"--CODEGEN--\":8333:8345   */\n      dup3\n      add\n        /* \"--CODEGEN--\":8326:8368   */\n      mstore\n        /* \"--CODEGEN--\":8396:8398   */\n      0x52\n        /* \"--CODEGEN--\":8387:8399   */\n      add\n      swap3\n        /* \"--CODEGEN--\":8077:8405   */\n      swap2\n      pop\n      pop\n      jump\n        /* \"--CODEGEN--\":8414:8785   */\n    tag_428:\n      0x00\n        /* \"--CODEGEN--\":8574:8641   */\n      tag_429\n        /* \"--CODEGEN--\":8638:8640   */\n      0x22\n        /* \"--CODEGEN--\":8633:8636   */\n      dup4\n        /* \"--CODEGEN--\":8574:8641   */\n      jump(tag_402)\n    tag_429:\n        /* \"--CODEGEN--\":8674:8708   */\n      0x556e693a3a6d696e743a206d696e74696e67206e6f7420616c6c6f7765642079\n        /* \"--CODEGEN--\":8654:8709   */\n      dup2\n      mstore\n      shl(0xf2, 0x195d)\n        /* \"--CODEGEN--\":8738:8740   */\n      0x20\n        /* \"--CODEGEN--\":8729:8741   */\n      dup3\n      add\n        /* \"--CODEGEN--\":8722:8748   */\n      mstore\n        /* \"--CODEGEN--\":8776:8778   */\n      0x40\n        /* \"--CODEGEN--\":8767:8779   */\n      add\n      swap3\n        /* \"--CODEGEN--\":8560:8785   */\n      swap2\n      pop\n      pop\n      jump\n        /* \"--CODEGEN--\":8794:9271   */\n    tag_430:\n      0x00\n        /* \"--CODEGEN--\":8972:9057   */\n      tag_431\n        /* \"--CODEGEN--\":9054:9056   */\n      0x43\n        /* \"--CODEGEN--\":9049:9052   */\n      dup4\n        /* \"--CODEGEN--\":8972:9057   */\n      jump(tag_417)\n    tag_431:\n        /* \"--CODEGEN--\":9090:9124   */\n      0x454950373132446f6d61696e28737472696e67206e616d652c75696e74323536\n        /* \"--CODEGEN--\":9070:9125   */\n      dup2\n      mstore\n        /* \"--CODEGEN--\":9159:9193   */\n      0x20636861696e49642c6164647265737320766572696679696e67436f6e747261\n        /* \"--CODEGEN--\":9154:9156   */\n      0x20\n        /* \"--CODEGEN--\":9145:9157   */\n      dup3\n      add\n        /* \"--CODEGEN--\":9138:9194   */\n      mstore\n      shl(0xe8, 0x637429)\n        /* \"--CODEGEN--\":9223:9225   */\n      0x40\n        /* \"--CODEGEN--\":9214:9226   */\n      dup3\n      add\n        /* \"--CODEGEN--\":9207:9234   */\n      mstore\n        /* \"--CODEGEN--\":9262:9264   */\n      0x43\n        /* \"--CODEGEN--\":9253:9265   */\n      add\n      swap3\n        /* \"--CODEGEN--\":8958:9271   */\n      swap2\n      pop\n      pop\n      jump\n        /* \"--CODEGEN--\":9280:9674   */\n    tag_432:\n      0x00\n        /* \"--CODEGEN--\":9440:9507   */\n      tag_433\n        /* \"--CODEGEN--\":9504:9506   */\n      0x39\n        /* \"--CODEGEN--\":9499:9502   */\n      dup4\n        /* \"--CODEGEN--\":9440:9507   */\n      jump(tag_402)\n    tag_433:\n        /* \"--CODEGEN--\":9540:9574   */\n      0x556e693a3a5f7472616e73666572546f6b656e733a2063616e6e6f7420747261\n        /* \"--CODEGEN--\":9520:9575   */\n      dup2\n      mstore\n        /* \"--CODEGEN--\":9609:9636   */\n      0x6e7366657220746f20746865207a65726f206164647265737300000000000000\n        /* \"--CODEGEN--\":9604:9606   */\n      0x20\n        /* \"--CODEGEN--\":9595:9607   */\n      dup3\n      add\n        /* \"--CODEGEN--\":9588:9637   */\n      mstore\n        /* \"--CODEGEN--\":9665:9667   */\n      0x40\n        /* \"--CODEGEN--\":9656:9668   */\n      add\n      swap3\n        /* \"--CODEGEN--\":9426:9674   */\n      swap2\n      pop\n      pop\n      jump\n        /* \"--CODEGEN--\":9683:10053   */\n    tag_434:\n      0x00\n        /* \"--CODEGEN--\":9843:9910   */\n      tag_435\n        /* \"--CODEGEN--\":9907:9909   */\n      0x21\n        /* \"--CODEGEN--\":9902:9905   */\n      dup4\n        /* \"--CODEGEN--\":9843:9910   */\n      jump(tag_402)\n    tag_435:\n        /* \"--CODEGEN--\":9943:9977   */\n      0x536166654d6174683a206d756c7469706c69636174696f6e206f766572666c6f\n        /* \"--CODEGEN--\":9923:9978   */\n      dup2\n      mstore\n      shl(0xf8, 0x77)\n        /* \"--CODEGEN--\":10007:10009   */\n      0x20\n        /* \"--CODEGEN--\":9998:10010   */\n      dup3\n      add\n        /* \"--CODEGEN--\":9991:10016   */\n      mstore\n        /* \"--CODEGEN--\":10044:10046   */\n      0x40\n        /* \"--CODEGEN--\":10035:10047   */\n      add\n      swap3\n        /* \"--CODEGEN--\":9829:10053   */\n      swap2\n      pop\n      pop\n      jump\n        /* \"--CODEGEN--\":10062:10390   */\n    tag_436:\n      0x00\n        /* \"--CODEGEN--\":10222:10289   */\n      tag_437\n        /* \"--CODEGEN--\":10286:10288   */\n      0x1c\n        /* \"--CODEGEN--\":10281:10284   */\n      dup4\n        /* \"--CODEGEN--\":10222:10289   */\n      jump(tag_402)\n    tag_437:\n        /* \"--CODEGEN--\":10322:10352   */\n      0x556e693a3a6d696e743a206578636565646564206d696e742063617000000000\n        /* \"--CODEGEN--\":10302:10353   */\n      dup2\n      mstore\n        /* \"--CODEGEN--\":10381:10383   */\n      0x20\n        /* \"--CODEGEN--\":10372:10384   */\n      add\n      swap3\n        /* \"--CODEGEN--\":10208:10390   */\n      swap2\n      pop\n      pop\n      jump\n        /* \"--CODEGEN--\":10399:10771   */\n    tag_438:\n      0x00\n        /* \"--CODEGEN--\":10559:10626   */\n      tag_439\n        /* \"--CODEGEN--\":10623:10625   */\n      0x23\n        /* \"--CODEGEN--\":10618:10621   */\n      dup4\n        /* \"--CODEGEN--\":10559:10626   */\n      jump(tag_402)\n    tag_439:\n        /* \"--CODEGEN--\":10659:10693   */\n      0x556e693a3a6d696e743a206f6e6c7920746865206d696e7465722063616e206d\n        /* \"--CODEGEN--\":10639:10694   */\n      dup2\n      mstore\n      shl(0xea, 0x1a5b9d)\n        /* \"--CODEGEN--\":10723:10725   */\n      0x20\n        /* \"--CODEGEN--\":10714:10726   */\n      dup3\n      add\n        /* \"--CODEGEN--\":10707:10734   */\n      mstore\n        /* \"--CODEGEN--\":10762:10764   */\n      0x40\n        /* \"--CODEGEN--\":10753:10765   */\n      add\n      swap3\n        /* \"--CODEGEN--\":10545:10771   */\n      swap2\n      pop\n      pop\n      jump\n        /* \"--CODEGEN--\":10780:11178   */\n    tag_440:\n      0x00\n        /* \"--CODEGEN--\":10940:11007   */\n      tag_441\n        /* \"--CODEGEN--\":11004:11006   */\n      0x3d\n        /* \"--CODEGEN--\":10999:11002   */\n      dup4\n        /* \"--CODEGEN--\":10940:11007   */\n      jump(tag_402)\n    tag_441:\n        /* \"--CODEGEN--\":11040:11074   */\n      0x556e693a3a7365744d696e7465723a206f6e6c7920746865206d696e74657220\n        /* \"--CODEGEN--\":11020:11075   */\n      dup2\n      mstore\n        /* \"--CODEGEN--\":11109:11140   */\n      0x63616e206368616e676520746865206d696e7465722061646472657373000000\n        /* \"--CODEGEN--\":11104:11106   */\n      0x20\n        /* \"--CODEGEN--\":11095:11107   */\n      dup3\n      add\n        /* \"--CODEGEN--\":11088:11141   */\n      mstore\n        /* \"--CODEGEN--\":11169:11171   */\n      0x40\n        /* \"--CODEGEN--\":11160:11172   */\n      add\n      swap3\n        /* \"--CODEGEN--\":10926:11178   */\n      swap2\n      pop\n      pop\n      jump\n        /* \"--CODEGEN--\":11187:11557   */\n    tag_442:\n      0x00\n        /* \"--CODEGEN--\":11347:11414   */\n      tag_443\n        /* \"--CODEGEN--\":11411:11413   */\n      0x21\n        /* \"--CODEGEN--\":11406:11409   */\n      dup4\n        /* \"--CODEGEN--\":11347:11414   */\n      jump(tag_402)\n    tag_443:\n        /* \"--CODEGEN--\":11447:11481   */\n      0x556e693a3a64656c656761746542795369673a20696e76616c6964206e6f6e63\n        /* \"--CODEGEN--\":11427:11482   */\n      dup2\n      mstore\n      shl(0xf8, 0x65)\n        /* \"--CODEGEN--\":11511:11513   */\n      0x20\n        /* \"--CODEGEN--\":11502:11514   */\n      dup3\n      add\n        /* \"--CODEGEN--\":11495:11520   */\n      mstore\n        /* \"--CODEGEN--\":11548:11550   */\n      0x40\n        /* \"--CODEGEN--\":11539:11551   */\n      add\n      swap3\n        /* \"--CODEGEN--\":11333:11557   */\n      swap2\n      pop\n      pop\n      jump\n        /* \"--CODEGEN--\":11566:11962   */\n    tag_444:\n      0x00\n        /* \"--CODEGEN--\":11726:11793   */\n      tag_445\n        /* \"--CODEGEN--\":11790:11792   */\n      0x3b\n        /* \"--CODEGEN--\":11785:11788   */\n      dup4\n        /* \"--CODEGEN--\":11726:11793   */\n      jump(tag_402)\n    tag_445:\n        /* \"--CODEGEN--\":11826:11860   */\n      0x556e693a3a5f7472616e73666572546f6b656e733a2063616e6e6f7420747261\n        /* \"--CODEGEN--\":11806:11861   */\n      dup2\n      mstore\n        /* \"--CODEGEN--\":11895:11924   */\n      0x6e736665722066726f6d20746865207a65726f20616464726573730000000000\n        /* \"--CODEGEN--\":11890:11892   */\n      0x20\n        /* \"--CODEGEN--\":11881:11893   */\n      dup3\n      add\n        /* \"--CODEGEN--\":11874:11925   */\n      mstore\n        /* \"--CODEGEN--\":11953:11955   */\n      0x40\n        /* \"--CODEGEN--\":11944:11956   */\n      add\n      swap3\n        /* \"--CODEGEN--\":11712:11962   */\n      swap2\n      pop\n      pop\n      jump\n        /* \"--CODEGEN--\":11971:12301   */\n    tag_446:\n      0x00\n        /* \"--CODEGEN--\":12131:12198   */\n      tag_447\n        /* \"--CODEGEN--\":12195:12197   */\n      0x1e\n        /* \"--CODEGEN--\":12190:12193   */\n      dup4\n        /* \"--CODEGEN--\":12131:12198   */\n      jump(tag_402)\n    tag_447:\n        /* \"--CODEGEN--\":12231:12263   */\n      0x556e693a3a7065726d69743a207369676e617475726520657870697265640000\n        /* \"--CODEGEN--\":12211:12264   */\n      dup2\n      mstore\n        /* \"--CODEGEN--\":12292:12294   */\n      0x20\n        /* \"--CODEGEN--\":12283:12295   */\n      add\n      swap3\n        /* \"--CODEGEN--\":12117:12301   */\n      swap2\n      pop\n      pop\n      jump\n        /* \"--CODEGEN--\":12310:12741   */\n    tag_448:\n      0x00\n        /* \"--CODEGEN--\":12488:12573   */\n      tag_449\n        /* \"--CODEGEN--\":12570:12572   */\n      0x3a\n        /* \"--CODEGEN--\":12565:12568   */\n      dup4\n        /* \"--CODEGEN--\":12488:12573   */\n      jump(tag_417)\n    tag_449:\n        /* \"--CODEGEN--\":12606:12640   */\n      0x44656c65676174696f6e28616464726573732064656c6567617465652c75696e\n        /* \"--CODEGEN--\":12586:12641   */\n      dup2\n      mstore\n        /* \"--CODEGEN--\":12675:12703   */\n      0x74323536206e6f6e63652c75696e743235362065787069727929000000000000\n        /* \"--CODEGEN--\":12670:12672   */\n      0x20\n        /* \"--CODEGEN--\":12661:12673   */\n      dup3\n      add\n        /* \"--CODEGEN--\":12654:12704   */\n      mstore\n        /* \"--CODEGEN--\":12732:12734   */\n      0x3a\n        /* \"--CODEGEN--\":12723:12735   */\n      add\n      swap3\n        /* \"--CODEGEN--\":12474:12741   */\n      swap2\n      pop\n      pop\n      jump\n        /* \"--CODEGEN--\":12750:13080   */\n    tag_450:\n      0x00\n        /* \"--CODEGEN--\":12910:12977   */\n      tag_451\n        /* \"--CODEGEN--\":12974:12976   */\n      0x1e\n        /* \"--CODEGEN--\":12969:12972   */\n      dup4\n        /* \"--CODEGEN--\":12910:12977   */\n      jump(tag_402)\n    tag_451:\n        /* \"--CODEGEN--\":13010:13042   */\n      0x556e693a3a7065726d69743a20696e76616c6964207369676e61747572650000\n        /* \"--CODEGEN--\":12990:13043   */\n      dup2\n      mstore\n        /* \"--CODEGEN--\":13071:13073   */\n      0x20\n        /* \"--CODEGEN--\":13062:13074   */\n      add\n      swap3\n        /* \"--CODEGEN--\":12896:13080   */\n      swap2\n      pop\n      pop\n      jump\n        /* \"--CODEGEN--\":13089:13414   */\n    tag_452:\n      0x00\n        /* \"--CODEGEN--\":13249:13316   */\n      tag_453\n        /* \"--CODEGEN--\":13313:13315   */\n      0x19\n        /* \"--CODEGEN--\":13308:13311   */\n      dup4\n        /* \"--CODEGEN--\":13249:13316   */\n      jump(tag_402)\n    tag_453:\n        /* \"--CODEGEN--\":13349:13376   */\n      0x556e693a3a7065726d69743a20756e617574686f72697a656400000000000000\n        /* \"--CODEGEN--\":13329:13377   */\n      dup2\n      mstore\n        /* \"--CODEGEN--\":13405:13407   */\n      0x20\n        /* \"--CODEGEN--\":13396:13408   */\n      add\n      swap3\n        /* \"--CODEGEN--\":13235:13414   */\n      swap2\n      pop\n      pop\n      jump\n        /* \"--CODEGEN--\":13542:13652   */\n    tag_457:\n        /* \"--CODEGEN--\":13623:13646   */\n      tag_386\n        /* \"--CODEGEN--\":13640:13645   */\n      dup2\n        /* \"--CODEGEN--\":13623:13646   */\n      jump(tag_459)\n        /* \"--CODEGEN--\":13659:13766   */\n    tag_460:\n        /* \"--CODEGEN--\":13738:13760   */\n      tag_386\n        /* \"--CODEGEN--\":13754:13759   */\n      dup2\n        /* \"--CODEGEN--\":13738:13760   */\n      jump(tag_462)\n        /* \"--CODEGEN--\":13773:13897   */\n    tag_463:\n        /* \"--CODEGEN--\":13855:13891   */\n      tag_386\n        /* \"--CODEGEN--\":13885:13890   */\n      dup2\n        /* \"--CODEGEN--\":13855:13891   */\n      jump(tag_465)\n        /* \"--CODEGEN--\":13904:14014   */\n    tag_466:\n        /* \"--CODEGEN--\":13985:14008   */\n      tag_386\n        /* \"--CODEGEN--\":14002:14007   */\n      dup2\n        /* \"--CODEGEN--\":13985:14008   */\n      jump(tag_468)\n        /* \"--CODEGEN--\":14021:14671   */\n    tag_228:\n      0x00\n        /* \"--CODEGEN--\":14276:14424   */\n      tag_469\n        /* \"--CODEGEN--\":14420:14423   */\n      dup3\n        /* \"--CODEGEN--\":14276:14424   */\n      jump(tag_415)\n    tag_469:\n        /* \"--CODEGEN--\":14269:14424   */\n      swap2\n      pop\n        /* \"--CODEGEN--\":14435:14510   */\n      tag_470\n        /* \"--CODEGEN--\":14506:14509   */\n      dup3\n        /* \"--CODEGEN--\":14497:14503   */\n      dup6\n        /* \"--CODEGEN--\":14435:14510   */\n      jump(tag_394)\n    tag_470:\n        /* \"--CODEGEN--\":14532:14534   */\n      0x20\n        /* \"--CODEGEN--\":14527:14530   */\n      dup3\n        /* \"--CODEGEN--\":14523:14535   */\n      add\n        /* \"--CODEGEN--\":14516:14535   */\n      swap2\n      pop\n        /* \"--CODEGEN--\":14546:14621   */\n      tag_471\n        /* \"--CODEGEN--\":14617:14620   */\n      dup3\n        /* \"--CODEGEN--\":14608:14614   */\n      dup5\n        /* \"--CODEGEN--\":14546:14621   */\n      jump(tag_394)\n    tag_471:\n      pop\n        /* \"--CODEGEN--\":14643:14645   */\n      0x20\n        /* \"--CODEGEN--\":14634:14646   */\n      add\n      swap3\n        /* \"--CODEGEN--\":14257:14671   */\n      swap2\n      pop\n      pop\n      jump\n        /* \"--CODEGEN--\":14678:15050   */\n    tag_163:\n      0x00\n        /* \"--CODEGEN--\":14877:15025   */\n      tag_144\n        /* \"--CODEGEN--\":15021:15024   */\n      dup3\n        /* \"--CODEGEN--\":14877:15025   */\n      jump(tag_426)\n        /* \"--CODEGEN--\":15057:15429   */\n    tag_152:\n      0x00\n        /* \"--CODEGEN--\":15256:15404   */\n      tag_144\n        /* \"--CODEGEN--\":15400:15403   */\n      dup3\n        /* \"--CODEGEN--\":15256:15404   */\n      jump(tag_430)\n        /* \"--CODEGEN--\":15436:15808   */\n    tag_224:\n      0x00\n        /* \"--CODEGEN--\":15635:15783   */\n      tag_144\n        /* \"--CODEGEN--\":15779:15782   */\n      dup3\n        /* \"--CODEGEN--\":15635:15783   */\n      jump(tag_448)\n        /* \"--CODEGEN--\":15815:16028   */\n    tag_43:\n        /* \"--CODEGEN--\":15933:15935   */\n      0x20\n        /* \"--CODEGEN--\":15918:15936   */\n      dup2\n      add\n        /* \"--CODEGEN--\":15947:16018   */\n      tag_144\n        /* \"--CODEGEN--\":15922:15931   */\n      dup3\n        /* \"--CODEGEN--\":15991:15997   */\n      dup5\n        /* \"--CODEGEN--\":15947:16018   */\n      jump(tag_385)\n        /* \"--CODEGEN--\":16035:16359   */\n    tag_272:\n        /* \"--CODEGEN--\":16181:16183   */\n      0x40\n        /* \"--CODEGEN--\":16166:16184   */\n      dup2\n      add\n        /* \"--CODEGEN--\":16195:16266   */\n      tag_476\n        /* \"--CODEGEN--\":16170:16179   */\n      dup3\n        /* \"--CODEGEN--\":16239:16245   */\n      dup6\n        /* \"--CODEGEN--\":16195:16266   */\n      jump(tag_385)\n    tag_476:\n        /* \"--CODEGEN--\":16277:16349   */\n      tag_153\n        /* \"--CODEGEN--\":16345:16347   */\n      0x20\n        /* \"--CODEGEN--\":16334:16343   */\n      dup4\n        /* \"--CODEGEN--\":16330:16348   */\n      add\n        /* \"--CODEGEN--\":16321:16327   */\n      dup5\n        /* \"--CODEGEN--\":16277:16349   */\n      jump(tag_385)\n        /* \"--CODEGEN--\":16366:16567   */\n    tag_49:\n        /* \"--CODEGEN--\":16478:16480   */\n      0x20\n        /* \"--CODEGEN--\":16463:16481   */\n      dup2\n      add\n        /* \"--CODEGEN--\":16492:16557   */\n      tag_144\n        /* \"--CODEGEN--\":16467:16476   */\n      dup3\n        /* \"--CODEGEN--\":16530:16536   */\n      dup5\n        /* \"--CODEGEN--\":16492:16557   */\n      jump(tag_388)\n        /* \"--CODEGEN--\":16574:16787   */\n    tag_57:\n        /* \"--CODEGEN--\":16692:16694   */\n      0x20\n        /* \"--CODEGEN--\":16677:16695   */\n      dup2\n      add\n        /* \"--CODEGEN--\":16706:16777   */\n      tag_144\n        /* \"--CODEGEN--\":16681:16690   */\n      dup3\n        /* \"--CODEGEN--\":16750:16756   */\n      dup5\n        /* \"--CODEGEN--\":16706:16777   */\n      jump(tag_391)\n        /* \"--CODEGEN--\":16794:17565   */\n    tag_251:\n        /* \"--CODEGEN--\":17052:17055   */\n      0xc0\n        /* \"--CODEGEN--\":17037:17056   */\n      dup2\n      add\n        /* \"--CODEGEN--\":17067:17138   */\n      tag_480\n        /* \"--CODEGEN--\":17041:17050   */\n      dup3\n        /* \"--CODEGEN--\":17111:17117   */\n      dup10\n        /* \"--CODEGEN--\":17067:17138   */\n      jump(tag_391)\n    tag_480:\n        /* \"--CODEGEN--\":17149:17221   */\n      tag_481\n        /* \"--CODEGEN--\":17217:17219   */\n      0x20\n        /* \"--CODEGEN--\":17206:17215   */\n      dup4\n        /* \"--CODEGEN--\":17202:17220   */\n      add\n        /* \"--CODEGEN--\":17193:17199   */\n      dup9\n        /* \"--CODEGEN--\":17149:17221   */\n      jump(tag_385)\n    tag_481:\n        /* \"--CODEGEN--\":17232:17304   */\n      tag_482\n        /* \"--CODEGEN--\":17300:17302   */\n      0x40\n        /* \"--CODEGEN--\":17289:17298   */\n      dup4\n        /* \"--CODEGEN--\":17285:17303   */\n      add\n        /* \"--CODEGEN--\":17276:17282   */\n      dup8\n        /* \"--CODEGEN--\":17232:17304   */\n      jump(tag_385)\n    tag_482:\n        /* \"--CODEGEN--\":17315:17387   */\n      tag_483\n        /* \"--CODEGEN--\":17383:17385   */\n      0x60\n        /* \"--CODEGEN--\":17372:17381   */\n      dup4\n        /* \"--CODEGEN--\":17368:17386   */\n      add\n        /* \"--CODEGEN--\":17359:17365   */\n      dup7\n        /* \"--CODEGEN--\":17315:17387   */\n      jump(tag_391)\n    tag_483:\n        /* \"--CODEGEN--\":17398:17471   */\n      tag_484\n        /* \"--CODEGEN--\":17466:17469   */\n      0x80\n        /* \"--CODEGEN--\":17455:17464   */\n      dup4\n        /* \"--CODEGEN--\":17451:17470   */\n      add\n        /* \"--CODEGEN--\":17442:17448   */\n      dup6\n        /* \"--CODEGEN--\":17398:17471   */\n      jump(tag_391)\n    tag_484:\n        /* \"--CODEGEN--\":17482:17555   */\n      tag_485\n        /* \"--CODEGEN--\":17550:17553   */\n      0xa0\n        /* \"--CODEGEN--\":17539:17548   */\n      dup4\n        /* \"--CODEGEN--\":17535:17554   */\n      add\n        /* \"--CODEGEN--\":17526:17532   */\n      dup5\n        /* \"--CODEGEN--\":17482:17555   */\n      jump(tag_391)\n    tag_485:\n        /* \"--CODEGEN--\":17023:17565   */\n      swap8\n      swap7\n      pop\n      pop\n      pop\n      pop\n      pop\n      pop\n      pop\n      jump\n        /* \"--CODEGEN--\":17572:18119   */\n    tag_226:\n        /* \"--CODEGEN--\":17774:17777   */\n      0x80\n        /* \"--CODEGEN--\":17759:17778   */\n      dup2\n      add\n        /* \"--CODEGEN--\":17789:17860   */\n      tag_486\n        /* \"--CODEGEN--\":17763:17772   */\n      dup3\n        /* \"--CODEGEN--\":17833:17839   */\n      dup8\n        /* \"--CODEGEN--\":17789:17860   */\n      jump(tag_391)\n    tag_486:\n        /* \"--CODEGEN--\":17871:17943   */\n      tag_487\n        /* \"--CODEGEN--\":17939:17941   */\n      0x20\n        /* \"--CODEGEN--\":17928:17937   */\n      dup4\n        /* \"--CODEGEN--\":17924:17942   */\n      add\n        /* \"--CODEGEN--\":17915:17921   */\n      dup7\n        /* \"--CODEGEN--\":17871:17943   */\n      jump(tag_385)\n    tag_487:\n        /* \"--CODEGEN--\":17954:18026   */\n      tag_488\n        /* \"--CODEGEN--\":18022:18024   */\n      0x40\n        /* \"--CODEGEN--\":18011:18020   */\n      dup4\n        /* \"--CODEGEN--\":18007:18025   */\n      add\n        /* \"--CODEGEN--\":17998:18004   */\n      dup6\n        /* \"--CODEGEN--\":17954:18026   */\n      jump(tag_391)\n    tag_488:\n        /* \"--CODEGEN--\":18037:18109   */\n      tag_489\n        /* \"--CODEGEN--\":18105:18107   */\n      0x60\n        /* \"--CODEGEN--\":18094:18103   */\n      dup4\n        /* \"--CODEGEN--\":18090:18108   */\n      add\n        /* \"--CODEGEN--\":18081:18087   */\n      dup5\n        /* \"--CODEGEN--\":18037:18109   */\n      jump(tag_391)\n    tag_489:\n        /* \"--CODEGEN--\":17745:18119   */\n      swap6\n      swap5\n      pop\n      pop\n      pop\n      pop\n      pop\n      jump\n        /* \"--CODEGEN--\":18126:18673   */\n    tag_222:\n        /* \"--CODEGEN--\":18328:18331   */\n      0x80\n        /* \"--CODEGEN--\":18313:18332   */\n      dup2\n      add\n        /* \"--CODEGEN--\":18343:18414   */\n      tag_490\n        /* \"--CODEGEN--\":18317:18326   */\n      dup3\n        /* \"--CODEGEN--\":18387:18393   */\n      dup8\n        /* \"--CODEGEN--\":18343:18414   */\n      jump(tag_391)\n    tag_490:\n        /* \"--CODEGEN--\":18425:18497   */\n      tag_491\n        /* \"--CODEGEN--\":18493:18495   */\n      0x20\n        /* \"--CODEGEN--\":18482:18491   */\n      dup4\n        /* \"--CODEGEN--\":18478:18496   */\n      add\n        /* \"--CODEGEN--\":18469:18475   */\n      dup7\n        /* \"--CODEGEN--\":18425:18497   */\n      jump(tag_391)\n    tag_491:\n        /* \"--CODEGEN--\":18508:18580   */\n      tag_492\n        /* \"--CODEGEN--\":18576:18578   */\n      0x40\n        /* \"--CODEGEN--\":18565:18574   */\n      dup4\n        /* \"--CODEGEN--\":18561:18579   */\n      add\n        /* \"--CODEGEN--\":18552:18558   */\n      dup6\n        /* \"--CODEGEN--\":18508:18580   */\n      jump(tag_391)\n    tag_492:\n        /* \"--CODEGEN--\":18591:18663   */\n      tag_489\n        /* \"--CODEGEN--\":18659:18661   */\n      0x60\n        /* \"--CODEGEN--\":18648:18657   */\n      dup4\n        /* \"--CODEGEN--\":18644:18662   */\n      add\n        /* \"--CODEGEN--\":18635:18641   */\n      dup5\n        /* \"--CODEGEN--\":18591:18663   */\n      jump(tag_385)\n        /* \"--CODEGEN--\":18680:19219   */\n    tag_230:\n        /* \"--CODEGEN--\":18878:18881   */\n      0x80\n        /* \"--CODEGEN--\":18863:18882   */\n      dup2\n      add\n        /* \"--CODEGEN--\":18893:18964   */\n      tag_494\n        /* \"--CODEGEN--\":18867:18876   */\n      dup3\n        /* \"--CODEGEN--\":18937:18943   */\n      dup8\n        /* \"--CODEGEN--\":18893:18964   */\n      jump(tag_391)\n    tag_494:\n        /* \"--CODEGEN--\":18975:19043   */\n      tag_487\n        /* \"--CODEGEN--\":19039:19041   */\n      0x20\n        /* \"--CODEGEN--\":19028:19037   */\n      dup4\n        /* \"--CODEGEN--\":19024:19042   */\n      add\n        /* \"--CODEGEN--\":19015:19021   */\n      dup7\n        /* \"--CODEGEN--\":18975:19043   */\n      jump(tag_460)\n        /* \"--CODEGEN--\":19226:19519   */\n    tag_39:\n        /* \"--CODEGEN--\":19360:19362   */\n      0x20\n        /* \"--CODEGEN--\":19374:19421   */\n      dup1\n      dup3\n      mstore\n        /* \"--CODEGEN--\":19345:19363   */\n      dup2\n      add\n        /* \"--CODEGEN--\":19435:19509   */\n      tag_153\n        /* \"--CODEGEN--\":19345:19363   */\n      dup2\n        /* \"--CODEGEN--\":19495:19501   */\n      dup5\n        /* \"--CODEGEN--\":19435:19509   */\n      jump(tag_398)\n        /* \"--CODEGEN--\":19834:20241   */\n    tag_240:\n        /* \"--CODEGEN--\":20025:20027   */\n      0x20\n        /* \"--CODEGEN--\":20039:20086   */\n      dup1\n      dup3\n      mstore\n        /* \"--CODEGEN--\":20010:20028   */\n      dup2\n      add\n        /* \"--CODEGEN--\":20100:20231   */\n      tag_144\n        /* \"--CODEGEN--\":20010:20028   */\n      dup2\n        /* \"--CODEGEN--\":20100:20231   */\n      jump(tag_413)\n        /* \"--CODEGEN--\":20248:20655   */\n    tag_294:\n        /* \"--CODEGEN--\":20439:20441   */\n      0x20\n        /* \"--CODEGEN--\":20453:20500   */\n      dup1\n      dup3\n      mstore\n        /* \"--CODEGEN--\":20424:20442   */\n      dup2\n      add\n        /* \"--CODEGEN--\":20514:20645   */\n      tag_144\n        /* \"--CODEGEN--\":20424:20442   */\n      dup2\n        /* \"--CODEGEN--\":20514:20645   */\n      jump(tag_418)\n        /* \"--CODEGEN--\":20662:21069   */\n    tag_234:\n        /* \"--CODEGEN--\":20853:20855   */\n      0x20\n        /* \"--CODEGEN--\":20867:20914   */\n      dup1\n      dup3\n      mstore\n        /* \"--CODEGEN--\":20838:20856   */\n      dup2\n      add\n        /* \"--CODEGEN--\":20928:21059   */\n      tag_144\n        /* \"--CODEGEN--\":20838:20856   */\n      dup2\n        /* \"--CODEGEN--\":20928:21059   */\n      jump(tag_420)\n        /* \"--CODEGEN--\":21076:21483   */\n    tag_198:\n        /* \"--CODEGEN--\":21267:21269   */\n      0x20\n        /* \"--CODEGEN--\":21281:21328   */\n      dup1\n      dup3\n      mstore\n        /* \"--CODEGEN--\":21252:21270   */\n      dup2\n      add\n        /* \"--CODEGEN--\":21342:21473   */\n      tag_144\n        /* \"--CODEGEN--\":21252:21270   */\n      dup2\n        /* \"--CODEGEN--\":21342:21473   */\n      jump(tag_422)\n        /* \"--CODEGEN--\":21490:21897   */\n    tag_173:\n        /* \"--CODEGEN--\":21681:21683   */\n      0x20\n        /* \"--CODEGEN--\":21695:21742   */\n      dup1\n      dup3\n      mstore\n        /* \"--CODEGEN--\":21666:21684   */\n      dup2\n      add\n        /* \"--CODEGEN--\":21756:21887   */\n      tag_144\n        /* \"--CODEGEN--\":21666:21684   */\n      dup2\n        /* \"--CODEGEN--\":21756:21887   */\n      jump(tag_424)\n        /* \"--CODEGEN--\":21904:22311   */\n    tag_170:\n        /* \"--CODEGEN--\":22095:22097   */\n      0x20\n        /* \"--CODEGEN--\":22109:22156   */\n      dup1\n      dup3\n      mstore\n        /* \"--CODEGEN--\":22080:22098   */\n      dup2\n      add\n        /* \"--CODEGEN--\":22170:22301   */\n      tag_144\n        /* \"--CODEGEN--\":22080:22098   */\n      dup2\n        /* \"--CODEGEN--\":22170:22301   */\n      jump(tag_428)\n        /* \"--CODEGEN--\":22318:22725   */\n    tag_286:\n        /* \"--CODEGEN--\":22509:22511   */\n      0x20\n        /* \"--CODEGEN--\":22523:22570   */\n      dup1\n      dup3\n      mstore\n        /* \"--CODEGEN--\":22494:22512   */\n      dup2\n      add\n        /* \"--CODEGEN--\":22584:22715   */\n      tag_144\n        /* \"--CODEGEN--\":22494:22512   */\n      dup2\n        /* \"--CODEGEN--\":22584:22715   */\n      jump(tag_432)\n        /* \"--CODEGEN--\":22732:23139   */\n    tag_300:\n        /* \"--CODEGEN--\":22923:22925   */\n      0x20\n        /* \"--CODEGEN--\":22937:22984   */\n      dup1\n      dup3\n      mstore\n        /* \"--CODEGEN--\":22908:22926   */\n      dup2\n      add\n        /* \"--CODEGEN--\":22998:23129   */\n      tag_144\n        /* \"--CODEGEN--\":22908:22926   */\n      dup2\n        /* \"--CODEGEN--\":22998:23129   */\n      jump(tag_434)\n        /* \"--CODEGEN--\":23146:23553   */\n    tag_183:\n        /* \"--CODEGEN--\":23337:23339   */\n      0x20\n        /* \"--CODEGEN--\":23351:23398   */\n      dup1\n      dup3\n      mstore\n        /* \"--CODEGEN--\":23322:23340   */\n      dup2\n      add\n        /* \"--CODEGEN--\":23412:23543   */\n      tag_144\n        /* \"--CODEGEN--\":23322:23340   */\n      dup2\n        /* \"--CODEGEN--\":23412:23543   */\n      jump(tag_436)\n        /* \"--CODEGEN--\":23560:23967   */\n    tag_167:\n        /* \"--CODEGEN--\":23751:23753   */\n      0x20\n        /* \"--CODEGEN--\":23765:23812   */\n      dup1\n      dup3\n      mstore\n        /* \"--CODEGEN--\":23736:23754   */\n      dup2\n      add\n        /* \"--CODEGEN--\":23826:23957   */\n      tag_144\n        /* \"--CODEGEN--\":23736:23754   */\n      dup2\n        /* \"--CODEGEN--\":23826:23957   */\n      jump(tag_438)\n        /* \"--CODEGEN--\":23974:24381   */\n    tag_270:\n        /* \"--CODEGEN--\":24165:24167   */\n      0x20\n        /* \"--CODEGEN--\":24179:24226   */\n      dup1\n      dup3\n      mstore\n        /* \"--CODEGEN--\":24150:24168   */\n      dup2\n      add\n        /* \"--CODEGEN--\":24240:24371   */\n      tag_144\n        /* \"--CODEGEN--\":24150:24168   */\n      dup2\n        /* \"--CODEGEN--\":24240:24371   */\n      jump(tag_440)\n        /* \"--CODEGEN--\":24388:24795   */\n    tag_237:\n        /* \"--CODEGEN--\":24579:24581   */\n      0x20\n        /* \"--CODEGEN--\":24593:24640   */\n      dup1\n      dup3\n      mstore\n        /* \"--CODEGEN--\":24564:24582   */\n      dup2\n      add\n        /* \"--CODEGEN--\":24654:24785   */\n      tag_144\n        /* \"--CODEGEN--\":24564:24582   */\n      dup2\n        /* \"--CODEGEN--\":24654:24785   */\n      jump(tag_442)\n        /* \"--CODEGEN--\":24802:25209   */\n    tag_283:\n        /* \"--CODEGEN--\":24993:24995   */\n      0x20\n        /* \"--CODEGEN--\":25007:25054   */\n      dup1\n      dup3\n      mstore\n        /* \"--CODEGEN--\":24978:24996   */\n      dup2\n      add\n        /* \"--CODEGEN--\":25068:25199   */\n      tag_144\n        /* \"--CODEGEN--\":24978:24996   */\n      dup2\n        /* \"--CODEGEN--\":25068:25199   */\n      jump(tag_444)\n        /* \"--CODEGEN--\":25216:25623   */\n    tag_263:\n        /* \"--CODEGEN--\":25407:25409   */\n      0x20\n        /* \"--CODEGEN--\":25421:25468   */\n      dup1\n      dup3\n      mstore\n        /* \"--CODEGEN--\":25392:25410   */\n      dup2\n      add\n        /* \"--CODEGEN--\":25482:25613   */\n      tag_144\n        /* \"--CODEGEN--\":25392:25410   */\n      dup2\n        /* \"--CODEGEN--\":25482:25613   */\n      jump(tag_446)\n        /* \"--CODEGEN--\":25630:26037   */\n    tag_257:\n        /* \"--CODEGEN--\":25821:25823   */\n      0x20\n        /* \"--CODEGEN--\":25835:25882   */\n      dup1\n      dup3\n      mstore\n        /* \"--CODEGEN--\":25806:25824   */\n      dup2\n      add\n        /* \"--CODEGEN--\":25896:26027   */\n      tag_144\n        /* \"--CODEGEN--\":25806:25824   */\n      dup2\n        /* \"--CODEGEN--\":25896:26027   */\n      jump(tag_450)\n        /* \"--CODEGEN--\":26044:26451   */\n    tag_260:\n        /* \"--CODEGEN--\":26235:26237   */\n      0x20\n        /* \"--CODEGEN--\":26249:26296   */\n      dup1\n      dup3\n      mstore\n        /* \"--CODEGEN--\":26220:26238   */\n      dup2\n      add\n        /* \"--CODEGEN--\":26310:26441   */\n      tag_144\n        /* \"--CODEGEN--\":26220:26238   */\n      dup2\n        /* \"--CODEGEN--\":26310:26441   */\n      jump(tag_452)\n        /* \"--CODEGEN--\":26678:26887   */\n    tag_84:\n        /* \"--CODEGEN--\":26794:26796   */\n      0x20\n        /* \"--CODEGEN--\":26779:26797   */\n      dup2\n      add\n        /* \"--CODEGEN--\":26808:26877   */\n      tag_144\n        /* \"--CODEGEN--\":26783:26792   */\n      dup3\n        /* \"--CODEGEN--\":26850:26856   */\n      dup5\n        /* \"--CODEGEN--\":26808:26877   */\n      jump(tag_457)\n        /* \"--CODEGEN--\":26894:27210   */\n    tag_140:\n        /* \"--CODEGEN--\":27036:27038   */\n      0x40\n        /* \"--CODEGEN--\":27021:27039   */\n      dup2\n      add\n        /* \"--CODEGEN--\":27050:27119   */\n      tag_518\n        /* \"--CODEGEN--\":27025:27034   */\n      dup3\n        /* \"--CODEGEN--\":27092:27098   */\n      dup6\n        /* \"--CODEGEN--\":27050:27119   */\n      jump(tag_457)\n    tag_518:\n        /* \"--CODEGEN--\":27130:27200   */\n      tag_153\n        /* \"--CODEGEN--\":27196:27198   */\n      0x20\n        /* \"--CODEGEN--\":27185:27194   */\n      dup4\n        /* \"--CODEGEN--\":27181:27199   */\n      add\n        /* \"--CODEGEN--\":27172:27178   */\n      dup5\n        /* \"--CODEGEN--\":27130:27200   */\n      jump(tag_466)\n        /* \"--CODEGEN--\":27217:27422   */\n    tag_72:\n        /* \"--CODEGEN--\":27331:27333   */\n      0x20\n        /* \"--CODEGEN--\":27316:27334   */\n      dup2\n      add\n        /* \"--CODEGEN--\":27345:27412   */\n      tag_144\n        /* \"--CODEGEN--\":27320:27329   */\n      dup3\n        /* \"--CODEGEN--\":27385:27391   */\n      dup5\n        /* \"--CODEGEN--\":27345:27412   */\n      jump(tag_460)\n        /* \"--CODEGEN--\":27429:27640   */\n    tag_150:\n        /* \"--CODEGEN--\":27546:27548   */\n      0x20\n        /* \"--CODEGEN--\":27531:27549   */\n      dup2\n      add\n        /* \"--CODEGEN--\":27560:27630   */\n      tag_144\n        /* \"--CODEGEN--\":27535:27544   */\n      dup3\n        /* \"--CODEGEN--\":27603:27609   */\n      dup5\n        /* \"--CODEGEN--\":27560:27630   */\n      jump(tag_463)\n        /* \"--CODEGEN--\":27647:27856   */\n    tag_103:\n        /* \"--CODEGEN--\":27763:27765   */\n      0x20\n        /* \"--CODEGEN--\":27748:27766   */\n      dup2\n      add\n        /* \"--CODEGEN--\":27777:27846   */\n      tag_144\n        /* \"--CODEGEN--\":27752:27761   */\n      dup3\n        /* \"--CODEGEN--\":27819:27825   */\n      dup5\n        /* \"--CODEGEN--\":27777:27846   */\n      jump(tag_466)\n        /* \"--CODEGEN--\":27863:28183   */\n    tag_335:\n        /* \"--CODEGEN--\":28007:28009   */\n      0x40\n        /* \"--CODEGEN--\":27992:28010   */\n      dup2\n      add\n        /* \"--CODEGEN--\":28021:28091   */\n      tag_523\n        /* \"--CODEGEN--\":27996:28005   */\n      dup3\n        /* \"--CODEGEN--\":28064:28070   */\n      dup6\n        /* \"--CODEGEN--\":28021:28091   */\n      jump(tag_463)\n    tag_523:\n        /* \"--CODEGEN--\":28102:28173   */\n      tag_153\n        /* \"--CODEGEN--\":28169:28171   */\n      0x20\n        /* \"--CODEGEN--\":28158:28167   */\n      dup4\n        /* \"--CODEGEN--\":28154:28172   */\n      add\n        /* \"--CODEGEN--\":28145:28151   */\n      dup5\n        /* \"--CODEGEN--\":28102:28173   */\n      jump(tag_463)\n        /* \"--CODEGEN--\":28190:28308   */\n    tag_409:\n        /* \"--CODEGEN--\":28274:28286   */\n      mload\n      swap1\n        /* \"--CODEGEN--\":28245:28308   */\n      jump\n        /* \"--CODEGEN--\":28445:28608   */\n    tag_402:\n        /* \"--CODEGEN--\":28548:28567   */\n      swap1\n      dup2\n      mstore\n        /* \"--CODEGEN--\":28597:28601   */\n      0x20\n        /* \"--CODEGEN--\":28588:28602   */\n      add\n      swap1\n        /* \"--CODEGEN--\":28541:28608   */\n      jump\n        /* \"--CODEGEN--\":28617:28762   */\n    tag_417:\n        /* \"--CODEGEN--\":28753:28756   */\n      swap2\n        /* \"--CODEGEN--\":28731:28762   */\n      swap1\n      pop\n      jump\n        /* \"--CODEGEN--\":28770:28861   */\n    tag_387:\n      0x00\n        /* \"--CODEGEN--\":28832:28856   */\n      tag_144\n        /* \"--CODEGEN--\":28850:28855   */\n      dup3\n        /* \"--CODEGEN--\":28832:28856   */\n      jump(tag_526)\n        /* \"--CODEGEN--\":28868:28953   */\n    tag_390:\n        /* \"--CODEGEN--\":28934:28947   */\n      iszero\n        /* \"--CODEGEN--\":28927:28948   */\n      iszero\n      swap1\n        /* \"--CODEGEN--\":28910:28953   */\n      jump\n        /* \"--CODEGEN--\":28960:29032   */\n    tag_393:\n        /* \"--CODEGEN--\":29022:29027   */\n      swap1\n        /* \"--CODEGEN--\":29005:29032   */\n      jump\n        /* \"--CODEGEN--\":29039:29160   */\n    tag_526:\n      sub(shl(0xa0, 0x01), 0x01)\n        /* \"--CODEGEN--\":29101:29155   */\n      and\n      swap1\n        /* \"--CODEGEN--\":29084:29160   */\n      jump\n        /* \"--CODEGEN--\":29246:29334   */\n    tag_459:\n        /* \"--CODEGEN--\":29318:29328   */\n      0xffffffff\n        /* \"--CODEGEN--\":29307:29329   */\n      and\n      swap1\n        /* \"--CODEGEN--\":29290:29334   */\n      jump\n        /* \"--CODEGEN--\":29341:29422   */\n    tag_462:\n        /* \"--CODEGEN--\":29412:29416   */\n      0xff\n        /* \"--CODEGEN--\":29401:29417   */\n      and\n      swap1\n        /* \"--CODEGEN--\":29384:29422   */\n      jump\n        /* \"--CODEGEN--\":29429:29533   */\n    tag_468:\n      sub(shl(0x60, 0x01), 0x01)\n        /* \"--CODEGEN--\":29490:29528   */\n      and\n      swap1\n        /* \"--CODEGEN--\":29473:29533   */\n      jump\n        /* \"--CODEGEN--\":29540:29646   */\n    tag_465:\n      0x00\n        /* \"--CODEGEN--\":29618:29641   */\n      tag_144\n        /* \"--CODEGEN--\":29635:29640   */\n      dup3\n        /* \"--CODEGEN--\":29618:29641   */\n      jump(tag_468)\n        /* \"--CODEGEN--\":29654:29922   */\n    tag_404:\n        /* \"--CODEGEN--\":29719:29720   */\n      0x00\n        /* \"--CODEGEN--\":29726:29827   */\n    tag_528:\n        /* \"--CODEGEN--\":29740:29746   */\n      dup4\n        /* \"--CODEGEN--\":29737:29738   */\n      dup2\n        /* \"--CODEGEN--\":29734:29747   */\n      lt\n        /* \"--CODEGEN--\":29726:29827   */\n      iszero\n      tag_530\n      jumpi\n        /* \"--CODEGEN--\":29807:29818   */\n      dup2\n      dup2\n      add\n        /* \"--CODEGEN--\":29801:29819   */\n      mload\n        /* \"--CODEGEN--\":29788:29799   */\n      dup4\n      dup3\n      add\n        /* \"--CODEGEN--\":29781:29820   */\n      mstore\n        /* \"--CODEGEN--\":29762:29764   */\n      0x20\n        /* \"--CODEGEN--\":29755:29765   */\n      add\n        /* \"--CODEGEN--\":29726:29827   */\n      jump(tag_528)\n    tag_530:\n        /* \"--CODEGEN--\":29842:29848   */\n      dup4\n        /* \"--CODEGEN--\":29839:29840   */\n      dup2\n        /* \"--CODEGEN--\":29836:29849   */\n      gt\n        /* \"--CODEGEN--\":29833:29835   */\n      iszero\n      tag_322\n      jumpi\n      pop\n      pop\n        /* \"--CODEGEN--\":29907:29908   */\n      0x00\n        /* \"--CODEGEN--\":29889:29905   */\n      swap2\n      add\n        /* \"--CODEGEN--\":29882:29909   */\n      mstore\n        /* \"--CODEGEN--\":29703:29922   */\n      jump\n        /* \"--CODEGEN--\":30011:30108   */\n    tag_406:\n        /* \"--CODEGEN--\":30099:30101   */\n      0x1f\n        /* \"--CODEGEN--\":30079:30093   */\n      add\n      not(0x1f)\n        /* \"--CODEGEN--\":30075:30103   */\n      and\n      swap1\n        /* \"--CODEGEN--\":30059:30108   */\n      jump\n        /* \"--CODEGEN--\":30116:30233   */\n    tag_342:\n        /* \"--CODEGEN--\":30185:30209   */\n      tag_532\n        /* \"--CODEGEN--\":30203:30208   */\n      dup2\n        /* \"--CODEGEN--\":30185:30209   */\n      jump(tag_387)\n    tag_532:\n        /* \"--CODEGEN--\":30178:30183   */\n      dup2\n        /* \"--CODEGEN--\":30175:30210   */\n      eq\n        /* \"--CODEGEN--\":30165:30167   */\n      tag_192\n      jumpi\n        /* \"--CODEGEN--\":30224:30225   */\n      0x00\n        /* \"--CODEGEN--\":30221:30222   */\n      dup1\n        /* \"--CODEGEN--\":30214:30226   */\n      revert\n        /* \"--CODEGEN--\":30240:30357   */\n    tag_345:\n        /* \"--CODEGEN--\":30309:30333   */\n      tag_532\n        /* \"--CODEGEN--\":30327:30332   */\n      dup2\n        /* \"--CODEGEN--\":30309:30333   */\n      jump(tag_393)\n        /* \"--CODEGEN--\":30488:30603   */\n    tag_351:\n        /* \"--CODEGEN--\":30556:30579   */\n      tag_532\n        /* \"--CODEGEN--\":30573:30578   */\n      dup2\n        /* \"--CODEGEN--\":30556:30579   */\n      jump(tag_459)\n        /* \"--CODEGEN--\":30610:30723   */\n    tag_354:\n        /* \"--CODEGEN--\":30677:30699   */\n      tag_532\n        /* \"--CODEGEN--\":30693:30698   */\n      dup2\n        /* \"--CODEGEN--\":30677:30699   */\n      jump(tag_462)\n    stop\n    data_0ab5eae08d50cc345c58c2d7d67f9034a98d0a88dd540314c408c39a8dcec01d 556e693a3a6d696e743a207472616e7366657220616d6f756e74206f766572666c6f7773\n    data_136758788d48ec4d9744ba8c2136a9c9406d6c92cd4a81eff0de4942b636db13 556e693a3a7472616e7366657246726f6d3a207472616e7366657220616d6f756e742065786365656473207370656e64657220616c6c6f77616e6365\n    data_1ef2347f5dbb97e8eb7bc1442a128a1c6e65386b013257fe2b8ad95aaaa96ab8 556e693a3a6d696e743a20746f74616c537570706c7920657863656564732039362062697473\n    data_3230ba2cb739b33589720b8a5892642694535e935234939514431ff16907d24a 556e693a3a5f7472616e73666572546f6b656e733a207472616e7366657220616d6f756e7420657863656564732062616c616e6365\n    data_58da0b91010307ee6a63257c5283618928105e355857d8f79cf7e017ad7082f4 556e693a3a7065726d69743a20616d6f756e7420657863656564732039362062697473\n    data_5c6c891434a3c5951db59f5fe43d566b04bf54e07bc444b7f9f72601e608dc42 556e693a3a5f6d6f7665566f7465733a20766f746520616d6f756e74206f766572666c6f7773\n    data_66157ef8d926a3327823fecd4ce53edfcb6533c37c90dc98acfb91e4f2854725 556e693a3a5f7772697465436865636b706f696e743a20626c6f636b206e756d62657220657863656564732033322062697473\n    data_8f9e8e1e6816d4a772d233c08b8292a576126f7dbd1d9b7cd30ef07f7c3d78d2 556e693a3a5f6d6f7665566f7465733a20766f746520616d6f756e7420756e646572666c6f7773\n    data_9bc67db7413f33b8f7a9995149809b7b3a4a83b5ba884084bea06cfb35986555 556e693a3a7472616e736665723a20616d6f756e7420657863656564732039362062697473\n    data_bcb6733e7ac2aee3c3602ee664d4b3cb251e429df5c7e9148d412d0b60f07b16 556e693a3a6d696e743a20616d6f756e7420657863656564732039362062697473\n    data_cb3e128da7f3f16c83a901cce3ab145c66bad45a0cd648091fecc9964ebf42fe 556e693a3a617070726f76653a20616d6f756e7420657863656564732039362062697473\n    data_f838ee8b15c3d07740bb9b304b8146ec63bb435a7703825b5e6424ee2072674a 556e693a3a5f7472616e73666572546f6b656e733a207472616e7366657220616d6f756e74206f766572666c6f7773\n\n    auxdata: 0xa365627a7a72315820b228f14032f179f6e81f367b78ff3ff6cdc127c0f42b53f91c18ec8ff8135cbe6c6578706572696d656e74616cf564736f6c63430005110040\n}\n",
				"bytecode": {
					"linkReferences": {},
					"object": "60806040526b033b2e3c9fd0803ce80000006000553480156200002157600080fd5b5060405162002a5138038062002a51833981016040819052620000449162000171565b42811015620000705760405162461bcd60e51b8152600401620000679062000273565b60405180910390fd5b600080546001600160a01b0385168083526004602052604080842080546001600160601b0319166001600160601b0390941693909317909255825491519092917fddf252ad1be2c89b69c2b068fc378daa952ba7f163c4a11628f55a4df523b3ef91620000de919062000285565b60405180910390a3600180546001600160a01b0319166001600160a01b0384811691909117918290556040517f3b0007eb941cf645526cbb3a4fdaecda9d28ce4843167d9263b536a1f1edc0f6926200013d926000929116906200024d565b60405180910390a160025550620002ec9050565b80516200015e81620002c7565b92915050565b80516200015e81620002e1565b6000806000606084860312156200018757600080fd5b600062000195868662000151565b9350506020620001a88682870162000151565b9250506040620001bb8682870162000164565b9150509250925092565b620001d081620002b3565b82525050565b620001d0816200029e565b6000620001f060398362000295565b7f556e693a3a636f6e7374727563746f723a206d696e74696e672063616e206f6e81527f6c7920626567696e206166746572206465706c6f796d656e7400000000000000602082015260400192915050565b620001d081620002b0565b604081016200025d8285620001c5565b6200026c6020830184620001d6565b9392505050565b602080825281016200015e81620001e1565b602081016200015e828462000242565b90815260200190565b60006001600160a01b0382166200015e565b90565b60006200015e8260006200015e826200029e565b620002d2816200029e565b8114620002de57600080fd5b50565b620002d281620002b0565b61275580620002fc6000396000f3fe608060405234801561001057600080fd5b50600436106101a95760003560e01c80636fcfff45116100f9578063b4b5ea5711610097578063dd62ed3e11610071578063dd62ed3e1461035b578063e7a324dc1461036e578063f1127ed814610376578063fca3b5aa14610397576101a9565b8063b4b5ea5714610322578063c3cda52014610335578063d505accf14610348576101a9565b8063782d6fe1116100d3578063782d6fe1146102d45780637ecebe00146102f457806395d89b4114610307578063a9059cbb1461030f576101a9565b80636fcfff45146102a657806370a08231146102b957806376c71ca1146102cc576101a9565b806330adf81f1161016657806340c10f191161014057806340c10f1914610256578063587cde1e1461026b5780635c11d62f1461027e5780635c19a95c14610293576101a9565b806330adf81f1461023157806330b36cef14610239578063313ce56714610241576101a9565b806306fdde03146101ae57806307546172146101cc578063095ea7b3146101e157806318160ddd1461020157806320606b701461021657806323b872dd1461021e575b600080fd5b6101b66103aa565b6040516101c391906122e0565b60405180910390f35b6101d46103cd565b6040516101c391906121b3565b6101f46101ef366004611a1b565b6103dc565b6040516101c391906121dc565b61020961049b565b6040516101c391906121ea565b6102096104a1565b6101f461022c366004611932565b6104b8565b610209610601565b61020961060d565b610249610613565b6040516101c3919061241a565b610269610264366004611a1b565b610618565b005b6101d46102793660046118d2565b610833565b61028661084e565b6040516101c391906123f1565b6102696102a13660046118d2565b610856565b6102866102b43660046118d2565b610863565b6102096102c73660046118d2565b61087b565b61024961089f565b6102e76102e2366004611a1b565b6108a4565b6040516101c39190612436565b6102096103023660046118d2565b610ab2565b6101b6610ac4565b6101f461031d366004611a1b565b610ae3565b6102e76103303660046118d2565b610b1f565b610269610343366004611a4b565b610b8f565b61026961035636600461197f565b610d78565b6102096103693660046118f8565b611063565b610209611097565b610389610384366004611ad2565b6110a3565b6040516101c39291906123ff565b6102696103a53660046118d2565b6110d8565b604051806040016040528060078152602001660556e69737761760cc1b81525081565b6001546001600160a01b031681565b6000806000198314156103f25750600019610417565b610414836040518060600160405280602481526020016126c06024913961116b565b90505b3360008181526003602090815260408083206001600160a01b03891680855292529182902080546001600160601b0319166001600160601b03861617905590519091907f8c5be1e5ebec7d5bd14f71427d1e84f3dd0314c0f7b2291e5b200ac8c7c3b92590610487908590612428565b60405180910390a360019150505b92915050565b60005481565b6040516104ad9061219d565b604051809103902081565b6001600160a01b03831660009081526003602090815260408083203380855290835281842054825160608101909352602480845291936001600160601b0390911692859261051092889291906126c09083013961116b565b9050866001600160a01b0316836001600160a01b03161415801561053d57506001600160601b0382811614155b156105e757600061056783836040518060600160405280603c8152602001612540603c913961119a565b6001600160a01b038981166000818152600360209081526040808320948a16808452949091529081902080546001600160601b0319166001600160601b0386161790555192935090917f8c5be1e5ebec7d5bd14f71427d1e84f3dd0314c0f7b2291e5b200ac8c7c3b925906105dd908590612428565b60405180910390a3505b6105f28787836111d9565b600193505050505b9392505050565b6040516104ad90612192565b60025481565b601281565b6001546001600160a01b0316331461064b5760405162461bcd60e51b815260040161064290612381565b60405180910390fd5b60025442101561066d5760405162461bcd60e51b815260040161064290612341565b6001600160a01b0382166106935760405162461bcd60e51b815260040161064290612331565b6106a1426301e1338061137f565b60028190555060006106cb8260405180606001604052806021815260200161269f6021913961116b565b90506106e76106e0600054600260ff166113a4565b60646113de565b816001600160601b0316111561070f5760405162461bcd60e51b815260040161064290612371565b610745610727600054836001600160601b031661137f565b60405180606001604052806026815260200161257c6026913961116b565b6001600160601b0390811660009081556001600160a01b038516815260046020908152604091829020548251606081019093526024808452610797949190911692859290919061251c90830139611420565b6001600160a01b03841660008181526004602052604080822080546001600160601b0319166001600160601b03959095169490941790935591519091907fddf252ad1be2c89b69c2b068fc378daa952ba7f163c4a11628f55a4df523b3ef90610801908590612428565b60405180910390a36001600160a01b0380841660009081526005602052604081205461082e92168361145c565b505050565b6005602052600090815260409020546001600160a01b031681565b6301e1338081565b61086033826115ee565b50565b60076020526000908152604090205463ffffffff1681565b6001600160a01b03166000908152600460205260409020546001600160601b031690565b600281565b60004382106108c55760405162461bcd60e51b815260040161064290612321565b6001600160a01b03831660009081526007602052604090205463ffffffff16806108f3576000915050610495565b6001600160a01b038416600090815260066020908152604080832063ffffffff60001986018116855292529091205416831061096f576001600160a01b03841660009081526006602090815260408083206000199490940163ffffffff1683529290522054600160201b90046001600160601b03169050610495565b6001600160a01b038416600090815260066020908152604080832083805290915290205463ffffffff168310156109aa576000915050610495565b600060001982015b8163ffffffff168163ffffffff161115610a6d57600282820363ffffffff160481036109dc61188f565b506001600160a01b038716600090815260066020908152604080832063ffffffff858116855290835292819020815180830190925254928316808252600160201b9093046001600160601b03169181019190915290871415610a48576020015194506104959350505050565b805163ffffffff16871115610a5f57819350610a66565b6001820392505b50506109b2565b506001600160a01b038516600090815260066020908152604080832063ffffffff909416835292905220546001600160601b03600160201b9091041691505092915050565b60086020526000908152604090205481565b60405180604001604052806003815260200162554e4960e81b81525081565b600080610b088360405180606001604052806025815260200161267a6025913961116b565b9050610b153385836111d9565b5060019392505050565b6001600160a01b03811660009081526007602052604081205463ffffffff1680610b4a5760006105fa565b6001600160a01b0383166000908152600660209081526040808320600019850163ffffffff168452909152902054600160201b90046001600160601b03169392505050565b6000604051610b9d9061219d565b6040805191829003822082820190915260078252660556e69737761760cc1b6020909201919091527f99c45e8ee5dde061ced9c812089094fbd28a020e7e37f2851198887e5ca64985610bee611678565b30604051602001610c029493929190612290565b6040516020818303038152906040528051906020012090506000604051610c28906121a8565b604051908190038120610c43918a908a908a90602001612252565b60405160208183030381529060405280519060200120905060008282604051602001610c70929190612161565b604051602081830303815290604052805190602001209050600060018288888860405160008152602001604052604051610cad94939291906122c5565b6020604051602081039080840390855afa158015610ccf573d6000803e3d6000fd5b5050604051601f1901519150506001600160a01b038116610d025760405162461bcd60e51b815260040161064290612311565b6001600160a01b03811660009081526008602052604090208054600181019091558914610d415760405162461bcd60e51b8152600401610642906123a1565b87421115610d615760405162461bcd60e51b8152600401610642906122f1565b610d6b818b6115ee565b505050505b505050505050565b6000600019861415610d8d5750600019610db2565b610daf866040518060600160405280602381526020016125d76023913961116b565b90505b6000604051610dc09061219d565b6040805191829003822082820190915260078252660556e69737761760cc1b6020909201919091527f99c45e8ee5dde061ced9c812089094fbd28a020e7e37f2851198887e5ca64985610e11611678565b30604051602001610e259493929190612290565b6040516020818303038152906040528051906020012090506000604051610e4b90612192565b604080519182900382206001600160a01b038d16600090815260086020908152929020805460018101909155610e8d9391928e928e928e9290918e91016121f8565b60405160208183030381529060405280519060200120905060008282604051602001610eba929190612161565b604051602081830303815290604052805190602001209050600060018289898960405160008152602001604052604051610ef794939291906122c5565b6020604051602081039080840390855afa158015610f19573d6000803e3d6000fd5b5050604051601f1901519150506001600160a01b038116610f4c5760405162461bcd60e51b8152600401610642906123d1565b8b6001600160a01b0316816001600160a01b031614610f7d5760405162461bcd60e51b8152600401610642906123e1565b88421115610f9d5760405162461bcd60e51b8152600401610642906123c1565b84600360008e6001600160a01b03166001600160a01b0316815260200190815260200160002060008d6001600160a01b03166001600160a01b0316815260200190815260200160002060006101000a8154816001600160601b0302191690836001600160601b031602179055508a6001600160a01b03168c6001600160a01b03167f8c5be1e5ebec7d5bd14f71427d1e84f3dd0314c0f7b2291e5b200ac8c7c3b9258760405161104d9190612428565b60405180910390a3505050505050505050505050565b6001600160a01b0391821660009081526003602090815260408083209390941682529190915220546001600160601b031690565b6040516104ad906121a8565b600660209081526000928352604080842090915290825290205463ffffffff811690600160201b90046001600160601b031682565b6001546001600160a01b031633146111025760405162461bcd60e51b815260040161064290612391565b6001546040517f3b0007eb941cf645526cbb3a4fdaecda9d28ce4843167d9263b536a1f1edc0f691611141916001600160a01b039091169084906121c1565b60405180910390a1600180546001600160a01b0319166001600160a01b0392909216919091179055565b600081600160601b84106111925760405162461bcd60e51b815260040161064291906122e0565b509192915050565b6000836001600160601b0316836001600160601b0316111582906111d15760405162461bcd60e51b815260040161064291906122e0565b505050900390565b6001600160a01b0383166111ff5760405162461bcd60e51b8152600401610642906123b1565b6001600160a01b0382166112255760405162461bcd60e51b815260040161064290612351565b6001600160a01b038316600090815260046020908152604091829020548251606081019093526035808452611270936001600160601b0390921692859291906125a29083013961119a565b6001600160a01b03848116600090815260046020908152604080832080546001600160601b0319166001600160601b0396871617905592861682529082902054825160608101909352602f8084526112d894919091169285929091906126e490830139611420565b6001600160a01b038381166000818152600460205260409081902080546001600160601b0319166001600160601b0395909516949094179093559151908516907fddf252ad1be2c89b69c2b068fc378daa952ba7f163c4a11628f55a4df523b3ef90611345908590612428565b60405180910390a36001600160a01b0380841660009081526005602052604080822054858416835291205461082e9291821691168361145c565b6000828201838110156105fa5760405162461bcd60e51b815260040161064290612301565b6000826113b357506000610495565b828202828482816113c057fe5b04146105fa5760405162461bcd60e51b815260040161064290612361565b60006105fa83836040518060400160405280601a81526020017f536166654d6174683a206469766973696f6e206279207a65726f00000000000081525061167c565b6000838301826001600160601b0380871690831610156114535760405162461bcd60e51b815260040161064291906122e0565b50949350505050565b816001600160a01b0316836001600160a01b03161415801561148757506000816001600160601b0316115b1561082e576001600160a01b0383161561153f576001600160a01b03831660009081526007602052604081205463ffffffff1690816114c7576000611506565b6001600160a01b0385166000908152600660209081526040808320600019860163ffffffff168452909152902054600160201b90046001600160601b03165b9050600061152d82856040518060600160405280602781526020016126536027913961119a565b905061153b868484846116b3565b5050505b6001600160a01b0382161561082e576001600160a01b03821660009081526007602052604081205463ffffffff16908161157a5760006115b9565b6001600160a01b0384166000908152600660209081526040808320600019860163ffffffff168452909152902054600160201b90046001600160601b03165b905060006115e082856040518060600160405280602681526020016125fa60269139611420565b9050610d70858484846116b3565b6001600160a01b03808316600081815260056020818152604080842080546004845282862054949093528787166001600160a01b031984168117909155905191909516946001600160601b039092169391928592917f3134e8a2e6d97e929a7e54011ea5485d7d196dd5f0ba4d4ef95803e8e3fc257f9190a461167282848361145c565b50505050565b4690565b6000818361169d5760405162461bcd60e51b815260040161064291906122e0565b5060008385816116a957fe5b0495945050505050565b60006116d74360405180606001604052806033815260200161262060339139611868565b905060008463ffffffff1611801561172057506001600160a01b038516600090815260066020908152604080832063ffffffff6000198901811685529252909120548282169116145b1561177f576001600160a01b0385166000908152600660209081526040808320600019880163ffffffff168452909152902080546fffffffffffffffffffffffff000000001916600160201b6001600160601b0385160217905561181e565b60408051808201825263ffffffff80841682526001600160601b0380861660208085019182526001600160a01b038b166000818152600683528781208c871682528352878120965187549451909516600160201b026fffffffffffffffffffffffff000000001995871663ffffffff19958616179590951694909417909555938252600790935292909220805460018801909316929091169190911790555b846001600160a01b03167fdec2bacdd2f05b59de34da9b523dff8be42e5e38e818c82fdb0bae774387a7248484604051611859929190612444565b60405180910390a25050505050565b600081600160201b84106111925760405162461bcd60e51b815260040161064291906122e0565b604080518082019091526000808252602082015290565b8035610495816124ec565b803561049581612500565b803561049581612509565b803561049581612512565b6000602082840312156118e457600080fd5b60006118f084846118a6565b949350505050565b6000806040838503121561190b57600080fd5b600061191785856118a6565b9250506020611928858286016118a6565b9150509250929050565b60008060006060848603121561194757600080fd5b600061195386866118a6565b9350506020611964868287016118a6565b9250506040611975868287016118b1565b9150509250925092565b600080600080600080600060e0888a03121561199a57600080fd5b60006119a68a8a6118a6565b97505060206119b78a828b016118a6565b96505060406119c88a828b016118b1565b95505060606119d98a828b016118b1565b94505060806119ea8a828b016118c7565b93505060a06119fb8a828b016118b1565b92505060c0611a0c8a828b016118b1565b91505092959891949750929550565b60008060408385031215611a2e57600080fd5b6000611a3a85856118a6565b9250506020611928858286016118b1565b60008060008060008060c08789031215611a6457600080fd5b6000611a7089896118a6565b9650506020611a8189828a016118b1565b9550506040611a9289828a016118b1565b9450506060611aa389828a016118c7565b9350506080611ab489828a016118b1565b92505060a0611ac589828a016118b1565b9150509295509295509295565b60008060408385031215611ae557600080fd5b6000611af185856118a6565b9250506020611928858286016118bc565b611b0b81612471565b82525050565b611b0b8161247c565b611b0b81612481565b611b0b611b2f82612481565b612481565b6000611b3f8261245f565b611b498185612463565b9350611b598185602086016124b6565b611b62816124e2565b9093019392505050565b6000611b79602583612463565b7f556e693a3a64656c656761746542795369673a207369676e61747572652065788152641c1a5c995960da1b602082015260400192915050565b6000611bc060028361246c565b61190160f01b815260020192915050565b6000611bde601b83612463565b7f536166654d6174683a206164646974696f6e206f766572666c6f770000000000815260200192915050565b6000611c17602583612463565b7f556e693a3a64656c656761746542795369673a20696e76616c6964207369676e815264617475726560d81b602082015260400192915050565b6000611c5e602683612463565b7f556e693a3a6765745072696f72566f7465733a206e6f742079657420646574658152651c9b5a5b995960d21b602082015260400192915050565b6000611ca6602e83612463565b7f556e693a3a6d696e743a2063616e6e6f74207472616e7366657220746f20746881526d65207a65726f206164647265737360901b602082015260400192915050565b6000611cf660528361246c565b7f5065726d69742861646472657373206f776e65722c616464726573732073706581527f6e6465722c75696e743235362076616c75652c75696e74323536206e6f6e63656020820152712c75696e7432353620646561646c696e652960701b604082015260520192915050565b6000611d70602283612463565b7f556e693a3a6d696e743a206d696e74696e67206e6f7420616c6c6f7765642079815261195d60f21b602082015260400192915050565b6000611db460438361246c565b7f454950373132446f6d61696e28737472696e67206e616d652c75696e7432353681527f20636861696e49642c6164647265737320766572696679696e67436f6e74726160208201526263742960e81b604082015260430192915050565b6000611e1f603983612463565b7f556e693a3a5f7472616e73666572546f6b656e733a2063616e6e6f742074726181527f6e7366657220746f20746865207a65726f206164647265737300000000000000602082015260400192915050565b6000611e7e602183612463565b7f536166654d6174683a206d756c7469706c69636174696f6e206f766572666c6f8152607760f81b602082015260400192915050565b6000611ec1601c83612463565b7f556e693a3a6d696e743a206578636565646564206d696e742063617000000000815260200192915050565b6000611efa602383612463565b7f556e693a3a6d696e743a206f6e6c7920746865206d696e7465722063616e206d8152621a5b9d60ea1b602082015260400192915050565b6000611f3f603d83612463565b7f556e693a3a7365744d696e7465723a206f6e6c7920746865206d696e7465722081527f63616e206368616e676520746865206d696e7465722061646472657373000000602082015260400192915050565b6000611f9e602183612463565b7f556e693a3a64656c656761746542795369673a20696e76616c6964206e6f6e638152606560f81b602082015260400192915050565b6000611fe1603b83612463565b7f556e693a3a5f7472616e73666572546f6b656e733a2063616e6e6f742074726181527f6e736665722066726f6d20746865207a65726f20616464726573730000000000602082015260400192915050565b6000612040601e83612463565b7f556e693a3a7065726d69743a207369676e617475726520657870697265640000815260200192915050565b6000612079603a8361246c565b7f44656c65676174696f6e28616464726573732064656c6567617465652c75696e81527f74323536206e6f6e63652c75696e7432353620657870697279290000000000006020820152603a0192915050565b60006120d8601e83612463565b7f556e693a3a7065726d69743a20696e76616c6964207369676e61747572650000815260200192915050565b6000612111601983612463565b7f556e693a3a7065726d69743a20756e617574686f72697a656400000000000000815260200192915050565b611b0b81612490565b611b0b81612499565b611b0b816124ab565b611b0b8161249f565b600061216c82611bb3565b91506121788285611b23565b6020820191506121888284611b23565b5060200192915050565b600061049582611ce9565b600061049582611da7565b60006104958261206c565b602081016104958284611b02565b604081016121cf8285611b02565b6105fa6020830184611b02565b602081016104958284611b11565b602081016104958284611b1a565b60c081016122068289611b1a565b6122136020830188611b02565b6122206040830187611b02565b61222d6060830186611b1a565b61223a6080830185611b1a565b61224760a0830184611b1a565b979650505050505050565b608081016122608287611b1a565b61226d6020830186611b02565b61227a6040830185611b1a565b6122876060830184611b1a565b95945050505050565b6080810161229e8287611b1a565b6122ab6020830186611b1a565b6122b86040830185611b1a565b6122876060830184611b02565b608081016122d38287611b1a565b61226d6020830186612146565b602080825281016105fa8184611b34565b6020808252810161049581611b6c565b6020808252810161049581611bd1565b6020808252810161049581611c0a565b6020808252810161049581611c51565b6020808252810161049581611c99565b6020808252810161049581611d63565b6020808252810161049581611e12565b6020808252810161049581611e71565b6020808252810161049581611eb4565b6020808252810161049581611eed565b6020808252810161049581611f32565b6020808252810161049581611f91565b6020808252810161049581611fd4565b6020808252810161049581612033565b60208082528101610495816120cb565b6020808252810161049581612104565b60208101610495828461213d565b6040810161240d828561213d565b6105fa6020830184612158565b602081016104958284612146565b60208101610495828461214f565b602081016104958284612158565b60408101612452828561214f565b6105fa602083018461214f565b5190565b90815260200190565b919050565b600061049582612484565b151590565b90565b6001600160a01b031690565b63ffffffff1690565b60ff1690565b6001600160601b031690565b60006104958261249f565b60005b838110156124d15781810151838201526020016124b9565b838111156116725750506000910152565b601f01601f191690565b6124f581612471565b811461086057600080fd5b6124f581612481565b6124f581612490565b6124f58161249956fe556e693a3a6d696e743a207472616e7366657220616d6f756e74206f766572666c6f7773556e693a3a7472616e7366657246726f6d3a207472616e7366657220616d6f756e742065786365656473207370656e64657220616c6c6f77616e6365556e693a3a6d696e743a20746f74616c537570706c7920657863656564732039362062697473556e693a3a5f7472616e73666572546f6b656e733a207472616e7366657220616d6f756e7420657863656564732062616c616e6365556e693a3a7065726d69743a20616d6f756e7420657863656564732039362062697473556e693a3a5f6d6f7665566f7465733a20766f746520616d6f756e74206f766572666c6f7773556e693a3a5f7772697465436865636b706f696e743a20626c6f636b206e756d62657220657863656564732033322062697473556e693a3a5f6d6f7665566f7465733a20766f746520616d6f756e7420756e646572666c6f7773556e693a3a7472616e736665723a20616d6f756e7420657863656564732039362062697473556e693a3a6d696e743a20616d6f756e7420657863656564732039362062697473556e693a3a617070726f76653a20616d6f756e7420657863656564732039362062697473556e693a3a5f7472616e73666572546f6b656e733a207472616e7366657220616d6f756e74206f766572666c6f7773a365627a7a72315820b228f14032f179f6e81f367b78ff3ff6cdc127c0f42b53f91c18ec8ff8135cbe6c6578706572696d656e74616cf564736f6c63430005110040",
					"opcodes": "PUSH1 0x80 PUSH1 0x40 MSTORE PUSH12 0x33B2E3C9FD0803CE8000000 PUSH1 0x0 SSTORE CALLVALUE DUP1 ISZERO PUSH3 0x21 JUMPI PUSH1 0x0 DUP1 REVERT JUMPDEST POP PUSH1 0x40 MLOAD PUSH3 0x2A51 CODESIZE SUB DUP1 PUSH3 0x2A51 DUP4 CODECOPY DUP2 ADD PUSH1 0x40 DUP2 SWAP1 MSTORE PUSH3 0x44 SWAP2 PUSH3 0x171 JUMP JUMPDEST TIMESTAMP DUP2 LT ISZERO PUSH3 0x70 JUMPI PUSH1 0x40 MLOAD PUSH3 0x461BCD PUSH1 0xE5 SHL DUP2 MSTORE PUSH1 0x4 ADD PUSH3 0x67 SWAP1 PUSH3 0x273 JUMP JUMPDEST PUSH1 0x40 MLOAD DUP1 SWAP2 SUB SWAP1 REVERT JUMPDEST PUSH1 0x0 DUP1 SLOAD PUSH1 0x1 PUSH1 0x1 PUSH1 0xA0 SHL SUB DUP6 AND DUP1 DUP4 MSTORE PUSH1 0x4 PUSH1 0x20 MSTORE PUSH1 0x40 DUP1 DUP5 KECCAK256 DUP1 SLOAD PUSH1 0x1 PUSH1 0x1 PUSH1 0x60 SHL SUB NOT AND PUSH1 0x1 PUSH1 0x1 PUSH1 0x60 SHL SUB SWAP1 SWAP5 AND SWAP4 SWAP1 SWAP4 OR SWAP1 SWAP3 SSTORE DUP3 SLOAD SWAP2 MLOAD SWAP1 SWAP3 SWAP2 PUSH32 0xDDF252AD1BE2C89B69C2B068FC378DAA952BA7F163C4A11628F55A4DF523B3EF SWAP2 PUSH3 0xDE SWAP2 SWAP1 PUSH3 0x285 JUMP JUMPDEST PUSH1 0x40 MLOAD DUP1 SWAP2 SUB SWAP1 LOG3 PUSH1 0x1 DUP1 SLOAD PUSH1 0x1 PUSH1 0x1 PUSH1 0xA0 SHL SUB NOT AND PUSH1 0x1 PUSH1 0x1 PUSH1 0xA0 SHL SUB DUP5 DUP2 AND SWAP2 SWAP1 SWAP2 OR SWAP2 DUP3 SWAP1 SSTORE PUSH1 0x40 MLOAD PUSH32 0x3B0007EB941CF645526CBB3A4FDAECDA9D28CE4843167D9263B536A1F1EDC0F6 SWAP3 PUSH3 0x13D SWAP3 PUSH1 0x0 SWAP3 SWAP2 AND SWAP1 PUSH3 0x24D JUMP JUMPDEST PUSH1 0x40 MLOAD DUP1 SWAP2 SUB SWAP1 LOG1 PUSH1 0x2 SSTORE POP PUSH3 0x2EC SWAP1 POP JUMP JUMPDEST DUP1 MLOAD PUSH3 0x15E DUP2 PUSH3 0x2C7 JUMP JUMPDEST SWAP3 SWAP2 POP POP JUMP JUMPDEST DUP1 MLOAD PUSH3 0x15E DUP2 PUSH3 0x2E1 JUMP JUMPDEST PUSH1 0x0 DUP1 PUSH1 0x0 PUSH1 0x60 DUP5 DUP7 SUB SLT ISZERO PUSH3 0x187 JUMPI PUSH1 0x0 DUP1 REVERT JUMPDEST PUSH1 0x0 PUSH3 0x195 DUP7 DUP7 PUSH3 0x151 JUMP JUMPDEST SWAP4 POP POP PUSH1 0x20 PUSH3 0x1A8 DUP7 DUP3 DUP8 ADD PUSH3 0x151 JUMP JUMPDEST SWAP3 POP POP PUSH1 0x40 PUSH3 0x1BB DUP7 DUP3 DUP8 ADD PUSH3 0x164 JUMP JUMPDEST SWAP2 POP POP SWAP3 POP SWAP3 POP SWAP3 JUMP JUMPDEST PUSH3 0x1D0 DUP2 PUSH3 0x2B3 JUMP JUMPDEST DUP3 MSTORE POP POP JUMP JUMPDEST PUSH3 0x1D0 DUP2 PUSH3 0x29E JUMP JUMPDEST PUSH1 0x0 PUSH3 0x1F0 PUSH1 0x39 DUP4 PUSH3 0x295 JUMP JUMPDEST PUSH32 0x556E693A3A636F6E7374727563746F723A206D696E74696E672063616E206F6E DUP2 MSTORE PUSH32 0x6C7920626567696E206166746572206465706C6F796D656E7400000000000000 PUSH1 0x20 DUP3 ADD MSTORE PUSH1 0x40 ADD SWAP3 SWAP2 POP POP JUMP JUMPDEST PUSH3 0x1D0 DUP2 PUSH3 0x2B0 JUMP JUMPDEST PUSH1 0x40 DUP2 ADD PUSH3 0x25D DUP3 DUP6 PUSH3 0x1C5 JUMP JUMPDEST PUSH3 0x26C PUSH1 0x20 DUP4 ADD DUP5 PUSH3 0x1D6 JUMP JUMPDEST SWAP4 SWAP3 POP POP POP JUMP JUMPDEST PUSH1 0x20 DUP1 DUP3 MSTORE DUP2 ADD PUSH3 0x15E DUP2 PUSH3 0x1E1 JUMP JUMPDEST PUSH1 0x20 DUP2 ADD PUSH3 0x15E DUP3 DUP5 PUSH3 0x242 JUMP JUMPDEST SWAP1 DUP2 MSTORE PUSH1 0x20 ADD SWAP1 JUMP JUMPDEST PUSH1 0x0 PUSH1 0x1 PUSH1 0x1 PUSH1 0xA0 SHL SUB DUP3 AND PUSH3 0x15E JUMP JUMPDEST SWAP1 JUMP JUMPDEST PUSH1 0x0 PUSH3 0x15E DUP3 PUSH1 0x0 PUSH3 0x15E DUP3 PUSH3 0x29E JUMP JUMPDEST PUSH3 0x2D2 DUP2 PUSH3 0x29E JUMP JUMPDEST DUP2 EQ PUSH3 0x2DE JUMPI PUSH1 0x0 DUP1 REVERT JUMPDEST POP JUMP JUMPDEST PUSH3 0x2D2 DUP2 PUSH3 0x2B0 JUMP JUMPDEST PUSH2 0x2755 DUP1 PUSH3 0x2FC PUSH1 0x0 CODECOPY PUSH1 0x0 RETURN INVALID PUSH1 0x80 PUSH1 0x40 MSTORE CALLVALUE DUP1 ISZERO PUSH2 0x10 JUMPI PUSH1 0x0 DUP1 REVERT JUMPDEST POP PUSH1 0x4 CALLDATASIZE LT PUSH2 0x1A9 JUMPI PUSH1 0x0 CALLDATALOAD PUSH1 0xE0 SHR DUP1 PUSH4 0x6FCFFF45 GT PUSH2 0xF9 JUMPI DUP1 PUSH4 0xB4B5EA57 GT PUSH2 0x97 JUMPI DUP1 PUSH4 0xDD62ED3E GT PUSH2 0x71 JUMPI DUP1 PUSH4 0xDD62ED3E EQ PUSH2 0x35B JUMPI DUP1 PUSH4 0xE7A324DC EQ PUSH2 0x36E JUMPI DUP1 PUSH4 0xF1127ED8 EQ PUSH2 0x376 JUMPI DUP1 PUSH4 0xFCA3B5AA EQ PUSH2 0x397 JUMPI PUSH2 0x1A9 JUMP JUMPDEST DUP1 PUSH4 0xB4B5EA57 EQ PUSH2 0x322 JUMPI DUP1 PUSH4 0xC3CDA520 EQ PUSH2 0x335 JUMPI DUP1 PUSH4 0xD505ACCF EQ PUSH2 0x348 JUMPI PUSH2 0x1A9 JUMP JUMPDEST DUP1 PUSH4 0x782D6FE1 GT PUSH2 0xD3 JUMPI DUP1 PUSH4 0x782D6FE1 EQ PUSH2 0x2D4 JUMPI DUP1 PUSH4 0x7ECEBE00 EQ PUSH2 0x2F4 JUMPI DUP1 PUSH4 0x95D89B41 EQ PUSH2 0x307 JUMPI DUP1 PUSH4 0xA9059CBB EQ PUSH2 0x30F JUMPI PUSH2 0x1A9 JUMP JUMPDEST DUP1 PUSH4 0x6FCFFF45 EQ PUSH2 0x2A6 JUMPI DUP1 PUSH4 0x70A08231 EQ PUSH2 0x2B9 JUMPI DUP1 PUSH4 0x76C71CA1 EQ PUSH2 0x2CC JUMPI PUSH2 0x1A9 JUMP JUMPDEST DUP1 PUSH4 0x30ADF81F GT PUSH2 0x166 JUMPI DUP1 PUSH4 0x40C10F19 GT PUSH2 0x140 JUMPI DUP1 PUSH4 0x40C10F19 EQ PUSH2 0x256 JUMPI DUP1 PUSH4 0x587CDE1E EQ PUSH2 0x26B JUMPI DUP1 PUSH4 0x5C11D62F EQ PUSH2 0x27E JUMPI DUP1 PUSH4 0x5C19A95C EQ PUSH2 0x293 JUMPI PUSH2 0x1A9 JUMP JUMPDEST DUP1 PUSH4 0x30ADF81F EQ PUSH2 0x231 JUMPI DUP1 PUSH4 0x30B36CEF EQ PUSH2 0x239 JUMPI DUP1 PUSH4 0x313CE567 EQ PUSH2 0x241 JUMPI PUSH2 0x1A9 JUMP JUMPDEST DUP1 PUSH4 0x6FDDE03 EQ PUSH2 0x1AE JUMPI DUP1 PUSH4 0x7546172 EQ PUSH2 0x1CC JUMPI DUP1 PUSH4 0x95EA7B3 EQ PUSH2 0x1E1 JUMPI DUP1 PUSH4 0x18160DDD EQ PUSH2 0x201 JUMPI DUP1 PUSH4 0x20606B70 EQ PUSH2 0x216 JUMPI DUP1 PUSH4 0x23B872DD EQ PUSH2 0x21E JUMPI JUMPDEST PUSH1 0x0 DUP1 REVERT JUMPDEST PUSH2 0x1B6 PUSH2 0x3AA JUMP JUMPDEST PUSH1 0x40 MLOAD PUSH2 0x1C3 SWAP2 SWAP1 PUSH2 0x22E0 JUMP JUMPDEST PUSH1 0x40 MLOAD DUP1 SWAP2 SUB SWAP1 RETURN JUMPDEST PUSH2 0x1D4 PUSH2 0x3CD JUMP JUMPDEST PUSH1 0x40 MLOAD PUSH2 0x1C3 SWAP2 SWAP1 PUSH2 0x21B3 JUMP JUMPDEST PUSH2 0x1F4 PUSH2 0x1EF CALLDATASIZE PUSH1 0x4 PUSH2 0x1A1B JUMP JUMPDEST PUSH2 0x3DC JUMP JUMPDEST PUSH1 0x40 MLOAD PUSH2 0x1C3 SWAP2 SWAP1 PUSH2 0x21DC JUMP JUMPDEST PUSH2 0x209 PUSH2 0x49B JUMP JUMPDEST PUSH1 0x40 MLOAD PUSH2 0x1C3 SWAP2 SWAP1 PUSH2 0x21EA JUMP JUMPDEST PUSH2 0x209 PUSH2 0x4A1 JUMP JUMPDEST PUSH2 0x1F4 PUSH2 0x22C CALLDATASIZE PUSH1 0x4 PUSH2 0x1932 JUMP JUMPDEST PUSH2 0x4B8 JUMP JUMPDEST PUSH2 0x209 PUSH2 0x601 JUMP JUMPDEST PUSH2 0x209 PUSH2 0x60D JUMP JUMPDEST PUSH2 0x249 PUSH2 0x613 JUMP JUMPDEST PUSH1 0x40 MLOAD PUSH2 0x1C3 SWAP2 SWAP1 PUSH2 0x241A JUMP JUMPDEST PUSH2 0x269 PUSH2 0x264 CALLDATASIZE PUSH1 0x4 PUSH2 0x1A1B JUMP JUMPDEST PUSH2 0x618 JUMP JUMPDEST STOP JUMPDEST PUSH2 0x1D4 PUSH2 0x279 CALLDATASIZE PUSH1 0x4 PUSH2 0x18D2 JUMP JUMPDEST PUSH2 0x833 JUMP JUMPDEST PUSH2 0x286 PUSH2 0x84E JUMP JUMPDEST PUSH1 0x40 MLOAD PUSH2 0x1C3 SWAP2 SWAP1 PUSH2 0x23F1 JUMP JUMPDEST PUSH2 0x269 PUSH2 0x2A1 CALLDATASIZE PUSH1 0x4 PUSH2 0x18D2 JUMP JUMPDEST PUSH2 0x856 JUMP JUMPDEST PUSH2 0x286 PUSH2 0x2B4 CALLDATASIZE PUSH1 0x4 PUSH2 0x18D2 JUMP JUMPDEST PUSH2 0x863 JUMP JUMPDEST PUSH2 0x209 PUSH2 0x2C7 CALLDATASIZE PUSH1 0x4 PUSH2 0x18D2 JUMP JUMPDEST PUSH2 0x87B JUMP JUMPDEST PUSH2 0x249 PUSH2 0x89F JUMP JUMPDEST PUSH2 0x2E7 PUSH2 0x2E2 CALLDATASIZE PUSH1 0x4 PUSH2 0x1A1B JUMP JUMPDEST PUSH2 0x8A4 JUMP JUMPDEST PUSH1 0x40 MLOAD PUSH2 0x1C3 SWAP2 SWAP1 PUSH2 0x2436 JUMP JUMPDEST PUSH2 0x209 PUSH2 0x302 CALLDATASIZE PUSH1 0x4 PUSH2 0x18D2 JUMP JUMPDEST PUSH2 0xAB2 JUMP JUMPDEST PUSH2 0x1B6 PUSH2 0xAC4 JUMP JUMPDEST PUSH2 0x1F4 PUSH2 0x31D CALLDATASIZE PUSH1 0x4 PUSH2 0x1A1B JUMP JUMPDEST PUSH2 0xAE3 JUMP JUMPDEST PUSH2 0x2E7 PUSH2 0x330 CALLDATASIZE PUSH1 0x4 PUSH2 0x18D2 JUMP JUMPDEST PUSH2 0xB1F JUMP JUMPDEST PUSH2 0x269 PUSH2 0x343 CALLDATASIZE PUSH1 0x4 PUSH2 0x1A4B JUMP JUMPDEST PUSH2 0xB8F JUMP JUMPDEST PUSH2 0x269 PUSH2 0x356 CALLDATASIZE PUSH1 0x4 PUSH2 0x197F JUMP JUMPDEST PUSH2 0xD78 JUMP JUMPDEST PUSH2 0x209 PUSH2 0x369 CALLDATASIZE PUSH1 0x4 PUSH2 0x18F8 JUMP JUMPDEST PUSH2 0x1063 JUMP JUMPDEST PUSH2 0x209 PUSH2 0x1097 JUMP JUMPDEST PUSH2 0x389 PUSH2 0x384 CALLDATASIZE PUSH1 0x4 PUSH2 0x1AD2 JUMP JUMPDEST PUSH2 0x10A3 JUMP JUMPDEST PUSH1 0x40 MLOAD PUSH2 0x1C3 SWAP3 SWAP2 SWAP1 PUSH2 0x23FF JUMP JUMPDEST PUSH2 0x269 PUSH2 0x3A5 CALLDATASIZE PUSH1 0x4 PUSH2 0x18D2 JUMP JUMPDEST PUSH2 0x10D8 JUMP JUMPDEST PUSH1 0x40 MLOAD DUP1 PUSH1 0x40 ADD PUSH1 0x40 MSTORE DUP1 PUSH1 0x7 DUP2 MSTORE PUSH1 0x20 ADD PUSH7 0x556E697377617 PUSH1 0xCC SHL DUP2 MSTORE POP DUP2 JUMP JUMPDEST PUSH1 0x1 SLOAD PUSH1 0x1 PUSH1 0x1 PUSH1 0xA0 SHL SUB AND DUP2 JUMP JUMPDEST PUSH1 0x0 DUP1 PUSH1 0x0 NOT DUP4 EQ ISZERO PUSH2 0x3F2 JUMPI POP PUSH1 0x0 NOT PUSH2 0x417 JUMP JUMPDEST PUSH2 0x414 DUP4 PUSH1 0x40 MLOAD DUP1 PUSH1 0x60 ADD PUSH1 0x40 MSTORE DUP1 PUSH1 0x24 DUP2 MSTORE PUSH1 0x20 ADD PUSH2 0x26C0 PUSH1 0x24 SWAP2 CODECOPY PUSH2 0x116B JUMP JUMPDEST SWAP1 POP JUMPDEST CALLER PUSH1 0x0 DUP2 DUP2 MSTORE PUSH1 0x3 PUSH1 0x20 SWAP1 DUP2 MSTORE PUSH1 0x40 DUP1 DUP4 KECCAK256 PUSH1 0x1 PUSH1 0x1 PUSH1 0xA0 SHL SUB DUP10 AND DUP1 DUP6 MSTORE SWAP3 MSTORE SWAP2 DUP3 SWAP1 KECCAK256 DUP1 SLOAD PUSH1 0x1 PUSH1 0x1 PUSH1 0x60 SHL SUB NOT AND PUSH1 0x1 PUSH1 0x1 PUSH1 0x60 SHL SUB DUP7 AND OR SWAP1 SSTORE SWAP1 MLOAD SWAP1 SWAP2 SWAP1 PUSH32 0x8C5BE1E5EBEC7D5BD14F71427D1E84F3DD0314C0F7B2291E5B200AC8C7C3B925 SWAP1 PUSH2 0x487 SWAP1 DUP6 SWAP1 PUSH2 0x2428 JUMP JUMPDEST PUSH1 0x40 MLOAD DUP1 SWAP2 SUB SWAP1 LOG3 PUSH1 0x1 SWAP2 POP POP JUMPDEST SWAP3 SWAP2 POP POP JUMP JUMPDEST PUSH1 0x0 SLOAD DUP2 JUMP JUMPDEST PUSH1 0x40 MLOAD PUSH2 0x4AD SWAP1 PUSH2 0x219D JUMP JUMPDEST PUSH1 0x40 MLOAD DUP1 SWAP2 SUB SWAP1 KECCAK256 DUP2 JUMP JUMPDEST PUSH1 0x1 PUSH1 0x1 PUSH1 0xA0 SHL SUB DUP4 AND PUSH1 0x0 SWAP1 DUP2 MSTORE PUSH1 0x3 PUSH1 0x20 SWAP1 DUP2 MSTORE PUSH1 0x40 DUP1 DUP4 KECCAK256 CALLER DUP1 DUP6 MSTORE SWAP1 DUP4 MSTORE DUP2 DUP5 KECCAK256 SLOAD DUP3 MLOAD PUSH1 0x60 DUP2 ADD SWAP1 SWAP4 MSTORE PUSH1 0x24 DUP1 DUP5 MSTORE SWAP2 SWAP4 PUSH1 0x1 PUSH1 0x1 PUSH1 0x60 SHL SUB SWAP1 SWAP2 AND SWAP3 DUP6 SWAP3 PUSH2 0x510 SWAP3 DUP9 SWAP3 SWAP2 SWAP1 PUSH2 0x26C0 SWAP1 DUP4 ADD CODECOPY PUSH2 0x116B JUMP JUMPDEST SWAP1 POP DUP7 PUSH1 0x1 PUSH1 0x1 PUSH1 0xA0 SHL SUB AND DUP4 PUSH1 0x1 PUSH1 0x1 PUSH1 0xA0 SHL SUB AND EQ ISZERO DUP1 ISZERO PUSH2 0x53D JUMPI POP PUSH1 0x1 PUSH1 0x1 PUSH1 0x60 SHL SUB DUP3 DUP2 AND EQ ISZERO JUMPDEST ISZERO PUSH2 0x5E7 JUMPI PUSH1 0x0 PUSH2 0x567 DUP4 DUP4 PUSH1 0x40 MLOAD DUP1 PUSH1 0x60 ADD PUSH1 0x40 MSTORE DUP1 PUSH1 0x3C DUP2 MSTORE PUSH1 0x20 ADD PUSH2 0x2540 PUSH1 0x3C SWAP2 CODECOPY PUSH2 0x119A JUMP JUMPDEST PUSH1 0x1 PUSH1 0x1 PUSH1 0xA0 SHL SUB DUP10 DUP2 AND PUSH1 0x0 DUP2 DUP2 MSTORE PUSH1 0x3 PUSH1 0x20 SWAP1 DUP2 MSTORE PUSH1 0x40 DUP1 DUP4 KECCAK256 SWAP5 DUP11 AND DUP1 DUP5 MSTORE SWAP5 SWAP1 SWAP2 MSTORE SWAP1 DUP2 SWAP1 KECCAK256 DUP1 SLOAD PUSH1 0x1 PUSH1 0x1 PUSH1 0x60 SHL SUB NOT AND PUSH1 0x1 PUSH1 0x1 PUSH1 0x60 SHL SUB DUP7 AND OR SWAP1 SSTORE MLOAD SWAP3 SWAP4 POP SWAP1 SWAP2 PUSH32 0x8C5BE1E5EBEC7D5BD14F71427D1E84F3DD0314C0F7B2291E5B200AC8C7C3B925 SWAP1 PUSH2 0x5DD SWAP1 DUP6 SWAP1 PUSH2 0x2428 JUMP JUMPDEST PUSH1 0x40 MLOAD DUP1 SWAP2 SUB SWAP1 LOG3 POP JUMPDEST PUSH2 0x5F2 DUP8 DUP8 DUP4 PUSH2 0x11D9 JUMP JUMPDEST PUSH1 0x1 SWAP4 POP POP POP POP JUMPDEST SWAP4 SWAP3 POP POP POP JUMP JUMPDEST PUSH1 0x40 MLOAD PUSH2 0x4AD SWAP1 PUSH2 0x2192 JUMP JUMPDEST PUSH1 0x2 SLOAD DUP2 JUMP JUMPDEST PUSH1 0x12 DUP2 JUMP JUMPDEST PUSH1 0x1 SLOAD PUSH1 0x1 PUSH1 0x1 PUSH1 0xA0 SHL SUB AND CALLER EQ PUSH2 0x64B JUMPI PUSH1 0x40 MLOAD PUSH3 0x461BCD PUSH1 0xE5 SHL DUP2 MSTORE PUSH1 0x4 ADD PUSH2 0x642 SWAP1 PUSH2 0x2381 JUMP JUMPDEST PUSH1 0x40 MLOAD DUP1 SWAP2 SUB SWAP1 REVERT JUMPDEST PUSH1 0x2 SLOAD TIMESTAMP LT ISZERO PUSH2 0x66D JUMPI PUSH1 0x40 MLOAD PUSH3 0x461BCD PUSH1 0xE5 SHL DUP2 MSTORE PUSH1 0x4 ADD PUSH2 0x642 SWAP1 PUSH2 0x2341 JUMP JUMPDEST PUSH1 0x1 PUSH1 0x1 PUSH1 0xA0 SHL SUB DUP3 AND PUSH2 0x693 JUMPI PUSH1 0x40 MLOAD PUSH3 0x461BCD PUSH1 0xE5 SHL DUP2 MSTORE PUSH1 0x4 ADD PUSH2 0x642 SWAP1 PUSH2 0x2331 JUMP JUMPDEST PUSH2 0x6A1 TIMESTAMP PUSH4 0x1E13380 PUSH2 0x137F JUMP JUMPDEST PUSH1 0x2 DUP2 SWAP1 SSTORE POP PUSH1 0x0 PUSH2 0x6CB DUP3 PUSH1 0x40 MLOAD DUP1 PUSH1 0x60 ADD PUSH1 0x40 MSTORE DUP1 PUSH1 0x21 DUP2 MSTORE PUSH1 0x20 ADD PUSH2 0x269F PUSH1 0x21 SWAP2 CODECOPY PUSH2 0x116B JUMP JUMPDEST SWAP1 POP PUSH2 0x6E7 PUSH2 0x6E0 PUSH1 0x0 SLOAD PUSH1 0x2 PUSH1 0xFF AND PUSH2 0x13A4 JUMP JUMPDEST PUSH1 0x64 PUSH2 0x13DE JUMP JUMPDEST DUP2 PUSH1 0x1 PUSH1 0x1 PUSH1 0x60 SHL SUB AND GT ISZERO PUSH2 0x70F JUMPI PUSH1 0x40 MLOAD PUSH3 0x461BCD PUSH1 0xE5 SHL DUP2 MSTORE PUSH1 0x4 ADD PUSH2 0x642 SWAP1 PUSH2 0x2371 JUMP JUMPDEST PUSH2 0x745 PUSH2 0x727 PUSH1 0x0 SLOAD DUP4 PUSH1 0x1 PUSH1 0x1 PUSH1 0x60 SHL SUB AND PUSH2 0x137F JUMP JUMPDEST PUSH1 0x40 MLOAD DUP1 PUSH1 0x60 ADD PUSH1 0x40 MSTORE DUP1 PUSH1 0x26 DUP2 MSTORE PUSH1 0x20 ADD PUSH2 0x257C PUSH1 0x26 SWAP2 CODECOPY PUSH2 0x116B JUMP JUMPDEST PUSH1 0x1 PUSH1 0x1 PUSH1 0x60 SHL SUB SWAP1 DUP2 AND PUSH1 0x0 SWAP1 DUP2 SSTORE PUSH1 0x1 PUSH1 0x1 PUSH1 0xA0 SHL SUB DUP6 AND DUP2 MSTORE PUSH1 0x4 PUSH1 0x20 SWAP1 DUP2 MSTORE PUSH1 0x40 SWAP2 DUP3 SWAP1 KECCAK256 SLOAD DUP3 MLOAD PUSH1 0x60 DUP2 ADD SWAP1 SWAP4 MSTORE PUSH1 0x24 DUP1 DUP5 MSTORE PUSH2 0x797 SWAP5 SWAP2 SWAP1 SWAP2 AND SWAP3 DUP6 SWAP3 SWAP1 SWAP2 SWAP1 PUSH2 0x251C SWAP1 DUP4 ADD CODECOPY PUSH2 0x1420 JUMP JUMPDEST PUSH1 0x1 PUSH1 0x1 PUSH1 0xA0 SHL SUB DUP5 AND PUSH1 0x0 DUP2 DUP2 MSTORE PUSH1 0x4 PUSH1 0x20 MSTORE PUSH1 0x40 DUP1 DUP3 KECCAK256 DUP1 SLOAD PUSH1 0x1 PUSH1 0x1 PUSH1 0x60 SHL SUB NOT AND PUSH1 0x1 PUSH1 0x1 PUSH1 0x60 SHL SUB SWAP6 SWAP1 SWAP6 AND SWAP5 SWAP1 SWAP5 OR SWAP1 SWAP4 SSTORE SWAP2 MLOAD SWAP1 SWAP2 SWAP1 PUSH32 0xDDF252AD1BE2C89B69C2B068FC378DAA952BA7F163C4A11628F55A4DF523B3EF SWAP1 PUSH2 0x801 SWAP1 DUP6 SWAP1 PUSH2 0x2428 JUMP JUMPDEST PUSH1 0x40 MLOAD DUP1 SWAP2 SUB SWAP1 LOG3 PUSH1 0x1 PUSH1 0x1 PUSH1 0xA0 SHL SUB DUP1 DUP5 AND PUSH1 0x0 SWAP1 DUP2 MSTORE PUSH1 0x5 PUSH1 0x20 MSTORE PUSH1 0x40 DUP2 KECCAK256 SLOAD PUSH2 0x82E SWAP3 AND DUP4 PUSH2 0x145C JUMP JUMPDEST POP POP POP JUMP JUMPDEST PUSH1 0x5 PUSH1 0x20 MSTORE PUSH1 0x0 SWAP1 DUP2 MSTORE PUSH1 0x40 SWAP1 KECCAK256 SLOAD PUSH1 0x1 PUSH1 0x1 PUSH1 0xA0 SHL SUB AND DUP2 JUMP JUMPDEST PUSH4 0x1E13380 DUP2 JUMP JUMPDEST PUSH2 0x860 CALLER DUP3 PUSH2 0x15EE JUMP JUMPDEST POP JUMP JUMPDEST PUSH1 0x7 PUSH1 0x20 MSTORE PUSH1 0x0 SWAP1 DUP2 MSTORE PUSH1 0x40 SWAP1 KECCAK256 SLOAD PUSH4 0xFFFFFFFF AND DUP2 JUMP JUMPDEST PUSH1 0x1 PUSH1 0x1 PUSH1 0xA0 SHL SUB AND PUSH1 0x0 SWAP1 DUP2 MSTORE PUSH1 0x4 PUSH1 0x20 MSTORE PUSH1 0x40 SWAP1 KECCAK256 SLOAD PUSH1 0x1 PUSH1 0x1 PUSH1 0x60 SHL SUB AND SWAP1 JUMP JUMPDEST PUSH1 0x2 DUP2 JUMP JUMPDEST PUSH1 0x0 NUMBER DUP3 LT PUSH2 0x8C5 JUMPI PUSH1 0x40 MLOAD PUSH3 0x461BCD PUSH1 0xE5 SHL DUP2 MSTORE PUSH1 0x4 ADD PUSH2 0x642 SWAP1 PUSH2 0x2321 JUMP JUMPDEST PUSH1 0x1 PUSH1 0x1 PUSH1 0xA0 SHL SUB DUP4 AND PUSH1 0x0 SWAP1 DUP2 MSTORE PUSH1 0x7 PUSH1 0x20 MSTORE PUSH1 0x40 SWAP1 KECCAK256 SLOAD PUSH4 0xFFFFFFFF AND DUP1 PUSH2 0x8F3 JUMPI PUSH1 0x0 SWAP2 POP POP PUSH2 0x495 JUMP JUMPDEST PUSH1 0x1 PUSH1 0x1 PUSH1 0xA0 SHL SUB DUP5 AND PUSH1 0x0 SWAP1 DUP2 MSTORE PUSH1 0x6 PUSH1 0x20 SWAP1 DUP2 MSTORE PUSH1 0x40 DUP1 DUP4 KECCAK256 PUSH4 0xFFFFFFFF PUSH1 0x0 NOT DUP7 ADD DUP2 AND DUP6 MSTORE SWAP3 MSTORE SWAP1 SWAP2 KECCAK256 SLOAD AND DUP4 LT PUSH2 0x96F JUMPI PUSH1 0x1 PUSH1 0x1 PUSH1 0xA0 SHL SUB DUP5 AND PUSH1 0x0 SWAP1 DUP2 MSTORE PUSH1 0x6 PUSH1 0x20 SWAP1 DUP2 MSTORE PUSH1 0x40 DUP1 DUP4 KECCAK256 PUSH1 0x0 NOT SWAP5 SWAP1 SWAP5 ADD PUSH4 0xFFFFFFFF AND DUP4 MSTORE SWAP3 SWAP1 MSTORE KECCAK256 SLOAD PUSH1 0x1 PUSH1 0x20 SHL SWAP1 DIV PUSH1 0x1 PUSH1 0x1 PUSH1 0x60 SHL SUB AND SWAP1 POP PUSH2 0x495 JUMP JUMPDEST PUSH1 0x1 PUSH1 0x1 PUSH1 0xA0 SHL SUB DUP5 AND PUSH1 0x0 SWAP1 DUP2 MSTORE PUSH1 0x6 PUSH1 0x20 SWAP1 DUP2 MSTORE PUSH1 0x40 DUP1 DUP4 KECCAK256 DUP4 DUP1 MSTORE SWAP1 SWAP2 MSTORE SWAP1 KECCAK256 SLOAD PUSH4 0xFFFFFFFF AND DUP4 LT ISZERO PUSH2 0x9AA JUMPI PUSH1 0x0 SWAP2 POP POP PUSH2 0x495 JUMP JUMPDEST PUSH1 0x0 PUSH1 0x0 NOT DUP3 ADD JUMPDEST DUP2 PUSH4 0xFFFFFFFF AND DUP2 PUSH4 0xFFFFFFFF AND GT ISZERO PUSH2 0xA6D JUMPI PUSH1 0x2 DUP3 DUP3 SUB PUSH4 0xFFFFFFFF AND DIV DUP2 SUB PUSH2 0x9DC PUSH2 0x188F JUMP JUMPDEST POP PUSH1 0x1 PUSH1 0x1 PUSH1 0xA0 SHL SUB DUP8 AND PUSH1 0x0 SWAP1 DUP2 MSTORE PUSH1 0x6 PUSH1 0x20 SWAP1 DUP2 MSTORE PUSH1 0x40 DUP1 DUP4 KECCAK256 PUSH4 0xFFFFFFFF DUP6 DUP2 AND DUP6 MSTORE SWAP1 DUP4 MSTORE SWAP3 DUP2 SWAP1 KECCAK256 DUP2 MLOAD DUP1 DUP4 ADD SWAP1 SWAP3 MSTORE SLOAD SWAP3 DUP4 AND DUP1 DUP3 MSTORE PUSH1 0x1 PUSH1 0x20 SHL SWAP1 SWAP4 DIV PUSH1 0x1 PUSH1 0x1 PUSH1 0x60 SHL SUB AND SWAP2 DUP2 ADD SWAP2 SWAP1 SWAP2 MSTORE SWAP1 DUP8 EQ ISZERO PUSH2 0xA48 JUMPI PUSH1 0x20 ADD MLOAD SWAP5 POP PUSH2 0x495 SWAP4 POP POP POP POP JUMP JUMPDEST DUP1 MLOAD PUSH4 0xFFFFFFFF AND DUP8 GT ISZERO PUSH2 0xA5F JUMPI DUP2 SWAP4 POP PUSH2 0xA66 JUMP JUMPDEST PUSH1 0x1 DUP3 SUB SWAP3 POP JUMPDEST POP POP PUSH2 0x9B2 JUMP JUMPDEST POP PUSH1 0x1 PUSH1 0x1 PUSH1 0xA0 SHL SUB DUP6 AND PUSH1 0x0 SWAP1 DUP2 MSTORE PUSH1 0x6 PUSH1 0x20 SWAP1 DUP2 MSTORE PUSH1 0x40 DUP1 DUP4 KECCAK256 PUSH4 0xFFFFFFFF SWAP1 SWAP5 AND DUP4 MSTORE SWAP3 SWAP1 MSTORE KECCAK256 SLOAD PUSH1 0x1 PUSH1 0x1 PUSH1 0x60 SHL SUB PUSH1 0x1 PUSH1 0x20 SHL SWAP1 SWAP2 DIV AND SWAP2 POP POP SWAP3 SWAP2 POP POP JUMP JUMPDEST PUSH1 0x8 PUSH1 0x20 MSTORE PUSH1 0x0 SWAP1 DUP2 MSTORE PUSH1 0x40 SWAP1 KECCAK256 SLOAD DUP2 JUMP JUMPDEST PUSH1 0x40 MLOAD DUP1 PUSH1 0x40 ADD PUSH1 0x40 MSTORE DUP1 PUSH1 0x3 DUP2 MSTORE PUSH1 0x20 ADD PUSH3 0x554E49 PUSH1 0xE8 SHL DUP2 MSTORE POP DUP2 JUMP JUMPDEST PUSH1 0x0 DUP1 PUSH2 0xB08 DUP4 PUSH1 0x40 MLOAD DUP1 PUSH1 0x60 ADD PUSH1 0x40 MSTORE DUP1 PUSH1 0x25 DUP2 MSTORE PUSH1 0x20 ADD PUSH2 0x267A PUSH1 0x25 SWAP2 CODECOPY PUSH2 0x116B JUMP JUMPDEST SWAP1 POP PUSH2 0xB15 CALLER DUP6 DUP4 PUSH2 0x11D9 JUMP JUMPDEST POP PUSH1 0x1 SWAP4 SWAP3 POP POP POP JUMP JUMPDEST PUSH1 0x1 PUSH1 0x1 PUSH1 0xA0 SHL SUB DUP2 AND PUSH1 0x0 SWAP1 DUP2 MSTORE PUSH1 0x7 PUSH1 0x20 MSTORE PUSH1 0x40 DUP2 KECCAK256 SLOAD PUSH4 0xFFFFFFFF AND DUP1 PUSH2 0xB4A JUMPI PUSH1 0x0 PUSH2 0x5FA JUMP JUMPDEST PUSH1 0x1 PUSH1 0x1 PUSH1 0xA0 SHL SUB DUP4 AND PUSH1 0x0 SWAP1 DUP2 MSTORE PUSH1 0x6 PUSH1 0x20 SWAP1 DUP2 MSTORE PUSH1 0x40 DUP1 DUP4 KECCAK256 PUSH1 0x0 NOT DUP6 ADD PUSH4 0xFFFFFFFF AND DUP5 MSTORE SWAP1 SWAP2 MSTORE SWAP1 KECCAK256 SLOAD PUSH1 0x1 PUSH1 0x20 SHL SWAP1 DIV PUSH1 0x1 PUSH1 0x1 PUSH1 0x60 SHL SUB AND SWAP4 SWAP3 POP POP POP JUMP JUMPDEST PUSH1 0x0 PUSH1 0x40 MLOAD PUSH2 0xB9D SWAP1 PUSH2 0x219D JUMP JUMPDEST PUSH1 0x40 DUP1 MLOAD SWAP2 DUP3 SWAP1 SUB DUP3 KECCAK256 DUP3 DUP3 ADD SWAP1 SWAP2 MSTORE PUSH1 0x7 DUP3 MSTORE PUSH7 0x556E697377617 PUSH1 0xCC SHL PUSH1 0x20 SWAP1 SWAP3 ADD SWAP2 SWAP1 SWAP2 MSTORE PUSH32 0x99C45E8EE5DDE061CED9C812089094FBD28A020E7E37F2851198887E5CA64985 PUSH2 0xBEE PUSH2 0x1678 JUMP JUMPDEST ADDRESS PUSH1 0x40 MLOAD PUSH1 0x20 ADD PUSH2 0xC02 SWAP5 SWAP4 SWAP3 SWAP2 SWAP1 PUSH2 0x2290 JUMP JUMPDEST PUSH1 0x40 MLOAD PUSH1 0x20 DUP2 DUP4 SUB SUB DUP2 MSTORE SWAP1 PUSH1 0x40 MSTORE DUP1 MLOAD SWAP1 PUSH1 0x20 ADD KECCAK256 SWAP1 POP PUSH1 0x0 PUSH1 0x40 MLOAD PUSH2 0xC28 SWAP1 PUSH2 0x21A8 JUMP JUMPDEST PUSH1 0x40 MLOAD SWAP1 DUP2 SWAP1 SUB DUP2 KECCAK256 PUSH2 0xC43 SWAP2 DUP11 SWAP1 DUP11 SWAP1 DUP11 SWAP1 PUSH1 0x20 ADD PUSH2 0x2252 JUMP JUMPDEST PUSH1 0x40 MLOAD PUSH1 0x20 DUP2 DUP4 SUB SUB DUP2 MSTORE SWAP1 PUSH1 0x40 MSTORE DUP1 MLOAD SWAP1 PUSH1 0x20 ADD KECCAK256 SWAP1 POP PUSH1 0x0 DUP3 DUP3 PUSH1 0x40 MLOAD PUSH1 0x20 ADD PUSH2 0xC70 SWAP3 SWAP2 SWAP1 PUSH2 0x2161 JUMP JUMPDEST PUSH1 0x40 MLOAD PUSH1 0x20 DUP2 DUP4 SUB SUB DUP2 MSTORE SWAP1 PUSH1 0x40 MSTORE DUP1 MLOAD SWAP1 PUSH1 0x20 ADD KECCAK256 SWAP1 POP PUSH1 0x0 PUSH1 0x1 DUP3 DUP9 DUP9 DUP9 PUSH1 0x40 MLOAD PUSH1 0x0 DUP2 MSTORE PUSH1 0x20 ADD PUSH1 0x40 MSTORE PUSH1 0x40 MLOAD PUSH2 0xCAD SWAP5 SWAP4 SWAP3 SWAP2 SWAP1 PUSH2 0x22C5 JUMP JUMPDEST PUSH1 0x20 PUSH1 0x40 MLOAD PUSH1 0x20 DUP2 SUB SWAP1 DUP1 DUP5 SUB SWAP1 DUP6 GAS STATICCALL ISZERO DUP1 ISZERO PUSH2 0xCCF JUMPI RETURNDATASIZE PUSH1 0x0 DUP1 RETURNDATACOPY RETURNDATASIZE PUSH1 0x0 REVERT JUMPDEST POP POP PUSH1 0x40 MLOAD PUSH1 0x1F NOT ADD MLOAD SWAP2 POP POP PUSH1 0x1 PUSH1 0x1 PUSH1 0xA0 SHL SUB DUP2 AND PUSH2 0xD02 JUMPI PUSH1 0x40 MLOAD PUSH3 0x461BCD PUSH1 0xE5 SHL DUP2 MSTORE PUSH1 0x4 ADD PUSH2 0x642 SWAP1 PUSH2 0x2311 JUMP JUMPDEST PUSH1 0x1 PUSH1 0x1 PUSH1 0xA0 SHL SUB DUP2 AND PUSH1 0x0 SWAP1 DUP2 MSTORE PUSH1 0x8 PUSH1 0x20 MSTORE PUSH1 0x40 SWAP1 KECCAK256 DUP1 SLOAD PUSH1 0x1 DUP2 ADD SWAP1 SWAP2 SSTORE DUP10 EQ PUSH2 0xD41 JUMPI PUSH1 0x40 MLOAD PUSH3 0x461BCD PUSH1 0xE5 SHL DUP2 MSTORE PUSH1 0x4 ADD PUSH2 0x642 SWAP1 PUSH2 0x23A1 JUMP JUMPDEST DUP8 TIMESTAMP GT ISZERO PUSH2 0xD61 JUMPI PUSH1 0x40 MLOAD PUSH3 0x461BCD PUSH1 0xE5 SHL DUP2 MSTORE PUSH1 0x4 ADD PUSH2 0x642 SWAP1 PUSH2 0x22F1 JUMP JUMPDEST PUSH2 0xD6B DUP2 DUP12 PUSH2 0x15EE JUMP JUMPDEST POP POP POP POP JUMPDEST POP POP POP POP POP POP JUMP JUMPDEST PUSH1 0x0 PUSH1 0x0 NOT DUP7 EQ ISZERO PUSH2 0xD8D JUMPI POP PUSH1 0x0 NOT PUSH2 0xDB2 JUMP JUMPDEST PUSH2 0xDAF DUP7 PUSH1 0x40 MLOAD DUP1 PUSH1 0x60 ADD PUSH1 0x40 MSTORE DUP1 PUSH1 0x23 DUP2 MSTORE PUSH1 0x20 ADD PUSH2 0x25D7 PUSH1 0x23 SWAP2 CODECOPY PUSH2 0x116B JUMP JUMPDEST SWAP1 POP JUMPDEST PUSH1 0x0 PUSH1 0x40 MLOAD PUSH2 0xDC0 SWAP1 PUSH2 0x219D JUMP JUMPDEST PUSH1 0x40 DUP1 MLOAD SWAP2 DUP3 SWAP1 SUB DUP3 KECCAK256 DUP3 DUP3 ADD SWAP1 SWAP2 MSTORE PUSH1 0x7 DUP3 MSTORE PUSH7 0x556E697377617 PUSH1 0xCC SHL PUSH1 0x20 SWAP1 SWAP3 ADD SWAP2 SWAP1 SWAP2 MSTORE PUSH32 0x99C45E8EE5DDE061CED9C812089094FBD28A020E7E37F2851198887E5CA64985 PUSH2 0xE11 PUSH2 0x1678 JUMP JUMPDEST ADDRESS PUSH1 0x40 MLOAD PUSH1 0x20 ADD PUSH2 0xE25 SWAP5 SWAP4 SWAP3 SWAP2 SWAP1 PUSH2 0x2290 JUMP JUMPDEST PUSH1 0x40 MLOAD PUSH1 0x20 DUP2 DUP4 SUB SUB DUP2 MSTORE SWAP1 PUSH1 0x40 MSTORE DUP1 MLOAD SWAP1 PUSH1 0x20 ADD KECCAK256 SWAP1 POP PUSH1 0x0 PUSH1 0x40 MLOAD PUSH2 0xE4B SWAP1 PUSH2 0x2192 JUMP JUMPDEST PUSH1 0x40 DUP1 MLOAD SWAP2 DUP3 SWAP1 SUB DUP3 KECCAK256 PUSH1 0x1 PUSH1 0x1 PUSH1 0xA0 SHL SUB DUP14 AND PUSH1 0x0 SWAP1 DUP2 MSTORE PUSH1 0x8 PUSH1 0x20 SWAP1 DUP2 MSTORE SWAP3 SWAP1 KECCAK256 DUP1 SLOAD PUSH1 0x1 DUP2 ADD SWAP1 SWAP2 SSTORE PUSH2 0xE8D SWAP4 SWAP2 SWAP3 DUP15 SWAP3 DUP15 SWAP3 DUP15 SWAP3 SWAP1 SWAP2 DUP15 SWAP2 ADD PUSH2 0x21F8 JUMP JUMPDEST PUSH1 0x40 MLOAD PUSH1 0x20 DUP2 DUP4 SUB SUB DUP2 MSTORE SWAP1 PUSH1 0x40 MSTORE DUP1 MLOAD SWAP1 PUSH1 0x20 ADD KECCAK256 SWAP1 POP PUSH1 0x0 DUP3 DUP3 PUSH1 0x40 MLOAD PUSH1 0x20 ADD PUSH2 0xEBA SWAP3 SWAP2 SWAP1 PUSH2 0x2161 JUMP JUMPDEST PUSH1 0x40 MLOAD PUSH1 0x20 DUP2 DUP4 SUB SUB DUP2 MSTORE SWAP1 PUSH1 0x40 MSTORE DUP1 MLOAD SWAP1 PUSH1 0x20 ADD KECCAK256 SWAP1 POP PUSH1 0x0 PUSH1 0x1 DUP3 DUP10 DUP10 DUP10 PUSH1 0x40 MLOAD PUSH1 0x0 DUP2 MSTORE PUSH1 0x20 ADD PUSH1 0x40 MSTORE PUSH1 0x40 MLOAD PUSH2 0xEF7 SWAP5 SWAP4 SWAP3 SWAP2 SWAP1 PUSH2 0x22C5 JUMP JUMPDEST PUSH1 0x20 PUSH1 0x40 MLOAD PUSH1 0x20 DUP2 SUB SWAP1 DUP1 DUP5 SUB SWAP1 DUP6 GAS STATICCALL ISZERO DUP1 ISZERO PUSH2 0xF19 JUMPI RETURNDATASIZE PUSH1 0x0 DUP1 RETURNDATACOPY RETURNDATASIZE PUSH1 0x0 REVERT JUMPDEST POP POP PUSH1 0x40 MLOAD PUSH1 0x1F NOT ADD MLOAD SWAP2 POP POP PUSH1 0x1 PUSH1 0x1 PUSH1 0xA0 SHL SUB DUP2 AND PUSH2 0xF4C JUMPI PUSH1 0x40 MLOAD PUSH3 0x461BCD PUSH1 0xE5 SHL DUP2 MSTORE PUSH1 0x4 ADD PUSH2 0x642 SWAP1 PUSH2 0x23D1 JUMP JUMPDEST DUP12 PUSH1 0x1 PUSH1 0x1 PUSH1 0xA0 SHL SUB AND DUP2 PUSH1 0x1 PUSH1 0x1 PUSH1 0xA0 SHL SUB AND EQ PUSH2 0xF7D JUMPI PUSH1 0x40 MLOAD PUSH3 0x461BCD PUSH1 0xE5 SHL DUP2 MSTORE PUSH1 0x4 ADD PUSH2 0x642 SWAP1 PUSH2 0x23E1 JUMP JUMPDEST DUP9 TIMESTAMP GT ISZERO PUSH2 0xF9D JUMPI PUSH1 0x40 MLOAD PUSH3 0x461BCD PUSH1 0xE5 SHL DUP2 MSTORE PUSH1 0x4 ADD PUSH2 0x642 SWAP1 PUSH2 0x23C1 JUMP JUMPDEST DUP5 PUSH1 0x3 PUSH1 0x0 DUP15 PUSH1 0x1 PUSH1 0x1 PUSH1 0xA0 SHL SUB AND PUSH1 0x1 PUSH1 0x1 PUSH1 0xA0 SHL SUB AND DUP2 MSTORE PUSH1 0x20 ADD SWAP1 DUP2 MSTORE PUSH1 0x20 ADD PUSH1 0x0 KECCAK256 PUSH1 0x0 DUP14 PUSH1 0x1 PUSH1 0x1 PUSH1 0xA0 SHL SUB AND PUSH1 0x1 PUSH1 0x1 PUSH1 0xA0 SHL SUB AND DUP2 MSTORE PUSH1 0x20 ADD SWAP1 DUP2 MSTORE PUSH1 0x20 ADD PUSH1 0x0 KECCAK256 PUSH1 0x0 PUSH2 0x100 EXP DUP2 SLOAD DUP2 PUSH1 0x1 PUSH1 0x1 PUSH1 0x60 SHL SUB MUL NOT AND SWAP1 DUP4 PUSH1 0x1 PUSH1 0x1 PUSH1 0x60 SHL SUB AND MUL OR SWAP1 SSTORE POP DUP11 PUSH1 0x1 PUSH1 0x1 PUSH1 0xA0 SHL SUB AND DUP13 PUSH1 0x1 PUSH1 0x1 PUSH1 0xA0 SHL SUB AND PUSH32 0x8C5BE1E5EBEC7D5BD14F71427D1E84F3DD0314C0F7B2291E5B200AC8C7C3B925 DUP8 PUSH1 0x40 MLOAD PUSH2 0x104D SWAP2 SWAP1 PUSH2 0x2428 JUMP JUMPDEST PUSH1 0x40 MLOAD DUP1 SWAP2 SUB SWAP1 LOG3 POP POP POP POP POP POP POP POP POP POP POP POP JUMP JUMPDEST PUSH1 0x1 PUSH1 0x1 PUSH1 0xA0 SHL SUB SWAP2 DUP3 AND PUSH1 0x0 SWAP1 DUP2 MSTORE PUSH1 0x3 PUSH1 0x20 SWAP1 DUP2 MSTORE PUSH1 0x40 DUP1 DUP4 KECCAK256 SWAP4 SWAP1 SWAP5 AND DUP3 MSTORE SWAP2 SWAP1 SWAP2 MSTORE KECCAK256 SLOAD PUSH1 0x1 PUSH1 0x1 PUSH1 0x60 SHL SUB AND SWAP1 JUMP JUMPDEST PUSH1 0x40 MLOAD PUSH2 0x4AD SWAP1 PUSH2 0x21A8 JUMP JUMPDEST PUSH1 0x6 PUSH1 0x20 SWAP1 DUP2 MSTORE PUSH1 0x0 SWAP3 DUP4 MSTORE PUSH1 0x40 DUP1 DUP5 KECCAK256 SWAP1 SWAP2 MSTORE SWAP1 DUP3 MSTORE SWAP1 KECCAK256 SLOAD PUSH4 0xFFFFFFFF DUP2 AND SWAP1 PUSH1 0x1 PUSH1 0x20 SHL SWAP1 DIV PUSH1 0x1 PUSH1 0x1 PUSH1 0x60 SHL SUB AND DUP3 JUMP JUMPDEST PUSH1 0x1 SLOAD PUSH1 0x1 PUSH1 0x1 PUSH1 0xA0 SHL SUB AND CALLER EQ PUSH2 0x1102 JUMPI PUSH1 0x40 MLOAD PUSH3 0x461BCD PUSH1 0xE5 SHL DUP2 MSTORE PUSH1 0x4 ADD PUSH2 0x642 SWAP1 PUSH2 0x2391 JUMP JUMPDEST PUSH1 0x1 SLOAD PUSH1 0x40 MLOAD PUSH32 0x3B0007EB941CF645526CBB3A4FDAECDA9D28CE4843167D9263B536A1F1EDC0F6 SWAP2 PUSH2 0x1141 SWAP2 PUSH1 0x1 PUSH1 0x1 PUSH1 0xA0 SHL SUB SWAP1 SWAP2 AND SWAP1 DUP5 SWAP1 PUSH2 0x21C1 JUMP JUMPDEST PUSH1 0x40 MLOAD DUP1 SWAP2 SUB SWAP1 LOG1 PUSH1 0x1 DUP1 SLOAD PUSH1 0x1 PUSH1 0x1 PUSH1 0xA0 SHL SUB NOT AND PUSH1 0x1 PUSH1 0x1 PUSH1 0xA0 SHL SUB SWAP3 SWAP1 SWAP3 AND SWAP2 SWAP1 SWAP2 OR SWAP1 SSTORE JUMP JUMPDEST PUSH1 0x0 DUP2 PUSH1 0x1 PUSH1 0x60 SHL DUP5 LT PUSH2 0x1192 JUMPI PUSH1 0x40 MLOAD PUSH3 0x461BCD PUSH1 0xE5 SHL DUP2 MSTORE PUSH1 0x4 ADD PUSH2 0x642 SWAP2 SWAP1 PUSH2 0x22E0 JUMP JUMPDEST POP SWAP2 SWAP3 SWAP2 POP POP JUMP JUMPDEST PUSH1 0x0 DUP4 PUSH1 0x1 PUSH1 0x1 PUSH1 0x60 SHL SUB AND DUP4 PUSH1 0x1 PUSH1 0x1 PUSH1 0x60 SHL SUB AND GT ISZERO DUP3 SWAP1 PUSH2 0x11D1 JUMPI PUSH1 0x40 MLOAD PUSH3 0x461BCD PUSH1 0xE5 SHL DUP2 MSTORE PUSH1 0x4 ADD PUSH2 0x642 SWAP2 SWAP1 PUSH2 0x22E0 JUMP JUMPDEST POP POP POP SWAP1 SUB SWAP1 JUMP JUMPDEST PUSH1 0x1 PUSH1 0x1 PUSH1 0xA0 SHL SUB DUP4 AND PUSH2 0x11FF JUMPI PUSH1 0x40 MLOAD PUSH3 0x461BCD PUSH1 0xE5 SHL DUP2 MSTORE PUSH1 0x4 ADD PUSH2 0x642 SWAP1 PUSH2 0x23B1 JUMP JUMPDEST PUSH1 0x1 PUSH1 0x1 PUSH1 0xA0 SHL SUB DUP3 AND PUSH2 0x1225 JUMPI PUSH1 0x40 MLOAD PUSH3 0x461BCD PUSH1 0xE5 SHL DUP2 MSTORE PUSH1 0x4 ADD PUSH2 0x642 SWAP1 PUSH2 0x2351 JUMP JUMPDEST PUSH1 0x1 PUSH1 0x1 PUSH1 0xA0 SHL SUB DUP4 AND PUSH1 0x0 SWAP1 DUP2 MSTORE PUSH1 0x4 PUSH1 0x20 SWAP1 DUP2 MSTORE PUSH1 0x40 SWAP2 DUP3 SWAP1 KECCAK256 SLOAD DUP3 MLOAD PUSH1 0x60 DUP2 ADD SWAP1 SWAP4 MSTORE PUSH1 0x35 DUP1 DUP5 MSTORE PUSH2 0x1270 SWAP4 PUSH1 0x1 PUSH1 0x1 PUSH1 0x60 SHL SUB SWAP1 SWAP3 AND SWAP3 DUP6 SWAP3 SWAP2 SWAP1 PUSH2 0x25A2 SWAP1 DUP4 ADD CODECOPY PUSH2 0x119A JUMP JUMPDEST PUSH1 0x1 PUSH1 0x1 PUSH1 0xA0 SHL SUB DUP5 DUP2 AND PUSH1 0x0 SWAP1 DUP2 MSTORE PUSH1 0x4 PUSH1 0x20 SWAP1 DUP2 MSTORE PUSH1 0x40 DUP1 DUP4 KECCAK256 DUP1 SLOAD PUSH1 0x1 PUSH1 0x1 PUSH1 0x60 SHL SUB NOT AND PUSH1 0x1 PUSH1 0x1 PUSH1 0x60 SHL SUB SWAP7 DUP8 AND OR SWAP1 SSTORE SWAP3 DUP7 AND DUP3 MSTORE SWAP1 DUP3 SWAP1 KECCAK256 SLOAD DUP3 MLOAD PUSH1 0x60 DUP2 ADD SWAP1 SWAP4 MSTORE PUSH1 0x2F DUP1 DUP5 MSTORE PUSH2 0x12D8 SWAP5 SWAP2 SWAP1 SWAP2 AND SWAP3 DUP6 SWAP3 SWAP1 SWAP2 SWAP1 PUSH2 0x26E4 SWAP1 DUP4 ADD CODECOPY PUSH2 0x1420 JUMP JUMPDEST PUSH1 0x1 PUSH1 0x1 PUSH1 0xA0 SHL SUB DUP4 DUP2 AND PUSH1 0x0 DUP2 DUP2 MSTORE PUSH1 0x4 PUSH1 0x20 MSTORE PUSH1 0x40 SWAP1 DUP2 SWAP1 KECCAK256 DUP1 SLOAD PUSH1 0x1 PUSH1 0x1 PUSH1 0x60 SHL SUB NOT AND PUSH1 0x1 PUSH1 0x1 PUSH1 0x60 SHL SUB SWAP6 SWAP1 SWAP6 AND SWAP5 SWAP1 SWAP5 OR SWAP1 SWAP4 SSTORE SWAP2 MLOAD SWAP1 DUP6 AND SWAP1 PUSH32 0xDDF252AD1BE2C89B69C2B068FC378DAA952BA7F163C4A11628F55A4DF523B3EF SWAP1 PUSH2 0x1345 SWAP1 DUP6 SWAP1 PUSH2 0x2428 JUMP JUMPDEST PUSH1 0x40 MLOAD DUP1 SWAP2 SUB SWAP1 LOG3 PUSH1 0x1 PUSH1 0x1 PUSH1 0xA0 SHL SUB DUP1 DUP5 AND PUSH1 0x0 SWAP1 DUP2 MSTORE PUSH1 0x5 PUSH1 0x20 MSTORE PUSH1 0x40 DUP1 DUP3 KECCAK256 SLOAD DUP6 DUP5 AND DUP4 MSTORE SWAP2 KECCAK256 SLOAD PUSH2 0x82E SWAP3 SWAP2 DUP3 AND SWAP2 AND DUP4 PUSH2 0x145C JUMP JUMPDEST PUSH1 0x0 DUP3 DUP3 ADD DUP4 DUP2 LT ISZERO PUSH2 0x5FA JUMPI PUSH1 0x40 MLOAD PUSH3 0x461BCD PUSH1 0xE5 SHL DUP2 MSTORE PUSH1 0x4 ADD PUSH2 0x642 SWAP1 PUSH2 0x2301 JUMP JUMPDEST PUSH1 0x0 DUP3 PUSH2 0x13B3 JUMPI POP PUSH1 0x0 PUSH2 0x495 JUMP JUMPDEST DUP3 DUP3 MUL DUP3 DUP5 DUP3 DUP2 PUSH2 0x13C0 JUMPI INVALID JUMPDEST DIV EQ PUSH2 0x5FA JUMPI PUSH1 0x40 MLOAD PUSH3 0x461BCD PUSH1 0xE5 SHL DUP2 MSTORE PUSH1 0x4 ADD PUSH2 0x642 SWAP1 PUSH2 0x2361 JUMP JUMPDEST PUSH1 0x0 PUSH2 0x5FA DUP4 DUP4 PUSH1 0x40 MLOAD DUP1 PUSH1 0x40 ADD PUSH1 0x40 MSTORE DUP1 PUSH1 0x1A DUP2 MSTORE PUSH1 0x20 ADD PUSH32 0x536166654D6174683A206469766973696F6E206279207A65726F000000000000 DUP2 MSTORE POP PUSH2 0x167C JUMP JUMPDEST PUSH1 0x0 DUP4 DUP4 ADD DUP3 PUSH1 0x1 PUSH1 0x1 PUSH1 0x60 SHL SUB DUP1 DUP8 AND SWAP1 DUP4 AND LT ISZERO PUSH2 0x1453 JUMPI PUSH1 0x40 MLOAD PUSH3 0x461BCD PUSH1 0xE5 SHL DUP2 MSTORE PUSH1 0x4 ADD PUSH2 0x642 SWAP2 SWAP1 PUSH2 0x22E0 JUMP JUMPDEST POP SWAP5 SWAP4 POP POP POP POP JUMP JUMPDEST DUP2 PUSH1 0x1 PUSH1 0x1 PUSH1 0xA0 SHL SUB AND DUP4 PUSH1 0x1 PUSH1 0x1 PUSH1 0xA0 SHL SUB AND EQ ISZERO DUP1 ISZERO PUSH2 0x1487 JUMPI POP PUSH1 0x0 DUP2 PUSH1 0x1 PUSH1 0x1 PUSH1 0x60 SHL SUB AND GT JUMPDEST ISZERO PUSH2 0x82E JUMPI PUSH1 0x1 PUSH1 0x1 PUSH1 0xA0 SHL SUB DUP4 AND ISZERO PUSH2 0x153F JUMPI PUSH1 0x1 PUSH1 0x1 PUSH1 0xA0 SHL SUB DUP4 AND PUSH1 0x0 SWAP1 DUP2 MSTORE PUSH1 0x7 PUSH1 0x20 MSTORE PUSH1 0x40 DUP2 KECCAK256 SLOAD PUSH4 0xFFFFFFFF AND SWAP1 DUP2 PUSH2 0x14C7 JUMPI PUSH1 0x0 PUSH2 0x1506 JUMP JUMPDEST PUSH1 0x1 PUSH1 0x1 PUSH1 0xA0 SHL SUB DUP6 AND PUSH1 0x0 SWAP1 DUP2 MSTORE PUSH1 0x6 PUSH1 0x20 SWAP1 DUP2 MSTORE PUSH1 0x40 DUP1 DUP4 KECCAK256 PUSH1 0x0 NOT DUP7 ADD PUSH4 0xFFFFFFFF AND DUP5 MSTORE SWAP1 SWAP2 MSTORE SWAP1 KECCAK256 SLOAD PUSH1 0x1 PUSH1 0x20 SHL SWAP1 DIV PUSH1 0x1 PUSH1 0x1 PUSH1 0x60 SHL SUB AND JUMPDEST SWAP1 POP PUSH1 0x0 PUSH2 0x152D DUP3 DUP6 PUSH1 0x40 MLOAD DUP1 PUSH1 0x60 ADD PUSH1 0x40 MSTORE DUP1 PUSH1 0x27 DUP2 MSTORE PUSH1 0x20 ADD PUSH2 0x2653 PUSH1 0x27 SWAP2 CODECOPY PUSH2 0x119A JUMP JUMPDEST SWAP1 POP PUSH2 0x153B DUP7 DUP5 DUP5 DUP5 PUSH2 0x16B3 JUMP JUMPDEST POP POP POP JUMPDEST PUSH1 0x1 PUSH1 0x1 PUSH1 0xA0 SHL SUB DUP3 AND ISZERO PUSH2 0x82E JUMPI PUSH1 0x1 PUSH1 0x1 PUSH1 0xA0 SHL SUB DUP3 AND PUSH1 0x0 SWAP1 DUP2 MSTORE PUSH1 0x7 PUSH1 0x20 MSTORE PUSH1 0x40 DUP2 KECCAK256 SLOAD PUSH4 0xFFFFFFFF AND SWAP1 DUP2 PUSH2 0x157A JUMPI PUSH1 0x0 PUSH2 0x15B9 JUMP JUMPDEST PUSH1 0x1 PUSH1 0x1 PUSH1 0xA0 SHL SUB DUP5 AND PUSH1 0x0 SWAP1 DUP2 MSTORE PUSH1 0x6 PUSH1 0x20 SWAP1 DUP2 MSTORE PUSH1 0x40 DUP1 DUP4 KECCAK256 PUSH1 0x0 NOT DUP7 ADD PUSH4 0xFFFFFFFF AND DUP5 MSTORE SWAP1 SWAP2 MSTORE SWAP1 KECCAK256 SLOAD PUSH1 0x1 PUSH1 0x20 SHL SWAP1 DIV PUSH1 0x1 PUSH1 0x1 PUSH1 0x60 SHL SUB AND JUMPDEST SWAP1 POP PUSH1 0x0 PUSH2 0x15E0 DUP3 DUP6 PUSH1 0x40 MLOAD DUP1 PUSH1 0x60 ADD PUSH1 0x40 MSTORE DUP1 PUSH1 0x26 DUP2 MSTORE PUSH1 0x20 ADD PUSH2 0x25FA PUSH1 0x26 SWAP2 CODECOPY PUSH2 0x1420 JUMP JUMPDEST SWAP1 POP PUSH2 0xD70 DUP6 DUP5 DUP5 DUP5 PUSH2 0x16B3 JUMP JUMPDEST PUSH1 0x1 PUSH1 0x1 PUSH1 0xA0 SHL SUB DUP1 DUP4 AND PUSH1 0x0 DUP2 DUP2 MSTORE PUSH1 0x5 PUSH1 0x20 DUP2 DUP2 MSTORE PUSH1 0x40 DUP1 DUP5 KECCAK256 DUP1 SLOAD PUSH1 0x4 DUP5 MSTORE DUP3 DUP7 KECCAK256 SLOAD SWAP5 SWAP1 SWAP4 MSTORE DUP8 DUP8 AND PUSH1 0x1 PUSH1 0x1 PUSH1 0xA0 SHL SUB NOT DUP5 AND DUP2 OR SWAP1 SWAP2 SSTORE SWAP1 MLOAD SWAP2 SWAP1 SWAP6 AND SWAP5 PUSH1 0x1 PUSH1 0x1 PUSH1 0x60 SHL SUB SWAP1 SWAP3 AND SWAP4 SWAP2 SWAP3 DUP6 SWAP3 SWAP2 PUSH32 0x3134E8A2E6D97E929A7E54011EA5485D7D196DD5F0BA4D4EF95803E8E3FC257F SWAP2 SWAP1 LOG4 PUSH2 0x1672 DUP3 DUP5 DUP4 PUSH2 0x145C JUMP JUMPDEST POP POP POP POP JUMP JUMPDEST CHAINID SWAP1 JUMP JUMPDEST PUSH1 0x0 DUP2 DUP4 PUSH2 0x169D JUMPI PUSH1 0x40 MLOAD PUSH3 0x461BCD PUSH1 0xE5 SHL DUP2 MSTORE PUSH1 0x4 ADD PUSH2 0x642 SWAP2 SWAP1 PUSH2 0x22E0 JUMP JUMPDEST POP PUSH1 0x0 DUP4 DUP6 DUP2 PUSH2 0x16A9 JUMPI INVALID JUMPDEST DIV SWAP6 SWAP5 POP POP POP POP POP JUMP JUMPDEST PUSH1 0x0 PUSH2 0x16D7 NUMBER PUSH1 0x40 MLOAD DUP1 PUSH1 0x60 ADD PUSH1 0x40 MSTORE DUP1 PUSH1 0x33 DUP2 MSTORE PUSH1 0x20 ADD PUSH2 0x2620 PUSH1 0x33 SWAP2 CODECOPY PUSH2 0x1868 JUMP JUMPDEST SWAP1 POP PUSH1 0x0 DUP5 PUSH4 0xFFFFFFFF AND GT DUP1 ISZERO PUSH2 0x1720 JUMPI POP PUSH1 0x1 PUSH1 0x1 PUSH1 0xA0 SHL SUB DUP6 AND PUSH1 0x0 SWAP1 DUP2 MSTORE PUSH1 0x6 PUSH1 0x20 SWAP1 DUP2 MSTORE PUSH1 0x40 DUP1 DUP4 KECCAK256 PUSH4 0xFFFFFFFF PUSH1 0x0 NOT DUP10 ADD DUP2 AND DUP6 MSTORE SWAP3 MSTORE SWAP1 SWAP2 KECCAK256 SLOAD DUP3 DUP3 AND SWAP2 AND EQ JUMPDEST ISZERO PUSH2 0x177F JUMPI PUSH1 0x1 PUSH1 0x1 PUSH1 0xA0 SHL SUB DUP6 AND PUSH1 0x0 SWAP1 DUP2 MSTORE PUSH1 0x6 PUSH1 0x20 SWAP1 DUP2 MSTORE PUSH1 0x40 DUP1 DUP4 KECCAK256 PUSH1 0x0 NOT DUP9 ADD PUSH4 0xFFFFFFFF AND DUP5 MSTORE SWAP1 SWAP2 MSTORE SWAP1 KECCAK256 DUP1 SLOAD PUSH16 0xFFFFFFFFFFFFFFFFFFFFFFFF00000000 NOT AND PUSH1 0x1 PUSH1 0x20 SHL PUSH1 0x1 PUSH1 0x1 PUSH1 0x60 SHL SUB DUP6 AND MUL OR SWAP1 SSTORE PUSH2 0x181E JUMP JUMPDEST PUSH1 0x40 DUP1 MLOAD DUP1 DUP3 ADD DUP3 MSTORE PUSH4 0xFFFFFFFF DUP1 DUP5 AND DUP3 MSTORE PUSH1 0x1 PUSH1 0x1 PUSH1 0x60 SHL SUB DUP1 DUP7 AND PUSH1 0x20 DUP1 DUP6 ADD SWAP2 DUP3 MSTORE PUSH1 0x1 PUSH1 0x1 PUSH1 0xA0 SHL SUB DUP12 AND PUSH1 0x0 DUP2 DUP2 MSTORE PUSH1 0x6 DUP4 MSTORE DUP8 DUP2 KECCAK256 DUP13 DUP8 AND DUP3 MSTORE DUP4 MSTORE DUP8 DUP2 KECCAK256 SWAP7 MLOAD DUP8 SLOAD SWAP5 MLOAD SWAP1 SWAP6 AND PUSH1 0x1 PUSH1 0x20 SHL MUL PUSH16 0xFFFFFFFFFFFFFFFFFFFFFFFF00000000 NOT SWAP6 DUP8 AND PUSH4 0xFFFFFFFF NOT SWAP6 DUP7 AND OR SWAP6 SWAP1 SWAP6 AND SWAP5 SWAP1 SWAP5 OR SWAP1 SWAP6 SSTORE SWAP4 DUP3 MSTORE PUSH1 0x7 SWAP1 SWAP4 MSTORE SWAP3 SWAP1 SWAP3 KECCAK256 DUP1 SLOAD PUSH1 0x1 DUP9 ADD SWAP1 SWAP4 AND SWAP3 SWAP1 SWAP2 AND SWAP2 SWAP1 SWAP2 OR SWAP1 SSTORE JUMPDEST DUP5 PUSH1 0x1 PUSH1 0x1 PUSH1 0xA0 SHL SUB AND PUSH32 0xDEC2BACDD2F05B59DE34DA9B523DFF8BE42E5E38E818C82FDB0BAE774387A724 DUP5 DUP5 PUSH1 0x40 MLOAD PUSH2 0x1859 SWAP3 SWAP2 SWAP1 PUSH2 0x2444 JUMP JUMPDEST PUSH1 0x40 MLOAD DUP1 SWAP2 SUB SWAP1 LOG2 POP POP POP POP POP JUMP JUMPDEST PUSH1 0x0 DUP2 PUSH1 0x1 PUSH1 0x20 SHL DUP5 LT PUSH2 0x1192 JUMPI PUSH1 0x40 MLOAD PUSH3 0x461BCD PUSH1 0xE5 SHL DUP2 MSTORE PUSH1 0x4 ADD PUSH2 0x642 SWAP2 SWAP1 PUSH2 0x22E0 JUMP JUMPDEST PUSH1 0x40 DUP1 MLOAD DUP1 DUP3 ADD SWAP1 SWAP2 MSTORE PUSH1 0x0 DUP1 DUP3 MSTORE PUSH1 0x20 DUP3 ADD MSTORE SWAP1 JUMP JUMPDEST DUP1 CALLDATALOAD PUSH2 0x495 DUP2 PUSH2 0x24EC JUMP JUMPDEST DUP1 CALLDATALOAD PUSH2 0x495 DUP2 PUSH2 0x2500 JUMP JUMPDEST DUP1 CALLDATALOAD PUSH2 0x495 DUP2 PUSH2 0x2509 JUMP JUMPDEST DUP1 CALLDATALOAD PUSH2 0x495 DUP2 PUSH2 0x2512 JUMP JUMPDEST PUSH1 0x0 PUSH1 0x20 DUP3 DUP5 SUB SLT ISZERO PUSH2 0x18E4 JUMPI PUSH1 0x0 DUP1 REVERT JUMPDEST PUSH1 0x0 PUSH2 0x18F0 DUP5 DUP5 PUSH2 0x18A6 JUMP JUMPDEST SWAP5 SWAP4 POP POP POP POP JUMP JUMPDEST PUSH1 0x0 DUP1 PUSH1 0x40 DUP4 DUP6 SUB SLT ISZERO PUSH2 0x190B JUMPI PUSH1 0x0 DUP1 REVERT JUMPDEST PUSH1 0x0 PUSH2 0x1917 DUP6 DUP6 PUSH2 0x18A6 JUMP JUMPDEST SWAP3 POP POP PUSH1 0x20 PUSH2 0x1928 DUP6 DUP3 DUP7 ADD PUSH2 0x18A6 JUMP JUMPDEST SWAP2 POP POP SWAP3 POP SWAP3 SWAP1 POP JUMP JUMPDEST PUSH1 0x0 DUP1 PUSH1 0x0 PUSH1 0x60 DUP5 DUP7 SUB SLT ISZERO PUSH2 0x1947 JUMPI PUSH1 0x0 DUP1 REVERT JUMPDEST PUSH1 0x0 PUSH2 0x1953 DUP7 DUP7 PUSH2 0x18A6 JUMP JUMPDEST SWAP4 POP POP PUSH1 0x20 PUSH2 0x1964 DUP7 DUP3 DUP8 ADD PUSH2 0x18A6 JUMP JUMPDEST SWAP3 POP POP PUSH1 0x40 PUSH2 0x1975 DUP7 DUP3 DUP8 ADD PUSH2 0x18B1 JUMP JUMPDEST SWAP2 POP POP SWAP3 POP SWAP3 POP SWAP3 JUMP JUMPDEST PUSH1 0x0 DUP1 PUSH1 0x0 DUP1 PUSH1 0x0 DUP1 PUSH1 0x0 PUSH1 0xE0 DUP9 DUP11 SUB SLT ISZERO PUSH2 0x199A JUMPI PUSH1 0x0 DUP1 REVERT JUMPDEST PUSH1 0x0 PUSH2 0x19A6 DUP11 DUP11 PUSH2 0x18A6 JUMP JUMPDEST SWAP8 POP POP PUSH1 0x20 PUSH2 0x19B7 DUP11 DUP3 DUP12 ADD PUSH2 0x18A6 JUMP JUMPDEST SWAP7 POP POP PUSH1 0x40 PUSH2 0x19C8 DUP11 DUP3 DUP12 ADD PUSH2 0x18B1 JUMP JUMPDEST SWAP6 POP POP PUSH1 0x60 PUSH2 0x19D9 DUP11 DUP3 DUP12 ADD PUSH2 0x18B1 JUMP JUMPDEST SWAP5 POP POP PUSH1 0x80 PUSH2 0x19EA DUP11 DUP3 DUP12 ADD PUSH2 0x18C7 JUMP JUMPDEST SWAP4 POP POP PUSH1 0xA0 PUSH2 0x19FB DUP11 DUP3 DUP12 ADD PUSH2 0x18B1 JUMP JUMPDEST SWAP3 POP POP PUSH1 0xC0 PUSH2 0x1A0C DUP11 DUP3 DUP12 ADD PUSH2 0x18B1 JUMP JUMPDEST SWAP2 POP POP SWAP3 SWAP6 SWAP9 SWAP2 SWAP5 SWAP8 POP SWAP3 SWAP6 POP JUMP JUMPDEST PUSH1 0x0 DUP1 PUSH1 0x40 DUP4 DUP6 SUB SLT ISZERO PUSH2 0x1A2E JUMPI PUSH1 0x0 DUP1 REVERT JUMPDEST PUSH1 0x0 PUSH2 0x1A3A DUP6 DUP6 PUSH2 0x18A6 JUMP JUMPDEST SWAP3 POP POP PUSH1 0x20 PUSH2 0x1928 DUP6 DUP3 DUP7 ADD PUSH2 0x18B1 JUMP JUMPDEST PUSH1 0x0 DUP1 PUSH1 0x0 DUP1 PUSH1 0x0 DUP1 PUSH1 0xC0 DUP8 DUP10 SUB SLT ISZERO PUSH2 0x1A64 JUMPI PUSH1 0x0 DUP1 REVERT JUMPDEST PUSH1 0x0 PUSH2 0x1A70 DUP10 DUP10 PUSH2 0x18A6 JUMP JUMPDEST SWAP7 POP POP PUSH1 0x20 PUSH2 0x1A81 DUP10 DUP3 DUP11 ADD PUSH2 0x18B1 JUMP JUMPDEST SWAP6 POP POP PUSH1 0x40 PUSH2 0x1A92 DUP10 DUP3 DUP11 ADD PUSH2 0x18B1 JUMP JUMPDEST SWAP5 POP POP PUSH1 0x60 PUSH2 0x1AA3 DUP10 DUP3 DUP11 ADD PUSH2 0x18C7 JUMP JUMPDEST SWAP4 POP POP PUSH1 0x80 PUSH2 0x1AB4 DUP10 DUP3 DUP11 ADD PUSH2 0x18B1 JUMP JUMPDEST SWAP3 POP POP PUSH1 0xA0 PUSH2 0x1AC5 DUP10 DUP3 DUP11 ADD PUSH2 0x18B1 JUMP JUMPDEST SWAP2 POP POP SWAP3 SWAP6 POP SWAP3 SWAP6 POP SWAP3 SWAP6 JUMP JUMPDEST PUSH1 0x0 DUP1 PUSH1 0x40 DUP4 DUP6 SUB SLT ISZERO PUSH2 0x1AE5 JUMPI PUSH1 0x0 DUP1 REVERT JUMPDEST PUSH1 0x0 PUSH2 0x1AF1 DUP6 DUP6 PUSH2 0x18A6 JUMP JUMPDEST SWAP3 POP POP PUSH1 0x20 PUSH2 0x1928 DUP6 DUP3 DUP7 ADD PUSH2 0x18BC JUMP JUMPDEST PUSH2 0x1B0B DUP2 PUSH2 0x2471 JUMP JUMPDEST DUP3 MSTORE POP POP JUMP JUMPDEST PUSH2 0x1B0B DUP2 PUSH2 0x247C JUMP JUMPDEST PUSH2 0x1B0B DUP2 PUSH2 0x2481 JUMP JUMPDEST PUSH2 0x1B0B PUSH2 0x1B2F DUP3 PUSH2 0x2481 JUMP JUMPDEST PUSH2 0x2481 JUMP JUMPDEST PUSH1 0x0 PUSH2 0x1B3F DUP3 PUSH2 0x245F JUMP JUMPDEST PUSH2 0x1B49 DUP2 DUP6 PUSH2 0x2463 JUMP JUMPDEST SWAP4 POP PUSH2 0x1B59 DUP2 DUP6 PUSH1 0x20 DUP7 ADD PUSH2 0x24B6 JUMP JUMPDEST PUSH2 0x1B62 DUP2 PUSH2 0x24E2 JUMP JUMPDEST SWAP1 SWAP4 ADD SWAP4 SWAP3 POP POP POP JUMP JUMPDEST PUSH1 0x0 PUSH2 0x1B79 PUSH1 0x25 DUP4 PUSH2 0x2463 JUMP JUMPDEST PUSH32 0x556E693A3A64656C656761746542795369673A207369676E6174757265206578 DUP2 MSTORE PUSH5 0x1C1A5C9959 PUSH1 0xDA SHL PUSH1 0x20 DUP3 ADD MSTORE PUSH1 0x40 ADD SWAP3 SWAP2 POP POP JUMP JUMPDEST PUSH1 0x0 PUSH2 0x1BC0 PUSH1 0x2 DUP4 PUSH2 0x246C JUMP JUMPDEST PUSH2 0x1901 PUSH1 0xF0 SHL DUP2 MSTORE PUSH1 0x2 ADD SWAP3 SWAP2 POP POP JUMP JUMPDEST PUSH1 0x0 PUSH2 0x1BDE PUSH1 0x1B DUP4 PUSH2 0x2463 JUMP JUMPDEST PUSH32 0x536166654D6174683A206164646974696F6E206F766572666C6F770000000000 DUP2 MSTORE PUSH1 0x20 ADD SWAP3 SWAP2 POP POP JUMP JUMPDEST PUSH1 0x0 PUSH2 0x1C17 PUSH1 0x25 DUP4 PUSH2 0x2463 JUMP JUMPDEST PUSH32 0x556E693A3A64656C656761746542795369673A20696E76616C6964207369676E DUP2 MSTORE PUSH5 0x6174757265 PUSH1 0xD8 SHL PUSH1 0x20 DUP3 ADD MSTORE PUSH1 0x40 ADD SWAP3 SWAP2 POP POP JUMP JUMPDEST PUSH1 0x0 PUSH2 0x1C5E PUSH1 0x26 DUP4 PUSH2 0x2463 JUMP JUMPDEST PUSH32 0x556E693A3A6765745072696F72566F7465733A206E6F74207965742064657465 DUP2 MSTORE PUSH6 0x1C9B5A5B9959 PUSH1 0xD2 SHL PUSH1 0x20 DUP3 ADD MSTORE PUSH1 0x40 ADD SWAP3 SWAP2 POP POP JUMP JUMPDEST PUSH1 0x0 PUSH2 0x1CA6 PUSH1 0x2E DUP4 PUSH2 0x2463 JUMP JUMPDEST PUSH32 0x556E693A3A6D696E743A2063616E6E6F74207472616E7366657220746F207468 DUP2 MSTORE PUSH14 0x65207A65726F2061646472657373 PUSH1 0x90 SHL PUSH1 0x20 DUP3 ADD MSTORE PUSH1 0x40 ADD SWAP3 SWAP2 POP POP JUMP JUMPDEST PUSH1 0x0 PUSH2 0x1CF6 PUSH1 0x52 DUP4 PUSH2 0x246C JUMP JUMPDEST PUSH32 0x5065726D69742861646472657373206F776E65722C6164647265737320737065 DUP2 MSTORE PUSH32 0x6E6465722C75696E743235362076616C75652C75696E74323536206E6F6E6365 PUSH1 0x20 DUP3 ADD MSTORE PUSH18 0x2C75696E7432353620646561646C696E6529 PUSH1 0x70 SHL PUSH1 0x40 DUP3 ADD MSTORE PUSH1 0x52 ADD SWAP3 SWAP2 POP POP JUMP JUMPDEST PUSH1 0x0 PUSH2 0x1D70 PUSH1 0x22 DUP4 PUSH2 0x2463 JUMP JUMPDEST PUSH32 0x556E693A3A6D696E743A206D696E74696E67206E6F7420616C6C6F7765642079 DUP2 MSTORE PUSH2 0x195D PUSH1 0xF2 SHL PUSH1 0x20 DUP3 ADD MSTORE PUSH1 0x40 ADD SWAP3 SWAP2 POP POP JUMP JUMPDEST PUSH1 0x0 PUSH2 0x1DB4 PUSH1 0x43 DUP4 PUSH2 0x246C JUMP JUMPDEST PUSH32 0x454950373132446F6D61696E28737472696E67206E616D652C75696E74323536 DUP2 MSTORE PUSH32 0x20636861696E49642C6164647265737320766572696679696E67436F6E747261 PUSH1 0x20 DUP3 ADD MSTORE PUSH3 0x637429 PUSH1 0xE8 SHL PUSH1 0x40 DUP3 ADD MSTORE PUSH1 0x43 ADD SWAP3 SWAP2 POP POP JUMP JUMPDEST PUSH1 0x0 PUSH2 0x1E1F PUSH1 0x39 DUP4 PUSH2 0x2463 JUMP JUMPDEST PUSH32 0x556E693A3A5F7472616E73666572546F6B656E733A2063616E6E6F7420747261 DUP2 MSTORE PUSH32 0x6E7366657220746F20746865207A65726F206164647265737300000000000000 PUSH1 0x20 DUP3 ADD MSTORE PUSH1 0x40 ADD SWAP3 SWAP2 POP POP JUMP JUMPDEST PUSH1 0x0 PUSH2 0x1E7E PUSH1 0x21 DUP4 PUSH2 0x2463 JUMP JUMPDEST PUSH32 0x536166654D6174683A206D756C7469706C69636174696F6E206F766572666C6F DUP2 MSTORE PUSH1 0x77 PUSH1 0xF8 SHL PUSH1 0x20 DUP3 ADD MSTORE PUSH1 0x40 ADD SWAP3 SWAP2 POP POP JUMP JUMPDEST PUSH1 0x0 PUSH2 0x1EC1 PUSH1 0x1C DUP4 PUSH2 0x2463 JUMP JUMPDEST PUSH32 0x556E693A3A6D696E743A206578636565646564206D696E742063617000000000 DUP2 MSTORE PUSH1 0x20 ADD SWAP3 SWAP2 POP POP JUMP JUMPDEST PUSH1 0x0 PUSH2 0x1EFA PUSH1 0x23 DUP4 PUSH2 0x2463 JUMP JUMPDEST PUSH32 0x556E693A3A6D696E743A206F6E6C7920746865206D696E7465722063616E206D DUP2 MSTORE PUSH3 0x1A5B9D PUSH1 0xEA SHL PUSH1 0x20 DUP3 ADD MSTORE PUSH1 0x40 ADD SWAP3 SWAP2 POP POP JUMP JUMPDEST PUSH1 0x0 PUSH2 0x1F3F PUSH1 0x3D DUP4 PUSH2 0x2463 JUMP JUMPDEST PUSH32 0x556E693A3A7365744D696E7465723A206F6E6C7920746865206D696E74657220 DUP2 MSTORE PUSH32 0x63616E206368616E676520746865206D696E7465722061646472657373000000 PUSH1 0x20 DUP3 ADD MSTORE PUSH1 0x40 ADD SWAP3 SWAP2 POP POP JUMP JUMPDEST PUSH1 0x0 PUSH2 0x1F9E PUSH1 0x21 DUP4 PUSH2 0x2463 JUMP JUMPDEST PUSH32 0x556E693A3A64656C656761746542795369673A20696E76616C6964206E6F6E63 DUP2 MSTORE PUSH1 0x65 PUSH1 0xF8 SHL PUSH1 0x20 DUP3 ADD MSTORE PUSH1 0x40 ADD SWAP3 SWAP2 POP POP JUMP JUMPDEST PUSH1 0x0 PUSH2 0x1FE1 PUSH1 0x3B DUP4 PUSH2 0x2463 JUMP JUMPDEST PUSH32 0x556E693A3A5F7472616E73666572546F6B656E733A2063616E6E6F7420747261 DUP2 MSTORE PUSH32 0x6E736665722066726F6D20746865207A65726F20616464726573730000000000 PUSH1 0x20 DUP3 ADD MSTORE PUSH1 0x40 ADD SWAP3 SWAP2 POP POP JUMP JUMPDEST PUSH1 0x0 PUSH2 0x2040 PUSH1 0x1E DUP4 PUSH2 0x2463 JUMP JUMPDEST PUSH32 0x556E693A3A7065726D69743A207369676E617475726520657870697265640000 DUP2 MSTORE PUSH1 0x20 ADD SWAP3 SWAP2 POP POP JUMP JUMPDEST PUSH1 0x0 PUSH2 0x2079 PUSH1 0x3A DUP4 PUSH2 0x246C JUMP JUMPDEST PUSH32 0x44656C65676174696F6E28616464726573732064656C6567617465652C75696E DUP2 MSTORE PUSH32 0x74323536206E6F6E63652C75696E743235362065787069727929000000000000 PUSH1 0x20 DUP3 ADD MSTORE PUSH1 0x3A ADD SWAP3 SWAP2 POP POP JUMP JUMPDEST PUSH1 0x0 PUSH2 0x20D8 PUSH1 0x1E DUP4 PUSH2 0x2463 JUMP JUMPDEST PUSH32 0x556E693A3A7065726D69743A20696E76616C6964207369676E61747572650000 DUP2 MSTORE PUSH1 0x20 ADD SWAP3 SWAP2 POP POP JUMP JUMPDEST PUSH1 0x0 PUSH2 0x2111 PUSH1 0x19 DUP4 PUSH2 0x2463 JUMP JUMPDEST PUSH32 0x556E693A3A7065726D69743A20756E617574686F72697A656400000000000000 DUP2 MSTORE PUSH1 0x20 ADD SWAP3 SWAP2 POP POP JUMP JUMPDEST PUSH2 0x1B0B DUP2 PUSH2 0x2490 JUMP JUMPDEST PUSH2 0x1B0B DUP2 PUSH2 0x2499 JUMP JUMPDEST PUSH2 0x1B0B DUP2 PUSH2 0x24AB JUMP JUMPDEST PUSH2 0x1B0B DUP2 PUSH2 0x249F JUMP JUMPDEST PUSH1 0x0 PUSH2 0x216C DUP3 PUSH2 0x1BB3 JUMP JUMPDEST SWAP2 POP PUSH2 0x2178 DUP3 DUP6 PUSH2 0x1B23 JUMP JUMPDEST PUSH1 0x20 DUP3 ADD SWAP2 POP PUSH2 0x2188 DUP3 DUP5 PUSH2 0x1B23 JUMP JUMPDEST POP PUSH1 0x20 ADD SWAP3 SWAP2 POP POP JUMP JUMPDEST PUSH1 0x0 PUSH2 0x495 DUP3 PUSH2 0x1CE9 JUMP JUMPDEST PUSH1 0x0 PUSH2 0x495 DUP3 PUSH2 0x1DA7 JUMP JUMPDEST PUSH1 0x0 PUSH2 0x495 DUP3 PUSH2 0x206C JUMP JUMPDEST PUSH1 0x20 DUP2 ADD PUSH2 0x495 DUP3 DUP5 PUSH2 0x1B02 JUMP JUMPDEST PUSH1 0x40 DUP2 ADD PUSH2 0x21CF DUP3 DUP6 PUSH2 0x1B02 JUMP JUMPDEST PUSH2 0x5FA PUSH1 0x20 DUP4 ADD DUP5 PUSH2 0x1B02 JUMP JUMPDEST PUSH1 0x20 DUP2 ADD PUSH2 0x495 DUP3 DUP5 PUSH2 0x1B11 JUMP JUMPDEST PUSH1 0x20 DUP2 ADD PUSH2 0x495 DUP3 DUP5 PUSH2 0x1B1A JUMP JUMPDEST PUSH1 0xC0 DUP2 ADD PUSH2 0x2206 DUP3 DUP10 PUSH2 0x1B1A JUMP JUMPDEST PUSH2 0x2213 PUSH1 0x20 DUP4 ADD DUP9 PUSH2 0x1B02 JUMP JUMPDEST PUSH2 0x2220 PUSH1 0x40 DUP4 ADD DUP8 PUSH2 0x1B02 JUMP JUMPDEST PUSH2 0x222D PUSH1 0x60 DUP4 ADD DUP7 PUSH2 0x1B1A JUMP JUMPDEST PUSH2 0x223A PUSH1 0x80 DUP4 ADD DUP6 PUSH2 0x1B1A JUMP JUMPDEST PUSH2 0x2247 PUSH1 0xA0 DUP4 ADD DUP5 PUSH2 0x1B1A JUMP JUMPDEST SWAP8 SWAP7 POP POP POP POP POP POP POP JUMP JUMPDEST PUSH1 0x80 DUP2 ADD PUSH2 0x2260 DUP3 DUP8 PUSH2 0x1B1A JUMP JUMPDEST PUSH2 0x226D PUSH1 0x20 DUP4 ADD DUP7 PUSH2 0x1B02 JUMP JUMPDEST PUSH2 0x227A PUSH1 0x40 DUP4 ADD DUP6 PUSH2 0x1B1A JUMP JUMPDEST PUSH2 0x2287 PUSH1 0x60 DUP4 ADD DUP5 PUSH2 0x1B1A JUMP JUMPDEST SWAP6 SWAP5 POP POP POP POP POP JUMP JUMPDEST PUSH1 0x80 DUP2 ADD PUSH2 0x229E DUP3 DUP8 PUSH2 0x1B1A JUMP JUMPDEST PUSH2 0x22AB PUSH1 0x20 DUP4 ADD DUP7 PUSH2 0x1B1A JUMP JUMPDEST PUSH2 0x22B8 PUSH1 0x40 DUP4 ADD DUP6 PUSH2 0x1B1A JUMP JUMPDEST PUSH2 0x2287 PUSH1 0x60 DUP4 ADD DUP5 PUSH2 0x1B02 JUMP JUMPDEST PUSH1 0x80 DUP2 ADD PUSH2 0x22D3 DUP3 DUP8 PUSH2 0x1B1A JUMP JUMPDEST PUSH2 0x226D PUSH1 0x20 DUP4 ADD DUP7 PUSH2 0x2146 JUMP JUMPDEST PUSH1 0x20 DUP1 DUP3 MSTORE DUP2 ADD PUSH2 0x5FA DUP2 DUP5 PUSH2 0x1B34 JUMP JUMPDEST PUSH1 0x20 DUP1 DUP3 MSTORE DUP2 ADD PUSH2 0x495 DUP2 PUSH2 0x1B6C JUMP JUMPDEST PUSH1 0x20 DUP1 DUP3 MSTORE DUP2 ADD PUSH2 0x495 DUP2 PUSH2 0x1BD1 JUMP JUMPDEST PUSH1 0x20 DUP1 DUP3 MSTORE DUP2 ADD PUSH2 0x495 DUP2 PUSH2 0x1C0A JUMP JUMPDEST PUSH1 0x20 DUP1 DUP3 MSTORE DUP2 ADD PUSH2 0x495 DUP2 PUSH2 0x1C51 JUMP JUMPDEST PUSH1 0x20 DUP1 DUP3 MSTORE DUP2 ADD PUSH2 0x495 DUP2 PUSH2 0x1C99 JUMP JUMPDEST PUSH1 0x20 DUP1 DUP3 MSTORE DUP2 ADD PUSH2 0x495 DUP2 PUSH2 0x1D63 JUMP JUMPDEST PUSH1 0x20 DUP1 DUP3 MSTORE DUP2 ADD PUSH2 0x495 DUP2 PUSH2 0x1E12 JUMP JUMPDEST PUSH1 0x20 DUP1 DUP3 MSTORE DUP2 ADD PUSH2 0x495 DUP2 PUSH2 0x1E71 JUMP JUMPDEST PUSH1 0x20 DUP1 DUP3 MSTORE DUP2 ADD PUSH2 0x495 DUP2 PUSH2 0x1EB4 JUMP JUMPDEST PUSH1 0x20 DUP1 DUP3 MSTORE DUP2 ADD PUSH2 0x495 DUP2 PUSH2 0x1EED JUMP JUMPDEST PUSH1 0x20 DUP1 DUP3 MSTORE DUP2 ADD PUSH2 0x495 DUP2 PUSH2 0x1F32 JUMP JUMPDEST PUSH1 0x20 DUP1 DUP3 MSTORE DUP2 ADD PUSH2 0x495 DUP2 PUSH2 0x1F91 JUMP JUMPDEST PUSH1 0x20 DUP1 DUP3 MSTORE DUP2 ADD PUSH2 0x495 DUP2 PUSH2 0x1FD4 JUMP JUMPDEST PUSH1 0x20 DUP1 DUP3 MSTORE DUP2 ADD PUSH2 0x495 DUP2 PUSH2 0x2033 JUMP JUMPDEST PUSH1 0x20 DUP1 DUP3 MSTORE DUP2 ADD PUSH2 0x495 DUP2 PUSH2 0x20CB JUMP JUMPDEST PUSH1 0x20 DUP1 DUP3 MSTORE DUP2 ADD PUSH2 0x495 DUP2 PUSH2 0x2104 JUMP JUMPDEST PUSH1 0x20 DUP2 ADD PUSH2 0x495 DUP3 DUP5 PUSH2 0x213D JUMP JUMPDEST PUSH1 0x40 DUP2 ADD PUSH2 0x240D DUP3 DUP6 PUSH2 0x213D JUMP JUMPDEST PUSH2 0x5FA PUSH1 0x20 DUP4 ADD DUP5 PUSH2 0x2158 JUMP JUMPDEST PUSH1 0x20 DUP2 ADD PUSH2 0x495 DUP3 DUP5 PUSH2 0x2146 JUMP JUMPDEST PUSH1 0x20 DUP2 ADD PUSH2 0x495 DUP3 DUP5 PUSH2 0x214F JUMP JUMPDEST PUSH1 0x20 DUP2 ADD PUSH2 0x495 DUP3 DUP5 PUSH2 0x2158 JUMP JUMPDEST PUSH1 0x40 DUP2 ADD PUSH2 0x2452 DUP3 DUP6 PUSH2 0x214F JUMP JUMPDEST PUSH2 0x5FA PUSH1 0x20 DUP4 ADD DUP5 PUSH2 0x214F JUMP JUMPDEST MLOAD SWAP1 JUMP JUMPDEST SWAP1 DUP2 MSTORE PUSH1 0x20 ADD SWAP1 JUMP JUMPDEST SWAP2 SWAP1 POP JUMP JUMPDEST PUSH1 0x0 PUSH2 0x495 DUP3 PUSH2 0x2484 JUMP JUMPDEST ISZERO ISZERO SWAP1 JUMP JUMPDEST SWAP1 JUMP JUMPDEST PUSH1 0x1 PUSH1 0x1 PUSH1 0xA0 SHL SUB AND SWAP1 JUMP JUMPDEST PUSH4 0xFFFFFFFF AND SWAP1 JUMP JUMPDEST PUSH1 0xFF AND SWAP1 JUMP JUMPDEST PUSH1 0x1 PUSH1 0x1 PUSH1 0x60 SHL SUB AND SWAP1 JUMP JUMPDEST PUSH1 0x0 PUSH2 0x495 DUP3 PUSH2 0x249F JUMP JUMPDEST PUSH1 0x0 JUMPDEST DUP4 DUP2 LT ISZERO PUSH2 0x24D1 JUMPI DUP2 DUP2 ADD MLOAD DUP4 DUP3 ADD MSTORE PUSH1 0x20 ADD PUSH2 0x24B9 JUMP JUMPDEST DUP4 DUP2 GT ISZERO PUSH2 0x1672 JUMPI POP POP PUSH1 0x0 SWAP2 ADD MSTORE JUMP JUMPDEST PUSH1 0x1F ADD PUSH1 0x1F NOT AND SWAP1 JUMP JUMPDEST PUSH2 0x24F5 DUP2 PUSH2 0x2471 JUMP JUMPDEST DUP2 EQ PUSH2 0x860 JUMPI PUSH1 0x0 DUP1 REVERT JUMPDEST PUSH2 0x24F5 DUP2 PUSH2 0x2481 JUMP JUMPDEST PUSH2 0x24F5 DUP2 PUSH2 0x2490 JUMP JUMPDEST PUSH2 0x24F5 DUP2 PUSH2 0x2499 JUMP INVALID SSTORE PUSH15 0x693A3A6D696E743A207472616E7366 PUSH6 0x7220616D6F75 PUSH15 0x74206F766572666C6F7773556E693A GASPRICE PUSH21 0x72616E7366657246726F6D3A207472616E73666572 KECCAK256 PUSH2 0x6D6F PUSH22 0x6E742065786365656473207370656E64657220616C6C PUSH16 0x77616E6365556E693A3A6D696E743A20 PUSH21 0x6F74616C537570706C792065786365656473203936 KECCAK256 PUSH3 0x697473 SSTORE PUSH15 0x693A3A5F7472616E73666572546F6B PUSH6 0x6E733A207472 PUSH2 0x6E73 PUSH7 0x657220616D6F75 PUSH15 0x7420657863656564732062616C616E PUSH4 0x65556E69 GASPRICE GASPRICE PUSH17 0x65726D69743A20616D6F756E7420657863 PUSH6 0x656473203936 KECCAK256 PUSH3 0x697473 SSTORE PUSH15 0x693A3A5F6D6F7665566F7465733A20 PUSH23 0x6F746520616D6F756E74206F766572666C6F7773556E69 GASPRICE GASPRICE 0x5F PUSH24 0x72697465436865636B706F696E743A20626C6F636B206E75 PUSH14 0x6265722065786365656473203332 KECCAK256 PUSH3 0x697473 SSTORE PUSH15 0x693A3A5F6D6F7665566F7465733A20 PUSH23 0x6F746520616D6F756E7420756E646572666C6F7773556E PUSH10 0x3A3A7472616E73666572 GASPRICE KECCAK256 PUSH2 0x6D6F PUSH22 0x6E7420657863656564732039362062697473556E693A GASPRICE PUSH14 0x696E743A20616D6F756E74206578 PUSH4 0x65656473 KECCAK256 CODECOPY CALLDATASIZE KECCAK256 PUSH3 0x697473 SSTORE PUSH15 0x693A3A617070726F76653A20616D6F PUSH22 0x6E7420657863656564732039362062697473556E693A GASPRICE 0x5F PUSH21 0x72616E73666572546F6B656E733A207472616E7366 PUSH6 0x7220616D6F75 PUSH15 0x74206F766572666C6F7773A365627A PUSH27 0x72315820B228F14032F179F6E81F367B78FF3FF6CDC127C0F42B53 0xF9 SHR XOR 0xEC DUP16 0xF8 SGT 0x5C 0xBE PUSH13 0x6578706572696D656E74616CF5 PUSH5 0x736F6C6343 STOP SDIV GT STOP BLOCKHASH "
				},
				"gasEstimates": {
					"creation": {
						"codeDepositCost": "2013800",
						"executionCost": "infinite",
						"totalCost": "infinite"
					},
					"external": {
						"DELEGATION_TYPEHASH()": "infinite",
						"DOMAIN_TYPEHASH()": "infinite",
						"PERMIT_TYPEHASH()": "infinite",
						"allowance(address,address)": "infinite",
						"approve(address,uint256)": "infinite",
						"balanceOf(address)": "infinite",
						"checkpoints(address,uint32)": "infinite",
						"decimals()": "395",
						"delegate(address)": "infinite",
						"delegateBySig(address,uint256,uint256,uint8,bytes32,bytes32)": "infinite",
						"delegates(address)": "infinite",
						"getCurrentVotes(address)": "infinite",
						"getPriorVotes(address,uint256)": "infinite",
						"minimumTimeBetweenMints()": "394",
						"mint(address,uint256)": "infinite",
						"mintCap()": "395",
						"minter()": "infinite",
						"mintingAllowedAfter()": "1167",
						"name()": "infinite",
						"nonces(address)": "infinite",
						"numCheckpoints(address)": "infinite",
						"permit(address,address,uint256,uint256,uint8,bytes32,bytes32)": "infinite",
						"setMinter(address)": "infinite",
						"symbol()": "infinite",
						"totalSupply()": "1189",
						"transfer(address,uint256)": "infinite",
						"transferFrom(address,address,uint256)": "infinite"
					},
					"internal": {
						"_delegate(address,address)": "infinite",
						"_moveDelegates(address,address,uint96)": "infinite",
						"_transferTokens(address,address,uint96)": "infinite",
						"_writeCheckpoint(address,uint32,uint96,uint96)": "infinite",
						"add96(uint96,uint96,string memory)": "infinite",
						"getChainId()": "14",
						"safe32(uint256,string memory)": "infinite",
						"safe96(uint256,string memory)": "infinite",
						"sub96(uint96,uint96,string memory)": "infinite"
					}
				},
				"methodIdentifiers": {
					"DELEGATION_TYPEHASH()": "e7a324dc",
					"DOMAIN_TYPEHASH()": "20606b70",
					"PERMIT_TYPEHASH()": "30adf81f",
					"allowance(address,address)": "dd62ed3e",
					"approve(address,uint256)": "095ea7b3",
					"balanceOf(address)": "70a08231",
					"checkpoints(address,uint32)": "f1127ed8",
					"decimals()": "313ce567",
					"delegate(address)": "5c19a95c",
					"delegateBySig(address,uint256,uint256,uint8,bytes32,bytes32)": "c3cda520",
					"delegates(address)": "587cde1e",
					"getCurrentVotes(address)": "b4b5ea57",
					"getPriorVotes(address,uint256)": "782d6fe1",
					"minimumTimeBetweenMints()": "5c11d62f",
					"mint(address,uint256)": "40c10f19",
					"mintCap()": "76c71ca1",
					"minter()": "07546172",
					"mintingAllowedAfter()": "30b36cef",
					"name()": "06fdde03",
					"nonces(address)": "7ecebe00",
					"numCheckpoints(address)": "6fcfff45",
					"permit(address,address,uint256,uint256,uint8,bytes32,bytes32)": "d505accf",
					"setMinter(address)": "fca3b5aa",
					"symbol()": "95d89b41",
					"totalSupply()": "18160ddd",
					"transfer(address,uint256)": "a9059cbb",
					"transferFrom(address,address,uint256)": "23b872dd"
				}
			},
			"storageLayout": {
				"storage": [
					{
						"astId": 262,
						"contract": "kcbreward.sol:Uni",
						"label": "totalSupply",
						"offset": 0,
						"slot": "0",
						"type": "t_uint256"
					},
					{
						"astId": 264,
						"contract": "kcbreward.sol:Uni",
						"label": "minter",
						"offset": 0,
						"slot": "1",
						"type": "t_address"
					},
					{
						"astId": 266,
						"contract": "kcbreward.sol:Uni",
						"label": "mintingAllowedAfter",
						"offset": 0,
						"slot": "2",
						"type": "t_uint256"
					},
					{
						"astId": 280,
						"contract": "kcbreward.sol:Uni",
						"label": "allowances",
						"offset": 0,
						"slot": "3",
						"type": "t_mapping(t_address,t_mapping(t_address,t_uint96))"
					},
					{
						"astId": 284,
						"contract": "kcbreward.sol:Uni",
						"label": "balances",
						"offset": 0,
						"slot": "4",
						"type": "t_mapping(t_address,t_uint96)"
					},
					{
						"astId": 288,
						"contract": "kcbreward.sol:Uni",
						"label": "delegates",
						"offset": 0,
						"slot": "5",
						"type": "t_mapping(t_address,t_address)"
					},
					{
						"astId": 299,
						"contract": "kcbreward.sol:Uni",
						"label": "checkpoints",
						"offset": 0,
						"slot": "6",
						"type": "t_mapping(t_address,t_mapping(t_uint32,t_struct(Checkpoint)293_storage))"
					},
					{
						"astId": 303,
						"contract": "kcbreward.sol:Uni",
						"label": "numCheckpoints",
						"offset": 0,
						"slot": "7",
						"type": "t_mapping(t_address,t_uint32)"
					},
					{
						"astId": 322,
						"contract": "kcbreward.sol:Uni",
						"label": "nonces",
						"offset": 0,
						"slot": "8",
						"type": "t_mapping(t_address,t_uint256)"
					}
				],
				"types": {
					"t_address": {
						"encoding": "inplace",
						"label": "address",
						"numberOfBytes": "20"
					},
					"t_mapping(t_address,t_address)": {
						"encoding": "mapping",
						"key": "t_address",
						"label": "mapping(address => address)",
						"numberOfBytes": "32",
						"value": "t_address"
					},
					"t_mapping(t_address,t_mapping(t_address,t_uint96))": {
						"encoding": "mapping",
						"key": "t_address",
						"label": "mapping(address => mapping(address => uint96))",
						"numberOfBytes": "32",
						"value": "t_mapping(t_address,t_uint96)"
					},
					"t_mapping(t_address,t_mapping(t_uint32,t_struct(Checkpoint)293_storage))": {
						"encoding": "mapping",
						"key": "t_address",
						"label": "mapping(address => mapping(uint32 => struct Uni.Checkpoint))",
						"numberOfBytes": "32",
						"value": "t_mapping(t_uint32,t_struct(Checkpoint)293_storage)"
					},
					"t_mapping(t_address,t_uint256)": {
						"encoding": "mapping",
						"key": "t_address",
						"label": "mapping(address => uint256)",
						"numberOfBytes": "32",
						"value": "t_uint256"
					},
					"t_mapping(t_address,t_uint32)": {
						"encoding": "mapping",
						"key": "t_address",
						"label": "mapping(address => uint32)",
						"numberOfBytes": "32",
						"value": "t_uint32"
					},
					"t_mapping(t_address,t_uint96)": {
						"encoding": "mapping",
						"key": "t_address",
						"label": "mapping(address => uint96)",
						"numberOfBytes": "32",
						"value": "t_uint96"
					},
					"t_mapping(t_uint32,t_struct(Checkpoint)293_storage)": {
						"encoding": "mapping",
						"key": "t_uint32",
						"label": "mapping(uint32 => struct Uni.Checkpoint)",
						"numberOfBytes": "32",
						"value": "t_struct(Checkpoint)293_storage"
					},
					"t_struct(Checkpoint)293_storage": {
						"encoding": "inplace",
						"label": "struct Uni.Checkpoint",
						"members": [
							{
								"astId": 290,
								"contract": "kcbreward.sol:Uni",
								"label": "fromBlock",
								"offset": 0,
								"slot": "0",
								"type": "t_uint32"
							},
							{
								"astId": 292,
								"contract": "kcbreward.sol:Uni",
								"label": "votes",
								"offset": 4,
								"slot": "0",
								"type": "t_uint96"
							}
						],
						"numberOfBytes": "32"
					},
					"t_uint256": {
						"encoding": "inplace",
						"label": "uint256",
						"numberOfBytes": "32"
					},
					"t_uint32": {
						"encoding": "inplace",
						"label": "uint32",
						"numberOfBytes": "4"
					},
					"t_uint96": {
						"encoding": "inplace",
						"label": "uint96",
						"numberOfBytes": "12"
					}
				}
			},
			"userdoc": {
				"methods": {
					"allowance(address,address)": {
						"notice": "Get the number of tokens `spender` is approved to spend on behalf of `account`"
					},
					"approve(address,uint256)": {
						"notice": "Approve `spender` to transfer up to `amount` from `src`"
					},
					"balanceOf(address)": {
						"notice": "Get the number of tokens held by the `account`"
					},
					"constructor": "Construct a new Uni token",
					"delegate(address)": {
						"notice": "Delegate votes from `msg.sender` to `delegatee`"
					},
					"delegateBySig(address,uint256,uint256,uint8,bytes32,bytes32)": {
						"notice": "Delegates votes from signatory to `delegatee`"
					},
					"getCurrentVotes(address)": {
						"notice": "Gets the current votes balance for `account`"
					},
					"getPriorVotes(address,uint256)": {
						"notice": "Determine the prior number of votes for an account as of a block number"
					},
					"mint(address,uint256)": {
						"notice": "Mint new tokens"
					},
					"permit(address,address,uint256,uint256,uint8,bytes32,bytes32)": {
						"notice": "Triggers an approval from owner to spends"
					},
					"setMinter(address)": {
						"notice": "Change the minter address"
					},
					"transfer(address,uint256)": {
						"notice": "Transfer `amount` tokens from `msg.sender` to `dst`"
					},
					"transferFrom(address,address,uint256)": {
						"notice": "Transfer `amount` tokens from `src` to `dst`"
					}
				}
			}
		}
	}
}