{
	"v2-periphery-master/contracts/UniswapV2Router01.sol": {
		"UniswapV2Router01": {
			"abi": [
				{
					"inputs": [
						{
							"internalType": "address",
							"name": "_factory",
							"type": "address"
						},
						{
							"internalType": "address",
							"name": "_WETH",
							"type": "address"
						}
					],
					"stateMutability": "nonpayable",
					"type": "constructor"
				},
				{
					"inputs": [],
					"name": "WETH",
					"outputs": [
						{
							"internalType": "address",
							"name": "",
							"type": "address"
						}
					],
					"stateMutability": "view",
					"type": "function"
				},
				{
					"inputs": [
						{
							"internalType": "address",
							"name": "tokenA",
							"type": "address"
						},
						{
							"internalType": "address",
							"name": "tokenB",
							"type": "address"
						},
						{
							"internalType": "uint256",
							"name": "amountADesired",
							"type": "uint256"
						},
						{
							"internalType": "uint256",
							"name": "amountBDesired",
							"type": "uint256"
						},
						{
							"internalType": "uint256",
							"name": "amountAMin",
							"type": "uint256"
						},
						{
							"internalType": "uint256",
							"name": "amountBMin",
							"type": "uint256"
						},
						{
							"internalType": "address",
							"name": "to",
							"type": "address"
						},
						{
							"internalType": "uint256",
							"name": "deadline",
							"type": "uint256"
						},
						{
							"internalType": "address",
							"name": "my",
							"type": "address"
						}
					],
					"name": "addLiquidity",
					"outputs": [
						{
							"internalType": "uint256",
							"name": "amountA",
							"type": "uint256"
						},
						{
							"internalType": "uint256",
							"name": "amountB",
							"type": "uint256"
						},
						{
							"internalType": "uint256",
							"name": "liquidity",
							"type": "uint256"
						}
					],
					"stateMutability": "nonpayable",
					"type": "function"
				},
				{
					"inputs": [
						{
							"internalType": "address",
							"name": "token",
							"type": "address"
						},
						{
							"internalType": "uint256",
							"name": "amountTokenDesired",
							"type": "uint256"
						},
						{
							"internalType": "uint256",
							"name": "amountTokenMin",
							"type": "uint256"
						},
						{
							"internalType": "uint256",
							"name": "amountETHMin",
							"type": "uint256"
						},
						{
							"internalType": "address",
							"name": "to",
							"type": "address"
						},
						{
							"internalType": "uint256",
							"name": "deadline",
							"type": "uint256"
						},
						{
							"internalType": "bool",
							"name": "useMint",
							"type": "bool"
						}
					],
					"name": "addLiquidityETH",
					"outputs": [
						{
							"internalType": "uint256",
							"name": "amountToken",
							"type": "uint256"
						},
						{
							"internalType": "uint256",
							"name": "amountETH",
							"type": "uint256"
						},
						{
							"internalType": "uint256",
							"name": "liquidity",
							"type": "uint256"
						}
					],
					"stateMutability": "payable",
					"type": "function"
				},
				{
					"inputs": [],
					"name": "factory",
					"outputs": [
						{
							"internalType": "address",
							"name": "",
							"type": "address"
						}
					],
					"stateMutability": "view",
					"type": "function"
				},
				{
					"inputs": [
						{
							"internalType": "uint256",
							"name": "amountOut",
							"type": "uint256"
						},
						{
							"internalType": "uint256",
							"name": "reserveIn",
							"type": "uint256"
						},
						{
							"internalType": "uint256",
							"name": "reserveOut",
							"type": "uint256"
						}
					],
					"name": "getAmountIn",
					"outputs": [
						{
							"internalType": "uint256",
							"name": "amountIn",
							"type": "uint256"
						}
					],
					"stateMutability": "pure",
					"type": "function"
				},
				{
					"inputs": [
						{
							"internalType": "uint256",
							"name": "amountIn",
							"type": "uint256"
						},
						{
							"internalType": "uint256",
							"name": "reserveIn",
							"type": "uint256"
						},
						{
							"internalType": "uint256",
							"name": "reserveOut",
							"type": "uint256"
						}
					],
					"name": "getAmountOut",
					"outputs": [
						{
							"internalType": "uint256",
							"name": "amountOut",
							"type": "uint256"
						}
					],
					"stateMutability": "pure",
					"type": "function"
				},
				{
					"inputs": [
						{
							"internalType": "uint256",
							"name": "amountOut",
							"type": "uint256"
						},
						{
							"internalType": "address[]",
							"name": "path",
							"type": "address[]"
						}
					],
					"name": "getAmountsIn",
					"outputs": [
						{
							"internalType": "uint256[]",
							"name": "amounts",
							"type": "uint256[]"
						}
					],
					"stateMutability": "view",
					"type": "function"
				},
				{
					"inputs": [
						{
							"internalType": "uint256",
							"name": "amountIn",
							"type": "uint256"
						},
						{
							"internalType": "address[]",
							"name": "path",
							"type": "address[]"
						}
					],
					"name": "getAmountsOut",
					"outputs": [
						{
							"internalType": "uint256[]",
							"name": "amounts",
							"type": "uint256[]"
						}
					],
					"stateMutability": "view",
					"type": "function"
				},
				{
					"inputs": [
						{
							"internalType": "uint256",
							"name": "amountA",
							"type": "uint256"
						},
						{
							"internalType": "uint256",
							"name": "reserveA",
							"type": "uint256"
						},
						{
							"internalType": "uint256",
							"name": "reserveB",
							"type": "uint256"
						}
					],
					"name": "quote",
					"outputs": [
						{
							"internalType": "uint256",
							"name": "amountB",
							"type": "uint256"
						}
					],
					"stateMutability": "pure",
					"type": "function"
				},
				{
					"inputs": [
						{
							"internalType": "address",
							"name": "tokenA",
							"type": "address"
						},
						{
							"internalType": "address",
							"name": "tokenB",
							"type": "address"
						},
						{
							"internalType": "uint256",
							"name": "liquidity",
							"type": "uint256"
						},
						{
							"internalType": "uint256",
							"name": "amountAMin",
							"type": "uint256"
						},
						{
							"internalType": "uint256",
							"name": "amountBMin",
							"type": "uint256"
						},
						{
							"internalType": "address",
							"name": "to",
							"type": "address"
						},
						{
							"internalType": "uint256",
							"name": "deadline",
							"type": "uint256"
						}
					],
					"name": "removeLiquidity",
					"outputs": [
						{
							"internalType": "uint256",
							"name": "amountA",
							"type": "uint256"
						},
						{
							"internalType": "uint256",
							"name": "amountB",
							"type": "uint256"
						}
					],
					"stateMutability": "nonpayable",
					"type": "function"
				},
				{
					"inputs": [
						{
							"internalType": "address",
							"name": "token",
							"type": "address"
						},
						{
							"internalType": "uint256",
							"name": "liquidity",
							"type": "uint256"
						},
						{
							"internalType": "uint256",
							"name": "amountTokenMin",
							"type": "uint256"
						},
						{
							"internalType": "uint256",
							"name": "amountETHMin",
							"type": "uint256"
						},
						{
							"internalType": "address",
							"name": "to",
							"type": "address"
						},
						{
							"internalType": "uint256",
							"name": "deadline",
							"type": "uint256"
						}
					],
					"name": "removeLiquidityETH",
					"outputs": [
						{
							"internalType": "uint256",
							"name": "amountToken",
							"type": "uint256"
						},
						{
							"internalType": "uint256",
							"name": "amountETH",
							"type": "uint256"
						}
					],
					"stateMutability": "nonpayable",
					"type": "function"
				},
				{
					"inputs": [
						{
							"internalType": "address",
							"name": "token",
							"type": "address"
						},
						{
							"internalType": "uint256",
							"name": "liquidity",
							"type": "uint256"
						},
						{
							"internalType": "uint256",
							"name": "amountTokenMin",
							"type": "uint256"
						},
						{
							"internalType": "uint256",
							"name": "amountETHMin",
							"type": "uint256"
						},
						{
							"internalType": "address",
							"name": "to",
							"type": "address"
						},
						{
							"internalType": "uint256",
							"name": "deadline",
							"type": "uint256"
						},
						{
							"internalType": "bool",
							"name": "approveMax",
							"type": "bool"
						},
						{
							"internalType": "uint8",
							"name": "v",
							"type": "uint8"
						},
						{
							"internalType": "bytes32",
							"name": "r",
							"type": "bytes32"
						},
						{
							"internalType": "bytes32",
							"name": "s",
							"type": "bytes32"
						}
					],
					"name": "removeLiquidityETHWithPermit",
					"outputs": [
						{
							"internalType": "uint256",
							"name": "amountToken",
							"type": "uint256"
						},
						{
							"internalType": "uint256",
							"name": "amountETH",
							"type": "uint256"
						}
					],
					"stateMutability": "nonpayable",
					"type": "function"
				},
				{
					"inputs": [
						{
							"internalType": "address",
							"name": "tokenA",
							"type": "address"
						},
						{
							"internalType": "address",
							"name": "tokenB",
							"type": "address"
						},
						{
							"internalType": "uint256",
							"name": "liquidity",
							"type": "uint256"
						},
						{
							"internalType": "uint256",
							"name": "amountAMin",
							"type": "uint256"
						},
						{
							"internalType": "uint256",
							"name": "amountBMin",
							"type": "uint256"
						},
						{
							"internalType": "address",
							"name": "to",
							"type": "address"
						},
						{
							"internalType": "uint256",
							"name": "deadline",
							"type": "uint256"
						},
						{
							"internalType": "bool",
							"name": "approveMax",
							"type": "bool"
						},
						{
							"internalType": "uint8",
							"name": "v",
							"type": "uint8"
						},
						{
							"internalType": "bytes32",
							"name": "r",
							"type": "bytes32"
						},
						{
							"internalType": "bytes32",
							"name": "s",
							"type": "bytes32"
						}
					],
					"name": "removeLiquidityWithPermit",
					"outputs": [
						{
							"internalType": "uint256",
							"name": "amountA",
							"type": "uint256"
						},
						{
							"internalType": "uint256",
							"name": "amountB",
							"type": "uint256"
						}
					],
					"stateMutability": "nonpayable",
					"type": "function"
				},
				{
					"inputs": [
						{
							"internalType": "uint256",
							"name": "amountOut",
							"type": "uint256"
						},
						{
							"internalType": "address[]",
							"name": "path",
							"type": "address[]"
						},
						{
							"internalType": "address",
							"name": "to",
							"type": "address"
						},
						{
							"internalType": "uint256",
							"name": "deadline",
							"type": "uint256"
						}
					],
					"name": "swapETHForExactTokens",
					"outputs": [
						{
							"internalType": "uint256[]",
							"name": "amounts",
							"type": "uint256[]"
						}
					],
					"stateMutability": "payable",
					"type": "function"
				},
				{
					"inputs": [
						{
							"internalType": "uint256",
							"name": "amountOutMin",
							"type": "uint256"
						},
						{
							"internalType": "address[]",
							"name": "path",
							"type": "address[]"
						},
						{
							"internalType": "address",
							"name": "to",
							"type": "address"
						},
						{
							"internalType": "uint256",
							"name": "deadline",
							"type": "uint256"
						}
					],
					"name": "swapExactETHForTokens",
					"outputs": [
						{
							"internalType": "uint256[]",
							"name": "amounts",
							"type": "uint256[]"
						}
					],
					"stateMutability": "payable",
					"type": "function"
				},
				{
					"inputs": [
						{
							"internalType": "uint256",
							"name": "amountIn",
							"type": "uint256"
						},
						{
							"internalType": "uint256",
							"name": "amountOutMin",
							"type": "uint256"
						},
						{
							"internalType": "address[]",
							"name": "path",
							"type": "address[]"
						},
						{
							"internalType": "address",
							"name": "to",
							"type": "address"
						},
						{
							"internalType": "uint256",
							"name": "deadline",
							"type": "uint256"
						}
					],
					"name": "swapExactTokensForETH",
					"outputs": [
						{
							"internalType": "uint256[]",
							"name": "amounts",
							"type": "uint256[]"
						}
					],
					"stateMutability": "nonpayable",
					"type": "function"
				},
				{
					"inputs": [
						{
							"internalType": "uint256",
							"name": "amountIn",
							"type": "uint256"
						},
						{
							"internalType": "uint256",
							"name": "amountOutMin",
							"type": "uint256"
						},
						{
							"internalType": "address[]",
							"name": "path",
							"type": "address[]"
						},
						{
							"internalType": "address",
							"name": "to",
							"type": "address"
						},
						{
							"internalType": "uint256",
							"name": "deadline",
							"type": "uint256"
						}
					],
					"name": "swapExactTokensForTokens",
					"outputs": [
						{
							"internalType": "uint256[]",
							"name": "amounts",
							"type": "uint256[]"
						}
					],
					"stateMutability": "nonpayable",
					"type": "function"
				},
				{
					"inputs": [
						{
							"internalType": "uint256",
							"name": "amountOut",
							"type": "uint256"
						},
						{
							"internalType": "uint256",
							"name": "amountInMax",
							"type": "uint256"
						},
						{
							"internalType": "address[]",
							"name": "path",
							"type": "address[]"
						},
						{
							"internalType": "address",
							"name": "to",
							"type": "address"
						},
						{
							"internalType": "uint256",
							"name": "deadline",
							"type": "uint256"
						}
					],
					"name": "swapTokensForExactETH",
					"outputs": [
						{
							"internalType": "uint256[]",
							"name": "amounts",
							"type": "uint256[]"
						}
					],
					"stateMutability": "nonpayable",
					"type": "function"
				},
				{
					"inputs": [
						{
							"internalType": "uint256",
							"name": "amountOut",
							"type": "uint256"
						},
						{
							"internalType": "uint256",
							"name": "amountInMax",
							"type": "uint256"
						},
						{
							"internalType": "address[]",
							"name": "path",
							"type": "address[]"
						},
						{
							"internalType": "address",
							"name": "to",
							"type": "address"
						},
						{
							"internalType": "uint256",
							"name": "deadline",
							"type": "uint256"
						}
					],
					"name": "swapTokensForExactTokens",
					"outputs": [
						{
							"internalType": "uint256[]",
							"name": "amounts",
							"type": "uint256[]"
						}
					],
					"stateMutability": "nonpayable",
					"type": "function"
				},
				{
					"stateMutability": "payable",
					"type": "receive"
				}
			],
			"devdoc": {
				"methods": {}
			},
			"evm": {
				"assembly": "    /* \"v2-periphery-master/contracts/UniswapV2Router01.sol\":315:13203  contract UniswapV2Router01 is IUniswapV2Router01 {... */\n  mstore(0x40, 0xc0)\n    /* \"v2-periphery-master/contracts/UniswapV2Router01.sol\":591:700  constructor(address _factory, address _WETH) public {... */\n  callvalue\n    /* \"--CODEGEN--\":5:14   */\n  dup1\n    /* \"--CODEGEN--\":2:4   */\n  iszero\n  tag_1\n  jumpi\n    /* \"--CODEGEN--\":27:28   */\n  0x00\n    /* \"--CODEGEN--\":24:25   */\n  dup1\n    /* \"--CODEGEN--\":17:29   */\n  revert\n    /* \"--CODEGEN--\":2:4   */\ntag_1:\n    /* \"v2-periphery-master/contracts/UniswapV2Router01.sol\":591:700  constructor(address _factory, address _WETH) public {... */\n  pop\n  mload(0x40)\n  sub(codesize, bytecodeSize)\n  dup1\n  bytecodeSize\n  dup4\n  codecopy\n  dup2\n  dup2\n  add\n  0x40\n  mstore\n    /* \"--CODEGEN--\":15:17   */\n  0x40\n    /* \"--CODEGEN--\":10:13   */\n  dup2\n    /* \"--CODEGEN--\":7:18   */\n  lt\n    /* \"--CODEGEN--\":4:6   */\n  iszero\n  tag_2\n  jumpi\n    /* \"--CODEGEN--\":31:32   */\n  0x00\n    /* \"--CODEGEN--\":28:29   */\n  dup1\n    /* \"--CODEGEN--\":21:33   */\n  revert\n    /* \"--CODEGEN--\":4:6   */\ntag_2:\n  pop\n    /* \"v2-periphery-master/contracts/UniswapV2Router01.sol\":591:700  constructor(address _factory, address _WETH) public {... */\n  dup1\n  mload\n  0x20\n  swap1\n  swap2\n  add\n  mload\n  not(sub(shl(0x60, 0x01), 0x01))\n    /* \"v2-periphery-master/contracts/UniswapV2Router01.sol\":653:671  factory = _factory */\n  0x60\n  swap3\n  dup4\n  shl\n  dup2\n  and\n  0x80\n  mstore\n    /* \"v2-periphery-master/contracts/UniswapV2Router01.sol\":681:693  WETH = _WETH */\n  swap2\n  shl\n  and\n  0xa0\n  mstore\n    /* \"v2-periphery-master/contracts/UniswapV2Router01.sol\":315:13203  contract UniswapV2Router01 is IUniswapV2Router01 {... */\n  shr(0x60, mload(0x80))\n  shr(0x60, mload(0xa0))\n  codecopy(0x00, dataOffset(sub_0), dataSize(sub_0))\n  assignImmutable(\"0xa5325ff0f63e0b147eb82a60c572e47fb617bbfb06095783ede1fdcec882b479\")\n  assignImmutable(\"0x6085f6f924f4d3289e6bd2dcf255c34b40082df304bec05239cb2746d1d3eb0d\")\n  return(0x00, dataSize(sub_0))\nstop\n\nsub_0: assembly {\n        /* \"v2-periphery-master/contracts/UniswapV2Router01.sol\":315:13203  contract UniswapV2Router01 is IUniswapV2Router01 {... */\n      mstore(0x40, 0x80)\n      jumpi(tag_1, lt(calldatasize, 0x04))\n      shr(0xe0, calldataload(0x00))\n      dup1\n      0x85f8c259\n      gt\n      tag_22\n      jumpi\n      dup1\n      0xbaa2abde\n      gt\n      tag_23\n      jumpi\n      dup1\n      0xbaa2abde\n      eq\n      tag_17\n      jumpi\n      dup1\n      0xc45a0155\n      eq\n      tag_18\n      jumpi\n      dup1\n      0xd06ca61f\n      eq\n      tag_19\n      jumpi\n      dup1\n      0xded9382a\n      eq\n      tag_20\n      jumpi\n      dup1\n      0xfb3bdb41\n      eq\n      tag_21\n      jumpi\n      jump(tag_2)\n    tag_23:\n      dup1\n      0x85f8c259\n      eq\n      tag_4\n      jumpi\n      dup1\n      0x8803dbee\n      eq\n      tag_13\n      jumpi\n      dup1\n      0xa648ec7a\n      eq\n      tag_14\n      jumpi\n      dup1\n      0xad5c4648\n      eq\n      tag_15\n      jumpi\n      dup1\n      0xad615dec\n      eq\n      tag_16\n      jumpi\n      jump(tag_2)\n    tag_22:\n      dup1\n      0x2195995c\n      gt\n      tag_24\n      jumpi\n      dup1\n      0x2195995c\n      eq\n      tag_7\n      jumpi\n      dup1\n      0x38ed1739\n      eq\n      tag_8\n      jumpi\n      dup1\n      0x4a25d94a\n      eq\n      tag_9\n      jumpi\n      dup1\n      0x705a623e\n      eq\n      tag_10\n      jumpi\n      dup1\n      0x7ff36ab5\n      eq\n      tag_11\n      jumpi\n      jump(tag_2)\n    tag_24:\n      dup1\n      0x02751cec\n      eq\n      tag_3\n      jumpi\n      dup1\n      0x054d50d4\n      eq\n      tag_4\n      jumpi\n      dup1\n      0x18cbafe5\n      eq\n      tag_5\n      jumpi\n      dup1\n      0x1f00ca74\n      eq\n      tag_6\n      jumpi\n      jump(tag_2)\n    tag_1:\n      jumpi(tag_2, calldatasize)\n        /* \"v2-periphery-master/contracts/UniswapV2Router01.sol\":750:760  msg.sender */\n      caller\n      sub(shl(0xa0, 0x01), 0x01)\n        /* \"v2-periphery-master/contracts/UniswapV2Router01.sol\":764:768  WETH */\n      immutable(\"0xa5325ff0f63e0b147eb82a60c572e47fb617bbfb06095783ede1fdcec882b479\")\n        /* \"v2-periphery-master/contracts/UniswapV2Router01.sol\":750:768  msg.sender == WETH */\n      and\n      eq\n        /* \"v2-periphery-master/contracts/UniswapV2Router01.sol\":743:769  assert(msg.sender == WETH) */\n      tag_27\n      jumpi\n      invalid\n    tag_27:\n        /* \"v2-periphery-master/contracts/UniswapV2Router01.sol\":315:13203  contract UniswapV2Router01 is IUniswapV2Router01 {... */\n      stop\n    tag_2:\n        /* \"--CODEGEN--\":12:13   */\n      0x00\n        /* \"--CODEGEN--\":9:10   */\n      dup1\n        /* \"--CODEGEN--\":2:14   */\n      revert\n        /* \"v2-periphery-master/contracts/UniswapV2Router01.sol\":5268:5913  function removeLiquidityETH(... */\n    tag_3:\n      callvalue\n        /* \"--CODEGEN--\":5:14   */\n      dup1\n        /* \"--CODEGEN--\":2:4   */\n      iszero\n      tag_28\n      jumpi\n        /* \"--CODEGEN--\":27:28   */\n      0x00\n        /* \"--CODEGEN--\":24:25   */\n      dup1\n        /* \"--CODEGEN--\":17:29   */\n      revert\n        /* \"--CODEGEN--\":2:4   */\n    tag_28:\n        /* \"v2-periphery-master/contracts/UniswapV2Router01.sol\":5268:5913  function removeLiquidityETH(... */\n      pop\n      tag_29\n      0x04\n      dup1\n      calldatasize\n      sub\n        /* \"--CODEGEN--\":15:18   */\n      0xc0\n        /* \"--CODEGEN--\":10:13   */\n      dup2\n        /* \"--CODEGEN--\":7:19   */\n      lt\n        /* \"--CODEGEN--\":4:6   */\n      iszero\n      tag_30\n      jumpi\n        /* \"--CODEGEN--\":32:33   */\n      0x00\n        /* \"--CODEGEN--\":29:30   */\n      dup1\n        /* \"--CODEGEN--\":22:34   */\n      revert\n        /* \"--CODEGEN--\":4:6   */\n    tag_30:\n      pop\n      sub(shl(0xa0, 0x01), 0x01)\n        /* \"v2-periphery-master/contracts/UniswapV2Router01.sol\":5268:5913  function removeLiquidityETH(... */\n      dup2\n      calldataload\n      dup2\n      and\n      swap2\n      0x20\n      dup2\n      add\n      calldataload\n      swap2\n      0x40\n      dup3\n      add\n      calldataload\n      swap2\n      0x60\n      dup2\n      add\n      calldataload\n      swap2\n      0x80\n      dup3\n      add\n      calldataload\n      and\n      swap1\n      0xa0\n      add\n      calldataload\n      tag_31\n      jump\t// in\n    tag_29:\n      0x40\n      dup1\n      mload\n      swap3\n      dup4\n      mstore\n      0x20\n      dup4\n      add\n      swap2\n      swap1\n      swap2\n      mstore\n      dup1\n      mload\n      swap2\n      dup3\n      swap1\n      sub\n      add\n      swap1\n      return\n        /* \"v2-periphery-master/contracts/UniswapV2Router01.sol\":12393:12595  function getAmountOut(uint amountIn, uint reserveIn, uint reserveOut) public pure override returns (uint amountOut) {... */\n    tag_4:\n      callvalue\n        /* \"--CODEGEN--\":5:14   */\n      dup1\n        /* \"--CODEGEN--\":2:4   */\n      iszero\n      tag_32\n      jumpi\n        /* \"--CODEGEN--\":27:28   */\n      0x00\n        /* \"--CODEGEN--\":24:25   */\n      dup1\n        /* \"--CODEGEN--\":17:29   */\n      revert\n        /* \"--CODEGEN--\":2:4   */\n    tag_32:\n        /* \"v2-periphery-master/contracts/UniswapV2Router01.sol\":12393:12595  function getAmountOut(uint amountIn, uint reserveIn, uint reserveOut) public pure override returns (uint amountOut) {... */\n      pop\n      tag_33\n      0x04\n      dup1\n      calldatasize\n      sub\n        /* \"--CODEGEN--\":15:17   */\n      0x60\n        /* \"--CODEGEN--\":10:13   */\n      dup2\n        /* \"--CODEGEN--\":7:18   */\n      lt\n        /* \"--CODEGEN--\":4:6   */\n      iszero\n      tag_34\n      jumpi\n        /* \"--CODEGEN--\":31:32   */\n      0x00\n        /* \"--CODEGEN--\":28:29   */\n      dup1\n        /* \"--CODEGEN--\":21:33   */\n      revert\n        /* \"--CODEGEN--\":4:6   */\n    tag_34:\n      pop\n        /* \"v2-periphery-master/contracts/UniswapV2Router01.sol\":12393:12595  function getAmountOut(uint amountIn, uint reserveIn, uint reserveOut) public pure override returns (uint amountOut) {... */\n      dup1\n      calldataload\n      swap1\n      0x20\n      dup2\n      add\n      calldataload\n      swap1\n      0x40\n      add\n      calldataload\n      tag_35\n      jump\t// in\n    tag_33:\n      0x40\n      dup1\n      mload\n      swap2\n      dup3\n      mstore\n      mload\n      swap1\n      dup2\n      swap1\n      sub\n      0x20\n      add\n      swap1\n      return\n        /* \"v2-periphery-master/contracts/UniswapV2Router01.sol\":10632:11428  function swapExactTokensForETH(uint amountIn, uint amountOutMin, address[] calldata path, address to, uint deadline)... */\n    tag_5:\n      callvalue\n        /* \"--CODEGEN--\":5:14   */\n      dup1\n        /* \"--CODEGEN--\":2:4   */\n      iszero\n      tag_36\n      jumpi\n        /* \"--CODEGEN--\":27:28   */\n      0x00\n        /* \"--CODEGEN--\":24:25   */\n      dup1\n        /* \"--CODEGEN--\":17:29   */\n      revert\n        /* \"--CODEGEN--\":2:4   */\n    tag_36:\n        /* \"v2-periphery-master/contracts/UniswapV2Router01.sol\":10632:11428  function swapExactTokensForETH(uint amountIn, uint amountOutMin, address[] calldata path, address to, uint deadline)... */\n      pop\n      tag_37\n      0x04\n      dup1\n      calldatasize\n      sub\n        /* \"--CODEGEN--\":15:18   */\n      0xa0\n        /* \"--CODEGEN--\":10:13   */\n      dup2\n        /* \"--CODEGEN--\":7:19   */\n      lt\n        /* \"--CODEGEN--\":4:6   */\n      iszero\n      tag_38\n      jumpi\n        /* \"--CODEGEN--\":32:33   */\n      0x00\n        /* \"--CODEGEN--\":29:30   */\n      dup1\n        /* \"--CODEGEN--\":22:34   */\n      revert\n        /* \"--CODEGEN--\":4:6   */\n    tag_38:\n        /* \"v2-periphery-master/contracts/UniswapV2Router01.sol\":10632:11428  function swapExactTokensForETH(uint amountIn, uint amountOutMin, address[] calldata path, address to, uint deadline)... */\n      dup2\n      calldataload\n      swap2\n      0x20\n      dup2\n      add\n      calldataload\n      swap2\n      dup2\n      add\n      swap1\n      0x60\n      dup2\n      add\n      0x40\n      dup3\n      add\n      calldataload\n      shl(0x20, 0x01)\n        /* \"--CODEGEN--\":11:39   */\n      dup2\n      gt\n        /* \"--CODEGEN--\":8:10   */\n      iszero\n      tag_39\n      jumpi\n        /* \"--CODEGEN--\":52:53   */\n      0x00\n        /* \"--CODEGEN--\":49:50   */\n      dup1\n        /* \"--CODEGEN--\":42:54   */\n      revert\n        /* \"--CODEGEN--\":8:10   */\n    tag_39:\n        /* \"v2-periphery-master/contracts/UniswapV2Router01.sol\":10632:11428  function swapExactTokensForETH(uint amountIn, uint amountOutMin, address[] calldata path, address to, uint deadline)... */\n      dup3\n      add\n        /* \"--CODEGEN--\":41:50   */\n      dup4\n        /* \"--CODEGEN--\":34:38   */\n      0x20\n        /* \"--CODEGEN--\":18:32   */\n      dup3\n        /* \"--CODEGEN--\":14:39   */\n      add\n        /* \"--CODEGEN--\":11:51   */\n      gt\n        /* \"--CODEGEN--\":8:10   */\n      iszero\n      tag_40\n      jumpi\n        /* \"--CODEGEN--\":64:65   */\n      0x00\n        /* \"--CODEGEN--\":61:62   */\n      dup1\n        /* \"--CODEGEN--\":54:66   */\n      revert\n        /* \"--CODEGEN--\":8:10   */\n    tag_40:\n        /* \"v2-periphery-master/contracts/UniswapV2Router01.sol\":10632:11428  function swapExactTokensForETH(uint amountIn, uint amountOutMin, address[] calldata path, address to, uint deadline)... */\n      dup1\n      calldataload\n      swap1\n      0x20\n      add\n      swap2\n        /* \"--CODEGEN--\":101:110   */\n      dup5\n        /* \"--CODEGEN--\":95:97   */\n      0x20\n        /* \"--CODEGEN--\":81:93   */\n      dup4\n        /* \"--CODEGEN--\":77:98   */\n      mul\n        /* \"--CODEGEN--\":67:75   */\n      dup5\n        /* \"--CODEGEN--\":63:99   */\n      add\n        /* \"--CODEGEN--\":60:111   */\n      gt\n      shl(0x20, 0x01)\n        /* \"--CODEGEN--\":25:37   */\n      dup4\n        /* \"--CODEGEN--\":22:51   */\n      gt\n        /* \"--CODEGEN--\":11:119   */\n      or\n        /* \"--CODEGEN--\":8:10   */\n      iszero\n      tag_41\n      jumpi\n        /* \"--CODEGEN--\":132:133   */\n      0x00\n        /* \"--CODEGEN--\":129:130   */\n      dup1\n        /* \"--CODEGEN--\":122:134   */\n      revert\n        /* \"--CODEGEN--\":8:10   */\n    tag_41:\n        /* \"v2-periphery-master/contracts/UniswapV2Router01.sol\":10632:11428  function swapExactTokensForETH(uint amountIn, uint amountOutMin, address[] calldata path, address to, uint deadline)... */\n      swap2\n      swap4\n      pop\n      swap2\n      pop\n      sub(shl(0xa0, 0x01), 0x01)\n      dup2\n      calldataload\n      and\n      swap1\n      0x20\n      add\n      calldataload\n      tag_42\n      jump\t// in\n    tag_37:\n      0x40\n      dup1\n      mload\n      0x20\n      dup1\n      dup3\n      mstore\n      dup4\n      mload\n      dup2\n      dup4\n      add\n      mstore\n      dup4\n      mload\n      swap2\n      swap3\n      dup4\n      swap3\n      swap1\n      dup4\n      add\n      swap2\n      dup6\n      dup2\n      add\n      swap2\n      mul\n      dup1\n      dup4\n      dup4\n      0x00\n        /* \"--CODEGEN--\":8:108   */\n    tag_43:\n        /* \"--CODEGEN--\":33:36   */\n      dup4\n        /* \"--CODEGEN--\":30:31   */\n      dup2\n        /* \"--CODEGEN--\":27:37   */\n      lt\n        /* \"--CODEGEN--\":8:108   */\n      iszero\n      tag_45\n      jumpi\n        /* \"--CODEGEN--\":90:101   */\n      dup2\n      dup2\n      add\n        /* \"--CODEGEN--\":84:102   */\n      mload\n        /* \"--CODEGEN--\":71:82   */\n      dup4\n      dup3\n      add\n        /* \"--CODEGEN--\":64:103   */\n      mstore\n        /* \"--CODEGEN--\":52:54   */\n      0x20\n        /* \"--CODEGEN--\":45:55   */\n      add\n        /* \"--CODEGEN--\":8:108   */\n      jump(tag_43)\n    tag_45:\n        /* \"--CODEGEN--\":12:26   */\n      pop\n        /* \"v2-periphery-master/contracts/UniswapV2Router01.sol\":10632:11428  function swapExactTokensForETH(uint amountIn, uint amountOutMin, address[] calldata path, address to, uint deadline)... */\n      pop\n      pop\n      pop\n      swap1\n      pop\n      add\n      swap3\n      pop\n      pop\n      pop\n      mload(0x40)\n      dup1\n      swap2\n      sub\n      swap1\n      return\n        /* \"v2-periphery-master/contracts/UniswapV2Router01.sol\":13008:13201  function getAmountsIn(uint amountOut, address[] memory path) public view override returns (uint[] memory amounts) {... */\n    tag_6:\n      callvalue\n        /* \"--CODEGEN--\":5:14   */\n      dup1\n        /* \"--CODEGEN--\":2:4   */\n      iszero\n      tag_46\n      jumpi\n        /* \"--CODEGEN--\":27:28   */\n      0x00\n        /* \"--CODEGEN--\":24:25   */\n      dup1\n        /* \"--CODEGEN--\":17:29   */\n      revert\n        /* \"--CODEGEN--\":2:4   */\n    tag_46:\n        /* \"v2-periphery-master/contracts/UniswapV2Router01.sol\":13008:13201  function getAmountsIn(uint amountOut, address[] memory path) public view override returns (uint[] memory amounts) {... */\n      pop\n      tag_37\n      0x04\n      dup1\n      calldatasize\n      sub\n        /* \"--CODEGEN--\":15:17   */\n      0x40\n        /* \"--CODEGEN--\":10:13   */\n      dup2\n        /* \"--CODEGEN--\":7:18   */\n      lt\n        /* \"--CODEGEN--\":4:6   */\n      iszero\n      tag_48\n      jumpi\n        /* \"--CODEGEN--\":31:32   */\n      0x00\n        /* \"--CODEGEN--\":28:29   */\n      dup1\n        /* \"--CODEGEN--\":21:33   */\n      revert\n        /* \"--CODEGEN--\":4:6   */\n    tag_48:\n        /* \"v2-periphery-master/contracts/UniswapV2Router01.sol\":13008:13201  function getAmountsIn(uint amountOut, address[] memory path) public view override returns (uint[] memory amounts) {... */\n      dup2\n      calldataload\n      swap2\n      swap1\n      dup2\n      add\n      swap1\n      0x40\n      dup2\n      add\n      0x20\n      dup3\n      add\n      calldataload\n      shl(0x20, 0x01)\n        /* \"--CODEGEN--\":11:39   */\n      dup2\n      gt\n        /* \"--CODEGEN--\":8:10   */\n      iszero\n      tag_49\n      jumpi\n        /* \"--CODEGEN--\":52:53   */\n      0x00\n        /* \"--CODEGEN--\":49:50   */\n      dup1\n        /* \"--CODEGEN--\":42:54   */\n      revert\n        /* \"--CODEGEN--\":8:10   */\n    tag_49:\n        /* \"v2-periphery-master/contracts/UniswapV2Router01.sol\":13008:13201  function getAmountsIn(uint amountOut, address[] memory path) public view override returns (uint[] memory amounts) {... */\n      dup3\n      add\n        /* \"--CODEGEN--\":41:50   */\n      dup4\n        /* \"--CODEGEN--\":34:38   */\n      0x20\n        /* \"--CODEGEN--\":18:32   */\n      dup3\n        /* \"--CODEGEN--\":14:39   */\n      add\n        /* \"--CODEGEN--\":11:51   */\n      gt\n        /* \"--CODEGEN--\":8:10   */\n      iszero\n      tag_50\n      jumpi\n        /* \"--CODEGEN--\":64:65   */\n      0x00\n        /* \"--CODEGEN--\":61:62   */\n      dup1\n        /* \"--CODEGEN--\":54:66   */\n      revert\n        /* \"--CODEGEN--\":8:10   */\n    tag_50:\n        /* \"v2-periphery-master/contracts/UniswapV2Router01.sol\":13008:13201  function getAmountsIn(uint amountOut, address[] memory path) public view override returns (uint[] memory amounts) {... */\n      dup1\n      calldataload\n      swap1\n      0x20\n      add\n      swap2\n        /* \"--CODEGEN--\":101:110   */\n      dup5\n        /* \"--CODEGEN--\":95:97   */\n      0x20\n        /* \"--CODEGEN--\":81:93   */\n      dup4\n        /* \"--CODEGEN--\":77:98   */\n      mul\n        /* \"--CODEGEN--\":67:75   */\n      dup5\n        /* \"--CODEGEN--\":63:99   */\n      add\n        /* \"--CODEGEN--\":60:111   */\n      gt\n      shl(0x20, 0x01)\n        /* \"--CODEGEN--\":25:37   */\n      dup4\n        /* \"--CODEGEN--\":22:51   */\n      gt\n        /* \"--CODEGEN--\":11:119   */\n      or\n        /* \"--CODEGEN--\":8:10   */\n      iszero\n      tag_51\n      jumpi\n        /* \"--CODEGEN--\":132:133   */\n      0x00\n        /* \"--CODEGEN--\":129:130   */\n      dup1\n        /* \"--CODEGEN--\":122:134   */\n      revert\n        /* \"--CODEGEN--\":8:10   */\n    tag_51:\n        /* \"v2-periphery-master/contracts/UniswapV2Router01.sol\":13008:13201  function getAmountsIn(uint amountOut, address[] memory path) public view override returns (uint[] memory amounts) {... */\n      swap2\n      swap1\n      dup1\n      dup1\n      0x20\n      mul\n      0x20\n      add\n      mload(0x40)\n      swap1\n      dup2\n      add\n      0x40\n      mstore\n      dup1\n      swap4\n      swap3\n      swap2\n      swap1\n      dup2\n      dup2\n      mstore\n      0x20\n      add\n      dup4\n      dup4\n      0x20\n      mul\n        /* \"--CODEGEN--\":30:33   */\n      dup1\n        /* \"--CODEGEN--\":22:28   */\n      dup3\n        /* \"--CODEGEN--\":14:20   */\n      dup5\n        /* \"--CODEGEN--\":1:34   */\n      calldatacopy\n        /* \"--CODEGEN--\":99:100   */\n      0x00\n        /* \"--CODEGEN--\":81:97   */\n      swap3\n      add\n        /* \"--CODEGEN--\":74:101   */\n      swap2\n      swap1\n      swap2\n      mstore\n      pop\n        /* \"v2-periphery-master/contracts/UniswapV2Router01.sol\":13008:13201  function getAmountsIn(uint amountOut, address[] memory path) public view override returns (uint[] memory amounts) {... */\n      swap3\n      swap6\n      pop\n      tag_52\n      swap5\n      pop\n      pop\n      pop\n      pop\n      pop\n      jump\t// in\n        /* \"v2-periphery-master/contracts/UniswapV2Router01.sol\":5918:6573  function removeLiquidityWithPermit(... */\n    tag_7:\n      callvalue\n        /* \"--CODEGEN--\":5:14   */\n      dup1\n        /* \"--CODEGEN--\":2:4   */\n      iszero\n      tag_56\n      jumpi\n        /* \"--CODEGEN--\":27:28   */\n      0x00\n        /* \"--CODEGEN--\":24:25   */\n      dup1\n        /* \"--CODEGEN--\":17:29   */\n      revert\n        /* \"--CODEGEN--\":2:4   */\n    tag_56:\n        /* \"v2-periphery-master/contracts/UniswapV2Router01.sol\":5918:6573  function removeLiquidityWithPermit(... */\n      pop\n      tag_29\n      0x04\n      dup1\n      calldatasize\n      sub\n        /* \"--CODEGEN--\":15:18   */\n      0x0160\n        /* \"--CODEGEN--\":10:13   */\n      dup2\n        /* \"--CODEGEN--\":7:19   */\n      lt\n        /* \"--CODEGEN--\":4:6   */\n      iszero\n      tag_58\n      jumpi\n        /* \"--CODEGEN--\":32:33   */\n      0x00\n        /* \"--CODEGEN--\":29:30   */\n      dup1\n        /* \"--CODEGEN--\":22:34   */\n      revert\n        /* \"--CODEGEN--\":4:6   */\n    tag_58:\n      pop\n      sub(shl(0xa0, 0x01), 0x01)\n        /* \"v2-periphery-master/contracts/UniswapV2Router01.sol\":5918:6573  function removeLiquidityWithPermit(... */\n      dup2\n      calldataload\n      dup2\n      and\n      swap2\n      0x20\n      dup2\n      add\n      calldataload\n      dup3\n      and\n      swap2\n      0x40\n      dup3\n      add\n      calldataload\n      swap2\n      0x60\n      dup2\n      add\n      calldataload\n      swap2\n      0x80\n      dup3\n      add\n      calldataload\n      swap2\n      0xa0\n      dup2\n      add\n      calldataload\n      swap1\n      swap2\n      and\n      swap1\n      0xc0\n      dup2\n      add\n      calldataload\n      swap1\n      0xe0\n      dup2\n      add\n      calldataload\n      iszero\n      iszero\n      swap1\n      0xff\n      0x0100\n      dup3\n      add\n      calldataload\n      and\n      swap1\n      0x0120\n      dup2\n      add\n      calldataload\n      swap1\n      0x0140\n      add\n      calldataload\n      tag_59\n      jump\t// in\n        /* \"v2-periphery-master/contracts/UniswapV2Router01.sol\":8023:8608  function swapExactTokensForTokens(... */\n    tag_8:\n      callvalue\n        /* \"--CODEGEN--\":5:14   */\n      dup1\n        /* \"--CODEGEN--\":2:4   */\n      iszero\n      tag_60\n      jumpi\n        /* \"--CODEGEN--\":27:28   */\n      0x00\n        /* \"--CODEGEN--\":24:25   */\n      dup1\n        /* \"--CODEGEN--\":17:29   */\n      revert\n        /* \"--CODEGEN--\":2:4   */\n    tag_60:\n        /* \"v2-periphery-master/contracts/UniswapV2Router01.sol\":8023:8608  function swapExactTokensForTokens(... */\n      pop\n      tag_37\n      0x04\n      dup1\n      calldatasize\n      sub\n        /* \"--CODEGEN--\":15:18   */\n      0xa0\n        /* \"--CODEGEN--\":10:13   */\n      dup2\n        /* \"--CODEGEN--\":7:19   */\n      lt\n        /* \"--CODEGEN--\":4:6   */\n      iszero\n      tag_62\n      jumpi\n        /* \"--CODEGEN--\":32:33   */\n      0x00\n        /* \"--CODEGEN--\":29:30   */\n      dup1\n        /* \"--CODEGEN--\":22:34   */\n      revert\n        /* \"--CODEGEN--\":4:6   */\n    tag_62:\n        /* \"v2-periphery-master/contracts/UniswapV2Router01.sol\":8023:8608  function swapExactTokensForTokens(... */\n      dup2\n      calldataload\n      swap2\n      0x20\n      dup2\n      add\n      calldataload\n      swap2\n      dup2\n      add\n      swap1\n      0x60\n      dup2\n      add\n      0x40\n      dup3\n      add\n      calldataload\n      shl(0x20, 0x01)\n        /* \"--CODEGEN--\":11:39   */\n      dup2\n      gt\n        /* \"--CODEGEN--\":8:10   */\n      iszero\n      tag_63\n      jumpi\n        /* \"--CODEGEN--\":52:53   */\n      0x00\n        /* \"--CODEGEN--\":49:50   */\n      dup1\n        /* \"--CODEGEN--\":42:54   */\n      revert\n        /* \"--CODEGEN--\":8:10   */\n    tag_63:\n        /* \"v2-periphery-master/contracts/UniswapV2Router01.sol\":8023:8608  function swapExactTokensForTokens(... */\n      dup3\n      add\n        /* \"--CODEGEN--\":41:50   */\n      dup4\n        /* \"--CODEGEN--\":34:38   */\n      0x20\n        /* \"--CODEGEN--\":18:32   */\n      dup3\n        /* \"--CODEGEN--\":14:39   */\n      add\n        /* \"--CODEGEN--\":11:51   */\n      gt\n        /* \"--CODEGEN--\":8:10   */\n      iszero\n      tag_64\n      jumpi\n        /* \"--CODEGEN--\":64:65   */\n      0x00\n        /* \"--CODEGEN--\":61:62   */\n      dup1\n        /* \"--CODEGEN--\":54:66   */\n      revert\n        /* \"--CODEGEN--\":8:10   */\n    tag_64:\n        /* \"v2-periphery-master/contracts/UniswapV2Router01.sol\":8023:8608  function swapExactTokensForTokens(... */\n      dup1\n      calldataload\n      swap1\n      0x20\n      add\n      swap2\n        /* \"--CODEGEN--\":101:110   */\n      dup5\n        /* \"--CODEGEN--\":95:97   */\n      0x20\n        /* \"--CODEGEN--\":81:93   */\n      dup4\n        /* \"--CODEGEN--\":77:98   */\n      mul\n        /* \"--CODEGEN--\":67:75   */\n      dup5\n        /* \"--CODEGEN--\":63:99   */\n      add\n        /* \"--CODEGEN--\":60:111   */\n      gt\n      shl(0x20, 0x01)\n        /* \"--CODEGEN--\":25:37   */\n      dup4\n        /* \"--CODEGEN--\":22:51   */\n      gt\n        /* \"--CODEGEN--\":11:119   */\n      or\n        /* \"--CODEGEN--\":8:10   */\n      iszero\n      tag_65\n      jumpi\n        /* \"--CODEGEN--\":132:133   */\n      0x00\n        /* \"--CODEGEN--\":129:130   */\n      dup1\n        /* \"--CODEGEN--\":122:134   */\n      revert\n        /* \"--CODEGEN--\":8:10   */\n    tag_65:\n        /* \"v2-periphery-master/contracts/UniswapV2Router01.sol\":8023:8608  function swapExactTokensForTokens(... */\n      swap2\n      swap4\n      pop\n      swap2\n      pop\n      sub(shl(0xa0, 0x01), 0x01)\n      dup2\n      calldataload\n      and\n      swap1\n      0x20\n      add\n      calldataload\n      tag_66\n      jump\t// in\n        /* \"v2-periphery-master/contracts/UniswapV2Router01.sol\":9853:10627  function swapTokensForExactETH(uint amountOut, uint amountInMax, address[] calldata path, address to, uint deadline)... */\n    tag_9:\n      callvalue\n        /* \"--CODEGEN--\":5:14   */\n      dup1\n        /* \"--CODEGEN--\":2:4   */\n      iszero\n      tag_70\n      jumpi\n        /* \"--CODEGEN--\":27:28   */\n      0x00\n        /* \"--CODEGEN--\":24:25   */\n      dup1\n        /* \"--CODEGEN--\":17:29   */\n      revert\n        /* \"--CODEGEN--\":2:4   */\n    tag_70:\n        /* \"v2-periphery-master/contracts/UniswapV2Router01.sol\":9853:10627  function swapTokensForExactETH(uint amountOut, uint amountInMax, address[] calldata path, address to, uint deadline)... */\n      pop\n      tag_37\n      0x04\n      dup1\n      calldatasize\n      sub\n        /* \"--CODEGEN--\":15:18   */\n      0xa0\n        /* \"--CODEGEN--\":10:13   */\n      dup2\n        /* \"--CODEGEN--\":7:19   */\n      lt\n        /* \"--CODEGEN--\":4:6   */\n      iszero\n      tag_72\n      jumpi\n        /* \"--CODEGEN--\":32:33   */\n      0x00\n        /* \"--CODEGEN--\":29:30   */\n      dup1\n        /* \"--CODEGEN--\":22:34   */\n      revert\n        /* \"--CODEGEN--\":4:6   */\n    tag_72:\n        /* \"v2-periphery-master/contracts/UniswapV2Router01.sol\":9853:10627  function swapTokensForExactETH(uint amountOut, uint amountInMax, address[] calldata path, address to, uint deadline)... */\n      dup2\n      calldataload\n      swap2\n      0x20\n      dup2\n      add\n      calldataload\n      swap2\n      dup2\n      add\n      swap1\n      0x60\n      dup2\n      add\n      0x40\n      dup3\n      add\n      calldataload\n      shl(0x20, 0x01)\n        /* \"--CODEGEN--\":11:39   */\n      dup2\n      gt\n        /* \"--CODEGEN--\":8:10   */\n      iszero\n      tag_73\n      jumpi\n        /* \"--CODEGEN--\":52:53   */\n      0x00\n        /* \"--CODEGEN--\":49:50   */\n      dup1\n        /* \"--CODEGEN--\":42:54   */\n      revert\n        /* \"--CODEGEN--\":8:10   */\n    tag_73:\n        /* \"v2-periphery-master/contracts/UniswapV2Router01.sol\":9853:10627  function swapTokensForExactETH(uint amountOut, uint amountInMax, address[] calldata path, address to, uint deadline)... */\n      dup3\n      add\n        /* \"--CODEGEN--\":41:50   */\n      dup4\n        /* \"--CODEGEN--\":34:38   */\n      0x20\n        /* \"--CODEGEN--\":18:32   */\n      dup3\n        /* \"--CODEGEN--\":14:39   */\n      add\n        /* \"--CODEGEN--\":11:51   */\n      gt\n        /* \"--CODEGEN--\":8:10   */\n      iszero\n      tag_74\n      jumpi\n        /* \"--CODEGEN--\":64:65   */\n      0x00\n        /* \"--CODEGEN--\":61:62   */\n      dup1\n        /* \"--CODEGEN--\":54:66   */\n      revert\n        /* \"--CODEGEN--\":8:10   */\n    tag_74:\n        /* \"v2-periphery-master/contracts/UniswapV2Router01.sol\":9853:10627  function swapTokensForExactETH(uint amountOut, uint amountInMax, address[] calldata path, address to, uint deadline)... */\n      dup1\n      calldataload\n      swap1\n      0x20\n      add\n      swap2\n        /* \"--CODEGEN--\":101:110   */\n      dup5\n        /* \"--CODEGEN--\":95:97   */\n      0x20\n        /* \"--CODEGEN--\":81:93   */\n      dup4\n        /* \"--CODEGEN--\":77:98   */\n      mul\n        /* \"--CODEGEN--\":67:75   */\n      dup5\n        /* \"--CODEGEN--\":63:99   */\n      add\n        /* \"--CODEGEN--\":60:111   */\n      gt\n      shl(0x20, 0x01)\n        /* \"--CODEGEN--\":25:37   */\n      dup4\n        /* \"--CODEGEN--\":22:51   */\n      gt\n        /* \"--CODEGEN--\":11:119   */\n      or\n        /* \"--CODEGEN--\":8:10   */\n      iszero\n      tag_75\n      jumpi\n        /* \"--CODEGEN--\":132:133   */\n      0x00\n        /* \"--CODEGEN--\":129:130   */\n      dup1\n        /* \"--CODEGEN--\":122:134   */\n      revert\n        /* \"--CODEGEN--\":8:10   */\n    tag_75:\n        /* \"v2-periphery-master/contracts/UniswapV2Router01.sol\":9853:10627  function swapTokensForExactETH(uint amountOut, uint amountInMax, address[] calldata path, address to, uint deadline)... */\n      swap2\n      swap4\n      pop\n      swap2\n      pop\n      sub(shl(0xa0, 0x01), 0x01)\n      dup2\n      calldataload\n      and\n      swap1\n      0x20\n      add\n      calldataload\n      tag_76\n      jump\t// in\n        /* \"v2-periphery-master/contracts/UniswapV2Router01.sol\":3226:4382  function addLiquidityETH(... */\n    tag_10:\n      tag_80\n      0x04\n      dup1\n      calldatasize\n      sub\n        /* \"--CODEGEN--\":15:18   */\n      0xe0\n        /* \"--CODEGEN--\":10:13   */\n      dup2\n        /* \"--CODEGEN--\":7:19   */\n      lt\n        /* \"--CODEGEN--\":4:6   */\n      iszero\n      tag_81\n      jumpi\n        /* \"--CODEGEN--\":32:33   */\n      0x00\n        /* \"--CODEGEN--\":29:30   */\n      dup1\n        /* \"--CODEGEN--\":22:34   */\n      revert\n        /* \"--CODEGEN--\":4:6   */\n    tag_81:\n      pop\n      sub(shl(0xa0, 0x01), 0x01)\n        /* \"v2-periphery-master/contracts/UniswapV2Router01.sol\":3226:4382  function addLiquidityETH(... */\n      dup2\n      calldataload\n      dup2\n      and\n      swap2\n      0x20\n      dup2\n      add\n      calldataload\n      swap2\n      0x40\n      dup3\n      add\n      calldataload\n      swap2\n      0x60\n      dup2\n      add\n      calldataload\n      swap2\n      0x80\n      dup3\n      add\n      calldataload\n      and\n      swap1\n      0xa0\n      dup2\n      add\n      calldataload\n      swap1\n      0xc0\n      add\n      calldataload\n      iszero\n      iszero\n      tag_82\n      jump\t// in\n    tag_80:\n      0x40\n      dup1\n      mload\n      swap4\n      dup5\n      mstore\n      0x20\n      dup5\n      add\n      swap3\n      swap1\n      swap3\n      mstore\n      dup3\n      dup3\n      add\n      mstore\n      mload\n      swap1\n      dup2\n      swap1\n      sub\n      0x60\n      add\n      swap1\n      return\n        /* \"v2-periphery-master/contracts/UniswapV2Router01.sol\":9181:9848  function swapExactETHForTokens(uint amountOutMin, address[] calldata path, address to, uint deadline)... */\n    tag_11:\n      tag_37\n      0x04\n      dup1\n      calldatasize\n      sub\n        /* \"--CODEGEN--\":15:18   */\n      0x80\n        /* \"--CODEGEN--\":10:13   */\n      dup2\n        /* \"--CODEGEN--\":7:19   */\n      lt\n        /* \"--CODEGEN--\":4:6   */\n      iszero\n      tag_84\n      jumpi\n        /* \"--CODEGEN--\":32:33   */\n      0x00\n        /* \"--CODEGEN--\":29:30   */\n      dup1\n        /* \"--CODEGEN--\":22:34   */\n      revert\n        /* \"--CODEGEN--\":4:6   */\n    tag_84:\n        /* \"v2-periphery-master/contracts/UniswapV2Router01.sol\":9181:9848  function swapExactETHForTokens(uint amountOutMin, address[] calldata path, address to, uint deadline)... */\n      dup2\n      calldataload\n      swap2\n      swap1\n      dup2\n      add\n      swap1\n      0x40\n      dup2\n      add\n      0x20\n      dup3\n      add\n      calldataload\n      shl(0x20, 0x01)\n        /* \"--CODEGEN--\":11:39   */\n      dup2\n      gt\n        /* \"--CODEGEN--\":8:10   */\n      iszero\n      tag_85\n      jumpi\n        /* \"--CODEGEN--\":52:53   */\n      0x00\n        /* \"--CODEGEN--\":49:50   */\n      dup1\n        /* \"--CODEGEN--\":42:54   */\n      revert\n        /* \"--CODEGEN--\":8:10   */\n    tag_85:\n        /* \"v2-periphery-master/contracts/UniswapV2Router01.sol\":9181:9848  function swapExactETHForTokens(uint amountOutMin, address[] calldata path, address to, uint deadline)... */\n      dup3\n      add\n        /* \"--CODEGEN--\":41:50   */\n      dup4\n        /* \"--CODEGEN--\":34:38   */\n      0x20\n        /* \"--CODEGEN--\":18:32   */\n      dup3\n        /* \"--CODEGEN--\":14:39   */\n      add\n        /* \"--CODEGEN--\":11:51   */\n      gt\n        /* \"--CODEGEN--\":8:10   */\n      iszero\n      tag_86\n      jumpi\n        /* \"--CODEGEN--\":64:65   */\n      0x00\n        /* \"--CODEGEN--\":61:62   */\n      dup1\n        /* \"--CODEGEN--\":54:66   */\n      revert\n        /* \"--CODEGEN--\":8:10   */\n    tag_86:\n        /* \"v2-periphery-master/contracts/UniswapV2Router01.sol\":9181:9848  function swapExactETHForTokens(uint amountOutMin, address[] calldata path, address to, uint deadline)... */\n      dup1\n      calldataload\n      swap1\n      0x20\n      add\n      swap2\n        /* \"--CODEGEN--\":101:110   */\n      dup5\n        /* \"--CODEGEN--\":95:97   */\n      0x20\n        /* \"--CODEGEN--\":81:93   */\n      dup4\n        /* \"--CODEGEN--\":77:98   */\n      mul\n        /* \"--CODEGEN--\":67:75   */\n      dup5\n        /* \"--CODEGEN--\":63:99   */\n      add\n        /* \"--CODEGEN--\":60:111   */\n      gt\n      shl(0x20, 0x01)\n        /* \"--CODEGEN--\":25:37   */\n      dup4\n        /* \"--CODEGEN--\":22:51   */\n      gt\n        /* \"--CODEGEN--\":11:119   */\n      or\n        /* \"--CODEGEN--\":8:10   */\n      iszero\n      tag_87\n      jumpi\n        /* \"--CODEGEN--\":132:133   */\n      0x00\n        /* \"--CODEGEN--\":129:130   */\n      dup1\n        /* \"--CODEGEN--\":122:134   */\n      revert\n        /* \"--CODEGEN--\":8:10   */\n    tag_87:\n        /* \"v2-periphery-master/contracts/UniswapV2Router01.sol\":9181:9848  function swapExactETHForTokens(uint amountOutMin, address[] calldata path, address to, uint deadline)... */\n      swap2\n      swap4\n      pop\n      swap2\n      pop\n      sub(shl(0xa0, 0x01), 0x01)\n      dup2\n      calldataload\n      and\n      swap1\n      0x20\n      add\n      calldataload\n      tag_88\n      jump\t// in\n        /* \"v2-periphery-master/contracts/UniswapV2Router01.sol\":8613:9176  function swapTokensForExactTokens(... */\n    tag_13:\n      callvalue\n        /* \"--CODEGEN--\":5:14   */\n      dup1\n        /* \"--CODEGEN--\":2:4   */\n      iszero\n      tag_96\n      jumpi\n        /* \"--CODEGEN--\":27:28   */\n      0x00\n        /* \"--CODEGEN--\":24:25   */\n      dup1\n        /* \"--CODEGEN--\":17:29   */\n      revert\n        /* \"--CODEGEN--\":2:4   */\n    tag_96:\n        /* \"v2-periphery-master/contracts/UniswapV2Router01.sol\":8613:9176  function swapTokensForExactTokens(... */\n      pop\n      tag_37\n      0x04\n      dup1\n      calldatasize\n      sub\n        /* \"--CODEGEN--\":15:18   */\n      0xa0\n        /* \"--CODEGEN--\":10:13   */\n      dup2\n        /* \"--CODEGEN--\":7:19   */\n      lt\n        /* \"--CODEGEN--\":4:6   */\n      iszero\n      tag_98\n      jumpi\n        /* \"--CODEGEN--\":32:33   */\n      0x00\n        /* \"--CODEGEN--\":29:30   */\n      dup1\n        /* \"--CODEGEN--\":22:34   */\n      revert\n        /* \"--CODEGEN--\":4:6   */\n    tag_98:\n        /* \"v2-periphery-master/contracts/UniswapV2Router01.sol\":8613:9176  function swapTokensForExactTokens(... */\n      dup2\n      calldataload\n      swap2\n      0x20\n      dup2\n      add\n      calldataload\n      swap2\n      dup2\n      add\n      swap1\n      0x60\n      dup2\n      add\n      0x40\n      dup3\n      add\n      calldataload\n      shl(0x20, 0x01)\n        /* \"--CODEGEN--\":11:39   */\n      dup2\n      gt\n        /* \"--CODEGEN--\":8:10   */\n      iszero\n      tag_99\n      jumpi\n        /* \"--CODEGEN--\":52:53   */\n      0x00\n        /* \"--CODEGEN--\":49:50   */\n      dup1\n        /* \"--CODEGEN--\":42:54   */\n      revert\n        /* \"--CODEGEN--\":8:10   */\n    tag_99:\n        /* \"v2-periphery-master/contracts/UniswapV2Router01.sol\":8613:9176  function swapTokensForExactTokens(... */\n      dup3\n      add\n        /* \"--CODEGEN--\":41:50   */\n      dup4\n        /* \"--CODEGEN--\":34:38   */\n      0x20\n        /* \"--CODEGEN--\":18:32   */\n      dup3\n        /* \"--CODEGEN--\":14:39   */\n      add\n        /* \"--CODEGEN--\":11:51   */\n      gt\n        /* \"--CODEGEN--\":8:10   */\n      iszero\n      tag_100\n      jumpi\n        /* \"--CODEGEN--\":64:65   */\n      0x00\n        /* \"--CODEGEN--\":61:62   */\n      dup1\n        /* \"--CODEGEN--\":54:66   */\n      revert\n        /* \"--CODEGEN--\":8:10   */\n    tag_100:\n        /* \"v2-periphery-master/contracts/UniswapV2Router01.sol\":8613:9176  function swapTokensForExactTokens(... */\n      dup1\n      calldataload\n      swap1\n      0x20\n      add\n      swap2\n        /* \"--CODEGEN--\":101:110   */\n      dup5\n        /* \"--CODEGEN--\":95:97   */\n      0x20\n        /* \"--CODEGEN--\":81:93   */\n      dup4\n        /* \"--CODEGEN--\":77:98   */\n      mul\n        /* \"--CODEGEN--\":67:75   */\n      dup5\n        /* \"--CODEGEN--\":63:99   */\n      add\n        /* \"--CODEGEN--\":60:111   */\n      gt\n      shl(0x20, 0x01)\n        /* \"--CODEGEN--\":25:37   */\n      dup4\n        /* \"--CODEGEN--\":22:51   */\n      gt\n        /* \"--CODEGEN--\":11:119   */\n      or\n        /* \"--CODEGEN--\":8:10   */\n      iszero\n      tag_101\n      jumpi\n        /* \"--CODEGEN--\":132:133   */\n      0x00\n        /* \"--CODEGEN--\":129:130   */\n      dup1\n        /* \"--CODEGEN--\":122:134   */\n      revert\n        /* \"--CODEGEN--\":8:10   */\n    tag_101:\n        /* \"v2-periphery-master/contracts/UniswapV2Router01.sol\":8613:9176  function swapTokensForExactTokens(... */\n      swap2\n      swap4\n      pop\n      swap2\n      pop\n      sub(shl(0xa0, 0x01), 0x01)\n      dup2\n      calldataload\n      and\n      swap1\n      0x20\n      add\n      calldataload\n      tag_102\n      jump\t// in\n        /* \"v2-periphery-master/contracts/UniswapV2Router01.sol\":2227:3221  function addLiquidity(... */\n    tag_14:\n      callvalue\n        /* \"--CODEGEN--\":5:14   */\n      dup1\n        /* \"--CODEGEN--\":2:4   */\n      iszero\n      tag_106\n      jumpi\n        /* \"--CODEGEN--\":27:28   */\n      0x00\n        /* \"--CODEGEN--\":24:25   */\n      dup1\n        /* \"--CODEGEN--\":17:29   */\n      revert\n        /* \"--CODEGEN--\":2:4   */\n    tag_106:\n        /* \"v2-periphery-master/contracts/UniswapV2Router01.sol\":2227:3221  function addLiquidity(... */\n      pop\n      tag_80\n      0x04\n      dup1\n      calldatasize\n      sub\n        /* \"--CODEGEN--\":15:18   */\n      0x0120\n        /* \"--CODEGEN--\":10:13   */\n      dup2\n        /* \"--CODEGEN--\":7:19   */\n      lt\n        /* \"--CODEGEN--\":4:6   */\n      iszero\n      tag_108\n      jumpi\n        /* \"--CODEGEN--\":32:33   */\n      0x00\n        /* \"--CODEGEN--\":29:30   */\n      dup1\n        /* \"--CODEGEN--\":22:34   */\n      revert\n        /* \"--CODEGEN--\":4:6   */\n    tag_108:\n      pop\n      sub(shl(0xa0, 0x01), 0x01)\n        /* \"v2-periphery-master/contracts/UniswapV2Router01.sol\":2227:3221  function addLiquidity(... */\n      dup2\n      calldataload\n      dup2\n      and\n      swap2\n      0x20\n      dup2\n      add\n      calldataload\n      dup3\n      and\n      swap2\n      0x40\n      dup3\n      add\n      calldataload\n      swap2\n      0x60\n      dup2\n      add\n      calldataload\n      swap2\n      0x80\n      dup3\n      add\n      calldataload\n      swap2\n      0xa0\n      dup2\n      add\n      calldataload\n      swap2\n      0xc0\n      dup3\n      add\n      calldataload\n      dup2\n      and\n      swap2\n      0xe0\n      dup2\n      add\n      calldataload\n      swap2\n      0x0100\n      swap1\n      swap2\n      add\n      calldataload\n      and\n      tag_109\n      jump\t// in\n        /* \"v2-periphery-master/contracts/UniswapV2Router01.sol\":417:455  address public immutable override WETH */\n    tag_15:\n      callvalue\n        /* \"--CODEGEN--\":5:14   */\n      dup1\n        /* \"--CODEGEN--\":2:4   */\n      iszero\n      tag_110\n      jumpi\n        /* \"--CODEGEN--\":27:28   */\n      0x00\n        /* \"--CODEGEN--\":24:25   */\n      dup1\n        /* \"--CODEGEN--\":17:29   */\n      revert\n        /* \"--CODEGEN--\":2:4   */\n    tag_110:\n        /* \"v2-periphery-master/contracts/UniswapV2Router01.sol\":417:455  address public immutable override WETH */\n      pop\n      tag_111\n      tag_112\n      jump\t// in\n    tag_111:\n      0x40\n      dup1\n      mload\n      sub(shl(0xa0, 0x01), 0x01)\n      swap1\n      swap3\n      and\n      dup3\n      mstore\n      mload\n      swap1\n      dup2\n      swap1\n      sub\n      0x20\n      add\n      swap1\n      return\n        /* \"v2-periphery-master/contracts/UniswapV2Router01.sol\":12209:12387  function quote(uint amountA, uint reserveA, uint reserveB) public pure override returns (uint amountB) {... */\n    tag_16:\n      callvalue\n        /* \"--CODEGEN--\":5:14   */\n      dup1\n        /* \"--CODEGEN--\":2:4   */\n      iszero\n      tag_113\n      jumpi\n        /* \"--CODEGEN--\":27:28   */\n      0x00\n        /* \"--CODEGEN--\":24:25   */\n      dup1\n        /* \"--CODEGEN--\":17:29   */\n      revert\n        /* \"--CODEGEN--\":2:4   */\n    tag_113:\n        /* \"v2-periphery-master/contracts/UniswapV2Router01.sol\":12209:12387  function quote(uint amountA, uint reserveA, uint reserveB) public pure override returns (uint amountB) {... */\n      pop\n      tag_33\n      0x04\n      dup1\n      calldatasize\n      sub\n        /* \"--CODEGEN--\":15:17   */\n      0x60\n        /* \"--CODEGEN--\":10:13   */\n      dup2\n        /* \"--CODEGEN--\":7:18   */\n      lt\n        /* \"--CODEGEN--\":4:6   */\n      iszero\n      tag_115\n      jumpi\n        /* \"--CODEGEN--\":31:32   */\n      0x00\n        /* \"--CODEGEN--\":28:29   */\n      dup1\n        /* \"--CODEGEN--\":21:33   */\n      revert\n        /* \"--CODEGEN--\":4:6   */\n    tag_115:\n      pop\n        /* \"v2-periphery-master/contracts/UniswapV2Router01.sol\":12209:12387  function quote(uint amountA, uint reserveA, uint reserveB) public pure override returns (uint amountB) {... */\n      dup1\n      calldataload\n      swap1\n      0x20\n      dup2\n      add\n      calldataload\n      swap1\n      0x40\n      add\n      calldataload\n      tag_116\n      jump\t// in\n        /* \"v2-periphery-master/contracts/UniswapV2Router01.sol\":4422:5263  function removeLiquidity(... */\n    tag_17:\n      callvalue\n        /* \"--CODEGEN--\":5:14   */\n      dup1\n        /* \"--CODEGEN--\":2:4   */\n      iszero\n      tag_117\n      jumpi\n        /* \"--CODEGEN--\":27:28   */\n      0x00\n        /* \"--CODEGEN--\":24:25   */\n      dup1\n        /* \"--CODEGEN--\":17:29   */\n      revert\n        /* \"--CODEGEN--\":2:4   */\n    tag_117:\n        /* \"v2-periphery-master/contracts/UniswapV2Router01.sol\":4422:5263  function removeLiquidity(... */\n      pop\n      tag_29\n      0x04\n      dup1\n      calldatasize\n      sub\n        /* \"--CODEGEN--\":15:18   */\n      0xe0\n        /* \"--CODEGEN--\":10:13   */\n      dup2\n        /* \"--CODEGEN--\":7:19   */\n      lt\n        /* \"--CODEGEN--\":4:6   */\n      iszero\n      tag_119\n      jumpi\n        /* \"--CODEGEN--\":32:33   */\n      0x00\n        /* \"--CODEGEN--\":29:30   */\n      dup1\n        /* \"--CODEGEN--\":22:34   */\n      revert\n        /* \"--CODEGEN--\":4:6   */\n    tag_119:\n      pop\n      sub(shl(0xa0, 0x01), 0x01)\n        /* \"v2-periphery-master/contracts/UniswapV2Router01.sol\":4422:5263  function removeLiquidity(... */\n      dup2\n      calldataload\n      dup2\n      and\n      swap2\n      0x20\n      dup2\n      add\n      calldataload\n      dup3\n      and\n      swap2\n      0x40\n      dup3\n      add\n      calldataload\n      swap2\n      0x60\n      dup2\n      add\n      calldataload\n      swap2\n      0x80\n      dup3\n      add\n      calldataload\n      swap2\n      0xa0\n      dup2\n      add\n      calldataload\n      swap1\n      swap2\n      and\n      swap1\n      0xc0\n      add\n      calldataload\n      tag_120\n      jump\t// in\n        /* \"v2-periphery-master/contracts/UniswapV2Router01.sol\":370:411  address public immutable override factory */\n    tag_18:\n      callvalue\n        /* \"--CODEGEN--\":5:14   */\n      dup1\n        /* \"--CODEGEN--\":2:4   */\n      iszero\n      tag_121\n      jumpi\n        /* \"--CODEGEN--\":27:28   */\n      0x00\n        /* \"--CODEGEN--\":24:25   */\n      dup1\n        /* \"--CODEGEN--\":17:29   */\n      revert\n        /* \"--CODEGEN--\":2:4   */\n    tag_121:\n        /* \"v2-periphery-master/contracts/UniswapV2Router01.sol\":370:411  address public immutable override factory */\n      pop\n      tag_111\n      tag_123\n      jump\t// in\n        /* \"v2-periphery-master/contracts/UniswapV2Router01.sol\":12809:13002  function getAmountsOut(uint amountIn, address[] memory path) public view override returns (uint[] memory amounts) {... */\n    tag_19:\n      callvalue\n        /* \"--CODEGEN--\":5:14   */\n      dup1\n        /* \"--CODEGEN--\":2:4   */\n      iszero\n      tag_124\n      jumpi\n        /* \"--CODEGEN--\":27:28   */\n      0x00\n        /* \"--CODEGEN--\":24:25   */\n      dup1\n        /* \"--CODEGEN--\":17:29   */\n      revert\n        /* \"--CODEGEN--\":2:4   */\n    tag_124:\n        /* \"v2-periphery-master/contracts/UniswapV2Router01.sol\":12809:13002  function getAmountsOut(uint amountIn, address[] memory path) public view override returns (uint[] memory amounts) {... */\n      pop\n      tag_37\n      0x04\n      dup1\n      calldatasize\n      sub\n        /* \"--CODEGEN--\":15:17   */\n      0x40\n        /* \"--CODEGEN--\":10:13   */\n      dup2\n        /* \"--CODEGEN--\":7:18   */\n      lt\n        /* \"--CODEGEN--\":4:6   */\n      iszero\n      tag_126\n      jumpi\n        /* \"--CODEGEN--\":31:32   */\n      0x00\n        /* \"--CODEGEN--\":28:29   */\n      dup1\n        /* \"--CODEGEN--\":21:33   */\n      revert\n        /* \"--CODEGEN--\":4:6   */\n    tag_126:\n        /* \"v2-periphery-master/contracts/UniswapV2Router01.sol\":12809:13002  function getAmountsOut(uint amountIn, address[] memory path) public view override returns (uint[] memory amounts) {... */\n      dup2\n      calldataload\n      swap2\n      swap1\n      dup2\n      add\n      swap1\n      0x40\n      dup2\n      add\n      0x20\n      dup3\n      add\n      calldataload\n      shl(0x20, 0x01)\n        /* \"--CODEGEN--\":11:39   */\n      dup2\n      gt\n        /* \"--CODEGEN--\":8:10   */\n      iszero\n      tag_127\n      jumpi\n        /* \"--CODEGEN--\":52:53   */\n      0x00\n        /* \"--CODEGEN--\":49:50   */\n      dup1\n        /* \"--CODEGEN--\":42:54   */\n      revert\n        /* \"--CODEGEN--\":8:10   */\n    tag_127:\n        /* \"v2-periphery-master/contracts/UniswapV2Router01.sol\":12809:13002  function getAmountsOut(uint amountIn, address[] memory path) public view override returns (uint[] memory amounts) {... */\n      dup3\n      add\n        /* \"--CODEGEN--\":41:50   */\n      dup4\n        /* \"--CODEGEN--\":34:38   */\n      0x20\n        /* \"--CODEGEN--\":18:32   */\n      dup3\n        /* \"--CODEGEN--\":14:39   */\n      add\n        /* \"--CODEGEN--\":11:51   */\n      gt\n        /* \"--CODEGEN--\":8:10   */\n      iszero\n      tag_128\n      jumpi\n        /* \"--CODEGEN--\":64:65   */\n      0x00\n        /* \"--CODEGEN--\":61:62   */\n      dup1\n        /* \"--CODEGEN--\":54:66   */\n      revert\n        /* \"--CODEGEN--\":8:10   */\n    tag_128:\n        /* \"v2-periphery-master/contracts/UniswapV2Router01.sol\":12809:13002  function getAmountsOut(uint amountIn, address[] memory path) public view override returns (uint[] memory amounts) {... */\n      dup1\n      calldataload\n      swap1\n      0x20\n      add\n      swap2\n        /* \"--CODEGEN--\":101:110   */\n      dup5\n        /* \"--CODEGEN--\":95:97   */\n      0x20\n        /* \"--CODEGEN--\":81:93   */\n      dup4\n        /* \"--CODEGEN--\":77:98   */\n      mul\n        /* \"--CODEGEN--\":67:75   */\n      dup5\n        /* \"--CODEGEN--\":63:99   */\n      add\n        /* \"--CODEGEN--\":60:111   */\n      gt\n      shl(0x20, 0x01)\n        /* \"--CODEGEN--\":25:37   */\n      dup4\n        /* \"--CODEGEN--\":22:51   */\n      gt\n        /* \"--CODEGEN--\":11:119   */\n      or\n        /* \"--CODEGEN--\":8:10   */\n      iszero\n      tag_129\n      jumpi\n        /* \"--CODEGEN--\":132:133   */\n      0x00\n        /* \"--CODEGEN--\":129:130   */\n      dup1\n        /* \"--CODEGEN--\":122:134   */\n      revert\n        /* \"--CODEGEN--\":8:10   */\n    tag_129:\n        /* \"v2-periphery-master/contracts/UniswapV2Router01.sol\":12809:13002  function getAmountsOut(uint amountIn, address[] memory path) public view override returns (uint[] memory amounts) {... */\n      swap2\n      swap1\n      dup1\n      dup1\n      0x20\n      mul\n      0x20\n      add\n      mload(0x40)\n      swap1\n      dup2\n      add\n      0x40\n      mstore\n      dup1\n      swap4\n      swap3\n      swap2\n      swap1\n      dup2\n      dup2\n      mstore\n      0x20\n      add\n      dup4\n      dup4\n      0x20\n      mul\n        /* \"--CODEGEN--\":30:33   */\n      dup1\n        /* \"--CODEGEN--\":22:28   */\n      dup3\n        /* \"--CODEGEN--\":14:20   */\n      dup5\n        /* \"--CODEGEN--\":1:34   */\n      calldatacopy\n        /* \"--CODEGEN--\":99:100   */\n      0x00\n        /* \"--CODEGEN--\":81:97   */\n      swap3\n      add\n        /* \"--CODEGEN--\":74:101   */\n      swap2\n      swap1\n      swap2\n      mstore\n      pop\n        /* \"v2-periphery-master/contracts/UniswapV2Router01.sol\":12809:13002  function getAmountsOut(uint amountIn, address[] memory path) public view override returns (uint[] memory amounts) {... */\n      swap3\n      swap6\n      pop\n      tag_130\n      swap5\n      pop\n      pop\n      pop\n      pop\n      pop\n      jump\t// in\n        /* \"v2-periphery-master/contracts/UniswapV2Router01.sol\":6578:7226  function removeLiquidityETHWithPermit(... */\n    tag_20:\n      callvalue\n        /* \"--CODEGEN--\":5:14   */\n      dup1\n        /* \"--CODEGEN--\":2:4   */\n      iszero\n      tag_134\n      jumpi\n        /* \"--CODEGEN--\":27:28   */\n      0x00\n        /* \"--CODEGEN--\":24:25   */\n      dup1\n        /* \"--CODEGEN--\":17:29   */\n      revert\n        /* \"--CODEGEN--\":2:4   */\n    tag_134:\n        /* \"v2-periphery-master/contracts/UniswapV2Router01.sol\":6578:7226  function removeLiquidityETHWithPermit(... */\n      pop\n      tag_29\n      0x04\n      dup1\n      calldatasize\n      sub\n        /* \"--CODEGEN--\":15:18   */\n      0x0140\n        /* \"--CODEGEN--\":10:13   */\n      dup2\n        /* \"--CODEGEN--\":7:19   */\n      lt\n        /* \"--CODEGEN--\":4:6   */\n      iszero\n      tag_136\n      jumpi\n        /* \"--CODEGEN--\":32:33   */\n      0x00\n        /* \"--CODEGEN--\":29:30   */\n      dup1\n        /* \"--CODEGEN--\":22:34   */\n      revert\n        /* \"--CODEGEN--\":4:6   */\n    tag_136:\n      pop\n      sub(shl(0xa0, 0x01), 0x01)\n        /* \"v2-periphery-master/contracts/UniswapV2Router01.sol\":6578:7226  function removeLiquidityETHWithPermit(... */\n      dup2\n      calldataload\n      dup2\n      and\n      swap2\n      0x20\n      dup2\n      add\n      calldataload\n      swap2\n      0x40\n      dup3\n      add\n      calldataload\n      swap2\n      0x60\n      dup2\n      add\n      calldataload\n      swap2\n      0x80\n      dup3\n      add\n      calldataload\n      and\n      swap1\n      0xa0\n      dup2\n      add\n      calldataload\n      swap1\n      0xc0\n      dup2\n      add\n      calldataload\n      iszero\n      iszero\n      swap1\n      0xff\n      0xe0\n      dup3\n      add\n      calldataload\n      and\n      swap1\n      0x0100\n      dup2\n      add\n      calldataload\n      swap1\n      0x0120\n      add\n      calldataload\n      tag_137\n      jump\t// in\n        /* \"v2-periphery-master/contracts/UniswapV2Router01.sol\":11433:12203  function swapETHForExactTokens(uint amountOut, address[] calldata path, address to, uint deadline)... */\n    tag_21:\n      tag_37\n      0x04\n      dup1\n      calldatasize\n      sub\n        /* \"--CODEGEN--\":15:18   */\n      0x80\n        /* \"--CODEGEN--\":10:13   */\n      dup2\n        /* \"--CODEGEN--\":7:19   */\n      lt\n        /* \"--CODEGEN--\":4:6   */\n      iszero\n      tag_139\n      jumpi\n        /* \"--CODEGEN--\":32:33   */\n      0x00\n        /* \"--CODEGEN--\":29:30   */\n      dup1\n        /* \"--CODEGEN--\":22:34   */\n      revert\n        /* \"--CODEGEN--\":4:6   */\n    tag_139:\n        /* \"v2-periphery-master/contracts/UniswapV2Router01.sol\":11433:12203  function swapETHForExactTokens(uint amountOut, address[] calldata path, address to, uint deadline)... */\n      dup2\n      calldataload\n      swap2\n      swap1\n      dup2\n      add\n      swap1\n      0x40\n      dup2\n      add\n      0x20\n      dup3\n      add\n      calldataload\n      shl(0x20, 0x01)\n        /* \"--CODEGEN--\":11:39   */\n      dup2\n      gt\n        /* \"--CODEGEN--\":8:10   */\n      iszero\n      tag_140\n      jumpi\n        /* \"--CODEGEN--\":52:53   */\n      0x00\n        /* \"--CODEGEN--\":49:50   */\n      dup1\n        /* \"--CODEGEN--\":42:54   */\n      revert\n        /* \"--CODEGEN--\":8:10   */\n    tag_140:\n        /* \"v2-periphery-master/contracts/UniswapV2Router01.sol\":11433:12203  function swapETHForExactTokens(uint amountOut, address[] calldata path, address to, uint deadline)... */\n      dup3\n      add\n        /* \"--CODEGEN--\":41:50   */\n      dup4\n        /* \"--CODEGEN--\":34:38   */\n      0x20\n        /* \"--CODEGEN--\":18:32   */\n      dup3\n        /* \"--CODEGEN--\":14:39   */\n      add\n        /* \"--CODEGEN--\":11:51   */\n      gt\n        /* \"--CODEGEN--\":8:10   */\n      iszero\n      tag_141\n      jumpi\n        /* \"--CODEGEN--\":64:65   */\n      0x00\n        /* \"--CODEGEN--\":61:62   */\n      dup1\n        /* \"--CODEGEN--\":54:66   */\n      revert\n        /* \"--CODEGEN--\":8:10   */\n    tag_141:\n        /* \"v2-periphery-master/contracts/UniswapV2Router01.sol\":11433:12203  function swapETHForExactTokens(uint amountOut, address[] calldata path, address to, uint deadline)... */\n      dup1\n      calldataload\n      swap1\n      0x20\n      add\n      swap2\n        /* \"--CODEGEN--\":101:110   */\n      dup5\n        /* \"--CODEGEN--\":95:97   */\n      0x20\n        /* \"--CODEGEN--\":81:93   */\n      dup4\n        /* \"--CODEGEN--\":77:98   */\n      mul\n        /* \"--CODEGEN--\":67:75   */\n      dup5\n        /* \"--CODEGEN--\":63:99   */\n      add\n        /* \"--CODEGEN--\":60:111   */\n      gt\n      shl(0x20, 0x01)\n        /* \"--CODEGEN--\":25:37   */\n      dup4\n        /* \"--CODEGEN--\":22:51   */\n      gt\n        /* \"--CODEGEN--\":11:119   */\n      or\n        /* \"--CODEGEN--\":8:10   */\n      iszero\n      tag_142\n      jumpi\n        /* \"--CODEGEN--\":132:133   */\n      0x00\n        /* \"--CODEGEN--\":129:130   */\n      dup1\n        /* \"--CODEGEN--\":122:134   */\n      revert\n        /* \"--CODEGEN--\":8:10   */\n    tag_142:\n        /* \"v2-periphery-master/contracts/UniswapV2Router01.sol\":11433:12203  function swapETHForExactTokens(uint amountOut, address[] calldata path, address to, uint deadline)... */\n      swap2\n      swap4\n      pop\n      swap2\n      pop\n      sub(shl(0xa0, 0x01), 0x01)\n      dup2\n      calldataload\n      and\n      swap1\n      0x20\n      add\n      calldataload\n      tag_143\n      jump\t// in\n        /* \"v2-periphery-master/contracts/UniswapV2Router01.sol\":5268:5913  function removeLiquidityETH(... */\n    tag_31:\n        /* \"v2-periphery-master/contracts/UniswapV2Router01.sol\":5490:5506  uint amountToken */\n      0x00\n        /* \"v2-periphery-master/contracts/UniswapV2Router01.sol\":5508:5522  uint amountETH */\n      dup1\n        /* \"v2-periphery-master/contracts/UniswapV2Router01.sol\":5471:5479  deadline */\n      dup3\n        /* \"v2-periphery-master/contracts/UniswapV2Router01.sol\":523:538  block.timestamp */\n      timestamp\n        /* \"v2-periphery-master/contracts/UniswapV2Router01.sol\":511:519  deadline */\n      dup2\n        /* \"v2-periphery-master/contracts/UniswapV2Router01.sol\":511:538  deadline >= block.timestamp */\n      lt\n      iszero\n        /* \"v2-periphery-master/contracts/UniswapV2Router01.sol\":503:567  require(deadline >= block.timestamp, 'UniswapV2Router: EXPIRED') */\n      tag_148\n      jumpi\n      0x40\n      dup1\n      mload\n      shl(0xe5, 0x461bcd)\n      dup2\n      mstore\n      0x20\n      0x04\n      dup3\n      add\n      mstore\n      0x18\n      0x24\n      dup3\n      add\n      mstore\n      0x00\n      dup1\n      mload\n      0x20\n      data_ee5734acb032ffb1bbaf889d52ccf9fbd1ce0f1ae12bee2c46068d51b910e2c5\n      dup4\n      codecopy\n      dup2\n      mload\n      swap2\n      mstore\n      0x44\n      dup3\n      add\n      mstore\n      swap1\n      mload\n      swap1\n      dup2\n      swap1\n      sub\n      0x64\n      add\n      swap1\n      revert\n    tag_148:\n        /* \"v2-periphery-master/contracts/UniswapV2Router01.sol\":5561:5749  removeLiquidity(... */\n      tag_150\n        /* \"v2-periphery-master/contracts/UniswapV2Router01.sol\":5590:5595  token */\n      dup10\n        /* \"v2-periphery-master/contracts/UniswapV2Router01.sol\":5609:5613  WETH */\n      immutable(\"0xa5325ff0f63e0b147eb82a60c572e47fb617bbfb06095783ede1fdcec882b479\")\n        /* \"v2-periphery-master/contracts/UniswapV2Router01.sol\":5627:5636  liquidity */\n      dup11\n        /* \"v2-periphery-master/contracts/UniswapV2Router01.sol\":5650:5664  amountTokenMin */\n      dup11\n        /* \"v2-periphery-master/contracts/UniswapV2Router01.sol\":5678:5690  amountETHMin */\n      dup11\n        /* \"v2-periphery-master/contracts/UniswapV2Router01.sol\":5712:5716  this */\n      address\n        /* \"v2-periphery-master/contracts/UniswapV2Router01.sol\":5731:5739  deadline */\n      dup11\n        /* \"v2-periphery-master/contracts/UniswapV2Router01.sol\":5561:5576  removeLiquidity */\n      tag_120\n        /* \"v2-periphery-master/contracts/UniswapV2Router01.sol\":5561:5749  removeLiquidity(... */\n      jump\t// in\n    tag_150:\n        /* \"v2-periphery-master/contracts/UniswapV2Router01.sol\":5534:5749  (amountToken, amountETH) = removeLiquidity(... */\n      swap1\n      swap4\n      pop\n      swap2\n      pop\n        /* \"v2-periphery-master/contracts/UniswapV2Router01.sol\":5759:5810  TransferHelper.safeTransfer(token, to, amountToken) */\n      tag_151\n        /* \"v2-periphery-master/contracts/UniswapV2Router01.sol\":5787:5792  token */\n      dup10\n        /* \"v2-periphery-master/contracts/UniswapV2Router01.sol\":5794:5796  to */\n      dup7\n        /* \"v2-periphery-master/contracts/UniswapV2Router01.sol\":5534:5749  (amountToken, amountETH) = removeLiquidity(... */\n      dup6\n        /* \"v2-periphery-master/contracts/UniswapV2Router01.sol\":5759:5786  TransferHelper.safeTransfer */\n      tag_152\n        /* \"v2-periphery-master/contracts/UniswapV2Router01.sol\":5759:5810  TransferHelper.safeTransfer(token, to, amountToken) */\n      jump\t// in\n    tag_151:\n        /* \"v2-periphery-master/contracts/UniswapV2Router01.sol\":5826:5830  WETH */\n      immutable(\"0xa5325ff0f63e0b147eb82a60c572e47fb617bbfb06095783ede1fdcec882b479\")\n      sub(shl(0xa0, 0x01), 0x01)\n        /* \"v2-periphery-master/contracts/UniswapV2Router01.sol\":5820:5840  IWETH(WETH).withdraw */\n      and\n      0x2e1a7d4d\n        /* \"v2-periphery-master/contracts/UniswapV2Router01.sol\":5841:5850  amountETH */\n      dup4\n        /* \"v2-periphery-master/contracts/UniswapV2Router01.sol\":5820:5851  IWETH(WETH).withdraw(amountETH) */\n      mload(0x40)\n      dup3\n      0xffffffff\n      and\n      0xe0\n      shl\n      dup2\n      mstore\n      0x04\n      add\n      dup1\n      dup3\n      dup2\n      mstore\n      0x20\n      add\n      swap2\n      pop\n      pop\n      0x00\n      mload(0x40)\n      dup1\n      dup4\n      sub\n      dup2\n      0x00\n      dup8\n      dup1\n      extcodesize\n      iszero\n        /* \"--CODEGEN--\":5:14   */\n      dup1\n        /* \"--CODEGEN--\":2:4   */\n      iszero\n      tag_153\n      jumpi\n        /* \"--CODEGEN--\":27:28   */\n      0x00\n        /* \"--CODEGEN--\":24:25   */\n      dup1\n        /* \"--CODEGEN--\":17:29   */\n      revert\n        /* \"--CODEGEN--\":2:4   */\n    tag_153:\n        /* \"v2-periphery-master/contracts/UniswapV2Router01.sol\":5820:5851  IWETH(WETH).withdraw(amountETH) */\n      pop\n      gas\n      call\n      iszero\n        /* \"--CODEGEN--\":8:17   */\n      dup1\n        /* \"--CODEGEN--\":5:7   */\n      iszero\n      tag_155\n      jumpi\n        /* \"--CODEGEN--\":45:61   */\n      returndatasize\n        /* \"--CODEGEN--\":42:43   */\n      0x00\n        /* \"--CODEGEN--\":39:40   */\n      dup1\n        /* \"--CODEGEN--\":24:62   */\n      returndatacopy\n        /* \"--CODEGEN--\":77:93   */\n      returndatasize\n        /* \"--CODEGEN--\":74:75   */\n      0x00\n        /* \"--CODEGEN--\":67:94   */\n      revert\n        /* \"--CODEGEN--\":5:7   */\n    tag_155:\n        /* \"v2-periphery-master/contracts/UniswapV2Router01.sol\":5820:5851  IWETH(WETH).withdraw(amountETH) */\n      pop\n      pop\n      pop\n      pop\n        /* \"v2-periphery-master/contracts/UniswapV2Router01.sol\":5861:5906  TransferHelper.safeTransferETH(to, amountETH) */\n      tag_156\n        /* \"v2-periphery-master/contracts/UniswapV2Router01.sol\":5892:5894  to */\n      dup6\n        /* \"v2-periphery-master/contracts/UniswapV2Router01.sol\":5896:5905  amountETH */\n      dup4\n        /* \"v2-periphery-master/contracts/UniswapV2Router01.sol\":5861:5891  TransferHelper.safeTransferETH */\n      tag_157\n        /* \"v2-periphery-master/contracts/UniswapV2Router01.sol\":5861:5906  TransferHelper.safeTransferETH(to, amountETH) */\n      jump\t// in\n    tag_156:\n        /* \"v2-periphery-master/contracts/UniswapV2Router01.sol\":5268:5913  function removeLiquidityETH(... */\n      pop\n      swap7\n      pop\n      swap7\n      swap5\n      pop\n      pop\n      pop\n      pop\n      pop\n      jump\t// out\n        /* \"v2-periphery-master/contracts/UniswapV2Router01.sol\":12393:12595  function getAmountOut(uint amountIn, uint reserveIn, uint reserveOut) public pure override returns (uint amountOut) {... */\n    tag_35:\n        /* \"v2-periphery-master/contracts/UniswapV2Router01.sol\":12493:12507  uint amountOut */\n      0x00\n        /* \"v2-periphery-master/contracts/UniswapV2Router01.sol\":12526:12588  UniswapV2Library.getAmountOut(amountIn, reserveIn, reserveOut) */\n      tag_159\n        /* \"v2-periphery-master/contracts/UniswapV2Router01.sol\":12556:12564  amountIn */\n      dup5\n        /* \"v2-periphery-master/contracts/UniswapV2Router01.sol\":12566:12575  reserveIn */\n      dup5\n        /* \"v2-periphery-master/contracts/UniswapV2Router01.sol\":12577:12587  reserveOut */\n      dup5\n        /* \"v2-periphery-master/contracts/UniswapV2Router01.sol\":12526:12555  UniswapV2Library.getAmountOut */\n      tag_160\n        /* \"v2-periphery-master/contracts/UniswapV2Router01.sol\":12526:12588  UniswapV2Library.getAmountOut(amountIn, reserveIn, reserveOut) */\n      jump\t// in\n    tag_159:\n        /* \"v2-periphery-master/contracts/UniswapV2Router01.sol\":12519:12588  return UniswapV2Library.getAmountOut(amountIn, reserveIn, reserveOut) */\n      swap5\n        /* \"v2-periphery-master/contracts/UniswapV2Router01.sol\":12393:12595  function getAmountOut(uint amountIn, uint reserveIn, uint reserveOut) public pure override returns (uint amountOut) {... */\n      swap4\n      pop\n      pop\n      pop\n      pop\n      jump\t// out\n        /* \"v2-periphery-master/contracts/UniswapV2Router01.sol\":10632:11428  function swapExactTokensForETH(uint amountIn, uint amountOutMin, address[] calldata path, address to, uint deadline)... */\n    tag_42:\n        /* \"v2-periphery-master/contracts/UniswapV2Router01.sol\":10825:10846  uint[] memory amounts */\n      0x60\n        /* \"v2-periphery-master/contracts/UniswapV2Router01.sol\":10798:10806  deadline */\n      dup2\n        /* \"v2-periphery-master/contracts/UniswapV2Router01.sol\":523:538  block.timestamp */\n      timestamp\n        /* \"v2-periphery-master/contracts/UniswapV2Router01.sol\":511:519  deadline */\n      dup2\n        /* \"v2-periphery-master/contracts/UniswapV2Router01.sol\":511:538  deadline >= block.timestamp */\n      lt\n      iszero\n        /* \"v2-periphery-master/contracts/UniswapV2Router01.sol\":503:567  require(deadline >= block.timestamp, 'UniswapV2Router: EXPIRED') */\n      tag_162\n      jumpi\n      0x40\n      dup1\n      mload\n      shl(0xe5, 0x461bcd)\n      dup2\n      mstore\n      0x20\n      0x04\n      dup3\n      add\n      mstore\n      0x18\n      0x24\n      dup3\n      add\n      mstore\n      0x00\n      dup1\n      mload\n      0x20\n      data_ee5734acb032ffb1bbaf889d52ccf9fbd1ce0f1ae12bee2c46068d51b910e2c5\n      dup4\n      codecopy\n      dup2\n      mload\n      swap2\n      mstore\n      0x44\n      dup3\n      add\n      mstore\n      swap1\n      mload\n      swap1\n      dup2\n      swap1\n      sub\n      0x64\n      add\n      swap1\n      revert\n    tag_162:\n      sub(shl(0xa0, 0x01), 0x01)\n        /* \"v2-periphery-master/contracts/UniswapV2Router01.sol\":10895:10899  WETH */\n      immutable(\"0xa5325ff0f63e0b147eb82a60c572e47fb617bbfb06095783ede1fdcec882b479\")\n        /* \"v2-periphery-master/contracts/UniswapV2Router01.sol\":10870:10899  path[path.length - 1] == WETH */\n      and\n        /* \"v2-periphery-master/contracts/UniswapV2Router01.sol\":10870:10874  path */\n      dup7\n      dup7\n      not(0x00)\n        /* \"v2-periphery-master/contracts/UniswapV2Router01.sol\":10875:10890  path.length - 1 */\n      dup2\n      add\n        /* \"v2-periphery-master/contracts/UniswapV2Router01.sol\":10870:10891  path[path.length - 1] */\n      dup2\n      dup2\n      lt\n      tag_164\n      jumpi\n      invalid\n    tag_164:\n      swap1\n      pop\n      0x20\n      mul\n      add\n      calldataload\n      sub(shl(0xa0, 0x01), 0x01)\n      and\n      sub(shl(0xa0, 0x01), 0x01)\n        /* \"v2-periphery-master/contracts/UniswapV2Router01.sol\":10870:10899  path[path.length - 1] == WETH */\n      and\n      eq\n        /* \"v2-periphery-master/contracts/UniswapV2Router01.sol\":10862:10933  require(path[path.length - 1] == WETH, 'UniswapV2Router: INVALID_PATH') */\n      tag_165\n      jumpi\n      0x40\n      dup1\n      mload\n      shl(0xe5, 0x461bcd)\n      dup2\n      mstore\n      0x20\n      0x04\n      dup3\n      add\n      mstore\n      0x1d\n      0x24\n      dup3\n      add\n      mstore\n      0x00\n      dup1\n      mload\n      0x20\n      data_c80e789ddaeb930b746bbbcb3afe8331d926679fd96f65d8c7468b735c0a14f2\n      dup4\n      codecopy\n      dup2\n      mload\n      swap2\n      mstore\n      0x44\n      dup3\n      add\n      mstore\n      swap1\n      mload\n      swap1\n      dup2\n      swap1\n      sub\n      0x64\n      add\n      swap1\n      revert\n    tag_165:\n        /* \"v2-periphery-master/contracts/UniswapV2Router01.sol\":10953:11008  UniswapV2Library.getAmountsOut(factory, amountIn, path) */\n      tag_166\n        /* \"v2-periphery-master/contracts/UniswapV2Router01.sol\":10984:10991  factory */\n      immutable(\"0x6085f6f924f4d3289e6bd2dcf255c34b40082df304bec05239cb2746d1d3eb0d\")\n        /* \"v2-periphery-master/contracts/UniswapV2Router01.sol\":10993:11001  amountIn */\n      dup10\n        /* \"v2-periphery-master/contracts/UniswapV2Router01.sol\":11003:11007  path */\n      dup9\n      dup9\n        /* \"v2-periphery-master/contracts/UniswapV2Router01.sol\":10953:11008  UniswapV2Library.getAmountsOut(factory, amountIn, path) */\n      dup1\n      dup1\n      0x20\n      mul\n      0x20\n      add\n      mload(0x40)\n      swap1\n      dup2\n      add\n      0x40\n      mstore\n      dup1\n      swap4\n      swap3\n      swap2\n      swap1\n      dup2\n      dup2\n      mstore\n      0x20\n      add\n      dup4\n      dup4\n      0x20\n      mul\n        /* \"--CODEGEN--\":30:33   */\n      dup1\n        /* \"--CODEGEN--\":22:28   */\n      dup3\n        /* \"--CODEGEN--\":14:20   */\n      dup5\n        /* \"--CODEGEN--\":1:34   */\n      calldatacopy\n        /* \"--CODEGEN--\":99:100   */\n      0x00\n        /* \"--CODEGEN--\":81:97   */\n      swap3\n      add\n        /* \"--CODEGEN--\":74:101   */\n      swap2\n      swap1\n      swap2\n      mstore\n      pop\n        /* \"v2-periphery-master/contracts/UniswapV2Router01.sol\":10953:10983  UniswapV2Library.getAmountsOut */\n      tag_167\n      swap3\n      pop\n      pop\n      pop\n        /* \"v2-periphery-master/contracts/UniswapV2Router01.sol\":10953:11008  UniswapV2Library.getAmountsOut(factory, amountIn, path) */\n      jump\t// in\n    tag_166:\n        /* \"v2-periphery-master/contracts/UniswapV2Router01.sol\":10943:11008  amounts = UniswapV2Library.getAmountsOut(factory, amountIn, path) */\n      swap2\n      pop\n        /* \"v2-periphery-master/contracts/UniswapV2Router01.sol\":11057:11069  amountOutMin */\n      dup7\n        /* \"v2-periphery-master/contracts/UniswapV2Router01.sol\":11026:11033  amounts */\n      dup3\n        /* \"v2-periphery-master/contracts/UniswapV2Router01.sol\":11051:11052  1 */\n      0x01\n        /* \"v2-periphery-master/contracts/UniswapV2Router01.sol\":11034:11041  amounts */\n      dup5\n        /* \"v2-periphery-master/contracts/UniswapV2Router01.sol\":11034:11048  amounts.length */\n      mload\n        /* \"v2-periphery-master/contracts/UniswapV2Router01.sol\":11034:11052  amounts.length - 1 */\n      sub\n        /* \"v2-periphery-master/contracts/UniswapV2Router01.sol\":11026:11053  amounts[amounts.length - 1] */\n      dup2\n      mload\n      dup2\n      lt\n      tag_168\n      jumpi\n      invalid\n    tag_168:\n      0x20\n      mul\n      0x20\n      add\n      add\n      mload\n        /* \"v2-periphery-master/contracts/UniswapV2Router01.sol\":11026:11069  amounts[amounts.length - 1] >= amountOutMin */\n      lt\n      iszero\n        /* \"v2-periphery-master/contracts/UniswapV2Router01.sol\":11018:11117  require(amounts[amounts.length - 1] >= amountOutMin, 'UniswapV2Router: INSUFFICIENT_OUTPUT_AMOUNT') */\n      tag_169\n      jumpi\n      mload(0x40)\n      shl(0xe5, 0x461bcd)\n      dup2\n      mstore\n      0x04\n      add\n      dup1\n      dup1\n      0x20\n      add\n      dup3\n      dup2\n      sub\n      dup3\n      mstore\n      0x2b\n      dup2\n      mstore\n      0x20\n      add\n      dup1\n      data_d4ea67bea551891ab36be726b8e631181246034dffcfd5c0bbfad1e9d1729432\n      0x2b\n      swap2\n      codecopy\n      0x40\n      add\n      swap2\n      pop\n      pop\n      mload(0x40)\n      dup1\n      swap2\n      sub\n      swap1\n      revert\n    tag_169:\n        /* \"v2-periphery-master/contracts/UniswapV2Router01.sol\":11127:11244  TransferHelper.safeTransferFrom(path[0], msg.sender, UniswapV2Library.pairFor(factory, path[0], path[1]), amounts[0]) */\n      tag_170\n        /* \"v2-periphery-master/contracts/UniswapV2Router01.sol\":11159:11163  path */\n      dup7\n      dup7\n        /* \"v2-periphery-master/contracts/UniswapV2Router01.sol\":11164:11165  0 */\n      0x00\n        /* \"v2-periphery-master/contracts/UniswapV2Router01.sol\":11159:11166  path[0] */\n      dup2\n      dup2\n      lt\n      tag_171\n      jumpi\n      invalid\n    tag_171:\n      swap1\n      pop\n      0x20\n      mul\n      add\n      calldataload\n      sub(shl(0xa0, 0x01), 0x01)\n      and\n        /* \"v2-periphery-master/contracts/UniswapV2Router01.sol\":11168:11178  msg.sender */\n      caller\n        /* \"v2-periphery-master/contracts/UniswapV2Router01.sol\":11180:11231  UniswapV2Library.pairFor(factory, path[0], path[1]) */\n      tag_172\n        /* \"v2-periphery-master/contracts/UniswapV2Router01.sol\":11205:11212  factory */\n      immutable(\"0x6085f6f924f4d3289e6bd2dcf255c34b40082df304bec05239cb2746d1d3eb0d\")\n        /* \"v2-periphery-master/contracts/UniswapV2Router01.sol\":11214:11218  path */\n      dup11\n      dup11\n        /* \"v2-periphery-master/contracts/UniswapV2Router01.sol\":11219:11220  0 */\n      0x00\n        /* \"v2-periphery-master/contracts/UniswapV2Router01.sol\":11214:11221  path[0] */\n      dup2\n      dup2\n      lt\n      tag_173\n      jumpi\n      invalid\n    tag_173:\n      swap1\n      pop\n      0x20\n      mul\n      add\n      calldataload\n      sub(shl(0xa0, 0x01), 0x01)\n      and\n        /* \"v2-periphery-master/contracts/UniswapV2Router01.sol\":11223:11227  path */\n      dup12\n      dup12\n        /* \"v2-periphery-master/contracts/UniswapV2Router01.sol\":11228:11229  1 */\n      0x01\n        /* \"v2-periphery-master/contracts/UniswapV2Router01.sol\":11223:11230  path[1] */\n      dup2\n      dup2\n      lt\n      tag_174\n      jumpi\n      invalid\n    tag_174:\n      swap1\n      pop\n      0x20\n      mul\n      add\n      calldataload\n      sub(shl(0xa0, 0x01), 0x01)\n      and\n        /* \"v2-periphery-master/contracts/UniswapV2Router01.sol\":11180:11204  UniswapV2Library.pairFor */\n      tag_175\n        /* \"v2-periphery-master/contracts/UniswapV2Router01.sol\":11180:11231  UniswapV2Library.pairFor(factory, path[0], path[1]) */\n      jump\t// in\n    tag_172:\n        /* \"v2-periphery-master/contracts/UniswapV2Router01.sol\":11233:11240  amounts */\n      dup6\n        /* \"v2-periphery-master/contracts/UniswapV2Router01.sol\":11241:11242  0 */\n      0x00\n        /* \"v2-periphery-master/contracts/UniswapV2Router01.sol\":11233:11243  amounts[0] */\n      dup2\n      mload\n      dup2\n      lt\n      tag_176\n      jumpi\n      invalid\n    tag_176:\n      0x20\n      mul\n      0x20\n      add\n      add\n      mload\n        /* \"v2-periphery-master/contracts/UniswapV2Router01.sol\":11127:11158  TransferHelper.safeTransferFrom */\n      tag_177\n        /* \"v2-periphery-master/contracts/UniswapV2Router01.sol\":11127:11244  TransferHelper.safeTransferFrom(path[0], msg.sender, UniswapV2Library.pairFor(factory, path[0], path[1]), amounts[0]) */\n      jump\t// in\n    tag_170:\n        /* \"v2-periphery-master/contracts/UniswapV2Router01.sol\":11254:11289  _swap(amounts, path, address(this)) */\n      tag_178\n        /* \"v2-periphery-master/contracts/UniswapV2Router01.sol\":11260:11267  amounts */\n      dup3\n        /* \"v2-periphery-master/contracts/UniswapV2Router01.sol\":11269:11273  path */\n      dup8\n      dup8\n        /* \"v2-periphery-master/contracts/UniswapV2Router01.sol\":11254:11289  _swap(amounts, path, address(this)) */\n      dup1\n      dup1\n      0x20\n      mul\n      0x20\n      add\n      mload(0x40)\n      swap1\n      dup2\n      add\n      0x40\n      mstore\n      dup1\n      swap4\n      swap3\n      swap2\n      swap1\n      dup2\n      dup2\n      mstore\n      0x20\n      add\n      dup4\n      dup4\n      0x20\n      mul\n        /* \"--CODEGEN--\":30:33   */\n      dup1\n        /* \"--CODEGEN--\":22:28   */\n      dup3\n        /* \"--CODEGEN--\":14:20   */\n      dup5\n        /* \"--CODEGEN--\":1:34   */\n      calldatacopy\n        /* \"--CODEGEN--\":99:100   */\n      0x00\n        /* \"--CODEGEN--\":81:97   */\n      swap3\n      add\n        /* \"--CODEGEN--\":74:101   */\n      swap2\n      swap1\n      swap2\n      mstore\n      pop\n        /* \"v2-periphery-master/contracts/UniswapV2Router01.sol\":11283:11287  this */\n      address\n      swap3\n      pop\n        /* \"v2-periphery-master/contracts/UniswapV2Router01.sol\":11254:11259  _swap */\n      tag_179\n      swap2\n      pop\n      pop\n        /* \"v2-periphery-master/contracts/UniswapV2Router01.sol\":11254:11289  _swap(amounts, path, address(this)) */\n      jump\t// in\n    tag_178:\n        /* \"v2-periphery-master/contracts/UniswapV2Router01.sol\":11305:11309  WETH */\n      immutable(\"0xa5325ff0f63e0b147eb82a60c572e47fb617bbfb06095783ede1fdcec882b479\")\n      sub(shl(0xa0, 0x01), 0x01)\n        /* \"v2-periphery-master/contracts/UniswapV2Router01.sol\":11299:11319  IWETH(WETH).withdraw */\n      and\n      0x2e1a7d4d\n        /* \"v2-periphery-master/contracts/UniswapV2Router01.sol\":11320:11327  amounts */\n      dup4\n        /* \"v2-periphery-master/contracts/UniswapV2Router01.sol\":11345:11346  1 */\n      0x01\n        /* \"v2-periphery-master/contracts/UniswapV2Router01.sol\":11328:11335  amounts */\n      dup6\n        /* \"v2-periphery-master/contracts/UniswapV2Router01.sol\":11328:11342  amounts.length */\n      mload\n        /* \"v2-periphery-master/contracts/UniswapV2Router01.sol\":11328:11346  amounts.length - 1 */\n      sub\n        /* \"v2-periphery-master/contracts/UniswapV2Router01.sol\":11320:11347  amounts[amounts.length - 1] */\n      dup2\n      mload\n      dup2\n      lt\n      tag_180\n      jumpi\n      invalid\n    tag_180:\n      0x20\n      mul\n      0x20\n      add\n      add\n      mload\n        /* \"v2-periphery-master/contracts/UniswapV2Router01.sol\":11299:11348  IWETH(WETH).withdraw(amounts[amounts.length - 1]) */\n      mload(0x40)\n      dup3\n      0xffffffff\n      and\n      0xe0\n      shl\n      dup2\n      mstore\n      0x04\n      add\n      dup1\n      dup3\n      dup2\n      mstore\n      0x20\n      add\n      swap2\n      pop\n      pop\n      0x00\n      mload(0x40)\n      dup1\n      dup4\n      sub\n      dup2\n      0x00\n      dup8\n      dup1\n      extcodesize\n      iszero\n        /* \"--CODEGEN--\":5:14   */\n      dup1\n        /* \"--CODEGEN--\":2:4   */\n      iszero\n      tag_181\n      jumpi\n        /* \"--CODEGEN--\":27:28   */\n      0x00\n        /* \"--CODEGEN--\":24:25   */\n      dup1\n        /* \"--CODEGEN--\":17:29   */\n      revert\n        /* \"--CODEGEN--\":2:4   */\n    tag_181:\n        /* \"v2-periphery-master/contracts/UniswapV2Router01.sol\":11299:11348  IWETH(WETH).withdraw(amounts[amounts.length - 1]) */\n      pop\n      gas\n      call\n      iszero\n        /* \"--CODEGEN--\":8:17   */\n      dup1\n        /* \"--CODEGEN--\":5:7   */\n      iszero\n      tag_183\n      jumpi\n        /* \"--CODEGEN--\":45:61   */\n      returndatasize\n        /* \"--CODEGEN--\":42:43   */\n      0x00\n        /* \"--CODEGEN--\":39:40   */\n      dup1\n        /* \"--CODEGEN--\":24:62   */\n      returndatacopy\n        /* \"--CODEGEN--\":77:93   */\n      returndatasize\n        /* \"--CODEGEN--\":74:75   */\n      0x00\n        /* \"--CODEGEN--\":67:94   */\n      revert\n        /* \"--CODEGEN--\":5:7   */\n    tag_183:\n        /* \"v2-periphery-master/contracts/UniswapV2Router01.sol\":11299:11348  IWETH(WETH).withdraw(amounts[amounts.length - 1]) */\n      pop\n      pop\n      pop\n      pop\n        /* \"v2-periphery-master/contracts/UniswapV2Router01.sol\":11358:11421  TransferHelper.safeTransferETH(to, amounts[amounts.length - 1]) */\n      tag_184\n        /* \"v2-periphery-master/contracts/UniswapV2Router01.sol\":11389:11391  to */\n      dup5\n        /* \"v2-periphery-master/contracts/UniswapV2Router01.sol\":11393:11400  amounts */\n      dup4\n        /* \"v2-periphery-master/contracts/UniswapV2Router01.sol\":11418:11419  1 */\n      0x01\n        /* \"v2-periphery-master/contracts/UniswapV2Router01.sol\":11401:11408  amounts */\n      dup6\n        /* \"v2-periphery-master/contracts/UniswapV2Router01.sol\":11401:11415  amounts.length */\n      mload\n        /* \"v2-periphery-master/contracts/UniswapV2Router01.sol\":11401:11419  amounts.length - 1 */\n      sub\n        /* \"v2-periphery-master/contracts/UniswapV2Router01.sol\":11393:11420  amounts[amounts.length - 1] */\n      dup2\n      mload\n      dup2\n      lt\n      tag_185\n      jumpi\n      invalid\n    tag_185:\n      0x20\n      mul\n      0x20\n      add\n      add\n      mload\n        /* \"v2-periphery-master/contracts/UniswapV2Router01.sol\":11358:11388  TransferHelper.safeTransferETH */\n      tag_157\n        /* \"v2-periphery-master/contracts/UniswapV2Router01.sol\":11358:11421  TransferHelper.safeTransferETH(to, amounts[amounts.length - 1]) */\n      jump\t// in\n    tag_184:\n        /* \"v2-periphery-master/contracts/UniswapV2Router01.sol\":10632:11428  function swapExactTokensForETH(uint amountIn, uint amountOutMin, address[] calldata path, address to, uint deadline)... */\n      pop\n      swap7\n      swap6\n      pop\n      pop\n      pop\n      pop\n      pop\n      pop\n      jump\t// out\n        /* \"v2-periphery-master/contracts/UniswapV2Router01.sol\":13008:13201  function getAmountsIn(uint amountOut, address[] memory path) public view override returns (uint[] memory amounts) {... */\n    tag_52:\n        /* \"v2-periphery-master/contracts/UniswapV2Router01.sol\":13099:13120  uint[] memory amounts */\n      0x60\n        /* \"v2-periphery-master/contracts/UniswapV2Router01.sol\":13139:13194  UniswapV2Library.getAmountsIn(factory, amountOut, path) */\n      tag_187\n        /* \"v2-periphery-master/contracts/UniswapV2Router01.sol\":13169:13176  factory */\n      immutable(\"0x6085f6f924f4d3289e6bd2dcf255c34b40082df304bec05239cb2746d1d3eb0d\")\n        /* \"v2-periphery-master/contracts/UniswapV2Router01.sol\":13178:13187  amountOut */\n      dup5\n        /* \"v2-periphery-master/contracts/UniswapV2Router01.sol\":13189:13193  path */\n      dup5\n        /* \"v2-periphery-master/contracts/UniswapV2Router01.sol\":13139:13168  UniswapV2Library.getAmountsIn */\n      tag_188\n        /* \"v2-periphery-master/contracts/UniswapV2Router01.sol\":13139:13194  UniswapV2Library.getAmountsIn(factory, amountOut, path) */\n      jump\t// in\n    tag_187:\n        /* \"v2-periphery-master/contracts/UniswapV2Router01.sol\":13132:13194  return UniswapV2Library.getAmountsIn(factory, amountOut, path) */\n      swap1\n      pop\n        /* \"v2-periphery-master/contracts/UniswapV2Router01.sol\":13008:13201  function getAmountsIn(uint amountOut, address[] memory path) public view override returns (uint[] memory amounts) {... */\n    tag_186:\n      swap3\n      swap2\n      pop\n      pop\n      jump\t// out\n        /* \"v2-periphery-master/contracts/UniswapV2Router01.sol\":5918:6573  function removeLiquidityWithPermit(... */\n    tag_59:\n        /* \"v2-periphery-master/contracts/UniswapV2Router01.sol\":6207:6219  uint amountA */\n      0x00\n        /* \"v2-periphery-master/contracts/UniswapV2Router01.sol\":6221:6233  uint amountB */\n      dup1\n        /* \"v2-periphery-master/contracts/UniswapV2Router01.sol\":6245:6257  address pair */\n      0x00\n        /* \"v2-periphery-master/contracts/UniswapV2Router01.sol\":6260:6309  UniswapV2Library.pairFor(factory, tokenA, tokenB) */\n      tag_190\n        /* \"v2-periphery-master/contracts/UniswapV2Router01.sol\":6285:6292  factory */\n      immutable(\"0x6085f6f924f4d3289e6bd2dcf255c34b40082df304bec05239cb2746d1d3eb0d\")\n        /* \"v2-periphery-master/contracts/UniswapV2Router01.sol\":6294:6300  tokenA */\n      dup16\n        /* \"v2-periphery-master/contracts/UniswapV2Router01.sol\":6302:6308  tokenB */\n      dup16\n        /* \"v2-periphery-master/contracts/UniswapV2Router01.sol\":6260:6284  UniswapV2Library.pairFor */\n      tag_175\n        /* \"v2-periphery-master/contracts/UniswapV2Router01.sol\":6260:6309  UniswapV2Library.pairFor(factory, tokenA, tokenB) */\n      jump\t// in\n    tag_190:\n        /* \"v2-periphery-master/contracts/UniswapV2Router01.sol\":6245:6309  address pair = UniswapV2Library.pairFor(factory, tokenA, tokenB) */\n      swap1\n      pop\n        /* \"v2-periphery-master/contracts/UniswapV2Router01.sol\":6319:6329  uint value */\n      0x00\n        /* \"v2-periphery-master/contracts/UniswapV2Router01.sol\":6332:6342  approveMax */\n      dup8\n        /* \"v2-periphery-master/contracts/UniswapV2Router01.sol\":6332:6365  approveMax ? uint(-1) : liquidity */\n      tag_191\n      jumpi\n        /* \"v2-periphery-master/contracts/UniswapV2Router01.sol\":6356:6365  liquidity */\n      dup13\n        /* \"v2-periphery-master/contracts/UniswapV2Router01.sol\":6332:6365  approveMax ? uint(-1) : liquidity */\n      jump(tag_192)\n    tag_191:\n      not(0x00)\n    tag_192:\n        /* \"v2-periphery-master/contracts/UniswapV2Router01.sol\":6375:6455  IUniswapV2Pair(pair).permit(msg.sender, address(this), value, deadline, v, r, s) */\n      0x40\n      dup1\n      mload\n      shl(0xe0, 0xd505accf)\n      dup2\n      mstore\n        /* \"v2-periphery-master/contracts/UniswapV2Router01.sol\":6403:6413  msg.sender */\n      caller\n        /* \"v2-periphery-master/contracts/UniswapV2Router01.sol\":6375:6455  IUniswapV2Pair(pair).permit(msg.sender, address(this), value, deadline, v, r, s) */\n      0x04\n      dup3\n      add\n      mstore\n        /* \"v2-periphery-master/contracts/UniswapV2Router01.sol\":6423:6427  this */\n      address\n        /* \"v2-periphery-master/contracts/UniswapV2Router01.sol\":6375:6455  IUniswapV2Pair(pair).permit(msg.sender, address(this), value, deadline, v, r, s) */\n      0x24\n      dup3\n      add\n      mstore\n      0x44\n      dup2\n      add\n      dup4\n      swap1\n      mstore\n      0x64\n      dup2\n      add\n      dup13\n      swap1\n      mstore\n      0xff\n      dup11\n      and\n      0x84\n      dup3\n      add\n      mstore\n      0xa4\n      dup2\n      add\n      dup10\n      swap1\n      mstore\n      0xc4\n      dup2\n      add\n      dup9\n      swap1\n      mstore\n      swap1\n      mload\n        /* \"v2-periphery-master/contracts/UniswapV2Router01.sol\":6319:6365  uint value = approveMax ? uint(-1) : liquidity */\n      swap2\n      swap3\n      pop\n      sub(shl(0xa0, 0x01), 0x01)\n        /* \"v2-periphery-master/contracts/UniswapV2Router01.sol\":6375:6402  IUniswapV2Pair(pair).permit */\n      dup5\n      and\n      swap2\n      0xd505accf\n      swap2\n        /* \"v2-periphery-master/contracts/UniswapV2Router01.sol\":6375:6455  IUniswapV2Pair(pair).permit(msg.sender, address(this), value, deadline, v, r, s) */\n      0xe4\n      dup1\n      dup3\n      add\n      swap3\n      0x00\n      swap3\n      swap1\n      swap2\n      swap1\n      dup3\n      swap1\n      sub\n      add\n      dup2\n      dup4\n        /* \"v2-periphery-master/contracts/UniswapV2Router01.sol\":6375:6402  IUniswapV2Pair(pair).permit */\n      dup8\n        /* \"v2-periphery-master/contracts/UniswapV2Router01.sol\":6375:6455  IUniswapV2Pair(pair).permit(msg.sender, address(this), value, deadline, v, r, s) */\n      dup1\n      extcodesize\n      iszero\n        /* \"--CODEGEN--\":2:4   */\n      dup1\n      iszero\n      tag_193\n      jumpi\n        /* \"--CODEGEN--\":27:28   */\n      0x00\n        /* \"--CODEGEN--\":24:25   */\n      dup1\n        /* \"--CODEGEN--\":17:29   */\n      revert\n        /* \"--CODEGEN--\":2:4   */\n    tag_193:\n        /* \"v2-periphery-master/contracts/UniswapV2Router01.sol\":6375:6455  IUniswapV2Pair(pair).permit(msg.sender, address(this), value, deadline, v, r, s) */\n      pop\n      gas\n      call\n      iszero\n        /* \"--CODEGEN--\":8:17   */\n      dup1\n        /* \"--CODEGEN--\":5:7   */\n      iszero\n      tag_195\n      jumpi\n        /* \"--CODEGEN--\":45:61   */\n      returndatasize\n        /* \"--CODEGEN--\":42:43   */\n      0x00\n        /* \"--CODEGEN--\":39:40   */\n      dup1\n        /* \"--CODEGEN--\":24:62   */\n      returndatacopy\n        /* \"--CODEGEN--\":77:93   */\n      returndatasize\n        /* \"--CODEGEN--\":74:75   */\n      0x00\n        /* \"--CODEGEN--\":67:94   */\n      revert\n        /* \"--CODEGEN--\":5:7   */\n    tag_195:\n        /* \"v2-periphery-master/contracts/UniswapV2Router01.sol\":6375:6455  IUniswapV2Pair(pair).permit(msg.sender, address(this), value, deadline, v, r, s) */\n      pop\n      pop\n      pop\n      pop\n        /* \"v2-periphery-master/contracts/UniswapV2Router01.sol\":6486:6566  removeLiquidity(tokenA, tokenB, liquidity, amountAMin, amountBMin, to, deadline) */\n      tag_196\n        /* \"v2-periphery-master/contracts/UniswapV2Router01.sol\":6502:6508  tokenA */\n      dup16\n        /* \"v2-periphery-master/contracts/UniswapV2Router01.sol\":6510:6516  tokenB */\n      dup16\n        /* \"v2-periphery-master/contracts/UniswapV2Router01.sol\":6518:6527  liquidity */\n      dup16\n        /* \"v2-periphery-master/contracts/UniswapV2Router01.sol\":6529:6539  amountAMin */\n      dup16\n        /* \"v2-periphery-master/contracts/UniswapV2Router01.sol\":6541:6551  amountBMin */\n      dup16\n        /* \"v2-periphery-master/contracts/UniswapV2Router01.sol\":6553:6555  to */\n      dup16\n        /* \"v2-periphery-master/contracts/UniswapV2Router01.sol\":6557:6565  deadline */\n      dup16\n        /* \"v2-periphery-master/contracts/UniswapV2Router01.sol\":6486:6501  removeLiquidity */\n      tag_120\n        /* \"v2-periphery-master/contracts/UniswapV2Router01.sol\":6486:6566  removeLiquidity(tokenA, tokenB, liquidity, amountAMin, amountBMin, to, deadline) */\n      jump\t// in\n    tag_196:\n        /* \"v2-periphery-master/contracts/UniswapV2Router01.sol\":6465:6566  (amountA, amountB) = removeLiquidity(tokenA, tokenB, liquidity, amountAMin, amountBMin, to, deadline) */\n      dup1\n      swap5\n      pop\n      dup2\n      swap6\n      pop\n      pop\n      pop\n        /* \"v2-periphery-master/contracts/UniswapV2Router01.sol\":5918:6573  function removeLiquidityWithPermit(... */\n      pop\n      pop\n      swap12\n      pop\n      swap12\n      swap10\n      pop\n      pop\n      pop\n      pop\n      pop\n      pop\n      pop\n      pop\n      pop\n      pop\n      jump\t// out\n        /* \"v2-periphery-master/contracts/UniswapV2Router01.sol\":8023:8608  function swapExactTokensForTokens(... */\n    tag_66:\n        /* \"v2-periphery-master/contracts/UniswapV2Router01.sol\":8233:8254  uint[] memory amounts */\n      0x60\n        /* \"v2-periphery-master/contracts/UniswapV2Router01.sol\":8214:8222  deadline */\n      dup2\n        /* \"v2-periphery-master/contracts/UniswapV2Router01.sol\":523:538  block.timestamp */\n      timestamp\n        /* \"v2-periphery-master/contracts/UniswapV2Router01.sol\":511:519  deadline */\n      dup2\n        /* \"v2-periphery-master/contracts/UniswapV2Router01.sol\":511:538  deadline >= block.timestamp */\n      lt\n      iszero\n        /* \"v2-periphery-master/contracts/UniswapV2Router01.sol\":503:567  require(deadline >= block.timestamp, 'UniswapV2Router: EXPIRED') */\n      tag_198\n      jumpi\n      0x40\n      dup1\n      mload\n      shl(0xe5, 0x461bcd)\n      dup2\n      mstore\n      0x20\n      0x04\n      dup3\n      add\n      mstore\n      0x18\n      0x24\n      dup3\n      add\n      mstore\n      0x00\n      dup1\n      mload\n      0x20\n      data_ee5734acb032ffb1bbaf889d52ccf9fbd1ce0f1ae12bee2c46068d51b910e2c5\n      dup4\n      codecopy\n      dup2\n      mload\n      swap2\n      mstore\n      0x44\n      dup3\n      add\n      mstore\n      swap1\n      mload\n      swap1\n      dup2\n      swap1\n      sub\n      0x64\n      add\n      swap1\n      revert\n    tag_198:\n        /* \"v2-periphery-master/contracts/UniswapV2Router01.sol\":8276:8331  UniswapV2Library.getAmountsOut(factory, amountIn, path) */\n      tag_200\n        /* \"v2-periphery-master/contracts/UniswapV2Router01.sol\":8307:8314  factory */\n      immutable(\"0x6085f6f924f4d3289e6bd2dcf255c34b40082df304bec05239cb2746d1d3eb0d\")\n        /* \"v2-periphery-master/contracts/UniswapV2Router01.sol\":8316:8324  amountIn */\n      dup10\n        /* \"v2-periphery-master/contracts/UniswapV2Router01.sol\":8326:8330  path */\n      dup9\n      dup9\n        /* \"v2-periphery-master/contracts/UniswapV2Router01.sol\":8276:8331  UniswapV2Library.getAmountsOut(factory, amountIn, path) */\n      dup1\n      dup1\n      0x20\n      mul\n      0x20\n      add\n      mload(0x40)\n      swap1\n      dup2\n      add\n      0x40\n      mstore\n      dup1\n      swap4\n      swap3\n      swap2\n      swap1\n      dup2\n      dup2\n      mstore\n      0x20\n      add\n      dup4\n      dup4\n      0x20\n      mul\n        /* \"--CODEGEN--\":30:33   */\n      dup1\n        /* \"--CODEGEN--\":22:28   */\n      dup3\n        /* \"--CODEGEN--\":14:20   */\n      dup5\n        /* \"--CODEGEN--\":1:34   */\n      calldatacopy\n        /* \"--CODEGEN--\":99:100   */\n      0x00\n        /* \"--CODEGEN--\":81:97   */\n      swap3\n      add\n        /* \"--CODEGEN--\":74:101   */\n      swap2\n      swap1\n      swap2\n      mstore\n      pop\n        /* \"v2-periphery-master/contracts/UniswapV2Router01.sol\":8276:8306  UniswapV2Library.getAmountsOut */\n      tag_167\n      swap3\n      pop\n      pop\n      pop\n        /* \"v2-periphery-master/contracts/UniswapV2Router01.sol\":8276:8331  UniswapV2Library.getAmountsOut(factory, amountIn, path) */\n      jump\t// in\n    tag_200:\n        /* \"v2-periphery-master/contracts/UniswapV2Router01.sol\":8266:8331  amounts = UniswapV2Library.getAmountsOut(factory, amountIn, path) */\n      swap2\n      pop\n        /* \"v2-periphery-master/contracts/UniswapV2Router01.sol\":8380:8392  amountOutMin */\n      dup7\n        /* \"v2-periphery-master/contracts/UniswapV2Router01.sol\":8349:8356  amounts */\n      dup3\n        /* \"v2-periphery-master/contracts/UniswapV2Router01.sol\":8374:8375  1 */\n      0x01\n        /* \"v2-periphery-master/contracts/UniswapV2Router01.sol\":8357:8364  amounts */\n      dup5\n        /* \"v2-periphery-master/contracts/UniswapV2Router01.sol\":8357:8371  amounts.length */\n      mload\n        /* \"v2-periphery-master/contracts/UniswapV2Router01.sol\":8357:8375  amounts.length - 1 */\n      sub\n        /* \"v2-periphery-master/contracts/UniswapV2Router01.sol\":8349:8376  amounts[amounts.length - 1] */\n      dup2\n      mload\n      dup2\n      lt\n      tag_201\n      jumpi\n      invalid\n    tag_201:\n      0x20\n      mul\n      0x20\n      add\n      add\n      mload\n        /* \"v2-periphery-master/contracts/UniswapV2Router01.sol\":8349:8392  amounts[amounts.length - 1] >= amountOutMin */\n      lt\n      iszero\n        /* \"v2-periphery-master/contracts/UniswapV2Router01.sol\":8341:8440  require(amounts[amounts.length - 1] >= amountOutMin, 'UniswapV2Router: INSUFFICIENT_OUTPUT_AMOUNT') */\n      tag_202\n      jumpi\n      mload(0x40)\n      shl(0xe5, 0x461bcd)\n      dup2\n      mstore\n      0x04\n      add\n      dup1\n      dup1\n      0x20\n      add\n      dup3\n      dup2\n      sub\n      dup3\n      mstore\n      0x2b\n      dup2\n      mstore\n      0x20\n      add\n      dup1\n      data_d4ea67bea551891ab36be726b8e631181246034dffcfd5c0bbfad1e9d1729432\n      0x2b\n      swap2\n      codecopy\n      0x40\n      add\n      swap2\n      pop\n      pop\n      mload(0x40)\n      dup1\n      swap2\n      sub\n      swap1\n      revert\n    tag_202:\n        /* \"v2-periphery-master/contracts/UniswapV2Router01.sol\":8450:8567  TransferHelper.safeTransferFrom(path[0], msg.sender, UniswapV2Library.pairFor(factory, path[0], path[1]), amounts[0]) */\n      tag_203\n        /* \"v2-periphery-master/contracts/UniswapV2Router01.sol\":8482:8486  path */\n      dup7\n      dup7\n        /* \"v2-periphery-master/contracts/UniswapV2Router01.sol\":8487:8488  0 */\n      0x00\n        /* \"v2-periphery-master/contracts/UniswapV2Router01.sol\":8482:8489  path[0] */\n      dup2\n      dup2\n      lt\n      tag_171\n      jumpi\n      invalid\n        /* \"v2-periphery-master/contracts/UniswapV2Router01.sol\":8450:8567  TransferHelper.safeTransferFrom(path[0], msg.sender, UniswapV2Library.pairFor(factory, path[0], path[1]), amounts[0]) */\n    tag_203:\n        /* \"v2-periphery-master/contracts/UniswapV2Router01.sol\":8577:8601  _swap(amounts, path, to) */\n      tag_184\n        /* \"v2-periphery-master/contracts/UniswapV2Router01.sol\":8583:8590  amounts */\n      dup3\n        /* \"v2-periphery-master/contracts/UniswapV2Router01.sol\":8592:8596  path */\n      dup8\n      dup8\n        /* \"v2-periphery-master/contracts/UniswapV2Router01.sol\":8577:8601  _swap(amounts, path, to) */\n      dup1\n      dup1\n      0x20\n      mul\n      0x20\n      add\n      mload(0x40)\n      swap1\n      dup2\n      add\n      0x40\n      mstore\n      dup1\n      swap4\n      swap3\n      swap2\n      swap1\n      dup2\n      dup2\n      mstore\n      0x20\n      add\n      dup4\n      dup4\n      0x20\n      mul\n        /* \"--CODEGEN--\":30:33   */\n      dup1\n        /* \"--CODEGEN--\":22:28   */\n      dup3\n        /* \"--CODEGEN--\":14:20   */\n      dup5\n        /* \"--CODEGEN--\":1:34   */\n      calldatacopy\n        /* \"--CODEGEN--\":99:100   */\n      0x00\n        /* \"--CODEGEN--\":81:97   */\n      swap3\n      add\n        /* \"--CODEGEN--\":74:101   */\n      swap2\n      swap1\n      swap2\n      mstore\n      pop\n        /* \"v2-periphery-master/contracts/UniswapV2Router01.sol\":8598:8600  to */\n      dup10\n      swap3\n      pop\n        /* \"v2-periphery-master/contracts/UniswapV2Router01.sol\":8577:8582  _swap */\n      tag_179\n      swap2\n      pop\n      pop\n        /* \"v2-periphery-master/contracts/UniswapV2Router01.sol\":8577:8601  _swap(amounts, path, to) */\n      jump\t// in\n        /* \"v2-periphery-master/contracts/UniswapV2Router01.sol\":9853:10627  function swapTokensForExactETH(uint amountOut, uint amountInMax, address[] calldata path, address to, uint deadline)... */\n    tag_76:\n        /* \"v2-periphery-master/contracts/UniswapV2Router01.sol\":10046:10067  uint[] memory amounts */\n      0x60\n        /* \"v2-periphery-master/contracts/UniswapV2Router01.sol\":10019:10027  deadline */\n      dup2\n        /* \"v2-periphery-master/contracts/UniswapV2Router01.sol\":523:538  block.timestamp */\n      timestamp\n        /* \"v2-periphery-master/contracts/UniswapV2Router01.sol\":511:519  deadline */\n      dup2\n        /* \"v2-periphery-master/contracts/UniswapV2Router01.sol\":511:538  deadline >= block.timestamp */\n      lt\n      iszero\n        /* \"v2-periphery-master/contracts/UniswapV2Router01.sol\":503:567  require(deadline >= block.timestamp, 'UniswapV2Router: EXPIRED') */\n      tag_211\n      jumpi\n      0x40\n      dup1\n      mload\n      shl(0xe5, 0x461bcd)\n      dup2\n      mstore\n      0x20\n      0x04\n      dup3\n      add\n      mstore\n      0x18\n      0x24\n      dup3\n      add\n      mstore\n      0x00\n      dup1\n      mload\n      0x20\n      data_ee5734acb032ffb1bbaf889d52ccf9fbd1ce0f1ae12bee2c46068d51b910e2c5\n      dup4\n      codecopy\n      dup2\n      mload\n      swap2\n      mstore\n      0x44\n      dup3\n      add\n      mstore\n      swap1\n      mload\n      swap1\n      dup2\n      swap1\n      sub\n      0x64\n      add\n      swap1\n      revert\n    tag_211:\n      sub(shl(0xa0, 0x01), 0x01)\n        /* \"v2-periphery-master/contracts/UniswapV2Router01.sol\":10116:10120  WETH */\n      immutable(\"0xa5325ff0f63e0b147eb82a60c572e47fb617bbfb06095783ede1fdcec882b479\")\n        /* \"v2-periphery-master/contracts/UniswapV2Router01.sol\":10091:10120  path[path.length - 1] == WETH */\n      and\n        /* \"v2-periphery-master/contracts/UniswapV2Router01.sol\":10091:10095  path */\n      dup7\n      dup7\n      not(0x00)\n        /* \"v2-periphery-master/contracts/UniswapV2Router01.sol\":10096:10111  path.length - 1 */\n      dup2\n      add\n        /* \"v2-periphery-master/contracts/UniswapV2Router01.sol\":10091:10112  path[path.length - 1] */\n      dup2\n      dup2\n      lt\n      tag_213\n      jumpi\n      invalid\n    tag_213:\n      swap1\n      pop\n      0x20\n      mul\n      add\n      calldataload\n      sub(shl(0xa0, 0x01), 0x01)\n      and\n      sub(shl(0xa0, 0x01), 0x01)\n        /* \"v2-periphery-master/contracts/UniswapV2Router01.sol\":10091:10120  path[path.length - 1] == WETH */\n      and\n      eq\n        /* \"v2-periphery-master/contracts/UniswapV2Router01.sol\":10083:10154  require(path[path.length - 1] == WETH, 'UniswapV2Router: INVALID_PATH') */\n      tag_214\n      jumpi\n      0x40\n      dup1\n      mload\n      shl(0xe5, 0x461bcd)\n      dup2\n      mstore\n      0x20\n      0x04\n      dup3\n      add\n      mstore\n      0x1d\n      0x24\n      dup3\n      add\n      mstore\n      0x00\n      dup1\n      mload\n      0x20\n      data_c80e789ddaeb930b746bbbcb3afe8331d926679fd96f65d8c7468b735c0a14f2\n      dup4\n      codecopy\n      dup2\n      mload\n      swap2\n      mstore\n      0x44\n      dup3\n      add\n      mstore\n      swap1\n      mload\n      swap1\n      dup2\n      swap1\n      sub\n      0x64\n      add\n      swap1\n      revert\n    tag_214:\n        /* \"v2-periphery-master/contracts/UniswapV2Router01.sol\":10174:10229  UniswapV2Library.getAmountsIn(factory, amountOut, path) */\n      tag_215\n        /* \"v2-periphery-master/contracts/UniswapV2Router01.sol\":10204:10211  factory */\n      immutable(\"0x6085f6f924f4d3289e6bd2dcf255c34b40082df304bec05239cb2746d1d3eb0d\")\n        /* \"v2-periphery-master/contracts/UniswapV2Router01.sol\":10213:10222  amountOut */\n      dup10\n        /* \"v2-periphery-master/contracts/UniswapV2Router01.sol\":10224:10228  path */\n      dup9\n      dup9\n        /* \"v2-periphery-master/contracts/UniswapV2Router01.sol\":10174:10229  UniswapV2Library.getAmountsIn(factory, amountOut, path) */\n      dup1\n      dup1\n      0x20\n      mul\n      0x20\n      add\n      mload(0x40)\n      swap1\n      dup2\n      add\n      0x40\n      mstore\n      dup1\n      swap4\n      swap3\n      swap2\n      swap1\n      dup2\n      dup2\n      mstore\n      0x20\n      add\n      dup4\n      dup4\n      0x20\n      mul\n        /* \"--CODEGEN--\":30:33   */\n      dup1\n        /* \"--CODEGEN--\":22:28   */\n      dup3\n        /* \"--CODEGEN--\":14:20   */\n      dup5\n        /* \"--CODEGEN--\":1:34   */\n      calldatacopy\n        /* \"--CODEGEN--\":99:100   */\n      0x00\n        /* \"--CODEGEN--\":81:97   */\n      swap3\n      add\n        /* \"--CODEGEN--\":74:101   */\n      swap2\n      swap1\n      swap2\n      mstore\n      pop\n        /* \"v2-periphery-master/contracts/UniswapV2Router01.sol\":10174:10203  UniswapV2Library.getAmountsIn */\n      tag_188\n      swap3\n      pop\n      pop\n      pop\n        /* \"v2-periphery-master/contracts/UniswapV2Router01.sol\":10174:10229  UniswapV2Library.getAmountsIn(factory, amountOut, path) */\n      jump\t// in\n    tag_215:\n        /* \"v2-periphery-master/contracts/UniswapV2Router01.sol\":10164:10229  amounts = UniswapV2Library.getAmountsIn(factory, amountOut, path) */\n      swap2\n      pop\n        /* \"v2-periphery-master/contracts/UniswapV2Router01.sol\":10261:10272  amountInMax */\n      dup7\n        /* \"v2-periphery-master/contracts/UniswapV2Router01.sol\":10247:10254  amounts */\n      dup3\n        /* \"v2-periphery-master/contracts/UniswapV2Router01.sol\":10255:10256  0 */\n      0x00\n        /* \"v2-periphery-master/contracts/UniswapV2Router01.sol\":10247:10257  amounts[0] */\n      dup2\n      mload\n      dup2\n      lt\n      tag_216\n      jumpi\n      invalid\n    tag_216:\n      0x20\n      mul\n      0x20\n      add\n      add\n      mload\n        /* \"v2-periphery-master/contracts/UniswapV2Router01.sol\":10247:10272  amounts[0] <= amountInMax */\n      gt\n      iszero\n        /* \"v2-periphery-master/contracts/UniswapV2Router01.sol\":10239:10316  require(amounts[0] <= amountInMax, 'UniswapV2Router: EXCESSIVE_INPUT_AMOUNT') */\n      tag_169\n      jumpi\n      mload(0x40)\n      shl(0xe5, 0x461bcd)\n      dup2\n      mstore\n      0x04\n      add\n      dup1\n      dup1\n      0x20\n      add\n      dup3\n      dup2\n      sub\n      dup3\n      mstore\n      0x27\n      dup2\n      mstore\n      0x20\n      add\n      dup1\n      data_bb18004cd22eaad7ea393d184ea6ac1df1428db36bb6fbff8af486232d68ae2c\n      0x27\n      swap2\n      codecopy\n      0x40\n      add\n      swap2\n      pop\n      pop\n      mload(0x40)\n      dup1\n      swap2\n      sub\n      swap1\n      revert\n        /* \"v2-periphery-master/contracts/UniswapV2Router01.sol\":3226:4382  function addLiquidityETH(... */\n    tag_82:\n        /* \"v2-periphery-master/contracts/UniswapV2Router01.sol\":3515:3531  uint amountToken */\n      0x00\n        /* \"v2-periphery-master/contracts/UniswapV2Router01.sol\":3533:3547  uint amountETH */\n      dup1\n        /* \"v2-periphery-master/contracts/UniswapV2Router01.sol\":3549:3563  uint liquidity */\n      0x00\n        /* \"v2-periphery-master/contracts/UniswapV2Router01.sol\":3496:3504  deadline */\n      dup5\n        /* \"v2-periphery-master/contracts/UniswapV2Router01.sol\":523:538  block.timestamp */\n      timestamp\n        /* \"v2-periphery-master/contracts/UniswapV2Router01.sol\":511:519  deadline */\n      dup2\n        /* \"v2-periphery-master/contracts/UniswapV2Router01.sol\":511:538  deadline >= block.timestamp */\n      lt\n      iszero\n        /* \"v2-periphery-master/contracts/UniswapV2Router01.sol\":503:567  require(deadline >= block.timestamp, 'UniswapV2Router: EXPIRED') */\n      tag_232\n      jumpi\n      0x40\n      dup1\n      mload\n      shl(0xe5, 0x461bcd)\n      dup2\n      mstore\n      0x20\n      0x04\n      dup3\n      add\n      mstore\n      0x18\n      0x24\n      dup3\n      add\n      mstore\n      0x00\n      dup1\n      mload\n      0x20\n      data_ee5734acb032ffb1bbaf889d52ccf9fbd1ce0f1ae12bee2c46068d51b910e2c5\n      dup4\n      codecopy\n      dup2\n      mload\n      swap2\n      mstore\n      0x44\n      dup3\n      add\n      mstore\n      swap1\n      mload\n      swap1\n      dup2\n      swap1\n      sub\n      0x64\n      add\n      swap1\n      revert\n    tag_232:\n        /* \"v2-periphery-master/contracts/UniswapV2Router01.sol\":3602:3771  _addLiquidity(... */\n      tag_234\n        /* \"v2-periphery-master/contracts/UniswapV2Router01.sol\":3629:3634  token */\n      dup12\n        /* \"v2-periphery-master/contracts/UniswapV2Router01.sol\":3648:3652  WETH */\n      immutable(\"0xa5325ff0f63e0b147eb82a60c572e47fb617bbfb06095783ede1fdcec882b479\")\n        /* \"v2-periphery-master/contracts/UniswapV2Router01.sol\":3666:3684  amountTokenDesired */\n      dup13\n        /* \"v2-periphery-master/contracts/UniswapV2Router01.sol\":3698:3707  msg.value */\n      callvalue\n        /* \"v2-periphery-master/contracts/UniswapV2Router01.sol\":3721:3735  amountTokenMin */\n      dup14\n        /* \"v2-periphery-master/contracts/UniswapV2Router01.sol\":3749:3761  amountETHMin */\n      dup14\n        /* \"v2-periphery-master/contracts/UniswapV2Router01.sol\":3602:3615  _addLiquidity */\n      tag_235\n        /* \"v2-periphery-master/contracts/UniswapV2Router01.sol\":3602:3771  _addLiquidity(... */\n      jump\t// in\n    tag_234:\n        /* \"v2-periphery-master/contracts/UniswapV2Router01.sol\":3575:3771  (amountToken, amountETH) = _addLiquidity(... */\n      swap1\n      swap5\n      pop\n      swap3\n      pop\n        /* \"v2-periphery-master/contracts/UniswapV2Router01.sol\":3781:3793  address pair */\n      0x00\n        /* \"v2-periphery-master/contracts/UniswapV2Router01.sol\":3796:3842  UniswapV2Library.pairFor(factory, token, WETH) */\n      tag_236\n        /* \"v2-periphery-master/contracts/UniswapV2Router01.sol\":3821:3828  factory */\n      immutable(\"0x6085f6f924f4d3289e6bd2dcf255c34b40082df304bec05239cb2746d1d3eb0d\")\n        /* \"v2-periphery-master/contracts/UniswapV2Router01.sol\":3830:3835  token */\n      dup14\n        /* \"v2-periphery-master/contracts/UniswapV2Router01.sol\":3837:3841  WETH */\n      immutable(\"0xa5325ff0f63e0b147eb82a60c572e47fb617bbfb06095783ede1fdcec882b479\")\n        /* \"v2-periphery-master/contracts/UniswapV2Router01.sol\":3796:3820  UniswapV2Library.pairFor */\n      tag_175\n        /* \"v2-periphery-master/contracts/UniswapV2Router01.sol\":3796:3842  UniswapV2Library.pairFor(factory, token, WETH) */\n      jump\t// in\n    tag_236:\n        /* \"v2-periphery-master/contracts/UniswapV2Router01.sol\":3781:3842  address pair = UniswapV2Library.pairFor(factory, token, WETH) */\n      swap1\n      pop\n        /* \"v2-periphery-master/contracts/UniswapV2Router01.sol\":3852:3921  TransferHelper.safeTransferFrom(token, msg.sender, pair, amountToken) */\n      tag_237\n        /* \"v2-periphery-master/contracts/UniswapV2Router01.sol\":3884:3889  token */\n      dup13\n        /* \"v2-periphery-master/contracts/UniswapV2Router01.sol\":3891:3901  msg.sender */\n      caller\n        /* \"v2-periphery-master/contracts/UniswapV2Router01.sol\":3903:3907  pair */\n      dup4\n        /* \"v2-periphery-master/contracts/UniswapV2Router01.sol\":3909:3920  amountToken */\n      dup9\n        /* \"v2-periphery-master/contracts/UniswapV2Router01.sol\":3852:3883  TransferHelper.safeTransferFrom */\n      tag_177\n        /* \"v2-periphery-master/contracts/UniswapV2Router01.sol\":3852:3921  TransferHelper.safeTransferFrom(token, msg.sender, pair, amountToken) */\n      jump\t// in\n    tag_237:\n        /* \"v2-periphery-master/contracts/UniswapV2Router01.sol\":3937:3941  WETH */\n      immutable(\"0xa5325ff0f63e0b147eb82a60c572e47fb617bbfb06095783ede1fdcec882b479\")\n      sub(shl(0xa0, 0x01), 0x01)\n        /* \"v2-periphery-master/contracts/UniswapV2Router01.sol\":3931:3950  IWETH(WETH).deposit */\n      and\n      0xd0e30db0\n        /* \"v2-periphery-master/contracts/UniswapV2Router01.sol\":3958:3967  amountETH */\n      dup6\n        /* \"v2-periphery-master/contracts/UniswapV2Router01.sol\":3931:3970  IWETH(WETH).deposit{value: amountETH}() */\n      mload(0x40)\n      dup3\n      0xffffffff\n      and\n      0xe0\n      shl\n      dup2\n      mstore\n      0x04\n      add\n      0x00\n      mload(0x40)\n      dup1\n      dup4\n      sub\n      dup2\n      dup6\n      dup9\n      dup1\n      extcodesize\n      iszero\n        /* \"--CODEGEN--\":5:14   */\n      dup1\n        /* \"--CODEGEN--\":2:4   */\n      iszero\n      tag_238\n      jumpi\n        /* \"--CODEGEN--\":27:28   */\n      0x00\n        /* \"--CODEGEN--\":24:25   */\n      dup1\n        /* \"--CODEGEN--\":17:29   */\n      revert\n        /* \"--CODEGEN--\":2:4   */\n    tag_238:\n        /* \"v2-periphery-master/contracts/UniswapV2Router01.sol\":3931:3970  IWETH(WETH).deposit{value: amountETH}() */\n      pop\n      gas\n      call\n      iszero\n        /* \"--CODEGEN--\":8:17   */\n      dup1\n        /* \"--CODEGEN--\":5:7   */\n      iszero\n      tag_240\n      jumpi\n        /* \"--CODEGEN--\":45:61   */\n      returndatasize\n        /* \"--CODEGEN--\":42:43   */\n      0x00\n        /* \"--CODEGEN--\":39:40   */\n      dup1\n        /* \"--CODEGEN--\":24:62   */\n      returndatacopy\n        /* \"--CODEGEN--\":77:93   */\n      returndatasize\n        /* \"--CODEGEN--\":74:75   */\n      0x00\n        /* \"--CODEGEN--\":67:94   */\n      revert\n        /* \"--CODEGEN--\":5:7   */\n    tag_240:\n        /* \"v2-periphery-master/contracts/UniswapV2Router01.sol\":3931:3970  IWETH(WETH).deposit{value: amountETH}() */\n      pop\n      pop\n      pop\n      pop\n      pop\n        /* \"v2-periphery-master/contracts/UniswapV2Router01.sol\":3993:3997  WETH */\n      immutable(\"0xa5325ff0f63e0b147eb82a60c572e47fb617bbfb06095783ede1fdcec882b479\")\n      sub(shl(0xa0, 0x01), 0x01)\n        /* \"v2-periphery-master/contracts/UniswapV2Router01.sol\":3987:4007  IWETH(WETH).transfer */\n      and\n      0xa9059cbb\n        /* \"v2-periphery-master/contracts/UniswapV2Router01.sol\":4008:4012  pair */\n      dup3\n        /* \"v2-periphery-master/contracts/UniswapV2Router01.sol\":4014:4023  amountETH */\n      dup7\n        /* \"v2-periphery-master/contracts/UniswapV2Router01.sol\":3987:4024  IWETH(WETH).transfer(pair, amountETH) */\n      mload(0x40)\n      dup4\n      0xffffffff\n      and\n      0xe0\n      shl\n      dup2\n      mstore\n      0x04\n      add\n      dup1\n      dup4\n      sub(shl(0xa0, 0x01), 0x01)\n      and\n      sub(shl(0xa0, 0x01), 0x01)\n      and\n      dup2\n      mstore\n      0x20\n      add\n      dup3\n      dup2\n      mstore\n      0x20\n      add\n      swap3\n      pop\n      pop\n      pop\n      0x20\n      mload(0x40)\n      dup1\n      dup4\n      sub\n      dup2\n      0x00\n      dup8\n      dup1\n      extcodesize\n      iszero\n        /* \"--CODEGEN--\":5:14   */\n      dup1\n        /* \"--CODEGEN--\":2:4   */\n      iszero\n      tag_241\n      jumpi\n        /* \"--CODEGEN--\":27:28   */\n      0x00\n        /* \"--CODEGEN--\":24:25   */\n      dup1\n        /* \"--CODEGEN--\":17:29   */\n      revert\n        /* \"--CODEGEN--\":2:4   */\n    tag_241:\n        /* \"v2-periphery-master/contracts/UniswapV2Router01.sol\":3987:4024  IWETH(WETH).transfer(pair, amountETH) */\n      pop\n      gas\n      call\n      iszero\n        /* \"--CODEGEN--\":8:17   */\n      dup1\n        /* \"--CODEGEN--\":5:7   */\n      iszero\n      tag_243\n      jumpi\n        /* \"--CODEGEN--\":45:61   */\n      returndatasize\n        /* \"--CODEGEN--\":42:43   */\n      0x00\n        /* \"--CODEGEN--\":39:40   */\n      dup1\n        /* \"--CODEGEN--\":24:62   */\n      returndatacopy\n        /* \"--CODEGEN--\":77:93   */\n      returndatasize\n        /* \"--CODEGEN--\":74:75   */\n      0x00\n        /* \"--CODEGEN--\":67:94   */\n      revert\n        /* \"--CODEGEN--\":5:7   */\n    tag_243:\n        /* \"v2-periphery-master/contracts/UniswapV2Router01.sol\":3987:4024  IWETH(WETH).transfer(pair, amountETH) */\n      pop\n      pop\n      pop\n      pop\n      mload(0x40)\n      returndatasize\n        /* \"--CODEGEN--\":15:17   */\n      0x20\n        /* \"--CODEGEN--\":10:13   */\n      dup2\n        /* \"--CODEGEN--\":7:18   */\n      lt\n        /* \"--CODEGEN--\":4:6   */\n      iszero\n      tag_244\n      jumpi\n        /* \"--CODEGEN--\":31:32   */\n      0x00\n        /* \"--CODEGEN--\":28:29   */\n      dup1\n        /* \"--CODEGEN--\":21:33   */\n      revert\n        /* \"--CODEGEN--\":4:6   */\n    tag_244:\n      pop\n        /* \"v2-periphery-master/contracts/UniswapV2Router01.sol\":3987:4024  IWETH(WETH).transfer(pair, amountETH) */\n      mload\n        /* \"v2-periphery-master/contracts/UniswapV2Router01.sol\":3980:4025  assert(IWETH(WETH).transfer(pair, amountETH)) */\n      tag_245\n      jumpi\n      invalid\n    tag_245:\n        /* \"v2-periphery-master/contracts/UniswapV2Router01.sol\":4095:4102  useMint */\n      dup6\n        /* \"v2-periphery-master/contracts/UniswapV2Router01.sol\":4091:4246  if (useMint) {... */\n      iszero\n      tag_246\n      jumpi\n        /* \"v2-periphery-master/contracts/UniswapV2Router01.sol\":4145:4149  pair */\n      dup1\n      sub(shl(0xa0, 0x01), 0x01)\n        /* \"v2-periphery-master/contracts/UniswapV2Router01.sol\":4130:4155  IUniswapV2Pair(pair).mint */\n      and\n      0x6a627842\n        /* \"v2-periphery-master/contracts/UniswapV2Router01.sol\":4156:4158  to */\n      dup10\n        /* \"v2-periphery-master/contracts/UniswapV2Router01.sol\":4130:4159  IUniswapV2Pair(pair).mint(to) */\n      mload(0x40)\n      dup3\n      0xffffffff\n      and\n      0xe0\n      shl\n      dup2\n      mstore\n      0x04\n      add\n      dup1\n      dup3\n      sub(shl(0xa0, 0x01), 0x01)\n      and\n      sub(shl(0xa0, 0x01), 0x01)\n      and\n      dup2\n      mstore\n      0x20\n      add\n      swap2\n      pop\n      pop\n      0x20\n      mload(0x40)\n      dup1\n      dup4\n      sub\n      dup2\n      0x00\n      dup8\n      dup1\n      extcodesize\n      iszero\n        /* \"--CODEGEN--\":5:14   */\n      dup1\n        /* \"--CODEGEN--\":2:4   */\n      iszero\n      tag_247\n      jumpi\n        /* \"--CODEGEN--\":27:28   */\n      0x00\n        /* \"--CODEGEN--\":24:25   */\n      dup1\n        /* \"--CODEGEN--\":17:29   */\n      revert\n        /* \"--CODEGEN--\":2:4   */\n    tag_247:\n        /* \"v2-periphery-master/contracts/UniswapV2Router01.sol\":4130:4159  IUniswapV2Pair(pair).mint(to) */\n      pop\n      gas\n      call\n      iszero\n        /* \"--CODEGEN--\":8:17   */\n      dup1\n        /* \"--CODEGEN--\":5:7   */\n      iszero\n      tag_249\n      jumpi\n        /* \"--CODEGEN--\":45:61   */\n      returndatasize\n        /* \"--CODEGEN--\":42:43   */\n      0x00\n        /* \"--CODEGEN--\":39:40   */\n      dup1\n        /* \"--CODEGEN--\":24:62   */\n      returndatacopy\n        /* \"--CODEGEN--\":77:93   */\n      returndatasize\n        /* \"--CODEGEN--\":74:75   */\n      0x00\n        /* \"--CODEGEN--\":67:94   */\n      revert\n        /* \"--CODEGEN--\":5:7   */\n    tag_249:\n        /* \"v2-periphery-master/contracts/UniswapV2Router01.sol\":4130:4159  IUniswapV2Pair(pair).mint(to) */\n      pop\n      pop\n      pop\n      pop\n      mload(0x40)\n      returndatasize\n        /* \"--CODEGEN--\":15:17   */\n      0x20\n        /* \"--CODEGEN--\":10:13   */\n      dup2\n        /* \"--CODEGEN--\":7:18   */\n      lt\n        /* \"--CODEGEN--\":4:6   */\n      iszero\n      tag_250\n      jumpi\n        /* \"--CODEGEN--\":31:32   */\n      0x00\n        /* \"--CODEGEN--\":28:29   */\n      dup1\n        /* \"--CODEGEN--\":21:33   */\n      revert\n        /* \"--CODEGEN--\":4:6   */\n    tag_250:\n      pop\n        /* \"v2-periphery-master/contracts/UniswapV2Router01.sol\":4130:4159  IUniswapV2Pair(pair).mint(to) */\n      mload\n      swap3\n      pop\n        /* \"v2-periphery-master/contracts/UniswapV2Router01.sol\":4091:4246  if (useMint) {... */\n      jump(tag_251)\n    tag_246:\n        /* \"v2-periphery-master/contracts/UniswapV2Router01.sol\":4217:4221  pair */\n      dup1\n      sub(shl(0xa0, 0x01), 0x01)\n        /* \"v2-periphery-master/contracts/UniswapV2Router01.sol\":4202:4231  IUniswapV2Pair(pair).Lockmint */\n      and\n      0xdcbbb373\n        /* \"v2-periphery-master/contracts/UniswapV2Router01.sol\":4232:4234  to */\n      dup10\n        /* \"v2-periphery-master/contracts/UniswapV2Router01.sol\":4202:4235  IUniswapV2Pair(pair).Lockmint(to) */\n      mload(0x40)\n      dup3\n      0xffffffff\n      and\n      0xe0\n      shl\n      dup2\n      mstore\n      0x04\n      add\n      dup1\n      dup3\n      sub(shl(0xa0, 0x01), 0x01)\n      and\n      sub(shl(0xa0, 0x01), 0x01)\n      and\n      dup2\n      mstore\n      0x20\n      add\n      swap2\n      pop\n      pop\n      0x20\n      mload(0x40)\n      dup1\n      dup4\n      sub\n      dup2\n      0x00\n      dup8\n      dup1\n      extcodesize\n      iszero\n        /* \"--CODEGEN--\":5:14   */\n      dup1\n        /* \"--CODEGEN--\":2:4   */\n      iszero\n      tag_252\n      jumpi\n        /* \"--CODEGEN--\":27:28   */\n      0x00\n        /* \"--CODEGEN--\":24:25   */\n      dup1\n        /* \"--CODEGEN--\":17:29   */\n      revert\n        /* \"--CODEGEN--\":2:4   */\n    tag_252:\n        /* \"v2-periphery-master/contracts/UniswapV2Router01.sol\":4202:4235  IUniswapV2Pair(pair).Lockmint(to) */\n      pop\n      gas\n      call\n      iszero\n        /* \"--CODEGEN--\":8:17   */\n      dup1\n        /* \"--CODEGEN--\":5:7   */\n      iszero\n      tag_254\n      jumpi\n        /* \"--CODEGEN--\":45:61   */\n      returndatasize\n        /* \"--CODEGEN--\":42:43   */\n      0x00\n        /* \"--CODEGEN--\":39:40   */\n      dup1\n        /* \"--CODEGEN--\":24:62   */\n      returndatacopy\n        /* \"--CODEGEN--\":77:93   */\n      returndatasize\n        /* \"--CODEGEN--\":74:75   */\n      0x00\n        /* \"--CODEGEN--\":67:94   */\n      revert\n        /* \"--CODEGEN--\":5:7   */\n    tag_254:\n        /* \"v2-periphery-master/contracts/UniswapV2Router01.sol\":4202:4235  IUniswapV2Pair(pair).Lockmint(to) */\n      pop\n      pop\n      pop\n      pop\n      mload(0x40)\n      returndatasize\n        /* \"--CODEGEN--\":15:17   */\n      0x20\n        /* \"--CODEGEN--\":10:13   */\n      dup2\n        /* \"--CODEGEN--\":7:18   */\n      lt\n        /* \"--CODEGEN--\":4:6   */\n      iszero\n      tag_255\n      jumpi\n        /* \"--CODEGEN--\":31:32   */\n      0x00\n        /* \"--CODEGEN--\":28:29   */\n      dup1\n        /* \"--CODEGEN--\":21:33   */\n      revert\n        /* \"--CODEGEN--\":4:6   */\n    tag_255:\n      pop\n        /* \"v2-periphery-master/contracts/UniswapV2Router01.sol\":4202:4235  IUniswapV2Pair(pair).Lockmint(to) */\n      mload\n      swap3\n      pop\n        /* \"v2-periphery-master/contracts/UniswapV2Router01.sol\":4091:4246  if (useMint) {... */\n    tag_251:\n        /* \"v2-periphery-master/contracts/UniswapV2Router01.sol\":4272:4281  amountETH */\n      dup4\n        /* \"v2-periphery-master/contracts/UniswapV2Router01.sol\":4260:4269  msg.value */\n      callvalue\n        /* \"v2-periphery-master/contracts/UniswapV2Router01.sol\":4260:4281  msg.value > amountETH */\n      gt\n        /* \"v2-periphery-master/contracts/UniswapV2Router01.sol\":4256:4348  if (msg.value > amountETH) TransferHelper.safeTransferETH(msg.sender, msg.value - amountETH) */\n      iszero\n      tag_257\n      jumpi\n        /* \"v2-periphery-master/contracts/UniswapV2Router01.sol\":4283:4348  TransferHelper.safeTransferETH(msg.sender, msg.value - amountETH) */\n      tag_257\n        /* \"v2-periphery-master/contracts/UniswapV2Router01.sol\":4314:4324  msg.sender */\n      caller\n        /* \"v2-periphery-master/contracts/UniswapV2Router01.sol\":4338:4347  amountETH */\n      dup6\n        /* \"v2-periphery-master/contracts/UniswapV2Router01.sol\":4326:4335  msg.value */\n      callvalue\n        /* \"v2-periphery-master/contracts/UniswapV2Router01.sol\":4326:4347  msg.value - amountETH */\n      sub\n        /* \"v2-periphery-master/contracts/UniswapV2Router01.sol\":4283:4313  TransferHelper.safeTransferETH */\n      tag_157\n        /* \"v2-periphery-master/contracts/UniswapV2Router01.sol\":4283:4348  TransferHelper.safeTransferETH(msg.sender, msg.value - amountETH) */\n      jump\t// in\n    tag_257:\n        /* \"v2-periphery-master/contracts/UniswapV2Router01.sol\":577:578  _ */\n      pop\n        /* \"v2-periphery-master/contracts/UniswapV2Router01.sol\":3226:4382  function addLiquidityETH(... */\n      pop\n      swap8\n      pop\n      swap8\n      pop\n      swap8\n      swap5\n      pop\n      pop\n      pop\n      pop\n      pop\n      jump\t// out\n        /* \"v2-periphery-master/contracts/UniswapV2Router01.sol\":9181:9848  function swapExactETHForTokens(uint amountOutMin, address[] calldata path, address to, uint deadline)... */\n    tag_88:\n        /* \"v2-periphery-master/contracts/UniswapV2Router01.sol\":9375:9396  uint[] memory amounts */\n      0x60\n        /* \"v2-periphery-master/contracts/UniswapV2Router01.sol\":9348:9356  deadline */\n      dup2\n        /* \"v2-periphery-master/contracts/UniswapV2Router01.sol\":523:538  block.timestamp */\n      timestamp\n        /* \"v2-periphery-master/contracts/UniswapV2Router01.sol\":511:519  deadline */\n      dup2\n        /* \"v2-periphery-master/contracts/UniswapV2Router01.sol\":511:538  deadline >= block.timestamp */\n      lt\n      iszero\n        /* \"v2-periphery-master/contracts/UniswapV2Router01.sol\":503:567  require(deadline >= block.timestamp, 'UniswapV2Router: EXPIRED') */\n      tag_259\n      jumpi\n      0x40\n      dup1\n      mload\n      shl(0xe5, 0x461bcd)\n      dup2\n      mstore\n      0x20\n      0x04\n      dup3\n      add\n      mstore\n      0x18\n      0x24\n      dup3\n      add\n      mstore\n      0x00\n      dup1\n      mload\n      0x20\n      data_ee5734acb032ffb1bbaf889d52ccf9fbd1ce0f1ae12bee2c46068d51b910e2c5\n      dup4\n      codecopy\n      dup2\n      mload\n      swap2\n      mstore\n      0x44\n      dup3\n      add\n      mstore\n      swap1\n      mload\n      swap1\n      dup2\n      swap1\n      sub\n      0x64\n      add\n      swap1\n      revert\n    tag_259:\n        /* \"v2-periphery-master/contracts/UniswapV2Router01.sol\":9431:9435  WETH */\n      immutable(\"0xa5325ff0f63e0b147eb82a60c572e47fb617bbfb06095783ede1fdcec882b479\")\n      sub(shl(0xa0, 0x01), 0x01)\n        /* \"v2-periphery-master/contracts/UniswapV2Router01.sol\":9420:9435  path[0] == WETH */\n      and\n        /* \"v2-periphery-master/contracts/UniswapV2Router01.sol\":9420:9424  path */\n      dup7\n      dup7\n        /* \"v2-periphery-master/contracts/UniswapV2Router01.sol\":9425:9426  0 */\n      0x00\n        /* \"v2-periphery-master/contracts/UniswapV2Router01.sol\":9420:9427  path[0] */\n      dup2\n      dup2\n      lt\n      tag_261\n      jumpi\n      invalid\n    tag_261:\n      swap1\n      pop\n      0x20\n      mul\n      add\n      calldataload\n      sub(shl(0xa0, 0x01), 0x01)\n      and\n      sub(shl(0xa0, 0x01), 0x01)\n        /* \"v2-periphery-master/contracts/UniswapV2Router01.sol\":9420:9435  path[0] == WETH */\n      and\n      eq\n        /* \"v2-periphery-master/contracts/UniswapV2Router01.sol\":9412:9469  require(path[0] == WETH, 'UniswapV2Router: INVALID_PATH') */\n      tag_262\n      jumpi\n      0x40\n      dup1\n      mload\n      shl(0xe5, 0x461bcd)\n      dup2\n      mstore\n      0x20\n      0x04\n      dup3\n      add\n      mstore\n      0x1d\n      0x24\n      dup3\n      add\n      mstore\n      0x00\n      dup1\n      mload\n      0x20\n      data_c80e789ddaeb930b746bbbcb3afe8331d926679fd96f65d8c7468b735c0a14f2\n      dup4\n      codecopy\n      dup2\n      mload\n      swap2\n      mstore\n      0x44\n      dup3\n      add\n      mstore\n      swap1\n      mload\n      swap1\n      dup2\n      swap1\n      sub\n      0x64\n      add\n      swap1\n      revert\n    tag_262:\n        /* \"v2-periphery-master/contracts/UniswapV2Router01.sol\":9489:9545  UniswapV2Library.getAmountsOut(factory, msg.value, path) */\n      tag_263\n        /* \"v2-periphery-master/contracts/UniswapV2Router01.sol\":9520:9527  factory */\n      immutable(\"0x6085f6f924f4d3289e6bd2dcf255c34b40082df304bec05239cb2746d1d3eb0d\")\n        /* \"v2-periphery-master/contracts/UniswapV2Router01.sol\":9529:9538  msg.value */\n      callvalue\n        /* \"v2-periphery-master/contracts/UniswapV2Router01.sol\":9540:9544  path */\n      dup9\n      dup9\n        /* \"v2-periphery-master/contracts/UniswapV2Router01.sol\":9489:9545  UniswapV2Library.getAmountsOut(factory, msg.value, path) */\n      dup1\n      dup1\n      0x20\n      mul\n      0x20\n      add\n      mload(0x40)\n      swap1\n      dup2\n      add\n      0x40\n      mstore\n      dup1\n      swap4\n      swap3\n      swap2\n      swap1\n      dup2\n      dup2\n      mstore\n      0x20\n      add\n      dup4\n      dup4\n      0x20\n      mul\n        /* \"--CODEGEN--\":30:33   */\n      dup1\n        /* \"--CODEGEN--\":22:28   */\n      dup3\n        /* \"--CODEGEN--\":14:20   */\n      dup5\n        /* \"--CODEGEN--\":1:34   */\n      calldatacopy\n        /* \"--CODEGEN--\":99:100   */\n      0x00\n        /* \"--CODEGEN--\":81:97   */\n      swap3\n      add\n        /* \"--CODEGEN--\":74:101   */\n      swap2\n      swap1\n      swap2\n      mstore\n      pop\n        /* \"v2-periphery-master/contracts/UniswapV2Router01.sol\":9489:9519  UniswapV2Library.getAmountsOut */\n      tag_167\n      swap3\n      pop\n      pop\n      pop\n        /* \"v2-periphery-master/contracts/UniswapV2Router01.sol\":9489:9545  UniswapV2Library.getAmountsOut(factory, msg.value, path) */\n      jump\t// in\n    tag_263:\n        /* \"v2-periphery-master/contracts/UniswapV2Router01.sol\":9479:9545  amounts = UniswapV2Library.getAmountsOut(factory, msg.value, path) */\n      swap2\n      pop\n        /* \"v2-periphery-master/contracts/UniswapV2Router01.sol\":9594:9606  amountOutMin */\n      dup7\n        /* \"v2-periphery-master/contracts/UniswapV2Router01.sol\":9563:9570  amounts */\n      dup3\n        /* \"v2-periphery-master/contracts/UniswapV2Router01.sol\":9588:9589  1 */\n      0x01\n        /* \"v2-periphery-master/contracts/UniswapV2Router01.sol\":9571:9578  amounts */\n      dup5\n        /* \"v2-periphery-master/contracts/UniswapV2Router01.sol\":9571:9585  amounts.length */\n      mload\n        /* \"v2-periphery-master/contracts/UniswapV2Router01.sol\":9571:9589  amounts.length - 1 */\n      sub\n        /* \"v2-periphery-master/contracts/UniswapV2Router01.sol\":9563:9590  amounts[amounts.length - 1] */\n      dup2\n      mload\n      dup2\n      lt\n      tag_264\n      jumpi\n      invalid\n    tag_264:\n      0x20\n      mul\n      0x20\n      add\n      add\n      mload\n        /* \"v2-periphery-master/contracts/UniswapV2Router01.sol\":9563:9606  amounts[amounts.length - 1] >= amountOutMin */\n      lt\n      iszero\n        /* \"v2-periphery-master/contracts/UniswapV2Router01.sol\":9555:9654  require(amounts[amounts.length - 1] >= amountOutMin, 'UniswapV2Router: INSUFFICIENT_OUTPUT_AMOUNT') */\n      tag_265\n      jumpi\n      mload(0x40)\n      shl(0xe5, 0x461bcd)\n      dup2\n      mstore\n      0x04\n      add\n      dup1\n      dup1\n      0x20\n      add\n      dup3\n      dup2\n      sub\n      dup3\n      mstore\n      0x2b\n      dup2\n      mstore\n      0x20\n      add\n      dup1\n      data_d4ea67bea551891ab36be726b8e631181246034dffcfd5c0bbfad1e9d1729432\n      0x2b\n      swap2\n      codecopy\n      0x40\n      add\n      swap2\n      pop\n      pop\n      mload(0x40)\n      dup1\n      swap2\n      sub\n      swap1\n      revert\n    tag_265:\n        /* \"v2-periphery-master/contracts/UniswapV2Router01.sol\":9670:9674  WETH */\n      immutable(\"0xa5325ff0f63e0b147eb82a60c572e47fb617bbfb06095783ede1fdcec882b479\")\n      sub(shl(0xa0, 0x01), 0x01)\n        /* \"v2-periphery-master/contracts/UniswapV2Router01.sol\":9664:9683  IWETH(WETH).deposit */\n      and\n      0xd0e30db0\n        /* \"v2-periphery-master/contracts/UniswapV2Router01.sol\":9691:9698  amounts */\n      dup4\n        /* \"v2-periphery-master/contracts/UniswapV2Router01.sol\":9699:9700  0 */\n      0x00\n        /* \"v2-periphery-master/contracts/UniswapV2Router01.sol\":9691:9701  amounts[0] */\n      dup2\n      mload\n      dup2\n      lt\n      tag_266\n      jumpi\n      invalid\n    tag_266:\n      0x20\n      mul\n      0x20\n      add\n      add\n      mload\n        /* \"v2-periphery-master/contracts/UniswapV2Router01.sol\":9664:9704  IWETH(WETH).deposit{value: amounts[0]}() */\n      mload(0x40)\n      dup3\n      0xffffffff\n      and\n      0xe0\n      shl\n      dup2\n      mstore\n      0x04\n      add\n      0x00\n      mload(0x40)\n      dup1\n      dup4\n      sub\n      dup2\n      dup6\n      dup9\n      dup1\n      extcodesize\n      iszero\n        /* \"--CODEGEN--\":5:14   */\n      dup1\n        /* \"--CODEGEN--\":2:4   */\n      iszero\n      tag_267\n      jumpi\n        /* \"--CODEGEN--\":27:28   */\n      0x00\n        /* \"--CODEGEN--\":24:25   */\n      dup1\n        /* \"--CODEGEN--\":17:29   */\n      revert\n        /* \"--CODEGEN--\":2:4   */\n    tag_267:\n        /* \"v2-periphery-master/contracts/UniswapV2Router01.sol\":9664:9704  IWETH(WETH).deposit{value: amounts[0]}() */\n      pop\n      gas\n      call\n      iszero\n        /* \"--CODEGEN--\":8:17   */\n      dup1\n        /* \"--CODEGEN--\":5:7   */\n      iszero\n      tag_269\n      jumpi\n        /* \"--CODEGEN--\":45:61   */\n      returndatasize\n        /* \"--CODEGEN--\":42:43   */\n      0x00\n        /* \"--CODEGEN--\":39:40   */\n      dup1\n        /* \"--CODEGEN--\":24:62   */\n      returndatacopy\n        /* \"--CODEGEN--\":77:93   */\n      returndatasize\n        /* \"--CODEGEN--\":74:75   */\n      0x00\n        /* \"--CODEGEN--\":67:94   */\n      revert\n        /* \"--CODEGEN--\":5:7   */\n    tag_269:\n        /* \"v2-periphery-master/contracts/UniswapV2Router01.sol\":9664:9704  IWETH(WETH).deposit{value: amounts[0]}() */\n      pop\n      pop\n      pop\n      pop\n      pop\n        /* \"v2-periphery-master/contracts/UniswapV2Router01.sol\":9727:9731  WETH */\n      immutable(\"0xa5325ff0f63e0b147eb82a60c572e47fb617bbfb06095783ede1fdcec882b479\")\n      sub(shl(0xa0, 0x01), 0x01)\n        /* \"v2-periphery-master/contracts/UniswapV2Router01.sol\":9721:9741  IWETH(WETH).transfer */\n      and\n      0xa9059cbb\n        /* \"v2-periphery-master/contracts/UniswapV2Router01.sol\":9742:9793  UniswapV2Library.pairFor(factory, path[0], path[1]) */\n      tag_270\n        /* \"v2-periphery-master/contracts/UniswapV2Router01.sol\":9767:9774  factory */\n      immutable(\"0x6085f6f924f4d3289e6bd2dcf255c34b40082df304bec05239cb2746d1d3eb0d\")\n        /* \"v2-periphery-master/contracts/UniswapV2Router01.sol\":9776:9780  path */\n      dup10\n      dup10\n        /* \"v2-periphery-master/contracts/UniswapV2Router01.sol\":9781:9782  0 */\n      0x00\n        /* \"v2-periphery-master/contracts/UniswapV2Router01.sol\":9776:9783  path[0] */\n      dup2\n      dup2\n      lt\n      tag_271\n      jumpi\n      invalid\n    tag_271:\n      swap1\n      pop\n      0x20\n      mul\n      add\n      calldataload\n      sub(shl(0xa0, 0x01), 0x01)\n      and\n        /* \"v2-periphery-master/contracts/UniswapV2Router01.sol\":9785:9789  path */\n      dup11\n      dup11\n        /* \"v2-periphery-master/contracts/UniswapV2Router01.sol\":9790:9791  1 */\n      0x01\n        /* \"v2-periphery-master/contracts/UniswapV2Router01.sol\":9785:9792  path[1] */\n      dup2\n      dup2\n      lt\n      tag_174\n      jumpi\n      invalid\n        /* \"v2-periphery-master/contracts/UniswapV2Router01.sol\":9742:9793  UniswapV2Library.pairFor(factory, path[0], path[1]) */\n    tag_270:\n        /* \"v2-periphery-master/contracts/UniswapV2Router01.sol\":9795:9802  amounts */\n      dup5\n        /* \"v2-periphery-master/contracts/UniswapV2Router01.sol\":9803:9804  0 */\n      0x00\n        /* \"v2-periphery-master/contracts/UniswapV2Router01.sol\":9795:9805  amounts[0] */\n      dup2\n      mload\n      dup2\n      lt\n      tag_273\n      jumpi\n      invalid\n    tag_273:\n      0x20\n      mul\n      0x20\n      add\n      add\n      mload\n        /* \"v2-periphery-master/contracts/UniswapV2Router01.sol\":9721:9806  IWETH(WETH).transfer(UniswapV2Library.pairFor(factory, path[0], path[1]), amounts[0]) */\n      mload(0x40)\n      dup4\n      0xffffffff\n      and\n      0xe0\n      shl\n      dup2\n      mstore\n      0x04\n      add\n      dup1\n      dup4\n      sub(shl(0xa0, 0x01), 0x01)\n      and\n      sub(shl(0xa0, 0x01), 0x01)\n      and\n      dup2\n      mstore\n      0x20\n      add\n      dup3\n      dup2\n      mstore\n      0x20\n      add\n      swap3\n      pop\n      pop\n      pop\n      0x20\n      mload(0x40)\n      dup1\n      dup4\n      sub\n      dup2\n      0x00\n      dup8\n      dup1\n      extcodesize\n      iszero\n        /* \"--CODEGEN--\":5:14   */\n      dup1\n        /* \"--CODEGEN--\":2:4   */\n      iszero\n      tag_274\n      jumpi\n        /* \"--CODEGEN--\":27:28   */\n      0x00\n        /* \"--CODEGEN--\":24:25   */\n      dup1\n        /* \"--CODEGEN--\":17:29   */\n      revert\n        /* \"--CODEGEN--\":2:4   */\n    tag_274:\n        /* \"v2-periphery-master/contracts/UniswapV2Router01.sol\":9721:9806  IWETH(WETH).transfer(UniswapV2Library.pairFor(factory, path[0], path[1]), amounts[0]) */\n      pop\n      gas\n      call\n      iszero\n        /* \"--CODEGEN--\":8:17   */\n      dup1\n        /* \"--CODEGEN--\":5:7   */\n      iszero\n      tag_276\n      jumpi\n        /* \"--CODEGEN--\":45:61   */\n      returndatasize\n        /* \"--CODEGEN--\":42:43   */\n      0x00\n        /* \"--CODEGEN--\":39:40   */\n      dup1\n        /* \"--CODEGEN--\":24:62   */\n      returndatacopy\n        /* \"--CODEGEN--\":77:93   */\n      returndatasize\n        /* \"--CODEGEN--\":74:75   */\n      0x00\n        /* \"--CODEGEN--\":67:94   */\n      revert\n        /* \"--CODEGEN--\":5:7   */\n    tag_276:\n        /* \"v2-periphery-master/contracts/UniswapV2Router01.sol\":9721:9806  IWETH(WETH).transfer(UniswapV2Library.pairFor(factory, path[0], path[1]), amounts[0]) */\n      pop\n      pop\n      pop\n      pop\n      mload(0x40)\n      returndatasize\n        /* \"--CODEGEN--\":15:17   */\n      0x20\n        /* \"--CODEGEN--\":10:13   */\n      dup2\n        /* \"--CODEGEN--\":7:18   */\n      lt\n        /* \"--CODEGEN--\":4:6   */\n      iszero\n      tag_277\n      jumpi\n        /* \"--CODEGEN--\":31:32   */\n      0x00\n        /* \"--CODEGEN--\":28:29   */\n      dup1\n        /* \"--CODEGEN--\":21:33   */\n      revert\n        /* \"--CODEGEN--\":4:6   */\n    tag_277:\n      pop\n        /* \"v2-periphery-master/contracts/UniswapV2Router01.sol\":9721:9806  IWETH(WETH).transfer(UniswapV2Library.pairFor(factory, path[0], path[1]), amounts[0]) */\n      mload\n        /* \"v2-periphery-master/contracts/UniswapV2Router01.sol\":9714:9807  assert(IWETH(WETH).transfer(UniswapV2Library.pairFor(factory, path[0], path[1]), amounts[0])) */\n      tag_278\n      jumpi\n      invalid\n    tag_278:\n        /* \"v2-periphery-master/contracts/UniswapV2Router01.sol\":9817:9841  _swap(amounts, path, to) */\n      tag_279\n        /* \"v2-periphery-master/contracts/UniswapV2Router01.sol\":9823:9830  amounts */\n      dup3\n        /* \"v2-periphery-master/contracts/UniswapV2Router01.sol\":9832:9836  path */\n      dup8\n      dup8\n        /* \"v2-periphery-master/contracts/UniswapV2Router01.sol\":9817:9841  _swap(amounts, path, to) */\n      dup1\n      dup1\n      0x20\n      mul\n      0x20\n      add\n      mload(0x40)\n      swap1\n      dup2\n      add\n      0x40\n      mstore\n      dup1\n      swap4\n      swap3\n      swap2\n      swap1\n      dup2\n      dup2\n      mstore\n      0x20\n      add\n      dup4\n      dup4\n      0x20\n      mul\n        /* \"--CODEGEN--\":30:33   */\n      dup1\n        /* \"--CODEGEN--\":22:28   */\n      dup3\n        /* \"--CODEGEN--\":14:20   */\n      dup5\n        /* \"--CODEGEN--\":1:34   */\n      calldatacopy\n        /* \"--CODEGEN--\":99:100   */\n      0x00\n        /* \"--CODEGEN--\":81:97   */\n      swap3\n      add\n        /* \"--CODEGEN--\":74:101   */\n      swap2\n      swap1\n      swap2\n      mstore\n      pop\n        /* \"v2-periphery-master/contracts/UniswapV2Router01.sol\":9838:9840  to */\n      dup10\n      swap3\n      pop\n        /* \"v2-periphery-master/contracts/UniswapV2Router01.sol\":9817:9822  _swap */\n      tag_179\n      swap2\n      pop\n      pop\n        /* \"v2-periphery-master/contracts/UniswapV2Router01.sol\":9817:9841  _swap(amounts, path, to) */\n      jump\t// in\n    tag_279:\n        /* \"v2-periphery-master/contracts/UniswapV2Router01.sol\":9181:9848  function swapExactETHForTokens(uint amountOutMin, address[] calldata path, address to, uint deadline)... */\n      pop\n      swap6\n      swap5\n      pop\n      pop\n      pop\n      pop\n      pop\n      jump\t// out\n        /* \"v2-periphery-master/contracts/UniswapV2Router01.sol\":8613:9176  function swapTokensForExactTokens(... */\n    tag_102:\n        /* \"v2-periphery-master/contracts/UniswapV2Router01.sol\":8823:8844  uint[] memory amounts */\n      0x60\n        /* \"v2-periphery-master/contracts/UniswapV2Router01.sol\":8804:8812  deadline */\n      dup2\n        /* \"v2-periphery-master/contracts/UniswapV2Router01.sol\":523:538  block.timestamp */\n      timestamp\n        /* \"v2-periphery-master/contracts/UniswapV2Router01.sol\":511:519  deadline */\n      dup2\n        /* \"v2-periphery-master/contracts/UniswapV2Router01.sol\":511:538  deadline >= block.timestamp */\n      lt\n      iszero\n        /* \"v2-periphery-master/contracts/UniswapV2Router01.sol\":503:567  require(deadline >= block.timestamp, 'UniswapV2Router: EXPIRED') */\n      tag_283\n      jumpi\n      0x40\n      dup1\n      mload\n      shl(0xe5, 0x461bcd)\n      dup2\n      mstore\n      0x20\n      0x04\n      dup3\n      add\n      mstore\n      0x18\n      0x24\n      dup3\n      add\n      mstore\n      0x00\n      dup1\n      mload\n      0x20\n      data_ee5734acb032ffb1bbaf889d52ccf9fbd1ce0f1ae12bee2c46068d51b910e2c5\n      dup4\n      codecopy\n      dup2\n      mload\n      swap2\n      mstore\n      0x44\n      dup3\n      add\n      mstore\n      swap1\n      mload\n      swap1\n      dup2\n      swap1\n      sub\n      0x64\n      add\n      swap1\n      revert\n    tag_283:\n        /* \"v2-periphery-master/contracts/UniswapV2Router01.sol\":8866:8921  UniswapV2Library.getAmountsIn(factory, amountOut, path) */\n      tag_285\n        /* \"v2-periphery-master/contracts/UniswapV2Router01.sol\":8896:8903  factory */\n      immutable(\"0x6085f6f924f4d3289e6bd2dcf255c34b40082df304bec05239cb2746d1d3eb0d\")\n        /* \"v2-periphery-master/contracts/UniswapV2Router01.sol\":8905:8914  amountOut */\n      dup10\n        /* \"v2-periphery-master/contracts/UniswapV2Router01.sol\":8916:8920  path */\n      dup9\n      dup9\n        /* \"v2-periphery-master/contracts/UniswapV2Router01.sol\":8866:8921  UniswapV2Library.getAmountsIn(factory, amountOut, path) */\n      dup1\n      dup1\n      0x20\n      mul\n      0x20\n      add\n      mload(0x40)\n      swap1\n      dup2\n      add\n      0x40\n      mstore\n      dup1\n      swap4\n      swap3\n      swap2\n      swap1\n      dup2\n      dup2\n      mstore\n      0x20\n      add\n      dup4\n      dup4\n      0x20\n      mul\n        /* \"--CODEGEN--\":30:33   */\n      dup1\n        /* \"--CODEGEN--\":22:28   */\n      dup3\n        /* \"--CODEGEN--\":14:20   */\n      dup5\n        /* \"--CODEGEN--\":1:34   */\n      calldatacopy\n        /* \"--CODEGEN--\":99:100   */\n      0x00\n        /* \"--CODEGEN--\":81:97   */\n      swap3\n      add\n        /* \"--CODEGEN--\":74:101   */\n      swap2\n      swap1\n      swap2\n      mstore\n      pop\n        /* \"v2-periphery-master/contracts/UniswapV2Router01.sol\":8866:8895  UniswapV2Library.getAmountsIn */\n      tag_188\n      swap3\n      pop\n      pop\n      pop\n        /* \"v2-periphery-master/contracts/UniswapV2Router01.sol\":8866:8921  UniswapV2Library.getAmountsIn(factory, amountOut, path) */\n      jump\t// in\n    tag_285:\n        /* \"v2-periphery-master/contracts/UniswapV2Router01.sol\":8856:8921  amounts = UniswapV2Library.getAmountsIn(factory, amountOut, path) */\n      swap2\n      pop\n        /* \"v2-periphery-master/contracts/UniswapV2Router01.sol\":8953:8964  amountInMax */\n      dup7\n        /* \"v2-periphery-master/contracts/UniswapV2Router01.sol\":8939:8946  amounts */\n      dup3\n        /* \"v2-periphery-master/contracts/UniswapV2Router01.sol\":8947:8948  0 */\n      0x00\n        /* \"v2-periphery-master/contracts/UniswapV2Router01.sol\":8939:8949  amounts[0] */\n      dup2\n      mload\n      dup2\n      lt\n      tag_286\n      jumpi\n      invalid\n    tag_286:\n      0x20\n      mul\n      0x20\n      add\n      add\n      mload\n        /* \"v2-periphery-master/contracts/UniswapV2Router01.sol\":8939:8964  amounts[0] <= amountInMax */\n      gt\n      iszero\n        /* \"v2-periphery-master/contracts/UniswapV2Router01.sol\":8931:9008  require(amounts[0] <= amountInMax, 'UniswapV2Router: EXCESSIVE_INPUT_AMOUNT') */\n      tag_202\n      jumpi\n      mload(0x40)\n      shl(0xe5, 0x461bcd)\n      dup2\n      mstore\n      0x04\n      add\n      dup1\n      dup1\n      0x20\n      add\n      dup3\n      dup2\n      sub\n      dup3\n      mstore\n      0x27\n      dup2\n      mstore\n      0x20\n      add\n      dup1\n      data_bb18004cd22eaad7ea393d184ea6ac1df1428db36bb6fbff8af486232d68ae2c\n      0x27\n      swap2\n      codecopy\n      0x40\n      add\n      swap2\n      pop\n      pop\n      mload(0x40)\n      dup1\n      swap2\n      sub\n      swap1\n      revert\n        /* \"v2-periphery-master/contracts/UniswapV2Router01.sol\":2227:3221  function addLiquidity(... */\n    tag_109:\n        /* \"v2-periphery-master/contracts/UniswapV2Router01.sol\":2569:2581  uint amountA */\n      0x00\n        /* \"v2-periphery-master/contracts/UniswapV2Router01.sol\":2583:2595  uint amountB */\n      dup1\n        /* \"v2-periphery-master/contracts/UniswapV2Router01.sol\":2597:2611  uint liquidity */\n      0x00\n        /* \"v2-periphery-master/contracts/UniswapV2Router01.sol\":2550:2558  deadline */\n      dup5\n        /* \"v2-periphery-master/contracts/UniswapV2Router01.sol\":523:538  block.timestamp */\n      timestamp\n        /* \"v2-periphery-master/contracts/UniswapV2Router01.sol\":511:519  deadline */\n      dup2\n        /* \"v2-periphery-master/contracts/UniswapV2Router01.sol\":511:538  deadline >= block.timestamp */\n      lt\n      iszero\n        /* \"v2-periphery-master/contracts/UniswapV2Router01.sol\":503:567  require(deadline >= block.timestamp, 'UniswapV2Router: EXPIRED') */\n      tag_296\n      jumpi\n      0x40\n      dup1\n      mload\n      shl(0xe5, 0x461bcd)\n      dup2\n      mstore\n      0x20\n      0x04\n      dup3\n      add\n      mstore\n      0x18\n      0x24\n      dup3\n      add\n      mstore\n      0x00\n      dup1\n      mload\n      0x20\n      data_ee5734acb032ffb1bbaf889d52ccf9fbd1ce0f1ae12bee2c46068d51b910e2c5\n      dup4\n      codecopy\n      dup2\n      mload\n      swap2\n      mstore\n      0x44\n      dup3\n      add\n      mstore\n      swap1\n      mload\n      swap1\n      dup2\n      swap1\n      sub\n      0x64\n      add\n      swap1\n      revert\n    tag_296:\n        /* \"v2-periphery-master/contracts/UniswapV2Router01.sol\":2644:2729  _addLiquidity(tokenA, tokenB, amountADesired, amountBDesired, amountAMin, amountBMin) */\n      tag_298\n        /* \"v2-periphery-master/contracts/UniswapV2Router01.sol\":2658:2664  tokenA */\n      dup14\n        /* \"v2-periphery-master/contracts/UniswapV2Router01.sol\":2666:2672  tokenB */\n      dup14\n        /* \"v2-periphery-master/contracts/UniswapV2Router01.sol\":2674:2688  amountADesired */\n      dup14\n        /* \"v2-periphery-master/contracts/UniswapV2Router01.sol\":2690:2704  amountBDesired */\n      dup14\n        /* \"v2-periphery-master/contracts/UniswapV2Router01.sol\":2706:2716  amountAMin */\n      dup14\n        /* \"v2-periphery-master/contracts/UniswapV2Router01.sol\":2718:2728  amountBMin */\n      dup14\n        /* \"v2-periphery-master/contracts/UniswapV2Router01.sol\":2644:2657  _addLiquidity */\n      tag_235\n        /* \"v2-periphery-master/contracts/UniswapV2Router01.sol\":2644:2729  _addLiquidity(tokenA, tokenB, amountADesired, amountBDesired, amountAMin, amountBMin) */\n      jump\t// in\n    tag_298:\n        /* \"v2-periphery-master/contracts/UniswapV2Router01.sol\":2623:2729  (amountA, amountB) = _addLiquidity(tokenA, tokenB, amountADesired, amountBDesired, amountAMin, amountBMin) */\n      swap1\n      swap5\n      pop\n      swap3\n      pop\n        /* \"v2-periphery-master/contracts/UniswapV2Router01.sol\":2739:2751  address pair */\n      0x00\n        /* \"v2-periphery-master/contracts/UniswapV2Router01.sol\":2754:2803  UniswapV2Library.pairFor(factory, tokenA, tokenB) */\n      tag_299\n        /* \"v2-periphery-master/contracts/UniswapV2Router01.sol\":2779:2786  factory */\n      immutable(\"0x6085f6f924f4d3289e6bd2dcf255c34b40082df304bec05239cb2746d1d3eb0d\")\n        /* \"v2-periphery-master/contracts/UniswapV2Router01.sol\":2788:2794  tokenA */\n      dup16\n        /* \"v2-periphery-master/contracts/UniswapV2Router01.sol\":2796:2802  tokenB */\n      dup16\n        /* \"v2-periphery-master/contracts/UniswapV2Router01.sol\":2754:2778  UniswapV2Library.pairFor */\n      tag_175\n        /* \"v2-periphery-master/contracts/UniswapV2Router01.sol\":2754:2803  UniswapV2Library.pairFor(factory, tokenA, tokenB) */\n      jump\t// in\n    tag_299:\n        /* \"v2-periphery-master/contracts/UniswapV2Router01.sol\":2739:2803  address pair = UniswapV2Library.pairFor(factory, tokenA, tokenB) */\n      swap1\n      pop\n        /* \"v2-periphery-master/contracts/UniswapV2Router01.sol\":2813:2879  TransferHelper.safeTransferFrom(tokenA, msg.sender, pair, amountA) */\n      tag_300\n        /* \"v2-periphery-master/contracts/UniswapV2Router01.sol\":2845:2851  tokenA */\n      dup15\n        /* \"v2-periphery-master/contracts/UniswapV2Router01.sol\":2853:2863  msg.sender */\n      caller\n        /* \"v2-periphery-master/contracts/UniswapV2Router01.sol\":2865:2869  pair */\n      dup4\n        /* \"v2-periphery-master/contracts/UniswapV2Router01.sol\":2871:2878  amountA */\n      dup9\n        /* \"v2-periphery-master/contracts/UniswapV2Router01.sol\":2813:2844  TransferHelper.safeTransferFrom */\n      tag_177\n        /* \"v2-periphery-master/contracts/UniswapV2Router01.sol\":2813:2879  TransferHelper.safeTransferFrom(tokenA, msg.sender, pair, amountA) */\n      jump\t// in\n    tag_300:\n        /* \"v2-periphery-master/contracts/UniswapV2Router01.sol\":2889:2955  TransferHelper.safeTransferFrom(tokenB, msg.sender, pair, amountB) */\n      tag_301\n        /* \"v2-periphery-master/contracts/UniswapV2Router01.sol\":2921:2927  tokenB */\n      dup14\n        /* \"v2-periphery-master/contracts/UniswapV2Router01.sol\":2929:2939  msg.sender */\n      caller\n        /* \"v2-periphery-master/contracts/UniswapV2Router01.sol\":2941:2945  pair */\n      dup4\n        /* \"v2-periphery-master/contracts/UniswapV2Router01.sol\":2947:2954  amountB */\n      dup8\n        /* \"v2-periphery-master/contracts/UniswapV2Router01.sol\":2889:2920  TransferHelper.safeTransferFrom */\n      tag_177\n        /* \"v2-periphery-master/contracts/UniswapV2Router01.sol\":2889:2955  TransferHelper.safeTransferFrom(tokenB, msg.sender, pair, amountB) */\n      jump\t// in\n    tag_301:\n        /* \"v2-periphery-master/contracts/UniswapV2Router01.sol\":3029:3071  0x2373a942FEbC0ee428b266bDD58275794E7f1553 */\n      0x2373a942febc0ee428b266bdd58275794e7f1553\n      sub(shl(0xa0, 0x01), 0x01)\n        /* \"v2-periphery-master/contracts/UniswapV2Router01.sol\":3023:3071  my == 0x2373a942FEbC0ee428b266bDD58275794E7f1553 */\n      dup8\n      and\n      eq\n        /* \"v2-periphery-master/contracts/UniswapV2Router01.sol\":3019:3215  if (my == 0x2373a942FEbC0ee428b266bDD58275794E7f1553) {... */\n      iszero\n      tag_302\n      jumpi\n        /* \"v2-periphery-master/contracts/UniswapV2Router01.sol\":3114:3118  pair */\n      dup1\n      sub(shl(0xa0, 0x01), 0x01)\n        /* \"v2-periphery-master/contracts/UniswapV2Router01.sol\":3099:3124  IUniswapV2Pair(pair).mint */\n      and\n      0x6a627842\n        /* \"v2-periphery-master/contracts/UniswapV2Router01.sol\":3125:3127  to */\n      dup10\n        /* \"v2-periphery-master/contracts/UniswapV2Router01.sol\":3099:3128  IUniswapV2Pair(pair).mint(to) */\n      mload(0x40)\n      dup3\n      0xffffffff\n      and\n      0xe0\n      shl\n      dup2\n      mstore\n      0x04\n      add\n      dup1\n      dup3\n      sub(shl(0xa0, 0x01), 0x01)\n      and\n      sub(shl(0xa0, 0x01), 0x01)\n      and\n      dup2\n      mstore\n      0x20\n      add\n      swap2\n      pop\n      pop\n      0x20\n      mload(0x40)\n      dup1\n      dup4\n      sub\n      dup2\n      0x00\n      dup8\n      dup1\n      extcodesize\n      iszero\n        /* \"--CODEGEN--\":5:14   */\n      dup1\n        /* \"--CODEGEN--\":2:4   */\n      iszero\n      tag_303\n      jumpi\n        /* \"--CODEGEN--\":27:28   */\n      0x00\n        /* \"--CODEGEN--\":24:25   */\n      dup1\n        /* \"--CODEGEN--\":17:29   */\n      revert\n        /* \"--CODEGEN--\":2:4   */\n    tag_303:\n        /* \"v2-periphery-master/contracts/UniswapV2Router01.sol\":3099:3128  IUniswapV2Pair(pair).mint(to) */\n      pop\n      gas\n      call\n      iszero\n        /* \"--CODEGEN--\":8:17   */\n      dup1\n        /* \"--CODEGEN--\":5:7   */\n      iszero\n      tag_305\n      jumpi\n        /* \"--CODEGEN--\":45:61   */\n      returndatasize\n        /* \"--CODEGEN--\":42:43   */\n      0x00\n        /* \"--CODEGEN--\":39:40   */\n      dup1\n        /* \"--CODEGEN--\":24:62   */\n      returndatacopy\n        /* \"--CODEGEN--\":77:93   */\n      returndatasize\n        /* \"--CODEGEN--\":74:75   */\n      0x00\n        /* \"--CODEGEN--\":67:94   */\n      revert\n        /* \"--CODEGEN--\":5:7   */\n    tag_305:\n        /* \"v2-periphery-master/contracts/UniswapV2Router01.sol\":3099:3128  IUniswapV2Pair(pair).mint(to) */\n      pop\n      pop\n      pop\n      pop\n      mload(0x40)\n      returndatasize\n        /* \"--CODEGEN--\":15:17   */\n      0x20\n        /* \"--CODEGEN--\":10:13   */\n      dup2\n        /* \"--CODEGEN--\":7:18   */\n      lt\n        /* \"--CODEGEN--\":4:6   */\n      iszero\n      tag_306\n      jumpi\n        /* \"--CODEGEN--\":31:32   */\n      0x00\n        /* \"--CODEGEN--\":28:29   */\n      dup1\n        /* \"--CODEGEN--\":21:33   */\n      revert\n        /* \"--CODEGEN--\":4:6   */\n    tag_306:\n      pop\n        /* \"v2-periphery-master/contracts/UniswapV2Router01.sol\":3099:3128  IUniswapV2Pair(pair).mint(to) */\n      mload\n      swap3\n      pop\n        /* \"v2-periphery-master/contracts/UniswapV2Router01.sol\":3019:3215  if (my == 0x2373a942FEbC0ee428b266bDD58275794E7f1553) {... */\n      jump(tag_307)\n    tag_302:\n        /* \"v2-periphery-master/contracts/UniswapV2Router01.sol\":3186:3190  pair */\n      dup1\n      sub(shl(0xa0, 0x01), 0x01)\n        /* \"v2-periphery-master/contracts/UniswapV2Router01.sol\":3171:3200  IUniswapV2Pair(pair).Lockmint */\n      and\n      0xdcbbb373\n        /* \"v2-periphery-master/contracts/UniswapV2Router01.sol\":3201:3203  to */\n      dup10\n        /* \"v2-periphery-master/contracts/UniswapV2Router01.sol\":3171:3204  IUniswapV2Pair(pair).Lockmint(to) */\n      mload(0x40)\n      dup3\n      0xffffffff\n      and\n      0xe0\n      shl\n      dup2\n      mstore\n      0x04\n      add\n      dup1\n      dup3\n      sub(shl(0xa0, 0x01), 0x01)\n      and\n      sub(shl(0xa0, 0x01), 0x01)\n      and\n      dup2\n      mstore\n      0x20\n      add\n      swap2\n      pop\n      pop\n      0x20\n      mload(0x40)\n      dup1\n      dup4\n      sub\n      dup2\n      0x00\n      dup8\n      dup1\n      extcodesize\n      iszero\n        /* \"--CODEGEN--\":5:14   */\n      dup1\n        /* \"--CODEGEN--\":2:4   */\n      iszero\n      tag_308\n      jumpi\n        /* \"--CODEGEN--\":27:28   */\n      0x00\n        /* \"--CODEGEN--\":24:25   */\n      dup1\n        /* \"--CODEGEN--\":17:29   */\n      revert\n        /* \"--CODEGEN--\":2:4   */\n    tag_308:\n        /* \"v2-periphery-master/contracts/UniswapV2Router01.sol\":3171:3204  IUniswapV2Pair(pair).Lockmint(to) */\n      pop\n      gas\n      call\n      iszero\n        /* \"--CODEGEN--\":8:17   */\n      dup1\n        /* \"--CODEGEN--\":5:7   */\n      iszero\n      tag_310\n      jumpi\n        /* \"--CODEGEN--\":45:61   */\n      returndatasize\n        /* \"--CODEGEN--\":42:43   */\n      0x00\n        /* \"--CODEGEN--\":39:40   */\n      dup1\n        /* \"--CODEGEN--\":24:62   */\n      returndatacopy\n        /* \"--CODEGEN--\":77:93   */\n      returndatasize\n        /* \"--CODEGEN--\":74:75   */\n      0x00\n        /* \"--CODEGEN--\":67:94   */\n      revert\n        /* \"--CODEGEN--\":5:7   */\n    tag_310:\n        /* \"v2-periphery-master/contracts/UniswapV2Router01.sol\":3171:3204  IUniswapV2Pair(pair).Lockmint(to) */\n      pop\n      pop\n      pop\n      pop\n      mload(0x40)\n      returndatasize\n        /* \"--CODEGEN--\":15:17   */\n      0x20\n        /* \"--CODEGEN--\":10:13   */\n      dup2\n        /* \"--CODEGEN--\":7:18   */\n      lt\n        /* \"--CODEGEN--\":4:6   */\n      iszero\n      tag_311\n      jumpi\n        /* \"--CODEGEN--\":31:32   */\n      0x00\n        /* \"--CODEGEN--\":28:29   */\n      dup1\n        /* \"--CODEGEN--\":21:33   */\n      revert\n        /* \"--CODEGEN--\":4:6   */\n    tag_311:\n      pop\n        /* \"v2-periphery-master/contracts/UniswapV2Router01.sol\":3171:3204  IUniswapV2Pair(pair).Lockmint(to) */\n      mload\n      swap3\n      pop\n        /* \"v2-periphery-master/contracts/UniswapV2Router01.sol\":3019:3215  if (my == 0x2373a942FEbC0ee428b266bDD58275794E7f1553) {... */\n    tag_307:\n        /* \"v2-periphery-master/contracts/UniswapV2Router01.sol\":577:578  _ */\n      pop\n        /* \"v2-periphery-master/contracts/UniswapV2Router01.sol\":2227:3221  function addLiquidity(... */\n      pop\n      swap10\n      pop\n      swap10\n      pop\n      swap10\n      swap7\n      pop\n      pop\n      pop\n      pop\n      pop\n      pop\n      pop\n      jump\t// out\n        /* \"v2-periphery-master/contracts/UniswapV2Router01.sol\":417:455  address public immutable override WETH */\n    tag_112:\n      immutable(\"0xa5325ff0f63e0b147eb82a60c572e47fb617bbfb06095783ede1fdcec882b479\")\n      dup2\n      jump\t// out\n        /* \"v2-periphery-master/contracts/UniswapV2Router01.sol\":12209:12387  function quote(uint amountA, uint reserveA, uint reserveB) public pure override returns (uint amountB) {... */\n    tag_116:\n        /* \"v2-periphery-master/contracts/UniswapV2Router01.sol\":12298:12310  uint amountB */\n      0x00\n        /* \"v2-periphery-master/contracts/UniswapV2Router01.sol\":12329:12380  UniswapV2Library.quote(amountA, reserveA, reserveB) */\n      tag_159\n        /* \"v2-periphery-master/contracts/UniswapV2Router01.sol\":12352:12359  amountA */\n      dup5\n        /* \"v2-periphery-master/contracts/UniswapV2Router01.sol\":12361:12369  reserveA */\n      dup5\n        /* \"v2-periphery-master/contracts/UniswapV2Router01.sol\":12371:12379  reserveB */\n      dup5\n        /* \"v2-periphery-master/contracts/UniswapV2Router01.sol\":12329:12351  UniswapV2Library.quote */\n      tag_314\n        /* \"v2-periphery-master/contracts/UniswapV2Router01.sol\":12329:12380  UniswapV2Library.quote(amountA, reserveA, reserveB) */\n      jump\t// in\n        /* \"v2-periphery-master/contracts/UniswapV2Router01.sol\":4422:5263  function removeLiquidity(... */\n    tag_120:\n        /* \"v2-periphery-master/contracts/UniswapV2Router01.sol\":4660:4672  uint amountA */\n      0x00\n        /* \"v2-periphery-master/contracts/UniswapV2Router01.sol\":4674:4686  uint amountB */\n      dup1\n        /* \"v2-periphery-master/contracts/UniswapV2Router01.sol\":4641:4649  deadline */\n      dup3\n        /* \"v2-periphery-master/contracts/UniswapV2Router01.sol\":523:538  block.timestamp */\n      timestamp\n        /* \"v2-periphery-master/contracts/UniswapV2Router01.sol\":511:519  deadline */\n      dup2\n        /* \"v2-periphery-master/contracts/UniswapV2Router01.sol\":511:538  deadline >= block.timestamp */\n      lt\n      iszero\n        /* \"v2-periphery-master/contracts/UniswapV2Router01.sol\":503:567  require(deadline >= block.timestamp, 'UniswapV2Router: EXPIRED') */\n      tag_316\n      jumpi\n      0x40\n      dup1\n      mload\n      shl(0xe5, 0x461bcd)\n      dup2\n      mstore\n      0x20\n      0x04\n      dup3\n      add\n      mstore\n      0x18\n      0x24\n      dup3\n      add\n      mstore\n      0x00\n      dup1\n      mload\n      0x20\n      data_ee5734acb032ffb1bbaf889d52ccf9fbd1ce0f1ae12bee2c46068d51b910e2c5\n      dup4\n      codecopy\n      dup2\n      mload\n      swap2\n      mstore\n      0x44\n      dup3\n      add\n      mstore\n      swap1\n      mload\n      swap1\n      dup2\n      swap1\n      sub\n      0x64\n      add\n      swap1\n      revert\n    tag_316:\n        /* \"v2-periphery-master/contracts/UniswapV2Router01.sol\":4698:4710  address pair */\n      0x00\n        /* \"v2-periphery-master/contracts/UniswapV2Router01.sol\":4713:4762  UniswapV2Library.pairFor(factory, tokenA, tokenB) */\n      tag_318\n        /* \"v2-periphery-master/contracts/UniswapV2Router01.sol\":4738:4745  factory */\n      immutable(\"0x6085f6f924f4d3289e6bd2dcf255c34b40082df304bec05239cb2746d1d3eb0d\")\n        /* \"v2-periphery-master/contracts/UniswapV2Router01.sol\":4747:4753  tokenA */\n      dup13\n        /* \"v2-periphery-master/contracts/UniswapV2Router01.sol\":4755:4761  tokenB */\n      dup13\n        /* \"v2-periphery-master/contracts/UniswapV2Router01.sol\":4713:4737  UniswapV2Library.pairFor */\n      tag_175\n        /* \"v2-periphery-master/contracts/UniswapV2Router01.sol\":4713:4762  UniswapV2Library.pairFor(factory, tokenA, tokenB) */\n      jump\t// in\n    tag_318:\n        /* \"v2-periphery-master/contracts/UniswapV2Router01.sol\":4772:4834  IUniswapV2Pair(pair).transferFrom(msg.sender, pair, liquidity) */\n      0x40\n      dup1\n      mload\n      shl(0xe0, 0x23b872dd)\n      dup2\n      mstore\n        /* \"v2-periphery-master/contracts/UniswapV2Router01.sol\":4806:4816  msg.sender */\n      caller\n        /* \"v2-periphery-master/contracts/UniswapV2Router01.sol\":4772:4834  IUniswapV2Pair(pair).transferFrom(msg.sender, pair, liquidity) */\n      0x04\n      dup3\n      add\n      mstore\n      sub(shl(0xa0, 0x01), 0x01)\n        /* \"v2-periphery-master/contracts/UniswapV2Router01.sol\":4772:4805  IUniswapV2Pair(pair).transferFrom */\n      dup4\n      and\n        /* \"v2-periphery-master/contracts/UniswapV2Router01.sol\":4772:4834  IUniswapV2Pair(pair).transferFrom(msg.sender, pair, liquidity) */\n      0x24\n      dup3\n      add\n      dup2\n      swap1\n      mstore\n      0x44\n      dup3\n      add\n      dup14\n      swap1\n      mstore\n      swap2\n      mload\n        /* \"v2-periphery-master/contracts/UniswapV2Router01.sol\":4698:4762  address pair = UniswapV2Library.pairFor(factory, tokenA, tokenB) */\n      swap3\n      swap4\n      pop\n        /* \"v2-periphery-master/contracts/UniswapV2Router01.sol\":4772:4805  IUniswapV2Pair(pair).transferFrom */\n      swap1\n      swap2\n      0x23b872dd\n      swap2\n        /* \"v2-periphery-master/contracts/UniswapV2Router01.sol\":4772:4834  IUniswapV2Pair(pair).transferFrom(msg.sender, pair, liquidity) */\n      0x64\n      dup1\n      dup3\n      add\n      swap3\n      0x20\n      swap3\n      swap1\n      swap2\n      swap1\n      dup3\n      swap1\n      sub\n      add\n      dup2\n      0x00\n        /* \"v2-periphery-master/contracts/UniswapV2Router01.sol\":4772:4805  IUniswapV2Pair(pair).transferFrom */\n      dup8\n        /* \"v2-periphery-master/contracts/UniswapV2Router01.sol\":4772:4834  IUniswapV2Pair(pair).transferFrom(msg.sender, pair, liquidity) */\n      dup1\n      extcodesize\n      iszero\n        /* \"--CODEGEN--\":2:4   */\n      dup1\n      iszero\n      tag_319\n      jumpi\n        /* \"--CODEGEN--\":27:28   */\n      0x00\n        /* \"--CODEGEN--\":24:25   */\n      dup1\n        /* \"--CODEGEN--\":17:29   */\n      revert\n        /* \"--CODEGEN--\":2:4   */\n    tag_319:\n        /* \"v2-periphery-master/contracts/UniswapV2Router01.sol\":4772:4834  IUniswapV2Pair(pair).transferFrom(msg.sender, pair, liquidity) */\n      pop\n      gas\n      call\n      iszero\n        /* \"--CODEGEN--\":8:17   */\n      dup1\n        /* \"--CODEGEN--\":5:7   */\n      iszero\n      tag_321\n      jumpi\n        /* \"--CODEGEN--\":45:61   */\n      returndatasize\n        /* \"--CODEGEN--\":42:43   */\n      0x00\n        /* \"--CODEGEN--\":39:40   */\n      dup1\n        /* \"--CODEGEN--\":24:62   */\n      returndatacopy\n        /* \"--CODEGEN--\":77:93   */\n      returndatasize\n        /* \"--CODEGEN--\":74:75   */\n      0x00\n        /* \"--CODEGEN--\":67:94   */\n      revert\n        /* \"--CODEGEN--\":5:7   */\n    tag_321:\n        /* \"v2-periphery-master/contracts/UniswapV2Router01.sol\":4772:4834  IUniswapV2Pair(pair).transferFrom(msg.sender, pair, liquidity) */\n      pop\n      pop\n      pop\n      pop\n      mload(0x40)\n      returndatasize\n        /* \"--CODEGEN--\":15:17   */\n      0x20\n        /* \"--CODEGEN--\":10:13   */\n      dup2\n        /* \"--CODEGEN--\":7:18   */\n      lt\n        /* \"--CODEGEN--\":4:6   */\n      iszero\n      tag_322\n      jumpi\n        /* \"--CODEGEN--\":31:32   */\n      0x00\n        /* \"--CODEGEN--\":28:29   */\n      dup1\n        /* \"--CODEGEN--\":21:33   */\n      revert\n        /* \"--CODEGEN--\":4:6   */\n    tag_322:\n      pop\n      pop\n        /* \"v2-periphery-master/contracts/UniswapV2Router01.sol\":4901:4930  IUniswapV2Pair(pair).burn(to) */\n      0x40\n      dup1\n      mload\n      shl(0xe2, 0x226bf2d1)\n      dup2\n      mstore\n      sub(shl(0xa0, 0x01), 0x01)\n      dup9\n      dup2\n      and\n      0x04\n      dup4\n      add\n      mstore\n      dup3\n      mload\n        /* \"v2-periphery-master/contracts/UniswapV2Router01.sol\":4871:4883  uint amount0 */\n      0x00\n      swap4\n      dup5\n      swap4\n        /* \"v2-periphery-master/contracts/UniswapV2Router01.sol\":4901:4926  IUniswapV2Pair(pair).burn */\n      swap3\n      dup7\n      and\n      swap3\n      0x89afcb44\n      swap3\n        /* \"v2-periphery-master/contracts/UniswapV2Router01.sol\":4901:4930  IUniswapV2Pair(pair).burn(to) */\n      0x24\n      dup1\n      dup4\n      add\n      swap4\n      swap3\n      dup3\n      swap1\n      sub\n      add\n      dup2\n        /* \"v2-periphery-master/contracts/UniswapV2Router01.sol\":4871:4883  uint amount0 */\n      dup8\n        /* \"v2-periphery-master/contracts/UniswapV2Router01.sol\":4901:4926  IUniswapV2Pair(pair).burn */\n      dup8\n        /* \"v2-periphery-master/contracts/UniswapV2Router01.sol\":4901:4930  IUniswapV2Pair(pair).burn(to) */\n      dup1\n      extcodesize\n      iszero\n        /* \"--CODEGEN--\":2:4   */\n      dup1\n      iszero\n      tag_323\n      jumpi\n        /* \"--CODEGEN--\":27:28   */\n      0x00\n        /* \"--CODEGEN--\":24:25   */\n      dup1\n        /* \"--CODEGEN--\":17:29   */\n      revert\n        /* \"--CODEGEN--\":2:4   */\n    tag_323:\n        /* \"v2-periphery-master/contracts/UniswapV2Router01.sol\":4901:4930  IUniswapV2Pair(pair).burn(to) */\n      pop\n      gas\n      call\n      iszero\n        /* \"--CODEGEN--\":8:17   */\n      dup1\n        /* \"--CODEGEN--\":5:7   */\n      iszero\n      tag_325\n      jumpi\n        /* \"--CODEGEN--\":45:61   */\n      returndatasize\n        /* \"--CODEGEN--\":42:43   */\n      0x00\n        /* \"--CODEGEN--\":39:40   */\n      dup1\n        /* \"--CODEGEN--\":24:62   */\n      returndatacopy\n        /* \"--CODEGEN--\":77:93   */\n      returndatasize\n        /* \"--CODEGEN--\":74:75   */\n      0x00\n        /* \"--CODEGEN--\":67:94   */\n      revert\n        /* \"--CODEGEN--\":5:7   */\n    tag_325:\n        /* \"v2-periphery-master/contracts/UniswapV2Router01.sol\":4901:4930  IUniswapV2Pair(pair).burn(to) */\n      pop\n      pop\n      pop\n      pop\n      mload(0x40)\n      returndatasize\n        /* \"--CODEGEN--\":15:17   */\n      0x40\n        /* \"--CODEGEN--\":10:13   */\n      dup2\n        /* \"--CODEGEN--\":7:18   */\n      lt\n        /* \"--CODEGEN--\":4:6   */\n      iszero\n      tag_326\n      jumpi\n        /* \"--CODEGEN--\":31:32   */\n      0x00\n        /* \"--CODEGEN--\":28:29   */\n      dup1\n        /* \"--CODEGEN--\":21:33   */\n      revert\n        /* \"--CODEGEN--\":4:6   */\n    tag_326:\n      pop\n        /* \"v2-periphery-master/contracts/UniswapV2Router01.sol\":4901:4930  IUniswapV2Pair(pair).burn(to) */\n      dup1\n      mload\n      0x20\n      swap1\n      swap2\n      add\n      mload\n      swap1\n      swap3\n      pop\n      swap1\n      pop\n        /* \"v2-periphery-master/contracts/UniswapV2Router01.sol\":4941:4955  address token0 */\n      0x00\n        /* \"v2-periphery-master/contracts/UniswapV2Router01.sol\":4960:5003  UniswapV2Library.sortTokens(tokenA, tokenB) */\n      tag_327\n        /* \"v2-periphery-master/contracts/UniswapV2Router01.sol\":4988:4994  tokenA */\n      dup15\n        /* \"v2-periphery-master/contracts/UniswapV2Router01.sol\":4996:5002  tokenB */\n      dup15\n        /* \"v2-periphery-master/contracts/UniswapV2Router01.sol\":4960:4987  UniswapV2Library.sortTokens */\n      tag_328\n        /* \"v2-periphery-master/contracts/UniswapV2Router01.sol\":4960:5003  UniswapV2Library.sortTokens(tokenA, tokenB) */\n      jump\t// in\n    tag_327:\n        /* \"v2-periphery-master/contracts/UniswapV2Router01.sol\":4940:5003  (address token0,) = UniswapV2Library.sortTokens(tokenA, tokenB) */\n      pop\n      swap1\n      pop\n        /* \"v2-periphery-master/contracts/UniswapV2Router01.sol\":5044:5050  token0 */\n      dup1\n      sub(shl(0xa0, 0x01), 0x01)\n        /* \"v2-periphery-master/contracts/UniswapV2Router01.sol\":5034:5050  tokenA == token0 */\n      and\n        /* \"v2-periphery-master/contracts/UniswapV2Router01.sol\":5034:5040  tokenA */\n      dup15\n      sub(shl(0xa0, 0x01), 0x01)\n        /* \"v2-periphery-master/contracts/UniswapV2Router01.sol\":5034:5050  tokenA == token0 */\n      and\n      eq\n        /* \"v2-periphery-master/contracts/UniswapV2Router01.sol\":5034:5092  tokenA == token0 ? (amount0, amount1) : (amount1, amount0) */\n      tag_329\n      jumpi\n        /* \"v2-periphery-master/contracts/UniswapV2Router01.sol\":5075:5082  amount1 */\n      dup2\n        /* \"v2-periphery-master/contracts/UniswapV2Router01.sol\":5084:5091  amount0 */\n      dup4\n        /* \"v2-periphery-master/contracts/UniswapV2Router01.sol\":5034:5092  tokenA == token0 ? (amount0, amount1) : (amount1, amount0) */\n      jump(tag_330)\n    tag_329:\n        /* \"v2-periphery-master/contracts/UniswapV2Router01.sol\":5054:5061  amount0 */\n      dup3\n        /* \"v2-periphery-master/contracts/UniswapV2Router01.sol\":5063:5070  amount1 */\n      dup3\n        /* \"v2-periphery-master/contracts/UniswapV2Router01.sol\":5034:5092  tokenA == token0 ? (amount0, amount1) : (amount1, amount0) */\n    tag_330:\n        /* \"v2-periphery-master/contracts/UniswapV2Router01.sol\":5013:5092  (amountA, amountB) = tokenA == token0 ? (amount0, amount1) : (amount1, amount0) */\n      swap1\n      swap8\n      pop\n      swap6\n      pop\n        /* \"v2-periphery-master/contracts/UniswapV2Router01.sol\":5110:5131  amountA >= amountAMin */\n      dup11\n      dup8\n      lt\n      iszero\n        /* \"v2-periphery-master/contracts/UniswapV2Router01.sol\":5102:5174  require(amountA >= amountAMin, 'UniswapV2Router: INSUFFICIENT_A_AMOUNT') */\n      tag_331\n      jumpi\n      mload(0x40)\n      shl(0xe5, 0x461bcd)\n      dup2\n      mstore\n      0x04\n      add\n      dup1\n      dup1\n      0x20\n      add\n      dup3\n      dup2\n      sub\n      dup3\n      mstore\n      0x26\n      dup2\n      mstore\n      0x20\n      add\n      dup1\n      data_d1d32edc232bc1da2150d590567c5d6321ade8a80edcd2485e6068d018c7fd67\n      0x26\n      swap2\n      codecopy\n      0x40\n      add\n      swap2\n      pop\n      pop\n      mload(0x40)\n      dup1\n      swap2\n      sub\n      swap1\n      revert\n    tag_331:\n        /* \"v2-periphery-master/contracts/UniswapV2Router01.sol\":5203:5213  amountBMin */\n      dup10\n        /* \"v2-periphery-master/contracts/UniswapV2Router01.sol\":5192:5199  amountB */\n      dup7\n        /* \"v2-periphery-master/contracts/UniswapV2Router01.sol\":5192:5213  amountB >= amountBMin */\n      lt\n      iszero\n        /* \"v2-periphery-master/contracts/UniswapV2Router01.sol\":5184:5256  require(amountB >= amountBMin, 'UniswapV2Router: INSUFFICIENT_B_AMOUNT') */\n      tag_332\n      jumpi\n      mload(0x40)\n      shl(0xe5, 0x461bcd)\n      dup2\n      mstore\n      0x04\n      add\n      dup1\n      dup1\n      0x20\n      add\n      dup3\n      dup2\n      sub\n      dup3\n      mstore\n      0x26\n      dup2\n      mstore\n      0x20\n      add\n      dup1\n      data_508673fa99dd55571c7741114b40754785309d1a2171022cd7c5caaae38fc7b6\n      0x26\n      swap2\n      codecopy\n      0x40\n      add\n      swap2\n      pop\n      pop\n      mload(0x40)\n      dup1\n      swap2\n      sub\n      swap1\n      revert\n    tag_332:\n        /* \"v2-periphery-master/contracts/UniswapV2Router01.sol\":577:578  _ */\n      pop\n      pop\n      pop\n      pop\n        /* \"v2-periphery-master/contracts/UniswapV2Router01.sol\":4422:5263  function removeLiquidity(... */\n      pop\n      swap8\n      pop\n      swap8\n      swap6\n      pop\n      pop\n      pop\n      pop\n      pop\n      pop\n      jump\t// out\n        /* \"v2-periphery-master/contracts/UniswapV2Router01.sol\":370:411  address public immutable override factory */\n    tag_123:\n      immutable(\"0x6085f6f924f4d3289e6bd2dcf255c34b40082df304bec05239cb2746d1d3eb0d\")\n      dup2\n      jump\t// out\n        /* \"v2-periphery-master/contracts/UniswapV2Router01.sol\":12809:13002  function getAmountsOut(uint amountIn, address[] memory path) public view override returns (uint[] memory amounts) {... */\n    tag_130:\n        /* \"v2-periphery-master/contracts/UniswapV2Router01.sol\":12900:12921  uint[] memory amounts */\n      0x60\n        /* \"v2-periphery-master/contracts/UniswapV2Router01.sol\":12940:12995  UniswapV2Library.getAmountsOut(factory, amountIn, path) */\n      tag_187\n        /* \"v2-periphery-master/contracts/UniswapV2Router01.sol\":12971:12978  factory */\n      immutable(\"0x6085f6f924f4d3289e6bd2dcf255c34b40082df304bec05239cb2746d1d3eb0d\")\n        /* \"v2-periphery-master/contracts/UniswapV2Router01.sol\":12980:12988  amountIn */\n      dup5\n        /* \"v2-periphery-master/contracts/UniswapV2Router01.sol\":12990:12994  path */\n      dup5\n        /* \"v2-periphery-master/contracts/UniswapV2Router01.sol\":12940:12970  UniswapV2Library.getAmountsOut */\n      tag_167\n        /* \"v2-periphery-master/contracts/UniswapV2Router01.sol\":12940:12995  UniswapV2Library.getAmountsOut(factory, amountIn, path) */\n      jump\t// in\n        /* \"v2-periphery-master/contracts/UniswapV2Router01.sol\":6578:7226  function removeLiquidityETHWithPermit(... */\n    tag_137:\n        /* \"v2-periphery-master/contracts/UniswapV2Router01.sol\":6851:6867  uint amountToken */\n      0x00\n        /* \"v2-periphery-master/contracts/UniswapV2Router01.sol\":6869:6883  uint amountETH */\n      dup1\n        /* \"v2-periphery-master/contracts/UniswapV2Router01.sol\":6895:6907  address pair */\n      0x00\n        /* \"v2-periphery-master/contracts/UniswapV2Router01.sol\":6910:6956  UniswapV2Library.pairFor(factory, token, WETH) */\n      tag_336\n        /* \"v2-periphery-master/contracts/UniswapV2Router01.sol\":6935:6942  factory */\n      immutable(\"0x6085f6f924f4d3289e6bd2dcf255c34b40082df304bec05239cb2746d1d3eb0d\")\n        /* \"v2-periphery-master/contracts/UniswapV2Router01.sol\":6944:6949  token */\n      dup15\n        /* \"v2-periphery-master/contracts/UniswapV2Router01.sol\":6951:6955  WETH */\n      immutable(\"0xa5325ff0f63e0b147eb82a60c572e47fb617bbfb06095783ede1fdcec882b479\")\n        /* \"v2-periphery-master/contracts/UniswapV2Router01.sol\":6910:6934  UniswapV2Library.pairFor */\n      tag_175\n        /* \"v2-periphery-master/contracts/UniswapV2Router01.sol\":6910:6956  UniswapV2Library.pairFor(factory, token, WETH) */\n      jump\t// in\n    tag_336:\n        /* \"v2-periphery-master/contracts/UniswapV2Router01.sol\":6895:6956  address pair = UniswapV2Library.pairFor(factory, token, WETH) */\n      swap1\n      pop\n        /* \"v2-periphery-master/contracts/UniswapV2Router01.sol\":6966:6976  uint value */\n      0x00\n        /* \"v2-periphery-master/contracts/UniswapV2Router01.sol\":6979:6989  approveMax */\n      dup8\n        /* \"v2-periphery-master/contracts/UniswapV2Router01.sol\":6979:7012  approveMax ? uint(-1) : liquidity */\n      tag_337\n      jumpi\n        /* \"v2-periphery-master/contracts/UniswapV2Router01.sol\":7003:7012  liquidity */\n      dup13\n        /* \"v2-periphery-master/contracts/UniswapV2Router01.sol\":6979:7012  approveMax ? uint(-1) : liquidity */\n      jump(tag_338)\n    tag_337:\n      not(0x00)\n    tag_338:\n        /* \"v2-periphery-master/contracts/UniswapV2Router01.sol\":7022:7102  IUniswapV2Pair(pair).permit(msg.sender, address(this), value, deadline, v, r, s) */\n      0x40\n      dup1\n      mload\n      shl(0xe0, 0xd505accf)\n      dup2\n      mstore\n        /* \"v2-periphery-master/contracts/UniswapV2Router01.sol\":7050:7060  msg.sender */\n      caller\n        /* \"v2-periphery-master/contracts/UniswapV2Router01.sol\":7022:7102  IUniswapV2Pair(pair).permit(msg.sender, address(this), value, deadline, v, r, s) */\n      0x04\n      dup3\n      add\n      mstore\n        /* \"v2-periphery-master/contracts/UniswapV2Router01.sol\":7070:7074  this */\n      address\n        /* \"v2-periphery-master/contracts/UniswapV2Router01.sol\":7022:7102  IUniswapV2Pair(pair).permit(msg.sender, address(this), value, deadline, v, r, s) */\n      0x24\n      dup3\n      add\n      mstore\n      0x44\n      dup2\n      add\n      dup4\n      swap1\n      mstore\n      0x64\n      dup2\n      add\n      dup13\n      swap1\n      mstore\n      0xff\n      dup11\n      and\n      0x84\n      dup3\n      add\n      mstore\n      0xa4\n      dup2\n      add\n      dup10\n      swap1\n      mstore\n      0xc4\n      dup2\n      add\n      dup9\n      swap1\n      mstore\n      swap1\n      mload\n        /* \"v2-periphery-master/contracts/UniswapV2Router01.sol\":6966:7012  uint value = approveMax ? uint(-1) : liquidity */\n      swap2\n      swap3\n      pop\n      sub(shl(0xa0, 0x01), 0x01)\n        /* \"v2-periphery-master/contracts/UniswapV2Router01.sol\":7022:7049  IUniswapV2Pair(pair).permit */\n      dup5\n      and\n      swap2\n      0xd505accf\n      swap2\n        /* \"v2-periphery-master/contracts/UniswapV2Router01.sol\":7022:7102  IUniswapV2Pair(pair).permit(msg.sender, address(this), value, deadline, v, r, s) */\n      0xe4\n      dup1\n      dup3\n      add\n      swap3\n      0x00\n      swap3\n      swap1\n      swap2\n      swap1\n      dup3\n      swap1\n      sub\n      add\n      dup2\n      dup4\n        /* \"v2-periphery-master/contracts/UniswapV2Router01.sol\":7022:7049  IUniswapV2Pair(pair).permit */\n      dup8\n        /* \"v2-periphery-master/contracts/UniswapV2Router01.sol\":7022:7102  IUniswapV2Pair(pair).permit(msg.sender, address(this), value, deadline, v, r, s) */\n      dup1\n      extcodesize\n      iszero\n        /* \"--CODEGEN--\":2:4   */\n      dup1\n      iszero\n      tag_339\n      jumpi\n        /* \"--CODEGEN--\":27:28   */\n      0x00\n        /* \"--CODEGEN--\":24:25   */\n      dup1\n        /* \"--CODEGEN--\":17:29   */\n      revert\n        /* \"--CODEGEN--\":2:4   */\n    tag_339:\n        /* \"v2-periphery-master/contracts/UniswapV2Router01.sol\":7022:7102  IUniswapV2Pair(pair).permit(msg.sender, address(this), value, deadline, v, r, s) */\n      pop\n      gas\n      call\n      iszero\n        /* \"--CODEGEN--\":8:17   */\n      dup1\n        /* \"--CODEGEN--\":5:7   */\n      iszero\n      tag_341\n      jumpi\n        /* \"--CODEGEN--\":45:61   */\n      returndatasize\n        /* \"--CODEGEN--\":42:43   */\n      0x00\n        /* \"--CODEGEN--\":39:40   */\n      dup1\n        /* \"--CODEGEN--\":24:62   */\n      returndatacopy\n        /* \"--CODEGEN--\":77:93   */\n      returndatasize\n        /* \"--CODEGEN--\":74:75   */\n      0x00\n        /* \"--CODEGEN--\":67:94   */\n      revert\n        /* \"--CODEGEN--\":5:7   */\n    tag_341:\n        /* \"v2-periphery-master/contracts/UniswapV2Router01.sol\":7022:7102  IUniswapV2Pair(pair).permit(msg.sender, address(this), value, deadline, v, r, s) */\n      pop\n      pop\n      pop\n      pop\n        /* \"v2-periphery-master/contracts/UniswapV2Router01.sol\":7139:7219  removeLiquidityETH(token, liquidity, amountTokenMin, amountETHMin, to, deadline) */\n      tag_342\n        /* \"v2-periphery-master/contracts/UniswapV2Router01.sol\":7158:7163  token */\n      dup15\n        /* \"v2-periphery-master/contracts/UniswapV2Router01.sol\":7165:7174  liquidity */\n      dup15\n        /* \"v2-periphery-master/contracts/UniswapV2Router01.sol\":7176:7190  amountTokenMin */\n      dup15\n        /* \"v2-periphery-master/contracts/UniswapV2Router01.sol\":7192:7204  amountETHMin */\n      dup15\n        /* \"v2-periphery-master/contracts/UniswapV2Router01.sol\":7206:7208  to */\n      dup15\n        /* \"v2-periphery-master/contracts/UniswapV2Router01.sol\":7210:7218  deadline */\n      dup15\n        /* \"v2-periphery-master/contracts/UniswapV2Router01.sol\":7139:7157  removeLiquidityETH */\n      tag_31\n        /* \"v2-periphery-master/contracts/UniswapV2Router01.sol\":7139:7219  removeLiquidityETH(token, liquidity, amountTokenMin, amountETHMin, to, deadline) */\n      jump\t// in\n    tag_342:\n        /* \"v2-periphery-master/contracts/UniswapV2Router01.sol\":7112:7219  (amountToken, amountETH) = removeLiquidityETH(token, liquidity, amountTokenMin, amountETHMin, to, deadline) */\n      swap1\n      swap16\n      swap1\n      swap15\n      pop\n        /* \"v2-periphery-master/contracts/UniswapV2Router01.sol\":6578:7226  function removeLiquidityETHWithPermit(... */\n      swap13\n      pop\n      pop\n      pop\n      pop\n      pop\n      pop\n      pop\n      pop\n      pop\n      pop\n      pop\n      pop\n      pop\n      jump\t// out\n        /* \"v2-periphery-master/contracts/UniswapV2Router01.sol\":11433:12203  function swapETHForExactTokens(uint amountOut, address[] calldata path, address to, uint deadline)... */\n    tag_143:\n        /* \"v2-periphery-master/contracts/UniswapV2Router01.sol\":11624:11645  uint[] memory amounts */\n      0x60\n        /* \"v2-periphery-master/contracts/UniswapV2Router01.sol\":11597:11605  deadline */\n      dup2\n        /* \"v2-periphery-master/contracts/UniswapV2Router01.sol\":523:538  block.timestamp */\n      timestamp\n        /* \"v2-periphery-master/contracts/UniswapV2Router01.sol\":511:519  deadline */\n      dup2\n        /* \"v2-periphery-master/contracts/UniswapV2Router01.sol\":511:538  deadline >= block.timestamp */\n      lt\n      iszero\n        /* \"v2-periphery-master/contracts/UniswapV2Router01.sol\":503:567  require(deadline >= block.timestamp, 'UniswapV2Router: EXPIRED') */\n      tag_344\n      jumpi\n      0x40\n      dup1\n      mload\n      shl(0xe5, 0x461bcd)\n      dup2\n      mstore\n      0x20\n      0x04\n      dup3\n      add\n      mstore\n      0x18\n      0x24\n      dup3\n      add\n      mstore\n      0x00\n      dup1\n      mload\n      0x20\n      data_ee5734acb032ffb1bbaf889d52ccf9fbd1ce0f1ae12bee2c46068d51b910e2c5\n      dup4\n      codecopy\n      dup2\n      mload\n      swap2\n      mstore\n      0x44\n      dup3\n      add\n      mstore\n      swap1\n      mload\n      swap1\n      dup2\n      swap1\n      sub\n      0x64\n      add\n      swap1\n      revert\n    tag_344:\n        /* \"v2-periphery-master/contracts/UniswapV2Router01.sol\":11680:11684  WETH */\n      immutable(\"0xa5325ff0f63e0b147eb82a60c572e47fb617bbfb06095783ede1fdcec882b479\")\n      sub(shl(0xa0, 0x01), 0x01)\n        /* \"v2-periphery-master/contracts/UniswapV2Router01.sol\":11669:11684  path[0] == WETH */\n      and\n        /* \"v2-periphery-master/contracts/UniswapV2Router01.sol\":11669:11673  path */\n      dup7\n      dup7\n        /* \"v2-periphery-master/contracts/UniswapV2Router01.sol\":11674:11675  0 */\n      0x00\n        /* \"v2-periphery-master/contracts/UniswapV2Router01.sol\":11669:11676  path[0] */\n      dup2\n      dup2\n      lt\n      tag_346\n      jumpi\n      invalid\n    tag_346:\n      swap1\n      pop\n      0x20\n      mul\n      add\n      calldataload\n      sub(shl(0xa0, 0x01), 0x01)\n      and\n      sub(shl(0xa0, 0x01), 0x01)\n        /* \"v2-periphery-master/contracts/UniswapV2Router01.sol\":11669:11684  path[0] == WETH */\n      and\n      eq\n        /* \"v2-periphery-master/contracts/UniswapV2Router01.sol\":11661:11718  require(path[0] == WETH, 'UniswapV2Router: INVALID_PATH') */\n      tag_347\n      jumpi\n      0x40\n      dup1\n      mload\n      shl(0xe5, 0x461bcd)\n      dup2\n      mstore\n      0x20\n      0x04\n      dup3\n      add\n      mstore\n      0x1d\n      0x24\n      dup3\n      add\n      mstore\n      0x00\n      dup1\n      mload\n      0x20\n      data_c80e789ddaeb930b746bbbcb3afe8331d926679fd96f65d8c7468b735c0a14f2\n      dup4\n      codecopy\n      dup2\n      mload\n      swap2\n      mstore\n      0x44\n      dup3\n      add\n      mstore\n      swap1\n      mload\n      swap1\n      dup2\n      swap1\n      sub\n      0x64\n      add\n      swap1\n      revert\n    tag_347:\n        /* \"v2-periphery-master/contracts/UniswapV2Router01.sol\":11738:11793  UniswapV2Library.getAmountsIn(factory, amountOut, path) */\n      tag_348\n        /* \"v2-periphery-master/contracts/UniswapV2Router01.sol\":11768:11775  factory */\n      immutable(\"0x6085f6f924f4d3289e6bd2dcf255c34b40082df304bec05239cb2746d1d3eb0d\")\n        /* \"v2-periphery-master/contracts/UniswapV2Router01.sol\":11777:11786  amountOut */\n      dup9\n        /* \"v2-periphery-master/contracts/UniswapV2Router01.sol\":11788:11792  path */\n      dup9\n      dup9\n        /* \"v2-periphery-master/contracts/UniswapV2Router01.sol\":11738:11793  UniswapV2Library.getAmountsIn(factory, amountOut, path) */\n      dup1\n      dup1\n      0x20\n      mul\n      0x20\n      add\n      mload(0x40)\n      swap1\n      dup2\n      add\n      0x40\n      mstore\n      dup1\n      swap4\n      swap3\n      swap2\n      swap1\n      dup2\n      dup2\n      mstore\n      0x20\n      add\n      dup4\n      dup4\n      0x20\n      mul\n        /* \"--CODEGEN--\":30:33   */\n      dup1\n        /* \"--CODEGEN--\":22:28   */\n      dup3\n        /* \"--CODEGEN--\":14:20   */\n      dup5\n        /* \"--CODEGEN--\":1:34   */\n      calldatacopy\n        /* \"--CODEGEN--\":99:100   */\n      0x00\n        /* \"--CODEGEN--\":81:97   */\n      swap3\n      add\n        /* \"--CODEGEN--\":74:101   */\n      swap2\n      swap1\n      swap2\n      mstore\n      pop\n        /* \"v2-periphery-master/contracts/UniswapV2Router01.sol\":11738:11767  UniswapV2Library.getAmountsIn */\n      tag_188\n      swap3\n      pop\n      pop\n      pop\n        /* \"v2-periphery-master/contracts/UniswapV2Router01.sol\":11738:11793  UniswapV2Library.getAmountsIn(factory, amountOut, path) */\n      jump\t// in\n    tag_348:\n        /* \"v2-periphery-master/contracts/UniswapV2Router01.sol\":11728:11793  amounts = UniswapV2Library.getAmountsIn(factory, amountOut, path) */\n      swap2\n      pop\n        /* \"v2-periphery-master/contracts/UniswapV2Router01.sol\":11825:11834  msg.value */\n      callvalue\n        /* \"v2-periphery-master/contracts/UniswapV2Router01.sol\":11811:11818  amounts */\n      dup3\n        /* \"v2-periphery-master/contracts/UniswapV2Router01.sol\":11819:11820  0 */\n      0x00\n        /* \"v2-periphery-master/contracts/UniswapV2Router01.sol\":11811:11821  amounts[0] */\n      dup2\n      mload\n      dup2\n      lt\n      tag_349\n      jumpi\n      invalid\n    tag_349:\n      0x20\n      mul\n      0x20\n      add\n      add\n      mload\n        /* \"v2-periphery-master/contracts/UniswapV2Router01.sol\":11811:11834  amounts[0] <= msg.value */\n      gt\n      iszero\n        /* \"v2-periphery-master/contracts/UniswapV2Router01.sol\":11803:11878  require(amounts[0] <= msg.value, 'UniswapV2Router: EXCESSIVE_INPUT_AMOUNT') */\n      tag_350\n      jumpi\n      mload(0x40)\n      shl(0xe5, 0x461bcd)\n      dup2\n      mstore\n      0x04\n      add\n      dup1\n      dup1\n      0x20\n      add\n      dup3\n      dup2\n      sub\n      dup3\n      mstore\n      0x27\n      dup2\n      mstore\n      0x20\n      add\n      dup1\n      data_bb18004cd22eaad7ea393d184ea6ac1df1428db36bb6fbff8af486232d68ae2c\n      0x27\n      swap2\n      codecopy\n      0x40\n      add\n      swap2\n      pop\n      pop\n      mload(0x40)\n      dup1\n      swap2\n      sub\n      swap1\n      revert\n    tag_350:\n        /* \"v2-periphery-master/contracts/UniswapV2Router01.sol\":11894:11898  WETH */\n      immutable(\"0xa5325ff0f63e0b147eb82a60c572e47fb617bbfb06095783ede1fdcec882b479\")\n      sub(shl(0xa0, 0x01), 0x01)\n        /* \"v2-periphery-master/contracts/UniswapV2Router01.sol\":11888:11907  IWETH(WETH).deposit */\n      and\n      0xd0e30db0\n        /* \"v2-periphery-master/contracts/UniswapV2Router01.sol\":11915:11922  amounts */\n      dup4\n        /* \"v2-periphery-master/contracts/UniswapV2Router01.sol\":11923:11924  0 */\n      0x00\n        /* \"v2-periphery-master/contracts/UniswapV2Router01.sol\":11915:11925  amounts[0] */\n      dup2\n      mload\n      dup2\n      lt\n      tag_351\n      jumpi\n      invalid\n    tag_351:\n      0x20\n      mul\n      0x20\n      add\n      add\n      mload\n        /* \"v2-periphery-master/contracts/UniswapV2Router01.sol\":11888:11928  IWETH(WETH).deposit{value: amounts[0]}() */\n      mload(0x40)\n      dup3\n      0xffffffff\n      and\n      0xe0\n      shl\n      dup2\n      mstore\n      0x04\n      add\n      0x00\n      mload(0x40)\n      dup1\n      dup4\n      sub\n      dup2\n      dup6\n      dup9\n      dup1\n      extcodesize\n      iszero\n        /* \"--CODEGEN--\":5:14   */\n      dup1\n        /* \"--CODEGEN--\":2:4   */\n      iszero\n      tag_352\n      jumpi\n        /* \"--CODEGEN--\":27:28   */\n      0x00\n        /* \"--CODEGEN--\":24:25   */\n      dup1\n        /* \"--CODEGEN--\":17:29   */\n      revert\n        /* \"--CODEGEN--\":2:4   */\n    tag_352:\n        /* \"v2-periphery-master/contracts/UniswapV2Router01.sol\":11888:11928  IWETH(WETH).deposit{value: amounts[0]}() */\n      pop\n      gas\n      call\n      iszero\n        /* \"--CODEGEN--\":8:17   */\n      dup1\n        /* \"--CODEGEN--\":5:7   */\n      iszero\n      tag_354\n      jumpi\n        /* \"--CODEGEN--\":45:61   */\n      returndatasize\n        /* \"--CODEGEN--\":42:43   */\n      0x00\n        /* \"--CODEGEN--\":39:40   */\n      dup1\n        /* \"--CODEGEN--\":24:62   */\n      returndatacopy\n        /* \"--CODEGEN--\":77:93   */\n      returndatasize\n        /* \"--CODEGEN--\":74:75   */\n      0x00\n        /* \"--CODEGEN--\":67:94   */\n      revert\n        /* \"--CODEGEN--\":5:7   */\n    tag_354:\n        /* \"v2-periphery-master/contracts/UniswapV2Router01.sol\":11888:11928  IWETH(WETH).deposit{value: amounts[0]}() */\n      pop\n      pop\n      pop\n      pop\n      pop\n        /* \"v2-periphery-master/contracts/UniswapV2Router01.sol\":11951:11955  WETH */\n      immutable(\"0xa5325ff0f63e0b147eb82a60c572e47fb617bbfb06095783ede1fdcec882b479\")\n      sub(shl(0xa0, 0x01), 0x01)\n        /* \"v2-periphery-master/contracts/UniswapV2Router01.sol\":11945:11965  IWETH(WETH).transfer */\n      and\n      0xa9059cbb\n        /* \"v2-periphery-master/contracts/UniswapV2Router01.sol\":11966:12017  UniswapV2Library.pairFor(factory, path[0], path[1]) */\n      tag_355\n        /* \"v2-periphery-master/contracts/UniswapV2Router01.sol\":11991:11998  factory */\n      immutable(\"0x6085f6f924f4d3289e6bd2dcf255c34b40082df304bec05239cb2746d1d3eb0d\")\n        /* \"v2-periphery-master/contracts/UniswapV2Router01.sol\":12000:12004  path */\n      dup10\n      dup10\n        /* \"v2-periphery-master/contracts/UniswapV2Router01.sol\":12005:12006  0 */\n      0x00\n        /* \"v2-periphery-master/contracts/UniswapV2Router01.sol\":12000:12007  path[0] */\n      dup2\n      dup2\n      lt\n      tag_271\n      jumpi\n      invalid\n        /* \"v2-periphery-master/contracts/UniswapV2Router01.sol\":11966:12017  UniswapV2Library.pairFor(factory, path[0], path[1]) */\n    tag_355:\n        /* \"v2-periphery-master/contracts/UniswapV2Router01.sol\":12019:12026  amounts */\n      dup5\n        /* \"v2-periphery-master/contracts/UniswapV2Router01.sol\":12027:12028  0 */\n      0x00\n        /* \"v2-periphery-master/contracts/UniswapV2Router01.sol\":12019:12029  amounts[0] */\n      dup2\n      mload\n      dup2\n      lt\n      tag_358\n      jumpi\n      invalid\n    tag_358:\n      0x20\n      mul\n      0x20\n      add\n      add\n      mload\n        /* \"v2-periphery-master/contracts/UniswapV2Router01.sol\":11945:12030  IWETH(WETH).transfer(UniswapV2Library.pairFor(factory, path[0], path[1]), amounts[0]) */\n      mload(0x40)\n      dup4\n      0xffffffff\n      and\n      0xe0\n      shl\n      dup2\n      mstore\n      0x04\n      add\n      dup1\n      dup4\n      sub(shl(0xa0, 0x01), 0x01)\n      and\n      sub(shl(0xa0, 0x01), 0x01)\n      and\n      dup2\n      mstore\n      0x20\n      add\n      dup3\n      dup2\n      mstore\n      0x20\n      add\n      swap3\n      pop\n      pop\n      pop\n      0x20\n      mload(0x40)\n      dup1\n      dup4\n      sub\n      dup2\n      0x00\n      dup8\n      dup1\n      extcodesize\n      iszero\n        /* \"--CODEGEN--\":5:14   */\n      dup1\n        /* \"--CODEGEN--\":2:4   */\n      iszero\n      tag_359\n      jumpi\n        /* \"--CODEGEN--\":27:28   */\n      0x00\n        /* \"--CODEGEN--\":24:25   */\n      dup1\n        /* \"--CODEGEN--\":17:29   */\n      revert\n        /* \"--CODEGEN--\":2:4   */\n    tag_359:\n        /* \"v2-periphery-master/contracts/UniswapV2Router01.sol\":11945:12030  IWETH(WETH).transfer(UniswapV2Library.pairFor(factory, path[0], path[1]), amounts[0]) */\n      pop\n      gas\n      call\n      iszero\n        /* \"--CODEGEN--\":8:17   */\n      dup1\n        /* \"--CODEGEN--\":5:7   */\n      iszero\n      tag_361\n      jumpi\n        /* \"--CODEGEN--\":45:61   */\n      returndatasize\n        /* \"--CODEGEN--\":42:43   */\n      0x00\n        /* \"--CODEGEN--\":39:40   */\n      dup1\n        /* \"--CODEGEN--\":24:62   */\n      returndatacopy\n        /* \"--CODEGEN--\":77:93   */\n      returndatasize\n        /* \"--CODEGEN--\":74:75   */\n      0x00\n        /* \"--CODEGEN--\":67:94   */\n      revert\n        /* \"--CODEGEN--\":5:7   */\n    tag_361:\n        /* \"v2-periphery-master/contracts/UniswapV2Router01.sol\":11945:12030  IWETH(WETH).transfer(UniswapV2Library.pairFor(factory, path[0], path[1]), amounts[0]) */\n      pop\n      pop\n      pop\n      pop\n      mload(0x40)\n      returndatasize\n        /* \"--CODEGEN--\":15:17   */\n      0x20\n        /* \"--CODEGEN--\":10:13   */\n      dup2\n        /* \"--CODEGEN--\":7:18   */\n      lt\n        /* \"--CODEGEN--\":4:6   */\n      iszero\n      tag_362\n      jumpi\n        /* \"--CODEGEN--\":31:32   */\n      0x00\n        /* \"--CODEGEN--\":28:29   */\n      dup1\n        /* \"--CODEGEN--\":21:33   */\n      revert\n        /* \"--CODEGEN--\":4:6   */\n    tag_362:\n      pop\n        /* \"v2-periphery-master/contracts/UniswapV2Router01.sol\":11945:12030  IWETH(WETH).transfer(UniswapV2Library.pairFor(factory, path[0], path[1]), amounts[0]) */\n      mload\n        /* \"v2-periphery-master/contracts/UniswapV2Router01.sol\":11938:12031  assert(IWETH(WETH).transfer(UniswapV2Library.pairFor(factory, path[0], path[1]), amounts[0])) */\n      tag_363\n      jumpi\n      invalid\n    tag_363:\n        /* \"v2-periphery-master/contracts/UniswapV2Router01.sol\":12041:12065  _swap(amounts, path, to) */\n      tag_364\n        /* \"v2-periphery-master/contracts/UniswapV2Router01.sol\":12047:12054  amounts */\n      dup3\n        /* \"v2-periphery-master/contracts/UniswapV2Router01.sol\":12056:12060  path */\n      dup8\n      dup8\n        /* \"v2-periphery-master/contracts/UniswapV2Router01.sol\":12041:12065  _swap(amounts, path, to) */\n      dup1\n      dup1\n      0x20\n      mul\n      0x20\n      add\n      mload(0x40)\n      swap1\n      dup2\n      add\n      0x40\n      mstore\n      dup1\n      swap4\n      swap3\n      swap2\n      swap1\n      dup2\n      dup2\n      mstore\n      0x20\n      add\n      dup4\n      dup4\n      0x20\n      mul\n        /* \"--CODEGEN--\":30:33   */\n      dup1\n        /* \"--CODEGEN--\":22:28   */\n      dup3\n        /* \"--CODEGEN--\":14:20   */\n      dup5\n        /* \"--CODEGEN--\":1:34   */\n      calldatacopy\n        /* \"--CODEGEN--\":99:100   */\n      0x00\n        /* \"--CODEGEN--\":81:97   */\n      swap3\n      add\n        /* \"--CODEGEN--\":74:101   */\n      swap2\n      swap1\n      swap2\n      mstore\n      pop\n        /* \"v2-periphery-master/contracts/UniswapV2Router01.sol\":12062:12064  to */\n      dup10\n      swap3\n      pop\n        /* \"v2-periphery-master/contracts/UniswapV2Router01.sol\":12041:12046  _swap */\n      tag_179\n      swap2\n      pop\n      pop\n        /* \"v2-periphery-master/contracts/UniswapV2Router01.sol\":12041:12065  _swap(amounts, path, to) */\n      jump\t// in\n    tag_364:\n        /* \"v2-periphery-master/contracts/UniswapV2Router01.sol\":12091:12098  amounts */\n      dup2\n        /* \"v2-periphery-master/contracts/UniswapV2Router01.sol\":12099:12100  0 */\n      0x00\n        /* \"v2-periphery-master/contracts/UniswapV2Router01.sol\":12091:12101  amounts[0] */\n      dup2\n      mload\n      dup2\n      lt\n      tag_365\n      jumpi\n      invalid\n    tag_365:\n      0x20\n      mul\n      0x20\n      add\n      add\n      mload\n        /* \"v2-periphery-master/contracts/UniswapV2Router01.sol\":12079:12088  msg.value */\n      callvalue\n        /* \"v2-periphery-master/contracts/UniswapV2Router01.sol\":12079:12101  msg.value > amounts[0] */\n      gt\n        /* \"v2-periphery-master/contracts/UniswapV2Router01.sol\":12075:12169  if (msg.value > amounts[0]) TransferHelper.safeTransferETH(msg.sender, msg.value - amounts[0]) */\n      iszero\n      tag_279\n      jumpi\n        /* \"v2-periphery-master/contracts/UniswapV2Router01.sol\":12103:12169  TransferHelper.safeTransferETH(msg.sender, msg.value - amounts[0]) */\n      tag_279\n        /* \"v2-periphery-master/contracts/UniswapV2Router01.sol\":12134:12144  msg.sender */\n      caller\n        /* \"v2-periphery-master/contracts/UniswapV2Router01.sol\":12158:12165  amounts */\n      dup4\n        /* \"v2-periphery-master/contracts/UniswapV2Router01.sol\":12166:12167  0 */\n      0x00\n        /* \"v2-periphery-master/contracts/UniswapV2Router01.sol\":12158:12168  amounts[0] */\n      dup2\n      mload\n      dup2\n      lt\n      tag_368\n      jumpi\n      invalid\n    tag_368:\n      0x20\n      mul\n      0x20\n      add\n      add\n      mload\n        /* \"v2-periphery-master/contracts/UniswapV2Router01.sol\":12146:12155  msg.value */\n      callvalue\n        /* \"v2-periphery-master/contracts/UniswapV2Router01.sol\":12146:12168  msg.value - amounts[0] */\n      sub\n        /* \"v2-periphery-master/contracts/UniswapV2Router01.sol\":12103:12133  TransferHelper.safeTransferETH */\n      tag_157\n        /* \"v2-periphery-master/contracts/UniswapV2Router01.sol\":12103:12169  TransferHelper.safeTransferETH(msg.sender, msg.value - amounts[0]) */\n      jump\t// in\n        /* \"@uniswap/lib/contracts/libraries/TransferHelper.sol\":652:1090  function safeTransfer(... */\n    tag_152:\n        /* \"@uniswap/lib/contracts/libraries/TransferHelper.sol\":878:923  abi.encodeWithSelector(0xa9059cbb, to, value) */\n      0x40\n      dup1\n      mload\n      sub(shl(0xa0, 0x01), 0x01)\n      dup5\n      dup2\n      and\n      0x24\n      dup4\n      add\n      mstore\n      0x44\n      dup1\n      dup4\n      add\n      dup6\n      swap1\n      mstore\n      dup4\n      mload\n        /* \"--CODEGEN--\":26:47   */\n      dup1\n      dup5\n      sub\n        /* \"--CODEGEN--\":22:54   */\n      swap1\n      swap2\n      add\n        /* \"--CODEGEN--\":6:55   */\n      dup2\n      mstore\n        /* \"@uniswap/lib/contracts/libraries/TransferHelper.sol\":878:923  abi.encodeWithSelector(0xa9059cbb, to, value) */\n      0x64\n      swap1\n      swap3\n      add\n      dup4\n      mstore\n      0x20\n        /* \"--CODEGEN--\":25:43   */\n      dup3\n      add\n        /* \"--CODEGEN--\":61:78   */\n      dup1\n      mload\n      sub(shl(0xe0, 0x01), 0x01)\n        /* \"--CODEGEN--\":182:197   */\n      and\n      shl(0xe0, 0xa9059cbb)\n        /* \"--CODEGEN--\":179:208   */\n      or\n        /* \"--CODEGEN--\":160:209   */\n      dup2\n      mstore\n        /* \"@uniswap/lib/contracts/libraries/TransferHelper.sol\":867:924  token.call(abi.encodeWithSelector(0xa9059cbb, to, value)) */\n      swap3\n      mload\n      dup3\n      mload\n        /* \"@uniswap/lib/contracts/libraries/TransferHelper.sol\":832:844  bool success */\n      0x00\n      swap5\n        /* \"@uniswap/lib/contracts/libraries/TransferHelper.sol\":846:863  bytes memory data */\n      0x60\n      swap5\n        /* \"@uniswap/lib/contracts/libraries/TransferHelper.sol\":867:877  token.call */\n      swap4\n      dup10\n      and\n      swap4\n        /* \"@uniswap/lib/contracts/libraries/TransferHelper.sol\":878:923  abi.encodeWithSelector(0xa9059cbb, to, value) */\n      swap3\n        /* \"@uniswap/lib/contracts/libraries/TransferHelper.sol\":867:924  token.call(abi.encodeWithSelector(0xa9059cbb, to, value)) */\n      swap2\n      dup3\n      swap2\n        /* \"--CODEGEN--\":25:43   */\n      swap1\n        /* \"@uniswap/lib/contracts/libraries/TransferHelper.sol\":867:924  token.call(abi.encodeWithSelector(0xa9059cbb, to, value)) */\n      dup1\n      dup4\n        /* \"--CODEGEN--\":25:43   */\n      dup4\n        /* \"--CODEGEN--\":36:189   */\n    tag_370:\n        /* \"--CODEGEN--\":66:68   */\n      0x20\n        /* \"--CODEGEN--\":61:64   */\n      dup4\n        /* \"--CODEGEN--\":58:69   */\n      lt\n        /* \"--CODEGEN--\":36:189   */\n      tag_372\n      jumpi\n        /* \"--CODEGEN--\":176:186   */\n      dup1\n      mload\n        /* \"--CODEGEN--\":164:187   */\n      dup3\n      mstore\n      not(0x1f)\n        /* \"--CODEGEN--\":139:151   */\n      swap1\n      swap3\n      add\n      swap2\n        /* \"--CODEGEN--\":98:100   */\n      0x20\n        /* \"--CODEGEN--\":89:101   */\n      swap2\n      dup3\n      add\n      swap2\n        /* \"--CODEGEN--\":114:126   */\n      add\n        /* \"--CODEGEN--\":36:189   */\n      jump(tag_370)\n    tag_372:\n        /* \"--CODEGEN--\":274:275   */\n      0x01\n        /* \"--CODEGEN--\":267:270   */\n      dup4\n        /* \"--CODEGEN--\":263:265   */\n      0x20\n        /* \"--CODEGEN--\":259:271   */\n      sub\n        /* \"--CODEGEN--\":254:257   */\n      0x0100\n        /* \"--CODEGEN--\":250:272   */\n      exp\n        /* \"--CODEGEN--\":246:276   */\n      sub\n        /* \"--CODEGEN--\":315:319   */\n      dup1\n        /* \"--CODEGEN--\":311:320   */\n      not\n        /* \"--CODEGEN--\":305:308   */\n      dup3\n        /* \"--CODEGEN--\":299:309   */\n      mload\n        /* \"--CODEGEN--\":295:321   */\n      and\n        /* \"--CODEGEN--\":356:360   */\n      dup2\n        /* \"--CODEGEN--\":350:353   */\n      dup5\n        /* \"--CODEGEN--\":344:354   */\n      mload\n        /* \"--CODEGEN--\":340:361   */\n      and\n        /* \"--CODEGEN--\":389:396   */\n      dup1\n        /* \"--CODEGEN--\":380:387   */\n      dup3\n        /* \"--CODEGEN--\":377:397   */\n      or\n        /* \"--CODEGEN--\":372:375   */\n      dup6\n        /* \"--CODEGEN--\":365:398   */\n      mstore\n        /* \"--CODEGEN--\":3:402   */\n      pop\n      pop\n      pop\n        /* \"@uniswap/lib/contracts/libraries/TransferHelper.sol\":867:924  token.call(abi.encodeWithSelector(0xa9059cbb, to, value)) */\n      pop\n      pop\n      pop\n      swap1\n      pop\n      add\n      swap2\n      pop\n      pop\n      0x00\n      mload(0x40)\n      dup1\n      dup4\n      sub\n      dup2\n      0x00\n      dup7\n      gas\n      call\n      swap2\n      pop\n      pop\n      returndatasize\n        /* \"--CODEGEN--\":12:13   */\n      dup1\n        /* \"--CODEGEN--\":19:20   */\n      0x00\n        /* \"--CODEGEN--\":14:41   */\n      dup2\n      eq\n      tag_375\n      jumpi\n        /* \"--CODEGEN--\":67:71   */\n      0x40\n        /* \"--CODEGEN--\":61:72   */\n      mload\n        /* \"--CODEGEN--\":56:72   */\n      swap2\n      pop\n        /* \"--CODEGEN--\":134:138   */\n      0x1f\n        /* \"--CODEGEN--\":130:139   */\n      not\n        /* \"--CODEGEN--\":123:127   */\n      0x3f\n        /* \"--CODEGEN--\":105:121   */\n      returndatasize\n        /* \"--CODEGEN--\":101:128   */\n      add\n        /* \"--CODEGEN--\":97:140   */\n      and\n        /* \"--CODEGEN--\":94:95   */\n      dup3\n        /* \"--CODEGEN--\":90:141   */\n      add\n        /* \"--CODEGEN--\":84:88   */\n      0x40\n        /* \"--CODEGEN--\":77:142   */\n      mstore\n        /* \"--CODEGEN--\":157:173   */\n      returndatasize\n        /* \"--CODEGEN--\":154:155   */\n      dup3\n        /* \"--CODEGEN--\":147:174   */\n      mstore\n        /* \"--CODEGEN--\":211:227   */\n      returndatasize\n        /* \"--CODEGEN--\":208:209   */\n      0x00\n        /* \"--CODEGEN--\":201:205   */\n      0x20\n        /* \"--CODEGEN--\":198:199   */\n      dup5\n        /* \"--CODEGEN--\":194:206   */\n      add\n        /* \"--CODEGEN--\":179:228   */\n      returndatacopy\n        /* \"--CODEGEN--\":5:233   */\n      jump(tag_374)\n        /* \"--CODEGEN--\":14:41   */\n    tag_375:\n        /* \"--CODEGEN--\":32:36   */\n      0x60\n        /* \"--CODEGEN--\":27:36   */\n      swap2\n      pop\n        /* \"--CODEGEN--\":5:233   */\n    tag_374:\n      pop\n        /* \"@uniswap/lib/contracts/libraries/TransferHelper.sol\":831:924  (bool success, bytes memory data) = token.call(abi.encodeWithSelector(0xa9059cbb, to, value)) */\n      swap2\n      pop\n      swap2\n      pop\n        /* \"@uniswap/lib/contracts/libraries/TransferHelper.sol\":955:962  success */\n      dup2\n        /* \"@uniswap/lib/contracts/libraries/TransferHelper.sol\":955:1012  success && (data.length == 0 || abi.decode(data, (bool))) */\n      dup1\n      iszero\n      tag_377\n      jumpi\n      pop\n        /* \"@uniswap/lib/contracts/libraries/TransferHelper.sol\":967:978  data.length */\n      dup1\n      mload\n        /* \"@uniswap/lib/contracts/libraries/TransferHelper.sol\":967:983  data.length == 0 */\n      iszero\n      dup1\n        /* \"@uniswap/lib/contracts/libraries/TransferHelper.sol\":967:1011  data.length == 0 || abi.decode(data, (bool)) */\n      tag_377\n      jumpi\n      pop\n        /* \"@uniswap/lib/contracts/libraries/TransferHelper.sol\":998:1002  data */\n      dup1\n        /* \"@uniswap/lib/contracts/libraries/TransferHelper.sol\":987:1011  abi.decode(data, (bool)) */\n      dup1\n      0x20\n      add\n      swap1\n      mload\n        /* \"--CODEGEN--\":15:17   */\n      0x20\n        /* \"--CODEGEN--\":10:13   */\n      dup2\n        /* \"--CODEGEN--\":7:18   */\n      lt\n        /* \"--CODEGEN--\":4:6   */\n      iszero\n      tag_378\n      jumpi\n        /* \"--CODEGEN--\":31:32   */\n      0x00\n        /* \"--CODEGEN--\":28:29   */\n      dup1\n        /* \"--CODEGEN--\":21:33   */\n      revert\n        /* \"--CODEGEN--\":4:6   */\n    tag_378:\n      pop\n        /* \"@uniswap/lib/contracts/libraries/TransferHelper.sol\":987:1011  abi.decode(data, (bool)) */\n      mload\n        /* \"@uniswap/lib/contracts/libraries/TransferHelper.sol\":967:1011  data.length == 0 || abi.decode(data, (bool)) */\n    tag_377:\n        /* \"@uniswap/lib/contracts/libraries/TransferHelper.sol\":934:1083  require(... */\n      tag_379\n      jumpi\n      mload(0x40)\n      shl(0xe5, 0x461bcd)\n      dup2\n      mstore\n      0x04\n      add\n      dup1\n      dup1\n      0x20\n      add\n      dup3\n      dup2\n      sub\n      dup3\n      mstore\n      0x2d\n      dup2\n      mstore\n      0x20\n      add\n      dup1\n      data_daea69421eeb1164e163c36f3d4349f0db3ec4e0d1381bd5bf4faf53496c2611\n      0x2d\n      swap2\n      codecopy\n      0x40\n      add\n      swap2\n      pop\n      pop\n      mload(0x40)\n      dup1\n      swap2\n      sub\n      swap1\n      revert\n    tag_379:\n        /* \"@uniswap/lib/contracts/libraries/TransferHelper.sol\":652:1090  function safeTransfer(... */\n      pop\n      pop\n      pop\n      pop\n      pop\n      jump\t// out\n        /* \"@uniswap/lib/contracts/libraries/TransferHelper.sol\":1588:1802  function safeTransferETH(address to, uint256 value) internal {... */\n    tag_157:\n        /* \"@uniswap/lib/contracts/libraries/TransferHelper.sol\":1700:1712  new bytes(0) */\n      0x40\n      dup1\n      mload\n        /* \"@uniswap/lib/contracts/libraries/TransferHelper.sol\":1660:1672  bool success */\n      0x00\n        /* \"@uniswap/lib/contracts/libraries/TransferHelper.sol\":1700:1712  new bytes(0) */\n      dup1\n      dup3\n      mstore\n      0x20\n      dup3\n      add\n      swap1\n      swap3\n      mstore\n      sub(shl(0xa0, 0x01), 0x01)\n        /* \"@uniswap/lib/contracts/libraries/TransferHelper.sol\":1678:1685  to.call */\n      dup5\n      and\n      swap1\n        /* \"@uniswap/lib/contracts/libraries/TransferHelper.sol\":1693:1698  value */\n      dup4\n      swap1\n        /* \"@uniswap/lib/contracts/libraries/TransferHelper.sol\":1678:1713  to.call{value: value}(new bytes(0)) */\n      mload(0x40)\n      dup1\n      dup3\n      dup1\n      mload\n      swap1\n      0x20\n      add\n      swap1\n      dup1\n      dup4\n      dup4\n        /* \"--CODEGEN--\":36:189   */\n    tag_383:\n        /* \"--CODEGEN--\":66:68   */\n      0x20\n        /* \"--CODEGEN--\":61:64   */\n      dup4\n        /* \"--CODEGEN--\":58:69   */\n      lt\n        /* \"--CODEGEN--\":36:189   */\n      tag_385\n      jumpi\n        /* \"--CODEGEN--\":176:186   */\n      dup1\n      mload\n        /* \"--CODEGEN--\":164:187   */\n      dup3\n      mstore\n      not(0x1f)\n        /* \"--CODEGEN--\":139:151   */\n      swap1\n      swap3\n      add\n      swap2\n        /* \"--CODEGEN--\":98:100   */\n      0x20\n        /* \"--CODEGEN--\":89:101   */\n      swap2\n      dup3\n      add\n      swap2\n        /* \"--CODEGEN--\":114:126   */\n      add\n        /* \"--CODEGEN--\":36:189   */\n      jump(tag_383)\n    tag_385:\n        /* \"--CODEGEN--\":274:275   */\n      0x01\n        /* \"--CODEGEN--\":267:270   */\n      dup4\n        /* \"--CODEGEN--\":263:265   */\n      0x20\n        /* \"--CODEGEN--\":259:271   */\n      sub\n        /* \"--CODEGEN--\":254:257   */\n      0x0100\n        /* \"--CODEGEN--\":250:272   */\n      exp\n        /* \"--CODEGEN--\":246:276   */\n      sub\n        /* \"--CODEGEN--\":315:319   */\n      dup1\n        /* \"--CODEGEN--\":311:320   */\n      not\n        /* \"--CODEGEN--\":305:308   */\n      dup3\n        /* \"--CODEGEN--\":299:309   */\n      mload\n        /* \"--CODEGEN--\":295:321   */\n      and\n        /* \"--CODEGEN--\":356:360   */\n      dup2\n        /* \"--CODEGEN--\":350:353   */\n      dup5\n        /* \"--CODEGEN--\":344:354   */\n      mload\n        /* \"--CODEGEN--\":340:361   */\n      and\n        /* \"--CODEGEN--\":389:396   */\n      dup1\n        /* \"--CODEGEN--\":380:387   */\n      dup3\n        /* \"--CODEGEN--\":377:397   */\n      or\n        /* \"--CODEGEN--\":372:375   */\n      dup6\n        /* \"--CODEGEN--\":365:398   */\n      mstore\n        /* \"--CODEGEN--\":3:402   */\n      pop\n      pop\n      pop\n        /* \"@uniswap/lib/contracts/libraries/TransferHelper.sol\":1678:1713  to.call{value: value}(new bytes(0)) */\n      pop\n      pop\n      pop\n      swap1\n      pop\n      add\n      swap2\n      pop\n      pop\n      0x00\n      mload(0x40)\n      dup1\n      dup4\n      sub\n      dup2\n      dup6\n      dup8\n      gas\n      call\n      swap3\n      pop\n      pop\n      pop\n      returndatasize\n        /* \"--CODEGEN--\":12:13   */\n      dup1\n        /* \"--CODEGEN--\":19:20   */\n      0x00\n        /* \"--CODEGEN--\":14:41   */\n      dup2\n      eq\n      tag_388\n      jumpi\n        /* \"--CODEGEN--\":67:71   */\n      0x40\n        /* \"--CODEGEN--\":61:72   */\n      mload\n        /* \"--CODEGEN--\":56:72   */\n      swap2\n      pop\n        /* \"--CODEGEN--\":134:138   */\n      0x1f\n        /* \"--CODEGEN--\":130:139   */\n      not\n        /* \"--CODEGEN--\":123:127   */\n      0x3f\n        /* \"--CODEGEN--\":105:121   */\n      returndatasize\n        /* \"--CODEGEN--\":101:128   */\n      add\n        /* \"--CODEGEN--\":97:140   */\n      and\n        /* \"--CODEGEN--\":94:95   */\n      dup3\n        /* \"--CODEGEN--\":90:141   */\n      add\n        /* \"--CODEGEN--\":84:88   */\n      0x40\n        /* \"--CODEGEN--\":77:142   */\n      mstore\n        /* \"--CODEGEN--\":157:173   */\n      returndatasize\n        /* \"--CODEGEN--\":154:155   */\n      dup3\n        /* \"--CODEGEN--\":147:174   */\n      mstore\n        /* \"--CODEGEN--\":211:227   */\n      returndatasize\n        /* \"--CODEGEN--\":208:209   */\n      0x00\n        /* \"--CODEGEN--\":201:205   */\n      0x20\n        /* \"--CODEGEN--\":198:199   */\n      dup5\n        /* \"--CODEGEN--\":194:206   */\n      add\n        /* \"--CODEGEN--\":179:228   */\n      returndatacopy\n        /* \"--CODEGEN--\":5:233   */\n      jump(tag_387)\n        /* \"--CODEGEN--\":14:41   */\n    tag_388:\n        /* \"--CODEGEN--\":32:36   */\n      0x60\n        /* \"--CODEGEN--\":27:36   */\n      swap2\n      pop\n        /* \"--CODEGEN--\":5:233   */\n    tag_387:\n      pop\n        /* \"@uniswap/lib/contracts/libraries/TransferHelper.sol\":1659:1713  (bool success, ) = to.call{value: value}(new bytes(0)) */\n      pop\n      swap1\n      pop\n        /* \"@uniswap/lib/contracts/libraries/TransferHelper.sol\":1731:1738  success */\n      dup1\n        /* \"@uniswap/lib/contracts/libraries/TransferHelper.sol\":1723:1795  require(success, 'TransferHelper::safeTransferETH: ETH transfer failed') */\n      tag_389\n      jumpi\n      mload(0x40)\n      shl(0xe5, 0x461bcd)\n      dup2\n      mstore\n      0x04\n      add\n      dup1\n      dup1\n      0x20\n      add\n      dup3\n      dup2\n      sub\n      dup3\n      mstore\n      0x34\n      dup2\n      mstore\n      0x20\n      add\n      dup1\n      data_43d7bec223ecf9eb06ea147e7d564bc71c2448662d62a4ea86ce71fc4518b350\n      0x34\n      swap2\n      codecopy\n      0x40\n      add\n      swap2\n      pop\n      pop\n      mload(0x40)\n      dup1\n      swap2\n      sub\n      swap1\n      revert\n    tag_389:\n        /* \"@uniswap/lib/contracts/libraries/TransferHelper.sol\":1588:1802  function safeTransferETH(address to, uint256 value) internal {... */\n      pop\n      pop\n      pop\n      jump\t// out\n        /* \"v2-periphery-master/contracts/libraries/UniswapV2Library.sol\":2369:2879  function getAmountOut(uint amountIn, uint reserveIn, uint reserveOut) internal pure returns (uint amountOut) {... */\n    tag_160:\n        /* \"v2-periphery-master/contracts/libraries/UniswapV2Library.sol\":2462:2476  uint amountOut */\n      0x00\n        /* \"v2-periphery-master/contracts/libraries/UniswapV2Library.sol\":2507:2508  0 */\n      dup1\n        /* \"v2-periphery-master/contracts/libraries/UniswapV2Library.sol\":2496:2504  amountIn */\n      dup5\n        /* \"v2-periphery-master/contracts/libraries/UniswapV2Library.sol\":2496:2508  amountIn > 0 */\n      gt\n        /* \"v2-periphery-master/contracts/libraries/UniswapV2Library.sol\":2488:2556  require(amountIn > 0, 'UniswapV2Library: INSUFFICIENT_INPUT_AMOUNT') */\n      tag_391\n      jumpi\n      mload(0x40)\n      shl(0xe5, 0x461bcd)\n      dup2\n      mstore\n      0x04\n      add\n      dup1\n      dup1\n      0x20\n      add\n      dup3\n      dup2\n      sub\n      dup3\n      mstore\n      0x2b\n      dup2\n      mstore\n      0x20\n      add\n      dup1\n      data_ec21b006eb37ef20d0f4abcabd34de6854fa68af48294244e0263dc05c1dbbae\n      0x2b\n      swap2\n      codecopy\n      0x40\n      add\n      swap2\n      pop\n      pop\n      mload(0x40)\n      dup1\n      swap2\n      sub\n      swap1\n      revert\n    tag_391:\n        /* \"v2-periphery-master/contracts/libraries/UniswapV2Library.sol\":2586:2587  0 */\n      0x00\n        /* \"v2-periphery-master/contracts/libraries/UniswapV2Library.sol\":2574:2583  reserveIn */\n      dup4\n        /* \"v2-periphery-master/contracts/libraries/UniswapV2Library.sol\":2574:2587  reserveIn > 0 */\n      gt\n        /* \"v2-periphery-master/contracts/libraries/UniswapV2Library.sol\":2574:2605  reserveIn > 0 && reserveOut > 0 */\n      dup1\n      iszero\n      tag_392\n      jumpi\n      pop\n        /* \"v2-periphery-master/contracts/libraries/UniswapV2Library.sol\":2604:2605  0 */\n      0x00\n        /* \"v2-periphery-master/contracts/libraries/UniswapV2Library.sol\":2591:2601  reserveOut */\n      dup3\n        /* \"v2-periphery-master/contracts/libraries/UniswapV2Library.sol\":2591:2605  reserveOut > 0 */\n      gt\n        /* \"v2-periphery-master/contracts/libraries/UniswapV2Library.sol\":2574:2605  reserveIn > 0 && reserveOut > 0 */\n    tag_392:\n        /* \"v2-periphery-master/contracts/libraries/UniswapV2Library.sol\":2566:2650  require(reserveIn > 0 && reserveOut > 0, 'UniswapV2Library: INSUFFICIENT_LIQUIDITY') */\n      tag_393\n      jumpi\n      mload(0x40)\n      shl(0xe5, 0x461bcd)\n      dup2\n      mstore\n      0x04\n      add\n      dup1\n      dup1\n      0x20\n      add\n      dup3\n      dup2\n      sub\n      dup3\n      mstore\n      0x28\n      dup2\n      mstore\n      0x20\n      add\n      dup1\n      data_7e8d6b265173dbbd87b3b9e2bf4238bea6caf2b2bbeb63f859a738aec9e761c8\n      0x28\n      swap2\n      codecopy\n      0x40\n      add\n      swap2\n      pop\n      pop\n      mload(0x40)\n      dup1\n      swap2\n      sub\n      swap1\n      revert\n    tag_393:\n        /* \"v2-periphery-master/contracts/libraries/UniswapV2Library.sol\":2660:2680  uint amountInWithFee */\n      0x00\n        /* \"v2-periphery-master/contracts/libraries/UniswapV2Library.sol\":2683:2700  amountIn.mul(997) */\n      tag_394\n        /* \"v2-periphery-master/contracts/libraries/UniswapV2Library.sol\":2683:2691  amountIn */\n      dup6\n        /* \"v2-periphery-master/contracts/libraries/UniswapV2Library.sol\":2696:2699  997 */\n      0x03e5\n        /* \"v2-periphery-master/contracts/libraries/UniswapV2Library.sol\":2683:2700  amountIn.mul(997) */\n      0xffffffff\n        /* \"v2-periphery-master/contracts/libraries/UniswapV2Library.sol\":2683:2695  amountIn.mul */\n      tag_395\n        /* \"v2-periphery-master/contracts/libraries/UniswapV2Library.sol\":2683:2700  amountIn.mul(997) */\n      and\n      jump\t// in\n    tag_394:\n        /* \"v2-periphery-master/contracts/libraries/UniswapV2Library.sol\":2660:2700  uint amountInWithFee = amountIn.mul(997) */\n      swap1\n      pop\n        /* \"v2-periphery-master/contracts/libraries/UniswapV2Library.sol\":2710:2724  uint numerator */\n      0x00\n        /* \"v2-periphery-master/contracts/libraries/UniswapV2Library.sol\":2727:2758  amountInWithFee.mul(reserveOut) */\n      tag_396\n        /* \"v2-periphery-master/contracts/libraries/UniswapV2Library.sol\":2660:2700  uint amountInWithFee = amountIn.mul(997) */\n      dup3\n        /* \"v2-periphery-master/contracts/libraries/UniswapV2Library.sol\":2747:2757  reserveOut */\n      dup6\n        /* \"v2-periphery-master/contracts/libraries/UniswapV2Library.sol\":2727:2758  amountInWithFee.mul(reserveOut) */\n      0xffffffff\n        /* \"v2-periphery-master/contracts/libraries/UniswapV2Library.sol\":2727:2746  amountInWithFee.mul */\n      tag_395\n        /* \"v2-periphery-master/contracts/libraries/UniswapV2Library.sol\":2727:2758  amountInWithFee.mul(reserveOut) */\n      and\n      jump\t// in\n    tag_396:\n        /* \"v2-periphery-master/contracts/libraries/UniswapV2Library.sol\":2710:2758  uint numerator = amountInWithFee.mul(reserveOut) */\n      swap1\n      pop\n        /* \"v2-periphery-master/contracts/libraries/UniswapV2Library.sol\":2768:2784  uint denominator */\n      0x00\n        /* \"v2-periphery-master/contracts/libraries/UniswapV2Library.sol\":2787:2827  reserveIn.mul(1000).add(amountInWithFee) */\n      tag_397\n        /* \"v2-periphery-master/contracts/libraries/UniswapV2Library.sol\":2811:2826  amountInWithFee */\n      dup4\n        /* \"v2-periphery-master/contracts/libraries/UniswapV2Library.sol\":2787:2806  reserveIn.mul(1000) */\n      tag_398\n        /* \"v2-periphery-master/contracts/libraries/UniswapV2Library.sol\":2787:2796  reserveIn */\n      dup9\n        /* \"v2-periphery-master/contracts/libraries/UniswapV2Library.sol\":2801:2805  1000 */\n      0x03e8\n        /* \"v2-periphery-master/contracts/libraries/UniswapV2Library.sol\":2787:2806  reserveIn.mul(1000) */\n      0xffffffff\n        /* \"v2-periphery-master/contracts/libraries/UniswapV2Library.sol\":2787:2800  reserveIn.mul */\n      tag_395\n        /* \"v2-periphery-master/contracts/libraries/UniswapV2Library.sol\":2787:2806  reserveIn.mul(1000) */\n      and\n      jump\t// in\n    tag_398:\n        /* \"v2-periphery-master/contracts/libraries/UniswapV2Library.sol\":2787:2810  reserveIn.mul(1000).add */\n      swap1\n        /* \"v2-periphery-master/contracts/libraries/UniswapV2Library.sol\":2787:2827  reserveIn.mul(1000).add(amountInWithFee) */\n      0xffffffff\n        /* \"v2-periphery-master/contracts/libraries/UniswapV2Library.sol\":2787:2810  reserveIn.mul(1000).add */\n      tag_399\n        /* \"v2-periphery-master/contracts/libraries/UniswapV2Library.sol\":2787:2827  reserveIn.mul(1000).add(amountInWithFee) */\n      and\n      jump\t// in\n    tag_397:\n        /* \"v2-periphery-master/contracts/libraries/UniswapV2Library.sol\":2768:2827  uint denominator = reserveIn.mul(1000).add(amountInWithFee) */\n      swap1\n      pop\n        /* \"v2-periphery-master/contracts/libraries/UniswapV2Library.sol\":2861:2872  denominator */\n      dup1\n        /* \"v2-periphery-master/contracts/libraries/UniswapV2Library.sol\":2849:2858  numerator */\n      dup3\n        /* \"v2-periphery-master/contracts/libraries/UniswapV2Library.sol\":2849:2872  numerator / denominator */\n      dup2\n      tag_400\n      jumpi\n      invalid\n    tag_400:\n      div\n      swap8\n        /* \"v2-periphery-master/contracts/libraries/UniswapV2Library.sol\":2369:2879  function getAmountOut(uint amountIn, uint reserveIn, uint reserveOut) internal pure returns (uint amountOut) {... */\n      swap7\n      pop\n      pop\n      pop\n      pop\n      pop\n      pop\n      pop\n      jump\t// out\n        /* \"v2-periphery-master/contracts/libraries/UniswapV2Library.sol\":3542:4075  function getAmountsOut(... */\n    tag_167:\n        /* \"v2-periphery-master/contracts/libraries/UniswapV2Library.sol\":3673:3694  uint[] memory amounts */\n      0x60\n        /* \"v2-periphery-master/contracts/libraries/UniswapV2Library.sol\":3729:3730  2 */\n      0x02\n        /* \"v2-periphery-master/contracts/libraries/UniswapV2Library.sol\":3714:3718  path */\n      dup3\n        /* \"v2-periphery-master/contracts/libraries/UniswapV2Library.sol\":3714:3725  path.length */\n      mload\n        /* \"v2-periphery-master/contracts/libraries/UniswapV2Library.sol\":3714:3730  path.length >= 2 */\n      lt\n      iszero\n        /* \"v2-periphery-master/contracts/libraries/UniswapV2Library.sol\":3706:3765  require(path.length >= 2, 'UniswapV2Library: INVALID_PATH') */\n      tag_402\n      jumpi\n      0x40\n      dup1\n      mload\n      shl(0xe5, 0x461bcd)\n      dup2\n      mstore\n      0x20\n      0x04\n      dup3\n      add\n      mstore\n      0x1e\n      0x24\n      dup3\n      add\n      mstore\n      0x556e697377617056324c6962726172793a20494e56414c49445f504154480000\n      0x44\n      dup3\n      add\n      mstore\n      swap1\n      mload\n      swap1\n      dup2\n      swap1\n      sub\n      0x64\n      add\n      swap1\n      revert\n    tag_402:\n        /* \"v2-periphery-master/contracts/libraries/UniswapV2Library.sol\":3796:3800  path */\n      dup2\n        /* \"v2-periphery-master/contracts/libraries/UniswapV2Library.sol\":3796:3807  path.length */\n      mload\n        /* \"v2-periphery-master/contracts/libraries/UniswapV2Library.sol\":3785:3808  new uint[](path.length) */\n      0xffffffffffffffff\n      dup2\n      gt\n        /* \"--CODEGEN--\":5:14   */\n      dup1\n        /* \"--CODEGEN--\":2:4   */\n      iszero\n      tag_403\n      jumpi\n        /* \"--CODEGEN--\":27:28   */\n      0x00\n        /* \"--CODEGEN--\":24:25   */\n      dup1\n        /* \"--CODEGEN--\":17:29   */\n      revert\n        /* \"--CODEGEN--\":2:4   */\n    tag_403:\n        /* \"v2-periphery-master/contracts/libraries/UniswapV2Library.sol\":3785:3808  new uint[](path.length) */\n      pop\n      mload(0x40)\n      swap1\n      dup1\n      dup3\n      mstore\n      dup1\n      0x20\n      mul\n      0x20\n      add\n      dup3\n      add\n      0x40\n      mstore\n      dup1\n      iszero\n      tag_404\n      jumpi\n      dup2\n      0x20\n      add\n        /* \"--CODEGEN--\":29:31   */\n      0x20\n        /* \"--CODEGEN--\":21:27   */\n      dup3\n        /* \"--CODEGEN--\":17:32   */\n      mul\n        /* \"--CODEGEN--\":125:129   */\n      dup1\n        /* \"--CODEGEN--\":109:123   */\n      calldatasize\n        /* \"--CODEGEN--\":101:107   */\n      dup4\n        /* \"--CODEGEN--\":88:130   */\n      calldatacopy\n        /* \"--CODEGEN--\":144:161   */\n      add\n      swap1\n      pop\n        /* \"v2-periphery-master/contracts/libraries/UniswapV2Library.sol\":3785:3808  new uint[](path.length) */\n    tag_404:\n      pop\n        /* \"v2-periphery-master/contracts/libraries/UniswapV2Library.sol\":3775:3808  amounts = new uint[](path.length) */\n      swap1\n      pop\n        /* \"v2-periphery-master/contracts/libraries/UniswapV2Library.sol\":3831:3839  amountIn */\n      dup3\n        /* \"v2-periphery-master/contracts/libraries/UniswapV2Library.sol\":3818:3825  amounts */\n      dup2\n        /* \"v2-periphery-master/contracts/libraries/UniswapV2Library.sol\":3826:3827  0 */\n      0x00\n        /* \"v2-periphery-master/contracts/libraries/UniswapV2Library.sol\":3818:3828  amounts[0] */\n      dup2\n      mload\n      dup2\n      lt\n      tag_405\n      jumpi\n      invalid\n    tag_405:\n      0x20\n      mul\n      0x20\n      add\n      add\n        /* \"v2-periphery-master/contracts/libraries/UniswapV2Library.sol\":3818:3839  amounts[0] = amountIn */\n      dup2\n      dup2\n      mstore\n      pop\n      pop\n        /* \"v2-periphery-master/contracts/libraries/UniswapV2Library.sol\":3854:3860  uint i */\n      0x00\n        /* \"v2-periphery-master/contracts/libraries/UniswapV2Library.sol\":3849:4069  for (uint i; i < path.length - 1; i++) {... */\n    tag_406:\n        /* \"v2-periphery-master/contracts/libraries/UniswapV2Library.sol\":3880:3881  1 */\n      0x01\n        /* \"v2-periphery-master/contracts/libraries/UniswapV2Library.sol\":3866:3870  path */\n      dup4\n        /* \"v2-periphery-master/contracts/libraries/UniswapV2Library.sol\":3866:3877  path.length */\n      mload\n        /* \"v2-periphery-master/contracts/libraries/UniswapV2Library.sol\":3866:3881  path.length - 1 */\n      sub\n        /* \"v2-periphery-master/contracts/libraries/UniswapV2Library.sol\":3862:3863  i */\n      dup2\n        /* \"v2-periphery-master/contracts/libraries/UniswapV2Library.sol\":3862:3881  i < path.length - 1 */\n      lt\n        /* \"v2-periphery-master/contracts/libraries/UniswapV2Library.sol\":3849:4069  for (uint i; i < path.length - 1; i++) {... */\n      iszero\n      tag_407\n      jumpi\n        /* \"v2-periphery-master/contracts/libraries/UniswapV2Library.sol\":3903:3917  uint reserveIn */\n      0x00\n        /* \"v2-periphery-master/contracts/libraries/UniswapV2Library.sol\":3919:3934  uint reserveOut */\n      dup1\n        /* \"v2-periphery-master/contracts/libraries/UniswapV2Library.sol\":3938:3980  getReserves(factory, path[i], path[i + 1]) */\n      tag_409\n        /* \"v2-periphery-master/contracts/libraries/UniswapV2Library.sol\":3950:3957  factory */\n      dup8\n        /* \"v2-periphery-master/contracts/libraries/UniswapV2Library.sol\":3959:3963  path */\n      dup7\n        /* \"v2-periphery-master/contracts/libraries/UniswapV2Library.sol\":3964:3965  i */\n      dup6\n        /* \"v2-periphery-master/contracts/libraries/UniswapV2Library.sol\":3959:3966  path[i] */\n      dup2\n      mload\n      dup2\n      lt\n      tag_410\n      jumpi\n      invalid\n    tag_410:\n      0x20\n      mul\n      0x20\n      add\n      add\n      mload\n        /* \"v2-periphery-master/contracts/libraries/UniswapV2Library.sol\":3968:3972  path */\n      dup8\n        /* \"v2-periphery-master/contracts/libraries/UniswapV2Library.sol\":3973:3974  i */\n      dup7\n        /* \"v2-periphery-master/contracts/libraries/UniswapV2Library.sol\":3977:3978  1 */\n      0x01\n        /* \"v2-periphery-master/contracts/libraries/UniswapV2Library.sol\":3973:3978  i + 1 */\n      add\n        /* \"v2-periphery-master/contracts/libraries/UniswapV2Library.sol\":3968:3979  path[i + 1] */\n      dup2\n      mload\n      dup2\n      lt\n      tag_411\n      jumpi\n      invalid\n    tag_411:\n      0x20\n      mul\n      0x20\n      add\n      add\n      mload\n        /* \"v2-periphery-master/contracts/libraries/UniswapV2Library.sol\":3938:3949  getReserves */\n      tag_412\n        /* \"v2-periphery-master/contracts/libraries/UniswapV2Library.sol\":3938:3980  getReserves(factory, path[i], path[i + 1]) */\n      jump\t// in\n    tag_409:\n        /* \"v2-periphery-master/contracts/libraries/UniswapV2Library.sol\":3902:3980  (uint reserveIn, uint reserveOut) = getReserves(factory, path[i], path[i + 1]) */\n      swap2\n      pop\n      swap2\n      pop\n        /* \"v2-periphery-master/contracts/libraries/UniswapV2Library.sol\":4011:4058  getAmountOut(amounts[i], reserveIn, reserveOut) */\n      tag_413\n        /* \"v2-periphery-master/contracts/libraries/UniswapV2Library.sol\":4024:4031  amounts */\n      dup5\n        /* \"v2-periphery-master/contracts/libraries/UniswapV2Library.sol\":4032:4033  i */\n      dup5\n        /* \"v2-periphery-master/contracts/libraries/UniswapV2Library.sol\":4024:4034  amounts[i] */\n      dup2\n      mload\n      dup2\n      lt\n      tag_414\n      jumpi\n      invalid\n    tag_414:\n      0x20\n      mul\n      0x20\n      add\n      add\n      mload\n        /* \"v2-periphery-master/contracts/libraries/UniswapV2Library.sol\":4036:4045  reserveIn */\n      dup4\n        /* \"v2-periphery-master/contracts/libraries/UniswapV2Library.sol\":4047:4057  reserveOut */\n      dup4\n        /* \"v2-periphery-master/contracts/libraries/UniswapV2Library.sol\":4011:4023  getAmountOut */\n      tag_160\n        /* \"v2-periphery-master/contracts/libraries/UniswapV2Library.sol\":4011:4058  getAmountOut(amounts[i], reserveIn, reserveOut) */\n      jump\t// in\n    tag_413:\n        /* \"v2-periphery-master/contracts/libraries/UniswapV2Library.sol\":3994:4001  amounts */\n      dup5\n        /* \"v2-periphery-master/contracts/libraries/UniswapV2Library.sol\":4002:4003  i */\n      dup5\n        /* \"v2-periphery-master/contracts/libraries/UniswapV2Library.sol\":4006:4007  1 */\n      0x01\n        /* \"v2-periphery-master/contracts/libraries/UniswapV2Library.sol\":4002:4007  i + 1 */\n      add\n        /* \"v2-periphery-master/contracts/libraries/UniswapV2Library.sol\":3994:4008  amounts[i + 1] */\n      dup2\n      mload\n      dup2\n      lt\n      tag_415\n      jumpi\n      invalid\n    tag_415:\n      0x20\n      swap1\n      dup2\n      mul\n      swap2\n      swap1\n      swap2\n      add\n      add\n        /* \"v2-periphery-master/contracts/libraries/UniswapV2Library.sol\":3994:4058  amounts[i + 1] = getAmountOut(amounts[i], reserveIn, reserveOut) */\n      mstore\n      pop\n      pop\n        /* \"v2-periphery-master/contracts/libraries/UniswapV2Library.sol\":3883:3886  i++ */\n      0x01\n      add\n        /* \"v2-periphery-master/contracts/libraries/UniswapV2Library.sol\":3849:4069  for (uint i; i < path.length - 1; i++) {... */\n      jump(tag_406)\n    tag_407:\n      pop\n        /* \"v2-periphery-master/contracts/libraries/UniswapV2Library.sol\":3542:4075  function getAmountsOut(... */\n      swap4\n      swap3\n      pop\n      pop\n      pop\n      jump\t// out\n        /* \"v2-periphery-master/contracts/libraries/UniswapV2Library.sol\":749:1349  function pairFor(address factory, address tokenA, address tokenB) internal pure returns (address pair) {... */\n    tag_175:\n        /* \"v2-periphery-master/contracts/libraries/UniswapV2Library.sol\":838:850  address pair */\n      0x00\n        /* \"v2-periphery-master/contracts/libraries/UniswapV2Library.sol\":863:877  address token0 */\n      dup1\n        /* \"v2-periphery-master/contracts/libraries/UniswapV2Library.sol\":879:893  address token1 */\n      0x00\n        /* \"v2-periphery-master/contracts/libraries/UniswapV2Library.sol\":897:923  sortTokens(tokenA, tokenB) */\n      tag_417\n        /* \"v2-periphery-master/contracts/libraries/UniswapV2Library.sol\":908:914  tokenA */\n      dup6\n        /* \"v2-periphery-master/contracts/libraries/UniswapV2Library.sol\":916:922  tokenB */\n      dup6\n        /* \"v2-periphery-master/contracts/libraries/UniswapV2Library.sol\":897:907  sortTokens */\n      tag_328\n        /* \"v2-periphery-master/contracts/libraries/UniswapV2Library.sol\":897:923  sortTokens(tokenA, tokenB) */\n      jump\t// in\n    tag_417:\n        /* \"v2-periphery-master/contracts/libraries/UniswapV2Library.sol\":1132:1164  abi.encodePacked(token0, token1) */\n      0x40\n      dup1\n      mload\n      not(0xffffffffffffffffffffffff)\n      0x60\n      swap5\n      dup6\n      shl\n      dup2\n      and\n      0x20\n      dup1\n      dup5\n      add\n      swap2\n      swap1\n      swap2\n      mstore\n      swap4\n      dup6\n      shl\n      dup2\n      and\n      0x34\n      dup4\n      add\n      mstore\n      dup3\n      mload\n        /* \"--CODEGEN--\":22:54   */\n      0x28\n        /* \"--CODEGEN--\":26:47   */\n      dup2\n      dup5\n      sub\n        /* \"--CODEGEN--\":22:54   */\n      add\n        /* \"--CODEGEN--\":6:55   */\n      dup2\n      mstore\n        /* \"v2-periphery-master/contracts/libraries/UniswapV2Library.sol\":1132:1164  abi.encodePacked(token0, token1) */\n      0x48\n      dup4\n      add\n      dup5\n      mstore\n        /* \"v2-periphery-master/contracts/libraries/UniswapV2Library.sol\":1122:1165  keccak256(abi.encodePacked(token0, token1)) */\n      dup1\n      mload\n      swap1\n      dup6\n      add\n      keccak256\n      not(sub(shl(0xf8, 0x01), 0x01))\n        /* \"v2-periphery-master/contracts/libraries/UniswapV2Library.sol\":1014:1300  abi.encodePacked(... */\n      0x68\n      dup5\n      add\n      mstore\n      swap11\n      swap1\n      swap5\n      shl\n      swap1\n      swap4\n      and\n      0x69\n      dup5\n      add\n      mstore\n      0x7d\n      dup4\n      add\n      swap9\n      swap1\n      swap9\n      mstore\n      0x9dbba9b9668cba021c85aa90d0242ff86c8ae584432b0150760f1707bd54900b\n      0x9d\n      dup1\n      dup5\n      add\n      swap2\n      swap1\n      swap2\n      mstore\n      dup9\n      mload\n        /* \"--CODEGEN--\":26:47   */\n      dup1\n      dup5\n      sub\n        /* \"--CODEGEN--\":22:54   */\n      swap1\n      swap2\n      add\n        /* \"--CODEGEN--\":6:55   */\n      dup2\n      mstore\n        /* \"v2-periphery-master/contracts/libraries/UniswapV2Library.sol\":1014:1300  abi.encodePacked(... */\n      0xbd\n      swap1\n      swap3\n      add\n      swap1\n      swap8\n      mstore\n        /* \"v2-periphery-master/contracts/libraries/UniswapV2Library.sol\":983:1318  keccak256(... */\n      dup1\n      mload\n      swap7\n      add\n      swap6\n      swap1\n      swap6\n      keccak256\n      swap6\n        /* \"v2-periphery-master/contracts/libraries/UniswapV2Library.sol\":749:1349  function pairFor(address factory, address tokenA, address tokenB) internal pure returns (address pair) {... */\n      swap5\n      pop\n      pop\n      pop\n      pop\n      pop\n      jump\t// out\n        /* \"@uniswap/lib/contracts/libraries/TransferHelper.sol\":1096:1582  function safeTransferFrom(... */\n    tag_177:\n        /* \"@uniswap/lib/contracts/libraries/TransferHelper.sol\":1360:1411  abi.encodeWithSelector(0x23b872dd, from, to, value) */\n      0x40\n      dup1\n      mload\n      sub(shl(0xa0, 0x01), 0x01)\n      dup6\n      dup2\n      and\n      0x24\n      dup4\n      add\n      mstore\n      dup5\n      dup2\n      and\n      0x44\n      dup4\n      add\n      mstore\n      0x64\n      dup1\n      dup4\n      add\n      dup6\n      swap1\n      mstore\n      dup4\n      mload\n        /* \"--CODEGEN--\":26:47   */\n      dup1\n      dup5\n      sub\n        /* \"--CODEGEN--\":22:54   */\n      swap1\n      swap2\n      add\n        /* \"--CODEGEN--\":6:55   */\n      dup2\n      mstore\n        /* \"@uniswap/lib/contracts/libraries/TransferHelper.sol\":1360:1411  abi.encodeWithSelector(0x23b872dd, from, to, value) */\n      0x84\n      swap1\n      swap3\n      add\n      dup4\n      mstore\n      0x20\n        /* \"--CODEGEN--\":25:43   */\n      dup3\n      add\n        /* \"--CODEGEN--\":61:78   */\n      dup1\n      mload\n      sub(shl(0xe0, 0x01), 0x01)\n        /* \"--CODEGEN--\":182:197   */\n      and\n      shl(0xe0, 0x23b872dd)\n        /* \"--CODEGEN--\":179:208   */\n      or\n        /* \"--CODEGEN--\":160:209   */\n      dup2\n      mstore\n        /* \"@uniswap/lib/contracts/libraries/TransferHelper.sol\":1349:1412  token.call(abi.encodeWithSelector(0x23b872dd, from, to, value)) */\n      swap3\n      mload\n      dup3\n      mload\n        /* \"@uniswap/lib/contracts/libraries/TransferHelper.sol\":1314:1326  bool success */\n      0x00\n      swap5\n        /* \"@uniswap/lib/contracts/libraries/TransferHelper.sol\":1328:1345  bytes memory data */\n      0x60\n      swap5\n        /* \"@uniswap/lib/contracts/libraries/TransferHelper.sol\":1349:1359  token.call */\n      swap4\n      dup11\n      and\n      swap4\n        /* \"@uniswap/lib/contracts/libraries/TransferHelper.sol\":1360:1411  abi.encodeWithSelector(0x23b872dd, from, to, value) */\n      swap3\n        /* \"@uniswap/lib/contracts/libraries/TransferHelper.sol\":1349:1412  token.call(abi.encodeWithSelector(0x23b872dd, from, to, value)) */\n      swap2\n      dup3\n      swap2\n        /* \"--CODEGEN--\":25:43   */\n      swap1\n        /* \"@uniswap/lib/contracts/libraries/TransferHelper.sol\":1349:1412  token.call(abi.encodeWithSelector(0x23b872dd, from, to, value)) */\n      dup1\n      dup4\n        /* \"--CODEGEN--\":25:43   */\n      dup4\n        /* \"--CODEGEN--\":36:189   */\n    tag_419:\n        /* \"--CODEGEN--\":66:68   */\n      0x20\n        /* \"--CODEGEN--\":61:64   */\n      dup4\n        /* \"--CODEGEN--\":58:69   */\n      lt\n        /* \"--CODEGEN--\":36:189   */\n      tag_421\n      jumpi\n        /* \"--CODEGEN--\":176:186   */\n      dup1\n      mload\n        /* \"--CODEGEN--\":164:187   */\n      dup3\n      mstore\n      not(0x1f)\n        /* \"--CODEGEN--\":139:151   */\n      swap1\n      swap3\n      add\n      swap2\n        /* \"--CODEGEN--\":98:100   */\n      0x20\n        /* \"--CODEGEN--\":89:101   */\n      swap2\n      dup3\n      add\n      swap2\n        /* \"--CODEGEN--\":114:126   */\n      add\n        /* \"--CODEGEN--\":36:189   */\n      jump(tag_419)\n    tag_421:\n        /* \"--CODEGEN--\":274:275   */\n      0x01\n        /* \"--CODEGEN--\":267:270   */\n      dup4\n        /* \"--CODEGEN--\":263:265   */\n      0x20\n        /* \"--CODEGEN--\":259:271   */\n      sub\n        /* \"--CODEGEN--\":254:257   */\n      0x0100\n        /* \"--CODEGEN--\":250:272   */\n      exp\n        /* \"--CODEGEN--\":246:276   */\n      sub\n        /* \"--CODEGEN--\":315:319   */\n      dup1\n        /* \"--CODEGEN--\":311:320   */\n      not\n        /* \"--CODEGEN--\":305:308   */\n      dup3\n        /* \"--CODEGEN--\":299:309   */\n      mload\n        /* \"--CODEGEN--\":295:321   */\n      and\n        /* \"--CODEGEN--\":356:360   */\n      dup2\n        /* \"--CODEGEN--\":350:353   */\n      dup5\n        /* \"--CODEGEN--\":344:354   */\n      mload\n        /* \"--CODEGEN--\":340:361   */\n      and\n        /* \"--CODEGEN--\":389:396   */\n      dup1\n        /* \"--CODEGEN--\":380:387   */\n      dup3\n        /* \"--CODEGEN--\":377:397   */\n      or\n        /* \"--CODEGEN--\":372:375   */\n      dup6\n        /* \"--CODEGEN--\":365:398   */\n      mstore\n        /* \"--CODEGEN--\":3:402   */\n      pop\n      pop\n      pop\n        /* \"@uniswap/lib/contracts/libraries/TransferHelper.sol\":1349:1412  token.call(abi.encodeWithSelector(0x23b872dd, from, to, value)) */\n      pop\n      pop\n      pop\n      swap1\n      pop\n      add\n      swap2\n      pop\n      pop\n      0x00\n      mload(0x40)\n      dup1\n      dup4\n      sub\n      dup2\n      0x00\n      dup7\n      gas\n      call\n      swap2\n      pop\n      pop\n      returndatasize\n        /* \"--CODEGEN--\":12:13   */\n      dup1\n        /* \"--CODEGEN--\":19:20   */\n      0x00\n        /* \"--CODEGEN--\":14:41   */\n      dup2\n      eq\n      tag_424\n      jumpi\n        /* \"--CODEGEN--\":67:71   */\n      0x40\n        /* \"--CODEGEN--\":61:72   */\n      mload\n        /* \"--CODEGEN--\":56:72   */\n      swap2\n      pop\n        /* \"--CODEGEN--\":134:138   */\n      0x1f\n        /* \"--CODEGEN--\":130:139   */\n      not\n        /* \"--CODEGEN--\":123:127   */\n      0x3f\n        /* \"--CODEGEN--\":105:121   */\n      returndatasize\n        /* \"--CODEGEN--\":101:128   */\n      add\n        /* \"--CODEGEN--\":97:140   */\n      and\n        /* \"--CODEGEN--\":94:95   */\n      dup3\n        /* \"--CODEGEN--\":90:141   */\n      add\n        /* \"--CODEGEN--\":84:88   */\n      0x40\n        /* \"--CODEGEN--\":77:142   */\n      mstore\n        /* \"--CODEGEN--\":157:173   */\n      returndatasize\n        /* \"--CODEGEN--\":154:155   */\n      dup3\n        /* \"--CODEGEN--\":147:174   */\n      mstore\n        /* \"--CODEGEN--\":211:227   */\n      returndatasize\n        /* \"--CODEGEN--\":208:209   */\n      0x00\n        /* \"--CODEGEN--\":201:205   */\n      0x20\n        /* \"--CODEGEN--\":198:199   */\n      dup5\n        /* \"--CODEGEN--\":194:206   */\n      add\n        /* \"--CODEGEN--\":179:228   */\n      returndatacopy\n        /* \"--CODEGEN--\":5:233   */\n      jump(tag_423)\n        /* \"--CODEGEN--\":14:41   */\n    tag_424:\n        /* \"--CODEGEN--\":32:36   */\n      0x60\n        /* \"--CODEGEN--\":27:36   */\n      swap2\n      pop\n        /* \"--CODEGEN--\":5:233   */\n    tag_423:\n      pop\n        /* \"@uniswap/lib/contracts/libraries/TransferHelper.sol\":1313:1412  (bool success, bytes memory data) = token.call(abi.encodeWithSelector(0x23b872dd, from, to, value)) */\n      swap2\n      pop\n      swap2\n      pop\n        /* \"@uniswap/lib/contracts/libraries/TransferHelper.sol\":1443:1450  success */\n      dup2\n        /* \"@uniswap/lib/contracts/libraries/TransferHelper.sol\":1443:1500  success && (data.length == 0 || abi.decode(data, (bool))) */\n      dup1\n      iszero\n      tag_426\n      jumpi\n      pop\n        /* \"@uniswap/lib/contracts/libraries/TransferHelper.sol\":1455:1466  data.length */\n      dup1\n      mload\n        /* \"@uniswap/lib/contracts/libraries/TransferHelper.sol\":1455:1471  data.length == 0 */\n      iszero\n      dup1\n        /* \"@uniswap/lib/contracts/libraries/TransferHelper.sol\":1455:1499  data.length == 0 || abi.decode(data, (bool)) */\n      tag_426\n      jumpi\n      pop\n        /* \"@uniswap/lib/contracts/libraries/TransferHelper.sol\":1486:1490  data */\n      dup1\n        /* \"@uniswap/lib/contracts/libraries/TransferHelper.sol\":1475:1499  abi.decode(data, (bool)) */\n      dup1\n      0x20\n      add\n      swap1\n      mload\n        /* \"--CODEGEN--\":15:17   */\n      0x20\n        /* \"--CODEGEN--\":10:13   */\n      dup2\n        /* \"--CODEGEN--\":7:18   */\n      lt\n        /* \"--CODEGEN--\":4:6   */\n      iszero\n      tag_427\n      jumpi\n        /* \"--CODEGEN--\":31:32   */\n      0x00\n        /* \"--CODEGEN--\":28:29   */\n      dup1\n        /* \"--CODEGEN--\":21:33   */\n      revert\n        /* \"--CODEGEN--\":4:6   */\n    tag_427:\n      pop\n        /* \"@uniswap/lib/contracts/libraries/TransferHelper.sol\":1475:1499  abi.decode(data, (bool)) */\n      mload\n        /* \"@uniswap/lib/contracts/libraries/TransferHelper.sol\":1455:1499  data.length == 0 || abi.decode(data, (bool)) */\n    tag_426:\n        /* \"@uniswap/lib/contracts/libraries/TransferHelper.sol\":1422:1575  require(... */\n      tag_428\n      jumpi\n      mload(0x40)\n      shl(0xe5, 0x461bcd)\n      dup2\n      mstore\n      0x04\n      add\n      dup1\n      dup1\n      0x20\n      add\n      dup3\n      dup2\n      sub\n      dup3\n      mstore\n      0x31\n      dup2\n      mstore\n      0x20\n      add\n      dup1\n      data_3f8faf98afe9344b6d4b0e75b0101259bf282914b3b5a9320c6918b6e27ede1c\n      0x31\n      swap2\n      codecopy\n      0x40\n      add\n      swap2\n      pop\n      pop\n      mload(0x40)\n      dup1\n      swap2\n      sub\n      swap1\n      revert\n    tag_428:\n        /* \"@uniswap/lib/contracts/libraries/TransferHelper.sol\":1096:1582  function safeTransferFrom(... */\n      pop\n      pop\n      pop\n      pop\n      pop\n      pop\n      jump\t// out\n        /* \"v2-periphery-master/contracts/UniswapV2Router01.sol\":7333:8018  function _swap(uint[] memory amounts, address[] memory path, address _to) private {... */\n    tag_179:\n        /* \"v2-periphery-master/contracts/UniswapV2Router01.sol\":7430:7436  uint i */\n      0x00\n        /* \"v2-periphery-master/contracts/UniswapV2Router01.sol\":7425:8012  for (uint i; i < path.length - 1; i++) {... */\n    tag_430:\n        /* \"v2-periphery-master/contracts/UniswapV2Router01.sol\":7456:7457  1 */\n      0x01\n        /* \"v2-periphery-master/contracts/UniswapV2Router01.sol\":7442:7446  path */\n      dup4\n        /* \"v2-periphery-master/contracts/UniswapV2Router01.sol\":7442:7453  path.length */\n      mload\n        /* \"v2-periphery-master/contracts/UniswapV2Router01.sol\":7442:7457  path.length - 1 */\n      sub\n        /* \"v2-periphery-master/contracts/UniswapV2Router01.sol\":7438:7439  i */\n      dup2\n        /* \"v2-periphery-master/contracts/UniswapV2Router01.sol\":7438:7457  i < path.length - 1 */\n      lt\n        /* \"v2-periphery-master/contracts/UniswapV2Router01.sol\":7425:8012  for (uint i; i < path.length - 1; i++) {... */\n      iszero\n      tag_431\n      jumpi\n        /* \"v2-periphery-master/contracts/UniswapV2Router01.sol\":7479:7492  address input */\n      0x00\n        /* \"v2-periphery-master/contracts/UniswapV2Router01.sol\":7494:7508  address output */\n      dup1\n        /* \"v2-periphery-master/contracts/UniswapV2Router01.sol\":7513:7517  path */\n      dup5\n        /* \"v2-periphery-master/contracts/UniswapV2Router01.sol\":7518:7519  i */\n      dup4\n        /* \"v2-periphery-master/contracts/UniswapV2Router01.sol\":7513:7520  path[i] */\n      dup2\n      mload\n      dup2\n      lt\n      tag_433\n      jumpi\n      invalid\n    tag_433:\n      0x20\n      mul\n      0x20\n      add\n      add\n      mload\n        /* \"v2-periphery-master/contracts/UniswapV2Router01.sol\":7522:7526  path */\n      dup6\n        /* \"v2-periphery-master/contracts/UniswapV2Router01.sol\":7527:7528  i */\n      dup5\n        /* \"v2-periphery-master/contracts/UniswapV2Router01.sol\":7531:7532  1 */\n      0x01\n        /* \"v2-periphery-master/contracts/UniswapV2Router01.sol\":7527:7532  i + 1 */\n      add\n        /* \"v2-periphery-master/contracts/UniswapV2Router01.sol\":7522:7533  path[i + 1] */\n      dup2\n      mload\n      dup2\n      lt\n      tag_434\n      jumpi\n      invalid\n    tag_434:\n      0x20\n      mul\n      0x20\n      add\n      add\n      mload\n        /* \"v2-periphery-master/contracts/UniswapV2Router01.sol\":7478:7534  (address input, address output) = (path[i], path[i + 1]) */\n      swap2\n      pop\n      swap2\n      pop\n        /* \"v2-periphery-master/contracts/UniswapV2Router01.sol\":7549:7563  address token0 */\n      0x00\n        /* \"v2-periphery-master/contracts/UniswapV2Router01.sol\":7568:7610  UniswapV2Library.sortTokens(input, output) */\n      tag_435\n        /* \"v2-periphery-master/contracts/UniswapV2Router01.sol\":7596:7601  input */\n      dup4\n        /* \"v2-periphery-master/contracts/UniswapV2Router01.sol\":7603:7609  output */\n      dup4\n        /* \"v2-periphery-master/contracts/UniswapV2Router01.sol\":7568:7595  UniswapV2Library.sortTokens */\n      tag_328\n        /* \"v2-periphery-master/contracts/UniswapV2Router01.sol\":7568:7610  UniswapV2Library.sortTokens(input, output) */\n      jump\t// in\n    tag_435:\n        /* \"v2-periphery-master/contracts/UniswapV2Router01.sol\":7548:7610  (address token0,) = UniswapV2Library.sortTokens(input, output) */\n      pop\n      swap1\n      pop\n        /* \"v2-periphery-master/contracts/UniswapV2Router01.sol\":7624:7638  uint amountOut */\n      0x00\n        /* \"v2-periphery-master/contracts/UniswapV2Router01.sol\":7641:7648  amounts */\n      dup8\n        /* \"v2-periphery-master/contracts/UniswapV2Router01.sol\":7649:7650  i */\n      dup6\n        /* \"v2-periphery-master/contracts/UniswapV2Router01.sol\":7653:7654  1 */\n      0x01\n        /* \"v2-periphery-master/contracts/UniswapV2Router01.sol\":7649:7654  i + 1 */\n      add\n        /* \"v2-periphery-master/contracts/UniswapV2Router01.sol\":7641:7655  amounts[i + 1] */\n      dup2\n      mload\n      dup2\n      lt\n      tag_436\n      jumpi\n      invalid\n    tag_436:\n      0x20\n      mul\n      0x20\n      add\n      add\n      mload\n        /* \"v2-periphery-master/contracts/UniswapV2Router01.sol\":7624:7655  uint amountOut = amounts[i + 1] */\n      swap1\n      pop\n        /* \"v2-periphery-master/contracts/UniswapV2Router01.sol\":7670:7685  uint amount0Out */\n      0x00\n        /* \"v2-periphery-master/contracts/UniswapV2Router01.sol\":7687:7702  uint amount1Out */\n      dup1\n        /* \"v2-periphery-master/contracts/UniswapV2Router01.sol\":7715:7721  token0 */\n      dup4\n      sub(shl(0xa0, 0x01), 0x01)\n        /* \"v2-periphery-master/contracts/UniswapV2Router01.sol\":7706:7721  input == token0 */\n      and\n        /* \"v2-periphery-master/contracts/UniswapV2Router01.sol\":7706:7711  input */\n      dup7\n      sub(shl(0xa0, 0x01), 0x01)\n        /* \"v2-periphery-master/contracts/UniswapV2Router01.sol\":7706:7721  input == token0 */\n      and\n      eq\n        /* \"v2-periphery-master/contracts/UniswapV2Router01.sol\":7706:7767  input == token0 ? (uint(0), amountOut) : (amountOut, uint(0)) */\n      tag_437\n      jumpi\n        /* \"v2-periphery-master/contracts/UniswapV2Router01.sol\":7748:7757  amountOut */\n      dup3\n        /* \"v2-periphery-master/contracts/UniswapV2Router01.sol\":7764:7765  0 */\n      0x00\n        /* \"v2-periphery-master/contracts/UniswapV2Router01.sol\":7706:7767  input == token0 ? (uint(0), amountOut) : (amountOut, uint(0)) */\n      jump(tag_438)\n    tag_437:\n        /* \"v2-periphery-master/contracts/UniswapV2Router01.sol\":7730:7731  0 */\n      0x00\n        /* \"v2-periphery-master/contracts/UniswapV2Router01.sol\":7734:7743  amountOut */\n      dup4\n        /* \"v2-periphery-master/contracts/UniswapV2Router01.sol\":7706:7767  input == token0 ? (uint(0), amountOut) : (amountOut, uint(0)) */\n    tag_438:\n        /* \"v2-periphery-master/contracts/UniswapV2Router01.sol\":7669:7767  (uint amount0Out, uint amount1Out) = input == token0 ? (uint(0), amountOut) : (amountOut, uint(0)) */\n      swap2\n      pop\n      swap2\n      pop\n        /* \"v2-periphery-master/contracts/UniswapV2Router01.sol\":7781:7791  address to */\n      0x00\n        /* \"v2-periphery-master/contracts/UniswapV2Router01.sol\":7812:7813  2 */\n      0x02\n        /* \"v2-periphery-master/contracts/UniswapV2Router01.sol\":7798:7802  path */\n      dup11\n        /* \"v2-periphery-master/contracts/UniswapV2Router01.sol\":7798:7809  path.length */\n      mload\n        /* \"v2-periphery-master/contracts/UniswapV2Router01.sol\":7798:7813  path.length - 2 */\n      sub\n        /* \"v2-periphery-master/contracts/UniswapV2Router01.sol\":7794:7795  i */\n      dup9\n        /* \"v2-periphery-master/contracts/UniswapV2Router01.sol\":7794:7813  i < path.length - 2 */\n      lt\n        /* \"v2-periphery-master/contracts/UniswapV2Router01.sol\":7794:7876  i < path.length - 2 ? UniswapV2Library.pairFor(factory, output, path[i + 2]) : _to */\n      tag_439\n      jumpi\n        /* \"v2-periphery-master/contracts/UniswapV2Router01.sol\":7873:7876  _to */\n      dup9\n        /* \"v2-periphery-master/contracts/UniswapV2Router01.sol\":7794:7876  i < path.length - 2 ? UniswapV2Library.pairFor(factory, output, path[i + 2]) : _to */\n      jump(tag_441)\n    tag_439:\n        /* \"v2-periphery-master/contracts/UniswapV2Router01.sol\":7816:7870  UniswapV2Library.pairFor(factory, output, path[i + 2]) */\n      tag_441\n        /* \"v2-periphery-master/contracts/UniswapV2Router01.sol\":7841:7848  factory */\n      immutable(\"0x6085f6f924f4d3289e6bd2dcf255c34b40082df304bec05239cb2746d1d3eb0d\")\n        /* \"v2-periphery-master/contracts/UniswapV2Router01.sol\":7850:7856  output */\n      dup8\n        /* \"v2-periphery-master/contracts/UniswapV2Router01.sol\":7858:7862  path */\n      dup13\n        /* \"v2-periphery-master/contracts/UniswapV2Router01.sol\":7863:7864  i */\n      dup12\n        /* \"v2-periphery-master/contracts/UniswapV2Router01.sol\":7867:7868  2 */\n      0x02\n        /* \"v2-periphery-master/contracts/UniswapV2Router01.sol\":7863:7868  i + 2 */\n      add\n        /* \"v2-periphery-master/contracts/UniswapV2Router01.sol\":7858:7869  path[i + 2] */\n      dup2\n      mload\n      dup2\n      lt\n      tag_442\n      jumpi\n      invalid\n    tag_442:\n      0x20\n      mul\n      0x20\n      add\n      add\n      mload\n        /* \"v2-periphery-master/contracts/UniswapV2Router01.sol\":7816:7840  UniswapV2Library.pairFor */\n      tag_175\n        /* \"v2-periphery-master/contracts/UniswapV2Router01.sol\":7816:7870  UniswapV2Library.pairFor(factory, output, path[i + 2]) */\n      jump\t// in\n    tag_441:\n        /* \"v2-periphery-master/contracts/UniswapV2Router01.sol\":7781:7876  address to = i < path.length - 2 ? UniswapV2Library.pairFor(factory, output, path[i + 2]) : _to */\n      swap1\n      pop\n        /* \"v2-periphery-master/contracts/UniswapV2Router01.sol\":7905:7953  UniswapV2Library.pairFor(factory, input, output) */\n      tag_443\n        /* \"v2-periphery-master/contracts/UniswapV2Router01.sol\":7930:7937  factory */\n      immutable(\"0x6085f6f924f4d3289e6bd2dcf255c34b40082df304bec05239cb2746d1d3eb0d\")\n        /* \"v2-periphery-master/contracts/UniswapV2Router01.sol\":7939:7944  input */\n      dup9\n        /* \"v2-periphery-master/contracts/UniswapV2Router01.sol\":7946:7952  output */\n      dup9\n        /* \"v2-periphery-master/contracts/UniswapV2Router01.sol\":7905:7929  UniswapV2Library.pairFor */\n      tag_175\n        /* \"v2-periphery-master/contracts/UniswapV2Router01.sol\":7905:7953  UniswapV2Library.pairFor(factory, input, output) */\n      jump\t// in\n    tag_443:\n      sub(shl(0xa0, 0x01), 0x01)\n        /* \"v2-periphery-master/contracts/UniswapV2Router01.sol\":7890:7959  IUniswapV2Pair(UniswapV2Library.pairFor(factory, input, output)).swap */\n      and\n      0x022c0d9f\n        /* \"v2-periphery-master/contracts/UniswapV2Router01.sol\":7960:7970  amount0Out */\n      dup5\n        /* \"v2-periphery-master/contracts/UniswapV2Router01.sol\":7972:7982  amount1Out */\n      dup5\n        /* \"v2-periphery-master/contracts/UniswapV2Router01.sol\":7984:7986  to */\n      dup5\n        /* \"v2-periphery-master/contracts/UniswapV2Router01.sol\":7998:7999  0 */\n      0x00\n        /* \"v2-periphery-master/contracts/UniswapV2Router01.sol\":7988:8000  new bytes(0) */\n      mload(0x40)\n      swap1\n      dup1\n      dup3\n      mstore\n      dup1\n      0x1f\n      add\n      not(0x1f)\n      and\n      0x20\n      add\n      dup3\n      add\n      0x40\n      mstore\n      dup1\n      iszero\n      tag_445\n      jumpi\n      0x20\n      dup3\n      add\n        /* \"--CODEGEN--\":21:27   */\n      dup2\n      dup1\n        /* \"--CODEGEN--\":108:122   */\n      calldatasize\n        /* \"v2-periphery-master/contracts/UniswapV2Router01.sol\":7988:8000  new bytes(0) */\n      dup4\n        /* \"--CODEGEN--\":87:129   */\n      calldatacopy\n        /* \"--CODEGEN--\":143:160   */\n      add\n      swap1\n      pop\n        /* \"v2-periphery-master/contracts/UniswapV2Router01.sol\":7988:8000  new bytes(0) */\n    tag_445:\n      pop\n        /* \"v2-periphery-master/contracts/UniswapV2Router01.sol\":7890:8001  IUniswapV2Pair(UniswapV2Library.pairFor(factory, input, output)).swap(amount0Out, amount1Out, to, new bytes(0)) */\n      mload(0x40)\n      dup6\n      0xffffffff\n      and\n      0xe0\n      shl\n      dup2\n      mstore\n      0x04\n      add\n      dup1\n      dup6\n      dup2\n      mstore\n      0x20\n      add\n      dup5\n      dup2\n      mstore\n      0x20\n      add\n      dup4\n      sub(shl(0xa0, 0x01), 0x01)\n      and\n      sub(shl(0xa0, 0x01), 0x01)\n      and\n      dup2\n      mstore\n      0x20\n      add\n      dup1\n      0x20\n      add\n      dup3\n      dup2\n      sub\n      dup3\n      mstore\n      dup4\n      dup2\n      dup2\n      mload\n      dup2\n      mstore\n      0x20\n      add\n      swap2\n      pop\n      dup1\n      mload\n      swap1\n      0x20\n      add\n      swap1\n      dup1\n      dup4\n      dup4\n        /* \"--CODEGEN--\":23:24   */\n      0x00\n        /* \"--CODEGEN--\":8:108   */\n    tag_446:\n        /* \"--CODEGEN--\":33:36   */\n      dup4\n        /* \"--CODEGEN--\":30:31   */\n      dup2\n        /* \"--CODEGEN--\":27:37   */\n      lt\n        /* \"--CODEGEN--\":8:108   */\n      iszero\n      tag_448\n      jumpi\n        /* \"--CODEGEN--\":90:101   */\n      dup2\n      dup2\n      add\n        /* \"--CODEGEN--\":84:102   */\n      mload\n        /* \"--CODEGEN--\":71:82   */\n      dup4\n      dup3\n      add\n        /* \"--CODEGEN--\":64:103   */\n      mstore\n        /* \"--CODEGEN--\":52:54   */\n      0x20\n        /* \"--CODEGEN--\":45:55   */\n      add\n        /* \"--CODEGEN--\":8:108   */\n      jump(tag_446)\n    tag_448:\n        /* \"--CODEGEN--\":12:26   */\n      pop\n        /* \"v2-periphery-master/contracts/UniswapV2Router01.sol\":7890:8001  IUniswapV2Pair(UniswapV2Library.pairFor(factory, input, output)).swap(amount0Out, amount1Out, to, new bytes(0)) */\n      pop\n      pop\n      pop\n      swap1\n      pop\n      swap1\n      dup2\n      add\n      swap1\n      0x1f\n      and\n      dup1\n      iszero\n      tag_449\n      jumpi\n      dup1\n      dup3\n      sub\n      dup1\n      mload\n      0x01\n      dup4\n      0x20\n      sub\n      0x0100\n      exp\n      sub\n      not\n      and\n      dup2\n      mstore\n      0x20\n      add\n      swap2\n      pop\n    tag_449:\n      pop\n      swap6\n      pop\n      pop\n      pop\n      pop\n      pop\n      pop\n      0x00\n      mload(0x40)\n      dup1\n      dup4\n      sub\n      dup2\n      0x00\n      dup8\n      dup1\n      extcodesize\n      iszero\n        /* \"--CODEGEN--\":5:14   */\n      dup1\n        /* \"--CODEGEN--\":2:4   */\n      iszero\n      tag_450\n      jumpi\n        /* \"--CODEGEN--\":27:28   */\n      0x00\n        /* \"--CODEGEN--\":24:25   */\n      dup1\n        /* \"--CODEGEN--\":17:29   */\n      revert\n        /* \"--CODEGEN--\":2:4   */\n    tag_450:\n        /* \"v2-periphery-master/contracts/UniswapV2Router01.sol\":7890:8001  IUniswapV2Pair(UniswapV2Library.pairFor(factory, input, output)).swap(amount0Out, amount1Out, to, new bytes(0)) */\n      pop\n      gas\n      call\n      iszero\n        /* \"--CODEGEN--\":8:17   */\n      dup1\n        /* \"--CODEGEN--\":5:7   */\n      iszero\n      tag_452\n      jumpi\n        /* \"--CODEGEN--\":45:61   */\n      returndatasize\n        /* \"--CODEGEN--\":42:43   */\n      0x00\n        /* \"--CODEGEN--\":39:40   */\n      dup1\n        /* \"--CODEGEN--\":24:62   */\n      returndatacopy\n        /* \"--CODEGEN--\":77:93   */\n      returndatasize\n        /* \"--CODEGEN--\":74:75   */\n      0x00\n        /* \"--CODEGEN--\":67:94   */\n      revert\n        /* \"--CODEGEN--\":5:7   */\n    tag_452:\n      pop\n      pop\n        /* \"v2-periphery-master/contracts/UniswapV2Router01.sol\":7459:7462  i++ */\n      0x01\n      swap1\n      swap10\n      add\n      swap9\n      pop\n        /* \"v2-periphery-master/contracts/UniswapV2Router01.sol\":7425:8012  for (uint i; i < path.length - 1; i++) {... */\n      tag_430\n      swap8\n      pop\n      pop\n      pop\n      pop\n      pop\n      pop\n      pop\n      pop\n      jump\n    tag_431:\n      pop\n        /* \"v2-periphery-master/contracts/UniswapV2Router01.sol\":7333:8018  function _swap(uint[] memory amounts, address[] memory path, address _to) private {... */\n      pop\n      pop\n      pop\n      jump\t// out\n        /* \"v2-periphery-master/contracts/libraries/UniswapV2Library.sol\":4153:4707  function getAmountsIn(... */\n    tag_188:\n        /* \"v2-periphery-master/contracts/libraries/UniswapV2Library.sol\":4284:4305  uint[] memory amounts */\n      0x60\n        /* \"v2-periphery-master/contracts/libraries/UniswapV2Library.sol\":4340:4341  2 */\n      0x02\n        /* \"v2-periphery-master/contracts/libraries/UniswapV2Library.sol\":4325:4329  path */\n      dup3\n        /* \"v2-periphery-master/contracts/libraries/UniswapV2Library.sol\":4325:4336  path.length */\n      mload\n        /* \"v2-periphery-master/contracts/libraries/UniswapV2Library.sol\":4325:4341  path.length >= 2 */\n      lt\n      iszero\n        /* \"v2-periphery-master/contracts/libraries/UniswapV2Library.sol\":4317:4376  require(path.length >= 2, 'UniswapV2Library: INVALID_PATH') */\n      tag_454\n      jumpi\n      0x40\n      dup1\n      mload\n      shl(0xe5, 0x461bcd)\n      dup2\n      mstore\n      0x20\n      0x04\n      dup3\n      add\n      mstore\n      0x1e\n      0x24\n      dup3\n      add\n      mstore\n      0x556e697377617056324c6962726172793a20494e56414c49445f504154480000\n      0x44\n      dup3\n      add\n      mstore\n      swap1\n      mload\n      swap1\n      dup2\n      swap1\n      sub\n      0x64\n      add\n      swap1\n      revert\n    tag_454:\n        /* \"v2-periphery-master/contracts/libraries/UniswapV2Library.sol\":4407:4411  path */\n      dup2\n        /* \"v2-periphery-master/contracts/libraries/UniswapV2Library.sol\":4407:4418  path.length */\n      mload\n        /* \"v2-periphery-master/contracts/libraries/UniswapV2Library.sol\":4396:4419  new uint[](path.length) */\n      0xffffffffffffffff\n      dup2\n      gt\n        /* \"--CODEGEN--\":5:14   */\n      dup1\n        /* \"--CODEGEN--\":2:4   */\n      iszero\n      tag_455\n      jumpi\n        /* \"--CODEGEN--\":27:28   */\n      0x00\n        /* \"--CODEGEN--\":24:25   */\n      dup1\n        /* \"--CODEGEN--\":17:29   */\n      revert\n        /* \"--CODEGEN--\":2:4   */\n    tag_455:\n        /* \"v2-periphery-master/contracts/libraries/UniswapV2Library.sol\":4396:4419  new uint[](path.length) */\n      pop\n      mload(0x40)\n      swap1\n      dup1\n      dup3\n      mstore\n      dup1\n      0x20\n      mul\n      0x20\n      add\n      dup3\n      add\n      0x40\n      mstore\n      dup1\n      iszero\n      tag_456\n      jumpi\n      dup2\n      0x20\n      add\n        /* \"--CODEGEN--\":29:31   */\n      0x20\n        /* \"--CODEGEN--\":21:27   */\n      dup3\n        /* \"--CODEGEN--\":17:32   */\n      mul\n        /* \"--CODEGEN--\":125:129   */\n      dup1\n        /* \"--CODEGEN--\":109:123   */\n      calldatasize\n        /* \"--CODEGEN--\":101:107   */\n      dup4\n        /* \"--CODEGEN--\":88:130   */\n      calldatacopy\n        /* \"--CODEGEN--\":144:161   */\n      add\n      swap1\n      pop\n        /* \"v2-periphery-master/contracts/libraries/UniswapV2Library.sol\":4396:4419  new uint[](path.length) */\n    tag_456:\n      pop\n        /* \"v2-periphery-master/contracts/libraries/UniswapV2Library.sol\":4386:4419  amounts = new uint[](path.length) */\n      swap1\n      pop\n        /* \"v2-periphery-master/contracts/libraries/UniswapV2Library.sol\":4459:4468  amountOut */\n      dup3\n        /* \"v2-periphery-master/contracts/libraries/UniswapV2Library.sol\":4429:4436  amounts */\n      dup2\n        /* \"v2-periphery-master/contracts/libraries/UniswapV2Library.sol\":4454:4455  1 */\n      0x01\n        /* \"v2-periphery-master/contracts/libraries/UniswapV2Library.sol\":4437:4444  amounts */\n      dup4\n        /* \"v2-periphery-master/contracts/libraries/UniswapV2Library.sol\":4437:4451  amounts.length */\n      mload\n        /* \"v2-periphery-master/contracts/libraries/UniswapV2Library.sol\":4437:4455  amounts.length - 1 */\n      sub\n        /* \"v2-periphery-master/contracts/libraries/UniswapV2Library.sol\":4429:4456  amounts[amounts.length - 1] */\n      dup2\n      mload\n      dup2\n      lt\n      tag_457\n      jumpi\n      invalid\n    tag_457:\n      0x20\n      swap1\n      dup2\n      mul\n      swap2\n      swap1\n      swap2\n      add\n      add\n        /* \"v2-periphery-master/contracts/libraries/UniswapV2Library.sol\":4429:4468  amounts[amounts.length - 1] = amountOut */\n      mstore\n        /* \"v2-periphery-master/contracts/libraries/UniswapV2Library.sol\":4492:4503  path.length */\n      dup2\n      mload\n      not(0x00)\n        /* \"v2-periphery-master/contracts/libraries/UniswapV2Library.sol\":4492:4507  path.length - 1 */\n      add\n        /* \"v2-periphery-master/contracts/libraries/UniswapV2Library.sol\":4478:4701  for (uint i = path.length - 1; i > 0; i--) {... */\n    tag_458:\n        /* \"v2-periphery-master/contracts/libraries/UniswapV2Library.sol\":4509:4514  i > 0 */\n      dup1\n      iszero\n        /* \"v2-periphery-master/contracts/libraries/UniswapV2Library.sol\":4478:4701  for (uint i = path.length - 1; i > 0; i--) {... */\n      tag_407\n      jumpi\n        /* \"v2-periphery-master/contracts/libraries/UniswapV2Library.sol\":4536:4550  uint reserveIn */\n      0x00\n        /* \"v2-periphery-master/contracts/libraries/UniswapV2Library.sol\":4552:4567  uint reserveOut */\n      dup1\n        /* \"v2-periphery-master/contracts/libraries/UniswapV2Library.sol\":4571:4613  getReserves(factory, path[i - 1], path[i]) */\n      tag_461\n        /* \"v2-periphery-master/contracts/libraries/UniswapV2Library.sol\":4583:4590  factory */\n      dup8\n        /* \"v2-periphery-master/contracts/libraries/UniswapV2Library.sol\":4592:4596  path */\n      dup7\n        /* \"v2-periphery-master/contracts/libraries/UniswapV2Library.sol\":4601:4602  1 */\n      0x01\n        /* \"v2-periphery-master/contracts/libraries/UniswapV2Library.sol\":4597:4598  i */\n      dup7\n        /* \"v2-periphery-master/contracts/libraries/UniswapV2Library.sol\":4597:4602  i - 1 */\n      sub\n        /* \"v2-periphery-master/contracts/libraries/UniswapV2Library.sol\":4592:4603  path[i - 1] */\n      dup2\n      mload\n      dup2\n      lt\n      tag_462\n      jumpi\n      invalid\n    tag_462:\n      0x20\n      mul\n      0x20\n      add\n      add\n      mload\n        /* \"v2-periphery-master/contracts/libraries/UniswapV2Library.sol\":4605:4609  path */\n      dup8\n        /* \"v2-periphery-master/contracts/libraries/UniswapV2Library.sol\":4610:4611  i */\n      dup7\n        /* \"v2-periphery-master/contracts/libraries/UniswapV2Library.sol\":4605:4612  path[i] */\n      dup2\n      mload\n      dup2\n      lt\n      tag_411\n      jumpi\n      invalid\n        /* \"v2-periphery-master/contracts/libraries/UniswapV2Library.sol\":4571:4613  getReserves(factory, path[i - 1], path[i]) */\n    tag_461:\n        /* \"v2-periphery-master/contracts/libraries/UniswapV2Library.sol\":4535:4613  (uint reserveIn, uint reserveOut) = getReserves(factory, path[i - 1], path[i]) */\n      swap2\n      pop\n      swap2\n      pop\n        /* \"v2-periphery-master/contracts/libraries/UniswapV2Library.sol\":4644:4690  getAmountIn(amounts[i], reserveIn, reserveOut) */\n      tag_464\n        /* \"v2-periphery-master/contracts/libraries/UniswapV2Library.sol\":4656:4663  amounts */\n      dup5\n        /* \"v2-periphery-master/contracts/libraries/UniswapV2Library.sol\":4664:4665  i */\n      dup5\n        /* \"v2-periphery-master/contracts/libraries/UniswapV2Library.sol\":4656:4666  amounts[i] */\n      dup2\n      mload\n      dup2\n      lt\n      tag_465\n      jumpi\n      invalid\n    tag_465:\n      0x20\n      mul\n      0x20\n      add\n      add\n      mload\n        /* \"v2-periphery-master/contracts/libraries/UniswapV2Library.sol\":4668:4677  reserveIn */\n      dup4\n        /* \"v2-periphery-master/contracts/libraries/UniswapV2Library.sol\":4679:4689  reserveOut */\n      dup4\n        /* \"v2-periphery-master/contracts/libraries/UniswapV2Library.sol\":4644:4655  getAmountIn */\n      tag_466\n        /* \"v2-periphery-master/contracts/libraries/UniswapV2Library.sol\":4644:4690  getAmountIn(amounts[i], reserveIn, reserveOut) */\n      jump\t// in\n    tag_464:\n        /* \"v2-periphery-master/contracts/libraries/UniswapV2Library.sol\":4627:4634  amounts */\n      dup5\n        /* \"v2-periphery-master/contracts/libraries/UniswapV2Library.sol\":4639:4640  1 */\n      0x01\n        /* \"v2-periphery-master/contracts/libraries/UniswapV2Library.sol\":4635:4636  i */\n      dup6\n        /* \"v2-periphery-master/contracts/libraries/UniswapV2Library.sol\":4635:4640  i - 1 */\n      sub\n        /* \"v2-periphery-master/contracts/libraries/UniswapV2Library.sol\":4627:4641  amounts[i - 1] */\n      dup2\n      mload\n      dup2\n      lt\n      tag_467\n      jumpi\n      invalid\n    tag_467:\n      0x20\n      swap1\n      dup2\n      mul\n      swap2\n      swap1\n      swap2\n      add\n      add\n        /* \"v2-periphery-master/contracts/libraries/UniswapV2Library.sol\":4627:4690  amounts[i - 1] = getAmountIn(amounts[i], reserveIn, reserveOut) */\n      mstore\n      pop\n      pop\n      not(0x00)\n        /* \"v2-periphery-master/contracts/libraries/UniswapV2Library.sol\":4516:4519  i-- */\n      add\n        /* \"v2-periphery-master/contracts/libraries/UniswapV2Library.sol\":4478:4701  for (uint i = path.length - 1; i > 0; i--) {... */\n      jump(tag_458)\n        /* \"v2-periphery-master/contracts/UniswapV2Router01.sol\":868:2222  function _addLiquidity(... */\n    tag_235:\n        /* \"v2-periphery-master/contracts/UniswapV2Router01.sol\":1163:1213  IUniswapV2Factory(factory).getPair(tokenA, tokenB) */\n      0x40\n      dup1\n      mload\n      shl(0xe0, 0xe6a43905)\n      dup2\n      mstore\n      sub(shl(0xa0, 0x01), 0x01)\n      dup9\n      dup2\n      and\n      0x04\n      dup4\n      add\n      mstore\n      dup8\n      dup2\n      and\n      0x24\n      dup4\n      add\n      mstore\n      swap2\n      mload\n        /* \"v2-periphery-master/contracts/UniswapV2Router01.sol\":1070:1082  uint amountA */\n      0x00\n      swap3\n      dup4\n      swap3\n      dup4\n      swap3\n        /* \"v2-periphery-master/contracts/UniswapV2Router01.sol\":1181:1188  factory */\n      immutable(\"0x6085f6f924f4d3289e6bd2dcf255c34b40082df304bec05239cb2746d1d3eb0d\")\n        /* \"v2-periphery-master/contracts/UniswapV2Router01.sol\":1163:1197  IUniswapV2Factory(factory).getPair */\n      swap1\n      swap3\n      and\n      swap2\n      0xe6a43905\n      swap2\n        /* \"v2-periphery-master/contracts/UniswapV2Router01.sol\":1163:1213  IUniswapV2Factory(factory).getPair(tokenA, tokenB) */\n      0x44\n      dup1\n      dup3\n      add\n      swap3\n      0x20\n      swap3\n      swap1\n      swap2\n      swap1\n      dup3\n      swap1\n      sub\n      add\n      dup2\n        /* \"v2-periphery-master/contracts/UniswapV2Router01.sol\":1163:1197  IUniswapV2Factory(factory).getPair */\n      dup7\n        /* \"v2-periphery-master/contracts/UniswapV2Router01.sol\":1163:1213  IUniswapV2Factory(factory).getPair(tokenA, tokenB) */\n      dup1\n      extcodesize\n      iszero\n        /* \"--CODEGEN--\":2:4   */\n      dup1\n      iszero\n      tag_469\n      jumpi\n        /* \"--CODEGEN--\":27:28   */\n      0x00\n        /* \"--CODEGEN--\":24:25   */\n      dup1\n        /* \"--CODEGEN--\":17:29   */\n      revert\n        /* \"--CODEGEN--\":2:4   */\n    tag_469:\n        /* \"v2-periphery-master/contracts/UniswapV2Router01.sol\":1163:1213  IUniswapV2Factory(factory).getPair(tokenA, tokenB) */\n      pop\n      gas\n      staticcall\n      iszero\n        /* \"--CODEGEN--\":8:17   */\n      dup1\n        /* \"--CODEGEN--\":5:7   */\n      iszero\n      tag_471\n      jumpi\n        /* \"--CODEGEN--\":45:61   */\n      returndatasize\n        /* \"--CODEGEN--\":42:43   */\n      0x00\n        /* \"--CODEGEN--\":39:40   */\n      dup1\n        /* \"--CODEGEN--\":24:62   */\n      returndatacopy\n        /* \"--CODEGEN--\":77:93   */\n      returndatasize\n        /* \"--CODEGEN--\":74:75   */\n      0x00\n        /* \"--CODEGEN--\":67:94   */\n      revert\n        /* \"--CODEGEN--\":5:7   */\n    tag_471:\n        /* \"v2-periphery-master/contracts/UniswapV2Router01.sol\":1163:1213  IUniswapV2Factory(factory).getPair(tokenA, tokenB) */\n      pop\n      pop\n      pop\n      pop\n      mload(0x40)\n      returndatasize\n        /* \"--CODEGEN--\":15:17   */\n      0x20\n        /* \"--CODEGEN--\":10:13   */\n      dup2\n        /* \"--CODEGEN--\":7:18   */\n      lt\n        /* \"--CODEGEN--\":4:6   */\n      iszero\n      tag_472\n      jumpi\n        /* \"--CODEGEN--\":31:32   */\n      0x00\n        /* \"--CODEGEN--\":28:29   */\n      dup1\n        /* \"--CODEGEN--\":21:33   */\n      revert\n        /* \"--CODEGEN--\":4:6   */\n    tag_472:\n      pop\n        /* \"v2-periphery-master/contracts/UniswapV2Router01.sol\":1163:1213  IUniswapV2Factory(factory).getPair(tokenA, tokenB) */\n      mload\n      sub(shl(0xa0, 0x01), 0x01)\n        /* \"v2-periphery-master/contracts/UniswapV2Router01.sol\":1163:1227  IUniswapV2Factory(factory).getPair(tokenA, tokenB) == address(0) */\n      and\n      eq\n        /* \"v2-periphery-master/contracts/UniswapV2Router01.sol\":1159:1307  if (IUniswapV2Factory(factory).getPair(tokenA, tokenB) == address(0)) {... */\n      iszero\n      tag_473\n      jumpi\n        /* \"v2-periphery-master/contracts/UniswapV2Router01.sol\":1243:1296  IUniswapV2Factory(factory).createPair(tokenA, tokenB) */\n      0x40\n      dup1\n      mload\n      shl(0xe1, 0x64e329cb)\n      dup2\n      mstore\n      sub(shl(0xa0, 0x01), 0x01)\n      dup11\n      dup2\n      and\n      0x04\n      dup4\n      add\n      mstore\n      dup10\n      dup2\n      and\n      0x24\n      dup4\n      add\n      mstore\n      swap2\n      mload\n        /* \"v2-periphery-master/contracts/UniswapV2Router01.sol\":1261:1268  factory */\n      immutable(\"0x6085f6f924f4d3289e6bd2dcf255c34b40082df304bec05239cb2746d1d3eb0d\")\n        /* \"v2-periphery-master/contracts/UniswapV2Router01.sol\":1243:1280  IUniswapV2Factory(factory).createPair */\n      swap1\n      swap3\n      and\n      swap2\n      0xc9c65396\n      swap2\n        /* \"v2-periphery-master/contracts/UniswapV2Router01.sol\":1243:1296  IUniswapV2Factory(factory).createPair(tokenA, tokenB) */\n      0x44\n      dup1\n      dup3\n      add\n      swap3\n      0x20\n      swap3\n      swap1\n      swap2\n      swap1\n      dup3\n      swap1\n      sub\n      add\n      dup2\n      0x00\n        /* \"v2-periphery-master/contracts/UniswapV2Router01.sol\":1243:1280  IUniswapV2Factory(factory).createPair */\n      dup8\n        /* \"v2-periphery-master/contracts/UniswapV2Router01.sol\":1243:1296  IUniswapV2Factory(factory).createPair(tokenA, tokenB) */\n      dup1\n      extcodesize\n      iszero\n        /* \"--CODEGEN--\":2:4   */\n      dup1\n      iszero\n      tag_474\n      jumpi\n        /* \"--CODEGEN--\":27:28   */\n      0x00\n        /* \"--CODEGEN--\":24:25   */\n      dup1\n        /* \"--CODEGEN--\":17:29   */\n      revert\n        /* \"--CODEGEN--\":2:4   */\n    tag_474:\n        /* \"v2-periphery-master/contracts/UniswapV2Router01.sol\":1243:1296  IUniswapV2Factory(factory).createPair(tokenA, tokenB) */\n      pop\n      gas\n      call\n      iszero\n        /* \"--CODEGEN--\":8:17   */\n      dup1\n        /* \"--CODEGEN--\":5:7   */\n      iszero\n      tag_476\n      jumpi\n        /* \"--CODEGEN--\":45:61   */\n      returndatasize\n        /* \"--CODEGEN--\":42:43   */\n      0x00\n        /* \"--CODEGEN--\":39:40   */\n      dup1\n        /* \"--CODEGEN--\":24:62   */\n      returndatacopy\n        /* \"--CODEGEN--\":77:93   */\n      returndatasize\n        /* \"--CODEGEN--\":74:75   */\n      0x00\n        /* \"--CODEGEN--\":67:94   */\n      revert\n        /* \"--CODEGEN--\":5:7   */\n    tag_476:\n        /* \"v2-periphery-master/contracts/UniswapV2Router01.sol\":1243:1296  IUniswapV2Factory(factory).createPair(tokenA, tokenB) */\n      pop\n      pop\n      pop\n      pop\n      mload(0x40)\n      returndatasize\n        /* \"--CODEGEN--\":15:17   */\n      0x20\n        /* \"--CODEGEN--\":10:13   */\n      dup2\n        /* \"--CODEGEN--\":7:18   */\n      lt\n        /* \"--CODEGEN--\":4:6   */\n      iszero\n      tag_477\n      jumpi\n        /* \"--CODEGEN--\":31:32   */\n      0x00\n        /* \"--CODEGEN--\":28:29   */\n      dup1\n        /* \"--CODEGEN--\":21:33   */\n      revert\n        /* \"--CODEGEN--\":4:6   */\n    tag_477:\n      pop\n      pop\n        /* \"v2-periphery-master/contracts/UniswapV2Router01.sol\":1159:1307  if (IUniswapV2Factory(factory).getPair(tokenA, tokenB) == address(0)) {... */\n    tag_473:\n        /* \"v2-periphery-master/contracts/UniswapV2Router01.sol\":1317:1330  uint reserveA */\n      0x00\n        /* \"v2-periphery-master/contracts/UniswapV2Router01.sol\":1332:1345  uint reserveB */\n      dup1\n        /* \"v2-periphery-master/contracts/UniswapV2Router01.sol\":1349:1402  UniswapV2Library.getReserves(factory, tokenA, tokenB) */\n      tag_478\n        /* \"v2-periphery-master/contracts/UniswapV2Router01.sol\":1378:1385  factory */\n      immutable(\"0x6085f6f924f4d3289e6bd2dcf255c34b40082df304bec05239cb2746d1d3eb0d\")\n        /* \"v2-periphery-master/contracts/UniswapV2Router01.sol\":1387:1393  tokenA */\n      dup12\n        /* \"v2-periphery-master/contracts/UniswapV2Router01.sol\":1395:1401  tokenB */\n      dup12\n        /* \"v2-periphery-master/contracts/UniswapV2Router01.sol\":1349:1377  UniswapV2Library.getReserves */\n      tag_412\n        /* \"v2-periphery-master/contracts/UniswapV2Router01.sol\":1349:1402  UniswapV2Library.getReserves(factory, tokenA, tokenB) */\n      jump\t// in\n    tag_478:\n        /* \"v2-periphery-master/contracts/UniswapV2Router01.sol\":1316:1402  (uint reserveA, uint reserveB) = UniswapV2Library.getReserves(factory, tokenA, tokenB) */\n      swap2\n      pop\n      swap2\n      pop\n        /* \"v2-periphery-master/contracts/UniswapV2Router01.sol\":1416:1424  reserveA */\n      dup2\n        /* \"v2-periphery-master/contracts/UniswapV2Router01.sol\":1428:1429  0 */\n      0x00\n        /* \"v2-periphery-master/contracts/UniswapV2Router01.sol\":1416:1429  reserveA == 0 */\n      eq\n        /* \"v2-periphery-master/contracts/UniswapV2Router01.sol\":1416:1446  reserveA == 0 && reserveB == 0 */\n      dup1\n      iszero\n      tag_479\n      jumpi\n      pop\n        /* \"v2-periphery-master/contracts/UniswapV2Router01.sol\":1433:1446  reserveB == 0 */\n      dup1\n      iszero\n        /* \"v2-periphery-master/contracts/UniswapV2Router01.sol\":1416:1446  reserveA == 0 && reserveB == 0 */\n    tag_479:\n        /* \"v2-periphery-master/contracts/UniswapV2Router01.sol\":1412:2216  if (reserveA == 0 && reserveB == 0) {... */\n      iszero\n      tag_480\n      jumpi\n        /* \"v2-periphery-master/contracts/UniswapV2Router01.sol\":1484:1498  amountADesired */\n      dup8\n      swap4\n      pop\n        /* \"v2-periphery-master/contracts/UniswapV2Router01.sol\":1500:1514  amountBDesired */\n      dup7\n      swap3\n      pop\n        /* \"v2-periphery-master/contracts/UniswapV2Router01.sol\":1412:2216  if (reserveA == 0 && reserveB == 0) {... */\n      jump(tag_481)\n    tag_480:\n        /* \"v2-periphery-master/contracts/UniswapV2Router01.sol\":1546:1565  uint amountBOptimal */\n      0x00\n        /* \"v2-periphery-master/contracts/UniswapV2Router01.sol\":1568:1626  UniswapV2Library.quote(amountADesired, reserveA, reserveB) */\n      tag_482\n        /* \"v2-periphery-master/contracts/UniswapV2Router01.sol\":1591:1605  amountADesired */\n      dup10\n        /* \"v2-periphery-master/contracts/UniswapV2Router01.sol\":1607:1615  reserveA */\n      dup5\n        /* \"v2-periphery-master/contracts/UniswapV2Router01.sol\":1617:1625  reserveB */\n      dup5\n        /* \"v2-periphery-master/contracts/UniswapV2Router01.sol\":1568:1590  UniswapV2Library.quote */\n      tag_314\n        /* \"v2-periphery-master/contracts/UniswapV2Router01.sol\":1568:1626  UniswapV2Library.quote(amountADesired, reserveA, reserveB) */\n      jump\t// in\n    tag_482:\n        /* \"v2-periphery-master/contracts/UniswapV2Router01.sol\":1546:1626  uint amountBOptimal = UniswapV2Library.quote(amountADesired, reserveA, reserveB) */\n      swap1\n      pop\n        /* \"v2-periphery-master/contracts/UniswapV2Router01.sol\":1662:1676  amountBDesired */\n      dup8\n        /* \"v2-periphery-master/contracts/UniswapV2Router01.sol\":1644:1658  amountBOptimal */\n      dup2\n        /* \"v2-periphery-master/contracts/UniswapV2Router01.sol\":1644:1676  amountBOptimal <= amountBDesired */\n      gt\n        /* \"v2-periphery-master/contracts/UniswapV2Router01.sol\":1640:2206  if (amountBOptimal <= amountBDesired) {... */\n      tag_483\n      jumpi\n        /* \"v2-periphery-master/contracts/UniswapV2Router01.sol\":1722:1732  amountBMin */\n      dup6\n        /* \"v2-periphery-master/contracts/UniswapV2Router01.sol\":1704:1718  amountBOptimal */\n      dup2\n        /* \"v2-periphery-master/contracts/UniswapV2Router01.sol\":1704:1732  amountBOptimal >= amountBMin */\n      lt\n      iszero\n        /* \"v2-periphery-master/contracts/UniswapV2Router01.sol\":1696:1775  require(amountBOptimal >= amountBMin, 'UniswapV2Router: INSUFFICIENT_B_AMOUNT') */\n      tag_484\n      jumpi\n      mload(0x40)\n      shl(0xe5, 0x461bcd)\n      dup2\n      mstore\n      0x04\n      add\n      dup1\n      dup1\n      0x20\n      add\n      dup3\n      dup2\n      sub\n      dup3\n      mstore\n      0x26\n      dup2\n      mstore\n      0x20\n      add\n      dup1\n      data_508673fa99dd55571c7741114b40754785309d1a2171022cd7c5caaae38fc7b6\n      0x26\n      swap2\n      codecopy\n      0x40\n      add\n      swap2\n      pop\n      pop\n      mload(0x40)\n      dup1\n      swap2\n      sub\n      swap1\n      revert\n    tag_484:\n        /* \"v2-periphery-master/contracts/UniswapV2Router01.sol\":1815:1829  amountADesired */\n      dup9\n      swap5\n      pop\n        /* \"v2-periphery-master/contracts/UniswapV2Router01.sol\":1831:1845  amountBOptimal */\n      swap3\n      pop\n      dup3\n        /* \"v2-periphery-master/contracts/UniswapV2Router01.sol\":1640:2206  if (amountBOptimal <= amountBDesired) {... */\n      jump(tag_485)\n    tag_483:\n        /* \"v2-periphery-master/contracts/UniswapV2Router01.sol\":1885:1904  uint amountAOptimal */\n      0x00\n        /* \"v2-periphery-master/contracts/UniswapV2Router01.sol\":1907:1965  UniswapV2Library.quote(amountBDesired, reserveB, reserveA) */\n      tag_486\n        /* \"v2-periphery-master/contracts/UniswapV2Router01.sol\":1930:1944  amountBDesired */\n      dup10\n        /* \"v2-periphery-master/contracts/UniswapV2Router01.sol\":1946:1954  reserveB */\n      dup5\n        /* \"v2-periphery-master/contracts/UniswapV2Router01.sol\":1956:1964  reserveA */\n      dup7\n        /* \"v2-periphery-master/contracts/UniswapV2Router01.sol\":1907:1929  UniswapV2Library.quote */\n      tag_314\n        /* \"v2-periphery-master/contracts/UniswapV2Router01.sol\":1907:1965  UniswapV2Library.quote(amountBDesired, reserveB, reserveA) */\n      jump\t// in\n    tag_486:\n        /* \"v2-periphery-master/contracts/UniswapV2Router01.sol\":1885:1965  uint amountAOptimal = UniswapV2Library.quote(amountBDesired, reserveB, reserveA) */\n      swap1\n      pop\n        /* \"v2-periphery-master/contracts/UniswapV2Router01.sol\":2008:2022  amountADesired */\n      dup10\n        /* \"v2-periphery-master/contracts/UniswapV2Router01.sol\":1990:2004  amountAOptimal */\n      dup2\n        /* \"v2-periphery-master/contracts/UniswapV2Router01.sol\":1990:2022  amountAOptimal <= amountADesired */\n      gt\n      iszero\n        /* \"v2-periphery-master/contracts/UniswapV2Router01.sol\":1983:2023  assert(amountAOptimal <= amountADesired) */\n      tag_487\n      jumpi\n      invalid\n    tag_487:\n        /* \"v2-periphery-master/contracts/UniswapV2Router01.sol\":2067:2077  amountAMin */\n      dup8\n        /* \"v2-periphery-master/contracts/UniswapV2Router01.sol\":2049:2063  amountAOptimal */\n      dup2\n        /* \"v2-periphery-master/contracts/UniswapV2Router01.sol\":2049:2077  amountAOptimal >= amountAMin */\n      lt\n      iszero\n        /* \"v2-periphery-master/contracts/UniswapV2Router01.sol\":2041:2120  require(amountAOptimal >= amountAMin, 'UniswapV2Router: INSUFFICIENT_A_AMOUNT') */\n      tag_488\n      jumpi\n      mload(0x40)\n      shl(0xe5, 0x461bcd)\n      dup2\n      mstore\n      0x04\n      add\n      dup1\n      dup1\n      0x20\n      add\n      dup3\n      dup2\n      sub\n      dup3\n      mstore\n      0x26\n      dup2\n      mstore\n      0x20\n      add\n      dup1\n      data_d1d32edc232bc1da2150d590567c5d6321ade8a80edcd2485e6068d018c7fd67\n      0x26\n      swap2\n      codecopy\n      0x40\n      add\n      swap2\n      pop\n      pop\n      mload(0x40)\n      dup1\n      swap2\n      sub\n      swap1\n      revert\n    tag_488:\n        /* \"v2-periphery-master/contracts/UniswapV2Router01.sol\":2160:2174  amountAOptimal */\n      swap5\n      pop\n        /* \"v2-periphery-master/contracts/UniswapV2Router01.sol\":2176:2190  amountBDesired */\n      dup8\n      swap4\n      pop\n        /* \"v2-periphery-master/contracts/UniswapV2Router01.sol\":1640:2206  if (amountBOptimal <= amountBDesired) {... */\n    tag_485:\n        /* \"v2-periphery-master/contracts/UniswapV2Router01.sol\":1412:2216  if (reserveA == 0 && reserveB == 0) {... */\n      pop\n    tag_481:\n        /* \"v2-periphery-master/contracts/UniswapV2Router01.sol\":868:2222  function _addLiquidity(... */\n      pop\n      pop\n      swap7\n      pop\n      swap7\n      swap5\n      pop\n      pop\n      pop\n      pop\n      pop\n      jump\t// out\n        /* \"v2-periphery-master/contracts/libraries/UniswapV2Library.sol\":1933:2250  function quote(uint amountA, uint reserveA, uint reserveB) internal pure returns (uint amountB) {... */\n    tag_314:\n        /* \"v2-periphery-master/contracts/libraries/UniswapV2Library.sol\":2015:2027  uint amountB */\n      0x00\n        /* \"v2-periphery-master/contracts/libraries/UniswapV2Library.sol\":2057:2058  0 */\n      dup1\n        /* \"v2-periphery-master/contracts/libraries/UniswapV2Library.sol\":2047:2054  amountA */\n      dup5\n        /* \"v2-periphery-master/contracts/libraries/UniswapV2Library.sol\":2047:2058  amountA > 0 */\n      gt\n        /* \"v2-periphery-master/contracts/libraries/UniswapV2Library.sol\":2039:2100  require(amountA > 0, 'UniswapV2Library: INSUFFICIENT_AMOUNT') */\n      tag_490\n      jumpi\n      mload(0x40)\n      shl(0xe5, 0x461bcd)\n      dup2\n      mstore\n      0x04\n      add\n      dup1\n      dup1\n      0x20\n      add\n      dup3\n      dup2\n      sub\n      dup3\n      mstore\n      0x25\n      dup2\n      mstore\n      0x20\n      add\n      dup1\n      data_b3ea0cd729028efbc737ad3cde1d4d854e6f2c136b354fbaea9389d68bc3a146\n      0x25\n      swap2\n      codecopy\n      0x40\n      add\n      swap2\n      pop\n      pop\n      mload(0x40)\n      dup1\n      swap2\n      sub\n      swap1\n      revert\n    tag_490:\n        /* \"v2-periphery-master/contracts/libraries/UniswapV2Library.sol\":2129:2130  0 */\n      0x00\n        /* \"v2-periphery-master/contracts/libraries/UniswapV2Library.sol\":2118:2126  reserveA */\n      dup4\n        /* \"v2-periphery-master/contracts/libraries/UniswapV2Library.sol\":2118:2130  reserveA > 0 */\n      gt\n        /* \"v2-periphery-master/contracts/libraries/UniswapV2Library.sol\":2118:2146  reserveA > 0 && reserveB > 0 */\n      dup1\n      iszero\n      tag_491\n      jumpi\n      pop\n        /* \"v2-periphery-master/contracts/libraries/UniswapV2Library.sol\":2145:2146  0 */\n      0x00\n        /* \"v2-periphery-master/contracts/libraries/UniswapV2Library.sol\":2134:2142  reserveB */\n      dup3\n        /* \"v2-periphery-master/contracts/libraries/UniswapV2Library.sol\":2134:2146  reserveB > 0 */\n      gt\n        /* \"v2-periphery-master/contracts/libraries/UniswapV2Library.sol\":2118:2146  reserveA > 0 && reserveB > 0 */\n    tag_491:\n        /* \"v2-periphery-master/contracts/libraries/UniswapV2Library.sol\":2110:2191  require(reserveA > 0 && reserveB > 0, 'UniswapV2Library: INSUFFICIENT_LIQUIDITY') */\n      tag_492\n      jumpi\n      mload(0x40)\n      shl(0xe5, 0x461bcd)\n      dup2\n      mstore\n      0x04\n      add\n      dup1\n      dup1\n      0x20\n      add\n      dup3\n      dup2\n      sub\n      dup3\n      mstore\n      0x28\n      dup2\n      mstore\n      0x20\n      add\n      dup1\n      data_7e8d6b265173dbbd87b3b9e2bf4238bea6caf2b2bbeb63f859a738aec9e761c8\n      0x28\n      swap2\n      codecopy\n      0x40\n      add\n      swap2\n      pop\n      pop\n      mload(0x40)\n      dup1\n      swap2\n      sub\n      swap1\n      revert\n    tag_492:\n        /* \"v2-periphery-master/contracts/libraries/UniswapV2Library.sol\":2235:2243  reserveA */\n      dup3\n        /* \"v2-periphery-master/contracts/libraries/UniswapV2Library.sol\":2211:2232  amountA.mul(reserveB) */\n      tag_493\n        /* \"v2-periphery-master/contracts/libraries/UniswapV2Library.sol\":2211:2218  amountA */\n      dup6\n        /* \"v2-periphery-master/contracts/libraries/UniswapV2Library.sol\":2223:2231  reserveB */\n      dup5\n        /* \"v2-periphery-master/contracts/libraries/UniswapV2Library.sol\":2211:2232  amountA.mul(reserveB) */\n      0xffffffff\n        /* \"v2-periphery-master/contracts/libraries/UniswapV2Library.sol\":2211:2222  amountA.mul */\n      tag_395\n        /* \"v2-periphery-master/contracts/libraries/UniswapV2Library.sol\":2211:2232  amountA.mul(reserveB) */\n      and\n      jump\t// in\n    tag_493:\n        /* \"v2-periphery-master/contracts/libraries/UniswapV2Library.sol\":2211:2243  amountA.mul(reserveB) / reserveA */\n      dup2\n      tag_494\n      jumpi\n      invalid\n    tag_494:\n      div\n      swap5\n        /* \"v2-periphery-master/contracts/libraries/UniswapV2Library.sol\":1933:2250  function quote(uint amountA, uint reserveA, uint reserveB) internal pure returns (uint amountB) {... */\n      swap4\n      pop\n      pop\n      pop\n      pop\n      jump\t// out\n        /* \"v2-periphery-master/contracts/libraries/UniswapV2Library.sol\":315:660  function sortTokens(address tokenA, address tokenB) internal pure returns (address token0, address token1) {... */\n    tag_328:\n        /* \"v2-periphery-master/contracts/libraries/UniswapV2Library.sol\":390:404  address token0 */\n      0x00\n        /* \"v2-periphery-master/contracts/libraries/UniswapV2Library.sol\":406:420  address token1 */\n      dup1\n        /* \"v2-periphery-master/contracts/libraries/UniswapV2Library.sol\":450:456  tokenB */\n      dup3\n      sub(shl(0xa0, 0x01), 0x01)\n        /* \"v2-periphery-master/contracts/libraries/UniswapV2Library.sol\":440:456  tokenA != tokenB */\n      and\n        /* \"v2-periphery-master/contracts/libraries/UniswapV2Library.sol\":440:446  tokenA */\n      dup5\n      sub(shl(0xa0, 0x01), 0x01)\n        /* \"v2-periphery-master/contracts/libraries/UniswapV2Library.sol\":440:456  tokenA != tokenB */\n      and\n      eq\n      iszero\n        /* \"v2-periphery-master/contracts/libraries/UniswapV2Library.sol\":432:498  require(tokenA != tokenB, 'UniswapV2Library: IDENTICAL_ADDRESSES') */\n      tag_496\n      jumpi\n      mload(0x40)\n      shl(0xe5, 0x461bcd)\n      dup2\n      mstore\n      0x04\n      add\n      dup1\n      dup1\n      0x20\n      add\n      dup3\n      dup2\n      sub\n      dup3\n      mstore\n      0x25\n      dup2\n      mstore\n      0x20\n      add\n      dup1\n      data_4ddc3ca35a8b7ccaa016ab70252fdf3396ded4f4fd8375f95b1e9d99790fcdca\n      0x25\n      swap2\n      codecopy\n      0x40\n      add\n      swap2\n      pop\n      pop\n      mload(0x40)\n      dup1\n      swap2\n      sub\n      swap1\n      revert\n    tag_496:\n        /* \"v2-periphery-master/contracts/libraries/UniswapV2Library.sol\":536:542  tokenB */\n      dup3\n      sub(shl(0xa0, 0x01), 0x01)\n        /* \"v2-periphery-master/contracts/libraries/UniswapV2Library.sol\":527:542  tokenA < tokenB */\n      and\n        /* \"v2-periphery-master/contracts/libraries/UniswapV2Library.sol\":527:533  tokenA */\n      dup5\n      sub(shl(0xa0, 0x01), 0x01)\n        /* \"v2-periphery-master/contracts/libraries/UniswapV2Library.sol\":527:542  tokenA < tokenB */\n      and\n      lt\n        /* \"v2-periphery-master/contracts/libraries/UniswapV2Library.sol\":527:580  tokenA < tokenB ? (tokenA, tokenB) : (tokenB, tokenA) */\n      tag_497\n      jumpi\n        /* \"v2-periphery-master/contracts/libraries/UniswapV2Library.sol\":565:571  tokenB */\n      dup3\n        /* \"v2-periphery-master/contracts/libraries/UniswapV2Library.sol\":573:579  tokenA */\n      dup5\n        /* \"v2-periphery-master/contracts/libraries/UniswapV2Library.sol\":527:580  tokenA < tokenB ? (tokenA, tokenB) : (tokenB, tokenA) */\n      jump(tag_498)\n    tag_497:\n        /* \"v2-periphery-master/contracts/libraries/UniswapV2Library.sol\":546:552  tokenA */\n      dup4\n        /* \"v2-periphery-master/contracts/libraries/UniswapV2Library.sol\":554:560  tokenB */\n      dup4\n        /* \"v2-periphery-master/contracts/libraries/UniswapV2Library.sol\":527:580  tokenA < tokenB ? (tokenA, tokenB) : (tokenB, tokenA) */\n    tag_498:\n        /* \"v2-periphery-master/contracts/libraries/UniswapV2Library.sol\":508:580  (token0, token1) = tokenA < tokenB ? (tokenA, tokenB) : (tokenB, tokenA) */\n      swap1\n      swap3\n      pop\n      swap1\n      pop\n      sub(shl(0xa0, 0x01), 0x01)\n        /* \"v2-periphery-master/contracts/libraries/UniswapV2Library.sol\":598:618  token0 != address(0) */\n      dup3\n      and\n        /* \"v2-periphery-master/contracts/libraries/UniswapV2Library.sol\":590:653  require(token0 != address(0), 'UniswapV2Library: ZERO_ADDRESS') */\n      tag_499\n      jumpi\n      0x40\n      dup1\n      mload\n      shl(0xe5, 0x461bcd)\n      dup2\n      mstore\n      0x20\n      0x04\n      dup3\n      add\n      mstore\n      0x1e\n      0x24\n      dup3\n      add\n      mstore\n      0x556e697377617056324c6962726172793a205a45524f5f414444524553530000\n      0x44\n      dup3\n      add\n      mstore\n      swap1\n      mload\n      swap1\n      dup2\n      swap1\n      sub\n      0x64\n      add\n      swap1\n      revert\n    tag_499:\n        /* \"v2-periphery-master/contracts/libraries/UniswapV2Library.sol\":315:660  function sortTokens(address tokenA, address tokenB) internal pure returns (address token0, address token1) {... */\n      swap3\n      pop\n      swap3\n      swap1\n      pop\n      jump\t// out\n        /* \"v2-periphery-master/contracts/libraries/SafeMath.sol\":419:559  function mul(uint x, uint y) internal pure returns (uint z) {... */\n    tag_395:\n        /* \"v2-periphery-master/contracts/libraries/SafeMath.sol\":471:477  uint z */\n      0x00\n        /* \"v2-periphery-master/contracts/libraries/SafeMath.sol\":497:503  y == 0 */\n      dup2\n      iszero\n      dup1\n        /* \"v2-periphery-master/contracts/libraries/SafeMath.sol\":497:527  y == 0 || (z = x * y) / y == x */\n      tag_501\n      jumpi\n      pop\n      pop\n        /* \"v2-periphery-master/contracts/libraries/SafeMath.sol\":512:517  x * y */\n      dup1\n      dup3\n      mul\n        /* \"v2-periphery-master/contracts/libraries/SafeMath.sol\":526:527  x */\n      dup3\n        /* \"v2-periphery-master/contracts/libraries/SafeMath.sol\":521:522  y */\n      dup3\n        /* \"v2-periphery-master/contracts/libraries/SafeMath.sol\":512:517  x * y */\n      dup3\n        /* \"v2-periphery-master/contracts/libraries/SafeMath.sol\":521:522  y */\n      dup2\n        /* \"v2-periphery-master/contracts/libraries/SafeMath.sol\":507:522  (z = x * y) / y */\n      tag_502\n      jumpi\n      invalid\n    tag_502:\n      div\n        /* \"v2-periphery-master/contracts/libraries/SafeMath.sol\":507:527  (z = x * y) / y == x */\n      eq\n        /* \"v2-periphery-master/contracts/libraries/SafeMath.sol\":497:527  y == 0 || (z = x * y) / y == x */\n    tag_501:\n        /* \"v2-periphery-master/contracts/libraries/SafeMath.sol\":489:552  require(y == 0 || (z = x * y) / y == x, 'ds-math-mul-overflow') */\n      tag_186\n      jumpi\n      0x40\n      dup1\n      mload\n      shl(0xe5, 0x461bcd)\n      dup2\n      mstore\n      0x20\n      0x04\n      dup3\n      add\n      mstore\n      0x14\n      0x24\n      dup3\n      add\n      mstore\n      shl(0x60, 0x64732d6d6174682d6d756c2d6f766572666c6f77)\n      0x44\n      dup3\n      add\n      mstore\n      swap1\n      mload\n      swap1\n      dup2\n      swap1\n      sub\n      0x64\n      add\n      swap1\n      revert\n        /* \"v2-periphery-master/contracts/libraries/SafeMath.sol\":154:280  function add(uint x, uint y) internal pure returns (uint z) {... */\n    tag_399:\n        /* \"v2-periphery-master/contracts/libraries/SafeMath.sol\":237:242  x + y */\n      dup1\n      dup3\n      add\n        /* \"v2-periphery-master/contracts/libraries/SafeMath.sol\":232:248  (z = x + y) >= x */\n      dup3\n      dup2\n      lt\n      iszero\n        /* \"v2-periphery-master/contracts/libraries/SafeMath.sol\":224:273  require((z = x + y) >= x, 'ds-math-add-overflow') */\n      tag_186\n      jumpi\n      0x40\n      dup1\n      mload\n      shl(0xe5, 0x461bcd)\n      dup2\n      mstore\n      0x20\n      0x04\n      dup3\n      add\n      mstore\n      0x14\n      0x24\n      dup3\n      add\n      mstore\n      shl(0x60, 0x64732d6d6174682d6164642d6f766572666c6f77)\n      0x44\n      dup3\n      add\n      mstore\n      swap1\n      mload\n      swap1\n      dup2\n      swap1\n      sub\n      0x64\n      add\n      swap1\n      revert\n        /* \"v2-periphery-master/contracts/libraries/UniswapV2Library.sol\":1404:1823  function getReserves(... */\n    tag_412:\n        /* \"v2-periphery-master/contracts/libraries/UniswapV2Library.sol\":1527:1540  uint reserveA */\n      0x00\n        /* \"v2-periphery-master/contracts/libraries/UniswapV2Library.sol\":1542:1555  uint reserveB */\n      dup1\n        /* \"v2-periphery-master/contracts/libraries/UniswapV2Library.sol\":1568:1582  address token0 */\n      0x00\n        /* \"v2-periphery-master/contracts/libraries/UniswapV2Library.sol\":1588:1614  sortTokens(tokenA, tokenB) */\n      tag_507\n        /* \"v2-periphery-master/contracts/libraries/UniswapV2Library.sol\":1599:1605  tokenA */\n      dup6\n        /* \"v2-periphery-master/contracts/libraries/UniswapV2Library.sol\":1607:1613  tokenB */\n      dup6\n        /* \"v2-periphery-master/contracts/libraries/UniswapV2Library.sol\":1588:1598  sortTokens */\n      tag_328\n        /* \"v2-periphery-master/contracts/libraries/UniswapV2Library.sol\":1588:1614  sortTokens(tokenA, tokenB) */\n      jump\t// in\n    tag_507:\n        /* \"v2-periphery-master/contracts/libraries/UniswapV2Library.sol\":1567:1614  (address token0, ) = sortTokens(tokenA, tokenB) */\n      pop\n      swap1\n      pop\n        /* \"v2-periphery-master/contracts/libraries/UniswapV2Library.sol\":1625:1638  uint reserve0 */\n      0x00\n        /* \"v2-periphery-master/contracts/libraries/UniswapV2Library.sol\":1640:1653  uint reserve1 */\n      dup1\n        /* \"v2-periphery-master/contracts/libraries/UniswapV2Library.sol\":1674:1706  pairFor(factory, tokenA, tokenB) */\n      tag_508\n        /* \"v2-periphery-master/contracts/libraries/UniswapV2Library.sol\":1682:1689  factory */\n      dup9\n        /* \"v2-periphery-master/contracts/libraries/UniswapV2Library.sol\":1691:1697  tokenA */\n      dup9\n        /* \"v2-periphery-master/contracts/libraries/UniswapV2Library.sol\":1699:1705  tokenB */\n      dup9\n        /* \"v2-periphery-master/contracts/libraries/UniswapV2Library.sol\":1674:1681  pairFor */\n      tag_175\n        /* \"v2-periphery-master/contracts/libraries/UniswapV2Library.sol\":1674:1706  pairFor(factory, tokenA, tokenB) */\n      jump\t// in\n    tag_508:\n      sub(shl(0xa0, 0x01), 0x01)\n        /* \"v2-periphery-master/contracts/libraries/UniswapV2Library.sol\":1659:1719  IUniswapV2Pair(pairFor(factory, tokenA, tokenB)).getReserves */\n      and\n      0x0902f1ac\n        /* \"v2-periphery-master/contracts/libraries/UniswapV2Library.sol\":1659:1721  IUniswapV2Pair(pairFor(factory, tokenA, tokenB)).getReserves() */\n      mload(0x40)\n      dup2\n      0xffffffff\n      and\n      0xe0\n      shl\n      dup2\n      mstore\n      0x04\n      add\n      0x60\n      mload(0x40)\n      dup1\n      dup4\n      sub\n      dup2\n      dup7\n      dup1\n      extcodesize\n      iszero\n        /* \"--CODEGEN--\":5:14   */\n      dup1\n        /* \"--CODEGEN--\":2:4   */\n      iszero\n      tag_509\n      jumpi\n        /* \"--CODEGEN--\":27:28   */\n      0x00\n        /* \"--CODEGEN--\":24:25   */\n      dup1\n        /* \"--CODEGEN--\":17:29   */\n      revert\n        /* \"--CODEGEN--\":2:4   */\n    tag_509:\n        /* \"v2-periphery-master/contracts/libraries/UniswapV2Library.sol\":1659:1721  IUniswapV2Pair(pairFor(factory, tokenA, tokenB)).getReserves() */\n      pop\n      gas\n      staticcall\n      iszero\n        /* \"--CODEGEN--\":8:17   */\n      dup1\n        /* \"--CODEGEN--\":5:7   */\n      iszero\n      tag_511\n      jumpi\n        /* \"--CODEGEN--\":45:61   */\n      returndatasize\n        /* \"--CODEGEN--\":42:43   */\n      0x00\n        /* \"--CODEGEN--\":39:40   */\n      dup1\n        /* \"--CODEGEN--\":24:62   */\n      returndatacopy\n        /* \"--CODEGEN--\":77:93   */\n      returndatasize\n        /* \"--CODEGEN--\":74:75   */\n      0x00\n        /* \"--CODEGEN--\":67:94   */\n      revert\n        /* \"--CODEGEN--\":5:7   */\n    tag_511:\n        /* \"v2-periphery-master/contracts/libraries/UniswapV2Library.sol\":1659:1721  IUniswapV2Pair(pairFor(factory, tokenA, tokenB)).getReserves() */\n      pop\n      pop\n      pop\n      pop\n      mload(0x40)\n      returndatasize\n        /* \"--CODEGEN--\":15:17   */\n      0x60\n        /* \"--CODEGEN--\":10:13   */\n      dup2\n        /* \"--CODEGEN--\":7:18   */\n      lt\n        /* \"--CODEGEN--\":4:6   */\n      iszero\n      tag_512\n      jumpi\n        /* \"--CODEGEN--\":31:32   */\n      0x00\n        /* \"--CODEGEN--\":28:29   */\n      dup1\n        /* \"--CODEGEN--\":21:33   */\n      revert\n        /* \"--CODEGEN--\":4:6   */\n    tag_512:\n      pop\n        /* \"v2-periphery-master/contracts/libraries/UniswapV2Library.sol\":1659:1721  IUniswapV2Pair(pairFor(factory, tokenA, tokenB)).getReserves() */\n      dup1\n      mload\n      0x20\n      swap1\n      swap2\n      add\n      mload\n        /* \"v2-periphery-master/contracts/libraries/UniswapV2Library.sol\":1624:1721  (uint reserve0, uint reserve1, ) = IUniswapV2Pair(pairFor(factory, tokenA, tokenB)).getReserves() */\n      0xffffffffffffffffffffffffffff\n      swap2\n      dup3\n      and\n      swap4\n      pop\n      and\n      swap1\n      pop\n      sub(shl(0xa0, 0x01), 0x01)\n        /* \"v2-periphery-master/contracts/libraries/UniswapV2Library.sol\":1754:1770  tokenA == token0 */\n      dup8\n      dup2\n      and\n      swap1\n      dup5\n      and\n      eq\n        /* \"v2-periphery-master/contracts/libraries/UniswapV2Library.sol\":1754:1816  tokenA == token0 ? (reserve0, reserve1) : (reserve1, reserve0) */\n      tag_513\n      jumpi\n        /* \"v2-periphery-master/contracts/libraries/UniswapV2Library.sol\":1797:1805  reserve1 */\n      dup1\n        /* \"v2-periphery-master/contracts/libraries/UniswapV2Library.sol\":1807:1815  reserve0 */\n      dup3\n        /* \"v2-periphery-master/contracts/libraries/UniswapV2Library.sol\":1754:1816  tokenA == token0 ? (reserve0, reserve1) : (reserve1, reserve0) */\n      jump(tag_514)\n    tag_513:\n        /* \"v2-periphery-master/contracts/libraries/UniswapV2Library.sol\":1774:1782  reserve0 */\n      dup2\n        /* \"v2-periphery-master/contracts/libraries/UniswapV2Library.sol\":1784:1792  reserve1 */\n      dup2\n        /* \"v2-periphery-master/contracts/libraries/UniswapV2Library.sol\":1754:1816  tokenA == token0 ? (reserve0, reserve1) : (reserve1, reserve0) */\n    tag_514:\n        /* \"v2-periphery-master/contracts/libraries/UniswapV2Library.sol\":1731:1816  (reserveA, reserveB) = tokenA == token0 ? (reserve0, reserve1) : (reserve1, reserve0) */\n      swap1\n      swap10\n      swap1\n      swap9\n      pop\n        /* \"v2-periphery-master/contracts/libraries/UniswapV2Library.sol\":1404:1823  function getReserves(... */\n      swap7\n      pop\n      pop\n      pop\n      pop\n      pop\n      pop\n      pop\n      jump\t// out\n        /* \"v2-periphery-master/contracts/libraries/UniswapV2Library.sol\":2997:3463  function getAmountIn(uint amountOut, uint reserveIn, uint reserveOut) internal pure returns (uint amountIn) {... */\n    tag_466:\n        /* \"v2-periphery-master/contracts/libraries/UniswapV2Library.sol\":3090:3103  uint amountIn */\n      0x00\n        /* \"v2-periphery-master/contracts/libraries/UniswapV2Library.sol\":3135:3136  0 */\n      dup1\n        /* \"v2-periphery-master/contracts/libraries/UniswapV2Library.sol\":3123:3132  amountOut */\n      dup5\n        /* \"v2-periphery-master/contracts/libraries/UniswapV2Library.sol\":3123:3136  amountOut > 0 */\n      gt\n        /* \"v2-periphery-master/contracts/libraries/UniswapV2Library.sol\":3115:3185  require(amountOut > 0, 'UniswapV2Library: INSUFFICIENT_OUTPUT_AMOUNT') */\n      tag_516\n      jumpi\n      mload(0x40)\n      shl(0xe5, 0x461bcd)\n      dup2\n      mstore\n      0x04\n      add\n      dup1\n      dup1\n      0x20\n      add\n      dup3\n      dup2\n      sub\n      dup3\n      mstore\n      0x2c\n      dup2\n      mstore\n      0x20\n      add\n      dup1\n      data_35fb781059090c30aacad20e29b2e40e67f217617fc46f86031ed4eb14923a82\n      0x2c\n      swap2\n      codecopy\n      0x40\n      add\n      swap2\n      pop\n      pop\n      mload(0x40)\n      dup1\n      swap2\n      sub\n      swap1\n      revert\n    tag_516:\n        /* \"v2-periphery-master/contracts/libraries/UniswapV2Library.sol\":3215:3216  0 */\n      0x00\n        /* \"v2-periphery-master/contracts/libraries/UniswapV2Library.sol\":3203:3212  reserveIn */\n      dup4\n        /* \"v2-periphery-master/contracts/libraries/UniswapV2Library.sol\":3203:3216  reserveIn > 0 */\n      gt\n        /* \"v2-periphery-master/contracts/libraries/UniswapV2Library.sol\":3203:3234  reserveIn > 0 && reserveOut > 0 */\n      dup1\n      iszero\n      tag_517\n      jumpi\n      pop\n        /* \"v2-periphery-master/contracts/libraries/UniswapV2Library.sol\":3233:3234  0 */\n      0x00\n        /* \"v2-periphery-master/contracts/libraries/UniswapV2Library.sol\":3220:3230  reserveOut */\n      dup3\n        /* \"v2-periphery-master/contracts/libraries/UniswapV2Library.sol\":3220:3234  reserveOut > 0 */\n      gt\n        /* \"v2-periphery-master/contracts/libraries/UniswapV2Library.sol\":3203:3234  reserveIn > 0 && reserveOut > 0 */\n    tag_517:\n        /* \"v2-periphery-master/contracts/libraries/UniswapV2Library.sol\":3195:3279  require(reserveIn > 0 && reserveOut > 0, 'UniswapV2Library: INSUFFICIENT_LIQUIDITY') */\n      tag_518\n      jumpi\n      mload(0x40)\n      shl(0xe5, 0x461bcd)\n      dup2\n      mstore\n      0x04\n      add\n      dup1\n      dup1\n      0x20\n      add\n      dup3\n      dup2\n      sub\n      dup3\n      mstore\n      0x28\n      dup2\n      mstore\n      0x20\n      add\n      dup1\n      data_7e8d6b265173dbbd87b3b9e2bf4238bea6caf2b2bbeb63f859a738aec9e761c8\n      0x28\n      swap2\n      codecopy\n      0x40\n      add\n      swap2\n      pop\n      pop\n      mload(0x40)\n      dup1\n      swap2\n      sub\n      swap1\n      revert\n    tag_518:\n        /* \"v2-periphery-master/contracts/libraries/UniswapV2Library.sol\":3289:3303  uint numerator */\n      0x00\n        /* \"v2-periphery-master/contracts/libraries/UniswapV2Library.sol\":3306:3340  reserveIn.mul(amountOut).mul(1000) */\n      tag_519\n        /* \"v2-periphery-master/contracts/libraries/UniswapV2Library.sol\":3335:3339  1000 */\n      0x03e8\n        /* \"v2-periphery-master/contracts/libraries/UniswapV2Library.sol\":3306:3330  reserveIn.mul(amountOut) */\n      tag_520\n        /* \"v2-periphery-master/contracts/libraries/UniswapV2Library.sol\":3306:3315  reserveIn */\n      dup7\n        /* \"v2-periphery-master/contracts/libraries/UniswapV2Library.sol\":3320:3329  amountOut */\n      dup9\n        /* \"v2-periphery-master/contracts/libraries/UniswapV2Library.sol\":3306:3330  reserveIn.mul(amountOut) */\n      0xffffffff\n        /* \"v2-periphery-master/contracts/libraries/UniswapV2Library.sol\":3306:3319  reserveIn.mul */\n      tag_395\n        /* \"v2-periphery-master/contracts/libraries/UniswapV2Library.sol\":3306:3330  reserveIn.mul(amountOut) */\n      and\n      jump\t// in\n    tag_520:\n        /* \"v2-periphery-master/contracts/libraries/UniswapV2Library.sol\":3306:3334  reserveIn.mul(amountOut).mul */\n      swap1\n        /* \"v2-periphery-master/contracts/libraries/UniswapV2Library.sol\":3306:3340  reserveIn.mul(amountOut).mul(1000) */\n      0xffffffff\n        /* \"v2-periphery-master/contracts/libraries/UniswapV2Library.sol\":3306:3334  reserveIn.mul(amountOut).mul */\n      tag_395\n        /* \"v2-periphery-master/contracts/libraries/UniswapV2Library.sol\":3306:3340  reserveIn.mul(amountOut).mul(1000) */\n      and\n      jump\t// in\n    tag_519:\n        /* \"v2-periphery-master/contracts/libraries/UniswapV2Library.sol\":3289:3340  uint numerator = reserveIn.mul(amountOut).mul(1000) */\n      swap1\n      pop\n        /* \"v2-periphery-master/contracts/libraries/UniswapV2Library.sol\":3350:3366  uint denominator */\n      0x00\n        /* \"v2-periphery-master/contracts/libraries/UniswapV2Library.sol\":3369:3403  reserveOut.sub(amountOut).mul(997) */\n      tag_521\n        /* \"v2-periphery-master/contracts/libraries/UniswapV2Library.sol\":3399:3402  997 */\n      0x03e5\n        /* \"v2-periphery-master/contracts/libraries/UniswapV2Library.sol\":3369:3394  reserveOut.sub(amountOut) */\n      tag_520\n        /* \"v2-periphery-master/contracts/libraries/UniswapV2Library.sol\":3369:3379  reserveOut */\n      dup7\n        /* \"v2-periphery-master/contracts/libraries/UniswapV2Library.sol\":3384:3393  amountOut */\n      dup10\n        /* \"v2-periphery-master/contracts/libraries/UniswapV2Library.sol\":3369:3394  reserveOut.sub(amountOut) */\n      0xffffffff\n        /* \"v2-periphery-master/contracts/libraries/UniswapV2Library.sol\":3369:3383  reserveOut.sub */\n      tag_523\n        /* \"v2-periphery-master/contracts/libraries/UniswapV2Library.sol\":3369:3394  reserveOut.sub(amountOut) */\n      and\n      jump\t// in\n        /* \"v2-periphery-master/contracts/libraries/UniswapV2Library.sol\":3369:3403  reserveOut.sub(amountOut).mul(997) */\n    tag_521:\n        /* \"v2-periphery-master/contracts/libraries/UniswapV2Library.sol\":3350:3403  uint denominator = reserveOut.sub(amountOut).mul(997) */\n      swap1\n      pop\n        /* \"v2-periphery-master/contracts/libraries/UniswapV2Library.sol\":3424:3456  (numerator / denominator).add(1) */\n      tag_524\n        /* \"v2-periphery-master/contracts/libraries/UniswapV2Library.sol\":3454:3455  1 */\n      0x01\n        /* \"v2-periphery-master/contracts/libraries/UniswapV2Library.sol\":3437:3448  denominator */\n      dup3\n        /* \"v2-periphery-master/contracts/libraries/UniswapV2Library.sol\":3425:3434  numerator */\n      dup5\n        /* \"v2-periphery-master/contracts/libraries/UniswapV2Library.sol\":3425:3448  numerator / denominator */\n      dup2\n      tag_525\n      jumpi\n      invalid\n    tag_525:\n      div\n      swap1\n        /* \"v2-periphery-master/contracts/libraries/UniswapV2Library.sol\":3424:3456  (numerator / denominator).add(1) */\n      0xffffffff\n        /* \"v2-periphery-master/contracts/libraries/UniswapV2Library.sol\":3424:3453  (numerator / denominator).add */\n      tag_399\n        /* \"v2-periphery-master/contracts/libraries/UniswapV2Library.sol\":3424:3456  (numerator / denominator).add(1) */\n      and\n      jump\t// in\n    tag_524:\n        /* \"v2-periphery-master/contracts/libraries/UniswapV2Library.sol\":3413:3456  amountIn = (numerator / denominator).add(1) */\n      swap7\n        /* \"v2-periphery-master/contracts/libraries/UniswapV2Library.sol\":2997:3463  function getAmountIn(uint amountOut, uint reserveIn, uint reserveOut) internal pure returns (uint amountIn) {... */\n      swap6\n      pop\n      pop\n      pop\n      pop\n      pop\n      pop\n      jump\t// out\n        /* \"v2-periphery-master/contracts/libraries/SafeMath.sol\":286:413  function sub(uint x, uint y) internal pure returns (uint z) {... */\n    tag_523:\n        /* \"v2-periphery-master/contracts/libraries/SafeMath.sol\":369:374  x - y */\n      dup1\n      dup3\n      sub\n        /* \"v2-periphery-master/contracts/libraries/SafeMath.sol\":364:380  (z = x - y) <= x */\n      dup3\n      dup2\n      gt\n      iszero\n        /* \"v2-periphery-master/contracts/libraries/SafeMath.sol\":356:406  require((z = x - y) <= x, 'ds-math-sub-underflow') */\n      tag_186\n      jumpi\n      0x40\n      dup1\n      mload\n      shl(0xe5, 0x461bcd)\n      dup2\n      mstore\n      0x20\n      0x04\n      dup3\n      add\n      mstore\n      0x15\n      0x24\n      dup3\n      add\n      mstore\n      shl(0x58, 0x64732d6d6174682d7375622d756e646572666c6f77)\n      0x44\n      dup3\n      add\n      mstore\n      swap1\n      mload\n      swap1\n      dup2\n      swap1\n      sub\n      0x64\n      add\n      swap1\n      revert\n    stop\n    data_35fb781059090c30aacad20e29b2e40e67f217617fc46f86031ed4eb14923a82 556e697377617056324c6962726172793a20494e53554646494349454e545f4f55545055545f414d4f554e54\n    data_3f8faf98afe9344b6d4b0e75b0101259bf282914b3b5a9320c6918b6e27ede1c 5472616e7366657248656c7065723a3a7472616e7366657246726f6d3a207472616e7366657246726f6d206661696c6564\n    data_43d7bec223ecf9eb06ea147e7d564bc71c2448662d62a4ea86ce71fc4518b350 5472616e7366657248656c7065723a3a736166655472616e736665724554483a20455448207472616e73666572206661696c6564\n    data_4ddc3ca35a8b7ccaa016ab70252fdf3396ded4f4fd8375f95b1e9d99790fcdca 556e697377617056324c6962726172793a204944454e544943414c5f414444524553534553\n    data_508673fa99dd55571c7741114b40754785309d1a2171022cd7c5caaae38fc7b6 556e69737761705632526f757465723a20494e53554646494349454e545f425f414d4f554e54\n    data_7e8d6b265173dbbd87b3b9e2bf4238bea6caf2b2bbeb63f859a738aec9e761c8 556e697377617056324c6962726172793a20494e53554646494349454e545f4c4951554944495459\n    data_b3ea0cd729028efbc737ad3cde1d4d854e6f2c136b354fbaea9389d68bc3a146 556e697377617056324c6962726172793a20494e53554646494349454e545f414d4f554e54\n    data_bb18004cd22eaad7ea393d184ea6ac1df1428db36bb6fbff8af486232d68ae2c 556e69737761705632526f757465723a204558434553534956455f494e5055545f414d4f554e54\n    data_c80e789ddaeb930b746bbbcb3afe8331d926679fd96f65d8c7468b735c0a14f2 556e69737761705632526f757465723a20494e56414c49445f50415448000000\n    data_d1d32edc232bc1da2150d590567c5d6321ade8a80edcd2485e6068d018c7fd67 556e69737761705632526f757465723a20494e53554646494349454e545f415f414d4f554e54\n    data_d4ea67bea551891ab36be726b8e631181246034dffcfd5c0bbfad1e9d1729432 556e69737761705632526f757465723a20494e53554646494349454e545f4f55545055545f414d4f554e54\n    data_daea69421eeb1164e163c36f3d4349f0db3ec4e0d1381bd5bf4faf53496c2611 5472616e7366657248656c7065723a3a736166655472616e736665723a207472616e73666572206661696c6564\n    data_ec21b006eb37ef20d0f4abcabd34de6854fa68af48294244e0263dc05c1dbbae 556e697377617056324c6962726172793a20494e53554646494349454e545f494e5055545f414d4f554e54\n    data_ee5734acb032ffb1bbaf889d52ccf9fbd1ce0f1ae12bee2c46068d51b910e2c5 556e69737761705632526f757465723a20455850495245440000000000000000\n\n    auxdata: 0xa26469706673582212206e81744a019ed6f6c4309f8201cb637b851de4d0c8e9b199fefbafe9c114e1ce64736f6c63430006060033\n}\n",
				"bytecode": {
					"linkReferences": {},
					"object": "60c060405234801561001057600080fd5b5060405161379e38038061379e8339818101604052604081101561003357600080fd5b5080516020909101516001600160601b0319606092831b8116608052911b1660a05260805160601c60a05160601c61366261013c600039806101285280610a145280610a4f5280610b465280610d6452806110ee528061127952806112cf5280611303528061137752806115aa52806116f052806117785280611bb85280611ea85280611fd8528061211b52806121a3525080610bd45280610cab5280610e2a5280610e635280610f9e528061117c52806112ad528061163d52806117aa528061191d5280611a2e5280611c355280611e2d5280611e565280611e86528061206b52806121d55280612a665280612aa95280612d665280612e145280612e9452506136626000f3fe6080604052600436106101185760003560e01c806385f8c259116100a0578063baa2abde11610064578063baa2abde146107a9578063c45a015514610806578063d06ca61f1461081b578063ded9382a146108d0578063fb3bdb411461094357610151565b806385f8c259146101c25780638803dbee1461063f578063a648ec7a146106d5578063ad5c464814610742578063ad615dec1461077357610151565b80632195995c116100e75780632195995c146103a557806338ed1739146104235780634a25d94a146104b9578063705a623e1461054f5780637ff36ab5146105bb57610151565b806302751cec14610156578063054d50d4146101c257806318cbafe51461020a5780631f00ca74146102f057610151565b3661015157336001600160a01b037f0000000000000000000000000000000000000000000000000000000000000000161461014f57fe5b005b600080fd5b34801561016257600080fd5b506101a9600480360360c081101561017957600080fd5b506001600160a01b0381358116916020810135916040820135916060810135916080820135169060a001356109c7565b6040805192835260208301919091528051918290030190f35b3480156101ce57600080fd5b506101f8600480360360608110156101e557600080fd5b5080359060208101359060400135610ae1565b60408051918252519081900360200190f35b34801561021657600080fd5b506102a0600480360360a081101561022d57600080fd5b813591602081013591810190606081016040820135600160201b81111561025357600080fd5b82018360208201111561026557600080fd5b803590602001918460208302840111600160201b8311171561028657600080fd5b91935091506001600160a01b038135169060200135610af6565b60408051602080825283518183015283519192839290830191858101910280838360005b838110156102dc5781810151838201526020016102c4565b505050509050019250505060405180910390f35b3480156102fc57600080fd5b506102a06004803603604081101561031357600080fd5b81359190810190604081016020820135600160201b81111561033457600080fd5b82018360208201111561034657600080fd5b803590602001918460208302840111600160201b8311171561036757600080fd5b919080806020026020016040519081016040528093929190818152602001838360200280828437600092019190915250929550610e23945050505050565b3480156103b157600080fd5b506101a960048036036101608110156103c957600080fd5b506001600160a01b038135811691602081013582169160408201359160608101359160808201359160a08101359091169060c08101359060e081013515159060ff6101008201351690610120810135906101400135610e59565b34801561042f57600080fd5b506102a0600480360360a081101561044657600080fd5b813591602081013591810190606081016040820135600160201b81111561046c57600080fd5b82018360208201111561047e57600080fd5b803590602001918460208302840111600160201b8311171561049f57600080fd5b91935091506001600160a01b038135169060200135610f53565b3480156104c557600080fd5b506102a0600480360360a08110156104dc57600080fd5b813591602081013591810190606081016040820135600160201b81111561050257600080fd5b82018360208201111561051457600080fd5b803590602001918460208302840111600160201b8311171561053557600080fd5b91935091506001600160a01b03813516906020013561109e565b61059d600480360360e081101561056557600080fd5b506001600160a01b0381358116916020810135916040820135916060810135916080820135169060a08101359060c00135151561122a565b60408051938452602084019290925282820152519081900360600190f35b6102a0600480360360808110156105d157600080fd5b81359190810190604081016020820135600160201b8111156105f257600080fd5b82018360208201111561060457600080fd5b803590602001918460208302840111600160201b8311171561062557600080fd5b91935091506001600160a01b038135169060200135611562565b34801561064b57600080fd5b506102a0600480360360a081101561066257600080fd5b813591602081013591810190606081016040820135600160201b81111561068857600080fd5b82018360208201111561069a57600080fd5b803590602001918460208302840111600160201b831117156106bb57600080fd5b91935091506001600160a01b0381351690602001356118d2565b3480156106e157600080fd5b5061059d60048036036101208110156106f957600080fd5b506001600160a01b038135811691602081013582169160408201359160608101359160808201359160a08101359160c082013581169160e08101359161010090910135166119cb565b34801561074e57600080fd5b50610757611bb6565b604080516001600160a01b039092168252519081900360200190f35b34801561077f57600080fd5b506101f86004803603606081101561079657600080fd5b5080359060208101359060400135611bda565b3480156107b557600080fd5b506101a9600480360360e08110156107cc57600080fd5b506001600160a01b038135811691602081013582169160408201359160608101359160808201359160a08101359091169060c00135611be7565b34801561081257600080fd5b50610757611e2b565b34801561082757600080fd5b506102a06004803603604081101561083e57600080fd5b81359190810190604081016020820135600160201b81111561085f57600080fd5b82018360208201111561087157600080fd5b803590602001918460208302840111600160201b8311171561089257600080fd5b919080806020026020016040519081016040528093929190818152602001838360200280828437600092019190915250929550611e4f945050505050565b3480156108dc57600080fd5b506101a960048036036101408110156108f457600080fd5b506001600160a01b0381358116916020810135916040820135916060810135916080820135169060a08101359060c081013515159060ff60e08201351690610100810135906101200135611e7c565b6102a06004803603608081101561095957600080fd5b81359190810190604081016020820135600160201b81111561097a57600080fd5b82018360208201111561098c57600080fd5b803590602001918460208302840111600160201b831117156109ad57600080fd5b91935091506001600160a01b038135169060200135611f90565b6000808242811015610a0e576040805162461bcd60e51b8152602060048201526018602482015260008051602061360d833981519152604482015290519081900360640190fd5b610a3d897f00000000000000000000000000000000000000000000000000000000000000008a8a8a308a611be7565b9093509150610a4d898685612312565b7f00000000000000000000000000000000000000000000000000000000000000006001600160a01b0316632e1a7d4d836040518263ffffffff1660e01b815260040180828152602001915050600060405180830381600087803b158015610ab357600080fd5b505af1158015610ac7573d6000803e3d6000fd5b50505050610ad58583612466565b50965096945050505050565b6000610aee84848461255e565b949350505050565b60608142811015610b3c576040805162461bcd60e51b8152602060048201526018602482015260008051602061360d833981519152604482015290519081900360640190fd5b6001600160a01b037f00000000000000000000000000000000000000000000000000000000000000001686866000198101818110610b7657fe5b905060200201356001600160a01b03166001600160a01b031614610bcf576040805162461bcd60e51b815260206004820152601d6024820152600080516020613544833981519152604482015290519081900360640190fd5b610c2d7f00000000000000000000000000000000000000000000000000000000000000008988888080602002602001604051908101604052809392919081815260200183836020028082843760009201919091525061264e92505050565b91508682600184510381518110610c4057fe5b60200260200101511015610c855760405162461bcd60e51b815260040180806020018281038252602b81526020018061358a602b913960400191505060405180910390fd5b610d2386866000818110610c9557fe5b905060200201356001600160a01b031633610d097f00000000000000000000000000000000000000000000000000000000000000008a8a6000818110610cd757fe5b905060200201356001600160a01b03168b8b6001818110610cf457fe5b905060200201356001600160a01b031661279a565b85600081518110610d1657fe5b602002602001015161285a565b610d62828787808060200260200160405190810160405280939291908181526020018383602002808284376000920191909152503092506129b7915050565b7f00000000000000000000000000000000000000000000000000000000000000006001600160a01b0316632e1a7d4d83600185510381518110610da157fe5b60200260200101516040518263ffffffff1660e01b815260040180828152602001915050600060405180830381600087803b158015610ddf57600080fd5b505af1158015610df3573d6000803e3d6000fd5b50505050610e188483600185510381518110610e0b57fe5b6020026020010151612466565b509695505050505050565b6060610e507f00000000000000000000000000000000000000000000000000000000000000008484612bfd565b90505b92915050565b6000806000610e897f00000000000000000000000000000000000000000000000000000000000000008f8f61279a565b9050600087610e98578c610e9c565b6000195b6040805163d505accf60e01b815233600482015230602482015260448101839052606481018c905260ff8a16608482015260a4810189905260c4810188905290519192506001600160a01b0384169163d505accf9160e48082019260009290919082900301818387803b158015610f1257600080fd5b505af1158015610f26573d6000803e3d6000fd5b50505050610f398f8f8f8f8f8f8f611be7565b809450819550505050509b509b9950505050505050505050565b60608142811015610f99576040805162461bcd60e51b8152602060048201526018602482015260008051602061360d833981519152604482015290519081900360640190fd5b610ff77f00000000000000000000000000000000000000000000000000000000000000008988888080602002602001604051908101604052809392919081815260200183836020028082843760009201919091525061264e92505050565b9150868260018451038151811061100a57fe5b6020026020010151101561104f5760405162461bcd60e51b815260040180806020018281038252602b81526020018061358a602b913960400191505060405180910390fd5b61105f86866000818110610c9557fe5b610e18828787808060200260200160405190810160405280939291908181526020018383602002808284376000920191909152508992506129b7915050565b606081428110156110e4576040805162461bcd60e51b8152602060048201526018602482015260008051602061360d833981519152604482015290519081900360640190fd5b6001600160a01b037f0000000000000000000000000000000000000000000000000000000000000000168686600019810181811061111e57fe5b905060200201356001600160a01b03166001600160a01b031614611177576040805162461bcd60e51b815260206004820152601d6024820152600080516020613544833981519152604482015290519081900360640190fd5b6111d57f000000000000000000000000000000000000000000000000000000000000000089888880806020026020016040519081016040528093929190818152602001838360200280828437600092019190915250612bfd92505050565b915086826000815181106111e557fe5b60200260200101511115610c855760405162461bcd60e51b815260040180806020018281038252602781526020018061351d6027913960400191505060405180910390fd5b60008060008442811015611273576040805162461bcd60e51b8152602060048201526018602482015260008051602061360d833981519152604482015290519081900360640190fd5b6112a18b7f00000000000000000000000000000000000000000000000000000000000000008c348d8d612d35565b909450925060006112f37f00000000000000000000000000000000000000000000000000000000000000008d7f000000000000000000000000000000000000000000000000000000000000000061279a565b90506113018c33838861285a565b7f00000000000000000000000000000000000000000000000000000000000000006001600160a01b031663d0e30db0856040518263ffffffff1660e01b81526004016000604051808303818588803b15801561135c57600080fd5b505af1158015611370573d6000803e3d6000fd5b50505050507f00000000000000000000000000000000000000000000000000000000000000006001600160a01b031663a9059cbb82866040518363ffffffff1660e01b815260040180836001600160a01b03166001600160a01b0316815260200182815260200192505050602060405180830381600087803b1580156113f557600080fd5b505af1158015611409573d6000803e3d6000fd5b505050506040513d602081101561141f57600080fd5b505161142757fe5b85156114b857806001600160a01b0316636a627842896040518263ffffffff1660e01b815260040180826001600160a01b03166001600160a01b03168152602001915050602060405180830381600087803b15801561148557600080fd5b505af1158015611499573d6000803e3d6000fd5b505050506040513d60208110156114af57600080fd5b5051925061153f565b806001600160a01b031663dcbbb373896040518263ffffffff1660e01b815260040180826001600160a01b03166001600160a01b03168152602001915050602060405180830381600087803b15801561151057600080fd5b505af1158015611524573d6000803e3d6000fd5b505050506040513d602081101561153a57600080fd5b505192505b833411156115535761155333853403612466565b50509750975097945050505050565b606081428110156115a8576040805162461bcd60e51b8152602060048201526018602482015260008051602061360d833981519152604482015290519081900360640190fd5b7f00000000000000000000000000000000000000000000000000000000000000006001600160a01b0316868660008181106115df57fe5b905060200201356001600160a01b03166001600160a01b031614611638576040805162461bcd60e51b815260206004820152601d6024820152600080516020613544833981519152604482015290519081900360640190fd5b6116967f00000000000000000000000000000000000000000000000000000000000000003488888080602002602001604051908101604052809392919081815260200183836020028082843760009201919091525061264e92505050565b915086826001845103815181106116a957fe5b602002602001015110156116ee5760405162461bcd60e51b815260040180806020018281038252602b81526020018061358a602b913960400191505060405180910390fd5b7f00000000000000000000000000000000000000000000000000000000000000006001600160a01b031663d0e30db08360008151811061172a57fe5b60200260200101516040518263ffffffff1660e01b81526004016000604051808303818588803b15801561175d57600080fd5b505af1158015611771573d6000803e3d6000fd5b50505050507f00000000000000000000000000000000000000000000000000000000000000006001600160a01b031663a9059cbb6117f37f0000000000000000000000000000000000000000000000000000000000000000898960008181106117d657fe5b905060200201356001600160a01b03168a8a6001818110610cf457fe5b8460008151811061180057fe5b60200260200101516040518363ffffffff1660e01b815260040180836001600160a01b03166001600160a01b0316815260200182815260200192505050602060405180830381600087803b15801561185757600080fd5b505af115801561186b573d6000803e3d6000fd5b505050506040513d602081101561188157600080fd5b505161188957fe5b6118c8828787808060200260200160405190810160405280939291908181526020018383602002808284376000920191909152508992506129b7915050565b5095945050505050565b60608142811015611918576040805162461bcd60e51b8152602060048201526018602482015260008051602061360d833981519152604482015290519081900360640190fd5b6119767f000000000000000000000000000000000000000000000000000000000000000089888880806020026020016040519081016040528093929190818152602001838360200280828437600092019190915250612bfd92505050565b9150868260008151811061198657fe5b6020026020010151111561104f5760405162461bcd60e51b815260040180806020018281038252602781526020018061351d6027913960400191505060405180910390fd5b60008060008442811015611a14576040805162461bcd60e51b8152602060048201526018602482015260008051602061360d833981519152604482015290519081900360640190fd5b611a228d8d8d8d8d8d612d35565b90945092506000611a547f00000000000000000000000000000000000000000000000000000000000000008f8f61279a565b9050611a628e33838861285a565b611a6e8d33838761285a565b732373a942febc0ee428b266bdd58275794e7f15536001600160a01b0387161415611b1e57806001600160a01b0316636a627842896040518263ffffffff1660e01b815260040180826001600160a01b03166001600160a01b03168152602001915050602060405180830381600087803b158015611aeb57600080fd5b505af1158015611aff573d6000803e3d6000fd5b505050506040513d6020811015611b1557600080fd5b50519250611ba5565b806001600160a01b031663dcbbb373896040518263ffffffff1660e01b815260040180826001600160a01b03166001600160a01b03168152602001915050602060405180830381600087803b158015611b7657600080fd5b505af1158015611b8a573d6000803e3d6000fd5b505050506040513d6020811015611ba057600080fd5b505192505b505099509950999650505050505050565b7f000000000000000000000000000000000000000000000000000000000000000081565b6000610aee848484612fa9565b6000808242811015611c2e576040805162461bcd60e51b8152602060048201526018602482015260008051602061360d833981519152604482015290519081900360640190fd5b6000611c5b7f00000000000000000000000000000000000000000000000000000000000000008c8c61279a565b604080516323b872dd60e01b81523360048201526001600160a01b03831660248201819052604482018d9052915192935090916323b872dd916064808201926020929091908290030181600087803b158015611cb657600080fd5b505af1158015611cca573d6000803e3d6000fd5b505050506040513d6020811015611ce057600080fd5b50506040805163226bf2d160e21b81526001600160a01b03888116600483015282516000938493928616926389afcb44926024808301939282900301818787803b158015611d2d57600080fd5b505af1158015611d41573d6000803e3d6000fd5b505050506040513d6040811015611d5757600080fd5b50805160209091015190925090506000611d718e8e613055565b509050806001600160a01b03168e6001600160a01b031614611d94578183611d97565b82825b90975095508a871015611ddb5760405162461bcd60e51b81526004018080602001828103825260268152602001806135646026913960400191505060405180910390fd5b89861015611e1a5760405162461bcd60e51b81526004018080602001828103825260268152602001806134aa6026913960400191505060405180910390fd5b505050505097509795505050505050565b7f000000000000000000000000000000000000000000000000000000000000000081565b6060610e507f0000000000000000000000000000000000000000000000000000000000000000848461264e565b6000806000611ecc7f00000000000000000000000000000000000000000000000000000000000000008e7f000000000000000000000000000000000000000000000000000000000000000061279a565b9050600087611edb578c611edf565b6000195b6040805163d505accf60e01b815233600482015230602482015260448101839052606481018c905260ff8a16608482015260a4810189905260c4810188905290519192506001600160a01b0384169163d505accf9160e48082019260009290919082900301818387803b158015611f5557600080fd5b505af1158015611f69573d6000803e3d6000fd5b50505050611f7b8e8e8e8e8e8e6109c7565b909f909e509c50505050505050505050505050565b60608142811015611fd6576040805162461bcd60e51b8152602060048201526018602482015260008051602061360d833981519152604482015290519081900360640190fd5b7f00000000000000000000000000000000000000000000000000000000000000006001600160a01b03168686600081811061200d57fe5b905060200201356001600160a01b03166001600160a01b031614612066576040805162461bcd60e51b815260206004820152601d6024820152600080516020613544833981519152604482015290519081900360640190fd5b6120c47f000000000000000000000000000000000000000000000000000000000000000088888880806020026020016040519081016040528093929190818152602001838360200280828437600092019190915250612bfd92505050565b915034826000815181106120d457fe5b602002602001015111156121195760405162461bcd60e51b815260040180806020018281038252602781526020018061351d6027913960400191505060405180910390fd5b7f00000000000000000000000000000000000000000000000000000000000000006001600160a01b031663d0e30db08360008151811061215557fe5b60200260200101516040518263ffffffff1660e01b81526004016000604051808303818588803b15801561218857600080fd5b505af115801561219c573d6000803e3d6000fd5b50505050507f00000000000000000000000000000000000000000000000000000000000000006001600160a01b031663a9059cbb6122017f0000000000000000000000000000000000000000000000000000000000000000898960008181106117d657fe5b8460008151811061220e57fe5b60200260200101516040518363ffffffff1660e01b815260040180836001600160a01b03166001600160a01b0316815260200182815260200192505050602060405180830381600087803b15801561226557600080fd5b505af1158015612279573d6000803e3d6000fd5b505050506040513d602081101561228f57600080fd5b505161229757fe5b6122d6828787808060200260200160405190810160405280939291908181526020018383602002808284376000920191909152508992506129b7915050565b816000815181106122e357fe5b60200260200101513411156118c8576118c8338360008151811061230357fe5b60200260200101513403612466565b604080516001600160a01b038481166024830152604480830185905283518084039091018152606490920183526020820180516001600160e01b031663a9059cbb60e01b178152925182516000946060949389169392918291908083835b6020831061238f5780518252601f199092019160209182019101612370565b6001836020036101000a0380198251168184511680821785525050505050509050019150506000604051808303816000865af19150503d80600081146123f1576040519150601f19603f3d011682016040523d82523d6000602084013e6123f6565b606091505b5091509150818015612424575080511580612424575080806020019051602081101561242157600080fd5b50515b61245f5760405162461bcd60e51b815260040180806020018281038252602d8152602001806135b5602d913960400191505060405180910390fd5b5050505050565b604080516000808252602082019092526001600160a01b0384169083906040518082805190602001908083835b602083106124b25780518252601f199092019160209182019101612493565b6001836020036101000a03801982511681845116808217855250505050505090500191505060006040518083038185875af1925050503d8060008114612514576040519150601f19603f3d011682016040523d82523d6000602084013e612519565b606091505b50509050806125595760405162461bcd60e51b81526004018080602001828103825260348152602001806134516034913960400191505060405180910390fd5b505050565b600080841161259e5760405162461bcd60e51b815260040180806020018281038252602b8152602001806135e2602b913960400191505060405180910390fd5b6000831180156125ae5750600082115b6125e95760405162461bcd60e51b81526004018080602001828103825260288152602001806134d06028913960400191505060405180910390fd5b60006125fd856103e563ffffffff61313316565b90506000612611828563ffffffff61313316565b905060006126378361262b886103e863ffffffff61313316565b9063ffffffff61319616565b905080828161264257fe5b04979650505050505050565b60606002825110156126a7576040805162461bcd60e51b815260206004820152601e60248201527f556e697377617056324c6962726172793a20494e56414c49445f504154480000604482015290519081900360640190fd5b815167ffffffffffffffff811180156126bf57600080fd5b506040519080825280602002602001820160405280156126e9578160200160208202803683370190505b50905082816000815181106126fa57fe5b60200260200101818152505060005b60018351038110156127925760008061274c8786858151811061272857fe5b602002602001015187866001018151811061273f57fe5b60200260200101516131e5565b9150915061276e84848151811061275f57fe5b6020026020010151838361255e565b84846001018151811061277d57fe5b60209081029190910101525050600101612709565b509392505050565b60008060006127a98585613055565b604080516bffffffffffffffffffffffff19606094851b811660208084019190915293851b81166034830152825160288184030181526048830184528051908501206001600160f81b031960688401529a90941b9093166069840152607d8301989098527f9dbba9b9668cba021c85aa90d0242ff86c8ae584432b0150760f1707bd54900b609d808401919091528851808403909101815260bd909201909752805196019590952095945050505050565b604080516001600160a01b0385811660248301528481166044830152606480830185905283518084039091018152608490920183526020820180516001600160e01b03166323b872dd60e01b17815292518251600094606094938a169392918291908083835b602083106128df5780518252601f1990920191602091820191016128c0565b6001836020036101000a0380198251168184511680821785525050505050509050019150506000604051808303816000865af19150503d8060008114612941576040519150601f19603f3d011682016040523d82523d6000602084013e612946565b606091505b5091509150818015612974575080511580612974575080806020019051602081101561297157600080fd5b50515b6129af5760405162461bcd60e51b81526004018080602001828103825260318152602001806134206031913960400191505060405180910390fd5b505050505050565b60005b6001835103811015612bf7576000808483815181106129d557fe5b60200260200101518584600101815181106129ec57fe5b6020026020010151915091506000612a048383613055565b5090506000878560010181518110612a1857fe5b60200260200101519050600080836001600160a01b0316866001600160a01b031614612a4657826000612a4a565b6000835b91509150600060028a51038810612a615788612aa2565b612aa27f0000000000000000000000000000000000000000000000000000000000000000878c8b60020181518110612a9557fe5b602002602001015161279a565b9050612acf7f0000000000000000000000000000000000000000000000000000000000000000888861279a565b6001600160a01b031663022c0d9f84848460006040519080825280601f01601f191660200182016040528015612b0c576020820181803683370190505b506040518563ffffffff1660e01b815260040180858152602001848152602001836001600160a01b03166001600160a01b0316815260200180602001828103825283818151815260200191508051906020019080838360005b83811015612b7d578181015183820152602001612b65565b50505050905090810190601f168015612baa5780820380516001836020036101000a031916815260200191505b5095505050505050600060405180830381600087803b158015612bcc57600080fd5b505af1158015612be0573d6000803e3d6000fd5b5050600190990198506129ba975050505050505050565b50505050565b6060600282511015612c56576040805162461bcd60e51b815260206004820152601e60248201527f556e697377617056324c6962726172793a20494e56414c49445f504154480000604482015290519081900360640190fd5b815167ffffffffffffffff81118015612c6e57600080fd5b50604051908082528060200260200182016040528015612c98578160200160208202803683370190505b5090508281600183510381518110612cac57fe5b60209081029190910101528151600019015b801561279257600080612cee87866001860381518110612cda57fe5b602002602001015187868151811061273f57fe5b91509150612d10848481518110612d0157fe5b602002602001015183836132b3565b846001850381518110612d1f57fe5b6020908102919091010152505060001901612cbe565b6040805163e6a4390560e01b81526001600160a01b03888116600483015287811660248301529151600092839283927f00000000000000000000000000000000000000000000000000000000000000009092169163e6a4390591604480820192602092909190829003018186803b158015612daf57600080fd5b505afa158015612dc3573d6000803e3d6000fd5b505050506040513d6020811015612dd957600080fd5b50516001600160a01b03161415612e8c57604080516364e329cb60e11b81526001600160a01b038a81166004830152898116602483015291517f00000000000000000000000000000000000000000000000000000000000000009092169163c9c65396916044808201926020929091908290030181600087803b158015612e5f57600080fd5b505af1158015612e73573d6000803e3d6000fd5b505050506040513d6020811015612e8957600080fd5b50505b600080612eba7f00000000000000000000000000000000000000000000000000000000000000008b8b6131e5565b91509150816000148015612ecc575080155b15612edc57879350869250612f9c565b6000612ee9898484612fa9565b9050878111612f3c5785811015612f315760405162461bcd60e51b81526004018080602001828103825260268152602001806134aa6026913960400191505060405180910390fd5b889450925082612f9a565b6000612f49898486612fa9565b905089811115612f5557fe5b87811015612f945760405162461bcd60e51b81526004018080602001828103825260268152602001806135646026913960400191505060405180910390fd5b94508793505b505b5050965096945050505050565b6000808411612fe95760405162461bcd60e51b81526004018080602001828103825260258152602001806134f86025913960400191505060405180910390fd5b600083118015612ff95750600082115b6130345760405162461bcd60e51b81526004018080602001828103825260288152602001806134d06028913960400191505060405180910390fd5b82613045858463ffffffff61313316565b8161304c57fe5b04949350505050565b600080826001600160a01b0316846001600160a01b031614156130a95760405162461bcd60e51b81526004018080602001828103825260258152602001806134856025913960400191505060405180910390fd5b826001600160a01b0316846001600160a01b0316106130c95782846130cc565b83835b90925090506001600160a01b03821661312c576040805162461bcd60e51b815260206004820152601e60248201527f556e697377617056324c6962726172793a205a45524f5f414444524553530000604482015290519081900360640190fd5b9250929050565b600081158061314e5750508082028282828161314b57fe5b04145b610e53576040805162461bcd60e51b815260206004820152601460248201527364732d6d6174682d6d756c2d6f766572666c6f7760601b604482015290519081900360640190fd5b80820182811015610e53576040805162461bcd60e51b815260206004820152601460248201527364732d6d6174682d6164642d6f766572666c6f7760601b604482015290519081900360640190fd5b60008060006131f48585613055565b50905060008061320588888861279a565b6001600160a01b0316630902f1ac6040518163ffffffff1660e01b815260040160606040518083038186803b15801561323d57600080fd5b505afa158015613251573d6000803e3d6000fd5b505050506040513d606081101561326757600080fd5b5080516020909101516dffffffffffffffffffffffffffff91821693501690506001600160a01b03878116908416146132a15780826132a4565b81815b90999098509650505050505050565b60008084116132f35760405162461bcd60e51b815260040180806020018281038252602c8152602001806133f4602c913960400191505060405180910390fd5b6000831180156133035750600082115b61333e5760405162461bcd60e51b81526004018080602001828103825260288152602001806134d06028913960400191505060405180910390fd5b60006133626103e8613356868863ffffffff61313316565b9063ffffffff61313316565b9050600061337c6103e5613356868963ffffffff6133a316565b9050613399600182848161338c57fe5b049063ffffffff61319616565b9695505050505050565b80820382811115610e53576040805162461bcd60e51b815260206004820152601560248201527464732d6d6174682d7375622d756e646572666c6f7760581b604482015290519081900360640190fdfe556e697377617056324c6962726172793a20494e53554646494349454e545f4f55545055545f414d4f554e545472616e7366657248656c7065723a3a7472616e7366657246726f6d3a207472616e7366657246726f6d206661696c65645472616e7366657248656c7065723a3a736166655472616e736665724554483a20455448207472616e73666572206661696c6564556e697377617056324c6962726172793a204944454e544943414c5f414444524553534553556e69737761705632526f757465723a20494e53554646494349454e545f425f414d4f554e54556e697377617056324c6962726172793a20494e53554646494349454e545f4c4951554944495459556e697377617056324c6962726172793a20494e53554646494349454e545f414d4f554e54556e69737761705632526f757465723a204558434553534956455f494e5055545f414d4f554e54556e69737761705632526f757465723a20494e56414c49445f50415448000000556e69737761705632526f757465723a20494e53554646494349454e545f415f414d4f554e54556e69737761705632526f757465723a20494e53554646494349454e545f4f55545055545f414d4f554e545472616e7366657248656c7065723a3a736166655472616e736665723a207472616e73666572206661696c6564556e697377617056324c6962726172793a20494e53554646494349454e545f494e5055545f414d4f554e54556e69737761705632526f757465723a20455850495245440000000000000000a26469706673582212206e81744a019ed6f6c4309f8201cb637b851de4d0c8e9b199fefbafe9c114e1ce64736f6c63430006060033",
					"opcodes": "PUSH1 0xC0 PUSH1 0x40 MSTORE CALLVALUE DUP1 ISZERO PUSH2 0x10 JUMPI PUSH1 0x0 DUP1 REVERT JUMPDEST POP PUSH1 0x40 MLOAD PUSH2 0x379E CODESIZE SUB DUP1 PUSH2 0x379E DUP4 CODECOPY DUP2 DUP2 ADD PUSH1 0x40 MSTORE PUSH1 0x40 DUP2 LT ISZERO PUSH2 0x33 JUMPI PUSH1 0x0 DUP1 REVERT JUMPDEST POP DUP1 MLOAD PUSH1 0x20 SWAP1 SWAP2 ADD MLOAD PUSH1 0x1 PUSH1 0x1 PUSH1 0x60 SHL SUB NOT PUSH1 0x60 SWAP3 DUP4 SHL DUP2 AND PUSH1 0x80 MSTORE SWAP2 SHL AND PUSH1 0xA0 MSTORE PUSH1 0x80 MLOAD PUSH1 0x60 SHR PUSH1 0xA0 MLOAD PUSH1 0x60 SHR PUSH2 0x3662 PUSH2 0x13C PUSH1 0x0 CODECOPY DUP1 PUSH2 0x128 MSTORE DUP1 PUSH2 0xA14 MSTORE DUP1 PUSH2 0xA4F MSTORE DUP1 PUSH2 0xB46 MSTORE DUP1 PUSH2 0xD64 MSTORE DUP1 PUSH2 0x10EE MSTORE DUP1 PUSH2 0x1279 MSTORE DUP1 PUSH2 0x12CF MSTORE DUP1 PUSH2 0x1303 MSTORE DUP1 PUSH2 0x1377 MSTORE DUP1 PUSH2 0x15AA MSTORE DUP1 PUSH2 0x16F0 MSTORE DUP1 PUSH2 0x1778 MSTORE DUP1 PUSH2 0x1BB8 MSTORE DUP1 PUSH2 0x1EA8 MSTORE DUP1 PUSH2 0x1FD8 MSTORE DUP1 PUSH2 0x211B MSTORE DUP1 PUSH2 0x21A3 MSTORE POP DUP1 PUSH2 0xBD4 MSTORE DUP1 PUSH2 0xCAB MSTORE DUP1 PUSH2 0xE2A MSTORE DUP1 PUSH2 0xE63 MSTORE DUP1 PUSH2 0xF9E MSTORE DUP1 PUSH2 0x117C MSTORE DUP1 PUSH2 0x12AD MSTORE DUP1 PUSH2 0x163D MSTORE DUP1 PUSH2 0x17AA MSTORE DUP1 PUSH2 0x191D MSTORE DUP1 PUSH2 0x1A2E MSTORE DUP1 PUSH2 0x1C35 MSTORE DUP1 PUSH2 0x1E2D MSTORE DUP1 PUSH2 0x1E56 MSTORE DUP1 PUSH2 0x1E86 MSTORE DUP1 PUSH2 0x206B MSTORE DUP1 PUSH2 0x21D5 MSTORE DUP1 PUSH2 0x2A66 MSTORE DUP1 PUSH2 0x2AA9 MSTORE DUP1 PUSH2 0x2D66 MSTORE DUP1 PUSH2 0x2E14 MSTORE DUP1 PUSH2 0x2E94 MSTORE POP PUSH2 0x3662 PUSH1 0x0 RETURN INVALID PUSH1 0x80 PUSH1 0x40 MSTORE PUSH1 0x4 CALLDATASIZE LT PUSH2 0x118 JUMPI PUSH1 0x0 CALLDATALOAD PUSH1 0xE0 SHR DUP1 PUSH4 0x85F8C259 GT PUSH2 0xA0 JUMPI DUP1 PUSH4 0xBAA2ABDE GT PUSH2 0x64 JUMPI DUP1 PUSH4 0xBAA2ABDE EQ PUSH2 0x7A9 JUMPI DUP1 PUSH4 0xC45A0155 EQ PUSH2 0x806 JUMPI DUP1 PUSH4 0xD06CA61F EQ PUSH2 0x81B JUMPI DUP1 PUSH4 0xDED9382A EQ PUSH2 0x8D0 JUMPI DUP1 PUSH4 0xFB3BDB41 EQ PUSH2 0x943 JUMPI PUSH2 0x151 JUMP JUMPDEST DUP1 PUSH4 0x85F8C259 EQ PUSH2 0x1C2 JUMPI DUP1 PUSH4 0x8803DBEE EQ PUSH2 0x63F JUMPI DUP1 PUSH4 0xA648EC7A EQ PUSH2 0x6D5 JUMPI DUP1 PUSH4 0xAD5C4648 EQ PUSH2 0x742 JUMPI DUP1 PUSH4 0xAD615DEC EQ PUSH2 0x773 JUMPI PUSH2 0x151 JUMP JUMPDEST DUP1 PUSH4 0x2195995C GT PUSH2 0xE7 JUMPI DUP1 PUSH4 0x2195995C EQ PUSH2 0x3A5 JUMPI DUP1 PUSH4 0x38ED1739 EQ PUSH2 0x423 JUMPI DUP1 PUSH4 0x4A25D94A EQ PUSH2 0x4B9 JUMPI DUP1 PUSH4 0x705A623E EQ PUSH2 0x54F JUMPI DUP1 PUSH4 0x7FF36AB5 EQ PUSH2 0x5BB JUMPI PUSH2 0x151 JUMP JUMPDEST DUP1 PUSH4 0x2751CEC EQ PUSH2 0x156 JUMPI DUP1 PUSH4 0x54D50D4 EQ PUSH2 0x1C2 JUMPI DUP1 PUSH4 0x18CBAFE5 EQ PUSH2 0x20A JUMPI DUP1 PUSH4 0x1F00CA74 EQ PUSH2 0x2F0 JUMPI PUSH2 0x151 JUMP JUMPDEST CALLDATASIZE PUSH2 0x151 JUMPI CALLER PUSH1 0x1 PUSH1 0x1 PUSH1 0xA0 SHL SUB PUSH32 0x0 AND EQ PUSH2 0x14F JUMPI INVALID JUMPDEST STOP JUMPDEST PUSH1 0x0 DUP1 REVERT JUMPDEST CALLVALUE DUP1 ISZERO PUSH2 0x162 JUMPI PUSH1 0x0 DUP1 REVERT JUMPDEST POP PUSH2 0x1A9 PUSH1 0x4 DUP1 CALLDATASIZE SUB PUSH1 0xC0 DUP2 LT ISZERO PUSH2 0x179 JUMPI PUSH1 0x0 DUP1 REVERT JUMPDEST POP PUSH1 0x1 PUSH1 0x1 PUSH1 0xA0 SHL SUB DUP2 CALLDATALOAD DUP2 AND SWAP2 PUSH1 0x20 DUP2 ADD CALLDATALOAD SWAP2 PUSH1 0x40 DUP3 ADD CALLDATALOAD SWAP2 PUSH1 0x60 DUP2 ADD CALLDATALOAD SWAP2 PUSH1 0x80 DUP3 ADD CALLDATALOAD AND SWAP1 PUSH1 0xA0 ADD CALLDATALOAD PUSH2 0x9C7 JUMP JUMPDEST PUSH1 0x40 DUP1 MLOAD SWAP3 DUP4 MSTORE PUSH1 0x20 DUP4 ADD SWAP2 SWAP1 SWAP2 MSTORE DUP1 MLOAD SWAP2 DUP3 SWAP1 SUB ADD SWAP1 RETURN JUMPDEST CALLVALUE DUP1 ISZERO PUSH2 0x1CE JUMPI PUSH1 0x0 DUP1 REVERT JUMPDEST POP PUSH2 0x1F8 PUSH1 0x4 DUP1 CALLDATASIZE SUB PUSH1 0x60 DUP2 LT ISZERO PUSH2 0x1E5 JUMPI PUSH1 0x0 DUP1 REVERT JUMPDEST POP DUP1 CALLDATALOAD SWAP1 PUSH1 0x20 DUP2 ADD CALLDATALOAD SWAP1 PUSH1 0x40 ADD CALLDATALOAD PUSH2 0xAE1 JUMP JUMPDEST PUSH1 0x40 DUP1 MLOAD SWAP2 DUP3 MSTORE MLOAD SWAP1 DUP2 SWAP1 SUB PUSH1 0x20 ADD SWAP1 RETURN JUMPDEST CALLVALUE DUP1 ISZERO PUSH2 0x216 JUMPI PUSH1 0x0 DUP1 REVERT JUMPDEST POP PUSH2 0x2A0 PUSH1 0x4 DUP1 CALLDATASIZE SUB PUSH1 0xA0 DUP2 LT ISZERO PUSH2 0x22D JUMPI PUSH1 0x0 DUP1 REVERT JUMPDEST DUP2 CALLDATALOAD SWAP2 PUSH1 0x20 DUP2 ADD CALLDATALOAD SWAP2 DUP2 ADD SWAP1 PUSH1 0x60 DUP2 ADD PUSH1 0x40 DUP3 ADD CALLDATALOAD PUSH1 0x1 PUSH1 0x20 SHL DUP2 GT ISZERO PUSH2 0x253 JUMPI PUSH1 0x0 DUP1 REVERT JUMPDEST DUP3 ADD DUP4 PUSH1 0x20 DUP3 ADD GT ISZERO PUSH2 0x265 JUMPI PUSH1 0x0 DUP1 REVERT JUMPDEST DUP1 CALLDATALOAD SWAP1 PUSH1 0x20 ADD SWAP2 DUP5 PUSH1 0x20 DUP4 MUL DUP5 ADD GT PUSH1 0x1 PUSH1 0x20 SHL DUP4 GT OR ISZERO PUSH2 0x286 JUMPI PUSH1 0x0 DUP1 REVERT JUMPDEST SWAP2 SWAP4 POP SWAP2 POP PUSH1 0x1 PUSH1 0x1 PUSH1 0xA0 SHL SUB DUP2 CALLDATALOAD AND SWAP1 PUSH1 0x20 ADD CALLDATALOAD PUSH2 0xAF6 JUMP JUMPDEST PUSH1 0x40 DUP1 MLOAD PUSH1 0x20 DUP1 DUP3 MSTORE DUP4 MLOAD DUP2 DUP4 ADD MSTORE DUP4 MLOAD SWAP2 SWAP3 DUP4 SWAP3 SWAP1 DUP4 ADD SWAP2 DUP6 DUP2 ADD SWAP2 MUL DUP1 DUP4 DUP4 PUSH1 0x0 JUMPDEST DUP4 DUP2 LT ISZERO PUSH2 0x2DC JUMPI DUP2 DUP2 ADD MLOAD DUP4 DUP3 ADD MSTORE PUSH1 0x20 ADD PUSH2 0x2C4 JUMP JUMPDEST POP POP POP POP SWAP1 POP ADD SWAP3 POP POP POP PUSH1 0x40 MLOAD DUP1 SWAP2 SUB SWAP1 RETURN JUMPDEST CALLVALUE DUP1 ISZERO PUSH2 0x2FC JUMPI PUSH1 0x0 DUP1 REVERT JUMPDEST POP PUSH2 0x2A0 PUSH1 0x4 DUP1 CALLDATASIZE SUB PUSH1 0x40 DUP2 LT ISZERO PUSH2 0x313 JUMPI PUSH1 0x0 DUP1 REVERT JUMPDEST DUP2 CALLDATALOAD SWAP2 SWAP1 DUP2 ADD SWAP1 PUSH1 0x40 DUP2 ADD PUSH1 0x20 DUP3 ADD CALLDATALOAD PUSH1 0x1 PUSH1 0x20 SHL DUP2 GT ISZERO PUSH2 0x334 JUMPI PUSH1 0x0 DUP1 REVERT JUMPDEST DUP3 ADD DUP4 PUSH1 0x20 DUP3 ADD GT ISZERO PUSH2 0x346 JUMPI PUSH1 0x0 DUP1 REVERT JUMPDEST DUP1 CALLDATALOAD SWAP1 PUSH1 0x20 ADD SWAP2 DUP5 PUSH1 0x20 DUP4 MUL DUP5 ADD GT PUSH1 0x1 PUSH1 0x20 SHL DUP4 GT OR ISZERO PUSH2 0x367 JUMPI PUSH1 0x0 DUP1 REVERT JUMPDEST SWAP2 SWAP1 DUP1 DUP1 PUSH1 0x20 MUL PUSH1 0x20 ADD PUSH1 0x40 MLOAD SWAP1 DUP2 ADD PUSH1 0x40 MSTORE DUP1 SWAP4 SWAP3 SWAP2 SWAP1 DUP2 DUP2 MSTORE PUSH1 0x20 ADD DUP4 DUP4 PUSH1 0x20 MUL DUP1 DUP3 DUP5 CALLDATACOPY PUSH1 0x0 SWAP3 ADD SWAP2 SWAP1 SWAP2 MSTORE POP SWAP3 SWAP6 POP PUSH2 0xE23 SWAP5 POP POP POP POP POP JUMP JUMPDEST CALLVALUE DUP1 ISZERO PUSH2 0x3B1 JUMPI PUSH1 0x0 DUP1 REVERT JUMPDEST POP PUSH2 0x1A9 PUSH1 0x4 DUP1 CALLDATASIZE SUB PUSH2 0x160 DUP2 LT ISZERO PUSH2 0x3C9 JUMPI PUSH1 0x0 DUP1 REVERT JUMPDEST POP PUSH1 0x1 PUSH1 0x1 PUSH1 0xA0 SHL SUB DUP2 CALLDATALOAD DUP2 AND SWAP2 PUSH1 0x20 DUP2 ADD CALLDATALOAD DUP3 AND SWAP2 PUSH1 0x40 DUP3 ADD CALLDATALOAD SWAP2 PUSH1 0x60 DUP2 ADD CALLDATALOAD SWAP2 PUSH1 0x80 DUP3 ADD CALLDATALOAD SWAP2 PUSH1 0xA0 DUP2 ADD CALLDATALOAD SWAP1 SWAP2 AND SWAP1 PUSH1 0xC0 DUP2 ADD CALLDATALOAD SWAP1 PUSH1 0xE0 DUP2 ADD CALLDATALOAD ISZERO ISZERO SWAP1 PUSH1 0xFF PUSH2 0x100 DUP3 ADD CALLDATALOAD AND SWAP1 PUSH2 0x120 DUP2 ADD CALLDATALOAD SWAP1 PUSH2 0x140 ADD CALLDATALOAD PUSH2 0xE59 JUMP JUMPDEST CALLVALUE DUP1 ISZERO PUSH2 0x42F JUMPI PUSH1 0x0 DUP1 REVERT JUMPDEST POP PUSH2 0x2A0 PUSH1 0x4 DUP1 CALLDATASIZE SUB PUSH1 0xA0 DUP2 LT ISZERO PUSH2 0x446 JUMPI PUSH1 0x0 DUP1 REVERT JUMPDEST DUP2 CALLDATALOAD SWAP2 PUSH1 0x20 DUP2 ADD CALLDATALOAD SWAP2 DUP2 ADD SWAP1 PUSH1 0x60 DUP2 ADD PUSH1 0x40 DUP3 ADD CALLDATALOAD PUSH1 0x1 PUSH1 0x20 SHL DUP2 GT ISZERO PUSH2 0x46C JUMPI PUSH1 0x0 DUP1 REVERT JUMPDEST DUP3 ADD DUP4 PUSH1 0x20 DUP3 ADD GT ISZERO PUSH2 0x47E JUMPI PUSH1 0x0 DUP1 REVERT JUMPDEST DUP1 CALLDATALOAD SWAP1 PUSH1 0x20 ADD SWAP2 DUP5 PUSH1 0x20 DUP4 MUL DUP5 ADD GT PUSH1 0x1 PUSH1 0x20 SHL DUP4 GT OR ISZERO PUSH2 0x49F JUMPI PUSH1 0x0 DUP1 REVERT JUMPDEST SWAP2 SWAP4 POP SWAP2 POP PUSH1 0x1 PUSH1 0x1 PUSH1 0xA0 SHL SUB DUP2 CALLDATALOAD AND SWAP1 PUSH1 0x20 ADD CALLDATALOAD PUSH2 0xF53 JUMP JUMPDEST CALLVALUE DUP1 ISZERO PUSH2 0x4C5 JUMPI PUSH1 0x0 DUP1 REVERT JUMPDEST POP PUSH2 0x2A0 PUSH1 0x4 DUP1 CALLDATASIZE SUB PUSH1 0xA0 DUP2 LT ISZERO PUSH2 0x4DC JUMPI PUSH1 0x0 DUP1 REVERT JUMPDEST DUP2 CALLDATALOAD SWAP2 PUSH1 0x20 DUP2 ADD CALLDATALOAD SWAP2 DUP2 ADD SWAP1 PUSH1 0x60 DUP2 ADD PUSH1 0x40 DUP3 ADD CALLDATALOAD PUSH1 0x1 PUSH1 0x20 SHL DUP2 GT ISZERO PUSH2 0x502 JUMPI PUSH1 0x0 DUP1 REVERT JUMPDEST DUP3 ADD DUP4 PUSH1 0x20 DUP3 ADD GT ISZERO PUSH2 0x514 JUMPI PUSH1 0x0 DUP1 REVERT JUMPDEST DUP1 CALLDATALOAD SWAP1 PUSH1 0x20 ADD SWAP2 DUP5 PUSH1 0x20 DUP4 MUL DUP5 ADD GT PUSH1 0x1 PUSH1 0x20 SHL DUP4 GT OR ISZERO PUSH2 0x535 JUMPI PUSH1 0x0 DUP1 REVERT JUMPDEST SWAP2 SWAP4 POP SWAP2 POP PUSH1 0x1 PUSH1 0x1 PUSH1 0xA0 SHL SUB DUP2 CALLDATALOAD AND SWAP1 PUSH1 0x20 ADD CALLDATALOAD PUSH2 0x109E JUMP JUMPDEST PUSH2 0x59D PUSH1 0x4 DUP1 CALLDATASIZE SUB PUSH1 0xE0 DUP2 LT ISZERO PUSH2 0x565 JUMPI PUSH1 0x0 DUP1 REVERT JUMPDEST POP PUSH1 0x1 PUSH1 0x1 PUSH1 0xA0 SHL SUB DUP2 CALLDATALOAD DUP2 AND SWAP2 PUSH1 0x20 DUP2 ADD CALLDATALOAD SWAP2 PUSH1 0x40 DUP3 ADD CALLDATALOAD SWAP2 PUSH1 0x60 DUP2 ADD CALLDATALOAD SWAP2 PUSH1 0x80 DUP3 ADD CALLDATALOAD AND SWAP1 PUSH1 0xA0 DUP2 ADD CALLDATALOAD SWAP1 PUSH1 0xC0 ADD CALLDATALOAD ISZERO ISZERO PUSH2 0x122A JUMP JUMPDEST PUSH1 0x40 DUP1 MLOAD SWAP4 DUP5 MSTORE PUSH1 0x20 DUP5 ADD SWAP3 SWAP1 SWAP3 MSTORE DUP3 DUP3 ADD MSTORE MLOAD SWAP1 DUP2 SWAP1 SUB PUSH1 0x60 ADD SWAP1 RETURN JUMPDEST PUSH2 0x2A0 PUSH1 0x4 DUP1 CALLDATASIZE SUB PUSH1 0x80 DUP2 LT ISZERO PUSH2 0x5D1 JUMPI PUSH1 0x0 DUP1 REVERT JUMPDEST DUP2 CALLDATALOAD SWAP2 SWAP1 DUP2 ADD SWAP1 PUSH1 0x40 DUP2 ADD PUSH1 0x20 DUP3 ADD CALLDATALOAD PUSH1 0x1 PUSH1 0x20 SHL DUP2 GT ISZERO PUSH2 0x5F2 JUMPI PUSH1 0x0 DUP1 REVERT JUMPDEST DUP3 ADD DUP4 PUSH1 0x20 DUP3 ADD GT ISZERO PUSH2 0x604 JUMPI PUSH1 0x0 DUP1 REVERT JUMPDEST DUP1 CALLDATALOAD SWAP1 PUSH1 0x20 ADD SWAP2 DUP5 PUSH1 0x20 DUP4 MUL DUP5 ADD GT PUSH1 0x1 PUSH1 0x20 SHL DUP4 GT OR ISZERO PUSH2 0x625 JUMPI PUSH1 0x0 DUP1 REVERT JUMPDEST SWAP2 SWAP4 POP SWAP2 POP PUSH1 0x1 PUSH1 0x1 PUSH1 0xA0 SHL SUB DUP2 CALLDATALOAD AND SWAP1 PUSH1 0x20 ADD CALLDATALOAD PUSH2 0x1562 JUMP JUMPDEST CALLVALUE DUP1 ISZERO PUSH2 0x64B JUMPI PUSH1 0x0 DUP1 REVERT JUMPDEST POP PUSH2 0x2A0 PUSH1 0x4 DUP1 CALLDATASIZE SUB PUSH1 0xA0 DUP2 LT ISZERO PUSH2 0x662 JUMPI PUSH1 0x0 DUP1 REVERT JUMPDEST DUP2 CALLDATALOAD SWAP2 PUSH1 0x20 DUP2 ADD CALLDATALOAD SWAP2 DUP2 ADD SWAP1 PUSH1 0x60 DUP2 ADD PUSH1 0x40 DUP3 ADD CALLDATALOAD PUSH1 0x1 PUSH1 0x20 SHL DUP2 GT ISZERO PUSH2 0x688 JUMPI PUSH1 0x0 DUP1 REVERT JUMPDEST DUP3 ADD DUP4 PUSH1 0x20 DUP3 ADD GT ISZERO PUSH2 0x69A JUMPI PUSH1 0x0 DUP1 REVERT JUMPDEST DUP1 CALLDATALOAD SWAP1 PUSH1 0x20 ADD SWAP2 DUP5 PUSH1 0x20 DUP4 MUL DUP5 ADD GT PUSH1 0x1 PUSH1 0x20 SHL DUP4 GT OR ISZERO PUSH2 0x6BB JUMPI PUSH1 0x0 DUP1 REVERT JUMPDEST SWAP2 SWAP4 POP SWAP2 POP PUSH1 0x1 PUSH1 0x1 PUSH1 0xA0 SHL SUB DUP2 CALLDATALOAD AND SWAP1 PUSH1 0x20 ADD CALLDATALOAD PUSH2 0x18D2 JUMP JUMPDEST CALLVALUE DUP1 ISZERO PUSH2 0x6E1 JUMPI PUSH1 0x0 DUP1 REVERT JUMPDEST POP PUSH2 0x59D PUSH1 0x4 DUP1 CALLDATASIZE SUB PUSH2 0x120 DUP2 LT ISZERO PUSH2 0x6F9 JUMPI PUSH1 0x0 DUP1 REVERT JUMPDEST POP PUSH1 0x1 PUSH1 0x1 PUSH1 0xA0 SHL SUB DUP2 CALLDATALOAD DUP2 AND SWAP2 PUSH1 0x20 DUP2 ADD CALLDATALOAD DUP3 AND SWAP2 PUSH1 0x40 DUP3 ADD CALLDATALOAD SWAP2 PUSH1 0x60 DUP2 ADD CALLDATALOAD SWAP2 PUSH1 0x80 DUP3 ADD CALLDATALOAD SWAP2 PUSH1 0xA0 DUP2 ADD CALLDATALOAD SWAP2 PUSH1 0xC0 DUP3 ADD CALLDATALOAD DUP2 AND SWAP2 PUSH1 0xE0 DUP2 ADD CALLDATALOAD SWAP2 PUSH2 0x100 SWAP1 SWAP2 ADD CALLDATALOAD AND PUSH2 0x19CB JUMP JUMPDEST CALLVALUE DUP1 ISZERO PUSH2 0x74E JUMPI PUSH1 0x0 DUP1 REVERT JUMPDEST POP PUSH2 0x757 PUSH2 0x1BB6 JUMP JUMPDEST PUSH1 0x40 DUP1 MLOAD PUSH1 0x1 PUSH1 0x1 PUSH1 0xA0 SHL SUB SWAP1 SWAP3 AND DUP3 MSTORE MLOAD SWAP1 DUP2 SWAP1 SUB PUSH1 0x20 ADD SWAP1 RETURN JUMPDEST CALLVALUE DUP1 ISZERO PUSH2 0x77F JUMPI PUSH1 0x0 DUP1 REVERT JUMPDEST POP PUSH2 0x1F8 PUSH1 0x4 DUP1 CALLDATASIZE SUB PUSH1 0x60 DUP2 LT ISZERO PUSH2 0x796 JUMPI PUSH1 0x0 DUP1 REVERT JUMPDEST POP DUP1 CALLDATALOAD SWAP1 PUSH1 0x20 DUP2 ADD CALLDATALOAD SWAP1 PUSH1 0x40 ADD CALLDATALOAD PUSH2 0x1BDA JUMP JUMPDEST CALLVALUE DUP1 ISZERO PUSH2 0x7B5 JUMPI PUSH1 0x0 DUP1 REVERT JUMPDEST POP PUSH2 0x1A9 PUSH1 0x4 DUP1 CALLDATASIZE SUB PUSH1 0xE0 DUP2 LT ISZERO PUSH2 0x7CC JUMPI PUSH1 0x0 DUP1 REVERT JUMPDEST POP PUSH1 0x1 PUSH1 0x1 PUSH1 0xA0 SHL SUB DUP2 CALLDATALOAD DUP2 AND SWAP2 PUSH1 0x20 DUP2 ADD CALLDATALOAD DUP3 AND SWAP2 PUSH1 0x40 DUP3 ADD CALLDATALOAD SWAP2 PUSH1 0x60 DUP2 ADD CALLDATALOAD SWAP2 PUSH1 0x80 DUP3 ADD CALLDATALOAD SWAP2 PUSH1 0xA0 DUP2 ADD CALLDATALOAD SWAP1 SWAP2 AND SWAP1 PUSH1 0xC0 ADD CALLDATALOAD PUSH2 0x1BE7 JUMP JUMPDEST CALLVALUE DUP1 ISZERO PUSH2 0x812 JUMPI PUSH1 0x0 DUP1 REVERT JUMPDEST POP PUSH2 0x757 PUSH2 0x1E2B JUMP JUMPDEST CALLVALUE DUP1 ISZERO PUSH2 0x827 JUMPI PUSH1 0x0 DUP1 REVERT JUMPDEST POP PUSH2 0x2A0 PUSH1 0x4 DUP1 CALLDATASIZE SUB PUSH1 0x40 DUP2 LT ISZERO PUSH2 0x83E JUMPI PUSH1 0x0 DUP1 REVERT JUMPDEST DUP2 CALLDATALOAD SWAP2 SWAP1 DUP2 ADD SWAP1 PUSH1 0x40 DUP2 ADD PUSH1 0x20 DUP3 ADD CALLDATALOAD PUSH1 0x1 PUSH1 0x20 SHL DUP2 GT ISZERO PUSH2 0x85F JUMPI PUSH1 0x0 DUP1 REVERT JUMPDEST DUP3 ADD DUP4 PUSH1 0x20 DUP3 ADD GT ISZERO PUSH2 0x871 JUMPI PUSH1 0x0 DUP1 REVERT JUMPDEST DUP1 CALLDATALOAD SWAP1 PUSH1 0x20 ADD SWAP2 DUP5 PUSH1 0x20 DUP4 MUL DUP5 ADD GT PUSH1 0x1 PUSH1 0x20 SHL DUP4 GT OR ISZERO PUSH2 0x892 JUMPI PUSH1 0x0 DUP1 REVERT JUMPDEST SWAP2 SWAP1 DUP1 DUP1 PUSH1 0x20 MUL PUSH1 0x20 ADD PUSH1 0x40 MLOAD SWAP1 DUP2 ADD PUSH1 0x40 MSTORE DUP1 SWAP4 SWAP3 SWAP2 SWAP1 DUP2 DUP2 MSTORE PUSH1 0x20 ADD DUP4 DUP4 PUSH1 0x20 MUL DUP1 DUP3 DUP5 CALLDATACOPY PUSH1 0x0 SWAP3 ADD SWAP2 SWAP1 SWAP2 MSTORE POP SWAP3 SWAP6 POP PUSH2 0x1E4F SWAP5 POP POP POP POP POP JUMP JUMPDEST CALLVALUE DUP1 ISZERO PUSH2 0x8DC JUMPI PUSH1 0x0 DUP1 REVERT JUMPDEST POP PUSH2 0x1A9 PUSH1 0x4 DUP1 CALLDATASIZE SUB PUSH2 0x140 DUP2 LT ISZERO PUSH2 0x8F4 JUMPI PUSH1 0x0 DUP1 REVERT JUMPDEST POP PUSH1 0x1 PUSH1 0x1 PUSH1 0xA0 SHL SUB DUP2 CALLDATALOAD DUP2 AND SWAP2 PUSH1 0x20 DUP2 ADD CALLDATALOAD SWAP2 PUSH1 0x40 DUP3 ADD CALLDATALOAD SWAP2 PUSH1 0x60 DUP2 ADD CALLDATALOAD SWAP2 PUSH1 0x80 DUP3 ADD CALLDATALOAD AND SWAP1 PUSH1 0xA0 DUP2 ADD CALLDATALOAD SWAP1 PUSH1 0xC0 DUP2 ADD CALLDATALOAD ISZERO ISZERO SWAP1 PUSH1 0xFF PUSH1 0xE0 DUP3 ADD CALLDATALOAD AND SWAP1 PUSH2 0x100 DUP2 ADD CALLDATALOAD SWAP1 PUSH2 0x120 ADD CALLDATALOAD PUSH2 0x1E7C JUMP JUMPDEST PUSH2 0x2A0 PUSH1 0x4 DUP1 CALLDATASIZE SUB PUSH1 0x80 DUP2 LT ISZERO PUSH2 0x959 JUMPI PUSH1 0x0 DUP1 REVERT JUMPDEST DUP2 CALLDATALOAD SWAP2 SWAP1 DUP2 ADD SWAP1 PUSH1 0x40 DUP2 ADD PUSH1 0x20 DUP3 ADD CALLDATALOAD PUSH1 0x1 PUSH1 0x20 SHL DUP2 GT ISZERO PUSH2 0x97A JUMPI PUSH1 0x0 DUP1 REVERT JUMPDEST DUP3 ADD DUP4 PUSH1 0x20 DUP3 ADD GT ISZERO PUSH2 0x98C JUMPI PUSH1 0x0 DUP1 REVERT JUMPDEST DUP1 CALLDATALOAD SWAP1 PUSH1 0x20 ADD SWAP2 DUP5 PUSH1 0x20 DUP4 MUL DUP5 ADD GT PUSH1 0x1 PUSH1 0x20 SHL DUP4 GT OR ISZERO PUSH2 0x9AD JUMPI PUSH1 0x0 DUP1 REVERT JUMPDEST SWAP2 SWAP4 POP SWAP2 POP PUSH1 0x1 PUSH1 0x1 PUSH1 0xA0 SHL SUB DUP2 CALLDATALOAD AND SWAP1 PUSH1 0x20 ADD CALLDATALOAD PUSH2 0x1F90 JUMP JUMPDEST PUSH1 0x0 DUP1 DUP3 TIMESTAMP DUP2 LT ISZERO PUSH2 0xA0E JUMPI PUSH1 0x40 DUP1 MLOAD PUSH3 0x461BCD PUSH1 0xE5 SHL DUP2 MSTORE PUSH1 0x20 PUSH1 0x4 DUP3 ADD MSTORE PUSH1 0x18 PUSH1 0x24 DUP3 ADD MSTORE PUSH1 0x0 DUP1 MLOAD PUSH1 0x20 PUSH2 0x360D DUP4 CODECOPY DUP2 MLOAD SWAP2 MSTORE PUSH1 0x44 DUP3 ADD MSTORE SWAP1 MLOAD SWAP1 DUP2 SWAP1 SUB PUSH1 0x64 ADD SWAP1 REVERT JUMPDEST PUSH2 0xA3D DUP10 PUSH32 0x0 DUP11 DUP11 DUP11 ADDRESS DUP11 PUSH2 0x1BE7 JUMP JUMPDEST SWAP1 SWAP4 POP SWAP2 POP PUSH2 0xA4D DUP10 DUP7 DUP6 PUSH2 0x2312 JUMP JUMPDEST PUSH32 0x0 PUSH1 0x1 PUSH1 0x1 PUSH1 0xA0 SHL SUB AND PUSH4 0x2E1A7D4D DUP4 PUSH1 0x40 MLOAD DUP3 PUSH4 0xFFFFFFFF AND PUSH1 0xE0 SHL DUP2 MSTORE PUSH1 0x4 ADD DUP1 DUP3 DUP2 MSTORE PUSH1 0x20 ADD SWAP2 POP POP PUSH1 0x0 PUSH1 0x40 MLOAD DUP1 DUP4 SUB DUP2 PUSH1 0x0 DUP8 DUP1 EXTCODESIZE ISZERO DUP1 ISZERO PUSH2 0xAB3 JUMPI PUSH1 0x0 DUP1 REVERT JUMPDEST POP GAS CALL ISZERO DUP1 ISZERO PUSH2 0xAC7 JUMPI RETURNDATASIZE PUSH1 0x0 DUP1 RETURNDATACOPY RETURNDATASIZE PUSH1 0x0 REVERT JUMPDEST POP POP POP POP PUSH2 0xAD5 DUP6 DUP4 PUSH2 0x2466 JUMP JUMPDEST POP SWAP7 POP SWAP7 SWAP5 POP POP POP POP POP JUMP JUMPDEST PUSH1 0x0 PUSH2 0xAEE DUP5 DUP5 DUP5 PUSH2 0x255E JUMP JUMPDEST SWAP5 SWAP4 POP POP POP POP JUMP JUMPDEST PUSH1 0x60 DUP2 TIMESTAMP DUP2 LT ISZERO PUSH2 0xB3C JUMPI PUSH1 0x40 DUP1 MLOAD PUSH3 0x461BCD PUSH1 0xE5 SHL DUP2 MSTORE PUSH1 0x20 PUSH1 0x4 DUP3 ADD MSTORE PUSH1 0x18 PUSH1 0x24 DUP3 ADD MSTORE PUSH1 0x0 DUP1 MLOAD PUSH1 0x20 PUSH2 0x360D DUP4 CODECOPY DUP2 MLOAD SWAP2 MSTORE PUSH1 0x44 DUP3 ADD MSTORE SWAP1 MLOAD SWAP1 DUP2 SWAP1 SUB PUSH1 0x64 ADD SWAP1 REVERT JUMPDEST PUSH1 0x1 PUSH1 0x1 PUSH1 0xA0 SHL SUB PUSH32 0x0 AND DUP7 DUP7 PUSH1 0x0 NOT DUP2 ADD DUP2 DUP2 LT PUSH2 0xB76 JUMPI INVALID JUMPDEST SWAP1 POP PUSH1 0x20 MUL ADD CALLDATALOAD PUSH1 0x1 PUSH1 0x1 PUSH1 0xA0 SHL SUB AND PUSH1 0x1 PUSH1 0x1 PUSH1 0xA0 SHL SUB AND EQ PUSH2 0xBCF JUMPI PUSH1 0x40 DUP1 MLOAD PUSH3 0x461BCD PUSH1 0xE5 SHL DUP2 MSTORE PUSH1 0x20 PUSH1 0x4 DUP3 ADD MSTORE PUSH1 0x1D PUSH1 0x24 DUP3 ADD MSTORE PUSH1 0x0 DUP1 MLOAD PUSH1 0x20 PUSH2 0x3544 DUP4 CODECOPY DUP2 MLOAD SWAP2 MSTORE PUSH1 0x44 DUP3 ADD MSTORE SWAP1 MLOAD SWAP1 DUP2 SWAP1 SUB PUSH1 0x64 ADD SWAP1 REVERT JUMPDEST PUSH2 0xC2D PUSH32 0x0 DUP10 DUP9 DUP9 DUP1 DUP1 PUSH1 0x20 MUL PUSH1 0x20 ADD PUSH1 0x40 MLOAD SWAP1 DUP2 ADD PUSH1 0x40 MSTORE DUP1 SWAP4 SWAP3 SWAP2 SWAP1 DUP2 DUP2 MSTORE PUSH1 0x20 ADD DUP4 DUP4 PUSH1 0x20 MUL DUP1 DUP3 DUP5 CALLDATACOPY PUSH1 0x0 SWAP3 ADD SWAP2 SWAP1 SWAP2 MSTORE POP PUSH2 0x264E SWAP3 POP POP POP JUMP JUMPDEST SWAP2 POP DUP7 DUP3 PUSH1 0x1 DUP5 MLOAD SUB DUP2 MLOAD DUP2 LT PUSH2 0xC40 JUMPI INVALID JUMPDEST PUSH1 0x20 MUL PUSH1 0x20 ADD ADD MLOAD LT ISZERO PUSH2 0xC85 JUMPI PUSH1 0x40 MLOAD PUSH3 0x461BCD PUSH1 0xE5 SHL DUP2 MSTORE PUSH1 0x4 ADD DUP1 DUP1 PUSH1 0x20 ADD DUP3 DUP2 SUB DUP3 MSTORE PUSH1 0x2B DUP2 MSTORE PUSH1 0x20 ADD DUP1 PUSH2 0x358A PUSH1 0x2B SWAP2 CODECOPY PUSH1 0x40 ADD SWAP2 POP POP PUSH1 0x40 MLOAD DUP1 SWAP2 SUB SWAP1 REVERT JUMPDEST PUSH2 0xD23 DUP7 DUP7 PUSH1 0x0 DUP2 DUP2 LT PUSH2 0xC95 JUMPI INVALID JUMPDEST SWAP1 POP PUSH1 0x20 MUL ADD CALLDATALOAD PUSH1 0x1 PUSH1 0x1 PUSH1 0xA0 SHL SUB AND CALLER PUSH2 0xD09 PUSH32 0x0 DUP11 DUP11 PUSH1 0x0 DUP2 DUP2 LT PUSH2 0xCD7 JUMPI INVALID JUMPDEST SWAP1 POP PUSH1 0x20 MUL ADD CALLDATALOAD PUSH1 0x1 PUSH1 0x1 PUSH1 0xA0 SHL SUB AND DUP12 DUP12 PUSH1 0x1 DUP2 DUP2 LT PUSH2 0xCF4 JUMPI INVALID JUMPDEST SWAP1 POP PUSH1 0x20 MUL ADD CALLDATALOAD PUSH1 0x1 PUSH1 0x1 PUSH1 0xA0 SHL SUB AND PUSH2 0x279A JUMP JUMPDEST DUP6 PUSH1 0x0 DUP2 MLOAD DUP2 LT PUSH2 0xD16 JUMPI INVALID JUMPDEST PUSH1 0x20 MUL PUSH1 0x20 ADD ADD MLOAD PUSH2 0x285A JUMP JUMPDEST PUSH2 0xD62 DUP3 DUP8 DUP8 DUP1 DUP1 PUSH1 0x20 MUL PUSH1 0x20 ADD PUSH1 0x40 MLOAD SWAP1 DUP2 ADD PUSH1 0x40 MSTORE DUP1 SWAP4 SWAP3 SWAP2 SWAP1 DUP2 DUP2 MSTORE PUSH1 0x20 ADD DUP4 DUP4 PUSH1 0x20 MUL DUP1 DUP3 DUP5 CALLDATACOPY PUSH1 0x0 SWAP3 ADD SWAP2 SWAP1 SWAP2 MSTORE POP ADDRESS SWAP3 POP PUSH2 0x29B7 SWAP2 POP POP JUMP JUMPDEST PUSH32 0x0 PUSH1 0x1 PUSH1 0x1 PUSH1 0xA0 SHL SUB AND PUSH4 0x2E1A7D4D DUP4 PUSH1 0x1 DUP6 MLOAD SUB DUP2 MLOAD DUP2 LT PUSH2 0xDA1 JUMPI INVALID JUMPDEST PUSH1 0x20 MUL PUSH1 0x20 ADD ADD MLOAD PUSH1 0x40 MLOAD DUP3 PUSH4 0xFFFFFFFF AND PUSH1 0xE0 SHL DUP2 MSTORE PUSH1 0x4 ADD DUP1 DUP3 DUP2 MSTORE PUSH1 0x20 ADD SWAP2 POP POP PUSH1 0x0 PUSH1 0x40 MLOAD DUP1 DUP4 SUB DUP2 PUSH1 0x0 DUP8 DUP1 EXTCODESIZE ISZERO DUP1 ISZERO PUSH2 0xDDF JUMPI PUSH1 0x0 DUP1 REVERT JUMPDEST POP GAS CALL ISZERO DUP1 ISZERO PUSH2 0xDF3 JUMPI RETURNDATASIZE PUSH1 0x0 DUP1 RETURNDATACOPY RETURNDATASIZE PUSH1 0x0 REVERT JUMPDEST POP POP POP POP PUSH2 0xE18 DUP5 DUP4 PUSH1 0x1 DUP6 MLOAD SUB DUP2 MLOAD DUP2 LT PUSH2 0xE0B JUMPI INVALID JUMPDEST PUSH1 0x20 MUL PUSH1 0x20 ADD ADD MLOAD PUSH2 0x2466 JUMP JUMPDEST POP SWAP7 SWAP6 POP POP POP POP POP POP JUMP JUMPDEST PUSH1 0x60 PUSH2 0xE50 PUSH32 0x0 DUP5 DUP5 PUSH2 0x2BFD JUMP JUMPDEST SWAP1 POP JUMPDEST SWAP3 SWAP2 POP POP JUMP JUMPDEST PUSH1 0x0 DUP1 PUSH1 0x0 PUSH2 0xE89 PUSH32 0x0 DUP16 DUP16 PUSH2 0x279A JUMP JUMPDEST SWAP1 POP PUSH1 0x0 DUP8 PUSH2 0xE98 JUMPI DUP13 PUSH2 0xE9C JUMP JUMPDEST PUSH1 0x0 NOT JUMPDEST PUSH1 0x40 DUP1 MLOAD PUSH4 0xD505ACCF PUSH1 0xE0 SHL DUP2 MSTORE CALLER PUSH1 0x4 DUP3 ADD MSTORE ADDRESS PUSH1 0x24 DUP3 ADD MSTORE PUSH1 0x44 DUP2 ADD DUP4 SWAP1 MSTORE PUSH1 0x64 DUP2 ADD DUP13 SWAP1 MSTORE PUSH1 0xFF DUP11 AND PUSH1 0x84 DUP3 ADD MSTORE PUSH1 0xA4 DUP2 ADD DUP10 SWAP1 MSTORE PUSH1 0xC4 DUP2 ADD DUP9 SWAP1 MSTORE SWAP1 MLOAD SWAP2 SWAP3 POP PUSH1 0x1 PUSH1 0x1 PUSH1 0xA0 SHL SUB DUP5 AND SWAP2 PUSH4 0xD505ACCF SWAP2 PUSH1 0xE4 DUP1 DUP3 ADD SWAP3 PUSH1 0x0 SWAP3 SWAP1 SWAP2 SWAP1 DUP3 SWAP1 SUB ADD DUP2 DUP4 DUP8 DUP1 EXTCODESIZE ISZERO DUP1 ISZERO PUSH2 0xF12 JUMPI PUSH1 0x0 DUP1 REVERT JUMPDEST POP GAS CALL ISZERO DUP1 ISZERO PUSH2 0xF26 JUMPI RETURNDATASIZE PUSH1 0x0 DUP1 RETURNDATACOPY RETURNDATASIZE PUSH1 0x0 REVERT JUMPDEST POP POP POP POP PUSH2 0xF39 DUP16 DUP16 DUP16 DUP16 DUP16 DUP16 DUP16 PUSH2 0x1BE7 JUMP JUMPDEST DUP1 SWAP5 POP DUP2 SWAP6 POP POP POP POP POP SWAP12 POP SWAP12 SWAP10 POP POP POP POP POP POP POP POP POP POP JUMP JUMPDEST PUSH1 0x60 DUP2 TIMESTAMP DUP2 LT ISZERO PUSH2 0xF99 JUMPI PUSH1 0x40 DUP1 MLOAD PUSH3 0x461BCD PUSH1 0xE5 SHL DUP2 MSTORE PUSH1 0x20 PUSH1 0x4 DUP3 ADD MSTORE PUSH1 0x18 PUSH1 0x24 DUP3 ADD MSTORE PUSH1 0x0 DUP1 MLOAD PUSH1 0x20 PUSH2 0x360D DUP4 CODECOPY DUP2 MLOAD SWAP2 MSTORE PUSH1 0x44 DUP3 ADD MSTORE SWAP1 MLOAD SWAP1 DUP2 SWAP1 SUB PUSH1 0x64 ADD SWAP1 REVERT JUMPDEST PUSH2 0xFF7 PUSH32 0x0 DUP10 DUP9 DUP9 DUP1 DUP1 PUSH1 0x20 MUL PUSH1 0x20 ADD PUSH1 0x40 MLOAD SWAP1 DUP2 ADD PUSH1 0x40 MSTORE DUP1 SWAP4 SWAP3 SWAP2 SWAP1 DUP2 DUP2 MSTORE PUSH1 0x20 ADD DUP4 DUP4 PUSH1 0x20 MUL DUP1 DUP3 DUP5 CALLDATACOPY PUSH1 0x0 SWAP3 ADD SWAP2 SWAP1 SWAP2 MSTORE POP PUSH2 0x264E SWAP3 POP POP POP JUMP JUMPDEST SWAP2 POP DUP7 DUP3 PUSH1 0x1 DUP5 MLOAD SUB DUP2 MLOAD DUP2 LT PUSH2 0x100A JUMPI INVALID JUMPDEST PUSH1 0x20 MUL PUSH1 0x20 ADD ADD MLOAD LT ISZERO PUSH2 0x104F JUMPI PUSH1 0x40 MLOAD PUSH3 0x461BCD PUSH1 0xE5 SHL DUP2 MSTORE PUSH1 0x4 ADD DUP1 DUP1 PUSH1 0x20 ADD DUP3 DUP2 SUB DUP3 MSTORE PUSH1 0x2B DUP2 MSTORE PUSH1 0x20 ADD DUP1 PUSH2 0x358A PUSH1 0x2B SWAP2 CODECOPY PUSH1 0x40 ADD SWAP2 POP POP PUSH1 0x40 MLOAD DUP1 SWAP2 SUB SWAP1 REVERT JUMPDEST PUSH2 0x105F DUP7 DUP7 PUSH1 0x0 DUP2 DUP2 LT PUSH2 0xC95 JUMPI INVALID JUMPDEST PUSH2 0xE18 DUP3 DUP8 DUP8 DUP1 DUP1 PUSH1 0x20 MUL PUSH1 0x20 ADD PUSH1 0x40 MLOAD SWAP1 DUP2 ADD PUSH1 0x40 MSTORE DUP1 SWAP4 SWAP3 SWAP2 SWAP1 DUP2 DUP2 MSTORE PUSH1 0x20 ADD DUP4 DUP4 PUSH1 0x20 MUL DUP1 DUP3 DUP5 CALLDATACOPY PUSH1 0x0 SWAP3 ADD SWAP2 SWAP1 SWAP2 MSTORE POP DUP10 SWAP3 POP PUSH2 0x29B7 SWAP2 POP POP JUMP JUMPDEST PUSH1 0x60 DUP2 TIMESTAMP DUP2 LT ISZERO PUSH2 0x10E4 JUMPI PUSH1 0x40 DUP1 MLOAD PUSH3 0x461BCD PUSH1 0xE5 SHL DUP2 MSTORE PUSH1 0x20 PUSH1 0x4 DUP3 ADD MSTORE PUSH1 0x18 PUSH1 0x24 DUP3 ADD MSTORE PUSH1 0x0 DUP1 MLOAD PUSH1 0x20 PUSH2 0x360D DUP4 CODECOPY DUP2 MLOAD SWAP2 MSTORE PUSH1 0x44 DUP3 ADD MSTORE SWAP1 MLOAD SWAP1 DUP2 SWAP1 SUB PUSH1 0x64 ADD SWAP1 REVERT JUMPDEST PUSH1 0x1 PUSH1 0x1 PUSH1 0xA0 SHL SUB PUSH32 0x0 AND DUP7 DUP7 PUSH1 0x0 NOT DUP2 ADD DUP2 DUP2 LT PUSH2 0x111E JUMPI INVALID JUMPDEST SWAP1 POP PUSH1 0x20 MUL ADD CALLDATALOAD PUSH1 0x1 PUSH1 0x1 PUSH1 0xA0 SHL SUB AND PUSH1 0x1 PUSH1 0x1 PUSH1 0xA0 SHL SUB AND EQ PUSH2 0x1177 JUMPI PUSH1 0x40 DUP1 MLOAD PUSH3 0x461BCD PUSH1 0xE5 SHL DUP2 MSTORE PUSH1 0x20 PUSH1 0x4 DUP3 ADD MSTORE PUSH1 0x1D PUSH1 0x24 DUP3 ADD MSTORE PUSH1 0x0 DUP1 MLOAD PUSH1 0x20 PUSH2 0x3544 DUP4 CODECOPY DUP2 MLOAD SWAP2 MSTORE PUSH1 0x44 DUP3 ADD MSTORE SWAP1 MLOAD SWAP1 DUP2 SWAP1 SUB PUSH1 0x64 ADD SWAP1 REVERT JUMPDEST PUSH2 0x11D5 PUSH32 0x0 DUP10 DUP9 DUP9 DUP1 DUP1 PUSH1 0x20 MUL PUSH1 0x20 ADD PUSH1 0x40 MLOAD SWAP1 DUP2 ADD PUSH1 0x40 MSTORE DUP1 SWAP4 SWAP3 SWAP2 SWAP1 DUP2 DUP2 MSTORE PUSH1 0x20 ADD DUP4 DUP4 PUSH1 0x20 MUL DUP1 DUP3 DUP5 CALLDATACOPY PUSH1 0x0 SWAP3 ADD SWAP2 SWAP1 SWAP2 MSTORE POP PUSH2 0x2BFD SWAP3 POP POP POP JUMP JUMPDEST SWAP2 POP DUP7 DUP3 PUSH1 0x0 DUP2 MLOAD DUP2 LT PUSH2 0x11E5 JUMPI INVALID JUMPDEST PUSH1 0x20 MUL PUSH1 0x20 ADD ADD MLOAD GT ISZERO PUSH2 0xC85 JUMPI PUSH1 0x40 MLOAD PUSH3 0x461BCD PUSH1 0xE5 SHL DUP2 MSTORE PUSH1 0x4 ADD DUP1 DUP1 PUSH1 0x20 ADD DUP3 DUP2 SUB DUP3 MSTORE PUSH1 0x27 DUP2 MSTORE PUSH1 0x20 ADD DUP1 PUSH2 0x351D PUSH1 0x27 SWAP2 CODECOPY PUSH1 0x40 ADD SWAP2 POP POP PUSH1 0x40 MLOAD DUP1 SWAP2 SUB SWAP1 REVERT JUMPDEST PUSH1 0x0 DUP1 PUSH1 0x0 DUP5 TIMESTAMP DUP2 LT ISZERO PUSH2 0x1273 JUMPI PUSH1 0x40 DUP1 MLOAD PUSH3 0x461BCD PUSH1 0xE5 SHL DUP2 MSTORE PUSH1 0x20 PUSH1 0x4 DUP3 ADD MSTORE PUSH1 0x18 PUSH1 0x24 DUP3 ADD MSTORE PUSH1 0x0 DUP1 MLOAD PUSH1 0x20 PUSH2 0x360D DUP4 CODECOPY DUP2 MLOAD SWAP2 MSTORE PUSH1 0x44 DUP3 ADD MSTORE SWAP1 MLOAD SWAP1 DUP2 SWAP1 SUB PUSH1 0x64 ADD SWAP1 REVERT JUMPDEST PUSH2 0x12A1 DUP12 PUSH32 0x0 DUP13 CALLVALUE DUP14 DUP14 PUSH2 0x2D35 JUMP JUMPDEST SWAP1 SWAP5 POP SWAP3 POP PUSH1 0x0 PUSH2 0x12F3 PUSH32 0x0 DUP14 PUSH32 0x0 PUSH2 0x279A JUMP JUMPDEST SWAP1 POP PUSH2 0x1301 DUP13 CALLER DUP4 DUP9 PUSH2 0x285A JUMP JUMPDEST PUSH32 0x0 PUSH1 0x1 PUSH1 0x1 PUSH1 0xA0 SHL SUB AND PUSH4 0xD0E30DB0 DUP6 PUSH1 0x40 MLOAD DUP3 PUSH4 0xFFFFFFFF AND PUSH1 0xE0 SHL DUP2 MSTORE PUSH1 0x4 ADD PUSH1 0x0 PUSH1 0x40 MLOAD DUP1 DUP4 SUB DUP2 DUP6 DUP9 DUP1 EXTCODESIZE ISZERO DUP1 ISZERO PUSH2 0x135C JUMPI PUSH1 0x0 DUP1 REVERT JUMPDEST POP GAS CALL ISZERO DUP1 ISZERO PUSH2 0x1370 JUMPI RETURNDATASIZE PUSH1 0x0 DUP1 RETURNDATACOPY RETURNDATASIZE PUSH1 0x0 REVERT JUMPDEST POP POP POP POP POP PUSH32 0x0 PUSH1 0x1 PUSH1 0x1 PUSH1 0xA0 SHL SUB AND PUSH4 0xA9059CBB DUP3 DUP7 PUSH1 0x40 MLOAD DUP4 PUSH4 0xFFFFFFFF AND PUSH1 0xE0 SHL DUP2 MSTORE PUSH1 0x4 ADD DUP1 DUP4 PUSH1 0x1 PUSH1 0x1 PUSH1 0xA0 SHL SUB AND PUSH1 0x1 PUSH1 0x1 PUSH1 0xA0 SHL SUB AND DUP2 MSTORE PUSH1 0x20 ADD DUP3 DUP2 MSTORE PUSH1 0x20 ADD SWAP3 POP POP POP PUSH1 0x20 PUSH1 0x40 MLOAD DUP1 DUP4 SUB DUP2 PUSH1 0x0 DUP8 DUP1 EXTCODESIZE ISZERO DUP1 ISZERO PUSH2 0x13F5 JUMPI PUSH1 0x0 DUP1 REVERT JUMPDEST POP GAS CALL ISZERO DUP1 ISZERO PUSH2 0x1409 JUMPI RETURNDATASIZE PUSH1 0x0 DUP1 RETURNDATACOPY RETURNDATASIZE PUSH1 0x0 REVERT JUMPDEST POP POP POP POP PUSH1 0x40 MLOAD RETURNDATASIZE PUSH1 0x20 DUP2 LT ISZERO PUSH2 0x141F JUMPI PUSH1 0x0 DUP1 REVERT JUMPDEST POP MLOAD PUSH2 0x1427 JUMPI INVALID JUMPDEST DUP6 ISZERO PUSH2 0x14B8 JUMPI DUP1 PUSH1 0x1 PUSH1 0x1 PUSH1 0xA0 SHL SUB AND PUSH4 0x6A627842 DUP10 PUSH1 0x40 MLOAD DUP3 PUSH4 0xFFFFFFFF AND PUSH1 0xE0 SHL DUP2 MSTORE PUSH1 0x4 ADD DUP1 DUP3 PUSH1 0x1 PUSH1 0x1 PUSH1 0xA0 SHL SUB AND PUSH1 0x1 PUSH1 0x1 PUSH1 0xA0 SHL SUB AND DUP2 MSTORE PUSH1 0x20 ADD SWAP2 POP POP PUSH1 0x20 PUSH1 0x40 MLOAD DUP1 DUP4 SUB DUP2 PUSH1 0x0 DUP8 DUP1 EXTCODESIZE ISZERO DUP1 ISZERO PUSH2 0x1485 JUMPI PUSH1 0x0 DUP1 REVERT JUMPDEST POP GAS CALL ISZERO DUP1 ISZERO PUSH2 0x1499 JUMPI RETURNDATASIZE PUSH1 0x0 DUP1 RETURNDATACOPY RETURNDATASIZE PUSH1 0x0 REVERT JUMPDEST POP POP POP POP PUSH1 0x40 MLOAD RETURNDATASIZE PUSH1 0x20 DUP2 LT ISZERO PUSH2 0x14AF JUMPI PUSH1 0x0 DUP1 REVERT JUMPDEST POP MLOAD SWAP3 POP PUSH2 0x153F JUMP JUMPDEST DUP1 PUSH1 0x1 PUSH1 0x1 PUSH1 0xA0 SHL SUB AND PUSH4 0xDCBBB373 DUP10 PUSH1 0x40 MLOAD DUP3 PUSH4 0xFFFFFFFF AND PUSH1 0xE0 SHL DUP2 MSTORE PUSH1 0x4 ADD DUP1 DUP3 PUSH1 0x1 PUSH1 0x1 PUSH1 0xA0 SHL SUB AND PUSH1 0x1 PUSH1 0x1 PUSH1 0xA0 SHL SUB AND DUP2 MSTORE PUSH1 0x20 ADD SWAP2 POP POP PUSH1 0x20 PUSH1 0x40 MLOAD DUP1 DUP4 SUB DUP2 PUSH1 0x0 DUP8 DUP1 EXTCODESIZE ISZERO DUP1 ISZERO PUSH2 0x1510 JUMPI PUSH1 0x0 DUP1 REVERT JUMPDEST POP GAS CALL ISZERO DUP1 ISZERO PUSH2 0x1524 JUMPI RETURNDATASIZE PUSH1 0x0 DUP1 RETURNDATACOPY RETURNDATASIZE PUSH1 0x0 REVERT JUMPDEST POP POP POP POP PUSH1 0x40 MLOAD RETURNDATASIZE PUSH1 0x20 DUP2 LT ISZERO PUSH2 0x153A JUMPI PUSH1 0x0 DUP1 REVERT JUMPDEST POP MLOAD SWAP3 POP JUMPDEST DUP4 CALLVALUE GT ISZERO PUSH2 0x1553 JUMPI PUSH2 0x1553 CALLER DUP6 CALLVALUE SUB PUSH2 0x2466 JUMP JUMPDEST POP POP SWAP8 POP SWAP8 POP SWAP8 SWAP5 POP POP POP POP POP JUMP JUMPDEST PUSH1 0x60 DUP2 TIMESTAMP DUP2 LT ISZERO PUSH2 0x15A8 JUMPI PUSH1 0x40 DUP1 MLOAD PUSH3 0x461BCD PUSH1 0xE5 SHL DUP2 MSTORE PUSH1 0x20 PUSH1 0x4 DUP3 ADD MSTORE PUSH1 0x18 PUSH1 0x24 DUP3 ADD MSTORE PUSH1 0x0 DUP1 MLOAD PUSH1 0x20 PUSH2 0x360D DUP4 CODECOPY DUP2 MLOAD SWAP2 MSTORE PUSH1 0x44 DUP3 ADD MSTORE SWAP1 MLOAD SWAP1 DUP2 SWAP1 SUB PUSH1 0x64 ADD SWAP1 REVERT JUMPDEST PUSH32 0x0 PUSH1 0x1 PUSH1 0x1 PUSH1 0xA0 SHL SUB AND DUP7 DUP7 PUSH1 0x0 DUP2 DUP2 LT PUSH2 0x15DF JUMPI INVALID JUMPDEST SWAP1 POP PUSH1 0x20 MUL ADD CALLDATALOAD PUSH1 0x1 PUSH1 0x1 PUSH1 0xA0 SHL SUB AND PUSH1 0x1 PUSH1 0x1 PUSH1 0xA0 SHL SUB AND EQ PUSH2 0x1638 JUMPI PUSH1 0x40 DUP1 MLOAD PUSH3 0x461BCD PUSH1 0xE5 SHL DUP2 MSTORE PUSH1 0x20 PUSH1 0x4 DUP3 ADD MSTORE PUSH1 0x1D PUSH1 0x24 DUP3 ADD MSTORE PUSH1 0x0 DUP1 MLOAD PUSH1 0x20 PUSH2 0x3544 DUP4 CODECOPY DUP2 MLOAD SWAP2 MSTORE PUSH1 0x44 DUP3 ADD MSTORE SWAP1 MLOAD SWAP1 DUP2 SWAP1 SUB PUSH1 0x64 ADD SWAP1 REVERT JUMPDEST PUSH2 0x1696 PUSH32 0x0 CALLVALUE DUP9 DUP9 DUP1 DUP1 PUSH1 0x20 MUL PUSH1 0x20 ADD PUSH1 0x40 MLOAD SWAP1 DUP2 ADD PUSH1 0x40 MSTORE DUP1 SWAP4 SWAP3 SWAP2 SWAP1 DUP2 DUP2 MSTORE PUSH1 0x20 ADD DUP4 DUP4 PUSH1 0x20 MUL DUP1 DUP3 DUP5 CALLDATACOPY PUSH1 0x0 SWAP3 ADD SWAP2 SWAP1 SWAP2 MSTORE POP PUSH2 0x264E SWAP3 POP POP POP JUMP JUMPDEST SWAP2 POP DUP7 DUP3 PUSH1 0x1 DUP5 MLOAD SUB DUP2 MLOAD DUP2 LT PUSH2 0x16A9 JUMPI INVALID JUMPDEST PUSH1 0x20 MUL PUSH1 0x20 ADD ADD MLOAD LT ISZERO PUSH2 0x16EE JUMPI PUSH1 0x40 MLOAD PUSH3 0x461BCD PUSH1 0xE5 SHL DUP2 MSTORE PUSH1 0x4 ADD DUP1 DUP1 PUSH1 0x20 ADD DUP3 DUP2 SUB DUP3 MSTORE PUSH1 0x2B DUP2 MSTORE PUSH1 0x20 ADD DUP1 PUSH2 0x358A PUSH1 0x2B SWAP2 CODECOPY PUSH1 0x40 ADD SWAP2 POP POP PUSH1 0x40 MLOAD DUP1 SWAP2 SUB SWAP1 REVERT JUMPDEST PUSH32 0x0 PUSH1 0x1 PUSH1 0x1 PUSH1 0xA0 SHL SUB AND PUSH4 0xD0E30DB0 DUP4 PUSH1 0x0 DUP2 MLOAD DUP2 LT PUSH2 0x172A JUMPI INVALID JUMPDEST PUSH1 0x20 MUL PUSH1 0x20 ADD ADD MLOAD PUSH1 0x40 MLOAD DUP3 PUSH4 0xFFFFFFFF AND PUSH1 0xE0 SHL DUP2 MSTORE PUSH1 0x4 ADD PUSH1 0x0 PUSH1 0x40 MLOAD DUP1 DUP4 SUB DUP2 DUP6 DUP9 DUP1 EXTCODESIZE ISZERO DUP1 ISZERO PUSH2 0x175D JUMPI PUSH1 0x0 DUP1 REVERT JUMPDEST POP GAS CALL ISZERO DUP1 ISZERO PUSH2 0x1771 JUMPI RETURNDATASIZE PUSH1 0x0 DUP1 RETURNDATACOPY RETURNDATASIZE PUSH1 0x0 REVERT JUMPDEST POP POP POP POP POP PUSH32 0x0 PUSH1 0x1 PUSH1 0x1 PUSH1 0xA0 SHL SUB AND PUSH4 0xA9059CBB PUSH2 0x17F3 PUSH32 0x0 DUP10 DUP10 PUSH1 0x0 DUP2 DUP2 LT PUSH2 0x17D6 JUMPI INVALID JUMPDEST SWAP1 POP PUSH1 0x20 MUL ADD CALLDATALOAD PUSH1 0x1 PUSH1 0x1 PUSH1 0xA0 SHL SUB AND DUP11 DUP11 PUSH1 0x1 DUP2 DUP2 LT PUSH2 0xCF4 JUMPI INVALID JUMPDEST DUP5 PUSH1 0x0 DUP2 MLOAD DUP2 LT PUSH2 0x1800 JUMPI INVALID JUMPDEST PUSH1 0x20 MUL PUSH1 0x20 ADD ADD MLOAD PUSH1 0x40 MLOAD DUP4 PUSH4 0xFFFFFFFF AND PUSH1 0xE0 SHL DUP2 MSTORE PUSH1 0x4 ADD DUP1 DUP4 PUSH1 0x1 PUSH1 0x1 PUSH1 0xA0 SHL SUB AND PUSH1 0x1 PUSH1 0x1 PUSH1 0xA0 SHL SUB AND DUP2 MSTORE PUSH1 0x20 ADD DUP3 DUP2 MSTORE PUSH1 0x20 ADD SWAP3 POP POP POP PUSH1 0x20 PUSH1 0x40 MLOAD DUP1 DUP4 SUB DUP2 PUSH1 0x0 DUP8 DUP1 EXTCODESIZE ISZERO DUP1 ISZERO PUSH2 0x1857 JUMPI PUSH1 0x0 DUP1 REVERT JUMPDEST POP GAS CALL ISZERO DUP1 ISZERO PUSH2 0x186B JUMPI RETURNDATASIZE PUSH1 0x0 DUP1 RETURNDATACOPY RETURNDATASIZE PUSH1 0x0 REVERT JUMPDEST POP POP POP POP PUSH1 0x40 MLOAD RETURNDATASIZE PUSH1 0x20 DUP2 LT ISZERO PUSH2 0x1881 JUMPI PUSH1 0x0 DUP1 REVERT JUMPDEST POP MLOAD PUSH2 0x1889 JUMPI INVALID JUMPDEST PUSH2 0x18C8 DUP3 DUP8 DUP8 DUP1 DUP1 PUSH1 0x20 MUL PUSH1 0x20 ADD PUSH1 0x40 MLOAD SWAP1 DUP2 ADD PUSH1 0x40 MSTORE DUP1 SWAP4 SWAP3 SWAP2 SWAP1 DUP2 DUP2 MSTORE PUSH1 0x20 ADD DUP4 DUP4 PUSH1 0x20 MUL DUP1 DUP3 DUP5 CALLDATACOPY PUSH1 0x0 SWAP3 ADD SWAP2 SWAP1 SWAP2 MSTORE POP DUP10 SWAP3 POP PUSH2 0x29B7 SWAP2 POP POP JUMP JUMPDEST POP SWAP6 SWAP5 POP POP POP POP POP JUMP JUMPDEST PUSH1 0x60 DUP2 TIMESTAMP DUP2 LT ISZERO PUSH2 0x1918 JUMPI PUSH1 0x40 DUP1 MLOAD PUSH3 0x461BCD PUSH1 0xE5 SHL DUP2 MSTORE PUSH1 0x20 PUSH1 0x4 DUP3 ADD MSTORE PUSH1 0x18 PUSH1 0x24 DUP3 ADD MSTORE PUSH1 0x0 DUP1 MLOAD PUSH1 0x20 PUSH2 0x360D DUP4 CODECOPY DUP2 MLOAD SWAP2 MSTORE PUSH1 0x44 DUP3 ADD MSTORE SWAP1 MLOAD SWAP1 DUP2 SWAP1 SUB PUSH1 0x64 ADD SWAP1 REVERT JUMPDEST PUSH2 0x1976 PUSH32 0x0 DUP10 DUP9 DUP9 DUP1 DUP1 PUSH1 0x20 MUL PUSH1 0x20 ADD PUSH1 0x40 MLOAD SWAP1 DUP2 ADD PUSH1 0x40 MSTORE DUP1 SWAP4 SWAP3 SWAP2 SWAP1 DUP2 DUP2 MSTORE PUSH1 0x20 ADD DUP4 DUP4 PUSH1 0x20 MUL DUP1 DUP3 DUP5 CALLDATACOPY PUSH1 0x0 SWAP3 ADD SWAP2 SWAP1 SWAP2 MSTORE POP PUSH2 0x2BFD SWAP3 POP POP POP JUMP JUMPDEST SWAP2 POP DUP7 DUP3 PUSH1 0x0 DUP2 MLOAD DUP2 LT PUSH2 0x1986 JUMPI INVALID JUMPDEST PUSH1 0x20 MUL PUSH1 0x20 ADD ADD MLOAD GT ISZERO PUSH2 0x104F JUMPI PUSH1 0x40 MLOAD PUSH3 0x461BCD PUSH1 0xE5 SHL DUP2 MSTORE PUSH1 0x4 ADD DUP1 DUP1 PUSH1 0x20 ADD DUP3 DUP2 SUB DUP3 MSTORE PUSH1 0x27 DUP2 MSTORE PUSH1 0x20 ADD DUP1 PUSH2 0x351D PUSH1 0x27 SWAP2 CODECOPY PUSH1 0x40 ADD SWAP2 POP POP PUSH1 0x40 MLOAD DUP1 SWAP2 SUB SWAP1 REVERT JUMPDEST PUSH1 0x0 DUP1 PUSH1 0x0 DUP5 TIMESTAMP DUP2 LT ISZERO PUSH2 0x1A14 JUMPI PUSH1 0x40 DUP1 MLOAD PUSH3 0x461BCD PUSH1 0xE5 SHL DUP2 MSTORE PUSH1 0x20 PUSH1 0x4 DUP3 ADD MSTORE PUSH1 0x18 PUSH1 0x24 DUP3 ADD MSTORE PUSH1 0x0 DUP1 MLOAD PUSH1 0x20 PUSH2 0x360D DUP4 CODECOPY DUP2 MLOAD SWAP2 MSTORE PUSH1 0x44 DUP3 ADD MSTORE SWAP1 MLOAD SWAP1 DUP2 SWAP1 SUB PUSH1 0x64 ADD SWAP1 REVERT JUMPDEST PUSH2 0x1A22 DUP14 DUP14 DUP14 DUP14 DUP14 DUP14 PUSH2 0x2D35 JUMP JUMPDEST SWAP1 SWAP5 POP SWAP3 POP PUSH1 0x0 PUSH2 0x1A54 PUSH32 0x0 DUP16 DUP16 PUSH2 0x279A JUMP JUMPDEST SWAP1 POP PUSH2 0x1A62 DUP15 CALLER DUP4 DUP9 PUSH2 0x285A JUMP JUMPDEST PUSH2 0x1A6E DUP14 CALLER DUP4 DUP8 PUSH2 0x285A JUMP JUMPDEST PUSH20 0x2373A942FEBC0EE428B266BDD58275794E7F1553 PUSH1 0x1 PUSH1 0x1 PUSH1 0xA0 SHL SUB DUP8 AND EQ ISZERO PUSH2 0x1B1E JUMPI DUP1 PUSH1 0x1 PUSH1 0x1 PUSH1 0xA0 SHL SUB AND PUSH4 0x6A627842 DUP10 PUSH1 0x40 MLOAD DUP3 PUSH4 0xFFFFFFFF AND PUSH1 0xE0 SHL DUP2 MSTORE PUSH1 0x4 ADD DUP1 DUP3 PUSH1 0x1 PUSH1 0x1 PUSH1 0xA0 SHL SUB AND PUSH1 0x1 PUSH1 0x1 PUSH1 0xA0 SHL SUB AND DUP2 MSTORE PUSH1 0x20 ADD SWAP2 POP POP PUSH1 0x20 PUSH1 0x40 MLOAD DUP1 DUP4 SUB DUP2 PUSH1 0x0 DUP8 DUP1 EXTCODESIZE ISZERO DUP1 ISZERO PUSH2 0x1AEB JUMPI PUSH1 0x0 DUP1 REVERT JUMPDEST POP GAS CALL ISZERO DUP1 ISZERO PUSH2 0x1AFF JUMPI RETURNDATASIZE PUSH1 0x0 DUP1 RETURNDATACOPY RETURNDATASIZE PUSH1 0x0 REVERT JUMPDEST POP POP POP POP PUSH1 0x40 MLOAD RETURNDATASIZE PUSH1 0x20 DUP2 LT ISZERO PUSH2 0x1B15 JUMPI PUSH1 0x0 DUP1 REVERT JUMPDEST POP MLOAD SWAP3 POP PUSH2 0x1BA5 JUMP JUMPDEST DUP1 PUSH1 0x1 PUSH1 0x1 PUSH1 0xA0 SHL SUB AND PUSH4 0xDCBBB373 DUP10 PUSH1 0x40 MLOAD DUP3 PUSH4 0xFFFFFFFF AND PUSH1 0xE0 SHL DUP2 MSTORE PUSH1 0x4 ADD DUP1 DUP3 PUSH1 0x1 PUSH1 0x1 PUSH1 0xA0 SHL SUB AND PUSH1 0x1 PUSH1 0x1 PUSH1 0xA0 SHL SUB AND DUP2 MSTORE PUSH1 0x20 ADD SWAP2 POP POP PUSH1 0x20 PUSH1 0x40 MLOAD DUP1 DUP4 SUB DUP2 PUSH1 0x0 DUP8 DUP1 EXTCODESIZE ISZERO DUP1 ISZERO PUSH2 0x1B76 JUMPI PUSH1 0x0 DUP1 REVERT JUMPDEST POP GAS CALL ISZERO DUP1 ISZERO PUSH2 0x1B8A JUMPI RETURNDATASIZE PUSH1 0x0 DUP1 RETURNDATACOPY RETURNDATASIZE PUSH1 0x0 REVERT JUMPDEST POP POP POP POP PUSH1 0x40 MLOAD RETURNDATASIZE PUSH1 0x20 DUP2 LT ISZERO PUSH2 0x1BA0 JUMPI PUSH1 0x0 DUP1 REVERT JUMPDEST POP MLOAD SWAP3 POP JUMPDEST POP POP SWAP10 POP SWAP10 POP SWAP10 SWAP7 POP POP POP POP POP POP POP JUMP JUMPDEST PUSH32 0x0 DUP2 JUMP JUMPDEST PUSH1 0x0 PUSH2 0xAEE DUP5 DUP5 DUP5 PUSH2 0x2FA9 JUMP JUMPDEST PUSH1 0x0 DUP1 DUP3 TIMESTAMP DUP2 LT ISZERO PUSH2 0x1C2E JUMPI PUSH1 0x40 DUP1 MLOAD PUSH3 0x461BCD PUSH1 0xE5 SHL DUP2 MSTORE PUSH1 0x20 PUSH1 0x4 DUP3 ADD MSTORE PUSH1 0x18 PUSH1 0x24 DUP3 ADD MSTORE PUSH1 0x0 DUP1 MLOAD PUSH1 0x20 PUSH2 0x360D DUP4 CODECOPY DUP2 MLOAD SWAP2 MSTORE PUSH1 0x44 DUP3 ADD MSTORE SWAP1 MLOAD SWAP1 DUP2 SWAP1 SUB PUSH1 0x64 ADD SWAP1 REVERT JUMPDEST PUSH1 0x0 PUSH2 0x1C5B PUSH32 0x0 DUP13 DUP13 PUSH2 0x279A JUMP JUMPDEST PUSH1 0x40 DUP1 MLOAD PUSH4 0x23B872DD PUSH1 0xE0 SHL DUP2 MSTORE CALLER PUSH1 0x4 DUP3 ADD MSTORE PUSH1 0x1 PUSH1 0x1 PUSH1 0xA0 SHL SUB DUP4 AND PUSH1 0x24 DUP3 ADD DUP2 SWAP1 MSTORE PUSH1 0x44 DUP3 ADD DUP14 SWAP1 MSTORE SWAP2 MLOAD SWAP3 SWAP4 POP SWAP1 SWAP2 PUSH4 0x23B872DD SWAP2 PUSH1 0x64 DUP1 DUP3 ADD SWAP3 PUSH1 0x20 SWAP3 SWAP1 SWAP2 SWAP1 DUP3 SWAP1 SUB ADD DUP2 PUSH1 0x0 DUP8 DUP1 EXTCODESIZE ISZERO DUP1 ISZERO PUSH2 0x1CB6 JUMPI PUSH1 0x0 DUP1 REVERT JUMPDEST POP GAS CALL ISZERO DUP1 ISZERO PUSH2 0x1CCA JUMPI RETURNDATASIZE PUSH1 0x0 DUP1 RETURNDATACOPY RETURNDATASIZE PUSH1 0x0 REVERT JUMPDEST POP POP POP POP PUSH1 0x40 MLOAD RETURNDATASIZE PUSH1 0x20 DUP2 LT ISZERO PUSH2 0x1CE0 JUMPI PUSH1 0x0 DUP1 REVERT JUMPDEST POP POP PUSH1 0x40 DUP1 MLOAD PUSH4 0x226BF2D1 PUSH1 0xE2 SHL DUP2 MSTORE PUSH1 0x1 PUSH1 0x1 PUSH1 0xA0 SHL SUB DUP9 DUP2 AND PUSH1 0x4 DUP4 ADD MSTORE DUP3 MLOAD PUSH1 0x0 SWAP4 DUP5 SWAP4 SWAP3 DUP7 AND SWAP3 PUSH4 0x89AFCB44 SWAP3 PUSH1 0x24 DUP1 DUP4 ADD SWAP4 SWAP3 DUP3 SWAP1 SUB ADD DUP2 DUP8 DUP8 DUP1 EXTCODESIZE ISZERO DUP1 ISZERO PUSH2 0x1D2D JUMPI PUSH1 0x0 DUP1 REVERT JUMPDEST POP GAS CALL ISZERO DUP1 ISZERO PUSH2 0x1D41 JUMPI RETURNDATASIZE PUSH1 0x0 DUP1 RETURNDATACOPY RETURNDATASIZE PUSH1 0x0 REVERT JUMPDEST POP POP POP POP PUSH1 0x40 MLOAD RETURNDATASIZE PUSH1 0x40 DUP2 LT ISZERO PUSH2 0x1D57 JUMPI PUSH1 0x0 DUP1 REVERT JUMPDEST POP DUP1 MLOAD PUSH1 0x20 SWAP1 SWAP2 ADD MLOAD SWAP1 SWAP3 POP SWAP1 POP PUSH1 0x0 PUSH2 0x1D71 DUP15 DUP15 PUSH2 0x3055 JUMP JUMPDEST POP SWAP1 POP DUP1 PUSH1 0x1 PUSH1 0x1 PUSH1 0xA0 SHL SUB AND DUP15 PUSH1 0x1 PUSH1 0x1 PUSH1 0xA0 SHL SUB AND EQ PUSH2 0x1D94 JUMPI DUP2 DUP4 PUSH2 0x1D97 JUMP JUMPDEST DUP3 DUP3 JUMPDEST SWAP1 SWAP8 POP SWAP6 POP DUP11 DUP8 LT ISZERO PUSH2 0x1DDB JUMPI PUSH1 0x40 MLOAD PUSH3 0x461BCD PUSH1 0xE5 SHL DUP2 MSTORE PUSH1 0x4 ADD DUP1 DUP1 PUSH1 0x20 ADD DUP3 DUP2 SUB DUP3 MSTORE PUSH1 0x26 DUP2 MSTORE PUSH1 0x20 ADD DUP1 PUSH2 0x3564 PUSH1 0x26 SWAP2 CODECOPY PUSH1 0x40 ADD SWAP2 POP POP PUSH1 0x40 MLOAD DUP1 SWAP2 SUB SWAP1 REVERT JUMPDEST DUP10 DUP7 LT ISZERO PUSH2 0x1E1A JUMPI PUSH1 0x40 MLOAD PUSH3 0x461BCD PUSH1 0xE5 SHL DUP2 MSTORE PUSH1 0x4 ADD DUP1 DUP1 PUSH1 0x20 ADD DUP3 DUP2 SUB DUP3 MSTORE PUSH1 0x26 DUP2 MSTORE PUSH1 0x20 ADD DUP1 PUSH2 0x34AA PUSH1 0x26 SWAP2 CODECOPY PUSH1 0x40 ADD SWAP2 POP POP PUSH1 0x40 MLOAD DUP1 SWAP2 SUB SWAP1 REVERT JUMPDEST POP POP POP POP POP SWAP8 POP SWAP8 SWAP6 POP POP POP POP POP POP JUMP JUMPDEST PUSH32 0x0 DUP2 JUMP JUMPDEST PUSH1 0x60 PUSH2 0xE50 PUSH32 0x0 DUP5 DUP5 PUSH2 0x264E JUMP JUMPDEST PUSH1 0x0 DUP1 PUSH1 0x0 PUSH2 0x1ECC PUSH32 0x0 DUP15 PUSH32 0x0 PUSH2 0x279A JUMP JUMPDEST SWAP1 POP PUSH1 0x0 DUP8 PUSH2 0x1EDB JUMPI DUP13 PUSH2 0x1EDF JUMP JUMPDEST PUSH1 0x0 NOT JUMPDEST PUSH1 0x40 DUP1 MLOAD PUSH4 0xD505ACCF PUSH1 0xE0 SHL DUP2 MSTORE CALLER PUSH1 0x4 DUP3 ADD MSTORE ADDRESS PUSH1 0x24 DUP3 ADD MSTORE PUSH1 0x44 DUP2 ADD DUP4 SWAP1 MSTORE PUSH1 0x64 DUP2 ADD DUP13 SWAP1 MSTORE PUSH1 0xFF DUP11 AND PUSH1 0x84 DUP3 ADD MSTORE PUSH1 0xA4 DUP2 ADD DUP10 SWAP1 MSTORE PUSH1 0xC4 DUP2 ADD DUP9 SWAP1 MSTORE SWAP1 MLOAD SWAP2 SWAP3 POP PUSH1 0x1 PUSH1 0x1 PUSH1 0xA0 SHL SUB DUP5 AND SWAP2 PUSH4 0xD505ACCF SWAP2 PUSH1 0xE4 DUP1 DUP3 ADD SWAP3 PUSH1 0x0 SWAP3 SWAP1 SWAP2 SWAP1 DUP3 SWAP1 SUB ADD DUP2 DUP4 DUP8 DUP1 EXTCODESIZE ISZERO DUP1 ISZERO PUSH2 0x1F55 JUMPI PUSH1 0x0 DUP1 REVERT JUMPDEST POP GAS CALL ISZERO DUP1 ISZERO PUSH2 0x1F69 JUMPI RETURNDATASIZE PUSH1 0x0 DUP1 RETURNDATACOPY RETURNDATASIZE PUSH1 0x0 REVERT JUMPDEST POP POP POP POP PUSH2 0x1F7B DUP15 DUP15 DUP15 DUP15 DUP15 DUP15 PUSH2 0x9C7 JUMP JUMPDEST SWAP1 SWAP16 SWAP1 SWAP15 POP SWAP13 POP POP POP POP POP POP POP POP POP POP POP POP POP JUMP JUMPDEST PUSH1 0x60 DUP2 TIMESTAMP DUP2 LT ISZERO PUSH2 0x1FD6 JUMPI PUSH1 0x40 DUP1 MLOAD PUSH3 0x461BCD PUSH1 0xE5 SHL DUP2 MSTORE PUSH1 0x20 PUSH1 0x4 DUP3 ADD MSTORE PUSH1 0x18 PUSH1 0x24 DUP3 ADD MSTORE PUSH1 0x0 DUP1 MLOAD PUSH1 0x20 PUSH2 0x360D DUP4 CODECOPY DUP2 MLOAD SWAP2 MSTORE PUSH1 0x44 DUP3 ADD MSTORE SWAP1 MLOAD SWAP1 DUP2 SWAP1 SUB PUSH1 0x64 ADD SWAP1 REVERT JUMPDEST PUSH32 0x0 PUSH1 0x1 PUSH1 0x1 PUSH1 0xA0 SHL SUB AND DUP7 DUP7 PUSH1 0x0 DUP2 DUP2 LT PUSH2 0x200D JUMPI INVALID JUMPDEST SWAP1 POP PUSH1 0x20 MUL ADD CALLDATALOAD PUSH1 0x1 PUSH1 0x1 PUSH1 0xA0 SHL SUB AND PUSH1 0x1 PUSH1 0x1 PUSH1 0xA0 SHL SUB AND EQ PUSH2 0x2066 JUMPI PUSH1 0x40 DUP1 MLOAD PUSH3 0x461BCD PUSH1 0xE5 SHL DUP2 MSTORE PUSH1 0x20 PUSH1 0x4 DUP3 ADD MSTORE PUSH1 0x1D PUSH1 0x24 DUP3 ADD MSTORE PUSH1 0x0 DUP1 MLOAD PUSH1 0x20 PUSH2 0x3544 DUP4 CODECOPY DUP2 MLOAD SWAP2 MSTORE PUSH1 0x44 DUP3 ADD MSTORE SWAP1 MLOAD SWAP1 DUP2 SWAP1 SUB PUSH1 0x64 ADD SWAP1 REVERT JUMPDEST PUSH2 0x20C4 PUSH32 0x0 DUP9 DUP9 DUP9 DUP1 DUP1 PUSH1 0x20 MUL PUSH1 0x20 ADD PUSH1 0x40 MLOAD SWAP1 DUP2 ADD PUSH1 0x40 MSTORE DUP1 SWAP4 SWAP3 SWAP2 SWAP1 DUP2 DUP2 MSTORE PUSH1 0x20 ADD DUP4 DUP4 PUSH1 0x20 MUL DUP1 DUP3 DUP5 CALLDATACOPY PUSH1 0x0 SWAP3 ADD SWAP2 SWAP1 SWAP2 MSTORE POP PUSH2 0x2BFD SWAP3 POP POP POP JUMP JUMPDEST SWAP2 POP CALLVALUE DUP3 PUSH1 0x0 DUP2 MLOAD DUP2 LT PUSH2 0x20D4 JUMPI INVALID JUMPDEST PUSH1 0x20 MUL PUSH1 0x20 ADD ADD MLOAD GT ISZERO PUSH2 0x2119 JUMPI PUSH1 0x40 MLOAD PUSH3 0x461BCD PUSH1 0xE5 SHL DUP2 MSTORE PUSH1 0x4 ADD DUP1 DUP1 PUSH1 0x20 ADD DUP3 DUP2 SUB DUP3 MSTORE PUSH1 0x27 DUP2 MSTORE PUSH1 0x20 ADD DUP1 PUSH2 0x351D PUSH1 0x27 SWAP2 CODECOPY PUSH1 0x40 ADD SWAP2 POP POP PUSH1 0x40 MLOAD DUP1 SWAP2 SUB SWAP1 REVERT JUMPDEST PUSH32 0x0 PUSH1 0x1 PUSH1 0x1 PUSH1 0xA0 SHL SUB AND PUSH4 0xD0E30DB0 DUP4 PUSH1 0x0 DUP2 MLOAD DUP2 LT PUSH2 0x2155 JUMPI INVALID JUMPDEST PUSH1 0x20 MUL PUSH1 0x20 ADD ADD MLOAD PUSH1 0x40 MLOAD DUP3 PUSH4 0xFFFFFFFF AND PUSH1 0xE0 SHL DUP2 MSTORE PUSH1 0x4 ADD PUSH1 0x0 PUSH1 0x40 MLOAD DUP1 DUP4 SUB DUP2 DUP6 DUP9 DUP1 EXTCODESIZE ISZERO DUP1 ISZERO PUSH2 0x2188 JUMPI PUSH1 0x0 DUP1 REVERT JUMPDEST POP GAS CALL ISZERO DUP1 ISZERO PUSH2 0x219C JUMPI RETURNDATASIZE PUSH1 0x0 DUP1 RETURNDATACOPY RETURNDATASIZE PUSH1 0x0 REVERT JUMPDEST POP POP POP POP POP PUSH32 0x0 PUSH1 0x1 PUSH1 0x1 PUSH1 0xA0 SHL SUB AND PUSH4 0xA9059CBB PUSH2 0x2201 PUSH32 0x0 DUP10 DUP10 PUSH1 0x0 DUP2 DUP2 LT PUSH2 0x17D6 JUMPI INVALID JUMPDEST DUP5 PUSH1 0x0 DUP2 MLOAD DUP2 LT PUSH2 0x220E JUMPI INVALID JUMPDEST PUSH1 0x20 MUL PUSH1 0x20 ADD ADD MLOAD PUSH1 0x40 MLOAD DUP4 PUSH4 0xFFFFFFFF AND PUSH1 0xE0 SHL DUP2 MSTORE PUSH1 0x4 ADD DUP1 DUP4 PUSH1 0x1 PUSH1 0x1 PUSH1 0xA0 SHL SUB AND PUSH1 0x1 PUSH1 0x1 PUSH1 0xA0 SHL SUB AND DUP2 MSTORE PUSH1 0x20 ADD DUP3 DUP2 MSTORE PUSH1 0x20 ADD SWAP3 POP POP POP PUSH1 0x20 PUSH1 0x40 MLOAD DUP1 DUP4 SUB DUP2 PUSH1 0x0 DUP8 DUP1 EXTCODESIZE ISZERO DUP1 ISZERO PUSH2 0x2265 JUMPI PUSH1 0x0 DUP1 REVERT JUMPDEST POP GAS CALL ISZERO DUP1 ISZERO PUSH2 0x2279 JUMPI RETURNDATASIZE PUSH1 0x0 DUP1 RETURNDATACOPY RETURNDATASIZE PUSH1 0x0 REVERT JUMPDEST POP POP POP POP PUSH1 0x40 MLOAD RETURNDATASIZE PUSH1 0x20 DUP2 LT ISZERO PUSH2 0x228F JUMPI PUSH1 0x0 DUP1 REVERT JUMPDEST POP MLOAD PUSH2 0x2297 JUMPI INVALID JUMPDEST PUSH2 0x22D6 DUP3 DUP8 DUP8 DUP1 DUP1 PUSH1 0x20 MUL PUSH1 0x20 ADD PUSH1 0x40 MLOAD SWAP1 DUP2 ADD PUSH1 0x40 MSTORE DUP1 SWAP4 SWAP3 SWAP2 SWAP1 DUP2 DUP2 MSTORE PUSH1 0x20 ADD DUP4 DUP4 PUSH1 0x20 MUL DUP1 DUP3 DUP5 CALLDATACOPY PUSH1 0x0 SWAP3 ADD SWAP2 SWAP1 SWAP2 MSTORE POP DUP10 SWAP3 POP PUSH2 0x29B7 SWAP2 POP POP JUMP JUMPDEST DUP2 PUSH1 0x0 DUP2 MLOAD DUP2 LT PUSH2 0x22E3 JUMPI INVALID JUMPDEST PUSH1 0x20 MUL PUSH1 0x20 ADD ADD MLOAD CALLVALUE GT ISZERO PUSH2 0x18C8 JUMPI PUSH2 0x18C8 CALLER DUP4 PUSH1 0x0 DUP2 MLOAD DUP2 LT PUSH2 0x2303 JUMPI INVALID JUMPDEST PUSH1 0x20 MUL PUSH1 0x20 ADD ADD MLOAD CALLVALUE SUB PUSH2 0x2466 JUMP JUMPDEST PUSH1 0x40 DUP1 MLOAD PUSH1 0x1 PUSH1 0x1 PUSH1 0xA0 SHL SUB DUP5 DUP2 AND PUSH1 0x24 DUP4 ADD MSTORE PUSH1 0x44 DUP1 DUP4 ADD DUP6 SWAP1 MSTORE DUP4 MLOAD DUP1 DUP5 SUB SWAP1 SWAP2 ADD DUP2 MSTORE PUSH1 0x64 SWAP1 SWAP3 ADD DUP4 MSTORE PUSH1 0x20 DUP3 ADD DUP1 MLOAD PUSH1 0x1 PUSH1 0x1 PUSH1 0xE0 SHL SUB AND PUSH4 0xA9059CBB PUSH1 0xE0 SHL OR DUP2 MSTORE SWAP3 MLOAD DUP3 MLOAD PUSH1 0x0 SWAP5 PUSH1 0x60 SWAP5 SWAP4 DUP10 AND SWAP4 SWAP3 SWAP2 DUP3 SWAP2 SWAP1 DUP1 DUP4 DUP4 JUMPDEST PUSH1 0x20 DUP4 LT PUSH2 0x238F JUMPI DUP1 MLOAD DUP3 MSTORE PUSH1 0x1F NOT SWAP1 SWAP3 ADD SWAP2 PUSH1 0x20 SWAP2 DUP3 ADD SWAP2 ADD PUSH2 0x2370 JUMP JUMPDEST PUSH1 0x1 DUP4 PUSH1 0x20 SUB PUSH2 0x100 EXP SUB DUP1 NOT DUP3 MLOAD AND DUP2 DUP5 MLOAD AND DUP1 DUP3 OR DUP6 MSTORE POP POP POP POP POP POP SWAP1 POP ADD SWAP2 POP POP PUSH1 0x0 PUSH1 0x40 MLOAD DUP1 DUP4 SUB DUP2 PUSH1 0x0 DUP7 GAS CALL SWAP2 POP POP RETURNDATASIZE DUP1 PUSH1 0x0 DUP2 EQ PUSH2 0x23F1 JUMPI PUSH1 0x40 MLOAD SWAP2 POP PUSH1 0x1F NOT PUSH1 0x3F RETURNDATASIZE ADD AND DUP3 ADD PUSH1 0x40 MSTORE RETURNDATASIZE DUP3 MSTORE RETURNDATASIZE PUSH1 0x0 PUSH1 0x20 DUP5 ADD RETURNDATACOPY PUSH2 0x23F6 JUMP JUMPDEST PUSH1 0x60 SWAP2 POP JUMPDEST POP SWAP2 POP SWAP2 POP DUP2 DUP1 ISZERO PUSH2 0x2424 JUMPI POP DUP1 MLOAD ISZERO DUP1 PUSH2 0x2424 JUMPI POP DUP1 DUP1 PUSH1 0x20 ADD SWAP1 MLOAD PUSH1 0x20 DUP2 LT ISZERO PUSH2 0x2421 JUMPI PUSH1 0x0 DUP1 REVERT JUMPDEST POP MLOAD JUMPDEST PUSH2 0x245F JUMPI PUSH1 0x40 MLOAD PUSH3 0x461BCD PUSH1 0xE5 SHL DUP2 MSTORE PUSH1 0x4 ADD DUP1 DUP1 PUSH1 0x20 ADD DUP3 DUP2 SUB DUP3 MSTORE PUSH1 0x2D DUP2 MSTORE PUSH1 0x20 ADD DUP1 PUSH2 0x35B5 PUSH1 0x2D SWAP2 CODECOPY PUSH1 0x40 ADD SWAP2 POP POP PUSH1 0x40 MLOAD DUP1 SWAP2 SUB SWAP1 REVERT JUMPDEST POP POP POP POP POP JUMP JUMPDEST PUSH1 0x40 DUP1 MLOAD PUSH1 0x0 DUP1 DUP3 MSTORE PUSH1 0x20 DUP3 ADD SWAP1 SWAP3 MSTORE PUSH1 0x1 PUSH1 0x1 PUSH1 0xA0 SHL SUB DUP5 AND SWAP1 DUP4 SWAP1 PUSH1 0x40 MLOAD DUP1 DUP3 DUP1 MLOAD SWAP1 PUSH1 0x20 ADD SWAP1 DUP1 DUP4 DUP4 JUMPDEST PUSH1 0x20 DUP4 LT PUSH2 0x24B2 JUMPI DUP1 MLOAD DUP3 MSTORE PUSH1 0x1F NOT SWAP1 SWAP3 ADD SWAP2 PUSH1 0x20 SWAP2 DUP3 ADD SWAP2 ADD PUSH2 0x2493 JUMP JUMPDEST PUSH1 0x1 DUP4 PUSH1 0x20 SUB PUSH2 0x100 EXP SUB DUP1 NOT DUP3 MLOAD AND DUP2 DUP5 MLOAD AND DUP1 DUP3 OR DUP6 MSTORE POP POP POP POP POP POP SWAP1 POP ADD SWAP2 POP POP PUSH1 0x0 PUSH1 0x40 MLOAD DUP1 DUP4 SUB DUP2 DUP6 DUP8 GAS CALL SWAP3 POP POP POP RETURNDATASIZE DUP1 PUSH1 0x0 DUP2 EQ PUSH2 0x2514 JUMPI PUSH1 0x40 MLOAD SWAP2 POP PUSH1 0x1F NOT PUSH1 0x3F RETURNDATASIZE ADD AND DUP3 ADD PUSH1 0x40 MSTORE RETURNDATASIZE DUP3 MSTORE RETURNDATASIZE PUSH1 0x0 PUSH1 0x20 DUP5 ADD RETURNDATACOPY PUSH2 0x2519 JUMP JUMPDEST PUSH1 0x60 SWAP2 POP JUMPDEST POP POP SWAP1 POP DUP1 PUSH2 0x2559 JUMPI PUSH1 0x40 MLOAD PUSH3 0x461BCD PUSH1 0xE5 SHL DUP2 MSTORE PUSH1 0x4 ADD DUP1 DUP1 PUSH1 0x20 ADD DUP3 DUP2 SUB DUP3 MSTORE PUSH1 0x34 DUP2 MSTORE PUSH1 0x20 ADD DUP1 PUSH2 0x3451 PUSH1 0x34 SWAP2 CODECOPY PUSH1 0x40 ADD SWAP2 POP POP PUSH1 0x40 MLOAD DUP1 SWAP2 SUB SWAP1 REVERT JUMPDEST POP POP POP JUMP JUMPDEST PUSH1 0x0 DUP1 DUP5 GT PUSH2 0x259E JUMPI PUSH1 0x40 MLOAD PUSH3 0x461BCD PUSH1 0xE5 SHL DUP2 MSTORE PUSH1 0x4 ADD DUP1 DUP1 PUSH1 0x20 ADD DUP3 DUP2 SUB DUP3 MSTORE PUSH1 0x2B DUP2 MSTORE PUSH1 0x20 ADD DUP1 PUSH2 0x35E2 PUSH1 0x2B SWAP2 CODECOPY PUSH1 0x40 ADD SWAP2 POP POP PUSH1 0x40 MLOAD DUP1 SWAP2 SUB SWAP1 REVERT JUMPDEST PUSH1 0x0 DUP4 GT DUP1 ISZERO PUSH2 0x25AE JUMPI POP PUSH1 0x0 DUP3 GT JUMPDEST PUSH2 0x25E9 JUMPI PUSH1 0x40 MLOAD PUSH3 0x461BCD PUSH1 0xE5 SHL DUP2 MSTORE PUSH1 0x4 ADD DUP1 DUP1 PUSH1 0x20 ADD DUP3 DUP2 SUB DUP3 MSTORE PUSH1 0x28 DUP2 MSTORE PUSH1 0x20 ADD DUP1 PUSH2 0x34D0 PUSH1 0x28 SWAP2 CODECOPY PUSH1 0x40 ADD SWAP2 POP POP PUSH1 0x40 MLOAD DUP1 SWAP2 SUB SWAP1 REVERT JUMPDEST PUSH1 0x0 PUSH2 0x25FD DUP6 PUSH2 0x3E5 PUSH4 0xFFFFFFFF PUSH2 0x3133 AND JUMP JUMPDEST SWAP1 POP PUSH1 0x0 PUSH2 0x2611 DUP3 DUP6 PUSH4 0xFFFFFFFF PUSH2 0x3133 AND JUMP JUMPDEST SWAP1 POP PUSH1 0x0 PUSH2 0x2637 DUP4 PUSH2 0x262B DUP9 PUSH2 0x3E8 PUSH4 0xFFFFFFFF PUSH2 0x3133 AND JUMP JUMPDEST SWAP1 PUSH4 0xFFFFFFFF PUSH2 0x3196 AND JUMP JUMPDEST SWAP1 POP DUP1 DUP3 DUP2 PUSH2 0x2642 JUMPI INVALID JUMPDEST DIV SWAP8 SWAP7 POP POP POP POP POP POP POP JUMP JUMPDEST PUSH1 0x60 PUSH1 0x2 DUP3 MLOAD LT ISZERO PUSH2 0x26A7 JUMPI PUSH1 0x40 DUP1 MLOAD PUSH3 0x461BCD PUSH1 0xE5 SHL DUP2 MSTORE PUSH1 0x20 PUSH1 0x4 DUP3 ADD MSTORE PUSH1 0x1E PUSH1 0x24 DUP3 ADD MSTORE PUSH32 0x556E697377617056324C6962726172793A20494E56414C49445F504154480000 PUSH1 0x44 DUP3 ADD MSTORE SWAP1 MLOAD SWAP1 DUP2 SWAP1 SUB PUSH1 0x64 ADD SWAP1 REVERT JUMPDEST DUP2 MLOAD PUSH8 0xFFFFFFFFFFFFFFFF DUP2 GT DUP1 ISZERO PUSH2 0x26BF JUMPI PUSH1 0x0 DUP1 REVERT JUMPDEST POP PUSH1 0x40 MLOAD SWAP1 DUP1 DUP3 MSTORE DUP1 PUSH1 0x20 MUL PUSH1 0x20 ADD DUP3 ADD PUSH1 0x40 MSTORE DUP1 ISZERO PUSH2 0x26E9 JUMPI DUP2 PUSH1 0x20 ADD PUSH1 0x20 DUP3 MUL DUP1 CALLDATASIZE DUP4 CALLDATACOPY ADD SWAP1 POP JUMPDEST POP SWAP1 POP DUP3 DUP2 PUSH1 0x0 DUP2 MLOAD DUP2 LT PUSH2 0x26FA JUMPI INVALID JUMPDEST PUSH1 0x20 MUL PUSH1 0x20 ADD ADD DUP2 DUP2 MSTORE POP POP PUSH1 0x0 JUMPDEST PUSH1 0x1 DUP4 MLOAD SUB DUP2 LT ISZERO PUSH2 0x2792 JUMPI PUSH1 0x0 DUP1 PUSH2 0x274C DUP8 DUP7 DUP6 DUP2 MLOAD DUP2 LT PUSH2 0x2728 JUMPI INVALID JUMPDEST PUSH1 0x20 MUL PUSH1 0x20 ADD ADD MLOAD DUP8 DUP7 PUSH1 0x1 ADD DUP2 MLOAD DUP2 LT PUSH2 0x273F JUMPI INVALID JUMPDEST PUSH1 0x20 MUL PUSH1 0x20 ADD ADD MLOAD PUSH2 0x31E5 JUMP JUMPDEST SWAP2 POP SWAP2 POP PUSH2 0x276E DUP5 DUP5 DUP2 MLOAD DUP2 LT PUSH2 0x275F JUMPI INVALID JUMPDEST PUSH1 0x20 MUL PUSH1 0x20 ADD ADD MLOAD DUP4 DUP4 PUSH2 0x255E JUMP JUMPDEST DUP5 DUP5 PUSH1 0x1 ADD DUP2 MLOAD DUP2 LT PUSH2 0x277D JUMPI INVALID JUMPDEST PUSH1 0x20 SWAP1 DUP2 MUL SWAP2 SWAP1 SWAP2 ADD ADD MSTORE POP POP PUSH1 0x1 ADD PUSH2 0x2709 JUMP JUMPDEST POP SWAP4 SWAP3 POP POP POP JUMP JUMPDEST PUSH1 0x0 DUP1 PUSH1 0x0 PUSH2 0x27A9 DUP6 DUP6 PUSH2 0x3055 JUMP JUMPDEST PUSH1 0x40 DUP1 MLOAD PUSH12 0xFFFFFFFFFFFFFFFFFFFFFFFF NOT PUSH1 0x60 SWAP5 DUP6 SHL DUP2 AND PUSH1 0x20 DUP1 DUP5 ADD SWAP2 SWAP1 SWAP2 MSTORE SWAP4 DUP6 SHL DUP2 AND PUSH1 0x34 DUP4 ADD MSTORE DUP3 MLOAD PUSH1 0x28 DUP2 DUP5 SUB ADD DUP2 MSTORE PUSH1 0x48 DUP4 ADD DUP5 MSTORE DUP1 MLOAD SWAP1 DUP6 ADD KECCAK256 PUSH1 0x1 PUSH1 0x1 PUSH1 0xF8 SHL SUB NOT PUSH1 0x68 DUP5 ADD MSTORE SWAP11 SWAP1 SWAP5 SHL SWAP1 SWAP4 AND PUSH1 0x69 DUP5 ADD MSTORE PUSH1 0x7D DUP4 ADD SWAP9 SWAP1 SWAP9 MSTORE PUSH32 0x9DBBA9B9668CBA021C85AA90D0242FF86C8AE584432B0150760F1707BD54900B PUSH1 0x9D DUP1 DUP5 ADD SWAP2 SWAP1 SWAP2 MSTORE DUP9 MLOAD DUP1 DUP5 SUB SWAP1 SWAP2 ADD DUP2 MSTORE PUSH1 0xBD SWAP1 SWAP3 ADD SWAP1 SWAP8 MSTORE DUP1 MLOAD SWAP7 ADD SWAP6 SWAP1 SWAP6 KECCAK256 SWAP6 SWAP5 POP POP POP POP POP JUMP JUMPDEST PUSH1 0x40 DUP1 MLOAD PUSH1 0x1 PUSH1 0x1 PUSH1 0xA0 SHL SUB DUP6 DUP2 AND PUSH1 0x24 DUP4 ADD MSTORE DUP5 DUP2 AND PUSH1 0x44 DUP4 ADD MSTORE PUSH1 0x64 DUP1 DUP4 ADD DUP6 SWAP1 MSTORE DUP4 MLOAD DUP1 DUP5 SUB SWAP1 SWAP2 ADD DUP2 MSTORE PUSH1 0x84 SWAP1 SWAP3 ADD DUP4 MSTORE PUSH1 0x20 DUP3 ADD DUP1 MLOAD PUSH1 0x1 PUSH1 0x1 PUSH1 0xE0 SHL SUB AND PUSH4 0x23B872DD PUSH1 0xE0 SHL OR DUP2 MSTORE SWAP3 MLOAD DUP3 MLOAD PUSH1 0x0 SWAP5 PUSH1 0x60 SWAP5 SWAP4 DUP11 AND SWAP4 SWAP3 SWAP2 DUP3 SWAP2 SWAP1 DUP1 DUP4 DUP4 JUMPDEST PUSH1 0x20 DUP4 LT PUSH2 0x28DF JUMPI DUP1 MLOAD DUP3 MSTORE PUSH1 0x1F NOT SWAP1 SWAP3 ADD SWAP2 PUSH1 0x20 SWAP2 DUP3 ADD SWAP2 ADD PUSH2 0x28C0 JUMP JUMPDEST PUSH1 0x1 DUP4 PUSH1 0x20 SUB PUSH2 0x100 EXP SUB DUP1 NOT DUP3 MLOAD AND DUP2 DUP5 MLOAD AND DUP1 DUP3 OR DUP6 MSTORE POP POP POP POP POP POP SWAP1 POP ADD SWAP2 POP POP PUSH1 0x0 PUSH1 0x40 MLOAD DUP1 DUP4 SUB DUP2 PUSH1 0x0 DUP7 GAS CALL SWAP2 POP POP RETURNDATASIZE DUP1 PUSH1 0x0 DUP2 EQ PUSH2 0x2941 JUMPI PUSH1 0x40 MLOAD SWAP2 POP PUSH1 0x1F NOT PUSH1 0x3F RETURNDATASIZE ADD AND DUP3 ADD PUSH1 0x40 MSTORE RETURNDATASIZE DUP3 MSTORE RETURNDATASIZE PUSH1 0x0 PUSH1 0x20 DUP5 ADD RETURNDATACOPY PUSH2 0x2946 JUMP JUMPDEST PUSH1 0x60 SWAP2 POP JUMPDEST POP SWAP2 POP SWAP2 POP DUP2 DUP1 ISZERO PUSH2 0x2974 JUMPI POP DUP1 MLOAD ISZERO DUP1 PUSH2 0x2974 JUMPI POP DUP1 DUP1 PUSH1 0x20 ADD SWAP1 MLOAD PUSH1 0x20 DUP2 LT ISZERO PUSH2 0x2971 JUMPI PUSH1 0x0 DUP1 REVERT JUMPDEST POP MLOAD JUMPDEST PUSH2 0x29AF JUMPI PUSH1 0x40 MLOAD PUSH3 0x461BCD PUSH1 0xE5 SHL DUP2 MSTORE PUSH1 0x4 ADD DUP1 DUP1 PUSH1 0x20 ADD DUP3 DUP2 SUB DUP3 MSTORE PUSH1 0x31 DUP2 MSTORE PUSH1 0x20 ADD DUP1 PUSH2 0x3420 PUSH1 0x31 SWAP2 CODECOPY PUSH1 0x40 ADD SWAP2 POP POP PUSH1 0x40 MLOAD DUP1 SWAP2 SUB SWAP1 REVERT JUMPDEST POP POP POP POP POP POP JUMP JUMPDEST PUSH1 0x0 JUMPDEST PUSH1 0x1 DUP4 MLOAD SUB DUP2 LT ISZERO PUSH2 0x2BF7 JUMPI PUSH1 0x0 DUP1 DUP5 DUP4 DUP2 MLOAD DUP2 LT PUSH2 0x29D5 JUMPI INVALID JUMPDEST PUSH1 0x20 MUL PUSH1 0x20 ADD ADD MLOAD DUP6 DUP5 PUSH1 0x1 ADD DUP2 MLOAD DUP2 LT PUSH2 0x29EC JUMPI INVALID JUMPDEST PUSH1 0x20 MUL PUSH1 0x20 ADD ADD MLOAD SWAP2 POP SWAP2 POP PUSH1 0x0 PUSH2 0x2A04 DUP4 DUP4 PUSH2 0x3055 JUMP JUMPDEST POP SWAP1 POP PUSH1 0x0 DUP8 DUP6 PUSH1 0x1 ADD DUP2 MLOAD DUP2 LT PUSH2 0x2A18 JUMPI INVALID JUMPDEST PUSH1 0x20 MUL PUSH1 0x20 ADD ADD MLOAD SWAP1 POP PUSH1 0x0 DUP1 DUP4 PUSH1 0x1 PUSH1 0x1 PUSH1 0xA0 SHL SUB AND DUP7 PUSH1 0x1 PUSH1 0x1 PUSH1 0xA0 SHL SUB AND EQ PUSH2 0x2A46 JUMPI DUP3 PUSH1 0x0 PUSH2 0x2A4A JUMP JUMPDEST PUSH1 0x0 DUP4 JUMPDEST SWAP2 POP SWAP2 POP PUSH1 0x0 PUSH1 0x2 DUP11 MLOAD SUB DUP9 LT PUSH2 0x2A61 JUMPI DUP9 PUSH2 0x2AA2 JUMP JUMPDEST PUSH2 0x2AA2 PUSH32 0x0 DUP8 DUP13 DUP12 PUSH1 0x2 ADD DUP2 MLOAD DUP2 LT PUSH2 0x2A95 JUMPI INVALID JUMPDEST PUSH1 0x20 MUL PUSH1 0x20 ADD ADD MLOAD PUSH2 0x279A JUMP JUMPDEST SWAP1 POP PUSH2 0x2ACF PUSH32 0x0 DUP9 DUP9 PUSH2 0x279A JUMP JUMPDEST PUSH1 0x1 PUSH1 0x1 PUSH1 0xA0 SHL SUB AND PUSH4 0x22C0D9F DUP5 DUP5 DUP5 PUSH1 0x0 PUSH1 0x40 MLOAD SWAP1 DUP1 DUP3 MSTORE DUP1 PUSH1 0x1F ADD PUSH1 0x1F NOT AND PUSH1 0x20 ADD DUP3 ADD PUSH1 0x40 MSTORE DUP1 ISZERO PUSH2 0x2B0C JUMPI PUSH1 0x20 DUP3 ADD DUP2 DUP1 CALLDATASIZE DUP4 CALLDATACOPY ADD SWAP1 POP JUMPDEST POP PUSH1 0x40 MLOAD DUP6 PUSH4 0xFFFFFFFF AND PUSH1 0xE0 SHL DUP2 MSTORE PUSH1 0x4 ADD DUP1 DUP6 DUP2 MSTORE PUSH1 0x20 ADD DUP5 DUP2 MSTORE PUSH1 0x20 ADD DUP4 PUSH1 0x1 PUSH1 0x1 PUSH1 0xA0 SHL SUB AND PUSH1 0x1 PUSH1 0x1 PUSH1 0xA0 SHL SUB AND DUP2 MSTORE PUSH1 0x20 ADD DUP1 PUSH1 0x20 ADD DUP3 DUP2 SUB DUP3 MSTORE DUP4 DUP2 DUP2 MLOAD DUP2 MSTORE PUSH1 0x20 ADD SWAP2 POP DUP1 MLOAD SWAP1 PUSH1 0x20 ADD SWAP1 DUP1 DUP4 DUP4 PUSH1 0x0 JUMPDEST DUP4 DUP2 LT ISZERO PUSH2 0x2B7D JUMPI DUP2 DUP2 ADD MLOAD DUP4 DUP3 ADD MSTORE PUSH1 0x20 ADD PUSH2 0x2B65 JUMP JUMPDEST POP POP POP POP SWAP1 POP SWAP1 DUP2 ADD SWAP1 PUSH1 0x1F AND DUP1 ISZERO PUSH2 0x2BAA JUMPI DUP1 DUP3 SUB DUP1 MLOAD PUSH1 0x1 DUP4 PUSH1 0x20 SUB PUSH2 0x100 EXP SUB NOT AND DUP2 MSTORE PUSH1 0x20 ADD SWAP2 POP JUMPDEST POP SWAP6 POP POP POP POP POP POP PUSH1 0x0 PUSH1 0x40 MLOAD DUP1 DUP4 SUB DUP2 PUSH1 0x0 DUP8 DUP1 EXTCODESIZE ISZERO DUP1 ISZERO PUSH2 0x2BCC JUMPI PUSH1 0x0 DUP1 REVERT JUMPDEST POP GAS CALL ISZERO DUP1 ISZERO PUSH2 0x2BE0 JUMPI RETURNDATASIZE PUSH1 0x0 DUP1 RETURNDATACOPY RETURNDATASIZE PUSH1 0x0 REVERT JUMPDEST POP POP PUSH1 0x1 SWAP1 SWAP10 ADD SWAP9 POP PUSH2 0x29BA SWAP8 POP POP POP POP POP POP POP POP JUMP JUMPDEST POP POP POP POP JUMP JUMPDEST PUSH1 0x60 PUSH1 0x2 DUP3 MLOAD LT ISZERO PUSH2 0x2C56 JUMPI PUSH1 0x40 DUP1 MLOAD PUSH3 0x461BCD PUSH1 0xE5 SHL DUP2 MSTORE PUSH1 0x20 PUSH1 0x4 DUP3 ADD MSTORE PUSH1 0x1E PUSH1 0x24 DUP3 ADD MSTORE PUSH32 0x556E697377617056324C6962726172793A20494E56414C49445F504154480000 PUSH1 0x44 DUP3 ADD MSTORE SWAP1 MLOAD SWAP1 DUP2 SWAP1 SUB PUSH1 0x64 ADD SWAP1 REVERT JUMPDEST DUP2 MLOAD PUSH8 0xFFFFFFFFFFFFFFFF DUP2 GT DUP1 ISZERO PUSH2 0x2C6E JUMPI PUSH1 0x0 DUP1 REVERT JUMPDEST POP PUSH1 0x40 MLOAD SWAP1 DUP1 DUP3 MSTORE DUP1 PUSH1 0x20 MUL PUSH1 0x20 ADD DUP3 ADD PUSH1 0x40 MSTORE DUP1 ISZERO PUSH2 0x2C98 JUMPI DUP2 PUSH1 0x20 ADD PUSH1 0x20 DUP3 MUL DUP1 CALLDATASIZE DUP4 CALLDATACOPY ADD SWAP1 POP JUMPDEST POP SWAP1 POP DUP3 DUP2 PUSH1 0x1 DUP4 MLOAD SUB DUP2 MLOAD DUP2 LT PUSH2 0x2CAC JUMPI INVALID JUMPDEST PUSH1 0x20 SWAP1 DUP2 MUL SWAP2 SWAP1 SWAP2 ADD ADD MSTORE DUP2 MLOAD PUSH1 0x0 NOT ADD JUMPDEST DUP1 ISZERO PUSH2 0x2792 JUMPI PUSH1 0x0 DUP1 PUSH2 0x2CEE DUP8 DUP7 PUSH1 0x1 DUP7 SUB DUP2 MLOAD DUP2 LT PUSH2 0x2CDA JUMPI INVALID JUMPDEST PUSH1 0x20 MUL PUSH1 0x20 ADD ADD MLOAD DUP8 DUP7 DUP2 MLOAD DUP2 LT PUSH2 0x273F JUMPI INVALID JUMPDEST SWAP2 POP SWAP2 POP PUSH2 0x2D10 DUP5 DUP5 DUP2 MLOAD DUP2 LT PUSH2 0x2D01 JUMPI INVALID JUMPDEST PUSH1 0x20 MUL PUSH1 0x20 ADD ADD MLOAD DUP4 DUP4 PUSH2 0x32B3 JUMP JUMPDEST DUP5 PUSH1 0x1 DUP6 SUB DUP2 MLOAD DUP2 LT PUSH2 0x2D1F JUMPI INVALID JUMPDEST PUSH1 0x20 SWAP1 DUP2 MUL SWAP2 SWAP1 SWAP2 ADD ADD MSTORE POP POP PUSH1 0x0 NOT ADD PUSH2 0x2CBE JUMP JUMPDEST PUSH1 0x40 DUP1 MLOAD PUSH4 0xE6A43905 PUSH1 0xE0 SHL DUP2 MSTORE PUSH1 0x1 PUSH1 0x1 PUSH1 0xA0 SHL SUB DUP9 DUP2 AND PUSH1 0x4 DUP4 ADD MSTORE DUP8 DUP2 AND PUSH1 0x24 DUP4 ADD MSTORE SWAP2 MLOAD PUSH1 0x0 SWAP3 DUP4 SWAP3 DUP4 SWAP3 PUSH32 0x0 SWAP1 SWAP3 AND SWAP2 PUSH4 0xE6A43905 SWAP2 PUSH1 0x44 DUP1 DUP3 ADD SWAP3 PUSH1 0x20 SWAP3 SWAP1 SWAP2 SWAP1 DUP3 SWAP1 SUB ADD DUP2 DUP7 DUP1 EXTCODESIZE ISZERO DUP1 ISZERO PUSH2 0x2DAF JUMPI PUSH1 0x0 DUP1 REVERT JUMPDEST POP GAS STATICCALL ISZERO DUP1 ISZERO PUSH2 0x2DC3 JUMPI RETURNDATASIZE PUSH1 0x0 DUP1 RETURNDATACOPY RETURNDATASIZE PUSH1 0x0 REVERT JUMPDEST POP POP POP POP PUSH1 0x40 MLOAD RETURNDATASIZE PUSH1 0x20 DUP2 LT ISZERO PUSH2 0x2DD9 JUMPI PUSH1 0x0 DUP1 REVERT JUMPDEST POP MLOAD PUSH1 0x1 PUSH1 0x1 PUSH1 0xA0 SHL SUB AND EQ ISZERO PUSH2 0x2E8C JUMPI PUSH1 0x40 DUP1 MLOAD PUSH4 0x64E329CB PUSH1 0xE1 SHL DUP2 MSTORE PUSH1 0x1 PUSH1 0x1 PUSH1 0xA0 SHL SUB DUP11 DUP2 AND PUSH1 0x4 DUP4 ADD MSTORE DUP10 DUP2 AND PUSH1 0x24 DUP4 ADD MSTORE SWAP2 MLOAD PUSH32 0x0 SWAP1 SWAP3 AND SWAP2 PUSH4 0xC9C65396 SWAP2 PUSH1 0x44 DUP1 DUP3 ADD SWAP3 PUSH1 0x20 SWAP3 SWAP1 SWAP2 SWAP1 DUP3 SWAP1 SUB ADD DUP2 PUSH1 0x0 DUP8 DUP1 EXTCODESIZE ISZERO DUP1 ISZERO PUSH2 0x2E5F JUMPI PUSH1 0x0 DUP1 REVERT JUMPDEST POP GAS CALL ISZERO DUP1 ISZERO PUSH2 0x2E73 JUMPI RETURNDATASIZE PUSH1 0x0 DUP1 RETURNDATACOPY RETURNDATASIZE PUSH1 0x0 REVERT JUMPDEST POP POP POP POP PUSH1 0x40 MLOAD RETURNDATASIZE PUSH1 0x20 DUP2 LT ISZERO PUSH2 0x2E89 JUMPI PUSH1 0x0 DUP1 REVERT JUMPDEST POP POP JUMPDEST PUSH1 0x0 DUP1 PUSH2 0x2EBA PUSH32 0x0 DUP12 DUP12 PUSH2 0x31E5 JUMP JUMPDEST SWAP2 POP SWAP2 POP DUP2 PUSH1 0x0 EQ DUP1 ISZERO PUSH2 0x2ECC JUMPI POP DUP1 ISZERO JUMPDEST ISZERO PUSH2 0x2EDC JUMPI DUP8 SWAP4 POP DUP7 SWAP3 POP PUSH2 0x2F9C JUMP JUMPDEST PUSH1 0x0 PUSH2 0x2EE9 DUP10 DUP5 DUP5 PUSH2 0x2FA9 JUMP JUMPDEST SWAP1 POP DUP8 DUP2 GT PUSH2 0x2F3C JUMPI DUP6 DUP2 LT ISZERO PUSH2 0x2F31 JUMPI PUSH1 0x40 MLOAD PUSH3 0x461BCD PUSH1 0xE5 SHL DUP2 MSTORE PUSH1 0x4 ADD DUP1 DUP1 PUSH1 0x20 ADD DUP3 DUP2 SUB DUP3 MSTORE PUSH1 0x26 DUP2 MSTORE PUSH1 0x20 ADD DUP1 PUSH2 0x34AA PUSH1 0x26 SWAP2 CODECOPY PUSH1 0x40 ADD SWAP2 POP POP PUSH1 0x40 MLOAD DUP1 SWAP2 SUB SWAP1 REVERT JUMPDEST DUP9 SWAP5 POP SWAP3 POP DUP3 PUSH2 0x2F9A JUMP JUMPDEST PUSH1 0x0 PUSH2 0x2F49 DUP10 DUP5 DUP7 PUSH2 0x2FA9 JUMP JUMPDEST SWAP1 POP DUP10 DUP2 GT ISZERO PUSH2 0x2F55 JUMPI INVALID JUMPDEST DUP8 DUP2 LT ISZERO PUSH2 0x2F94 JUMPI PUSH1 0x40 MLOAD PUSH3 0x461BCD PUSH1 0xE5 SHL DUP2 MSTORE PUSH1 0x4 ADD DUP1 DUP1 PUSH1 0x20 ADD DUP3 DUP2 SUB DUP3 MSTORE PUSH1 0x26 DUP2 MSTORE PUSH1 0x20 ADD DUP1 PUSH2 0x3564 PUSH1 0x26 SWAP2 CODECOPY PUSH1 0x40 ADD SWAP2 POP POP PUSH1 0x40 MLOAD DUP1 SWAP2 SUB SWAP1 REVERT JUMPDEST SWAP5 POP DUP8 SWAP4 POP JUMPDEST POP JUMPDEST POP POP SWAP7 POP SWAP7 SWAP5 POP POP POP POP POP JUMP JUMPDEST PUSH1 0x0 DUP1 DUP5 GT PUSH2 0x2FE9 JUMPI PUSH1 0x40 MLOAD PUSH3 0x461BCD PUSH1 0xE5 SHL DUP2 MSTORE PUSH1 0x4 ADD DUP1 DUP1 PUSH1 0x20 ADD DUP3 DUP2 SUB DUP3 MSTORE PUSH1 0x25 DUP2 MSTORE PUSH1 0x20 ADD DUP1 PUSH2 0x34F8 PUSH1 0x25 SWAP2 CODECOPY PUSH1 0x40 ADD SWAP2 POP POP PUSH1 0x40 MLOAD DUP1 SWAP2 SUB SWAP1 REVERT JUMPDEST PUSH1 0x0 DUP4 GT DUP1 ISZERO PUSH2 0x2FF9 JUMPI POP PUSH1 0x0 DUP3 GT JUMPDEST PUSH2 0x3034 JUMPI PUSH1 0x40 MLOAD PUSH3 0x461BCD PUSH1 0xE5 SHL DUP2 MSTORE PUSH1 0x4 ADD DUP1 DUP1 PUSH1 0x20 ADD DUP3 DUP2 SUB DUP3 MSTORE PUSH1 0x28 DUP2 MSTORE PUSH1 0x20 ADD DUP1 PUSH2 0x34D0 PUSH1 0x28 SWAP2 CODECOPY PUSH1 0x40 ADD SWAP2 POP POP PUSH1 0x40 MLOAD DUP1 SWAP2 SUB SWAP1 REVERT JUMPDEST DUP3 PUSH2 0x3045 DUP6 DUP5 PUSH4 0xFFFFFFFF PUSH2 0x3133 AND JUMP JUMPDEST DUP2 PUSH2 0x304C JUMPI INVALID JUMPDEST DIV SWAP5 SWAP4 POP POP POP POP JUMP JUMPDEST PUSH1 0x0 DUP1 DUP3 PUSH1 0x1 PUSH1 0x1 PUSH1 0xA0 SHL SUB AND DUP5 PUSH1 0x1 PUSH1 0x1 PUSH1 0xA0 SHL SUB AND EQ ISZERO PUSH2 0x30A9 JUMPI PUSH1 0x40 MLOAD PUSH3 0x461BCD PUSH1 0xE5 SHL DUP2 MSTORE PUSH1 0x4 ADD DUP1 DUP1 PUSH1 0x20 ADD DUP3 DUP2 SUB DUP3 MSTORE PUSH1 0x25 DUP2 MSTORE PUSH1 0x20 ADD DUP1 PUSH2 0x3485 PUSH1 0x25 SWAP2 CODECOPY PUSH1 0x40 ADD SWAP2 POP POP PUSH1 0x40 MLOAD DUP1 SWAP2 SUB SWAP1 REVERT JUMPDEST DUP3 PUSH1 0x1 PUSH1 0x1 PUSH1 0xA0 SHL SUB AND DUP5 PUSH1 0x1 PUSH1 0x1 PUSH1 0xA0 SHL SUB AND LT PUSH2 0x30C9 JUMPI DUP3 DUP5 PUSH2 0x30CC JUMP JUMPDEST DUP4 DUP4 JUMPDEST SWAP1 SWAP3 POP SWAP1 POP PUSH1 0x1 PUSH1 0x1 PUSH1 0xA0 SHL SUB DUP3 AND PUSH2 0x312C JUMPI PUSH1 0x40 DUP1 MLOAD PUSH3 0x461BCD PUSH1 0xE5 SHL DUP2 MSTORE PUSH1 0x20 PUSH1 0x4 DUP3 ADD MSTORE PUSH1 0x1E PUSH1 0x24 DUP3 ADD MSTORE PUSH32 0x556E697377617056324C6962726172793A205A45524F5F414444524553530000 PUSH1 0x44 DUP3 ADD MSTORE SWAP1 MLOAD SWAP1 DUP2 SWAP1 SUB PUSH1 0x64 ADD SWAP1 REVERT JUMPDEST SWAP3 POP SWAP3 SWAP1 POP JUMP JUMPDEST PUSH1 0x0 DUP2 ISZERO DUP1 PUSH2 0x314E JUMPI POP POP DUP1 DUP3 MUL DUP3 DUP3 DUP3 DUP2 PUSH2 0x314B JUMPI INVALID JUMPDEST DIV EQ JUMPDEST PUSH2 0xE53 JUMPI PUSH1 0x40 DUP1 MLOAD PUSH3 0x461BCD PUSH1 0xE5 SHL DUP2 MSTORE PUSH1 0x20 PUSH1 0x4 DUP3 ADD MSTORE PUSH1 0x14 PUSH1 0x24 DUP3 ADD MSTORE PUSH20 0x64732D6D6174682D6D756C2D6F766572666C6F77 PUSH1 0x60 SHL PUSH1 0x44 DUP3 ADD MSTORE SWAP1 MLOAD SWAP1 DUP2 SWAP1 SUB PUSH1 0x64 ADD SWAP1 REVERT JUMPDEST DUP1 DUP3 ADD DUP3 DUP2 LT ISZERO PUSH2 0xE53 JUMPI PUSH1 0x40 DUP1 MLOAD PUSH3 0x461BCD PUSH1 0xE5 SHL DUP2 MSTORE PUSH1 0x20 PUSH1 0x4 DUP3 ADD MSTORE PUSH1 0x14 PUSH1 0x24 DUP3 ADD MSTORE PUSH20 0x64732D6D6174682D6164642D6F766572666C6F77 PUSH1 0x60 SHL PUSH1 0x44 DUP3 ADD MSTORE SWAP1 MLOAD SWAP1 DUP2 SWAP1 SUB PUSH1 0x64 ADD SWAP1 REVERT JUMPDEST PUSH1 0x0 DUP1 PUSH1 0x0 PUSH2 0x31F4 DUP6 DUP6 PUSH2 0x3055 JUMP JUMPDEST POP SWAP1 POP PUSH1 0x0 DUP1 PUSH2 0x3205 DUP9 DUP9 DUP9 PUSH2 0x279A JUMP JUMPDEST PUSH1 0x1 PUSH1 0x1 PUSH1 0xA0 SHL SUB AND PUSH4 0x902F1AC PUSH1 0x40 MLOAD DUP2 PUSH4 0xFFFFFFFF AND PUSH1 0xE0 SHL DUP2 MSTORE PUSH1 0x4 ADD PUSH1 0x60 PUSH1 0x40 MLOAD DUP1 DUP4 SUB DUP2 DUP7 DUP1 EXTCODESIZE ISZERO DUP1 ISZERO PUSH2 0x323D JUMPI PUSH1 0x0 DUP1 REVERT JUMPDEST POP GAS STATICCALL ISZERO DUP1 ISZERO PUSH2 0x3251 JUMPI RETURNDATASIZE PUSH1 0x0 DUP1 RETURNDATACOPY RETURNDATASIZE PUSH1 0x0 REVERT JUMPDEST POP POP POP POP PUSH1 0x40 MLOAD RETURNDATASIZE PUSH1 0x60 DUP2 LT ISZERO PUSH2 0x3267 JUMPI PUSH1 0x0 DUP1 REVERT JUMPDEST POP DUP1 MLOAD PUSH1 0x20 SWAP1 SWAP2 ADD MLOAD PUSH14 0xFFFFFFFFFFFFFFFFFFFFFFFFFFFF SWAP2 DUP3 AND SWAP4 POP AND SWAP1 POP PUSH1 0x1 PUSH1 0x1 PUSH1 0xA0 SHL SUB DUP8 DUP2 AND SWAP1 DUP5 AND EQ PUSH2 0x32A1 JUMPI DUP1 DUP3 PUSH2 0x32A4 JUMP JUMPDEST DUP2 DUP2 JUMPDEST SWAP1 SWAP10 SWAP1 SWAP9 POP SWAP7 POP POP POP POP POP POP POP JUMP JUMPDEST PUSH1 0x0 DUP1 DUP5 GT PUSH2 0x32F3 JUMPI PUSH1 0x40 MLOAD PUSH3 0x461BCD PUSH1 0xE5 SHL DUP2 MSTORE PUSH1 0x4 ADD DUP1 DUP1 PUSH1 0x20 ADD DUP3 DUP2 SUB DUP3 MSTORE PUSH1 0x2C DUP2 MSTORE PUSH1 0x20 ADD DUP1 PUSH2 0x33F4 PUSH1 0x2C SWAP2 CODECOPY PUSH1 0x40 ADD SWAP2 POP POP PUSH1 0x40 MLOAD DUP1 SWAP2 SUB SWAP1 REVERT JUMPDEST PUSH1 0x0 DUP4 GT DUP1 ISZERO PUSH2 0x3303 JUMPI POP PUSH1 0x0 DUP3 GT JUMPDEST PUSH2 0x333E JUMPI PUSH1 0x40 MLOAD PUSH3 0x461BCD PUSH1 0xE5 SHL DUP2 MSTORE PUSH1 0x4 ADD DUP1 DUP1 PUSH1 0x20 ADD DUP3 DUP2 SUB DUP3 MSTORE PUSH1 0x28 DUP2 MSTORE PUSH1 0x20 ADD DUP1 PUSH2 0x34D0 PUSH1 0x28 SWAP2 CODECOPY PUSH1 0x40 ADD SWAP2 POP POP PUSH1 0x40 MLOAD DUP1 SWAP2 SUB SWAP1 REVERT JUMPDEST PUSH1 0x0 PUSH2 0x3362 PUSH2 0x3E8 PUSH2 0x3356 DUP7 DUP9 PUSH4 0xFFFFFFFF PUSH2 0x3133 AND JUMP JUMPDEST SWAP1 PUSH4 0xFFFFFFFF PUSH2 0x3133 AND JUMP JUMPDEST SWAP1 POP PUSH1 0x0 PUSH2 0x337C PUSH2 0x3E5 PUSH2 0x3356 DUP7 DUP10 PUSH4 0xFFFFFFFF PUSH2 0x33A3 AND JUMP JUMPDEST SWAP1 POP PUSH2 0x3399 PUSH1 0x1 DUP3 DUP5 DUP2 PUSH2 0x338C JUMPI INVALID JUMPDEST DIV SWAP1 PUSH4 0xFFFFFFFF PUSH2 0x3196 AND JUMP JUMPDEST SWAP7 SWAP6 POP POP POP POP POP POP JUMP JUMPDEST DUP1 DUP3 SUB DUP3 DUP2 GT ISZERO PUSH2 0xE53 JUMPI PUSH1 0x40 DUP1 MLOAD PUSH3 0x461BCD PUSH1 0xE5 SHL DUP2 MSTORE PUSH1 0x20 PUSH1 0x4 DUP3 ADD MSTORE PUSH1 0x15 PUSH1 0x24 DUP3 ADD MSTORE PUSH21 0x64732D6D6174682D7375622D756E646572666C6F77 PUSH1 0x58 SHL PUSH1 0x44 DUP3 ADD MSTORE SWAP1 MLOAD SWAP1 DUP2 SWAP1 SUB PUSH1 0x64 ADD SWAP1 REVERT INVALID SSTORE PUSH15 0x697377617056324C6962726172793A KECCAK256 0x49 0x4E MSTORE8 SSTORE CHAINID CHAINID 0x49 NUMBER 0x49 GASLIMIT 0x4E SLOAD 0x5F 0x4F SSTORE SLOAD POP SSTORE SLOAD 0x5F COINBASE 0x4D 0x4F SSTORE 0x4E SLOAD SLOAD PUSH19 0x616E7366657248656C7065723A3A7472616E73 PUSH7 0x657246726F6D3A KECCAK256 PUSH21 0x72616E7366657246726F6D206661696C6564547261 PUSH15 0x7366657248656C7065723A3A736166 PUSH6 0x5472616E7366 PUSH6 0x724554483A20 GASLIMIT SLOAD 0x48 KECCAK256 PUSH21 0x72616E73666572206661696C6564556E6973776170 JUMP ORIGIN 0x4C PUSH10 0x62726172793A20494445 0x4E SLOAD 0x49 NUMBER COINBASE 0x4C 0x5F COINBASE DIFFICULTY DIFFICULTY MSTORE GASLIMIT MSTORE8 MSTORE8 GASLIMIT MSTORE8 SSTORE PUSH15 0x69737761705632526F757465723A20 0x49 0x4E MSTORE8 SSTORE CHAINID CHAINID 0x49 NUMBER 0x49 GASLIMIT 0x4E SLOAD 0x5F TIMESTAMP 0x5F COINBASE 0x4D 0x4F SSTORE 0x4E SLOAD SSTORE PUSH15 0x697377617056324C6962726172793A KECCAK256 0x49 0x4E MSTORE8 SSTORE CHAINID CHAINID 0x49 NUMBER 0x49 GASLIMIT 0x4E SLOAD 0x5F 0x4C 0x49 MLOAD SSTORE 0x49 DIFFICULTY 0x49 SLOAD MSIZE SSTORE PUSH15 0x697377617056324C6962726172793A KECCAK256 0x49 0x4E MSTORE8 SSTORE CHAINID CHAINID 0x49 NUMBER 0x49 GASLIMIT 0x4E SLOAD 0x5F COINBASE 0x4D 0x4F SSTORE 0x4E SLOAD SSTORE PUSH15 0x69737761705632526F757465723A20 GASLIMIT PC NUMBER GASLIMIT MSTORE8 MSTORE8 0x49 JUMP GASLIMIT 0x5F 0x49 0x4E POP SSTORE SLOAD 0x5F COINBASE 0x4D 0x4F SSTORE 0x4E SLOAD SSTORE PUSH15 0x69737761705632526F757465723A20 0x49 0x4E JUMP COINBASE 0x4C 0x49 DIFFICULTY 0x5F POP COINBASE SLOAD 0x48 STOP STOP STOP SSTORE PUSH15 0x69737761705632526F757465723A20 0x49 0x4E MSTORE8 SSTORE CHAINID CHAINID 0x49 NUMBER 0x49 GASLIMIT 0x4E SLOAD 0x5F COINBASE 0x5F COINBASE 0x4D 0x4F SSTORE 0x4E SLOAD SSTORE PUSH15 0x69737761705632526F757465723A20 0x49 0x4E MSTORE8 SSTORE CHAINID CHAINID 0x49 NUMBER 0x49 GASLIMIT 0x4E SLOAD 0x5F 0x4F SSTORE SLOAD POP SSTORE SLOAD 0x5F COINBASE 0x4D 0x4F SSTORE 0x4E SLOAD SLOAD PUSH19 0x616E7366657248656C7065723A3A7361666554 PUSH19 0x616E736665723A207472616E73666572206661 PUSH10 0x6C6564556E6973776170 JUMP ORIGIN 0x4C PUSH10 0x62726172793A20494E53 SSTORE CHAINID CHAINID 0x49 NUMBER 0x49 GASLIMIT 0x4E SLOAD 0x5F 0x49 0x4E POP SSTORE SLOAD 0x5F COINBASE 0x4D 0x4F SSTORE 0x4E SLOAD SSTORE PUSH15 0x69737761705632526F757465723A20 GASLIMIT PC POP 0x49 MSTORE GASLIMIT DIFFICULTY STOP STOP STOP STOP STOP STOP STOP STOP LOG2 PUSH5 0x6970667358 0x22 SLT KECCAK256 PUSH15 0x81744A019ED6F6C4309F8201CB637B DUP6 SAR 0xE4 0xD0 0xC8 0xE9 0xB1 SWAP10 INVALID 0xFB 0xAF 0xE9 0xC1 EQ 0xE1 0xCE PUSH5 0x736F6C6343 STOP MOD MOD STOP CALLER "
				},
				"gasEstimates": {
					"creation": {
						"codeDepositCost": "2784400",
						"executionCost": "infinite",
						"totalCost": "infinite"
					},
					"external": {
						"WETH()": "infinite",
						"addLiquidity(address,address,uint256,uint256,uint256,uint256,address,uint256,address)": "infinite",
						"addLiquidityETH(address,uint256,uint256,uint256,address,uint256,bool)": "infinite",
						"factory()": "infinite",
						"getAmountIn(uint256,uint256,uint256)": "infinite",
						"getAmountOut(uint256,uint256,uint256)": "infinite",
						"getAmountsIn(uint256,address[])": "infinite",
						"getAmountsOut(uint256,address[])": "infinite",
						"quote(uint256,uint256,uint256)": "infinite",
						"removeLiquidity(address,address,uint256,uint256,uint256,address,uint256)": "infinite",
						"removeLiquidityETH(address,uint256,uint256,uint256,address,uint256)": "infinite",
						"removeLiquidityETHWithPermit(address,uint256,uint256,uint256,address,uint256,bool,uint8,bytes32,bytes32)": "infinite",
						"removeLiquidityWithPermit(address,address,uint256,uint256,uint256,address,uint256,bool,uint8,bytes32,bytes32)": "infinite",
						"swapETHForExactTokens(uint256,address[],address,uint256)": "infinite",
						"swapExactETHForTokens(uint256,address[],address,uint256)": "infinite",
						"swapExactTokensForETH(uint256,uint256,address[],address,uint256)": "infinite",
						"swapExactTokensForTokens(uint256,uint256,address[],address,uint256)": "infinite",
						"swapTokensForExactETH(uint256,uint256,address[],address,uint256)": "infinite",
						"swapTokensForExactTokens(uint256,uint256,address[],address,uint256)": "infinite"
					},
					"internal": {
						"_addLiquidity(address,address,uint256,uint256,uint256,uint256)": "infinite",
						"_swap(uint256[] memory,address[] memory,address)": "infinite"
					}
				},
				"methodIdentifiers": {
					"WETH()": "ad5c4648",
					"addLiquidity(address,address,uint256,uint256,uint256,uint256,address,uint256,address)": "a648ec7a",
					"addLiquidityETH(address,uint256,uint256,uint256,address,uint256,bool)": "705a623e",
					"factory()": "c45a0155",
					"getAmountIn(uint256,uint256,uint256)": "85f8c259",
					"getAmountOut(uint256,uint256,uint256)": "054d50d4",
					"getAmountsIn(uint256,address[])": "1f00ca74",
					"getAmountsOut(uint256,address[])": "d06ca61f",
					"quote(uint256,uint256,uint256)": "ad615dec",
					"removeLiquidity(address,address,uint256,uint256,uint256,address,uint256)": "baa2abde",
					"removeLiquidityETH(address,uint256,uint256,uint256,address,uint256)": "02751cec",
					"removeLiquidityETHWithPermit(address,uint256,uint256,uint256,address,uint256,bool,uint8,bytes32,bytes32)": "ded9382a",
					"removeLiquidityWithPermit(address,address,uint256,uint256,uint256,address,uint256,bool,uint8,bytes32,bytes32)": "2195995c",
					"swapETHForExactTokens(uint256,address[],address,uint256)": "fb3bdb41",
					"swapExactETHForTokens(uint256,address[],address,uint256)": "7ff36ab5",
					"swapExactTokensForETH(uint256,uint256,address[],address,uint256)": "18cbafe5",
					"swapExactTokensForTokens(uint256,uint256,address[],address,uint256)": "38ed1739",
					"swapTokensForExactETH(uint256,uint256,address[],address,uint256)": "4a25d94a",
					"swapTokensForExactTokens(uint256,uint256,address[],address,uint256)": "8803dbee"
				}
			},
			"storageLayout": {
				"storage": [],
				"types": null
			},
			"userdoc": {
				"methods": {}
			}
		}
	}
}