{
	"v2-core-master/contracts/UniswapV2Pair.sol": {
		"UniswapV2Pair": {
			"abi": [
				{
					"inputs": [],
					"payable": false,
					"stateMutability": "nonpayable",
					"type": "constructor"
				},
				{
					"anonymous": false,
					"inputs": [
						{
							"indexed": true,
							"internalType": "address",
							"name": "owner",
							"type": "address"
						},
						{
							"indexed": true,
							"internalType": "address",
							"name": "spender",
							"type": "address"
						},
						{
							"indexed": false,
							"internalType": "uint256",
							"name": "value",
							"type": "uint256"
						}
					],
					"name": "Approval",
					"type": "event"
				},
				{
					"anonymous": false,
					"inputs": [
						{
							"indexed": true,
							"internalType": "address",
							"name": "sender",
							"type": "address"
						},
						{
							"indexed": false,
							"internalType": "uint256",
							"name": "amount0",
							"type": "uint256"
						},
						{
							"indexed": false,
							"internalType": "uint256",
							"name": "amount1",
							"type": "uint256"
						},
						{
							"indexed": true,
							"internalType": "address",
							"name": "to",
							"type": "address"
						}
					],
					"name": "Burn",
					"type": "event"
				},
				{
					"anonymous": false,
					"inputs": [
						{
							"indexed": true,
							"internalType": "address",
							"name": "sender",
							"type": "address"
						},
						{
							"indexed": false,
							"internalType": "uint256",
							"name": "amount0",
							"type": "uint256"
						},
						{
							"indexed": false,
							"internalType": "uint256",
							"name": "amount1",
							"type": "uint256"
						}
					],
					"name": "Mint",
					"type": "event"
				},
				{
					"anonymous": false,
					"inputs": [
						{
							"indexed": true,
							"internalType": "address",
							"name": "sender",
							"type": "address"
						},
						{
							"indexed": false,
							"internalType": "uint256",
							"name": "amount0In",
							"type": "uint256"
						},
						{
							"indexed": false,
							"internalType": "uint256",
							"name": "amount1In",
							"type": "uint256"
						},
						{
							"indexed": false,
							"internalType": "uint256",
							"name": "amount0Out",
							"type": "uint256"
						},
						{
							"indexed": false,
							"internalType": "uint256",
							"name": "amount1Out",
							"type": "uint256"
						},
						{
							"indexed": true,
							"internalType": "address",
							"name": "to",
							"type": "address"
						}
					],
					"name": "Swap",
					"type": "event"
				},
				{
					"anonymous": false,
					"inputs": [
						{
							"indexed": false,
							"internalType": "uint112",
							"name": "reserve0",
							"type": "uint112"
						},
						{
							"indexed": false,
							"internalType": "uint112",
							"name": "reserve1",
							"type": "uint112"
						}
					],
					"name": "Sync",
					"type": "event"
				},
				{
					"anonymous": false,
					"inputs": [
						{
							"indexed": true,
							"internalType": "address",
							"name": "from",
							"type": "address"
						},
						{
							"indexed": true,
							"internalType": "address",
							"name": "to",
							"type": "address"
						},
						{
							"indexed": false,
							"internalType": "uint256",
							"name": "value",
							"type": "uint256"
						}
					],
					"name": "Transfer",
					"type": "event"
				},
				{
					"constant": true,
					"inputs": [],
					"name": "DOMAIN_SEPARATOR",
					"outputs": [
						{
							"internalType": "bytes32",
							"name": "",
							"type": "bytes32"
						}
					],
					"payable": false,
					"stateMutability": "view",
					"type": "function"
				},
				{
					"constant": false,
					"inputs": [
						{
							"internalType": "address",
							"name": "to",
							"type": "address"
						}
					],
					"name": "Lockmint",
					"outputs": [
						{
							"internalType": "uint256",
							"name": "liquidity",
							"type": "uint256"
						}
					],
					"payable": false,
					"stateMutability": "nonpayable",
					"type": "function"
				},
				{
					"constant": true,
					"inputs": [],
					"name": "MINIMUM_LIQUIDITY",
					"outputs": [
						{
							"internalType": "uint256",
							"name": "",
							"type": "uint256"
						}
					],
					"payable": false,
					"stateMutability": "view",
					"type": "function"
				},
				{
					"constant": true,
					"inputs": [],
					"name": "PERMIT_TYPEHASH",
					"outputs": [
						{
							"internalType": "bytes32",
							"name": "",
							"type": "bytes32"
						}
					],
					"payable": false,
					"stateMutability": "view",
					"type": "function"
				},
				{
					"constant": true,
					"inputs": [
						{
							"internalType": "address",
							"name": "",
							"type": "address"
						}
					],
					"name": "_balances",
					"outputs": [
						{
							"internalType": "uint256",
							"name": "",
							"type": "uint256"
						}
					],
					"payable": false,
					"stateMutability": "view",
					"type": "function"
				},
				{
					"constant": true,
					"inputs": [
						{
							"internalType": "address",
							"name": "",
							"type": "address"
						}
					],
					"name": "_frozenBalance",
					"outputs": [
						{
							"internalType": "uint256",
							"name": "",
							"type": "uint256"
						}
					],
					"payable": false,
					"stateMutability": "view",
					"type": "function"
				},
				{
					"constant": true,
					"inputs": [
						{
							"internalType": "address",
							"name": "",
							"type": "address"
						},
						{
							"internalType": "address",
							"name": "",
							"type": "address"
						}
					],
					"name": "allowance",
					"outputs": [
						{
							"internalType": "uint256",
							"name": "",
							"type": "uint256"
						}
					],
					"payable": false,
					"stateMutability": "view",
					"type": "function"
				},
				{
					"constant": false,
					"inputs": [
						{
							"internalType": "address",
							"name": "spender",
							"type": "address"
						},
						{
							"internalType": "uint256",
							"name": "value",
							"type": "uint256"
						}
					],
					"name": "approve",
					"outputs": [
						{
							"internalType": "bool",
							"name": "",
							"type": "bool"
						}
					],
					"payable": false,
					"stateMutability": "nonpayable",
					"type": "function"
				},
				{
					"constant": true,
					"inputs": [
						{
							"internalType": "address",
							"name": "account",
							"type": "address"
						}
					],
					"name": "balanceOf",
					"outputs": [
						{
							"internalType": "uint256",
							"name": "",
							"type": "uint256"
						}
					],
					"payable": false,
					"stateMutability": "view",
					"type": "function"
				},
				{
					"constant": false,
					"inputs": [
						{
							"internalType": "address",
							"name": "to",
							"type": "address"
						}
					],
					"name": "burn",
					"outputs": [
						{
							"internalType": "uint256",
							"name": "amount0",
							"type": "uint256"
						},
						{
							"internalType": "uint256",
							"name": "amount1",
							"type": "uint256"
						}
					],
					"payable": false,
					"stateMutability": "nonpayable",
					"type": "function"
				},
				{
					"constant": true,
					"inputs": [],
					"name": "decimals",
					"outputs": [
						{
							"internalType": "uint8",
							"name": "",
							"type": "uint8"
						}
					],
					"payable": false,
					"stateMutability": "view",
					"type": "function"
				},
				{
					"constant": true,
					"inputs": [],
					"name": "factory",
					"outputs": [
						{
							"internalType": "address",
							"name": "",
							"type": "address"
						}
					],
					"payable": false,
					"stateMutability": "view",
					"type": "function"
				},
				{
					"constant": true,
					"inputs": [],
					"name": "getReserves",
					"outputs": [
						{
							"internalType": "uint112",
							"name": "_reserve0",
							"type": "uint112"
						},
						{
							"internalType": "uint112",
							"name": "_reserve1",
							"type": "uint112"
						},
						{
							"internalType": "uint32",
							"name": "_blockTimestampLast",
							"type": "uint32"
						}
					],
					"payable": false,
					"stateMutability": "view",
					"type": "function"
				},
				{
					"constant": false,
					"inputs": [
						{
							"internalType": "address",
							"name": "_token0",
							"type": "address"
						},
						{
							"internalType": "address",
							"name": "_token1",
							"type": "address"
						}
					],
					"name": "initialize",
					"outputs": [],
					"payable": false,
					"stateMutability": "nonpayable",
					"type": "function"
				},
				{
					"constant": true,
					"inputs": [],
					"name": "kLast",
					"outputs": [
						{
							"internalType": "uint256",
							"name": "",
							"type": "uint256"
						}
					],
					"payable": false,
					"stateMutability": "view",
					"type": "function"
				},
				{
					"constant": false,
					"inputs": [
						{
							"internalType": "address",
							"name": "to",
							"type": "address"
						}
					],
					"name": "mint",
					"outputs": [
						{
							"internalType": "uint256",
							"name": "liquidity",
							"type": "uint256"
						}
					],
					"payable": false,
					"stateMutability": "nonpayable",
					"type": "function"
				},
				{
					"constant": true,
					"inputs": [],
					"name": "name",
					"outputs": [
						{
							"internalType": "string",
							"name": "",
							"type": "string"
						}
					],
					"payable": false,
					"stateMutability": "view",
					"type": "function"
				},
				{
					"constant": true,
					"inputs": [
						{
							"internalType": "address",
							"name": "",
							"type": "address"
						}
					],
					"name": "nonces",
					"outputs": [
						{
							"internalType": "uint256",
							"name": "",
							"type": "uint256"
						}
					],
					"payable": false,
					"stateMutability": "view",
					"type": "function"
				},
				{
					"constant": false,
					"inputs": [
						{
							"internalType": "address",
							"name": "owner",
							"type": "address"
						},
						{
							"internalType": "address",
							"name": "spender",
							"type": "address"
						},
						{
							"internalType": "uint256",
							"name": "value",
							"type": "uint256"
						},
						{
							"internalType": "uint256",
							"name": "deadline",
							"type": "uint256"
						},
						{
							"internalType": "uint8",
							"name": "v",
							"type": "uint8"
						},
						{
							"internalType": "bytes32",
							"name": "r",
							"type": "bytes32"
						},
						{
							"internalType": "bytes32",
							"name": "s",
							"type": "bytes32"
						}
					],
					"name": "permit",
					"outputs": [],
					"payable": false,
					"stateMutability": "nonpayable",
					"type": "function"
				},
				{
					"constant": true,
					"inputs": [],
					"name": "price0CumulativeLast",
					"outputs": [
						{
							"internalType": "uint256",
							"name": "",
							"type": "uint256"
						}
					],
					"payable": false,
					"stateMutability": "view",
					"type": "function"
				},
				{
					"constant": true,
					"inputs": [],
					"name": "price1CumulativeLast",
					"outputs": [
						{
							"internalType": "uint256",
							"name": "",
							"type": "uint256"
						}
					],
					"payable": false,
					"stateMutability": "view",
					"type": "function"
				},
				{
					"constant": false,
					"inputs": [
						{
							"internalType": "address",
							"name": "to",
							"type": "address"
						}
					],
					"name": "skim",
					"outputs": [],
					"payable": false,
					"stateMutability": "nonpayable",
					"type": "function"
				},
				{
					"constant": false,
					"inputs": [
						{
							"internalType": "uint256",
							"name": "amount0Out",
							"type": "uint256"
						},
						{
							"internalType": "uint256",
							"name": "amount1Out",
							"type": "uint256"
						},
						{
							"internalType": "address",
							"name": "to",
							"type": "address"
						},
						{
							"internalType": "bytes",
							"name": "data",
							"type": "bytes"
						}
					],
					"name": "swap",
					"outputs": [],
					"payable": false,
					"stateMutability": "nonpayable",
					"type": "function"
				},
				{
					"constant": true,
					"inputs": [],
					"name": "symbol",
					"outputs": [
						{
							"internalType": "string",
							"name": "",
							"type": "string"
						}
					],
					"payable": false,
					"stateMutability": "view",
					"type": "function"
				},
				{
					"constant": false,
					"inputs": [],
					"name": "sync",
					"outputs": [],
					"payable": false,
					"stateMutability": "nonpayable",
					"type": "function"
				},
				{
					"constant": true,
					"inputs": [],
					"name": "token0",
					"outputs": [
						{
							"internalType": "address",
							"name": "",
							"type": "address"
						}
					],
					"payable": false,
					"stateMutability": "view",
					"type": "function"
				},
				{
					"constant": true,
					"inputs": [],
					"name": "token1",
					"outputs": [
						{
							"internalType": "address",
							"name": "",
							"type": "address"
						}
					],
					"payable": false,
					"stateMutability": "view",
					"type": "function"
				},
				{
					"constant": true,
					"inputs": [],
					"name": "totalSupply",
					"outputs": [
						{
							"internalType": "uint256",
							"name": "",
							"type": "uint256"
						}
					],
					"payable": false,
					"stateMutability": "view",
					"type": "function"
				},
				{
					"constant": false,
					"inputs": [
						{
							"internalType": "address",
							"name": "to",
							"type": "address"
						},
						{
							"internalType": "uint256",
							"name": "value",
							"type": "uint256"
						}
					],
					"name": "transfer",
					"outputs": [
						{
							"internalType": "bool",
							"name": "",
							"type": "bool"
						}
					],
					"payable": false,
					"stateMutability": "nonpayable",
					"type": "function"
				},
				{
					"constant": false,
					"inputs": [
						{
							"internalType": "address",
							"name": "from",
							"type": "address"
						},
						{
							"internalType": "address",
							"name": "to",
							"type": "address"
						},
						{
							"internalType": "uint256",
							"name": "value",
							"type": "uint256"
						}
					],
					"name": "transferFrom",
					"outputs": [
						{
							"internalType": "bool",
							"name": "",
							"type": "bool"
						}
					],
					"payable": false,
					"stateMutability": "nonpayable",
					"type": "function"
				}
			],
			"devdoc": {
				"methods": {}
			},
			"evm": {
				"assembly": "    /* \"v2-core-master/contracts/UniswapV2Pair.sol\":290:11199  contract UniswapV2Pair is IUniswapV2Pair, UniswapV2ERC20 {... */\n  mstore(0x40, 0x80)\n    /* \"v2-core-master/contracts/UniswapV2Pair.sol\":1120:1121  1 */\n  0x01\n    /* \"v2-core-master/contracts/UniswapV2Pair.sol\":1096:1121  uint private unlocked = 1 */\n  0x0d\n  sstore\n    /* \"v2-core-master/contracts/UniswapV2Pair.sol\":2176:2234  constructor() public {... */\n  callvalue\n    /* \"--CODEGEN--\":8:17   */\n  dup1\n    /* \"--CODEGEN--\":5:7   */\n  iszero\n  tag_1\n  jumpi\n    /* \"--CODEGEN--\":30:31   */\n  0x00\n    /* \"--CODEGEN--\":27:28   */\n  dup1\n    /* \"--CODEGEN--\":20:32   */\n  revert\n    /* \"--CODEGEN--\":5:7   */\ntag_1:\n  pop\n    /* \"v2-core-master/contracts/UniswapV2ERC20.sol\":1176:1271  keccak256('EIP712Domain(string name,string version,uint256 chainId,address verifyingContract)') */\n  mload(0x40)\n    /* \"v2-core-master/contracts/UniswapV2ERC20.sol\":1080:1087  chainid */\n  chainid\n  swap1\n    /* \"v2-core-master/contracts/UniswapV2ERC20.sol\":1176:1271  keccak256('EIP712Domain(string name,string version,uint256 chainId,address verifyingContract)') */\n  dup1\n  0x52\n  data_8b73c3c69bb8fe3d512ecc4cf759cc79239f7b179b0ffacaa9a75d522b39400f\n  dup3\n  codecopy\n  0x40\n  dup1\n  mload\n  swap2\n  dup3\n  swap1\n  sub\n  0x52\n  add\n  dup3\n  keccak256\n    /* \"v2-core-master/contracts/UniswapV2ERC20.sol\":1305:1309  name */\n  dup3\n  dup3\n  add\n  dup3\n  mstore\n  0x0b\n  dup4\n  mstore\n  shl(0xac, 0x045706f7353776170204c5)\n  0x20\n  swap4\n  dup5\n  add\n  mstore\n    /* \"v2-core-master/contracts/UniswapV2ERC20.sol\":1339:1349  bytes('1') */\n  dup2\n  mload\n  dup1\n  dup4\n  add\n  dup4\n  mstore\n  0x01\n  dup2\n  mstore\n  shl(0xf8, 0x31)\n  swap1\n  dup5\n  add\n  mstore\n    /* \"v2-core-master/contracts/UniswapV2ERC20.sol\":1148:1420  abi.encode(... */\n  dup2\n  mload\n  dup1\n  dup5\n  add\n  swap2\n  swap1\n  swap2\n  mstore\n    /* \"v2-core-master/contracts/UniswapV2ERC20.sol\":1289:1311  keccak256(bytes(name)) */\n  0x5db243d81ee6dc39059f55574d6be718e0d4e0640992da6200b8ba02bf956d24\n    /* \"v2-core-master/contracts/UniswapV2ERC20.sol\":1148:1420  abi.encode(... */\n  dup2\n  dup4\n  add\n  mstore\n    /* \"v2-core-master/contracts/UniswapV2ERC20.sol\":1329:1350  keccak256(bytes('1')) */\n  0xc89efdaa54c0f20c7adf612882df0950f5a951637e0307cdcb4c672f298b8bc6\n    /* \"v2-core-master/contracts/UniswapV2ERC20.sol\":1148:1420  abi.encode(... */\n  0x60\n  dup3\n  add\n  mstore\n  0x80\n  dup2\n  add\n  swap5\n  swap1\n  swap5\n  mstore\n    /* \"v2-core-master/contracts/UniswapV2ERC20.sol\":1401:1405  this */\n  address\n    /* \"v2-core-master/contracts/UniswapV2ERC20.sol\":1148:1420  abi.encode(... */\n  0xa0\n  dup1\n  dup7\n  add\n  swap2\n  swap1\n  swap2\n  mstore\n  dup2\n  mload\n    /* \"--CODEGEN--\":26:47   */\n  dup1\n  dup7\n  sub\n    /* \"--CODEGEN--\":22:54   */\n  swap1\n  swap2\n  add\n    /* \"--CODEGEN--\":6:55   */\n  dup2\n  mstore\n    /* \"v2-core-master/contracts/UniswapV2ERC20.sol\":1148:1420  abi.encode(... */\n  0xc0\n  swap1\n  swap5\n  add\n  swap1\n  mstore\n    /* \"v2-core-master/contracts/UniswapV2ERC20.sol\":1125:1430  keccak256(... */\n  dup3\n  mload\n  swap3\n  add\n  swap2\n  swap1\n  swap2\n  keccak256\n    /* \"v2-core-master/contracts/UniswapV2ERC20.sol\":1106:1122  DOMAIN_SEPARATOR */\n  0x04\n    /* \"v2-core-master/contracts/UniswapV2ERC20.sol\":1106:1430  DOMAIN_SEPARATOR = keccak256(... */\n  sstore\n  pop\n    /* \"v2-core-master/contracts/UniswapV2Pair.sol\":2207:2214  factory */\n  0x06\n    /* \"v2-core-master/contracts/UniswapV2Pair.sol\":2207:2227  factory = msg.sender */\n  dup1\n  sload\n  not(sub(shl(0xa0, 0x01), 0x01))\n  and\n    /* \"v2-core-master/contracts/UniswapV2Pair.sol\":2217:2227  msg.sender */\n  caller\n    /* \"v2-core-master/contracts/UniswapV2Pair.sol\":2207:2227  factory = msg.sender */\n  or\n  swap1\n  sstore\n    /* \"v2-core-master/contracts/UniswapV2Pair.sol\":290:11199  contract UniswapV2Pair is IUniswapV2Pair, UniswapV2ERC20 {... */\n  dataSize(sub_0)\n  dup1\n  dataOffset(sub_0)\n  0x00\n  codecopy\n  0x00\n  return\nstop\ndata_8b73c3c69bb8fe3d512ecc4cf759cc79239f7b179b0ffacaa9a75d522b39400f 454950373132446f6d61696e28737472696e67206e616d652c737472696e672076657273696f6e2c75696e7432353620636861696e49642c6164647265737320766572696679696e67436f6e747261637429\n\nsub_0: assembly {\n        /* \"v2-core-master/contracts/UniswapV2Pair.sol\":290:11199  contract UniswapV2Pair is IUniswapV2Pair, UniswapV2ERC20 {... */\n      mstore(0x40, 0x80)\n      callvalue\n        /* \"--CODEGEN--\":8:17   */\n      dup1\n        /* \"--CODEGEN--\":5:7   */\n      iszero\n      tag_1\n      jumpi\n        /* \"--CODEGEN--\":30:31   */\n      0x00\n        /* \"--CODEGEN--\":27:28   */\n      dup1\n        /* \"--CODEGEN--\":20:32   */\n      revert\n        /* \"--CODEGEN--\":5:7   */\n    tag_1:\n        /* \"v2-core-master/contracts/UniswapV2Pair.sol\":290:11199  contract UniswapV2Pair is IUniswapV2Pair, UniswapV2ERC20 {... */\n      pop\n      jumpi(tag_2, lt(calldatasize, 0x04))\n      shr(0xe0, calldataload(0x00))\n      dup1\n      0x6ebcf607\n      gt\n      tag_33\n      jumpi\n      dup1\n      0xba9a7a56\n      gt\n      tag_34\n      jumpi\n      dup1\n      0xd505accf\n      gt\n      tag_35\n      jumpi\n      dup1\n      0xd505accf\n      eq\n      tag_29\n      jumpi\n      dup1\n      0xdcbbb373\n      eq\n      tag_30\n      jumpi\n      dup1\n      0xdd62ed3e\n      eq\n      tag_31\n      jumpi\n      dup1\n      0xfff6cae9\n      eq\n      tag_32\n      jumpi\n      jump(tag_2)\n    tag_35:\n      dup1\n      0xba9a7a56\n      eq\n      tag_25\n      jumpi\n      dup1\n      0xbc25cf77\n      eq\n      tag_26\n      jumpi\n      dup1\n      0xc45a0155\n      eq\n      tag_27\n      jumpi\n      dup1\n      0xd21220a7\n      eq\n      tag_28\n      jumpi\n      jump(tag_2)\n    tag_34:\n      dup1\n      0x7ecebe00\n      gt\n      tag_36\n      jumpi\n      dup1\n      0x7ecebe00\n      eq\n      tag_21\n      jumpi\n      dup1\n      0x89afcb44\n      eq\n      tag_22\n      jumpi\n      dup1\n      0x95d89b41\n      eq\n      tag_23\n      jumpi\n      dup1\n      0xa9059cbb\n      eq\n      tag_24\n      jumpi\n      jump(tag_2)\n    tag_36:\n      dup1\n      0x6ebcf607\n      eq\n      tag_18\n      jumpi\n      dup1\n      0x70a08231\n      eq\n      tag_19\n      jumpi\n      dup1\n      0x7464fc3d\n      eq\n      tag_20\n      jumpi\n      jump(tag_2)\n    tag_33:\n      dup1\n      0x30adf81f\n      gt\n      tag_37\n      jumpi\n      dup1\n      0x485cc955\n      gt\n      tag_38\n      jumpi\n      dup1\n      0x485cc955\n      eq\n      tag_14\n      jumpi\n      dup1\n      0x5909c0d5\n      eq\n      tag_15\n      jumpi\n      dup1\n      0x5a3d5493\n      eq\n      tag_16\n      jumpi\n      dup1\n      0x6a627842\n      eq\n      tag_17\n      jumpi\n      jump(tag_2)\n    tag_38:\n      dup1\n      0x30adf81f\n      eq\n      tag_10\n      jumpi\n      dup1\n      0x313ce567\n      eq\n      tag_11\n      jumpi\n      dup1\n      0x3644e515\n      eq\n      tag_12\n      jumpi\n      dup1\n      0x47d5d856\n      eq\n      tag_13\n      jumpi\n      jump(tag_2)\n    tag_37:\n      dup1\n      0x095ea7b3\n      gt\n      tag_39\n      jumpi\n      dup1\n      0x095ea7b3\n      eq\n      tag_6\n      jumpi\n      dup1\n      0x0dfe1681\n      eq\n      tag_7\n      jumpi\n      dup1\n      0x18160ddd\n      eq\n      tag_8\n      jumpi\n      dup1\n      0x23b872dd\n      eq\n      tag_9\n      jumpi\n      jump(tag_2)\n    tag_39:\n      dup1\n      0x022c0d9f\n      eq\n      tag_3\n      jumpi\n      dup1\n      0x06fdde03\n      eq\n      tag_4\n      jumpi\n      dup1\n      0x0902f1ac\n      eq\n      tag_5\n      jumpi\n    tag_2:\n      0x00\n      dup1\n      revert\n        /* \"v2-core-master/contracts/UniswapV2Pair.sol\":8642:10620  function swap(uint amount0Out, uint amount1Out, address to, bytes calldata data) external lock {... */\n    tag_3:\n      tag_40\n      0x04\n      dup1\n      calldatasize\n      sub\n        /* \"--CODEGEN--\":13:16   */\n      0x80\n        /* \"--CODEGEN--\":8:11   */\n      dup2\n        /* \"--CODEGEN--\":5:17   */\n      lt\n        /* \"--CODEGEN--\":2:4   */\n      iszero\n      tag_41\n      jumpi\n        /* \"--CODEGEN--\":30:31   */\n      0x00\n        /* \"--CODEGEN--\":27:28   */\n      dup1\n        /* \"--CODEGEN--\":20:32   */\n      revert\n        /* \"--CODEGEN--\":2:4   */\n    tag_41:\n        /* \"v2-core-master/contracts/UniswapV2Pair.sol\":8642:10620  function swap(uint amount0Out, uint amount1Out, address to, bytes calldata data) external lock {... */\n      dup2\n      calldataload\n      swap2\n      0x20\n      dup2\n      add\n      calldataload\n      swap2\n      sub(shl(0xa0, 0x01), 0x01)\n      0x40\n      dup4\n      add\n      calldataload\n      and\n      swap2\n      swap1\n      dup2\n      add\n      swap1\n      0x80\n      dup2\n      add\n      0x60\n      dup3\n      add\n      calldataload\n        /* \"--CODEGEN--\":21:32   */\n      0x0100000000\n        /* \"--CODEGEN--\":5:33   */\n      dup2\n      gt\n        /* \"--CODEGEN--\":2:4   */\n      iszero\n      tag_42\n      jumpi\n        /* \"--CODEGEN--\":46:47   */\n      0x00\n        /* \"--CODEGEN--\":43:44   */\n      dup1\n        /* \"--CODEGEN--\":36:48   */\n      revert\n        /* \"--CODEGEN--\":2:4   */\n    tag_42:\n        /* \"v2-core-master/contracts/UniswapV2Pair.sol\":8642:10620  function swap(uint amount0Out, uint amount1Out, address to, bytes calldata data) external lock {... */\n      dup3\n      add\n        /* \"--CODEGEN--\":35:44   */\n      dup4\n        /* \"--CODEGEN--\":28:32   */\n      0x20\n        /* \"--CODEGEN--\":12:26   */\n      dup3\n        /* \"--CODEGEN--\":8:33   */\n      add\n        /* \"--CODEGEN--\":5:45   */\n      gt\n        /* \"--CODEGEN--\":2:4   */\n      iszero\n      tag_43\n      jumpi\n        /* \"--CODEGEN--\":58:59   */\n      0x00\n        /* \"--CODEGEN--\":55:56   */\n      dup1\n        /* \"--CODEGEN--\":48:60   */\n      revert\n        /* \"--CODEGEN--\":2:4   */\n    tag_43:\n        /* \"v2-core-master/contracts/UniswapV2Pair.sol\":8642:10620  function swap(uint amount0Out, uint amount1Out, address to, bytes calldata data) external lock {... */\n      dup1\n      calldataload\n      swap1\n      0x20\n      add\n      swap2\n        /* \"--CODEGEN--\":100:109   */\n      dup5\n        /* \"--CODEGEN--\":95:96   */\n      0x01\n        /* \"--CODEGEN--\":81:93   */\n      dup4\n        /* \"--CODEGEN--\":77:97   */\n      mul\n        /* \"--CODEGEN--\":67:75   */\n      dup5\n        /* \"--CODEGEN--\":63:98   */\n      add\n        /* \"--CODEGEN--\":60:110   */\n      gt\n        /* \"--CODEGEN--\":39:50   */\n      0x0100000000\n        /* \"--CODEGEN--\":25:37   */\n      dup4\n        /* \"--CODEGEN--\":22:51   */\n      gt\n        /* \"--CODEGEN--\":11:118   */\n      or\n        /* \"--CODEGEN--\":8:10   */\n      iszero\n      tag_44\n      jumpi\n        /* \"--CODEGEN--\":131:132   */\n      0x00\n        /* \"--CODEGEN--\":128:129   */\n      dup1\n        /* \"--CODEGEN--\":121:133   */\n      revert\n        /* \"--CODEGEN--\":8:10   */\n    tag_44:\n      pop\n        /* \"v2-core-master/contracts/UniswapV2Pair.sol\":8642:10620  function swap(uint amount0Out, uint amount1Out, address to, bytes calldata data) external lock {... */\n      swap1\n      swap3\n      pop\n      swap1\n      pop\n      tag_45\n      jump\t// in\n    tag_40:\n      stop\n        /* \"v2-core-master/contracts/UniswapV2ERC20.sol\":192:235  string public constant name = 'EposSwap LP' */\n    tag_4:\n      tag_46\n      tag_47\n      jump\t// in\n    tag_46:\n      0x40\n      dup1\n      mload\n      0x20\n      dup1\n      dup3\n      mstore\n      dup4\n      mload\n      dup2\n      dup4\n      add\n      mstore\n      dup4\n      mload\n      swap2\n      swap3\n      dup4\n      swap3\n      swap1\n      dup4\n      add\n      swap2\n      dup6\n      add\n      swap1\n      dup1\n      dup4\n      dup4\n      0x00\n        /* \"--CODEGEN--\":8:108   */\n    tag_48:\n        /* \"--CODEGEN--\":33:36   */\n      dup4\n        /* \"--CODEGEN--\":30:31   */\n      dup2\n        /* \"--CODEGEN--\":27:37   */\n      lt\n        /* \"--CODEGEN--\":8:108   */\n      iszero\n      tag_50\n      jumpi\n        /* \"--CODEGEN--\":90:101   */\n      dup2\n      dup2\n      add\n        /* \"--CODEGEN--\":84:102   */\n      mload\n        /* \"--CODEGEN--\":71:82   */\n      dup4\n      dup3\n      add\n        /* \"--CODEGEN--\":64:103   */\n      mstore\n        /* \"--CODEGEN--\":52:54   */\n      0x20\n        /* \"--CODEGEN--\":45:55   */\n      add\n        /* \"--CODEGEN--\":8:108   */\n      jump(tag_48)\n    tag_50:\n        /* \"--CODEGEN--\":12:26   */\n      pop\n        /* \"v2-core-master/contracts/UniswapV2ERC20.sol\":192:235  string public constant name = 'EposSwap LP' */\n      pop\n      pop\n      pop\n      swap1\n      pop\n      swap1\n      dup2\n      add\n      swap1\n      0x1f\n      and\n      dup1\n      iszero\n      tag_51\n      jumpi\n      dup1\n      dup3\n      sub\n      dup1\n      mload\n      0x01\n      dup4\n      0x20\n      sub\n      0x0100\n      exp\n      sub\n      not\n      and\n      dup2\n      mstore\n      0x20\n      add\n      swap2\n      pop\n    tag_51:\n      pop\n      swap3\n      pop\n      pop\n      pop\n      mload(0x40)\n      dup1\n      swap2\n      sub\n      swap1\n      return\n        /* \"v2-core-master/contracts/UniswapV2Pair.sol\":1264:1491  function getReserves() public view returns (uint112 _reserve0, uint112 _reserve1, uint32 _blockTimestampLast) {... */\n    tag_5:\n      tag_52\n      tag_53\n      jump\t// in\n    tag_52:\n      0x40\n      dup1\n      mload\n      sub(shl(0x70, 0x01), 0x01)\n      swap5\n      dup6\n      and\n      dup2\n      mstore\n      swap3\n      swap1\n      swap4\n      and\n      0x20\n      dup4\n      add\n      mstore\n      0xffffffff\n      and\n      dup2\n      dup4\n      add\n      mstore\n      swap1\n      mload\n      swap1\n      dup2\n      swap1\n      sub\n      0x60\n      add\n      swap1\n      return\n        /* \"v2-core-master/contracts/UniswapV2ERC20.sol\":2860:3004  function approve(address spender, uint value) external returns (bool) {... */\n    tag_6:\n      tag_54\n      0x04\n      dup1\n      calldatasize\n      sub\n        /* \"--CODEGEN--\":13:15   */\n      0x40\n        /* \"--CODEGEN--\":8:11   */\n      dup2\n        /* \"--CODEGEN--\":5:16   */\n      lt\n        /* \"--CODEGEN--\":2:4   */\n      iszero\n      tag_55\n      jumpi\n        /* \"--CODEGEN--\":29:30   */\n      0x00\n        /* \"--CODEGEN--\":26:27   */\n      dup1\n        /* \"--CODEGEN--\":19:31   */\n      revert\n        /* \"--CODEGEN--\":2:4   */\n    tag_55:\n      pop\n      sub(shl(0xa0, 0x01), 0x01)\n        /* \"v2-core-master/contracts/UniswapV2ERC20.sol\":2860:3004  function approve(address spender, uint value) external returns (bool) {... */\n      dup2\n      calldataload\n      and\n      swap1\n      0x20\n      add\n      calldataload\n      tag_56\n      jump\t// in\n    tag_54:\n      0x40\n      dup1\n      mload\n      swap2\n      iszero\n      iszero\n      dup3\n      mstore\n      mload\n      swap1\n      dup2\n      swap1\n      sub\n      0x20\n      add\n      swap1\n      return\n        /* \"v2-core-master/contracts/UniswapV2Pair.sol\":593:614  address public token0 */\n    tag_7:\n      tag_57\n      tag_58\n      jump\t// in\n    tag_57:\n      0x40\n      dup1\n      mload\n      sub(shl(0xa0, 0x01), 0x01)\n      swap1\n      swap3\n      and\n      dup3\n      mstore\n      mload\n      swap1\n      dup2\n      swap1\n      sub\n      0x20\n      add\n      swap1\n      return\n        /* \"v2-core-master/contracts/UniswapV2ERC20.sol\":327:350  uint public totalSupply */\n    tag_8:\n      tag_59\n      tag_60\n      jump\t// in\n    tag_59:\n      0x40\n      dup1\n      mload\n      swap2\n      dup3\n      mstore\n      mload\n      swap1\n      dup2\n      swap1\n      sub\n      0x20\n      add\n      swap1\n      return\n        /* \"v2-core-master/contracts/UniswapV2ERC20.sol\":3152:3447  function transferFrom(address from, address to, uint value) external returns (bool) {... */\n    tag_9:\n      tag_54\n      0x04\n      dup1\n      calldatasize\n      sub\n        /* \"--CODEGEN--\":13:15   */\n      0x60\n        /* \"--CODEGEN--\":8:11   */\n      dup2\n        /* \"--CODEGEN--\":5:16   */\n      lt\n        /* \"--CODEGEN--\":2:4   */\n      iszero\n      tag_62\n      jumpi\n        /* \"--CODEGEN--\":29:30   */\n      0x00\n        /* \"--CODEGEN--\":26:27   */\n      dup1\n        /* \"--CODEGEN--\":19:31   */\n      revert\n        /* \"--CODEGEN--\":2:4   */\n    tag_62:\n      pop\n      sub(shl(0xa0, 0x01), 0x01)\n        /* \"v2-core-master/contracts/UniswapV2ERC20.sol\":3152:3447  function transferFrom(address from, address to, uint value) external returns (bool) {... */\n      dup2\n      calldataload\n      dup2\n      and\n      swap2\n      0x20\n      dup2\n      add\n      calldataload\n      swap1\n      swap2\n      and\n      swap1\n      0x40\n      add\n      calldataload\n      tag_63\n      jump\t// in\n        /* \"v2-core-master/contracts/UniswapV2ERC20.sol\":679:787  bytes32 public constant PERMIT_TYPEHASH = 0x6e71edae12b1b97f4d1f60370fef10105fa2faae0126114a169c64845d6126c9 */\n    tag_10:\n      tag_59\n      tag_65\n      jump\t// in\n        /* \"v2-core-master/contracts/UniswapV2ERC20.sol\":286:321  uint8 public constant decimals = 18 */\n    tag_11:\n      tag_66\n      tag_67\n      jump\t// in\n    tag_66:\n      0x40\n      dup1\n      mload\n      0xff\n      swap1\n      swap3\n      and\n      dup3\n      mstore\n      mload\n      swap1\n      dup2\n      swap1\n      sub\n      0x20\n      add\n      swap1\n      return\n        /* \"v2-core-master/contracts/UniswapV2ERC20.sol\":538:569  bytes32 public DOMAIN_SEPARATOR */\n    tag_12:\n      tag_59\n      tag_69\n      jump\t// in\n        /* \"v2-core-master/contracts/UniswapV2ERC20.sol\":482:531  mapping(address => uint256) public _frozenBalance */\n    tag_13:\n      tag_59\n      0x04\n      dup1\n      calldatasize\n      sub\n        /* \"--CODEGEN--\":13:15   */\n      0x20\n        /* \"--CODEGEN--\":8:11   */\n      dup2\n        /* \"--CODEGEN--\":5:16   */\n      lt\n        /* \"--CODEGEN--\":2:4   */\n      iszero\n      tag_71\n      jumpi\n        /* \"--CODEGEN--\":29:30   */\n      0x00\n        /* \"--CODEGEN--\":26:27   */\n      dup1\n        /* \"--CODEGEN--\":19:31   */\n      revert\n        /* \"--CODEGEN--\":2:4   */\n    tag_71:\n      pop\n        /* \"v2-core-master/contracts/UniswapV2ERC20.sol\":482:531  mapping(address => uint256) public _frozenBalance */\n      calldataload\n      sub(shl(0xa0, 0x01), 0x01)\n      and\n      tag_72\n      jump\t// in\n        /* \"v2-core-master/contracts/UniswapV2Pair.sol\":2296:2502  function initialize(address _token0, address _token1) external {... */\n    tag_14:\n      tag_40\n      0x04\n      dup1\n      calldatasize\n      sub\n        /* \"--CODEGEN--\":13:15   */\n      0x40\n        /* \"--CODEGEN--\":8:11   */\n      dup2\n        /* \"--CODEGEN--\":5:16   */\n      lt\n        /* \"--CODEGEN--\":2:4   */\n      iszero\n      tag_74\n      jumpi\n        /* \"--CODEGEN--\":29:30   */\n      0x00\n        /* \"--CODEGEN--\":26:27   */\n      dup1\n        /* \"--CODEGEN--\":19:31   */\n      revert\n        /* \"--CODEGEN--\":2:4   */\n    tag_74:\n      pop\n      sub(shl(0xa0, 0x01), 0x01)\n        /* \"v2-core-master/contracts/UniswapV2Pair.sol\":2296:2502  function initialize(address _token0, address _token1) external {... */\n      dup2\n      calldataload\n      dup2\n      and\n      swap2\n      0x20\n      add\n      calldataload\n      and\n      tag_75\n      jump\t// in\n        /* \"v2-core-master/contracts/UniswapV2Pair.sol\":916:948  uint public price0CumulativeLast */\n    tag_15:\n      tag_59\n      tag_77\n      jump\t// in\n        /* \"v2-core-master/contracts/UniswapV2Pair.sol\":954:986  uint public price1CumulativeLast */\n    tag_16:\n      tag_59\n      tag_79\n      jump\t// in\n        /* \"v2-core-master/contracts/UniswapV2Pair.sol\":4448:5669  function mint(address to) external lock returns (uint liquidity) {... */\n    tag_17:\n      tag_59\n      0x04\n      dup1\n      calldatasize\n      sub\n        /* \"--CODEGEN--\":13:15   */\n      0x20\n        /* \"--CODEGEN--\":8:11   */\n      dup2\n        /* \"--CODEGEN--\":5:16   */\n      lt\n        /* \"--CODEGEN--\":2:4   */\n      iszero\n      tag_81\n      jumpi\n        /* \"--CODEGEN--\":29:30   */\n      0x00\n        /* \"--CODEGEN--\":26:27   */\n      dup1\n        /* \"--CODEGEN--\":19:31   */\n      revert\n        /* \"--CODEGEN--\":2:4   */\n    tag_81:\n      pop\n        /* \"v2-core-master/contracts/UniswapV2Pair.sol\":4448:5669  function mint(address to) external lock returns (uint liquidity) {... */\n      calldataload\n      sub(shl(0xa0, 0x01), 0x01)\n      and\n      tag_82\n      jump\t// in\n        /* \"v2-core-master/contracts/UniswapV2ERC20.sol\":356:397  mapping(address => uint) public _balances */\n    tag_18:\n      tag_59\n      0x04\n      dup1\n      calldatasize\n      sub\n        /* \"--CODEGEN--\":13:15   */\n      0x20\n        /* \"--CODEGEN--\":8:11   */\n      dup2\n        /* \"--CODEGEN--\":5:16   */\n      lt\n        /* \"--CODEGEN--\":2:4   */\n      iszero\n      tag_84\n      jumpi\n        /* \"--CODEGEN--\":29:30   */\n      0x00\n        /* \"--CODEGEN--\":26:27   */\n      dup1\n        /* \"--CODEGEN--\":19:31   */\n      revert\n        /* \"--CODEGEN--\":2:4   */\n    tag_84:\n      pop\n        /* \"v2-core-master/contracts/UniswapV2ERC20.sol\":356:397  mapping(address => uint) public _balances */\n      calldataload\n      sub(shl(0xa0, 0x01), 0x01)\n      and\n      tag_85\n      jump\t// in\n        /* \"v2-core-master/contracts/UniswapV2ERC20.sol\":1447:1580  function balanceOf(address account) external view   returns (uint256) {... */\n    tag_19:\n      tag_59\n      0x04\n      dup1\n      calldatasize\n      sub\n        /* \"--CODEGEN--\":13:15   */\n      0x20\n        /* \"--CODEGEN--\":8:11   */\n      dup2\n        /* \"--CODEGEN--\":5:16   */\n      lt\n        /* \"--CODEGEN--\":2:4   */\n      iszero\n      tag_87\n      jumpi\n        /* \"--CODEGEN--\":29:30   */\n      0x00\n        /* \"--CODEGEN--\":26:27   */\n      dup1\n        /* \"--CODEGEN--\":19:31   */\n      revert\n        /* \"--CODEGEN--\":2:4   */\n    tag_87:\n      pop\n        /* \"v2-core-master/contracts/UniswapV2ERC20.sol\":1447:1580  function balanceOf(address account) external view   returns (uint256) {... */\n      calldataload\n      sub(shl(0xa0, 0x01), 0x01)\n      and\n      tag_88\n      jump\t// in\n        /* \"v2-core-master/contracts/UniswapV2Pair.sol\":992:1009  uint public kLast */\n    tag_20:\n      tag_59\n      tag_90\n      jump\t// in\n        /* \"v2-core-master/contracts/UniswapV2ERC20.sol\":793:831  mapping(address => uint) public nonces */\n    tag_21:\n      tag_59\n      0x04\n      dup1\n      calldatasize\n      sub\n        /* \"--CODEGEN--\":13:15   */\n      0x20\n        /* \"--CODEGEN--\":8:11   */\n      dup2\n        /* \"--CODEGEN--\":5:16   */\n      lt\n        /* \"--CODEGEN--\":2:4   */\n      iszero\n      tag_92\n      jumpi\n        /* \"--CODEGEN--\":29:30   */\n      0x00\n        /* \"--CODEGEN--\":26:27   */\n      dup1\n        /* \"--CODEGEN--\":19:31   */\n      revert\n        /* \"--CODEGEN--\":2:4   */\n    tag_92:\n      pop\n        /* \"v2-core-master/contracts/UniswapV2ERC20.sol\":793:831  mapping(address => uint) public nonces */\n      calldataload\n      sub(shl(0xa0, 0x01), 0x01)\n      and\n      tag_93\n      jump\t// in\n        /* \"v2-core-master/contracts/UniswapV2Pair.sol\":7122:8533  function burn(address to) external lock returns (uint amount0, uint amount1) {... */\n    tag_22:\n      tag_94\n      0x04\n      dup1\n      calldatasize\n      sub\n        /* \"--CODEGEN--\":13:15   */\n      0x20\n        /* \"--CODEGEN--\":8:11   */\n      dup2\n        /* \"--CODEGEN--\":5:16   */\n      lt\n        /* \"--CODEGEN--\":2:4   */\n      iszero\n      tag_95\n      jumpi\n        /* \"--CODEGEN--\":29:30   */\n      0x00\n        /* \"--CODEGEN--\":26:27   */\n      dup1\n        /* \"--CODEGEN--\":19:31   */\n      revert\n        /* \"--CODEGEN--\":2:4   */\n    tag_95:\n      pop\n        /* \"v2-core-master/contracts/UniswapV2Pair.sol\":7122:8533  function burn(address to) external lock returns (uint amount0, uint amount1) {... */\n      calldataload\n      sub(shl(0xa0, 0x01), 0x01)\n      and\n      tag_96\n      jump\t// in\n    tag_94:\n      0x40\n      dup1\n      mload\n      swap3\n      dup4\n      mstore\n      0x20\n      dup4\n      add\n      swap2\n      swap1\n      swap2\n      mstore\n      dup1\n      mload\n      swap2\n      dup3\n      swap1\n      sub\n      add\n      swap1\n      return\n        /* \"v2-core-master/contracts/UniswapV2ERC20.sol\":241:280  string public constant symbol = 'ESWAP' */\n    tag_23:\n      tag_46\n      tag_98\n      jump\t// in\n        /* \"v2-core-master/contracts/UniswapV2ERC20.sol\":3010:3146  function transfer(address to, uint value) external returns (bool) {... */\n    tag_24:\n      tag_54\n      0x04\n      dup1\n      calldatasize\n      sub\n        /* \"--CODEGEN--\":13:15   */\n      0x40\n        /* \"--CODEGEN--\":8:11   */\n      dup2\n        /* \"--CODEGEN--\":5:16   */\n      lt\n        /* \"--CODEGEN--\":2:4   */\n      iszero\n      tag_104\n      jumpi\n        /* \"--CODEGEN--\":29:30   */\n      0x00\n        /* \"--CODEGEN--\":26:27   */\n      dup1\n        /* \"--CODEGEN--\":19:31   */\n      revert\n        /* \"--CODEGEN--\":2:4   */\n    tag_104:\n      pop\n      sub(shl(0xa0, 0x01), 0x01)\n        /* \"v2-core-master/contracts/UniswapV2ERC20.sol\":3010:3146  function transfer(address to, uint value) external returns (bool) {... */\n      dup2\n      calldataload\n      and\n      swap1\n      0x20\n      add\n      calldataload\n      tag_105\n      jump\t// in\n        /* \"v2-core-master/contracts/UniswapV2Pair.sol\":416:464  uint public constant MINIMUM_LIQUIDITY = 10 ** 3 */\n    tag_25:\n      tag_59\n      tag_107\n      jump\t// in\n        /* \"v2-core-master/contracts/UniswapV2Pair.sol\":10666:10995  function skim(address to) external lock {... */\n    tag_26:\n      tag_40\n      0x04\n      dup1\n      calldatasize\n      sub\n        /* \"--CODEGEN--\":13:15   */\n      0x20\n        /* \"--CODEGEN--\":8:11   */\n      dup2\n        /* \"--CODEGEN--\":5:16   */\n      lt\n        /* \"--CODEGEN--\":2:4   */\n      iszero\n      tag_109\n      jumpi\n        /* \"--CODEGEN--\":29:30   */\n      0x00\n        /* \"--CODEGEN--\":26:27   */\n      dup1\n        /* \"--CODEGEN--\":19:31   */\n      revert\n        /* \"--CODEGEN--\":2:4   */\n    tag_109:\n      pop\n        /* \"v2-core-master/contracts/UniswapV2Pair.sol\":10666:10995  function skim(address to) external lock {... */\n      calldataload\n      sub(shl(0xa0, 0x01), 0x01)\n      and\n      tag_110\n      jump\t// in\n        /* \"v2-core-master/contracts/UniswapV2Pair.sol\":565:587  address public factory */\n    tag_27:\n      tag_57\n      tag_112\n      jump\t// in\n        /* \"v2-core-master/contracts/UniswapV2Pair.sol\":620:641  address public token1 */\n    tag_28:\n      tag_57\n      tag_114\n      jump\t// in\n        /* \"v2-core-master/contracts/UniswapV2ERC20.sol\":3453:4115  function permit(address owner, address spender, uint value, uint deadline, uint8 v, bytes32 r, bytes32 s) external {... */\n    tag_29:\n      tag_40\n      0x04\n      dup1\n      calldatasize\n      sub\n        /* \"--CODEGEN--\":13:16   */\n      0xe0\n        /* \"--CODEGEN--\":8:11   */\n      dup2\n        /* \"--CODEGEN--\":5:17   */\n      lt\n        /* \"--CODEGEN--\":2:4   */\n      iszero\n      tag_116\n      jumpi\n        /* \"--CODEGEN--\":30:31   */\n      0x00\n        /* \"--CODEGEN--\":27:28   */\n      dup1\n        /* \"--CODEGEN--\":20:32   */\n      revert\n        /* \"--CODEGEN--\":2:4   */\n    tag_116:\n      pop\n      sub(shl(0xa0, 0x01), 0x01)\n        /* \"v2-core-master/contracts/UniswapV2ERC20.sol\":3453:4115  function permit(address owner, address spender, uint value, uint deadline, uint8 v, bytes32 r, bytes32 s) external {... */\n      dup2\n      calldataload\n      dup2\n      and\n      swap2\n      0x20\n      dup2\n      add\n      calldataload\n      swap1\n      swap2\n      and\n      swap1\n      0x40\n      dup2\n      add\n      calldataload\n      swap1\n      0x60\n      dup2\n      add\n      calldataload\n      swap1\n      0xff\n      0x80\n      dup3\n      add\n      calldataload\n      and\n      swap1\n      0xa0\n      dup2\n      add\n      calldataload\n      swap1\n      0xc0\n      add\n      calldataload\n      tag_117\n      jump\t// in\n        /* \"v2-core-master/contracts/UniswapV2Pair.sol\":5778:7013  function Lockmint(address to) external lock returns (uint liquidity) {... */\n    tag_30:\n      tag_59\n      0x04\n      dup1\n      calldatasize\n      sub\n        /* \"--CODEGEN--\":13:15   */\n      0x20\n        /* \"--CODEGEN--\":8:11   */\n      dup2\n        /* \"--CODEGEN--\":5:16   */\n      lt\n        /* \"--CODEGEN--\":2:4   */\n      iszero\n      tag_119\n      jumpi\n        /* \"--CODEGEN--\":29:30   */\n      0x00\n        /* \"--CODEGEN--\":26:27   */\n      dup1\n        /* \"--CODEGEN--\":19:31   */\n      revert\n        /* \"--CODEGEN--\":2:4   */\n    tag_119:\n      pop\n        /* \"v2-core-master/contracts/UniswapV2Pair.sol\":5778:7013  function Lockmint(address to) external lock returns (uint liquidity) {... */\n      calldataload\n      sub(shl(0xa0, 0x01), 0x01)\n      and\n      tag_120\n      jump\t// in\n        /* \"v2-core-master/contracts/UniswapV2ERC20.sol\":415:476  mapping(address => mapping(address => uint)) public allowance */\n    tag_31:\n      tag_59\n      0x04\n      dup1\n      calldatasize\n      sub\n        /* \"--CODEGEN--\":13:15   */\n      0x40\n        /* \"--CODEGEN--\":8:11   */\n      dup2\n        /* \"--CODEGEN--\":5:16   */\n      lt\n        /* \"--CODEGEN--\":2:4   */\n      iszero\n      tag_122\n      jumpi\n        /* \"--CODEGEN--\":29:30   */\n      0x00\n        /* \"--CODEGEN--\":26:27   */\n      dup1\n        /* \"--CODEGEN--\":19:31   */\n      revert\n        /* \"--CODEGEN--\":2:4   */\n    tag_122:\n      pop\n      sub(shl(0xa0, 0x01), 0x01)\n        /* \"v2-core-master/contracts/UniswapV2ERC20.sol\":415:476  mapping(address => mapping(address => uint)) public allowance */\n      dup2\n      calldataload\n      dup2\n      and\n      swap2\n      0x20\n      add\n      calldataload\n      and\n      tag_123\n      jump\t// in\n        /* \"v2-core-master/contracts/UniswapV2Pair.sol\":11041:11197  function sync() external lock {... */\n    tag_32:\n      tag_40\n      tag_125\n      jump\t// in\n        /* \"v2-core-master/contracts/UniswapV2Pair.sol\":8642:10620  function swap(uint amount0Out, uint amount1Out, address to, bytes calldata data) external lock {... */\n    tag_45:\n        /* \"v2-core-master/contracts/UniswapV2Pair.sol\":1161:1169  unlocked */\n      sload(0x0d)\n        /* \"v2-core-master/contracts/UniswapV2Pair.sol\":1173:1174  1 */\n      0x01\n        /* \"v2-core-master/contracts/UniswapV2Pair.sol\":1161:1174  unlocked == 1 */\n      eq\n        /* \"v2-core-master/contracts/UniswapV2Pair.sol\":1153:1196  require(unlocked == 1, 'UniswapV2: LOCKED') */\n      tag_127\n      jumpi\n      0x40\n      dup1\n      mload\n      shl(0xe5, 0x461bcd)\n      dup2\n      mstore\n      0x20\n      0x04\n      dup3\n      add\n      mstore\n      0x11\n      0x24\n      dup3\n      add\n      mstore\n      shl(0x7a, 0x155b9a5cddd85c158c8e881313d0d2d151)\n      0x44\n      dup3\n      add\n      mstore\n      swap1\n      mload\n      swap1\n      dup2\n      swap1\n      sub\n      0x64\n      add\n      swap1\n      revert\n    tag_127:\n        /* \"v2-core-master/contracts/UniswapV2Pair.sol\":1217:1218  0 */\n      0x00\n        /* \"v2-core-master/contracts/UniswapV2Pair.sol\":1206:1214  unlocked */\n      0x0d\n        /* \"v2-core-master/contracts/UniswapV2Pair.sol\":1206:1218  unlocked = 0 */\n      sstore\n        /* \"v2-core-master/contracts/UniswapV2Pair.sol\":8755:8769  amount0Out > 0 */\n      dup5\n      iszero\n      iszero\n      dup1\n        /* \"v2-core-master/contracts/UniswapV2Pair.sol\":8755:8787  amount0Out > 0 || amount1Out > 0 */\n      tag_129\n      jumpi\n      pop\n        /* \"v2-core-master/contracts/UniswapV2Pair.sol\":8786:8787  0 */\n      0x00\n        /* \"v2-core-master/contracts/UniswapV2Pair.sol\":8773:8783  amount1Out */\n      dup5\n        /* \"v2-core-master/contracts/UniswapV2Pair.sol\":8773:8787  amount1Out > 0 */\n      gt\n        /* \"v2-core-master/contracts/UniswapV2Pair.sol\":8755:8787  amount0Out > 0 || amount1Out > 0 */\n    tag_129:\n        /* \"v2-core-master/contracts/UniswapV2Pair.sol\":8747:8829  require(amount0Out > 0 || amount1Out > 0, 'UniswapV2: INSUFFICIENT_OUTPUT_AMOUNT') */\n      tag_130\n      jumpi\n      mload(0x40)\n      shl(0xe5, 0x461bcd)\n      dup2\n      mstore\n      0x04\n      add\n      dup1\n      dup1\n      0x20\n      add\n      dup3\n      dup2\n      sub\n      dup3\n      mstore\n      0x25\n      dup2\n      mstore\n      0x20\n      add\n      dup1\n      data_05339493da7e2cbe77e17beadf6b91132eb307939495f5f1797bf88d95539e83\n      0x25\n      swap2\n      codecopy\n      0x40\n      add\n      swap2\n      pop\n      pop\n      mload(0x40)\n      dup1\n      swap2\n      sub\n      swap1\n      revert\n    tag_130:\n        /* \"v2-core-master/contracts/UniswapV2Pair.sol\":8840:8857  uint112 _reserve0 */\n      0x00\n        /* \"v2-core-master/contracts/UniswapV2Pair.sol\":8859:8876  uint112 _reserve1 */\n      dup1\n        /* \"v2-core-master/contracts/UniswapV2Pair.sol\":8882:8895  getReserves() */\n      tag_131\n        /* \"v2-core-master/contracts/UniswapV2Pair.sol\":8882:8893  getReserves */\n      tag_53\n        /* \"v2-core-master/contracts/UniswapV2Pair.sol\":8882:8895  getReserves() */\n      jump\t// in\n    tag_131:\n        /* \"v2-core-master/contracts/UniswapV2Pair.sol\":8839:8895  (uint112 _reserve0, uint112 _reserve1, ) = getReserves() */\n      pop\n      swap2\n      pop\n      swap2\n      pop\n        /* \"v2-core-master/contracts/UniswapV2Pair.sol\":8941:8950  _reserve0 */\n      dup2\n      sub(shl(0x70, 0x01), 0x01)\n        /* \"v2-core-master/contracts/UniswapV2Pair.sol\":8928:8950  amount0Out < _reserve0 */\n      and\n        /* \"v2-core-master/contracts/UniswapV2Pair.sol\":8928:8938  amount0Out */\n      dup8\n        /* \"v2-core-master/contracts/UniswapV2Pair.sol\":8928:8950  amount0Out < _reserve0 */\n      lt\n        /* \"v2-core-master/contracts/UniswapV2Pair.sol\":8928:8976  amount0Out < _reserve0 && amount1Out < _reserve1 */\n      dup1\n      iszero\n      tag_132\n      jumpi\n      pop\n        /* \"v2-core-master/contracts/UniswapV2Pair.sol\":8967:8976  _reserve1 */\n      dup1\n      sub(shl(0x70, 0x01), 0x01)\n        /* \"v2-core-master/contracts/UniswapV2Pair.sol\":8954:8976  amount1Out < _reserve1 */\n      and\n        /* \"v2-core-master/contracts/UniswapV2Pair.sol\":8954:8964  amount1Out */\n      dup7\n        /* \"v2-core-master/contracts/UniswapV2Pair.sol\":8954:8976  amount1Out < _reserve1 */\n      lt\n        /* \"v2-core-master/contracts/UniswapV2Pair.sol\":8928:8976  amount0Out < _reserve0 && amount1Out < _reserve1 */\n    tag_132:\n        /* \"v2-core-master/contracts/UniswapV2Pair.sol\":8920:9014  require(amount0Out < _reserve0 && amount1Out < _reserve1, 'UniswapV2: INSUFFICIENT_LIQUIDITY') */\n      tag_133\n      jumpi\n      mload(0x40)\n      shl(0xe5, 0x461bcd)\n      dup2\n      mstore\n      0x04\n      add\n      dup1\n      dup1\n      0x20\n      add\n      dup3\n      dup2\n      sub\n      dup3\n      mstore\n      0x21\n      dup2\n      mstore\n      0x20\n      add\n      dup1\n      data_3f354ef449b2a9b081220ce21f57691008110b653edc191d8288e60cef58bb5f\n      0x21\n      swap2\n      codecopy\n      0x40\n      add\n      swap2\n      pop\n      pop\n      mload(0x40)\n      dup1\n      swap2\n      sub\n      swap1\n      revert\n    tag_133:\n        /* \"v2-core-master/contracts/UniswapV2Pair.sol\":9170:9176  token0 */\n      sload(0x07)\n        /* \"v2-core-master/contracts/UniswapV2Pair.sol\":9208:9214  token1 */\n      sload(0x08)\n        /* \"v2-core-master/contracts/UniswapV2Pair.sol\":9025:9038  uint balance0 */\n      0x00\n      swap2\n      dup3\n      swap2\n      sub(shl(0xa0, 0x01), 0x01)\n        /* \"v2-core-master/contracts/UniswapV2Pair.sol\":9170:9176  token0 */\n      swap2\n      dup3\n      and\n      swap2\n        /* \"v2-core-master/contracts/UniswapV2Pair.sol\":9208:9214  token1 */\n      swap1\n      dup2\n      and\n      swap1\n        /* \"v2-core-master/contracts/UniswapV2Pair.sol\":9236:9249  to != _token0 */\n      dup10\n      and\n      dup3\n      eq\n      dup1\n      iszero\n      swap1\n        /* \"v2-core-master/contracts/UniswapV2Pair.sol\":9236:9266  to != _token0 && to != _token1 */\n      tag_134\n      jumpi\n      pop\n        /* \"v2-core-master/contracts/UniswapV2Pair.sol\":9259:9266  _token1 */\n      dup1\n      sub(shl(0xa0, 0x01), 0x01)\n        /* \"v2-core-master/contracts/UniswapV2Pair.sol\":9253:9266  to != _token1 */\n      and\n        /* \"v2-core-master/contracts/UniswapV2Pair.sol\":9253:9255  to */\n      dup10\n      sub(shl(0xa0, 0x01), 0x01)\n        /* \"v2-core-master/contracts/UniswapV2Pair.sol\":9253:9266  to != _token1 */\n      and\n      eq\n      iszero\n        /* \"v2-core-master/contracts/UniswapV2Pair.sol\":9236:9266  to != _token0 && to != _token1 */\n    tag_134:\n        /* \"v2-core-master/contracts/UniswapV2Pair.sol\":9228:9292  require(to != _token0 && to != _token1, 'UniswapV2: INVALID_TO') */\n      tag_135\n      jumpi\n      0x40\n      dup1\n      mload\n      shl(0xe5, 0x461bcd)\n      dup2\n      mstore\n      0x20\n      0x04\n      dup3\n      add\n      mstore\n      0x15\n      0x24\n      dup3\n      add\n      mstore\n      shl(0x58, 0x556e697377617056323a20494e56414c49445f544f)\n      0x44\n      dup3\n      add\n      mstore\n      swap1\n      mload\n      swap1\n      dup2\n      swap1\n      sub\n      0x64\n      add\n      swap1\n      revert\n    tag_135:\n        /* \"v2-core-master/contracts/UniswapV2Pair.sol\":9310:9324  amount0Out > 0 */\n      dup11\n      iszero\n        /* \"v2-core-master/contracts/UniswapV2Pair.sol\":9306:9364  if (amount0Out > 0) _safeTransfer(_token0, to, amount0Out) */\n      tag_137\n      jumpi\n        /* \"v2-core-master/contracts/UniswapV2Pair.sol\":9326:9364  _safeTransfer(_token0, to, amount0Out) */\n      tag_137\n        /* \"v2-core-master/contracts/UniswapV2Pair.sol\":9340:9347  _token0 */\n      dup3\n        /* \"v2-core-master/contracts/UniswapV2Pair.sol\":9349:9351  to */\n      dup11\n        /* \"v2-core-master/contracts/UniswapV2Pair.sol\":9353:9363  amount0Out */\n      dup14\n        /* \"v2-core-master/contracts/UniswapV2Pair.sol\":9326:9339  _safeTransfer */\n      tag_138\n        /* \"v2-core-master/contracts/UniswapV2Pair.sol\":9326:9364  _safeTransfer(_token0, to, amount0Out) */\n      jump\t// in\n    tag_137:\n        /* \"v2-core-master/contracts/UniswapV2Pair.sol\":9416:9430  amount1Out > 0 */\n      dup10\n      iszero\n        /* \"v2-core-master/contracts/UniswapV2Pair.sol\":9412:9470  if (amount1Out > 0) _safeTransfer(_token1, to, amount1Out) */\n      tag_140\n      jumpi\n        /* \"v2-core-master/contracts/UniswapV2Pair.sol\":9432:9470  _safeTransfer(_token1, to, amount1Out) */\n      tag_140\n        /* \"v2-core-master/contracts/UniswapV2Pair.sol\":9446:9453  _token1 */\n      dup2\n        /* \"v2-core-master/contracts/UniswapV2Pair.sol\":9455:9457  to */\n      dup11\n        /* \"v2-core-master/contracts/UniswapV2Pair.sol\":9459:9469  amount1Out */\n      dup13\n        /* \"v2-core-master/contracts/UniswapV2Pair.sol\":9432:9445  _safeTransfer */\n      tag_138\n        /* \"v2-core-master/contracts/UniswapV2Pair.sol\":9432:9470  _safeTransfer(_token1, to, amount1Out) */\n      jump\t// in\n    tag_140:\n        /* \"v2-core-master/contracts/UniswapV2Pair.sol\":9522:9537  data.length > 0 */\n      dup7\n      iszero\n        /* \"v2-core-master/contracts/UniswapV2Pair.sol\":9518:9615  if (data.length > 0) IUniswapV2Callee(to).uniswapV2Call(msg.sender, amount0Out, amount1Out, data) */\n      tag_141\n      jumpi\n        /* \"v2-core-master/contracts/UniswapV2Pair.sol\":9556:9558  to */\n      dup9\n      sub(shl(0xa0, 0x01), 0x01)\n        /* \"v2-core-master/contracts/UniswapV2Pair.sol\":9539:9573  IUniswapV2Callee(to).uniswapV2Call */\n      and\n      0x10d1e85c\n        /* \"v2-core-master/contracts/UniswapV2Pair.sol\":9574:9584  msg.sender */\n      caller\n        /* \"v2-core-master/contracts/UniswapV2Pair.sol\":9586:9596  amount0Out */\n      dup14\n        /* \"v2-core-master/contracts/UniswapV2Pair.sol\":9598:9608  amount1Out */\n      dup14\n        /* \"v2-core-master/contracts/UniswapV2Pair.sol\":9610:9614  data */\n      dup13\n      dup13\n        /* \"v2-core-master/contracts/UniswapV2Pair.sol\":9539:9615  IUniswapV2Callee(to).uniswapV2Call(msg.sender, amount0Out, amount1Out, data) */\n      mload(0x40)\n      dup7\n      0xffffffff\n      and\n      0xe0\n      shl\n      dup2\n      mstore\n      0x04\n      add\n      dup1\n      dup7\n      sub(shl(0xa0, 0x01), 0x01)\n      and\n      sub(shl(0xa0, 0x01), 0x01)\n      and\n      dup2\n      mstore\n      0x20\n      add\n      dup6\n      dup2\n      mstore\n      0x20\n      add\n      dup5\n      dup2\n      mstore\n      0x20\n      add\n      dup1\n      0x20\n      add\n      dup3\n      dup2\n      sub\n      dup3\n      mstore\n      dup5\n      dup5\n      dup3\n      dup2\n      dup2\n      mstore\n      0x20\n      add\n      swap3\n      pop\n        /* \"--CODEGEN--\":30:33   */\n      dup1\n        /* \"--CODEGEN--\":22:28   */\n      dup3\n        /* \"--CODEGEN--\":14:20   */\n      dup5\n        /* \"--CODEGEN--\":1:34   */\n      calldatacopy\n        /* \"--CODEGEN--\":99:100   */\n      0x00\n        /* \"--CODEGEN--\":93:96   */\n      dup2\n        /* \"--CODEGEN--\":85:91   */\n      dup5\n        /* \"--CODEGEN--\":81:97   */\n      add\n        /* \"--CODEGEN--\":74:101   */\n      mstore\n        /* \"--CODEGEN--\":137:141   */\n      0x1f\n        /* \"--CODEGEN--\":133:142   */\n      not\n        /* \"--CODEGEN--\":126:130   */\n      0x1f\n        /* \"--CODEGEN--\":121:124   */\n      dup3\n        /* \"--CODEGEN--\":117:131   */\n      add\n        /* \"--CODEGEN--\":113:143   */\n      and\n        /* \"--CODEGEN--\":106:143   */\n      swap1\n      pop\n        /* \"--CODEGEN--\":169:172   */\n      dup1\n        /* \"--CODEGEN--\":161:167   */\n      dup4\n        /* \"--CODEGEN--\":157:173   */\n      add\n        /* \"--CODEGEN--\":147:173   */\n      swap3\n      pop\n        /* \"v2-core-master/contracts/UniswapV2Pair.sol\":9539:9615  IUniswapV2Callee(to).uniswapV2Call(msg.sender, amount0Out, amount1Out, data) */\n      pop\n      pop\n      swap7\n      pop\n      pop\n      pop\n      pop\n      pop\n      pop\n      pop\n      0x00\n      mload(0x40)\n      dup1\n      dup4\n      sub\n      dup2\n      0x00\n      dup8\n      dup1\n      extcodesize\n      iszero\n        /* \"--CODEGEN--\":8:17   */\n      dup1\n        /* \"--CODEGEN--\":5:7   */\n      iszero\n      tag_142\n      jumpi\n        /* \"--CODEGEN--\":30:31   */\n      0x00\n        /* \"--CODEGEN--\":27:28   */\n      dup1\n        /* \"--CODEGEN--\":20:32   */\n      revert\n        /* \"--CODEGEN--\":5:7   */\n    tag_142:\n        /* \"v2-core-master/contracts/UniswapV2Pair.sol\":9539:9615  IUniswapV2Callee(to).uniswapV2Call(msg.sender, amount0Out, amount1Out, data) */\n      pop\n      gas\n      call\n      iszero\n        /* \"--CODEGEN--\":8:17   */\n      dup1\n        /* \"--CODEGEN--\":5:7   */\n      iszero\n      tag_143\n      jumpi\n        /* \"--CODEGEN--\":45:61   */\n      returndatasize\n        /* \"--CODEGEN--\":42:43   */\n      0x00\n        /* \"--CODEGEN--\":39:40   */\n      dup1\n        /* \"--CODEGEN--\":24:62   */\n      returndatacopy\n        /* \"--CODEGEN--\":77:93   */\n      returndatasize\n        /* \"--CODEGEN--\":74:75   */\n      0x00\n        /* \"--CODEGEN--\":67:94   */\n      revert\n        /* \"--CODEGEN--\":5:7   */\n    tag_143:\n        /* \"v2-core-master/contracts/UniswapV2Pair.sol\":9539:9615  IUniswapV2Callee(to).uniswapV2Call(msg.sender, amount0Out, amount1Out, data) */\n      pop\n      pop\n      pop\n      pop\n        /* \"v2-core-master/contracts/UniswapV2Pair.sol\":9518:9615  if (data.length > 0) IUniswapV2Callee(to).uniswapV2Call(msg.sender, amount0Out, amount1Out, data) */\n    tag_141:\n        /* \"v2-core-master/contracts/UniswapV2Pair.sol\":9640:9680  IERC20(_token0).balanceOf(address(this)) */\n      0x40\n      dup1\n      mload\n      shl(0xe0, 0x70a08231)\n      dup2\n      mstore\n        /* \"v2-core-master/contracts/UniswapV2Pair.sol\":9674:9678  this */\n      address\n        /* \"v2-core-master/contracts/UniswapV2Pair.sol\":9640:9680  IERC20(_token0).balanceOf(address(this)) */\n      0x04\n      dup3\n      add\n      mstore\n      swap1\n      mload\n      sub(shl(0xa0, 0x01), 0x01)\n        /* \"v2-core-master/contracts/UniswapV2Pair.sol\":9640:9665  IERC20(_token0).balanceOf */\n      dup5\n      and\n      swap2\n      0x70a08231\n      swap2\n        /* \"v2-core-master/contracts/UniswapV2Pair.sol\":9640:9680  IERC20(_token0).balanceOf(address(this)) */\n      0x24\n      dup1\n      dup4\n      add\n      swap3\n      0x20\n      swap3\n      swap2\n      swap1\n      dup3\n      swap1\n      sub\n      add\n      dup2\n        /* \"v2-core-master/contracts/UniswapV2Pair.sol\":9640:9665  IERC20(_token0).balanceOf */\n      dup7\n        /* \"v2-core-master/contracts/UniswapV2Pair.sol\":9640:9680  IERC20(_token0).balanceOf(address(this)) */\n      dup1\n      extcodesize\n      iszero\n        /* \"--CODEGEN--\":5:7   */\n      dup1\n      iszero\n      tag_144\n      jumpi\n        /* \"--CODEGEN--\":30:31   */\n      0x00\n        /* \"--CODEGEN--\":27:28   */\n      dup1\n        /* \"--CODEGEN--\":20:32   */\n      revert\n        /* \"--CODEGEN--\":5:7   */\n    tag_144:\n        /* \"v2-core-master/contracts/UniswapV2Pair.sol\":9640:9680  IERC20(_token0).balanceOf(address(this)) */\n      pop\n      gas\n      staticcall\n      iszero\n        /* \"--CODEGEN--\":8:17   */\n      dup1\n        /* \"--CODEGEN--\":5:7   */\n      iszero\n      tag_145\n      jumpi\n        /* \"--CODEGEN--\":45:61   */\n      returndatasize\n        /* \"--CODEGEN--\":42:43   */\n      0x00\n        /* \"--CODEGEN--\":39:40   */\n      dup1\n        /* \"--CODEGEN--\":24:62   */\n      returndatacopy\n        /* \"--CODEGEN--\":77:93   */\n      returndatasize\n        /* \"--CODEGEN--\":74:75   */\n      0x00\n        /* \"--CODEGEN--\":67:94   */\n      revert\n        /* \"--CODEGEN--\":5:7   */\n    tag_145:\n        /* \"v2-core-master/contracts/UniswapV2Pair.sol\":9640:9680  IERC20(_token0).balanceOf(address(this)) */\n      pop\n      pop\n      pop\n      pop\n      mload(0x40)\n      returndatasize\n        /* \"--CODEGEN--\":13:15   */\n      0x20\n        /* \"--CODEGEN--\":8:11   */\n      dup2\n        /* \"--CODEGEN--\":5:16   */\n      lt\n        /* \"--CODEGEN--\":2:4   */\n      iszero\n      tag_146\n      jumpi\n        /* \"--CODEGEN--\":29:30   */\n      0x00\n        /* \"--CODEGEN--\":26:27   */\n      dup1\n        /* \"--CODEGEN--\":19:31   */\n      revert\n        /* \"--CODEGEN--\":2:4   */\n    tag_146:\n      pop\n        /* \"v2-core-master/contracts/UniswapV2Pair.sol\":9640:9680  IERC20(_token0).balanceOf(address(this)) */\n      mload\n        /* \"v2-core-master/contracts/UniswapV2Pair.sol\":9705:9745  IERC20(_token1).balanceOf(address(this)) */\n      0x40\n      dup1\n      mload\n      shl(0xe0, 0x70a08231)\n      dup2\n      mstore\n        /* \"v2-core-master/contracts/UniswapV2Pair.sol\":9739:9743  this */\n      address\n        /* \"v2-core-master/contracts/UniswapV2Pair.sol\":9705:9745  IERC20(_token1).balanceOf(address(this)) */\n      0x04\n      dup3\n      add\n      mstore\n      swap1\n      mload\n        /* \"v2-core-master/contracts/UniswapV2Pair.sol\":9640:9680  IERC20(_token0).balanceOf(address(this)) */\n      swap2\n      swap6\n      pop\n      sub(shl(0xa0, 0x01), 0x01)\n        /* \"v2-core-master/contracts/UniswapV2Pair.sol\":9705:9730  IERC20(_token1).balanceOf */\n      dup4\n      and\n      swap2\n      0x70a08231\n      swap2\n        /* \"v2-core-master/contracts/UniswapV2Pair.sol\":9705:9745  IERC20(_token1).balanceOf(address(this)) */\n      0x24\n      dup1\n      dup3\n      add\n      swap3\n        /* \"v2-core-master/contracts/UniswapV2Pair.sol\":9640:9680  IERC20(_token0).balanceOf(address(this)) */\n      0x20\n      swap3\n        /* \"v2-core-master/contracts/UniswapV2Pair.sol\":9705:9745  IERC20(_token1).balanceOf(address(this)) */\n      swap1\n      swap2\n      swap1\n      dup3\n      swap1\n      sub\n      add\n      dup2\n        /* \"v2-core-master/contracts/UniswapV2Pair.sol\":9705:9730  IERC20(_token1).balanceOf */\n      dup7\n        /* \"v2-core-master/contracts/UniswapV2Pair.sol\":9705:9745  IERC20(_token1).balanceOf(address(this)) */\n      dup1\n      extcodesize\n      iszero\n        /* \"--CODEGEN--\":5:7   */\n      dup1\n      iszero\n      tag_147\n      jumpi\n        /* \"--CODEGEN--\":30:31   */\n      0x00\n        /* \"--CODEGEN--\":27:28   */\n      dup1\n        /* \"--CODEGEN--\":20:32   */\n      revert\n        /* \"--CODEGEN--\":5:7   */\n    tag_147:\n        /* \"v2-core-master/contracts/UniswapV2Pair.sol\":9705:9745  IERC20(_token1).balanceOf(address(this)) */\n      pop\n      gas\n      staticcall\n      iszero\n        /* \"--CODEGEN--\":8:17   */\n      dup1\n        /* \"--CODEGEN--\":5:7   */\n      iszero\n      tag_148\n      jumpi\n        /* \"--CODEGEN--\":45:61   */\n      returndatasize\n        /* \"--CODEGEN--\":42:43   */\n      0x00\n        /* \"--CODEGEN--\":39:40   */\n      dup1\n        /* \"--CODEGEN--\":24:62   */\n      returndatacopy\n        /* \"--CODEGEN--\":77:93   */\n      returndatasize\n        /* \"--CODEGEN--\":74:75   */\n      0x00\n        /* \"--CODEGEN--\":67:94   */\n      revert\n        /* \"--CODEGEN--\":5:7   */\n    tag_148:\n        /* \"v2-core-master/contracts/UniswapV2Pair.sol\":9705:9745  IERC20(_token1).balanceOf(address(this)) */\n      pop\n      pop\n      pop\n      pop\n      mload(0x40)\n      returndatasize\n        /* \"--CODEGEN--\":13:15   */\n      0x20\n        /* \"--CODEGEN--\":8:11   */\n      dup2\n        /* \"--CODEGEN--\":5:16   */\n      lt\n        /* \"--CODEGEN--\":2:4   */\n      iszero\n      tag_149\n      jumpi\n        /* \"--CODEGEN--\":29:30   */\n      0x00\n        /* \"--CODEGEN--\":26:27   */\n      dup1\n        /* \"--CODEGEN--\":19:31   */\n      revert\n        /* \"--CODEGEN--\":2:4   */\n    tag_149:\n      pop\n        /* \"v2-core-master/contracts/UniswapV2Pair.sol\":9705:9745  IERC20(_token1).balanceOf(address(this)) */\n      mload\n      swap3\n      pop\n        /* \"v2-core-master/contracts/UniswapV2Pair.sol\":9765:9779  uint amount0In */\n      0x00\n      swap2\n      pop\n      pop\n      sub(shl(0x70, 0x01), 0x01)\n        /* \"v2-core-master/contracts/UniswapV2Pair.sol\":9793:9815  _reserve0 - amount0Out */\n      dup6\n      and\n      dup11\n      swap1\n      sub\n        /* \"v2-core-master/contracts/UniswapV2Pair.sol\":9782:9815  balance0 > _reserve0 - amount0Out */\n      dup4\n      gt\n        /* \"v2-core-master/contracts/UniswapV2Pair.sol\":9782:9857  balance0 > _reserve0 - amount0Out ? balance0 - (_reserve0 - amount0Out) : 0 */\n      tag_150\n      jumpi\n        /* \"v2-core-master/contracts/UniswapV2Pair.sol\":9856:9857  0 */\n      0x00\n        /* \"v2-core-master/contracts/UniswapV2Pair.sol\":9782:9857  balance0 > _reserve0 - amount0Out ? balance0 - (_reserve0 - amount0Out) : 0 */\n      jump(tag_151)\n    tag_150:\n        /* \"v2-core-master/contracts/UniswapV2Pair.sol\":9842:9852  amount0Out */\n      dup10\n        /* \"v2-core-master/contracts/UniswapV2Pair.sol\":9830:9839  _reserve0 */\n      dup6\n      sub(shl(0x70, 0x01), 0x01)\n        /* \"v2-core-master/contracts/UniswapV2Pair.sol\":9830:9852  _reserve0 - amount0Out */\n      and\n      sub\n        /* \"v2-core-master/contracts/UniswapV2Pair.sol\":9818:9826  balance0 */\n      dup4\n        /* \"v2-core-master/contracts/UniswapV2Pair.sol\":9818:9853  balance0 - (_reserve0 - amount0Out) */\n      sub\n        /* \"v2-core-master/contracts/UniswapV2Pair.sol\":9782:9857  balance0 > _reserve0 - amount0Out ? balance0 - (_reserve0 - amount0Out) : 0 */\n    tag_151:\n        /* \"v2-core-master/contracts/UniswapV2Pair.sol\":9765:9857  uint amount0In = balance0 > _reserve0 - amount0Out ? balance0 - (_reserve0 - amount0Out) : 0 */\n      swap1\n      pop\n        /* \"v2-core-master/contracts/UniswapV2Pair.sol\":9867:9881  uint amount1In */\n      0x00\n        /* \"v2-core-master/contracts/UniswapV2Pair.sol\":9907:9917  amount1Out */\n      dup10\n        /* \"v2-core-master/contracts/UniswapV2Pair.sol\":9895:9904  _reserve1 */\n      dup6\n      sub(shl(0x70, 0x01), 0x01)\n        /* \"v2-core-master/contracts/UniswapV2Pair.sol\":9895:9917  _reserve1 - amount1Out */\n      and\n      sub\n        /* \"v2-core-master/contracts/UniswapV2Pair.sol\":9884:9892  balance1 */\n      dup4\n        /* \"v2-core-master/contracts/UniswapV2Pair.sol\":9884:9917  balance1 > _reserve1 - amount1Out */\n      gt\n        /* \"v2-core-master/contracts/UniswapV2Pair.sol\":9884:9959  balance1 > _reserve1 - amount1Out ? balance1 - (_reserve1 - amount1Out) : 0 */\n      tag_152\n      jumpi\n        /* \"v2-core-master/contracts/UniswapV2Pair.sol\":9958:9959  0 */\n      0x00\n        /* \"v2-core-master/contracts/UniswapV2Pair.sol\":9884:9959  balance1 > _reserve1 - amount1Out ? balance1 - (_reserve1 - amount1Out) : 0 */\n      jump(tag_153)\n    tag_152:\n        /* \"v2-core-master/contracts/UniswapV2Pair.sol\":9944:9954  amount1Out */\n      dup10\n        /* \"v2-core-master/contracts/UniswapV2Pair.sol\":9932:9941  _reserve1 */\n      dup6\n      sub(shl(0x70, 0x01), 0x01)\n        /* \"v2-core-master/contracts/UniswapV2Pair.sol\":9932:9954  _reserve1 - amount1Out */\n      and\n      sub\n        /* \"v2-core-master/contracts/UniswapV2Pair.sol\":9920:9928  balance1 */\n      dup4\n        /* \"v2-core-master/contracts/UniswapV2Pair.sol\":9920:9955  balance1 - (_reserve1 - amount1Out) */\n      sub\n        /* \"v2-core-master/contracts/UniswapV2Pair.sol\":9884:9959  balance1 > _reserve1 - amount1Out ? balance1 - (_reserve1 - amount1Out) : 0 */\n    tag_153:\n        /* \"v2-core-master/contracts/UniswapV2Pair.sol\":9867:9959  uint amount1In = balance1 > _reserve1 - amount1Out ? balance1 - (_reserve1 - amount1Out) : 0 */\n      swap1\n      pop\n        /* \"v2-core-master/contracts/UniswapV2Pair.sol\":9989:9990  0 */\n      0x00\n        /* \"v2-core-master/contracts/UniswapV2Pair.sol\":9977:9986  amount0In */\n      dup3\n        /* \"v2-core-master/contracts/UniswapV2Pair.sol\":9977:9990  amount0In > 0 */\n      gt\n        /* \"v2-core-master/contracts/UniswapV2Pair.sol\":9977:10007  amount0In > 0 || amount1In > 0 */\n      dup1\n      tag_154\n      jumpi\n      pop\n        /* \"v2-core-master/contracts/UniswapV2Pair.sol\":10006:10007  0 */\n      0x00\n        /* \"v2-core-master/contracts/UniswapV2Pair.sol\":9994:10003  amount1In */\n      dup2\n        /* \"v2-core-master/contracts/UniswapV2Pair.sol\":9994:10007  amount1In > 0 */\n      gt\n        /* \"v2-core-master/contracts/UniswapV2Pair.sol\":9977:10007  amount0In > 0 || amount1In > 0 */\n    tag_154:\n        /* \"v2-core-master/contracts/UniswapV2Pair.sol\":9969:10048  require(amount0In > 0 || amount1In > 0, 'UniswapV2: INSUFFICIENT_INPUT_AMOUNT') */\n      tag_155\n      jumpi\n      mload(0x40)\n      shl(0xe5, 0x461bcd)\n      dup2\n      mstore\n      0x04\n      add\n      dup1\n      dup1\n      0x20\n      add\n      dup3\n      dup2\n      sub\n      dup3\n      mstore\n      0x24\n      dup2\n      mstore\n      0x20\n      add\n      dup1\n      data_10e2efc32d8a31d3b2c11a545b3ed09c2dbabc58ef6de4033929d0002e425b67\n      0x24\n      swap2\n      codecopy\n      0x40\n      add\n      swap2\n      pop\n      pop\n      mload(0x40)\n      dup1\n      swap2\n      sub\n      swap1\n      revert\n    tag_155:\n        /* \"v2-core-master/contracts/UniswapV2Pair.sol\":10148:10169  uint balance0Adjusted */\n      0x00\n        /* \"v2-core-master/contracts/UniswapV2Pair.sol\":10172:10212  balance0.mul(1000).sub(amount0In.mul(3)) */\n      tag_156\n        /* \"v2-core-master/contracts/UniswapV2Pair.sol\":10195:10211  amount0In.mul(3) */\n      tag_157\n        /* \"v2-core-master/contracts/UniswapV2Pair.sol\":10195:10204  amount0In */\n      dup5\n        /* \"v2-core-master/contracts/UniswapV2Pair.sol\":10209:10210  3 */\n      0x03\n        /* \"v2-core-master/contracts/UniswapV2Pair.sol\":10195:10211  amount0In.mul(3) */\n      0xffffffff\n        /* \"v2-core-master/contracts/UniswapV2Pair.sol\":10195:10208  amount0In.mul */\n      tag_158\n        /* \"v2-core-master/contracts/UniswapV2Pair.sol\":10195:10211  amount0In.mul(3) */\n      and\n      jump\t// in\n    tag_157:\n        /* \"v2-core-master/contracts/UniswapV2Pair.sol\":10172:10190  balance0.mul(1000) */\n      tag_159\n        /* \"v2-core-master/contracts/UniswapV2Pair.sol\":10172:10180  balance0 */\n      dup8\n        /* \"v2-core-master/contracts/UniswapV2Pair.sol\":10185:10189  1000 */\n      0x03e8\n        /* \"v2-core-master/contracts/UniswapV2Pair.sol\":10172:10190  balance0.mul(1000) */\n      0xffffffff\n        /* \"v2-core-master/contracts/UniswapV2Pair.sol\":10172:10184  balance0.mul */\n      tag_158\n        /* \"v2-core-master/contracts/UniswapV2Pair.sol\":10172:10190  balance0.mul(1000) */\n      and\n      jump\t// in\n    tag_159:\n        /* \"v2-core-master/contracts/UniswapV2Pair.sol\":10172:10194  balance0.mul(1000).sub */\n      swap1\n        /* \"v2-core-master/contracts/UniswapV2Pair.sol\":10172:10212  balance0.mul(1000).sub(amount0In.mul(3)) */\n      0xffffffff\n        /* \"v2-core-master/contracts/UniswapV2Pair.sol\":10172:10194  balance0.mul(1000).sub */\n      tag_160\n        /* \"v2-core-master/contracts/UniswapV2Pair.sol\":10172:10212  balance0.mul(1000).sub(amount0In.mul(3)) */\n      and\n      jump\t// in\n    tag_156:\n        /* \"v2-core-master/contracts/UniswapV2Pair.sol\":10148:10212  uint balance0Adjusted = balance0.mul(1000).sub(amount0In.mul(3)) */\n      swap1\n      pop\n        /* \"v2-core-master/contracts/UniswapV2Pair.sol\":10226:10247  uint balance1Adjusted */\n      0x00\n        /* \"v2-core-master/contracts/UniswapV2Pair.sol\":10250:10290  balance1.mul(1000).sub(amount1In.mul(3)) */\n      tag_161\n        /* \"v2-core-master/contracts/UniswapV2Pair.sol\":10273:10289  amount1In.mul(3) */\n      tag_157\n        /* \"v2-core-master/contracts/UniswapV2Pair.sol\":10273:10282  amount1In */\n      dup5\n        /* \"v2-core-master/contracts/UniswapV2Pair.sol\":10287:10288  3 */\n      0x03\n        /* \"v2-core-master/contracts/UniswapV2Pair.sol\":10273:10289  amount1In.mul(3) */\n      0xffffffff\n        /* \"v2-core-master/contracts/UniswapV2Pair.sol\":10273:10286  amount1In.mul */\n      tag_158\n        /* \"v2-core-master/contracts/UniswapV2Pair.sol\":10273:10289  amount1In.mul(3) */\n      and\n      jump\t// in\n        /* \"v2-core-master/contracts/UniswapV2Pair.sol\":10250:10290  balance1.mul(1000).sub(amount1In.mul(3)) */\n    tag_161:\n        /* \"v2-core-master/contracts/UniswapV2Pair.sol\":10226:10290  uint balance1Adjusted = balance1.mul(1000).sub(amount1In.mul(3)) */\n      swap1\n      pop\n        /* \"v2-core-master/contracts/UniswapV2Pair.sol\":10371:10416  uint(_reserve0).mul(_reserve1).mul(1000 ** 2) */\n      tag_164\n        /* \"v2-core-master/contracts/UniswapV2Pair.sol\":10406:10415  1000 ** 2 */\n      0x0f4240\n        /* \"v2-core-master/contracts/UniswapV2Pair.sol\":10371:10401  uint(_reserve0).mul(_reserve1) */\n      tag_165\n      sub(shl(0x70, 0x01), 0x01)\n        /* \"v2-core-master/contracts/UniswapV2Pair.sol\":10371:10386  uint(_reserve0) */\n      dup12\n      dup2\n      and\n      swap1\n        /* \"v2-core-master/contracts/UniswapV2Pair.sol\":10371:10401  uint(_reserve0).mul(_reserve1) */\n      dup12\n      and\n      0xffffffff\n        /* \"v2-core-master/contracts/UniswapV2Pair.sol\":10371:10390  uint(_reserve0).mul */\n      tag_158\n        /* \"v2-core-master/contracts/UniswapV2Pair.sol\":10371:10401  uint(_reserve0).mul(_reserve1) */\n      and\n      jump\t// in\n    tag_165:\n        /* \"v2-core-master/contracts/UniswapV2Pair.sol\":10371:10405  uint(_reserve0).mul(_reserve1).mul */\n      swap1\n        /* \"v2-core-master/contracts/UniswapV2Pair.sol\":10371:10416  uint(_reserve0).mul(_reserve1).mul(1000 ** 2) */\n      0xffffffff\n        /* \"v2-core-master/contracts/UniswapV2Pair.sol\":10371:10405  uint(_reserve0).mul(_reserve1).mul */\n      tag_158\n        /* \"v2-core-master/contracts/UniswapV2Pair.sol\":10371:10416  uint(_reserve0).mul(_reserve1).mul(1000 ** 2) */\n      and\n      jump\t// in\n    tag_164:\n        /* \"v2-core-master/contracts/UniswapV2Pair.sol\":10329:10367  balance0Adjusted.mul(balance1Adjusted) */\n      tag_166\n        /* \"v2-core-master/contracts/UniswapV2Pair.sol\":10329:10345  balance0Adjusted */\n      dup4\n        /* \"v2-core-master/contracts/UniswapV2Pair.sol\":10350:10366  balance1Adjusted */\n      dup4\n        /* \"v2-core-master/contracts/UniswapV2Pair.sol\":10329:10367  balance0Adjusted.mul(balance1Adjusted) */\n      0xffffffff\n        /* \"v2-core-master/contracts/UniswapV2Pair.sol\":10329:10349  balance0Adjusted.mul */\n      tag_158\n        /* \"v2-core-master/contracts/UniswapV2Pair.sol\":10329:10367  balance0Adjusted.mul(balance1Adjusted) */\n      and\n      jump\t// in\n    tag_166:\n        /* \"v2-core-master/contracts/UniswapV2Pair.sol\":10329:10416  balance0Adjusted.mul(balance1Adjusted) >= uint(_reserve0).mul(_reserve1).mul(1000 ** 2) */\n      lt\n      iszero\n        /* \"v2-core-master/contracts/UniswapV2Pair.sol\":10304:10462  require(... */\n      tag_167\n      jumpi\n      0x40\n      dup1\n      mload\n      shl(0xe5, 0x461bcd)\n      dup2\n      mstore\n      0x20\n      0x04\n      dup3\n      add\n      mstore\n      0x0c\n      0x24\n      dup3\n      add\n      mstore\n      shl(0xa0, 0x556e697377617056323a204b)\n      0x44\n      dup3\n      add\n      mstore\n      swap1\n      mload\n      swap1\n      dup2\n      swap1\n      sub\n      0x64\n      add\n      swap1\n      revert\n    tag_167:\n        /* \"v2-core-master/contracts/UniswapV2Pair.sol\":1228:1229  _ */\n      pop\n      pop\n        /* \"v2-core-master/contracts/UniswapV2Pair.sol\":10483:10532  _update(balance0, balance1, _reserve0, _reserve1) */\n      tag_168\n        /* \"v2-core-master/contracts/UniswapV2Pair.sol\":10491:10499  balance0 */\n      dup5\n        /* \"v2-core-master/contracts/UniswapV2Pair.sol\":10501:10509  balance1 */\n      dup5\n        /* \"v2-core-master/contracts/UniswapV2Pair.sol\":10511:10520  _reserve0 */\n      dup9\n        /* \"v2-core-master/contracts/UniswapV2Pair.sol\":10522:10531  _reserve1 */\n      dup9\n        /* \"v2-core-master/contracts/UniswapV2Pair.sol\":10483:10490  _update */\n      tag_169\n        /* \"v2-core-master/contracts/UniswapV2Pair.sol\":10483:10532  _update(balance0, balance1, _reserve0, _reserve1) */\n      jump\t// in\n    tag_168:\n        /* \"v2-core-master/contracts/UniswapV2Pair.sol\":10547:10613  Swap(msg.sender, amount0In, amount1In, amount0Out, amount1Out, to) */\n      0x40\n      dup1\n      mload\n      dup4\n      dup2\n      mstore\n      0x20\n      dup2\n      add\n      dup4\n      swap1\n      mstore\n      dup1\n      dup3\n      add\n      dup14\n      swap1\n      mstore\n      0x60\n      dup2\n      add\n      dup13\n      swap1\n      mstore\n      swap1\n      mload\n      sub(shl(0xa0, 0x01), 0x01)\n      dup12\n      and\n      swap2\n        /* \"v2-core-master/contracts/UniswapV2Pair.sol\":10552:10562  msg.sender */\n      caller\n      swap2\n        /* \"v2-core-master/contracts/UniswapV2Pair.sol\":10547:10613  Swap(msg.sender, amount0In, amount1In, amount0Out, amount1Out, to) */\n      0xd78ad95fa46c994b6551d0da85fc275fe613ce37657fb8d5e3d130840159d822\n      swap2\n      dup2\n      swap1\n      sub\n      0x80\n      add\n      swap1\n      log3\n      pop\n      pop\n        /* \"v2-core-master/contracts/UniswapV2Pair.sol\":1250:1251  1 */\n      0x01\n        /* \"v2-core-master/contracts/UniswapV2Pair.sol\":1239:1247  unlocked */\n      0x0d\n        /* \"v2-core-master/contracts/UniswapV2Pair.sol\":1239:1251  unlocked = 1 */\n      sstore\n      pop\n      pop\n      pop\n      pop\n      pop\n      pop\n      pop\n      pop\n      pop\n        /* \"v2-core-master/contracts/UniswapV2Pair.sol\":8642:10620  function swap(uint amount0Out, uint amount1Out, address to, bytes calldata data) external lock {... */\n      jump\t// out\n        /* \"v2-core-master/contracts/UniswapV2ERC20.sol\":192:235  string public constant name = 'EposSwap LP' */\n    tag_47:\n      mload(0x40)\n      dup1\n      0x40\n      add\n      0x40\n      mstore\n      dup1\n      0x0b\n      dup2\n      mstore\n      0x20\n      add\n      shl(0xac, 0x045706f7353776170204c5)\n      dup2\n      mstore\n      pop\n      dup2\n      jump\t// out\n        /* \"v2-core-master/contracts/UniswapV2Pair.sol\":1264:1491  function getReserves() public view returns (uint112 _reserve0, uint112 _reserve1, uint32 _blockTimestampLast) {... */\n    tag_53:\n        /* \"v2-core-master/contracts/UniswapV2Pair.sol\":1396:1404  reserve0 */\n      sload(0x09)\n      sub(shl(0x70, 0x01), 0x01)\n      dup1\n      dup3\n      and\n      swap3\n      shl(0x70, 0x01)\n        /* \"v2-core-master/contracts/UniswapV2Pair.sol\":1426:1434  reserve1 */\n      dup4\n      div\n      swap1\n      swap2\n      and\n      swap2\n      shl(0xe0, 0x01)\n        /* \"v2-core-master/contracts/UniswapV2Pair.sol\":1466:1484  blockTimestampLast */\n      swap1\n      div\n      0xffffffff\n      and\n      swap1\n        /* \"v2-core-master/contracts/UniswapV2Pair.sol\":1264:1491  function getReserves() public view returns (uint112 _reserve0, uint112 _reserve1, uint32 _blockTimestampLast) {... */\n      jump\t// out\n        /* \"v2-core-master/contracts/UniswapV2ERC20.sol\":2860:3004  function approve(address spender, uint value) external returns (bool) {... */\n    tag_56:\n        /* \"v2-core-master/contracts/UniswapV2ERC20.sol\":2924:2928  bool */\n      0x00\n        /* \"v2-core-master/contracts/UniswapV2ERC20.sol\":2940:2976  _approve(msg.sender, spender, value) */\n      tag_172\n        /* \"v2-core-master/contracts/UniswapV2ERC20.sol\":2949:2959  msg.sender */\n      caller\n        /* \"v2-core-master/contracts/UniswapV2ERC20.sol\":2961:2968  spender */\n      dup5\n        /* \"v2-core-master/contracts/UniswapV2ERC20.sol\":2970:2975  value */\n      dup5\n        /* \"v2-core-master/contracts/UniswapV2ERC20.sol\":2940:2948  _approve */\n      tag_173\n        /* \"v2-core-master/contracts/UniswapV2ERC20.sol\":2940:2976  _approve(msg.sender, spender, value) */\n      jump\t// in\n    tag_172:\n      pop\n        /* \"v2-core-master/contracts/UniswapV2ERC20.sol\":2993:2997  true */\n      0x01\n        /* \"v2-core-master/contracts/UniswapV2ERC20.sol\":2860:3004  function approve(address spender, uint value) external returns (bool) {... */\n    tag_171:\n      swap3\n      swap2\n      pop\n      pop\n      jump\t// out\n        /* \"v2-core-master/contracts/UniswapV2Pair.sol\":593:614  address public token0 */\n    tag_58:\n      and(sub(shl(0xa0, 0x01), 0x01), sload(0x07))\n      dup2\n      jump\t// out\n        /* \"v2-core-master/contracts/UniswapV2ERC20.sol\":327:350  uint public totalSupply */\n    tag_60:\n      sload(0x00)\n      dup2\n      jump\t// out\n        /* \"v2-core-master/contracts/UniswapV2ERC20.sol\":3152:3447  function transferFrom(address from, address to, uint value) external returns (bool) {... */\n    tag_63:\n      sub(shl(0xa0, 0x01), 0x01)\n        /* \"v2-core-master/contracts/UniswapV2ERC20.sol\":3250:3265  allowance[from] */\n      dup4\n      and\n        /* \"v2-core-master/contracts/UniswapV2ERC20.sol\":3230:3234  bool */\n      0x00\n        /* \"v2-core-master/contracts/UniswapV2ERC20.sol\":3250:3265  allowance[from] */\n      swap1\n      dup2\n      mstore\n        /* \"v2-core-master/contracts/UniswapV2ERC20.sol\":3250:3259  allowance */\n      0x02\n        /* \"v2-core-master/contracts/UniswapV2ERC20.sol\":3250:3265  allowance[from] */\n      0x20\n      swap1\n      dup2\n      mstore\n      0x40\n      dup1\n      dup4\n      keccak256\n        /* \"v2-core-master/contracts/UniswapV2ERC20.sol\":3266:3276  msg.sender */\n      caller\n        /* \"v2-core-master/contracts/UniswapV2ERC20.sol\":3250:3277  allowance[from][msg.sender] */\n      dup5\n      mstore\n      swap1\n      swap2\n      mstore\n      dup2\n      keccak256\n      sload\n      not(0x00)\n        /* \"v2-core-master/contracts/UniswapV2ERC20.sol\":3250:3289  allowance[from][msg.sender] != uint(-1) */\n      eq\n        /* \"v2-core-master/contracts/UniswapV2ERC20.sol\":3246:3384  if (allowance[from][msg.sender] != uint(-1)) {... */\n      tag_175\n      jumpi\n      sub(shl(0xa0, 0x01), 0x01)\n        /* \"v2-core-master/contracts/UniswapV2ERC20.sol\":3335:3350  allowance[from] */\n      dup5\n      and\n      0x00\n      swap1\n      dup2\n      mstore\n        /* \"v2-core-master/contracts/UniswapV2ERC20.sol\":3335:3344  allowance */\n      0x02\n        /* \"v2-core-master/contracts/UniswapV2ERC20.sol\":3335:3350  allowance[from] */\n      0x20\n      swap1\n      dup2\n      mstore\n      0x40\n      dup1\n      dup4\n      keccak256\n        /* \"v2-core-master/contracts/UniswapV2ERC20.sol\":3351:3361  msg.sender */\n      caller\n        /* \"v2-core-master/contracts/UniswapV2ERC20.sol\":3335:3362  allowance[from][msg.sender] */\n      dup5\n      mstore\n      swap1\n      swap2\n      mstore\n      swap1\n      keccak256\n      sload\n        /* \"v2-core-master/contracts/UniswapV2ERC20.sol\":3335:3373  allowance[from][msg.sender].sub(value) */\n      tag_176\n      swap1\n        /* \"v2-core-master/contracts/UniswapV2ERC20.sol\":3367:3372  value */\n      dup4\n        /* \"v2-core-master/contracts/UniswapV2ERC20.sol\":3335:3373  allowance[from][msg.sender].sub(value) */\n      0xffffffff\n        /* \"v2-core-master/contracts/UniswapV2ERC20.sol\":3335:3366  allowance[from][msg.sender].sub */\n      tag_160\n        /* \"v2-core-master/contracts/UniswapV2ERC20.sol\":3335:3373  allowance[from][msg.sender].sub(value) */\n      and\n      jump\t// in\n    tag_176:\n      sub(shl(0xa0, 0x01), 0x01)\n        /* \"v2-core-master/contracts/UniswapV2ERC20.sol\":3305:3320  allowance[from] */\n      dup6\n      and\n      0x00\n      swap1\n      dup2\n      mstore\n        /* \"v2-core-master/contracts/UniswapV2ERC20.sol\":3305:3314  allowance */\n      0x02\n        /* \"v2-core-master/contracts/UniswapV2ERC20.sol\":3305:3320  allowance[from] */\n      0x20\n      swap1\n      dup2\n      mstore\n      0x40\n      dup1\n      dup4\n      keccak256\n        /* \"v2-core-master/contracts/UniswapV2ERC20.sol\":3321:3331  msg.sender */\n      caller\n        /* \"v2-core-master/contracts/UniswapV2ERC20.sol\":3305:3332  allowance[from][msg.sender] */\n      dup5\n      mstore\n      swap1\n      swap2\n      mstore\n      swap1\n      keccak256\n        /* \"v2-core-master/contracts/UniswapV2ERC20.sol\":3305:3373  allowance[from][msg.sender] = allowance[from][msg.sender].sub(value) */\n      sstore\n        /* \"v2-core-master/contracts/UniswapV2ERC20.sol\":3246:3384  if (allowance[from][msg.sender] != uint(-1)) {... */\n    tag_175:\n        /* \"v2-core-master/contracts/UniswapV2ERC20.sol\":3393:3419  _transfer(from, to, value) */\n      tag_177\n        /* \"v2-core-master/contracts/UniswapV2ERC20.sol\":3403:3407  from */\n      dup5\n        /* \"v2-core-master/contracts/UniswapV2ERC20.sol\":3409:3411  to */\n      dup5\n        /* \"v2-core-master/contracts/UniswapV2ERC20.sol\":3413:3418  value */\n      dup5\n        /* \"v2-core-master/contracts/UniswapV2ERC20.sol\":3393:3402  _transfer */\n      tag_178\n        /* \"v2-core-master/contracts/UniswapV2ERC20.sol\":3393:3419  _transfer(from, to, value) */\n      jump\t// in\n    tag_177:\n      pop\n        /* \"v2-core-master/contracts/UniswapV2ERC20.sol\":3436:3440  true */\n      0x01\n        /* \"v2-core-master/contracts/UniswapV2ERC20.sol\":3152:3447  function transferFrom(address from, address to, uint value) external returns (bool) {... */\n      swap4\n      swap3\n      pop\n      pop\n      pop\n      jump\t// out\n        /* \"v2-core-master/contracts/UniswapV2ERC20.sol\":679:787  bytes32 public constant PERMIT_TYPEHASH = 0x6e71edae12b1b97f4d1f60370fef10105fa2faae0126114a169c64845d6126c9 */\n    tag_65:\n        /* \"v2-core-master/contracts/UniswapV2ERC20.sol\":721:787  0x6e71edae12b1b97f4d1f60370fef10105fa2faae0126114a169c64845d6126c9 */\n      0x6e71edae12b1b97f4d1f60370fef10105fa2faae0126114a169c64845d6126c9\n        /* \"v2-core-master/contracts/UniswapV2ERC20.sol\":679:787  bytes32 public constant PERMIT_TYPEHASH = 0x6e71edae12b1b97f4d1f60370fef10105fa2faae0126114a169c64845d6126c9 */\n      dup2\n      jump\t// out\n        /* \"v2-core-master/contracts/UniswapV2ERC20.sol\":286:321  uint8 public constant decimals = 18 */\n    tag_67:\n        /* \"v2-core-master/contracts/UniswapV2ERC20.sol\":319:321  18 */\n      0x12\n        /* \"v2-core-master/contracts/UniswapV2ERC20.sol\":286:321  uint8 public constant decimals = 18 */\n      dup2\n      jump\t// out\n        /* \"v2-core-master/contracts/UniswapV2ERC20.sol\":538:569  bytes32 public DOMAIN_SEPARATOR */\n    tag_69:\n      sload(0x04)\n      dup2\n      jump\t// out\n        /* \"v2-core-master/contracts/UniswapV2ERC20.sol\":482:531  mapping(address => uint256) public _frozenBalance */\n    tag_72:\n      mstore(0x20, 0x03)\n      0x00\n      swap1\n      dup2\n      mstore\n      0x40\n      swap1\n      keccak256\n      sload\n      dup2\n      jump\t// out\n        /* \"v2-core-master/contracts/UniswapV2Pair.sol\":2296:2502  function initialize(address _token0, address _token1) external {... */\n    tag_75:\n        /* \"v2-core-master/contracts/UniswapV2Pair.sol\":2391:2398  factory */\n      and(sub(shl(0xa0, 0x01), 0x01), sload(0x06))\n        /* \"v2-core-master/contracts/UniswapV2Pair.sol\":2377:2387  msg.sender */\n      caller\n        /* \"v2-core-master/contracts/UniswapV2Pair.sol\":2377:2398  msg.sender == factory */\n      eq\n        /* \"v2-core-master/contracts/UniswapV2Pair.sol\":2369:2423  require(msg.sender == factory, 'UniswapV2: FORBIDDEN') */\n      tag_180\n      jumpi\n      0x40\n      dup1\n      mload\n      shl(0xe5, 0x461bcd)\n      dup2\n      mstore\n      0x20\n      0x04\n      dup3\n      add\n      mstore\n      0x14\n      0x24\n      dup3\n      add\n      mstore\n      shl(0x61, 0x2ab734b9bbb0b82b191d102327a92124a22222a7)\n      0x44\n      dup3\n      add\n      mstore\n      swap1\n      mload\n      swap1\n      dup2\n      swap1\n      sub\n      0x64\n      add\n      swap1\n      revert\n    tag_180:\n        /* \"v2-core-master/contracts/UniswapV2Pair.sol\":2453:2459  token0 */\n      0x07\n        /* \"v2-core-master/contracts/UniswapV2Pair.sol\":2453:2469  token0 = _token0 */\n      dup1\n      sload\n      sub(shl(0xa0, 0x01), 0x01)\n      swap4\n      dup5\n      and\n      not(sub(shl(0xa0, 0x01), 0x01))\n      swap2\n      dup3\n      and\n      or\n      swap1\n      swap2\n      sstore\n        /* \"v2-core-master/contracts/UniswapV2Pair.sol\":2479:2485  token1 */\n      0x08\n        /* \"v2-core-master/contracts/UniswapV2Pair.sol\":2479:2495  token1 = _token1 */\n      dup1\n      sload\n      swap3\n      swap1\n      swap4\n      and\n      swap2\n      and\n      or\n      swap1\n      sstore\n        /* \"v2-core-master/contracts/UniswapV2Pair.sol\":2296:2502  function initialize(address _token0, address _token1) external {... */\n      jump\t// out\n        /* \"v2-core-master/contracts/UniswapV2Pair.sol\":916:948  uint public price0CumulativeLast */\n    tag_77:\n      sload(0x0a)\n      dup2\n      jump\t// out\n        /* \"v2-core-master/contracts/UniswapV2Pair.sol\":954:986  uint public price1CumulativeLast */\n    tag_79:\n      sload(0x0b)\n      dup2\n      jump\t// out\n        /* \"v2-core-master/contracts/UniswapV2Pair.sol\":4448:5669  function mint(address to) external lock returns (uint liquidity) {... */\n    tag_82:\n        /* \"v2-core-master/contracts/UniswapV2Pair.sol\":4497:4511  uint liquidity */\n      0x00\n        /* \"v2-core-master/contracts/UniswapV2Pair.sol\":1161:1169  unlocked */\n      sload(0x0d)\n        /* \"v2-core-master/contracts/UniswapV2Pair.sol\":1173:1174  1 */\n      0x01\n        /* \"v2-core-master/contracts/UniswapV2Pair.sol\":1161:1174  unlocked == 1 */\n      eq\n        /* \"v2-core-master/contracts/UniswapV2Pair.sol\":1153:1196  require(unlocked == 1, 'UniswapV2: LOCKED') */\n      tag_182\n      jumpi\n      0x40\n      dup1\n      mload\n      shl(0xe5, 0x461bcd)\n      dup2\n      mstore\n      0x20\n      0x04\n      dup3\n      add\n      mstore\n      0x11\n      0x24\n      dup3\n      add\n      mstore\n      shl(0x7a, 0x155b9a5cddd85c158c8e881313d0d2d151)\n      0x44\n      dup3\n      add\n      mstore\n      swap1\n      mload\n      swap1\n      dup2\n      swap1\n      sub\n      0x64\n      add\n      swap1\n      revert\n    tag_182:\n        /* \"v2-core-master/contracts/UniswapV2Pair.sol\":1217:1218  0 */\n      0x00\n        /* \"v2-core-master/contracts/UniswapV2Pair.sol\":1206:1214  unlocked */\n      0x0d\n        /* \"v2-core-master/contracts/UniswapV2Pair.sol\":1206:1218  unlocked = 0 */\n      dup2\n      swap1\n      sstore\n        /* \"v2-core-master/contracts/UniswapV2Pair.sol\":1217:1218  0 */\n      dup1\n        /* \"v2-core-master/contracts/UniswapV2Pair.sol\":4566:4579  getReserves() */\n      tag_184\n        /* \"v2-core-master/contracts/UniswapV2Pair.sol\":4566:4577  getReserves */\n      tag_53\n        /* \"v2-core-master/contracts/UniswapV2Pair.sol\":4566:4579  getReserves() */\n      jump\t// in\n    tag_184:\n      pop\n        /* \"v2-core-master/contracts/UniswapV2Pair.sol\":4627:4633  token0 */\n      sload(0x07)\n        /* \"v2-core-master/contracts/UniswapV2Pair.sol\":4620:4659  IERC20(token0).balanceOf(address(this)) */\n      0x40\n      dup1\n      mload\n      shl(0xe0, 0x70a08231)\n      dup2\n      mstore\n        /* \"v2-core-master/contracts/UniswapV2Pair.sol\":4653:4657  this */\n      address\n        /* \"v2-core-master/contracts/UniswapV2Pair.sol\":4620:4659  IERC20(token0).balanceOf(address(this)) */\n      0x04\n      dup3\n      add\n      mstore\n      swap1\n      mload\n        /* \"v2-core-master/contracts/UniswapV2Pair.sol\":4523:4579  (uint112 _reserve0, uint112 _reserve1, ) = getReserves() */\n      swap4\n      swap6\n      pop\n      swap2\n      swap4\n      pop\n        /* \"v2-core-master/contracts/UniswapV2Pair.sol\":4604:4617  uint balance0 */\n      0x00\n      swap3\n      sub(shl(0xa0, 0x01), 0x01)\n        /* \"v2-core-master/contracts/UniswapV2Pair.sol\":4627:4633  token0 */\n      swap1\n      swap2\n      and\n      swap2\n        /* \"v2-core-master/contracts/UniswapV2Pair.sol\":4620:4644  IERC20(token0).balanceOf */\n      0x70a08231\n      swap2\n        /* \"v2-core-master/contracts/UniswapV2Pair.sol\":4620:4659  IERC20(token0).balanceOf(address(this)) */\n      0x24\n      dup1\n      dup4\n      add\n      swap3\n      0x20\n      swap3\n      swap2\n      swap1\n      dup3\n      swap1\n      sub\n      add\n      dup2\n        /* \"v2-core-master/contracts/UniswapV2Pair.sol\":4627:4633  token0 */\n      dup7\n        /* \"v2-core-master/contracts/UniswapV2Pair.sol\":4620:4659  IERC20(token0).balanceOf(address(this)) */\n      dup1\n      extcodesize\n      iszero\n        /* \"--CODEGEN--\":5:7   */\n      dup1\n      iszero\n      tag_185\n      jumpi\n        /* \"--CODEGEN--\":30:31   */\n      0x00\n        /* \"--CODEGEN--\":27:28   */\n      dup1\n        /* \"--CODEGEN--\":20:32   */\n      revert\n        /* \"--CODEGEN--\":5:7   */\n    tag_185:\n        /* \"v2-core-master/contracts/UniswapV2Pair.sol\":4620:4659  IERC20(token0).balanceOf(address(this)) */\n      pop\n      gas\n      staticcall\n      iszero\n        /* \"--CODEGEN--\":8:17   */\n      dup1\n        /* \"--CODEGEN--\":5:7   */\n      iszero\n      tag_186\n      jumpi\n        /* \"--CODEGEN--\":45:61   */\n      returndatasize\n        /* \"--CODEGEN--\":42:43   */\n      0x00\n        /* \"--CODEGEN--\":39:40   */\n      dup1\n        /* \"--CODEGEN--\":24:62   */\n      returndatacopy\n        /* \"--CODEGEN--\":77:93   */\n      returndatasize\n        /* \"--CODEGEN--\":74:75   */\n      0x00\n        /* \"--CODEGEN--\":67:94   */\n      revert\n        /* \"--CODEGEN--\":5:7   */\n    tag_186:\n        /* \"v2-core-master/contracts/UniswapV2Pair.sol\":4620:4659  IERC20(token0).balanceOf(address(this)) */\n      pop\n      pop\n      pop\n      pop\n      mload(0x40)\n      returndatasize\n        /* \"--CODEGEN--\":13:15   */\n      0x20\n        /* \"--CODEGEN--\":8:11   */\n      dup2\n        /* \"--CODEGEN--\":5:16   */\n      lt\n        /* \"--CODEGEN--\":2:4   */\n      iszero\n      tag_187\n      jumpi\n        /* \"--CODEGEN--\":29:30   */\n      0x00\n        /* \"--CODEGEN--\":26:27   */\n      dup1\n        /* \"--CODEGEN--\":19:31   */\n      revert\n        /* \"--CODEGEN--\":2:4   */\n    tag_187:\n      pop\n        /* \"v2-core-master/contracts/UniswapV2Pair.sol\":4620:4659  IERC20(token0).balanceOf(address(this)) */\n      mload\n        /* \"v2-core-master/contracts/UniswapV2Pair.sol\":4692:4698  token1 */\n      sload(0x08)\n        /* \"v2-core-master/contracts/UniswapV2Pair.sol\":4685:4724  IERC20(token1).balanceOf(address(this)) */\n      0x40\n      dup1\n      mload\n      shl(0xe0, 0x70a08231)\n      dup2\n      mstore\n        /* \"v2-core-master/contracts/UniswapV2Pair.sol\":4718:4722  this */\n      address\n        /* \"v2-core-master/contracts/UniswapV2Pair.sol\":4685:4724  IERC20(token1).balanceOf(address(this)) */\n      0x04\n      dup3\n      add\n      mstore\n      swap1\n      mload\n        /* \"v2-core-master/contracts/UniswapV2Pair.sol\":4620:4659  IERC20(token0).balanceOf(address(this)) */\n      swap3\n      swap4\n      pop\n        /* \"v2-core-master/contracts/UniswapV2Pair.sol\":4669:4682  uint balance1 */\n      0x00\n      swap3\n      sub(shl(0xa0, 0x01), 0x01)\n        /* \"v2-core-master/contracts/UniswapV2Pair.sol\":4692:4698  token1 */\n      swap1\n      swap3\n      and\n      swap2\n        /* \"v2-core-master/contracts/UniswapV2Pair.sol\":4685:4709  IERC20(token1).balanceOf */\n      0x70a08231\n      swap2\n        /* \"v2-core-master/contracts/UniswapV2Pair.sol\":4685:4724  IERC20(token1).balanceOf(address(this)) */\n      0x24\n      dup1\n      dup3\n      add\n      swap3\n        /* \"v2-core-master/contracts/UniswapV2Pair.sol\":4620:4659  IERC20(token0).balanceOf(address(this)) */\n      0x20\n      swap3\n        /* \"v2-core-master/contracts/UniswapV2Pair.sol\":4685:4724  IERC20(token1).balanceOf(address(this)) */\n      swap1\n      swap2\n      swap1\n      dup3\n      swap1\n      sub\n      add\n      dup2\n        /* \"v2-core-master/contracts/UniswapV2Pair.sol\":4692:4698  token1 */\n      dup7\n        /* \"v2-core-master/contracts/UniswapV2Pair.sol\":4685:4724  IERC20(token1).balanceOf(address(this)) */\n      dup1\n      extcodesize\n      iszero\n        /* \"--CODEGEN--\":5:7   */\n      dup1\n      iszero\n      tag_188\n      jumpi\n        /* \"--CODEGEN--\":30:31   */\n      0x00\n        /* \"--CODEGEN--\":27:28   */\n      dup1\n        /* \"--CODEGEN--\":20:32   */\n      revert\n        /* \"--CODEGEN--\":5:7   */\n    tag_188:\n        /* \"v2-core-master/contracts/UniswapV2Pair.sol\":4685:4724  IERC20(token1).balanceOf(address(this)) */\n      pop\n      gas\n      staticcall\n      iszero\n        /* \"--CODEGEN--\":8:17   */\n      dup1\n        /* \"--CODEGEN--\":5:7   */\n      iszero\n      tag_189\n      jumpi\n        /* \"--CODEGEN--\":45:61   */\n      returndatasize\n        /* \"--CODEGEN--\":42:43   */\n      0x00\n        /* \"--CODEGEN--\":39:40   */\n      dup1\n        /* \"--CODEGEN--\":24:62   */\n      returndatacopy\n        /* \"--CODEGEN--\":77:93   */\n      returndatasize\n        /* \"--CODEGEN--\":74:75   */\n      0x00\n        /* \"--CODEGEN--\":67:94   */\n      revert\n        /* \"--CODEGEN--\":5:7   */\n    tag_189:\n        /* \"v2-core-master/contracts/UniswapV2Pair.sol\":4685:4724  IERC20(token1).balanceOf(address(this)) */\n      pop\n      pop\n      pop\n      pop\n      mload(0x40)\n      returndatasize\n        /* \"--CODEGEN--\":13:15   */\n      0x20\n        /* \"--CODEGEN--\":8:11   */\n      dup2\n        /* \"--CODEGEN--\":5:16   */\n      lt\n        /* \"--CODEGEN--\":2:4   */\n      iszero\n      tag_190\n      jumpi\n        /* \"--CODEGEN--\":29:30   */\n      0x00\n        /* \"--CODEGEN--\":26:27   */\n      dup1\n        /* \"--CODEGEN--\":19:31   */\n      revert\n        /* \"--CODEGEN--\":2:4   */\n    tag_190:\n      pop\n        /* \"v2-core-master/contracts/UniswapV2Pair.sol\":4685:4724  IERC20(token1).balanceOf(address(this)) */\n      mload\n      swap1\n      pop\n        /* \"v2-core-master/contracts/UniswapV2Pair.sol\":4734:4746  uint amount0 */\n      0x00\n        /* \"v2-core-master/contracts/UniswapV2Pair.sol\":4749:4772  balance0.sub(_reserve0) */\n      tag_191\n        /* \"v2-core-master/contracts/UniswapV2Pair.sol\":4749:4757  balance0 */\n      dup4\n      sub(shl(0x70, 0x01), 0x01)\n        /* \"v2-core-master/contracts/UniswapV2Pair.sol\":4749:4772  balance0.sub(_reserve0) */\n      dup8\n      and\n      0xffffffff\n        /* \"v2-core-master/contracts/UniswapV2Pair.sol\":4749:4761  balance0.sub */\n      tag_160\n        /* \"v2-core-master/contracts/UniswapV2Pair.sol\":4749:4772  balance0.sub(_reserve0) */\n      and\n      jump\t// in\n    tag_191:\n        /* \"v2-core-master/contracts/UniswapV2Pair.sol\":4734:4772  uint amount0 = balance0.sub(_reserve0) */\n      swap1\n      pop\n        /* \"v2-core-master/contracts/UniswapV2Pair.sol\":4782:4794  uint amount1 */\n      0x00\n        /* \"v2-core-master/contracts/UniswapV2Pair.sol\":4797:4820  balance1.sub(_reserve1) */\n      tag_192\n        /* \"v2-core-master/contracts/UniswapV2Pair.sol\":4797:4805  balance1 */\n      dup4\n      sub(shl(0x70, 0x01), 0x01)\n        /* \"v2-core-master/contracts/UniswapV2Pair.sol\":4797:4820  balance1.sub(_reserve1) */\n      dup8\n      and\n      0xffffffff\n        /* \"v2-core-master/contracts/UniswapV2Pair.sol\":4797:4809  balance1.sub */\n      tag_160\n        /* \"v2-core-master/contracts/UniswapV2Pair.sol\":4797:4820  balance1.sub(_reserve1) */\n      and\n      jump\t// in\n    tag_192:\n        /* \"v2-core-master/contracts/UniswapV2Pair.sol\":4782:4820  uint amount1 = balance1.sub(_reserve1) */\n      swap1\n      pop\n        /* \"v2-core-master/contracts/UniswapV2Pair.sol\":4831:4841  bool feeOn */\n      0x00\n        /* \"v2-core-master/contracts/UniswapV2Pair.sol\":4844:4874  _mintFee(_reserve0, _reserve1) */\n      tag_193\n        /* \"v2-core-master/contracts/UniswapV2Pair.sol\":4853:4862  _reserve0 */\n      dup8\n        /* \"v2-core-master/contracts/UniswapV2Pair.sol\":4864:4873  _reserve1 */\n      dup8\n        /* \"v2-core-master/contracts/UniswapV2Pair.sol\":4844:4852  _mintFee */\n      tag_194\n        /* \"v2-core-master/contracts/UniswapV2Pair.sol\":4844:4874  _mintFee(_reserve0, _reserve1) */\n      jump\t// in\n    tag_193:\n        /* \"v2-core-master/contracts/UniswapV2Pair.sol\":4884:4901  uint _totalSupply */\n      0x00\n        /* \"v2-core-master/contracts/UniswapV2Pair.sol\":4904:4915  totalSupply */\n      sload\n        /* \"v2-core-master/contracts/UniswapV2Pair.sol\":4831:4874  bool feeOn = _mintFee(_reserve0, _reserve1) */\n      swap1\n      swap2\n      pop\n        /* \"v2-core-master/contracts/UniswapV2Pair.sol\":5007:5024  _totalSupply == 0 */\n      dup1\n        /* \"v2-core-master/contracts/UniswapV2Pair.sol\":5003:5351  if (_totalSupply == 0) {... */\n      tag_195\n      jumpi\n        /* \"v2-core-master/contracts/UniswapV2Pair.sol\":5052:5106  Math.sqrt(amount0.mul(amount1)).sub(MINIMUM_LIQUIDITY) */\n      tag_196\n        /* \"v2-core-master/contracts/UniswapV2Pair.sol\":457:464  10 ** 3 */\n      0x03e8\n        /* \"v2-core-master/contracts/UniswapV2Pair.sol\":5052:5083  Math.sqrt(amount0.mul(amount1)) */\n      tag_159\n        /* \"v2-core-master/contracts/UniswapV2Pair.sol\":5062:5082  amount0.mul(amount1) */\n      tag_198\n        /* \"v2-core-master/contracts/UniswapV2Pair.sol\":5062:5069  amount0 */\n      dup8\n        /* \"v2-core-master/contracts/UniswapV2Pair.sol\":5074:5081  amount1 */\n      dup8\n        /* \"v2-core-master/contracts/UniswapV2Pair.sol\":5062:5082  amount0.mul(amount1) */\n      0xffffffff\n        /* \"v2-core-master/contracts/UniswapV2Pair.sol\":5062:5073  amount0.mul */\n      tag_158\n        /* \"v2-core-master/contracts/UniswapV2Pair.sol\":5062:5082  amount0.mul(amount1) */\n      and\n      jump\t// in\n    tag_198:\n        /* \"v2-core-master/contracts/UniswapV2Pair.sol\":5052:5061  Math.sqrt */\n      tag_199\n        /* \"v2-core-master/contracts/UniswapV2Pair.sol\":5052:5083  Math.sqrt(amount0.mul(amount1)) */\n      jump\t// in\n        /* \"v2-core-master/contracts/UniswapV2Pair.sol\":5052:5106  Math.sqrt(amount0.mul(amount1)).sub(MINIMUM_LIQUIDITY) */\n    tag_196:\n        /* \"v2-core-master/contracts/UniswapV2Pair.sol\":5040:5106  liquidity = Math.sqrt(amount0.mul(amount1)).sub(MINIMUM_LIQUIDITY) */\n      swap9\n      pop\n        /* \"v2-core-master/contracts/UniswapV2Pair.sol\":5120:5156  _mint(address(0), MINIMUM_LIQUIDITY) */\n      tag_200\n        /* \"v2-core-master/contracts/UniswapV2Pair.sol\":5134:5135  0 */\n      0x00\n        /* \"v2-core-master/contracts/UniswapV2Pair.sol\":457:464  10 ** 3 */\n      0x03e8\n        /* \"v2-core-master/contracts/UniswapV2Pair.sol\":5120:5125  _mint */\n      tag_201\n        /* \"v2-core-master/contracts/UniswapV2Pair.sol\":5120:5156  _mint(address(0), MINIMUM_LIQUIDITY) */\n      jump\t// in\n    tag_200:\n        /* \"v2-core-master/contracts/UniswapV2Pair.sol\":5003:5351  if (_totalSupply == 0) {... */\n      jump(tag_202)\n    tag_195:\n        /* \"v2-core-master/contracts/UniswapV2Pair.sol\":5254:5340  Math.min(amount0.mul(_totalSupply) / _reserve0, amount1.mul(_totalSupply) / _reserve1) */\n      tag_203\n      sub(shl(0x70, 0x01), 0x01)\n        /* \"v2-core-master/contracts/UniswapV2Pair.sol\":5263:5300  amount0.mul(_totalSupply) / _reserve0 */\n      dup10\n      and\n        /* \"v2-core-master/contracts/UniswapV2Pair.sol\":5263:5288  amount0.mul(_totalSupply) */\n      tag_204\n        /* \"v2-core-master/contracts/UniswapV2Pair.sol\":5263:5270  amount0 */\n      dup7\n        /* \"v2-core-master/contracts/UniswapV2Pair.sol\":5275:5287  _totalSupply */\n      dup5\n        /* \"v2-core-master/contracts/UniswapV2Pair.sol\":5263:5288  amount0.mul(_totalSupply) */\n      0xffffffff\n        /* \"v2-core-master/contracts/UniswapV2Pair.sol\":5263:5274  amount0.mul */\n      tag_158\n        /* \"v2-core-master/contracts/UniswapV2Pair.sol\":5263:5288  amount0.mul(_totalSupply) */\n      and\n      jump\t// in\n    tag_204:\n        /* \"v2-core-master/contracts/UniswapV2Pair.sol\":5263:5300  amount0.mul(_totalSupply) / _reserve0 */\n      dup2\n      tag_205\n      jumpi\n      invalid\n    tag_205:\n      div\n      sub(shl(0x70, 0x01), 0x01)\n        /* \"v2-core-master/contracts/UniswapV2Pair.sol\":5302:5339  amount1.mul(_totalSupply) / _reserve1 */\n      dup10\n      and\n        /* \"v2-core-master/contracts/UniswapV2Pair.sol\":5302:5327  amount1.mul(_totalSupply) */\n      tag_206\n        /* \"v2-core-master/contracts/UniswapV2Pair.sol\":5302:5309  amount1 */\n      dup7\n        /* \"v2-core-master/contracts/UniswapV2Pair.sol\":5314:5326  _totalSupply */\n      dup6\n        /* \"v2-core-master/contracts/UniswapV2Pair.sol\":5302:5327  amount1.mul(_totalSupply) */\n      0xffffffff\n        /* \"v2-core-master/contracts/UniswapV2Pair.sol\":5302:5313  amount1.mul */\n      tag_158\n        /* \"v2-core-master/contracts/UniswapV2Pair.sol\":5302:5327  amount1.mul(_totalSupply) */\n      and\n      jump\t// in\n    tag_206:\n        /* \"v2-core-master/contracts/UniswapV2Pair.sol\":5302:5339  amount1.mul(_totalSupply) / _reserve1 */\n      dup2\n      tag_207\n      jumpi\n      invalid\n    tag_207:\n      div\n        /* \"v2-core-master/contracts/UniswapV2Pair.sol\":5254:5262  Math.min */\n      tag_208\n        /* \"v2-core-master/contracts/UniswapV2Pair.sol\":5254:5340  Math.min(amount0.mul(_totalSupply) / _reserve0, amount1.mul(_totalSupply) / _reserve1) */\n      jump\t// in\n    tag_203:\n        /* \"v2-core-master/contracts/UniswapV2Pair.sol\":5242:5340  liquidity = Math.min(amount0.mul(_totalSupply) / _reserve0, amount1.mul(_totalSupply) / _reserve1) */\n      swap9\n      pop\n        /* \"v2-core-master/contracts/UniswapV2Pair.sol\":5003:5351  if (_totalSupply == 0) {... */\n    tag_202:\n        /* \"v2-core-master/contracts/UniswapV2Pair.sol\":5380:5381  0 */\n      0x00\n        /* \"v2-core-master/contracts/UniswapV2Pair.sol\":5368:5377  liquidity */\n      dup10\n        /* \"v2-core-master/contracts/UniswapV2Pair.sol\":5368:5381  liquidity > 0 */\n      gt\n        /* \"v2-core-master/contracts/UniswapV2Pair.sol\":5360:5426  require(liquidity > 0, 'UniswapV2: INSUFFICIENT_LIQUIDITY_MINTED') */\n      tag_209\n      jumpi\n      mload(0x40)\n      shl(0xe5, 0x461bcd)\n      dup2\n      mstore\n      0x04\n      add\n      dup1\n      dup1\n      0x20\n      add\n      dup3\n      dup2\n      sub\n      dup3\n      mstore\n      0x28\n      dup2\n      mstore\n      0x20\n      add\n      dup1\n      data_6591c9f5bf1fefaad109b76a20e25c857b696080c952191f86220f001a83663e\n      0x28\n      swap2\n      codecopy\n      0x40\n      add\n      swap2\n      pop\n      pop\n      mload(0x40)\n      dup1\n      swap2\n      sub\n      swap1\n      revert\n    tag_209:\n        /* \"v2-core-master/contracts/UniswapV2Pair.sol\":5436:5456  _mint(to, liquidity) */\n      tag_210\n        /* \"v2-core-master/contracts/UniswapV2Pair.sol\":5442:5444  to */\n      dup11\n        /* \"v2-core-master/contracts/UniswapV2Pair.sol\":5446:5455  liquidity */\n      dup11\n        /* \"v2-core-master/contracts/UniswapV2Pair.sol\":5436:5441  _mint */\n      tag_201\n        /* \"v2-core-master/contracts/UniswapV2Pair.sol\":5436:5456  _mint(to, liquidity) */\n      jump\t// in\n    tag_210:\n        /* \"v2-core-master/contracts/UniswapV2Pair.sol\":5467:5516  _update(balance0, balance1, _reserve0, _reserve1) */\n      tag_211\n        /* \"v2-core-master/contracts/UniswapV2Pair.sol\":5475:5483  balance0 */\n      dup7\n        /* \"v2-core-master/contracts/UniswapV2Pair.sol\":5485:5493  balance1 */\n      dup7\n        /* \"v2-core-master/contracts/UniswapV2Pair.sol\":5495:5504  _reserve0 */\n      dup11\n        /* \"v2-core-master/contracts/UniswapV2Pair.sol\":5506:5515  _reserve1 */\n      dup11\n        /* \"v2-core-master/contracts/UniswapV2Pair.sol\":5467:5474  _update */\n      tag_169\n        /* \"v2-core-master/contracts/UniswapV2Pair.sol\":5467:5516  _update(balance0, balance1, _reserve0, _reserve1) */\n      jump\t// in\n    tag_211:\n        /* \"v2-core-master/contracts/UniswapV2Pair.sol\":5530:5535  feeOn */\n      dup2\n        /* \"v2-core-master/contracts/UniswapV2Pair.sol\":5526:5573  if (feeOn) kLast = uint(reserve0).mul(reserve1) */\n      iszero\n      tag_212\n      jumpi\n        /* \"v2-core-master/contracts/UniswapV2Pair.sol\":5564:5572  reserve1 */\n      sload(0x09)\n        /* \"v2-core-master/contracts/UniswapV2Pair.sol\":5545:5573  uint(reserve0).mul(reserve1) */\n      tag_213\n      swap1\n      sub(shl(0x70, 0x01), 0x01)\n        /* \"v2-core-master/contracts/UniswapV2Pair.sol\":5550:5558  reserve0 */\n      dup1\n      dup3\n      and\n      swap2\n      shl(0x70, 0x01)\n        /* \"v2-core-master/contracts/UniswapV2Pair.sol\":5564:5572  reserve1 */\n      swap1\n      div\n      and\n        /* \"v2-core-master/contracts/UniswapV2Pair.sol\":5545:5573  uint(reserve0).mul(reserve1) */\n      0xffffffff\n        /* \"v2-core-master/contracts/UniswapV2Pair.sol\":5545:5563  uint(reserve0).mul */\n      tag_158\n        /* \"v2-core-master/contracts/UniswapV2Pair.sol\":5545:5573  uint(reserve0).mul(reserve1) */\n      and\n      jump\t// in\n    tag_213:\n        /* \"v2-core-master/contracts/UniswapV2Pair.sol\":5537:5542  kLast */\n      0x0c\n        /* \"v2-core-master/contracts/UniswapV2Pair.sol\":5537:5573  kLast = uint(reserve0).mul(reserve1) */\n      sstore\n        /* \"v2-core-master/contracts/UniswapV2Pair.sol\":5526:5573  if (feeOn) kLast = uint(reserve0).mul(reserve1) */\n    tag_212:\n        /* \"v2-core-master/contracts/UniswapV2Pair.sol\":5628:5662  Mint(msg.sender, amount0, amount1) */\n      0x40\n      dup1\n      mload\n      dup6\n      dup2\n      mstore\n      0x20\n      dup2\n      add\n      dup6\n      swap1\n      mstore\n      dup2\n      mload\n        /* \"v2-core-master/contracts/UniswapV2Pair.sol\":5633:5643  msg.sender */\n      caller\n      swap3\n        /* \"v2-core-master/contracts/UniswapV2Pair.sol\":5628:5662  Mint(msg.sender, amount0, amount1) */\n      0x4c209b5fc8ad50758f13e2e1088ba56a560dff690a1c6fef26394f4c03821c4f\n      swap3\n      dup3\n      swap1\n      sub\n      add\n      swap1\n      log2\n      pop\n      pop\n        /* \"v2-core-master/contracts/UniswapV2Pair.sol\":1250:1251  1 */\n      0x01\n        /* \"v2-core-master/contracts/UniswapV2Pair.sol\":1239:1247  unlocked */\n      0x0d\n        /* \"v2-core-master/contracts/UniswapV2Pair.sol\":1239:1251  unlocked = 1 */\n      sstore\n      pop\n        /* \"v2-core-master/contracts/UniswapV2Pair.sol\":4448:5669  function mint(address to) external lock returns (uint liquidity) {... */\n      swap5\n      swap7\n      swap6\n      pop\n      pop\n      pop\n      pop\n      pop\n      pop\n      jump\t// out\n        /* \"v2-core-master/contracts/UniswapV2ERC20.sol\":356:397  mapping(address => uint) public _balances */\n    tag_85:\n      mstore(0x20, 0x01)\n      0x00\n      swap1\n      dup2\n      mstore\n      0x40\n      swap1\n      keccak256\n      sload\n      dup2\n      jump\t// out\n        /* \"v2-core-master/contracts/UniswapV2ERC20.sol\":1447:1580  function balanceOf(address account) external view   returns (uint256) {... */\n    tag_88:\n      sub(shl(0xa0, 0x01), 0x01)\n        /* \"v2-core-master/contracts/UniswapV2ERC20.sol\":1553:1576  _frozenBalance[account] */\n      dup2\n      and\n        /* \"v2-core-master/contracts/UniswapV2ERC20.sol\":1508:1515  uint256 */\n      0x00\n        /* \"v2-core-master/contracts/UniswapV2ERC20.sol\":1553:1576  _frozenBalance[account] */\n      swap1\n      dup2\n      mstore\n        /* \"v2-core-master/contracts/UniswapV2ERC20.sol\":1553:1567  _frozenBalance */\n      0x03\n        /* \"v2-core-master/contracts/UniswapV2ERC20.sol\":1553:1576  _frozenBalance[account] */\n      0x20\n      swap1\n      dup2\n      mstore\n      0x40\n      dup1\n      dup4\n      keccak256\n      sload\n        /* \"v2-core-master/contracts/UniswapV2ERC20.sol\":1530:1539  _balances */\n      0x01\n        /* \"v2-core-master/contracts/UniswapV2ERC20.sol\":1530:1548  _balances[account] */\n      swap1\n      swap3\n      mstore\n      dup3\n      keccak256\n      sload\n        /* \"v2-core-master/contracts/UniswapV2ERC20.sol\":1530:1577  _balances[account].add(_frozenBalance[account]) */\n      tag_215\n      swap2\n      0xffffffff\n        /* \"v2-core-master/contracts/UniswapV2ERC20.sol\":1530:1552  _balances[account].add */\n      tag_216\n        /* \"v2-core-master/contracts/UniswapV2ERC20.sol\":1530:1577  _balances[account].add(_frozenBalance[account]) */\n      and\n      jump\t// in\n    tag_215:\n        /* \"v2-core-master/contracts/UniswapV2ERC20.sol\":1523:1577  return _balances[account].add(_frozenBalance[account]) */\n      swap1\n      pop\n        /* \"v2-core-master/contracts/UniswapV2ERC20.sol\":1447:1580  function balanceOf(address account) external view   returns (uint256) {... */\n    tag_214:\n      swap2\n      swap1\n      pop\n      jump\t// out\n        /* \"v2-core-master/contracts/UniswapV2Pair.sol\":992:1009  uint public kLast */\n    tag_90:\n      sload(0x0c)\n      dup2\n      jump\t// out\n        /* \"v2-core-master/contracts/UniswapV2ERC20.sol\":793:831  mapping(address => uint) public nonces */\n    tag_93:\n      mstore(0x20, 0x05)\n      0x00\n      swap1\n      dup2\n      mstore\n      0x40\n      swap1\n      keccak256\n      sload\n      dup2\n      jump\t// out\n        /* \"v2-core-master/contracts/UniswapV2Pair.sol\":7122:8533  function burn(address to) external lock returns (uint amount0, uint amount1) {... */\n    tag_96:\n        /* \"v2-core-master/contracts/UniswapV2Pair.sol\":7171:7183  uint amount0 */\n      0x00\n        /* \"v2-core-master/contracts/UniswapV2Pair.sol\":7185:7197  uint amount1 */\n      dup1\n        /* \"v2-core-master/contracts/UniswapV2Pair.sol\":1161:1169  unlocked */\n      sload(0x0d)\n        /* \"v2-core-master/contracts/UniswapV2Pair.sol\":1173:1174  1 */\n      0x01\n        /* \"v2-core-master/contracts/UniswapV2Pair.sol\":1161:1174  unlocked == 1 */\n      eq\n        /* \"v2-core-master/contracts/UniswapV2Pair.sol\":1153:1196  require(unlocked == 1, 'UniswapV2: LOCKED') */\n      tag_218\n      jumpi\n      0x40\n      dup1\n      mload\n      shl(0xe5, 0x461bcd)\n      dup2\n      mstore\n      0x20\n      0x04\n      dup3\n      add\n      mstore\n      0x11\n      0x24\n      dup3\n      add\n      mstore\n      shl(0x7a, 0x155b9a5cddd85c158c8e881313d0d2d151)\n      0x44\n      dup3\n      add\n      mstore\n      swap1\n      mload\n      swap1\n      dup2\n      swap1\n      sub\n      0x64\n      add\n      swap1\n      revert\n    tag_218:\n        /* \"v2-core-master/contracts/UniswapV2Pair.sol\":1217:1218  0 */\n      0x00\n        /* \"v2-core-master/contracts/UniswapV2Pair.sol\":1206:1214  unlocked */\n      0x0d\n        /* \"v2-core-master/contracts/UniswapV2Pair.sol\":1206:1218  unlocked = 0 */\n      dup2\n      swap1\n      sstore\n        /* \"v2-core-master/contracts/UniswapV2Pair.sol\":1217:1218  0 */\n      dup1\n        /* \"v2-core-master/contracts/UniswapV2Pair.sol\":7252:7265  getReserves() */\n      tag_220\n        /* \"v2-core-master/contracts/UniswapV2Pair.sol\":7252:7263  getReserves */\n      tag_53\n        /* \"v2-core-master/contracts/UniswapV2Pair.sol\":7252:7265  getReserves() */\n      jump\t// in\n    tag_220:\n      pop\n        /* \"v2-core-master/contracts/UniswapV2Pair.sol\":7308:7314  token0 */\n      sload(0x07)\n        /* \"v2-core-master/contracts/UniswapV2Pair.sol\":7357:7363  token1 */\n      sload(0x08)\n        /* \"v2-core-master/contracts/UniswapV2Pair.sol\":7404:7444  IERC20(_token0).balanceOf(address(this)) */\n      0x40\n      dup1\n      mload\n      shl(0xe0, 0x70a08231)\n      dup2\n      mstore\n        /* \"v2-core-master/contracts/UniswapV2Pair.sol\":7438:7442  this */\n      address\n        /* \"v2-core-master/contracts/UniswapV2Pair.sol\":7404:7444  IERC20(_token0).balanceOf(address(this)) */\n      0x04\n      dup3\n      add\n      mstore\n      swap1\n      mload\n        /* \"v2-core-master/contracts/UniswapV2Pair.sol\":7209:7265  (uint112 _reserve0, uint112 _reserve1, ) = getReserves() */\n      swap5\n      swap7\n      pop\n      swap3\n      swap5\n      pop\n      sub(shl(0xa0, 0x01), 0x01)\n        /* \"v2-core-master/contracts/UniswapV2Pair.sol\":7308:7314  token0 */\n      swap2\n      dup3\n      and\n      swap4\n        /* \"v2-core-master/contracts/UniswapV2Pair.sol\":7357:7363  token1 */\n      swap2\n      and\n      swap2\n        /* \"v2-core-master/contracts/UniswapV2Pair.sol\":7290:7305  address _token0 */\n      0x00\n      swap2\n        /* \"v2-core-master/contracts/UniswapV2Pair.sol\":7308:7314  token0 */\n      dup5\n      swap2\n        /* \"v2-core-master/contracts/UniswapV2Pair.sol\":7404:7429  IERC20(_token0).balanceOf */\n      0x70a08231\n      swap2\n        /* \"v2-core-master/contracts/UniswapV2Pair.sol\":7404:7444  IERC20(_token0).balanceOf(address(this)) */\n      0x24\n      dup1\n      dup4\n      add\n      swap3\n      0x20\n      swap3\n      swap2\n      swap1\n      dup3\n      swap1\n      sub\n      add\n      dup2\n        /* \"v2-core-master/contracts/UniswapV2Pair.sol\":7308:7314  token0 */\n      dup7\n        /* \"v2-core-master/contracts/UniswapV2Pair.sol\":7404:7444  IERC20(_token0).balanceOf(address(this)) */\n      dup1\n      extcodesize\n      iszero\n        /* \"--CODEGEN--\":5:7   */\n      dup1\n      iszero\n      tag_221\n      jumpi\n        /* \"--CODEGEN--\":30:31   */\n      0x00\n        /* \"--CODEGEN--\":27:28   */\n      dup1\n        /* \"--CODEGEN--\":20:32   */\n      revert\n        /* \"--CODEGEN--\":5:7   */\n    tag_221:\n        /* \"v2-core-master/contracts/UniswapV2Pair.sol\":7404:7444  IERC20(_token0).balanceOf(address(this)) */\n      pop\n      gas\n      staticcall\n      iszero\n        /* \"--CODEGEN--\":8:17   */\n      dup1\n        /* \"--CODEGEN--\":5:7   */\n      iszero\n      tag_222\n      jumpi\n        /* \"--CODEGEN--\":45:61   */\n      returndatasize\n        /* \"--CODEGEN--\":42:43   */\n      0x00\n        /* \"--CODEGEN--\":39:40   */\n      dup1\n        /* \"--CODEGEN--\":24:62   */\n      returndatacopy\n        /* \"--CODEGEN--\":77:93   */\n      returndatasize\n        /* \"--CODEGEN--\":74:75   */\n      0x00\n        /* \"--CODEGEN--\":67:94   */\n      revert\n        /* \"--CODEGEN--\":5:7   */\n    tag_222:\n        /* \"v2-core-master/contracts/UniswapV2Pair.sol\":7404:7444  IERC20(_token0).balanceOf(address(this)) */\n      pop\n      pop\n      pop\n      pop\n      mload(0x40)\n      returndatasize\n        /* \"--CODEGEN--\":13:15   */\n      0x20\n        /* \"--CODEGEN--\":8:11   */\n      dup2\n        /* \"--CODEGEN--\":5:16   */\n      lt\n        /* \"--CODEGEN--\":2:4   */\n      iszero\n      tag_223\n      jumpi\n        /* \"--CODEGEN--\":29:30   */\n      0x00\n        /* \"--CODEGEN--\":26:27   */\n      dup1\n        /* \"--CODEGEN--\":19:31   */\n      revert\n        /* \"--CODEGEN--\":2:4   */\n    tag_223:\n      pop\n        /* \"v2-core-master/contracts/UniswapV2Pair.sol\":7404:7444  IERC20(_token0).balanceOf(address(this)) */\n      mload\n        /* \"v2-core-master/contracts/UniswapV2Pair.sol\":7470:7510  IERC20(_token1).balanceOf(address(this)) */\n      0x40\n      dup1\n      mload\n      shl(0xe0, 0x70a08231)\n      dup2\n      mstore\n        /* \"v2-core-master/contracts/UniswapV2Pair.sol\":7504:7508  this */\n      address\n        /* \"v2-core-master/contracts/UniswapV2Pair.sol\":7470:7510  IERC20(_token1).balanceOf(address(this)) */\n      0x04\n      dup3\n      add\n      mstore\n      swap1\n      mload\n        /* \"v2-core-master/contracts/UniswapV2Pair.sol\":7404:7444  IERC20(_token0).balanceOf(address(this)) */\n      swap2\n      swap3\n      pop\n        /* \"v2-core-master/contracts/UniswapV2Pair.sol\":7454:7467  uint balance1 */\n      0x00\n      swap2\n      sub(shl(0xa0, 0x01), 0x01)\n        /* \"v2-core-master/contracts/UniswapV2Pair.sol\":7470:7495  IERC20(_token1).balanceOf */\n      dup6\n      and\n      swap2\n      0x70a08231\n      swap2\n        /* \"v2-core-master/contracts/UniswapV2Pair.sol\":7470:7510  IERC20(_token1).balanceOf(address(this)) */\n      0x24\n      dup1\n      dup4\n      add\n      swap3\n        /* \"v2-core-master/contracts/UniswapV2Pair.sol\":7404:7444  IERC20(_token0).balanceOf(address(this)) */\n      0x20\n      swap3\n        /* \"v2-core-master/contracts/UniswapV2Pair.sol\":7470:7510  IERC20(_token1).balanceOf(address(this)) */\n      swap2\n      swap1\n      dup3\n      swap1\n      sub\n      add\n      dup2\n        /* \"v2-core-master/contracts/UniswapV2Pair.sol\":7470:7495  IERC20(_token1).balanceOf */\n      dup7\n        /* \"v2-core-master/contracts/UniswapV2Pair.sol\":7470:7510  IERC20(_token1).balanceOf(address(this)) */\n      dup1\n      extcodesize\n      iszero\n        /* \"--CODEGEN--\":5:7   */\n      dup1\n      iszero\n      tag_224\n      jumpi\n        /* \"--CODEGEN--\":30:31   */\n      0x00\n        /* \"--CODEGEN--\":27:28   */\n      dup1\n        /* \"--CODEGEN--\":20:32   */\n      revert\n        /* \"--CODEGEN--\":5:7   */\n    tag_224:\n        /* \"v2-core-master/contracts/UniswapV2Pair.sol\":7470:7510  IERC20(_token1).balanceOf(address(this)) */\n      pop\n      gas\n      staticcall\n      iszero\n        /* \"--CODEGEN--\":8:17   */\n      dup1\n        /* \"--CODEGEN--\":5:7   */\n      iszero\n      tag_225\n      jumpi\n        /* \"--CODEGEN--\":45:61   */\n      returndatasize\n        /* \"--CODEGEN--\":42:43   */\n      0x00\n        /* \"--CODEGEN--\":39:40   */\n      dup1\n        /* \"--CODEGEN--\":24:62   */\n      returndatacopy\n        /* \"--CODEGEN--\":77:93   */\n      returndatasize\n        /* \"--CODEGEN--\":74:75   */\n      0x00\n        /* \"--CODEGEN--\":67:94   */\n      revert\n        /* \"--CODEGEN--\":5:7   */\n    tag_225:\n        /* \"v2-core-master/contracts/UniswapV2Pair.sol\":7470:7510  IERC20(_token1).balanceOf(address(this)) */\n      pop\n      pop\n      pop\n      pop\n      mload(0x40)\n      returndatasize\n        /* \"--CODEGEN--\":13:15   */\n      0x20\n        /* \"--CODEGEN--\":8:11   */\n      dup2\n        /* \"--CODEGEN--\":5:16   */\n      lt\n        /* \"--CODEGEN--\":2:4   */\n      iszero\n      tag_226\n      jumpi\n        /* \"--CODEGEN--\":29:30   */\n      0x00\n        /* \"--CODEGEN--\":26:27   */\n      dup1\n        /* \"--CODEGEN--\":19:31   */\n      revert\n        /* \"--CODEGEN--\":2:4   */\n    tag_226:\n      pop\n        /* \"v2-core-master/contracts/UniswapV2Pair.sol\":7470:7510  IERC20(_token1).balanceOf(address(this)) */\n      mload\n        /* \"v2-core-master/contracts/UniswapV2Pair.sol\":7555:7559  this */\n      address\n        /* \"v2-core-master/contracts/UniswapV2Pair.sol\":7520:7534  uint liquidity */\n      0x00\n        /* \"v2-core-master/contracts/UniswapV2Pair.sol\":7537:7561  _balances[address(this)] */\n      swap1\n      dup2\n      mstore\n        /* \"v2-core-master/contracts/UniswapV2Pair.sol\":7537:7546  _balances */\n      0x01\n        /* \"v2-core-master/contracts/UniswapV2Pair.sol\":7470:7510  IERC20(_token1).balanceOf(address(this)) */\n      0x20\n        /* \"v2-core-master/contracts/UniswapV2Pair.sol\":7537:7561  _balances[address(this)] */\n      mstore\n      0x40\n      dup2\n      keccak256\n      sload\n        /* \"v2-core-master/contracts/UniswapV2Pair.sol\":7470:7510  IERC20(_token1).balanceOf(address(this)) */\n      swap2\n      swap3\n      pop\n        /* \"v2-core-master/contracts/UniswapV2Pair.sol\":7613:7643  _mintFee(_reserve0, _reserve1) */\n      tag_227\n        /* \"v2-core-master/contracts/UniswapV2Pair.sol\":7622:7631  _reserve0 */\n      dup9\n        /* \"v2-core-master/contracts/UniswapV2Pair.sol\":7633:7642  _reserve1 */\n      dup9\n        /* \"v2-core-master/contracts/UniswapV2Pair.sol\":7613:7621  _mintFee */\n      tag_194\n        /* \"v2-core-master/contracts/UniswapV2Pair.sol\":7613:7643  _mintFee(_reserve0, _reserve1) */\n      jump\t// in\n    tag_227:\n        /* \"v2-core-master/contracts/UniswapV2Pair.sol\":7653:7670  uint _totalSupply */\n      0x00\n        /* \"v2-core-master/contracts/UniswapV2Pair.sol\":7673:7684  totalSupply */\n      sload\n        /* \"v2-core-master/contracts/UniswapV2Pair.sol\":7600:7643  bool feeOn = _mintFee(_reserve0, _reserve1) */\n      swap1\n      swap2\n      pop\n        /* \"v2-core-master/contracts/UniswapV2Pair.sol\":7673:7684  totalSupply */\n      dup1\n        /* \"v2-core-master/contracts/UniswapV2Pair.sol\":7782:7805  liquidity.mul(balance0) */\n      tag_228\n        /* \"v2-core-master/contracts/UniswapV2Pair.sol\":7782:7791  liquidity */\n      dup5\n        /* \"v2-core-master/contracts/UniswapV2Pair.sol\":7796:7804  balance0 */\n      dup8\n        /* \"v2-core-master/contracts/UniswapV2Pair.sol\":7782:7805  liquidity.mul(balance0) */\n      0xffffffff\n        /* \"v2-core-master/contracts/UniswapV2Pair.sol\":7782:7795  liquidity.mul */\n      tag_158\n        /* \"v2-core-master/contracts/UniswapV2Pair.sol\":7782:7805  liquidity.mul(balance0) */\n      and\n      jump\t// in\n    tag_228:\n        /* \"v2-core-master/contracts/UniswapV2Pair.sol\":7782:7820  liquidity.mul(balance0) / _totalSupply */\n      dup2\n      tag_229\n      jumpi\n      invalid\n    tag_229:\n      div\n      swap11\n      pop\n        /* \"v2-core-master/contracts/UniswapV2Pair.sol\":7914:7926  _totalSupply */\n      dup1\n        /* \"v2-core-master/contracts/UniswapV2Pair.sol\":7888:7911  liquidity.mul(balance1) */\n      tag_230\n        /* \"v2-core-master/contracts/UniswapV2Pair.sol\":7888:7897  liquidity */\n      dup5\n        /* \"v2-core-master/contracts/UniswapV2Pair.sol\":7902:7910  balance1 */\n      dup7\n        /* \"v2-core-master/contracts/UniswapV2Pair.sol\":7888:7911  liquidity.mul(balance1) */\n      0xffffffff\n        /* \"v2-core-master/contracts/UniswapV2Pair.sol\":7888:7901  liquidity.mul */\n      tag_158\n        /* \"v2-core-master/contracts/UniswapV2Pair.sol\":7888:7911  liquidity.mul(balance1) */\n      and\n      jump\t// in\n    tag_230:\n        /* \"v2-core-master/contracts/UniswapV2Pair.sol\":7888:7926  liquidity.mul(balance1) / _totalSupply */\n      dup2\n      tag_231\n      jumpi\n      invalid\n    tag_231:\n      div\n        /* \"v2-core-master/contracts/UniswapV2Pair.sol\":7878:7926  amount1 = liquidity.mul(balance1) / _totalSupply */\n      swap10\n      pop\n        /* \"v2-core-master/contracts/UniswapV2Pair.sol\":8002:8003  0 */\n      0x00\n        /* \"v2-core-master/contracts/UniswapV2Pair.sol\":7992:7999  amount0 */\n      dup12\n        /* \"v2-core-master/contracts/UniswapV2Pair.sol\":7992:8003  amount0 > 0 */\n      gt\n        /* \"v2-core-master/contracts/UniswapV2Pair.sol\":7992:8018  amount0 > 0 && amount1 > 0 */\n      dup1\n      iszero\n      tag_232\n      jumpi\n      pop\n        /* \"v2-core-master/contracts/UniswapV2Pair.sol\":8017:8018  0 */\n      0x00\n        /* \"v2-core-master/contracts/UniswapV2Pair.sol\":8007:8014  amount1 */\n      dup11\n        /* \"v2-core-master/contracts/UniswapV2Pair.sol\":8007:8018  amount1 > 0 */\n      gt\n        /* \"v2-core-master/contracts/UniswapV2Pair.sol\":7992:8018  amount0 > 0 && amount1 > 0 */\n    tag_232:\n        /* \"v2-core-master/contracts/UniswapV2Pair.sol\":7984:8063  require(amount0 > 0 && amount1 > 0, 'UniswapV2: INSUFFICIENT_LIQUIDITY_BURNED') */\n      tag_233\n      jumpi\n      mload(0x40)\n      shl(0xe5, 0x461bcd)\n      dup2\n      mstore\n      0x04\n      add\n      dup1\n      dup1\n      0x20\n      add\n      dup3\n      dup2\n      sub\n      dup3\n      mstore\n      0x28\n      dup2\n      mstore\n      0x20\n      add\n      dup1\n      data_57ebfb4dd8b5082cdba0f23c17077e3b0ecb9782a51e0e9a15e9bc8c4b30c562\n      0x28\n      swap2\n      codecopy\n      0x40\n      add\n      swap2\n      pop\n      pop\n      mload(0x40)\n      dup1\n      swap2\n      sub\n      swap1\n      revert\n    tag_233:\n        /* \"v2-core-master/contracts/UniswapV2Pair.sol\":8073:8104  _burn(address(this), liquidity) */\n      tag_234\n        /* \"v2-core-master/contracts/UniswapV2Pair.sol\":8087:8091  this */\n      address\n        /* \"v2-core-master/contracts/UniswapV2Pair.sol\":8094:8103  liquidity */\n      dup5\n        /* \"v2-core-master/contracts/UniswapV2Pair.sol\":8073:8078  _burn */\n      tag_235\n        /* \"v2-core-master/contracts/UniswapV2Pair.sol\":8073:8104  _burn(address(this), liquidity) */\n      jump\t// in\n    tag_234:\n        /* \"v2-core-master/contracts/UniswapV2Pair.sol\":8114:8149  _safeTransfer(_token0, to, amount0) */\n      tag_236\n        /* \"v2-core-master/contracts/UniswapV2Pair.sol\":8128:8135  _token0 */\n      dup8\n        /* \"v2-core-master/contracts/UniswapV2Pair.sol\":8137:8139  to */\n      dup14\n        /* \"v2-core-master/contracts/UniswapV2Pair.sol\":8141:8148  amount0 */\n      dup14\n        /* \"v2-core-master/contracts/UniswapV2Pair.sol\":8114:8127  _safeTransfer */\n      tag_138\n        /* \"v2-core-master/contracts/UniswapV2Pair.sol\":8114:8149  _safeTransfer(_token0, to, amount0) */\n      jump\t// in\n    tag_236:\n        /* \"v2-core-master/contracts/UniswapV2Pair.sol\":8159:8194  _safeTransfer(_token1, to, amount1) */\n      tag_237\n        /* \"v2-core-master/contracts/UniswapV2Pair.sol\":8173:8180  _token1 */\n      dup7\n        /* \"v2-core-master/contracts/UniswapV2Pair.sol\":8182:8184  to */\n      dup14\n        /* \"v2-core-master/contracts/UniswapV2Pair.sol\":8186:8193  amount1 */\n      dup13\n        /* \"v2-core-master/contracts/UniswapV2Pair.sol\":8159:8172  _safeTransfer */\n      tag_138\n        /* \"v2-core-master/contracts/UniswapV2Pair.sol\":8159:8194  _safeTransfer(_token1, to, amount1) */\n      jump\t// in\n    tag_237:\n        /* \"v2-core-master/contracts/UniswapV2Pair.sol\":8215:8255  IERC20(_token0).balanceOf(address(this)) */\n      0x40\n      dup1\n      mload\n      shl(0xe0, 0x70a08231)\n      dup2\n      mstore\n        /* \"v2-core-master/contracts/UniswapV2Pair.sol\":8249:8253  this */\n      address\n        /* \"v2-core-master/contracts/UniswapV2Pair.sol\":8215:8255  IERC20(_token0).balanceOf(address(this)) */\n      0x04\n      dup3\n      add\n      mstore\n      swap1\n      mload\n      sub(shl(0xa0, 0x01), 0x01)\n        /* \"v2-core-master/contracts/UniswapV2Pair.sol\":8215:8240  IERC20(_token0).balanceOf */\n      dup10\n      and\n      swap2\n      0x70a08231\n      swap2\n        /* \"v2-core-master/contracts/UniswapV2Pair.sol\":8215:8255  IERC20(_token0).balanceOf(address(this)) */\n      0x24\n      dup1\n      dup4\n      add\n      swap3\n      0x20\n      swap3\n      swap2\n      swap1\n      dup3\n      swap1\n      sub\n      add\n      dup2\n        /* \"v2-core-master/contracts/UniswapV2Pair.sol\":8215:8240  IERC20(_token0).balanceOf */\n      dup7\n        /* \"v2-core-master/contracts/UniswapV2Pair.sol\":8215:8255  IERC20(_token0).balanceOf(address(this)) */\n      dup1\n      extcodesize\n      iszero\n        /* \"--CODEGEN--\":5:7   */\n      dup1\n      iszero\n      tag_238\n      jumpi\n        /* \"--CODEGEN--\":30:31   */\n      0x00\n        /* \"--CODEGEN--\":27:28   */\n      dup1\n        /* \"--CODEGEN--\":20:32   */\n      revert\n        /* \"--CODEGEN--\":5:7   */\n    tag_238:\n        /* \"v2-core-master/contracts/UniswapV2Pair.sol\":8215:8255  IERC20(_token0).balanceOf(address(this)) */\n      pop\n      gas\n      staticcall\n      iszero\n        /* \"--CODEGEN--\":8:17   */\n      dup1\n        /* \"--CODEGEN--\":5:7   */\n      iszero\n      tag_239\n      jumpi\n        /* \"--CODEGEN--\":45:61   */\n      returndatasize\n        /* \"--CODEGEN--\":42:43   */\n      0x00\n        /* \"--CODEGEN--\":39:40   */\n      dup1\n        /* \"--CODEGEN--\":24:62   */\n      returndatacopy\n        /* \"--CODEGEN--\":77:93   */\n      returndatasize\n        /* \"--CODEGEN--\":74:75   */\n      0x00\n        /* \"--CODEGEN--\":67:94   */\n      revert\n        /* \"--CODEGEN--\":5:7   */\n    tag_239:\n        /* \"v2-core-master/contracts/UniswapV2Pair.sol\":8215:8255  IERC20(_token0).balanceOf(address(this)) */\n      pop\n      pop\n      pop\n      pop\n      mload(0x40)\n      returndatasize\n        /* \"--CODEGEN--\":13:15   */\n      0x20\n        /* \"--CODEGEN--\":8:11   */\n      dup2\n        /* \"--CODEGEN--\":5:16   */\n      lt\n        /* \"--CODEGEN--\":2:4   */\n      iszero\n      tag_240\n      jumpi\n        /* \"--CODEGEN--\":29:30   */\n      0x00\n        /* \"--CODEGEN--\":26:27   */\n      dup1\n        /* \"--CODEGEN--\":19:31   */\n      revert\n        /* \"--CODEGEN--\":2:4   */\n    tag_240:\n      pop\n        /* \"v2-core-master/contracts/UniswapV2Pair.sol\":8215:8255  IERC20(_token0).balanceOf(address(this)) */\n      mload\n        /* \"v2-core-master/contracts/UniswapV2Pair.sol\":8276:8316  IERC20(_token1).balanceOf(address(this)) */\n      0x40\n      dup1\n      mload\n      shl(0xe0, 0x70a08231)\n      dup2\n      mstore\n        /* \"v2-core-master/contracts/UniswapV2Pair.sol\":8310:8314  this */\n      address\n        /* \"v2-core-master/contracts/UniswapV2Pair.sol\":8276:8316  IERC20(_token1).balanceOf(address(this)) */\n      0x04\n      dup3\n      add\n      mstore\n      swap1\n      mload\n        /* \"v2-core-master/contracts/UniswapV2Pair.sol\":8215:8255  IERC20(_token0).balanceOf(address(this)) */\n      swap2\n      swap7\n      pop\n      sub(shl(0xa0, 0x01), 0x01)\n        /* \"v2-core-master/contracts/UniswapV2Pair.sol\":8276:8301  IERC20(_token1).balanceOf */\n      dup9\n      and\n      swap2\n      0x70a08231\n      swap2\n        /* \"v2-core-master/contracts/UniswapV2Pair.sol\":8276:8316  IERC20(_token1).balanceOf(address(this)) */\n      0x24\n      dup1\n      dup3\n      add\n      swap3\n        /* \"v2-core-master/contracts/UniswapV2Pair.sol\":8215:8255  IERC20(_token0).balanceOf(address(this)) */\n      0x20\n      swap3\n        /* \"v2-core-master/contracts/UniswapV2Pair.sol\":8276:8316  IERC20(_token1).balanceOf(address(this)) */\n      swap1\n      swap2\n      swap1\n      dup3\n      swap1\n      sub\n      add\n      dup2\n        /* \"v2-core-master/contracts/UniswapV2Pair.sol\":8276:8301  IERC20(_token1).balanceOf */\n      dup7\n        /* \"v2-core-master/contracts/UniswapV2Pair.sol\":8276:8316  IERC20(_token1).balanceOf(address(this)) */\n      dup1\n      extcodesize\n      iszero\n        /* \"--CODEGEN--\":5:7   */\n      dup1\n      iszero\n      tag_241\n      jumpi\n        /* \"--CODEGEN--\":30:31   */\n      0x00\n        /* \"--CODEGEN--\":27:28   */\n      dup1\n        /* \"--CODEGEN--\":20:32   */\n      revert\n        /* \"--CODEGEN--\":5:7   */\n    tag_241:\n        /* \"v2-core-master/contracts/UniswapV2Pair.sol\":8276:8316  IERC20(_token1).balanceOf(address(this)) */\n      pop\n      gas\n      staticcall\n      iszero\n        /* \"--CODEGEN--\":8:17   */\n      dup1\n        /* \"--CODEGEN--\":5:7   */\n      iszero\n      tag_242\n      jumpi\n        /* \"--CODEGEN--\":45:61   */\n      returndatasize\n        /* \"--CODEGEN--\":42:43   */\n      0x00\n        /* \"--CODEGEN--\":39:40   */\n      dup1\n        /* \"--CODEGEN--\":24:62   */\n      returndatacopy\n        /* \"--CODEGEN--\":77:93   */\n      returndatasize\n        /* \"--CODEGEN--\":74:75   */\n      0x00\n        /* \"--CODEGEN--\":67:94   */\n      revert\n        /* \"--CODEGEN--\":5:7   */\n    tag_242:\n        /* \"v2-core-master/contracts/UniswapV2Pair.sol\":8276:8316  IERC20(_token1).balanceOf(address(this)) */\n      pop\n      pop\n      pop\n      pop\n      mload(0x40)\n      returndatasize\n        /* \"--CODEGEN--\":13:15   */\n      0x20\n        /* \"--CODEGEN--\":8:11   */\n      dup2\n        /* \"--CODEGEN--\":5:16   */\n      lt\n        /* \"--CODEGEN--\":2:4   */\n      iszero\n      tag_243\n      jumpi\n        /* \"--CODEGEN--\":29:30   */\n      0x00\n        /* \"--CODEGEN--\":26:27   */\n      dup1\n        /* \"--CODEGEN--\":19:31   */\n      revert\n        /* \"--CODEGEN--\":2:4   */\n    tag_243:\n      pop\n        /* \"v2-core-master/contracts/UniswapV2Pair.sol\":8276:8316  IERC20(_token1).balanceOf(address(this)) */\n      mload\n      swap4\n      pop\n        /* \"v2-core-master/contracts/UniswapV2Pair.sol\":8327:8376  _update(balance0, balance1, _reserve0, _reserve1) */\n      tag_244\n        /* \"v2-core-master/contracts/UniswapV2Pair.sol\":8335:8343  balance0 */\n      dup6\n        /* \"v2-core-master/contracts/UniswapV2Pair.sol\":8276:8316  IERC20(_token1).balanceOf(address(this)) */\n      dup6\n        /* \"v2-core-master/contracts/UniswapV2Pair.sol\":8355:8364  _reserve0 */\n      dup12\n        /* \"v2-core-master/contracts/UniswapV2Pair.sol\":8366:8375  _reserve1 */\n      dup12\n        /* \"v2-core-master/contracts/UniswapV2Pair.sol\":8327:8334  _update */\n      tag_169\n        /* \"v2-core-master/contracts/UniswapV2Pair.sol\":8327:8376  _update(balance0, balance1, _reserve0, _reserve1) */\n      jump\t// in\n    tag_244:\n        /* \"v2-core-master/contracts/UniswapV2Pair.sol\":8390:8395  feeOn */\n      dup2\n        /* \"v2-core-master/contracts/UniswapV2Pair.sol\":8386:8433  if (feeOn) kLast = uint(reserve0).mul(reserve1) */\n      iszero\n      tag_245\n      jumpi\n        /* \"v2-core-master/contracts/UniswapV2Pair.sol\":8424:8432  reserve1 */\n      sload(0x09)\n        /* \"v2-core-master/contracts/UniswapV2Pair.sol\":8405:8433  uint(reserve0).mul(reserve1) */\n      tag_246\n      swap1\n      sub(shl(0x70, 0x01), 0x01)\n        /* \"v2-core-master/contracts/UniswapV2Pair.sol\":8410:8418  reserve0 */\n      dup1\n      dup3\n      and\n      swap2\n      shl(0x70, 0x01)\n        /* \"v2-core-master/contracts/UniswapV2Pair.sol\":8424:8432  reserve1 */\n      swap1\n      div\n      and\n        /* \"v2-core-master/contracts/UniswapV2Pair.sol\":8405:8433  uint(reserve0).mul(reserve1) */\n      0xffffffff\n        /* \"v2-core-master/contracts/UniswapV2Pair.sol\":8405:8423  uint(reserve0).mul */\n      tag_158\n        /* \"v2-core-master/contracts/UniswapV2Pair.sol\":8405:8433  uint(reserve0).mul(reserve1) */\n      and\n      jump\t// in\n    tag_246:\n        /* \"v2-core-master/contracts/UniswapV2Pair.sol\":8397:8402  kLast */\n      0x0c\n        /* \"v2-core-master/contracts/UniswapV2Pair.sol\":8397:8433  kLast = uint(reserve0).mul(reserve1) */\n      sstore\n        /* \"v2-core-master/contracts/UniswapV2Pair.sol\":8386:8433  if (feeOn) kLast = uint(reserve0).mul(reserve1) */\n    tag_245:\n        /* \"v2-core-master/contracts/UniswapV2Pair.sol\":8488:8526  Burn(msg.sender, amount0, amount1, to) */\n      0x40\n      dup1\n      mload\n      dup13\n      dup2\n      mstore\n      0x20\n      dup2\n      add\n      dup13\n      swap1\n      mstore\n      dup2\n      mload\n      sub(shl(0xa0, 0x01), 0x01)\n      dup16\n      and\n      swap3\n        /* \"v2-core-master/contracts/UniswapV2Pair.sol\":8493:8503  msg.sender */\n      caller\n      swap3\n        /* \"v2-core-master/contracts/UniswapV2Pair.sol\":8488:8526  Burn(msg.sender, amount0, amount1, to) */\n      0xdccd412f0b1252819cb1fd330b93224ca42612892bb3f4f789976e6d81936496\n      swap3\n      swap1\n      dup2\n      swap1\n      sub\n      swap1\n      swap2\n      add\n      swap1\n      log3\n        /* \"v2-core-master/contracts/UniswapV2Pair.sol\":1228:1229  _ */\n      pop\n      pop\n      pop\n      pop\n      pop\n      pop\n      pop\n      pop\n      pop\n        /* \"v2-core-master/contracts/UniswapV2Pair.sol\":1250:1251  1 */\n      0x01\n        /* \"v2-core-master/contracts/UniswapV2Pair.sol\":1239:1247  unlocked */\n      0x0d\n        /* \"v2-core-master/contracts/UniswapV2Pair.sol\":1239:1251  unlocked = 1 */\n      dup2\n      swap1\n      sstore\n      pop\n        /* \"v2-core-master/contracts/UniswapV2Pair.sol\":7122:8533  function burn(address to) external lock returns (uint amount0, uint amount1) {... */\n      swap2\n      pop\n      swap2\n      jump\t// out\n        /* \"v2-core-master/contracts/UniswapV2ERC20.sol\":241:280  string public constant symbol = 'ESWAP' */\n    tag_98:\n      mload(0x40)\n      dup1\n      0x40\n      add\n      0x40\n      mstore\n      dup1\n      0x05\n      dup2\n      mstore\n      0x20\n      add\n      shl(0xdc, 0x0455357415)\n      dup2\n      mstore\n      pop\n      dup2\n      jump\t// out\n        /* \"v2-core-master/contracts/UniswapV2ERC20.sol\":3010:3146  function transfer(address to, uint value) external returns (bool) {... */\n    tag_105:\n        /* \"v2-core-master/contracts/UniswapV2ERC20.sol\":3070:3074  bool */\n      0x00\n        /* \"v2-core-master/contracts/UniswapV2ERC20.sol\":3086:3118  _transfer(msg.sender, to, value) */\n      tag_172\n        /* \"v2-core-master/contracts/UniswapV2ERC20.sol\":3096:3106  msg.sender */\n      caller\n        /* \"v2-core-master/contracts/UniswapV2ERC20.sol\":3108:3110  to */\n      dup5\n        /* \"v2-core-master/contracts/UniswapV2ERC20.sol\":3112:3117  value */\n      dup5\n        /* \"v2-core-master/contracts/UniswapV2ERC20.sol\":3086:3095  _transfer */\n      tag_178\n        /* \"v2-core-master/contracts/UniswapV2ERC20.sol\":3086:3118  _transfer(msg.sender, to, value) */\n      jump\t// in\n        /* \"v2-core-master/contracts/UniswapV2Pair.sol\":416:464  uint public constant MINIMUM_LIQUIDITY = 10 ** 3 */\n    tag_107:\n        /* \"v2-core-master/contracts/UniswapV2Pair.sol\":457:464  10 ** 3 */\n      0x03e8\n        /* \"v2-core-master/contracts/UniswapV2Pair.sol\":416:464  uint public constant MINIMUM_LIQUIDITY = 10 ** 3 */\n      dup2\n      jump\t// out\n        /* \"v2-core-master/contracts/UniswapV2Pair.sol\":10666:10995  function skim(address to) external lock {... */\n    tag_110:\n        /* \"v2-core-master/contracts/UniswapV2Pair.sol\":1161:1169  unlocked */\n      sload(0x0d)\n        /* \"v2-core-master/contracts/UniswapV2Pair.sol\":1173:1174  1 */\n      0x01\n        /* \"v2-core-master/contracts/UniswapV2Pair.sol\":1161:1174  unlocked == 1 */\n      eq\n        /* \"v2-core-master/contracts/UniswapV2Pair.sol\":1153:1196  require(unlocked == 1, 'UniswapV2: LOCKED') */\n      tag_250\n      jumpi\n      0x40\n      dup1\n      mload\n      shl(0xe5, 0x461bcd)\n      dup2\n      mstore\n      0x20\n      0x04\n      dup3\n      add\n      mstore\n      0x11\n      0x24\n      dup3\n      add\n      mstore\n      shl(0x7a, 0x155b9a5cddd85c158c8e881313d0d2d151)\n      0x44\n      dup3\n      add\n      mstore\n      swap1\n      mload\n      swap1\n      dup2\n      swap1\n      sub\n      0x64\n      add\n      swap1\n      revert\n    tag_250:\n        /* \"v2-core-master/contracts/UniswapV2Pair.sol\":1217:1218  0 */\n      0x00\n        /* \"v2-core-master/contracts/UniswapV2Pair.sol\":1206:1214  unlocked */\n      0x0d\n        /* \"v2-core-master/contracts/UniswapV2Pair.sol\":1206:1218  unlocked = 0 */\n      sstore\n        /* \"v2-core-master/contracts/UniswapV2Pair.sol\":10734:10740  token0 */\n      sload(0x07)\n        /* \"v2-core-master/contracts/UniswapV2Pair.sol\":10783:10789  token1 */\n      sload(0x08)\n        /* \"v2-core-master/contracts/UniswapV2Pair.sol\":10886:10894  reserve0 */\n      sload(0x09)\n        /* \"v2-core-master/contracts/UniswapV2Pair.sol\":10841:10881  IERC20(_token0).balanceOf(address(this)) */\n      0x40\n      dup1\n      mload\n      shl(0xe0, 0x70a08231)\n      dup2\n      mstore\n        /* \"v2-core-master/contracts/UniswapV2Pair.sol\":10875:10879  this */\n      address\n        /* \"v2-core-master/contracts/UniswapV2Pair.sol\":10841:10881  IERC20(_token0).balanceOf(address(this)) */\n      0x04\n      dup3\n      add\n      mstore\n      swap1\n      mload\n      sub(shl(0xa0, 0x01), 0x01)\n        /* \"v2-core-master/contracts/UniswapV2Pair.sol\":10734:10740  token0 */\n      swap5\n      dup6\n      and\n      swap5\n        /* \"v2-core-master/contracts/UniswapV2Pair.sol\":10783:10789  token1 */\n      swap1\n      swap4\n      and\n      swap3\n        /* \"v2-core-master/contracts/UniswapV2Pair.sol\":10814:10896  _safeTransfer(_token0, to, IERC20(_token0).balanceOf(address(this)).sub(reserve0)) */\n      tag_252\n      swap3\n        /* \"v2-core-master/contracts/UniswapV2Pair.sol\":10734:10740  token0 */\n      dup6\n      swap3\n        /* \"v2-core-master/contracts/UniswapV2Pair.sol\":10837:10839  to */\n      dup8\n      swap3\n        /* \"v2-core-master/contracts/UniswapV2Pair.sol\":10841:10895  IERC20(_token0).balanceOf(address(this)).sub(reserve0) */\n      tag_253\n      swap3\n      sub(shl(0x70, 0x01), 0x01)\n        /* \"v2-core-master/contracts/UniswapV2Pair.sol\":10886:10894  reserve0 */\n      and\n      swap2\n        /* \"v2-core-master/contracts/UniswapV2Pair.sol\":10734:10740  token0 */\n      dup6\n      swap2\n        /* \"v2-core-master/contracts/UniswapV2Pair.sol\":10841:10866  IERC20(_token0).balanceOf */\n      0x70a08231\n      swap2\n        /* \"v2-core-master/contracts/UniswapV2Pair.sol\":10841:10881  IERC20(_token0).balanceOf(address(this)) */\n      0x24\n      dup1\n      dup3\n      add\n      swap3\n      0x20\n      swap3\n      swap1\n      swap2\n      swap1\n      dup3\n      swap1\n      sub\n      add\n      dup2\n        /* \"v2-core-master/contracts/UniswapV2Pair.sol\":10734:10740  token0 */\n      dup7\n        /* \"v2-core-master/contracts/UniswapV2Pair.sol\":10841:10881  IERC20(_token0).balanceOf(address(this)) */\n      dup1\n      extcodesize\n      iszero\n        /* \"--CODEGEN--\":5:7   */\n      dup1\n      iszero\n      tag_254\n      jumpi\n        /* \"--CODEGEN--\":30:31   */\n      0x00\n        /* \"--CODEGEN--\":27:28   */\n      dup1\n        /* \"--CODEGEN--\":20:32   */\n      revert\n        /* \"--CODEGEN--\":5:7   */\n    tag_254:\n        /* \"v2-core-master/contracts/UniswapV2Pair.sol\":10841:10881  IERC20(_token0).balanceOf(address(this)) */\n      pop\n      gas\n      staticcall\n      iszero\n        /* \"--CODEGEN--\":8:17   */\n      dup1\n        /* \"--CODEGEN--\":5:7   */\n      iszero\n      tag_255\n      jumpi\n        /* \"--CODEGEN--\":45:61   */\n      returndatasize\n        /* \"--CODEGEN--\":42:43   */\n      0x00\n        /* \"--CODEGEN--\":39:40   */\n      dup1\n        /* \"--CODEGEN--\":24:62   */\n      returndatacopy\n        /* \"--CODEGEN--\":77:93   */\n      returndatasize\n        /* \"--CODEGEN--\":74:75   */\n      0x00\n        /* \"--CODEGEN--\":67:94   */\n      revert\n        /* \"--CODEGEN--\":5:7   */\n    tag_255:\n        /* \"v2-core-master/contracts/UniswapV2Pair.sol\":10841:10881  IERC20(_token0).balanceOf(address(this)) */\n      pop\n      pop\n      pop\n      pop\n      mload(0x40)\n      returndatasize\n        /* \"--CODEGEN--\":13:15   */\n      0x20\n        /* \"--CODEGEN--\":8:11   */\n      dup2\n        /* \"--CODEGEN--\":5:16   */\n      lt\n        /* \"--CODEGEN--\":2:4   */\n      iszero\n      tag_256\n      jumpi\n        /* \"--CODEGEN--\":29:30   */\n      0x00\n        /* \"--CODEGEN--\":26:27   */\n      dup1\n        /* \"--CODEGEN--\":19:31   */\n      revert\n        /* \"--CODEGEN--\":2:4   */\n    tag_256:\n      pop\n        /* \"v2-core-master/contracts/UniswapV2Pair.sol\":10841:10881  IERC20(_token0).balanceOf(address(this)) */\n      mload\n      swap1\n        /* \"v2-core-master/contracts/UniswapV2Pair.sol\":10841:10895  IERC20(_token0).balanceOf(address(this)).sub(reserve0) */\n      0xffffffff\n        /* \"v2-core-master/contracts/UniswapV2Pair.sol\":10841:10885  IERC20(_token0).balanceOf(address(this)).sub */\n      tag_160\n        /* \"v2-core-master/contracts/UniswapV2Pair.sol\":10841:10895  IERC20(_token0).balanceOf(address(this)).sub(reserve0) */\n      and\n      jump\t// in\n    tag_253:\n        /* \"v2-core-master/contracts/UniswapV2Pair.sol\":10814:10827  _safeTransfer */\n      tag_138\n        /* \"v2-core-master/contracts/UniswapV2Pair.sol\":10814:10896  _safeTransfer(_token0, to, IERC20(_token0).balanceOf(address(this)).sub(reserve0)) */\n      jump\t// in\n    tag_252:\n        /* \"v2-core-master/contracts/UniswapV2Pair.sol\":10978:10986  reserve1 */\n      sload(0x09)\n        /* \"v2-core-master/contracts/UniswapV2Pair.sol\":10933:10973  IERC20(_token1).balanceOf(address(this)) */\n      0x40\n      dup1\n      mload\n      shl(0xe0, 0x70a08231)\n      dup2\n      mstore\n        /* \"v2-core-master/contracts/UniswapV2Pair.sol\":10967:10971  this */\n      address\n        /* \"v2-core-master/contracts/UniswapV2Pair.sol\":10933:10973  IERC20(_token1).balanceOf(address(this)) */\n      0x04\n      dup3\n      add\n      mstore\n      swap1\n      mload\n        /* \"v2-core-master/contracts/UniswapV2Pair.sol\":10906:10988  _safeTransfer(_token1, to, IERC20(_token1).balanceOf(address(this)).sub(reserve1)) */\n      tag_257\n      swap3\n        /* \"v2-core-master/contracts/UniswapV2Pair.sol\":10920:10927  _token1 */\n      dup5\n      swap3\n        /* \"v2-core-master/contracts/UniswapV2Pair.sol\":10929:10931  to */\n      dup8\n      swap3\n        /* \"v2-core-master/contracts/UniswapV2Pair.sol\":10933:10987  IERC20(_token1).balanceOf(address(this)).sub(reserve1) */\n      tag_253\n      swap3\n      shl(0x70, 0x01)\n        /* \"v2-core-master/contracts/UniswapV2Pair.sol\":10978:10986  reserve1 */\n      swap1\n      div\n      sub(shl(0x70, 0x01), 0x01)\n      and\n      swap2\n      sub(shl(0xa0, 0x01), 0x01)\n        /* \"v2-core-master/contracts/UniswapV2Pair.sol\":10933:10958  IERC20(_token1).balanceOf */\n      dup7\n      and\n      swap2\n      0x70a08231\n      swap2\n        /* \"v2-core-master/contracts/UniswapV2Pair.sol\":10933:10973  IERC20(_token1).balanceOf(address(this)) */\n      0x24\n      dup1\n      dup3\n      add\n      swap3\n      0x20\n      swap3\n      swap1\n      swap2\n      swap1\n      dup3\n      swap1\n      sub\n      add\n      dup2\n        /* \"v2-core-master/contracts/UniswapV2Pair.sol\":10933:10958  IERC20(_token1).balanceOf */\n      dup7\n        /* \"v2-core-master/contracts/UniswapV2Pair.sol\":10933:10973  IERC20(_token1).balanceOf(address(this)) */\n      dup1\n      extcodesize\n      iszero\n        /* \"--CODEGEN--\":5:7   */\n      dup1\n      iszero\n      tag_254\n      jumpi\n        /* \"--CODEGEN--\":30:31   */\n      0x00\n        /* \"--CODEGEN--\":27:28   */\n      dup1\n        /* \"--CODEGEN--\":20:32   */\n      revert\n        /* \"v2-core-master/contracts/UniswapV2Pair.sol\":10906:10988  _safeTransfer(_token1, to, IERC20(_token1).balanceOf(address(this)).sub(reserve1)) */\n    tag_257:\n      pop\n      pop\n        /* \"v2-core-master/contracts/UniswapV2Pair.sol\":1250:1251  1 */\n      0x01\n        /* \"v2-core-master/contracts/UniswapV2Pair.sol\":1239:1247  unlocked */\n      0x0d\n        /* \"v2-core-master/contracts/UniswapV2Pair.sol\":1239:1251  unlocked = 1 */\n      sstore\n      pop\n        /* \"v2-core-master/contracts/UniswapV2Pair.sol\":10666:10995  function skim(address to) external lock {... */\n      jump\t// out\n        /* \"v2-core-master/contracts/UniswapV2Pair.sol\":565:587  address public factory */\n    tag_112:\n      and(sub(shl(0xa0, 0x01), 0x01), sload(0x06))\n      dup2\n      jump\t// out\n        /* \"v2-core-master/contracts/UniswapV2Pair.sol\":620:641  address public token1 */\n    tag_114:\n      and(sub(shl(0xa0, 0x01), 0x01), sload(0x08))\n      dup2\n      jump\t// out\n        /* \"v2-core-master/contracts/UniswapV2ERC20.sol\":3453:4115  function permit(address owner, address spender, uint value, uint deadline, uint8 v, bytes32 r, bytes32 s) external {... */\n    tag_117:\n        /* \"v2-core-master/contracts/UniswapV2ERC20.sol\":3598:3613  block.timestamp */\n      timestamp\n        /* \"v2-core-master/contracts/UniswapV2ERC20.sol\":3586:3594  deadline */\n      dup5\n        /* \"v2-core-master/contracts/UniswapV2ERC20.sol\":3586:3613  deadline >= block.timestamp */\n      lt\n      iszero\n        /* \"v2-core-master/contracts/UniswapV2ERC20.sol\":3578:3636  require(deadline >= block.timestamp, 'UniswapV2: EXPIRED') */\n      tag_263\n      jumpi\n      0x40\n      dup1\n      mload\n      shl(0xe5, 0x461bcd)\n      dup2\n      mstore\n      0x20\n      0x04\n      dup3\n      add\n      mstore\n      0x12\n      0x24\n      dup3\n      add\n      mstore\n      shl(0x72, 0x155b9a5cddd85c158c8e8811561412549151)\n      0x44\n      dup3\n      add\n      mstore\n      swap1\n      mload\n      swap1\n      dup2\n      swap1\n      sub\n      0x64\n      add\n      swap1\n      revert\n    tag_263:\n        /* \"v2-core-master/contracts/UniswapV2ERC20.sol\":3748:3764  DOMAIN_SEPARATOR */\n      sload(0x04)\n      sub(shl(0xa0, 0x01), 0x01)\n        /* \"v2-core-master/contracts/UniswapV2ERC20.sol\":3843:3856  nonces[owner] */\n      dup1\n      dup10\n      and\n        /* \"v2-core-master/contracts/UniswapV2ERC20.sol\":3646:3660  bytes32 digest */\n      0x00\n        /* \"v2-core-master/contracts/UniswapV2ERC20.sol\":3843:3856  nonces[owner] */\n      dup2\n      dup2\n      mstore\n        /* \"v2-core-master/contracts/UniswapV2ERC20.sol\":3843:3849  nonces */\n      0x05\n        /* \"v2-core-master/contracts/UniswapV2ERC20.sol\":3843:3856  nonces[owner] */\n      0x20\n      swap1\n      dup2\n      mstore\n      0x40\n      dup1\n      dup4\n      keccak256\n        /* \"v2-core-master/contracts/UniswapV2ERC20.sol\":3843:3858  nonces[owner]++ */\n      dup1\n      sload\n      0x01\n      dup1\n      dup3\n      add\n      swap1\n      swap3\n      sstore\n        /* \"v2-core-master/contracts/UniswapV2ERC20.sol\":3792:3869  abi.encode(PERMIT_TYPEHASH, owner, spender, value, nonces[owner]++, deadline) */\n      dup3\n      mload\n        /* \"v2-core-master/contracts/UniswapV2ERC20.sol\":721:787  0x6e71edae12b1b97f4d1f60370fef10105fa2faae0126114a169c64845d6126c9 */\n      0x6e71edae12b1b97f4d1f60370fef10105fa2faae0126114a169c64845d6126c9\n        /* \"v2-core-master/contracts/UniswapV2ERC20.sol\":3792:3869  abi.encode(PERMIT_TYPEHASH, owner, spender, value, nonces[owner]++, deadline) */\n      dup2\n      dup7\n      add\n      mstore\n      dup1\n      dup5\n      add\n      swap7\n      swap1\n      swap7\n      mstore\n      swap6\n      dup14\n      and\n      0x60\n      dup7\n      add\n      mstore\n      0x80\n      dup6\n      add\n      dup13\n      swap1\n      mstore\n      0xa0\n      dup6\n      add\n      swap6\n      swap1\n      swap6\n      mstore\n      0xc0\n      dup1\n      dup6\n      add\n      dup12\n      swap1\n      mstore\n      dup2\n      mload\n        /* \"--CODEGEN--\":26:47   */\n      dup1\n      dup7\n      sub\n        /* \"--CODEGEN--\":22:54   */\n      swap1\n      swap2\n      add\n        /* \"--CODEGEN--\":6:55   */\n      dup2\n      mstore\n        /* \"v2-core-master/contracts/UniswapV2ERC20.sol\":3792:3869  abi.encode(PERMIT_TYPEHASH, owner, spender, value, nonces[owner]++, deadline) */\n      0xe0\n      dup6\n      add\n      dup3\n      mstore\n        /* \"v2-core-master/contracts/UniswapV2ERC20.sol\":3782:3870  keccak256(abi.encode(PERMIT_TYPEHASH, owner, spender, value, nonces[owner]++, deadline)) */\n      dup1\n      mload\n      swap1\n      dup4\n      add\n      keccak256\n      shl(0xf0, 0x1901)\n        /* \"v2-core-master/contracts/UniswapV2ERC20.sol\":3686:3884  abi.encodePacked(... */\n      0x0100\n      dup7\n      add\n      mstore\n      0x0102\n      dup6\n      add\n      swap7\n      swap1\n      swap7\n      mstore\n      0x0122\n      dup1\n      dup6\n      add\n      swap7\n      swap1\n      swap7\n      mstore\n      dup1\n      mload\n        /* \"--CODEGEN--\":26:47   */\n      dup1\n      dup6\n      sub\n        /* \"--CODEGEN--\":22:54   */\n      swap1\n      swap7\n      add\n        /* \"--CODEGEN--\":6:55   */\n      dup7\n      mstore\n        /* \"v2-core-master/contracts/UniswapV2ERC20.sol\":3686:3884  abi.encodePacked(... */\n      0x0142\n      dup5\n      add\n      dup1\n      dup3\n      mstore\n        /* \"v2-core-master/contracts/UniswapV2ERC20.sol\":3663:3894  keccak256(... */\n      dup7\n      mload\n      swap7\n      dup4\n      add\n      swap7\n      swap1\n      swap7\n      keccak256\n        /* \"v2-core-master/contracts/UniswapV2ERC20.sol\":3931:3957  ecrecover(digest, v, r, s) */\n      swap6\n      dup4\n      swap1\n      mstore\n      0x0162\n      dup5\n      add\n      dup1\n      dup3\n      mstore\n      dup7\n      swap1\n      mstore\n      0xff\n      dup10\n      and\n      0x0182\n      dup6\n      add\n      mstore\n      0x01a2\n      dup5\n      add\n      dup9\n      swap1\n      mstore\n      0x01c2\n      dup5\n      add\n      dup8\n      swap1\n      mstore\n      mload\n        /* \"v2-core-master/contracts/UniswapV2ERC20.sol\":3646:3660  bytes32 digest */\n      swap2\n      swap4\n        /* \"v2-core-master/contracts/UniswapV2ERC20.sol\":3843:3858  nonces[owner]++ */\n      swap3\n        /* \"v2-core-master/contracts/UniswapV2ERC20.sol\":3931:3957  ecrecover(digest, v, r, s) */\n      0x01e2\n      dup1\n      dup3\n      add\n      swap4\n      not(0x1f)\n      dup2\n      add\n      swap3\n      dup2\n      swap1\n      sub\n      swap1\n      swap2\n      add\n      swap1\n        /* \"v2-core-master/contracts/UniswapV2ERC20.sol\":3843:3858  nonces[owner]++ */\n      dup6\n        /* \"v2-core-master/contracts/UniswapV2ERC20.sol\":3931:3957  ecrecover(digest, v, r, s) */\n      gas\n      staticcall\n      iszero\n        /* \"--CODEGEN--\":8:17   */\n      dup1\n        /* \"--CODEGEN--\":5:7   */\n      iszero\n      tag_264\n      jumpi\n        /* \"--CODEGEN--\":45:61   */\n      returndatasize\n        /* \"--CODEGEN--\":42:43   */\n      0x00\n        /* \"--CODEGEN--\":39:40   */\n      dup1\n        /* \"--CODEGEN--\":24:62   */\n      returndatacopy\n        /* \"--CODEGEN--\":77:93   */\n      returndatasize\n        /* \"--CODEGEN--\":74:75   */\n      0x00\n        /* \"--CODEGEN--\":67:94   */\n      revert\n        /* \"--CODEGEN--\":5:7   */\n    tag_264:\n      pop\n      pop\n        /* \"v2-core-master/contracts/UniswapV2ERC20.sol\":3931:3957  ecrecover(digest, v, r, s) */\n      mload(add(not(0x1f), mload(0x40)))\n      swap2\n      pop\n      pop\n      sub(shl(0xa0, 0x01), 0x01)\n        /* \"v2-core-master/contracts/UniswapV2ERC20.sol\":3975:4005  recoveredAddress != address(0) */\n      dup2\n      and\n      iszero\n      dup1\n      iszero\n      swap1\n        /* \"v2-core-master/contracts/UniswapV2ERC20.sol\":3975:4034  recoveredAddress != address(0) && recoveredAddress == owner */\n      tag_265\n      jumpi\n      pop\n        /* \"v2-core-master/contracts/UniswapV2ERC20.sol\":4029:4034  owner */\n      dup9\n      sub(shl(0xa0, 0x01), 0x01)\n        /* \"v2-core-master/contracts/UniswapV2ERC20.sol\":4009:4034  recoveredAddress == owner */\n      and\n        /* \"v2-core-master/contracts/UniswapV2ERC20.sol\":4009:4025  recoveredAddress */\n      dup2\n      sub(shl(0xa0, 0x01), 0x01)\n        /* \"v2-core-master/contracts/UniswapV2ERC20.sol\":4009:4034  recoveredAddress == owner */\n      and\n      eq\n        /* \"v2-core-master/contracts/UniswapV2ERC20.sol\":3975:4034  recoveredAddress != address(0) && recoveredAddress == owner */\n    tag_265:\n        /* \"v2-core-master/contracts/UniswapV2ERC20.sol\":3967:4067  require(recoveredAddress != address(0) && recoveredAddress == owner, 'UniswapV2: INVALID_SIGNATURE') */\n      tag_266\n      jumpi\n      0x40\n      dup1\n      mload\n      shl(0xe5, 0x461bcd)\n      dup2\n      mstore\n      0x20\n      0x04\n      dup3\n      add\n      mstore\n      0x1c\n      0x24\n      dup3\n      add\n      mstore\n      0x556e697377617056323a20494e56414c49445f5349474e415455524500000000\n      0x44\n      dup3\n      add\n      mstore\n      swap1\n      mload\n      swap1\n      dup2\n      swap1\n      sub\n      0x64\n      add\n      swap1\n      revert\n    tag_266:\n        /* \"v2-core-master/contracts/UniswapV2ERC20.sol\":4077:4108  _approve(owner, spender, value) */\n      tag_267\n        /* \"v2-core-master/contracts/UniswapV2ERC20.sol\":4086:4091  owner */\n      dup10\n        /* \"v2-core-master/contracts/UniswapV2ERC20.sol\":4093:4100  spender */\n      dup10\n        /* \"v2-core-master/contracts/UniswapV2ERC20.sol\":4102:4107  value */\n      dup10\n        /* \"v2-core-master/contracts/UniswapV2ERC20.sol\":4077:4085  _approve */\n      tag_173\n        /* \"v2-core-master/contracts/UniswapV2ERC20.sol\":4077:4108  _approve(owner, spender, value) */\n      jump\t// in\n    tag_267:\n        /* \"v2-core-master/contracts/UniswapV2ERC20.sol\":3453:4115  function permit(address owner, address spender, uint value, uint deadline, uint8 v, bytes32 r, bytes32 s) external {... */\n      pop\n      pop\n      pop\n      pop\n      pop\n      pop\n      pop\n      pop\n      pop\n      jump\t// out\n        /* \"v2-core-master/contracts/UniswapV2Pair.sol\":5778:7013  function Lockmint(address to) external lock returns (uint liquidity) {... */\n    tag_120:\n        /* \"v2-core-master/contracts/UniswapV2Pair.sol\":5831:5845  uint liquidity */\n      0x00\n        /* \"v2-core-master/contracts/UniswapV2Pair.sol\":1161:1169  unlocked */\n      sload(0x0d)\n        /* \"v2-core-master/contracts/UniswapV2Pair.sol\":1173:1174  1 */\n      0x01\n        /* \"v2-core-master/contracts/UniswapV2Pair.sol\":1161:1174  unlocked == 1 */\n      eq\n        /* \"v2-core-master/contracts/UniswapV2Pair.sol\":1153:1196  require(unlocked == 1, 'UniswapV2: LOCKED') */\n      tag_269\n      jumpi\n      0x40\n      dup1\n      mload\n      shl(0xe5, 0x461bcd)\n      dup2\n      mstore\n      0x20\n      0x04\n      dup3\n      add\n      mstore\n      0x11\n      0x24\n      dup3\n      add\n      mstore\n      shl(0x7a, 0x155b9a5cddd85c158c8e881313d0d2d151)\n      0x44\n      dup3\n      add\n      mstore\n      swap1\n      mload\n      swap1\n      dup2\n      swap1\n      sub\n      0x64\n      add\n      swap1\n      revert\n    tag_269:\n        /* \"v2-core-master/contracts/UniswapV2Pair.sol\":1217:1218  0 */\n      0x00\n        /* \"v2-core-master/contracts/UniswapV2Pair.sol\":1206:1214  unlocked */\n      0x0d\n        /* \"v2-core-master/contracts/UniswapV2Pair.sol\":1206:1218  unlocked = 0 */\n      dup2\n      swap1\n      sstore\n        /* \"v2-core-master/contracts/UniswapV2Pair.sol\":1217:1218  0 */\n      dup1\n        /* \"v2-core-master/contracts/UniswapV2Pair.sol\":5900:5913  getReserves() */\n      tag_271\n        /* \"v2-core-master/contracts/UniswapV2Pair.sol\":5900:5911  getReserves */\n      tag_53\n        /* \"v2-core-master/contracts/UniswapV2Pair.sol\":5900:5913  getReserves() */\n      jump\t// in\n    tag_271:\n      pop\n        /* \"v2-core-master/contracts/UniswapV2Pair.sol\":5961:5967  token0 */\n      sload(0x07)\n        /* \"v2-core-master/contracts/UniswapV2Pair.sol\":5954:5993  IERC20(token0).balanceOf(address(this)) */\n      0x40\n      dup1\n      mload\n      shl(0xe0, 0x70a08231)\n      dup2\n      mstore\n        /* \"v2-core-master/contracts/UniswapV2Pair.sol\":5987:5991  this */\n      address\n        /* \"v2-core-master/contracts/UniswapV2Pair.sol\":5954:5993  IERC20(token0).balanceOf(address(this)) */\n      0x04\n      dup3\n      add\n      mstore\n      swap1\n      mload\n        /* \"v2-core-master/contracts/UniswapV2Pair.sol\":5857:5913  (uint112 _reserve0, uint112 _reserve1, ) = getReserves() */\n      swap4\n      swap6\n      pop\n      swap2\n      swap4\n      pop\n        /* \"v2-core-master/contracts/UniswapV2Pair.sol\":5938:5951  uint balance0 */\n      0x00\n      swap3\n      sub(shl(0xa0, 0x01), 0x01)\n        /* \"v2-core-master/contracts/UniswapV2Pair.sol\":5961:5967  token0 */\n      swap1\n      swap2\n      and\n      swap2\n        /* \"v2-core-master/contracts/UniswapV2Pair.sol\":5954:5978  IERC20(token0).balanceOf */\n      0x70a08231\n      swap2\n        /* \"v2-core-master/contracts/UniswapV2Pair.sol\":5954:5993  IERC20(token0).balanceOf(address(this)) */\n      0x24\n      dup1\n      dup4\n      add\n      swap3\n      0x20\n      swap3\n      swap2\n      swap1\n      dup3\n      swap1\n      sub\n      add\n      dup2\n        /* \"v2-core-master/contracts/UniswapV2Pair.sol\":5961:5967  token0 */\n      dup7\n        /* \"v2-core-master/contracts/UniswapV2Pair.sol\":5954:5993  IERC20(token0).balanceOf(address(this)) */\n      dup1\n      extcodesize\n      iszero\n        /* \"--CODEGEN--\":5:7   */\n      dup1\n      iszero\n      tag_272\n      jumpi\n        /* \"--CODEGEN--\":30:31   */\n      0x00\n        /* \"--CODEGEN--\":27:28   */\n      dup1\n        /* \"--CODEGEN--\":20:32   */\n      revert\n        /* \"--CODEGEN--\":5:7   */\n    tag_272:\n        /* \"v2-core-master/contracts/UniswapV2Pair.sol\":5954:5993  IERC20(token0).balanceOf(address(this)) */\n      pop\n      gas\n      staticcall\n      iszero\n        /* \"--CODEGEN--\":8:17   */\n      dup1\n        /* \"--CODEGEN--\":5:7   */\n      iszero\n      tag_273\n      jumpi\n        /* \"--CODEGEN--\":45:61   */\n      returndatasize\n        /* \"--CODEGEN--\":42:43   */\n      0x00\n        /* \"--CODEGEN--\":39:40   */\n      dup1\n        /* \"--CODEGEN--\":24:62   */\n      returndatacopy\n        /* \"--CODEGEN--\":77:93   */\n      returndatasize\n        /* \"--CODEGEN--\":74:75   */\n      0x00\n        /* \"--CODEGEN--\":67:94   */\n      revert\n        /* \"--CODEGEN--\":5:7   */\n    tag_273:\n        /* \"v2-core-master/contracts/UniswapV2Pair.sol\":5954:5993  IERC20(token0).balanceOf(address(this)) */\n      pop\n      pop\n      pop\n      pop\n      mload(0x40)\n      returndatasize\n        /* \"--CODEGEN--\":13:15   */\n      0x20\n        /* \"--CODEGEN--\":8:11   */\n      dup2\n        /* \"--CODEGEN--\":5:16   */\n      lt\n        /* \"--CODEGEN--\":2:4   */\n      iszero\n      tag_274\n      jumpi\n        /* \"--CODEGEN--\":29:30   */\n      0x00\n        /* \"--CODEGEN--\":26:27   */\n      dup1\n        /* \"--CODEGEN--\":19:31   */\n      revert\n        /* \"--CODEGEN--\":2:4   */\n    tag_274:\n      pop\n        /* \"v2-core-master/contracts/UniswapV2Pair.sol\":5954:5993  IERC20(token0).balanceOf(address(this)) */\n      mload\n        /* \"v2-core-master/contracts/UniswapV2Pair.sol\":6026:6032  token1 */\n      sload(0x08)\n        /* \"v2-core-master/contracts/UniswapV2Pair.sol\":6019:6058  IERC20(token1).balanceOf(address(this)) */\n      0x40\n      dup1\n      mload\n      shl(0xe0, 0x70a08231)\n      dup2\n      mstore\n        /* \"v2-core-master/contracts/UniswapV2Pair.sol\":6052:6056  this */\n      address\n        /* \"v2-core-master/contracts/UniswapV2Pair.sol\":6019:6058  IERC20(token1).balanceOf(address(this)) */\n      0x04\n      dup3\n      add\n      mstore\n      swap1\n      mload\n        /* \"v2-core-master/contracts/UniswapV2Pair.sol\":5954:5993  IERC20(token0).balanceOf(address(this)) */\n      swap3\n      swap4\n      pop\n        /* \"v2-core-master/contracts/UniswapV2Pair.sol\":6003:6016  uint balance1 */\n      0x00\n      swap3\n      sub(shl(0xa0, 0x01), 0x01)\n        /* \"v2-core-master/contracts/UniswapV2Pair.sol\":6026:6032  token1 */\n      swap1\n      swap3\n      and\n      swap2\n        /* \"v2-core-master/contracts/UniswapV2Pair.sol\":6019:6043  IERC20(token1).balanceOf */\n      0x70a08231\n      swap2\n        /* \"v2-core-master/contracts/UniswapV2Pair.sol\":6019:6058  IERC20(token1).balanceOf(address(this)) */\n      0x24\n      dup1\n      dup3\n      add\n      swap3\n        /* \"v2-core-master/contracts/UniswapV2Pair.sol\":5954:5993  IERC20(token0).balanceOf(address(this)) */\n      0x20\n      swap3\n        /* \"v2-core-master/contracts/UniswapV2Pair.sol\":6019:6058  IERC20(token1).balanceOf(address(this)) */\n      swap1\n      swap2\n      swap1\n      dup3\n      swap1\n      sub\n      add\n      dup2\n        /* \"v2-core-master/contracts/UniswapV2Pair.sol\":6026:6032  token1 */\n      dup7\n        /* \"v2-core-master/contracts/UniswapV2Pair.sol\":6019:6058  IERC20(token1).balanceOf(address(this)) */\n      dup1\n      extcodesize\n      iszero\n        /* \"--CODEGEN--\":5:7   */\n      dup1\n      iszero\n      tag_275\n      jumpi\n        /* \"--CODEGEN--\":30:31   */\n      0x00\n        /* \"--CODEGEN--\":27:28   */\n      dup1\n        /* \"--CODEGEN--\":20:32   */\n      revert\n        /* \"--CODEGEN--\":5:7   */\n    tag_275:\n        /* \"v2-core-master/contracts/UniswapV2Pair.sol\":6019:6058  IERC20(token1).balanceOf(address(this)) */\n      pop\n      gas\n      staticcall\n      iszero\n        /* \"--CODEGEN--\":8:17   */\n      dup1\n        /* \"--CODEGEN--\":5:7   */\n      iszero\n      tag_276\n      jumpi\n        /* \"--CODEGEN--\":45:61   */\n      returndatasize\n        /* \"--CODEGEN--\":42:43   */\n      0x00\n        /* \"--CODEGEN--\":39:40   */\n      dup1\n        /* \"--CODEGEN--\":24:62   */\n      returndatacopy\n        /* \"--CODEGEN--\":77:93   */\n      returndatasize\n        /* \"--CODEGEN--\":74:75   */\n      0x00\n        /* \"--CODEGEN--\":67:94   */\n      revert\n        /* \"--CODEGEN--\":5:7   */\n    tag_276:\n        /* \"v2-core-master/contracts/UniswapV2Pair.sol\":6019:6058  IERC20(token1).balanceOf(address(this)) */\n      pop\n      pop\n      pop\n      pop\n      mload(0x40)\n      returndatasize\n        /* \"--CODEGEN--\":13:15   */\n      0x20\n        /* \"--CODEGEN--\":8:11   */\n      dup2\n        /* \"--CODEGEN--\":5:16   */\n      lt\n        /* \"--CODEGEN--\":2:4   */\n      iszero\n      tag_277\n      jumpi\n        /* \"--CODEGEN--\":29:30   */\n      0x00\n        /* \"--CODEGEN--\":26:27   */\n      dup1\n        /* \"--CODEGEN--\":19:31   */\n      revert\n        /* \"--CODEGEN--\":2:4   */\n    tag_277:\n      pop\n        /* \"v2-core-master/contracts/UniswapV2Pair.sol\":6019:6058  IERC20(token1).balanceOf(address(this)) */\n      mload\n      swap1\n      pop\n        /* \"v2-core-master/contracts/UniswapV2Pair.sol\":6068:6080  uint amount0 */\n      0x00\n        /* \"v2-core-master/contracts/UniswapV2Pair.sol\":6083:6106  balance0.sub(_reserve0) */\n      tag_278\n        /* \"v2-core-master/contracts/UniswapV2Pair.sol\":6083:6091  balance0 */\n      dup4\n      sub(shl(0x70, 0x01), 0x01)\n        /* \"v2-core-master/contracts/UniswapV2Pair.sol\":6083:6106  balance0.sub(_reserve0) */\n      dup8\n      and\n      0xffffffff\n        /* \"v2-core-master/contracts/UniswapV2Pair.sol\":6083:6095  balance0.sub */\n      tag_160\n        /* \"v2-core-master/contracts/UniswapV2Pair.sol\":6083:6106  balance0.sub(_reserve0) */\n      and\n      jump\t// in\n    tag_278:\n        /* \"v2-core-master/contracts/UniswapV2Pair.sol\":6068:6106  uint amount0 = balance0.sub(_reserve0) */\n      swap1\n      pop\n        /* \"v2-core-master/contracts/UniswapV2Pair.sol\":6116:6128  uint amount1 */\n      0x00\n        /* \"v2-core-master/contracts/UniswapV2Pair.sol\":6131:6154  balance1.sub(_reserve1) */\n      tag_279\n        /* \"v2-core-master/contracts/UniswapV2Pair.sol\":6131:6139  balance1 */\n      dup4\n      sub(shl(0x70, 0x01), 0x01)\n        /* \"v2-core-master/contracts/UniswapV2Pair.sol\":6131:6154  balance1.sub(_reserve1) */\n      dup8\n      and\n      0xffffffff\n        /* \"v2-core-master/contracts/UniswapV2Pair.sol\":6131:6143  balance1.sub */\n      tag_160\n        /* \"v2-core-master/contracts/UniswapV2Pair.sol\":6131:6154  balance1.sub(_reserve1) */\n      and\n      jump\t// in\n    tag_279:\n        /* \"v2-core-master/contracts/UniswapV2Pair.sol\":6116:6154  uint amount1 = balance1.sub(_reserve1) */\n      swap1\n      pop\n        /* \"v2-core-master/contracts/UniswapV2Pair.sol\":6165:6175  bool feeOn */\n      0x00\n        /* \"v2-core-master/contracts/UniswapV2Pair.sol\":6178:6208  _mintFee(_reserve0, _reserve1) */\n      tag_280\n        /* \"v2-core-master/contracts/UniswapV2Pair.sol\":6187:6196  _reserve0 */\n      dup8\n        /* \"v2-core-master/contracts/UniswapV2Pair.sol\":6198:6207  _reserve1 */\n      dup8\n        /* \"v2-core-master/contracts/UniswapV2Pair.sol\":6178:6186  _mintFee */\n      tag_194\n        /* \"v2-core-master/contracts/UniswapV2Pair.sol\":6178:6208  _mintFee(_reserve0, _reserve1) */\n      jump\t// in\n    tag_280:\n        /* \"v2-core-master/contracts/UniswapV2Pair.sol\":6218:6235  uint _totalSupply */\n      0x00\n        /* \"v2-core-master/contracts/UniswapV2Pair.sol\":6238:6249  totalSupply */\n      sload\n        /* \"v2-core-master/contracts/UniswapV2Pair.sol\":6165:6208  bool feeOn = _mintFee(_reserve0, _reserve1) */\n      swap1\n      swap2\n      pop\n        /* \"v2-core-master/contracts/UniswapV2Pair.sol\":6341:6358  _totalSupply == 0 */\n      dup1\n        /* \"v2-core-master/contracts/UniswapV2Pair.sol\":6337:6690  if (_totalSupply == 0) {... */\n      tag_281\n      jumpi\n        /* \"v2-core-master/contracts/UniswapV2Pair.sol\":6386:6440  Math.sqrt(amount0.mul(amount1)).sub(MINIMUM_LIQUIDITY) */\n      tag_282\n        /* \"v2-core-master/contracts/UniswapV2Pair.sol\":457:464  10 ** 3 */\n      0x03e8\n        /* \"v2-core-master/contracts/UniswapV2Pair.sol\":6386:6417  Math.sqrt(amount0.mul(amount1)) */\n      tag_159\n        /* \"v2-core-master/contracts/UniswapV2Pair.sol\":6396:6416  amount0.mul(amount1) */\n      tag_198\n        /* \"v2-core-master/contracts/UniswapV2Pair.sol\":6396:6403  amount0 */\n      dup8\n        /* \"v2-core-master/contracts/UniswapV2Pair.sol\":6408:6415  amount1 */\n      dup8\n        /* \"v2-core-master/contracts/UniswapV2Pair.sol\":6396:6416  amount0.mul(amount1) */\n      0xffffffff\n        /* \"v2-core-master/contracts/UniswapV2Pair.sol\":6396:6407  amount0.mul */\n      tag_158\n        /* \"v2-core-master/contracts/UniswapV2Pair.sol\":6396:6416  amount0.mul(amount1) */\n      and\n      jump\t// in\n        /* \"v2-core-master/contracts/UniswapV2Pair.sol\":6386:6440  Math.sqrt(amount0.mul(amount1)).sub(MINIMUM_LIQUIDITY) */\n    tag_282:\n        /* \"v2-core-master/contracts/UniswapV2Pair.sol\":6374:6440  liquidity = Math.sqrt(amount0.mul(amount1)).sub(MINIMUM_LIQUIDITY) */\n      swap9\n      pop\n        /* \"v2-core-master/contracts/UniswapV2Pair.sol\":6454:6495  freezeMint(address(0), MINIMUM_LIQUIDITY) */\n      tag_285\n        /* \"v2-core-master/contracts/UniswapV2Pair.sol\":6473:6474  0 */\n      0x00\n        /* \"v2-core-master/contracts/UniswapV2Pair.sol\":457:464  10 ** 3 */\n      0x03e8\n        /* \"v2-core-master/contracts/UniswapV2Pair.sol\":6454:6464  freezeMint */\n      tag_286\n        /* \"v2-core-master/contracts/UniswapV2Pair.sol\":6454:6495  freezeMint(address(0), MINIMUM_LIQUIDITY) */\n      jump\t// in\n    tag_285:\n      pop\n        /* \"v2-core-master/contracts/UniswapV2Pair.sol\":6337:6690  if (_totalSupply == 0) {... */\n      jump(tag_287)\n    tag_281:\n        /* \"v2-core-master/contracts/UniswapV2Pair.sol\":6593:6679  Math.min(amount0.mul(_totalSupply) / _reserve0, amount1.mul(_totalSupply) / _reserve1) */\n      tag_288\n      sub(shl(0x70, 0x01), 0x01)\n        /* \"v2-core-master/contracts/UniswapV2Pair.sol\":6602:6639  amount0.mul(_totalSupply) / _reserve0 */\n      dup10\n      and\n        /* \"v2-core-master/contracts/UniswapV2Pair.sol\":6602:6627  amount0.mul(_totalSupply) */\n      tag_204\n        /* \"v2-core-master/contracts/UniswapV2Pair.sol\":6602:6609  amount0 */\n      dup7\n        /* \"v2-core-master/contracts/UniswapV2Pair.sol\":6614:6626  _totalSupply */\n      dup5\n        /* \"v2-core-master/contracts/UniswapV2Pair.sol\":6602:6627  amount0.mul(_totalSupply) */\n      0xffffffff\n        /* \"v2-core-master/contracts/UniswapV2Pair.sol\":6602:6613  amount0.mul */\n      tag_158\n        /* \"v2-core-master/contracts/UniswapV2Pair.sol\":6602:6627  amount0.mul(_totalSupply) */\n      and\n      jump\t// in\n        /* \"v2-core-master/contracts/UniswapV2Pair.sol\":6593:6679  Math.min(amount0.mul(_totalSupply) / _reserve0, amount1.mul(_totalSupply) / _reserve1) */\n    tag_288:\n        /* \"v2-core-master/contracts/UniswapV2Pair.sol\":6581:6679  liquidity = Math.min(amount0.mul(_totalSupply) / _reserve0, amount1.mul(_totalSupply) / _reserve1) */\n      swap9\n      pop\n        /* \"v2-core-master/contracts/UniswapV2Pair.sol\":6337:6690  if (_totalSupply == 0) {... */\n    tag_287:\n        /* \"v2-core-master/contracts/UniswapV2Pair.sol\":6719:6720  0 */\n      0x00\n        /* \"v2-core-master/contracts/UniswapV2Pair.sol\":6707:6716  liquidity */\n      dup10\n        /* \"v2-core-master/contracts/UniswapV2Pair.sol\":6707:6720  liquidity > 0 */\n      gt\n        /* \"v2-core-master/contracts/UniswapV2Pair.sol\":6699:6765  require(liquidity > 0, 'UniswapV2: INSUFFICIENT_LIQUIDITY_MINTED') */\n      tag_293\n      jumpi\n      mload(0x40)\n      shl(0xe5, 0x461bcd)\n      dup2\n      mstore\n      0x04\n      add\n      dup1\n      dup1\n      0x20\n      add\n      dup3\n      dup2\n      sub\n      dup3\n      mstore\n      0x28\n      dup2\n      mstore\n      0x20\n      add\n      dup1\n      data_6591c9f5bf1fefaad109b76a20e25c857b696080c952191f86220f001a83663e\n      0x28\n      swap2\n      codecopy\n      0x40\n      add\n      swap2\n      pop\n      pop\n      mload(0x40)\n      dup1\n      swap2\n      sub\n      swap1\n      revert\n    tag_293:\n        /* \"v2-core-master/contracts/UniswapV2Pair.sol\":6775:6800  freezeMint(to, liquidity) */\n      tag_294\n        /* \"v2-core-master/contracts/UniswapV2Pair.sol\":6786:6788  to */\n      dup11\n        /* \"v2-core-master/contracts/UniswapV2Pair.sol\":6790:6799  liquidity */\n      dup11\n        /* \"v2-core-master/contracts/UniswapV2Pair.sol\":6775:6785  freezeMint */\n      tag_286\n        /* \"v2-core-master/contracts/UniswapV2Pair.sol\":6775:6800  freezeMint(to, liquidity) */\n      jump\t// in\n    tag_294:\n      pop\n        /* \"v2-core-master/contracts/UniswapV2Pair.sol\":6811:6860  _update(balance0, balance1, _reserve0, _reserve1) */\n      tag_211\n        /* \"v2-core-master/contracts/UniswapV2Pair.sol\":6819:6827  balance0 */\n      dup7\n        /* \"v2-core-master/contracts/UniswapV2Pair.sol\":6829:6837  balance1 */\n      dup7\n        /* \"v2-core-master/contracts/UniswapV2Pair.sol\":6839:6848  _reserve0 */\n      dup11\n        /* \"v2-core-master/contracts/UniswapV2Pair.sol\":6850:6859  _reserve1 */\n      dup11\n        /* \"v2-core-master/contracts/UniswapV2Pair.sol\":6811:6818  _update */\n      tag_169\n        /* \"v2-core-master/contracts/UniswapV2Pair.sol\":6811:6860  _update(balance0, balance1, _reserve0, _reserve1) */\n      jump\t// in\n        /* \"v2-core-master/contracts/UniswapV2ERC20.sol\":415:476  mapping(address => mapping(address => uint)) public allowance */\n    tag_123:\n      0x02\n      0x20\n      swap1\n      dup2\n      mstore\n      0x00\n      swap3\n      dup4\n      mstore\n      0x40\n      dup1\n      dup5\n      keccak256\n      swap1\n      swap2\n      mstore\n      swap1\n      dup3\n      mstore\n      swap1\n      keccak256\n      sload\n      dup2\n      jump\t// out\n        /* \"v2-core-master/contracts/UniswapV2Pair.sol\":11041:11197  function sync() external lock {... */\n    tag_125:\n        /* \"v2-core-master/contracts/UniswapV2Pair.sol\":1161:1169  unlocked */\n      sload(0x0d)\n        /* \"v2-core-master/contracts/UniswapV2Pair.sol\":1173:1174  1 */\n      0x01\n        /* \"v2-core-master/contracts/UniswapV2Pair.sol\":1161:1174  unlocked == 1 */\n      eq\n        /* \"v2-core-master/contracts/UniswapV2Pair.sol\":1153:1196  require(unlocked == 1, 'UniswapV2: LOCKED') */\n      tag_299\n      jumpi\n      0x40\n      dup1\n      mload\n      shl(0xe5, 0x461bcd)\n      dup2\n      mstore\n      0x20\n      0x04\n      dup3\n      add\n      mstore\n      0x11\n      0x24\n      dup3\n      add\n      mstore\n      shl(0x7a, 0x155b9a5cddd85c158c8e881313d0d2d151)\n      0x44\n      dup3\n      add\n      mstore\n      swap1\n      mload\n      swap1\n      dup2\n      swap1\n      sub\n      0x64\n      add\n      swap1\n      revert\n    tag_299:\n        /* \"v2-core-master/contracts/UniswapV2Pair.sol\":1217:1218  0 */\n      0x00\n        /* \"v2-core-master/contracts/UniswapV2Pair.sol\":1206:1214  unlocked */\n      0x0d\n        /* \"v2-core-master/contracts/UniswapV2Pair.sol\":1206:1218  unlocked = 0 */\n      sstore\n        /* \"v2-core-master/contracts/UniswapV2Pair.sol\":11096:11102  token0 */\n      sload(0x07)\n        /* \"v2-core-master/contracts/UniswapV2Pair.sol\":11089:11128  IERC20(token0).balanceOf(address(this)) */\n      0x40\n      dup1\n      mload\n      shl(0xe0, 0x70a08231)\n      dup2\n      mstore\n        /* \"v2-core-master/contracts/UniswapV2Pair.sol\":11122:11126  this */\n      address\n        /* \"v2-core-master/contracts/UniswapV2Pair.sol\":11089:11128  IERC20(token0).balanceOf(address(this)) */\n      0x04\n      dup3\n      add\n      mstore\n      swap1\n      mload\n        /* \"v2-core-master/contracts/UniswapV2Pair.sol\":11081:11190  _update(IERC20(token0).balanceOf(address(this)), IERC20(token1).balanceOf(address(this)), reserve0, reserve1) */\n      tag_301\n      swap3\n      sub(shl(0xa0, 0x01), 0x01)\n        /* \"v2-core-master/contracts/UniswapV2Pair.sol\":11096:11102  token0 */\n      and\n      swap2\n        /* \"v2-core-master/contracts/UniswapV2Pair.sol\":11089:11113  IERC20(token0).balanceOf */\n      0x70a08231\n      swap2\n        /* \"v2-core-master/contracts/UniswapV2Pair.sol\":11089:11128  IERC20(token0).balanceOf(address(this)) */\n      0x24\n      dup1\n      dup4\n      add\n      swap3\n      0x20\n      swap3\n      swap2\n      swap1\n      dup3\n      swap1\n      sub\n      add\n      dup2\n        /* \"v2-core-master/contracts/UniswapV2Pair.sol\":11096:11102  token0 */\n      dup7\n        /* \"v2-core-master/contracts/UniswapV2Pair.sol\":11089:11128  IERC20(token0).balanceOf(address(this)) */\n      dup1\n      extcodesize\n      iszero\n        /* \"--CODEGEN--\":5:7   */\n      dup1\n      iszero\n      tag_302\n      jumpi\n        /* \"--CODEGEN--\":30:31   */\n      0x00\n        /* \"--CODEGEN--\":27:28   */\n      dup1\n        /* \"--CODEGEN--\":20:32   */\n      revert\n        /* \"--CODEGEN--\":5:7   */\n    tag_302:\n        /* \"v2-core-master/contracts/UniswapV2Pair.sol\":11089:11128  IERC20(token0).balanceOf(address(this)) */\n      pop\n      gas\n      staticcall\n      iszero\n        /* \"--CODEGEN--\":8:17   */\n      dup1\n        /* \"--CODEGEN--\":5:7   */\n      iszero\n      tag_303\n      jumpi\n        /* \"--CODEGEN--\":45:61   */\n      returndatasize\n        /* \"--CODEGEN--\":42:43   */\n      0x00\n        /* \"--CODEGEN--\":39:40   */\n      dup1\n        /* \"--CODEGEN--\":24:62   */\n      returndatacopy\n        /* \"--CODEGEN--\":77:93   */\n      returndatasize\n        /* \"--CODEGEN--\":74:75   */\n      0x00\n        /* \"--CODEGEN--\":67:94   */\n      revert\n        /* \"--CODEGEN--\":5:7   */\n    tag_303:\n        /* \"v2-core-master/contracts/UniswapV2Pair.sol\":11089:11128  IERC20(token0).balanceOf(address(this)) */\n      pop\n      pop\n      pop\n      pop\n      mload(0x40)\n      returndatasize\n        /* \"--CODEGEN--\":13:15   */\n      0x20\n        /* \"--CODEGEN--\":8:11   */\n      dup2\n        /* \"--CODEGEN--\":5:16   */\n      lt\n        /* \"--CODEGEN--\":2:4   */\n      iszero\n      tag_304\n      jumpi\n        /* \"--CODEGEN--\":29:30   */\n      0x00\n        /* \"--CODEGEN--\":26:27   */\n      dup1\n        /* \"--CODEGEN--\":19:31   */\n      revert\n        /* \"--CODEGEN--\":2:4   */\n    tag_304:\n      pop\n        /* \"v2-core-master/contracts/UniswapV2Pair.sol\":11089:11128  IERC20(token0).balanceOf(address(this)) */\n      mload\n        /* \"v2-core-master/contracts/UniswapV2Pair.sol\":11137:11143  token1 */\n      sload(0x08)\n        /* \"v2-core-master/contracts/UniswapV2Pair.sol\":11130:11169  IERC20(token1).balanceOf(address(this)) */\n      0x40\n      dup1\n      mload\n      shl(0xe0, 0x70a08231)\n      dup2\n      mstore\n        /* \"v2-core-master/contracts/UniswapV2Pair.sol\":11163:11167  this */\n      address\n        /* \"v2-core-master/contracts/UniswapV2Pair.sol\":11130:11169  IERC20(token1).balanceOf(address(this)) */\n      0x04\n      dup3\n      add\n      mstore\n      swap1\n      mload\n      sub(shl(0xa0, 0x01), 0x01)\n        /* \"v2-core-master/contracts/UniswapV2Pair.sol\":11137:11143  token1 */\n      swap1\n      swap3\n      and\n      swap2\n        /* \"v2-core-master/contracts/UniswapV2Pair.sol\":11130:11154  IERC20(token1).balanceOf */\n      0x70a08231\n      swap2\n        /* \"v2-core-master/contracts/UniswapV2Pair.sol\":11130:11169  IERC20(token1).balanceOf(address(this)) */\n      0x24\n      dup1\n      dup3\n      add\n      swap3\n        /* \"v2-core-master/contracts/UniswapV2Pair.sol\":11089:11128  IERC20(token0).balanceOf(address(this)) */\n      0x20\n      swap3\n        /* \"v2-core-master/contracts/UniswapV2Pair.sol\":11130:11169  IERC20(token1).balanceOf(address(this)) */\n      swap1\n      swap2\n      swap1\n      dup3\n      swap1\n      sub\n      add\n      dup2\n        /* \"v2-core-master/contracts/UniswapV2Pair.sol\":11137:11143  token1 */\n      dup7\n        /* \"v2-core-master/contracts/UniswapV2Pair.sol\":11130:11169  IERC20(token1).balanceOf(address(this)) */\n      dup1\n      extcodesize\n      iszero\n        /* \"--CODEGEN--\":5:7   */\n      dup1\n      iszero\n      tag_305\n      jumpi\n        /* \"--CODEGEN--\":30:31   */\n      0x00\n        /* \"--CODEGEN--\":27:28   */\n      dup1\n        /* \"--CODEGEN--\":20:32   */\n      revert\n        /* \"--CODEGEN--\":5:7   */\n    tag_305:\n        /* \"v2-core-master/contracts/UniswapV2Pair.sol\":11130:11169  IERC20(token1).balanceOf(address(this)) */\n      pop\n      gas\n      staticcall\n      iszero\n        /* \"--CODEGEN--\":8:17   */\n      dup1\n        /* \"--CODEGEN--\":5:7   */\n      iszero\n      tag_306\n      jumpi\n        /* \"--CODEGEN--\":45:61   */\n      returndatasize\n        /* \"--CODEGEN--\":42:43   */\n      0x00\n        /* \"--CODEGEN--\":39:40   */\n      dup1\n        /* \"--CODEGEN--\":24:62   */\n      returndatacopy\n        /* \"--CODEGEN--\":77:93   */\n      returndatasize\n        /* \"--CODEGEN--\":74:75   */\n      0x00\n        /* \"--CODEGEN--\":67:94   */\n      revert\n        /* \"--CODEGEN--\":5:7   */\n    tag_306:\n        /* \"v2-core-master/contracts/UniswapV2Pair.sol\":11130:11169  IERC20(token1).balanceOf(address(this)) */\n      pop\n      pop\n      pop\n      pop\n      mload(0x40)\n      returndatasize\n        /* \"--CODEGEN--\":13:15   */\n      0x20\n        /* \"--CODEGEN--\":8:11   */\n      dup2\n        /* \"--CODEGEN--\":5:16   */\n      lt\n        /* \"--CODEGEN--\":2:4   */\n      iszero\n      tag_307\n      jumpi\n        /* \"--CODEGEN--\":29:30   */\n      0x00\n        /* \"--CODEGEN--\":26:27   */\n      dup1\n        /* \"--CODEGEN--\":19:31   */\n      revert\n        /* \"--CODEGEN--\":2:4   */\n    tag_307:\n      pop\n        /* \"v2-core-master/contracts/UniswapV2Pair.sol\":11130:11169  IERC20(token1).balanceOf(address(this)) */\n      mload\n        /* \"v2-core-master/contracts/UniswapV2Pair.sol\":11171:11179  reserve0 */\n      sload(0x09)\n      sub(shl(0x70, 0x01), 0x01)\n      dup1\n      dup3\n      and\n      swap2\n      shl(0x70, 0x01)\n        /* \"v2-core-master/contracts/UniswapV2Pair.sol\":11181:11189  reserve1 */\n      swap1\n      div\n      and\n        /* \"v2-core-master/contracts/UniswapV2Pair.sol\":11081:11088  _update */\n      tag_169\n        /* \"v2-core-master/contracts/UniswapV2Pair.sol\":11081:11190  _update(IERC20(token0).balanceOf(address(this)), IERC20(token1).balanceOf(address(this)), reserve0, reserve1) */\n      jump\t// in\n    tag_301:\n        /* \"v2-core-master/contracts/UniswapV2Pair.sol\":1250:1251  1 */\n      0x01\n        /* \"v2-core-master/contracts/UniswapV2Pair.sol\":1239:1247  unlocked */\n      0x0d\n        /* \"v2-core-master/contracts/UniswapV2Pair.sol\":1239:1251  unlocked = 1 */\n      sstore\n        /* \"v2-core-master/contracts/UniswapV2Pair.sol\":11041:11197  function sync() external lock {... */\n      jump\t// out\n        /* \"v2-core-master/contracts/UniswapV2Pair.sol\":1497:1781  function _safeTransfer(address token, address to, uint value) private {... */\n    tag_138:\n        /* \"v2-core-master/contracts/UniswapV2Pair.sol\":522:556  bytes('transfer(address,uint256)') */\n      0x40\n      dup1\n      mload\n      dup1\n      dup3\n      add\n      dup3\n      mstore\n      0x19\n      dup2\n      mstore\n      0x7472616e7366657228616464726573732c75696e743235362900000000000000\n      0x20\n      swap2\n      dup3\n      add\n      mstore\n        /* \"v2-core-master/contracts/UniswapV2Pair.sol\":1624:1667  abi.encodeWithSelector(SELECTOR, to, value) */\n      dup2\n      mload\n      sub(shl(0xa0, 0x01), 0x01)\n      dup6\n      dup2\n      and\n      0x24\n      dup4\n      add\n      mstore\n      0x44\n      dup1\n      dup4\n      add\n      dup7\n      swap1\n      mstore\n      dup5\n      mload\n        /* \"--CODEGEN--\":26:47   */\n      dup1\n      dup5\n      sub\n        /* \"--CODEGEN--\":22:54   */\n      swap1\n      swap2\n      add\n        /* \"--CODEGEN--\":6:55   */\n      dup2\n      mstore\n        /* \"v2-core-master/contracts/UniswapV2Pair.sol\":1624:1667  abi.encodeWithSelector(SELECTOR, to, value) */\n      0x64\n      swap1\n      swap3\n      add\n      dup5\n      mstore\n        /* \"--CODEGEN--\":25:43   */\n      swap2\n      dup2\n      add\n        /* \"--CODEGEN--\":61:78   */\n      dup1\n      mload\n      sub(shl(0xe0, 0x01), 0x01)\n        /* \"--CODEGEN--\":182:197   */\n      and\n      shl(0xe0, 0xa9059cbb)\n        /* \"--CODEGEN--\":179:208   */\n      or\n        /* \"--CODEGEN--\":160:209   */\n      dup2\n      mstore\n        /* \"v2-core-master/contracts/UniswapV2Pair.sol\":1613:1668  token.call(abi.encodeWithSelector(SELECTOR, to, value)) */\n      swap3\n      mload\n      dup2\n      mload\n        /* \"v2-core-master/contracts/UniswapV2Pair.sol\":1578:1590  bool success */\n      0x00\n      swap5\n        /* \"v2-core-master/contracts/UniswapV2Pair.sol\":1592:1609  bytes memory data */\n      0x60\n      swap5\n        /* \"v2-core-master/contracts/UniswapV2Pair.sol\":1613:1623  token.call */\n      dup10\n      and\n      swap4\n        /* \"v2-core-master/contracts/UniswapV2Pair.sol\":1624:1667  abi.encodeWithSelector(SELECTOR, to, value) */\n      swap3\n        /* \"v2-core-master/contracts/UniswapV2Pair.sol\":1613:1668  token.call(abi.encodeWithSelector(SELECTOR, to, value)) */\n      swap2\n      dup3\n      swap2\n        /* \"--CODEGEN--\":25:43   */\n      swap1\n        /* \"v2-core-master/contracts/UniswapV2Pair.sol\":1613:1668  token.call(abi.encodeWithSelector(SELECTOR, to, value)) */\n      dup1\n      dup4\n        /* \"--CODEGEN--\":25:43   */\n      dup4\n        /* \"--CODEGEN--\":36:189   */\n    tag_309:\n        /* \"--CODEGEN--\":66:68   */\n      0x20\n        /* \"--CODEGEN--\":61:64   */\n      dup4\n        /* \"--CODEGEN--\":58:69   */\n      lt\n        /* \"--CODEGEN--\":36:189   */\n      tag_311\n      jumpi\n        /* \"--CODEGEN--\":176:186   */\n      dup1\n      mload\n        /* \"--CODEGEN--\":164:187   */\n      dup3\n      mstore\n      not(0x1f)\n        /* \"--CODEGEN--\":139:151   */\n      swap1\n      swap3\n      add\n      swap2\n        /* \"--CODEGEN--\":98:100   */\n      0x20\n        /* \"--CODEGEN--\":89:101   */\n      swap2\n      dup3\n      add\n      swap2\n        /* \"--CODEGEN--\":114:126   */\n      add\n        /* \"--CODEGEN--\":36:189   */\n      jump(tag_309)\n    tag_311:\n        /* \"--CODEGEN--\":274:275   */\n      0x01\n        /* \"--CODEGEN--\":267:270   */\n      dup4\n        /* \"--CODEGEN--\":263:265   */\n      0x20\n        /* \"--CODEGEN--\":259:271   */\n      sub\n        /* \"--CODEGEN--\":254:257   */\n      0x0100\n        /* \"--CODEGEN--\":250:272   */\n      exp\n        /* \"--CODEGEN--\":246:276   */\n      sub\n        /* \"--CODEGEN--\":315:319   */\n      dup1\n        /* \"--CODEGEN--\":311:320   */\n      not\n        /* \"--CODEGEN--\":305:308   */\n      dup3\n        /* \"--CODEGEN--\":299:309   */\n      mload\n        /* \"--CODEGEN--\":295:321   */\n      and\n        /* \"--CODEGEN--\":356:360   */\n      dup2\n        /* \"--CODEGEN--\":350:353   */\n      dup5\n        /* \"--CODEGEN--\":344:354   */\n      mload\n        /* \"--CODEGEN--\":340:361   */\n      and\n        /* \"--CODEGEN--\":389:396   */\n      dup1\n        /* \"--CODEGEN--\":380:387   */\n      dup3\n        /* \"--CODEGEN--\":377:397   */\n      or\n        /* \"--CODEGEN--\":372:375   */\n      dup6\n        /* \"--CODEGEN--\":365:398   */\n      mstore\n        /* \"--CODEGEN--\":3:402   */\n      pop\n      pop\n      pop\n        /* \"v2-core-master/contracts/UniswapV2Pair.sol\":1613:1668  token.call(abi.encodeWithSelector(SELECTOR, to, value)) */\n      pop\n      pop\n      pop\n      swap1\n      pop\n      add\n      swap2\n      pop\n      pop\n      0x00\n      mload(0x40)\n      dup1\n      dup4\n      sub\n      dup2\n      0x00\n      dup7\n      gas\n      call\n      swap2\n      pop\n      pop\n      returndatasize\n        /* \"--CODEGEN--\":14:15   */\n      dup1\n        /* \"--CODEGEN--\":21:22   */\n      0x00\n        /* \"--CODEGEN--\":16:47   */\n      dup2\n      eq\n      tag_313\n      jumpi\n        /* \"--CODEGEN--\":75:79   */\n      0x40\n        /* \"--CODEGEN--\":69:80   */\n      mload\n        /* \"--CODEGEN--\":64:80   */\n      swap2\n      pop\n        /* \"--CODEGEN--\":144:148   */\n      0x1f\n        /* \"--CODEGEN--\":140:149   */\n      not\n        /* \"--CODEGEN--\":133:137   */\n      0x3f\n        /* \"--CODEGEN--\":115:131   */\n      returndatasize\n        /* \"--CODEGEN--\":111:138   */\n      add\n        /* \"--CODEGEN--\":107:150   */\n      and\n        /* \"--CODEGEN--\":104:105   */\n      dup3\n        /* \"--CODEGEN--\":100:151   */\n      add\n        /* \"--CODEGEN--\":94:98   */\n      0x40\n        /* \"--CODEGEN--\":87:152   */\n      mstore\n        /* \"--CODEGEN--\":169:185   */\n      returndatasize\n        /* \"--CODEGEN--\":166:167   */\n      dup3\n        /* \"--CODEGEN--\":159:186   */\n      mstore\n        /* \"--CODEGEN--\":225:241   */\n      returndatasize\n        /* \"--CODEGEN--\":222:223   */\n      0x00\n        /* \"--CODEGEN--\":215:219   */\n      0x20\n        /* \"--CODEGEN--\":212:213   */\n      dup5\n        /* \"--CODEGEN--\":208:220   */\n      add\n        /* \"--CODEGEN--\":193:242   */\n      returndatacopy\n        /* \"--CODEGEN--\":7:249   */\n      jump(tag_312)\n        /* \"--CODEGEN--\":16:47   */\n    tag_313:\n        /* \"--CODEGEN--\":36:40   */\n      0x60\n        /* \"--CODEGEN--\":31:40   */\n      swap2\n      pop\n        /* \"--CODEGEN--\":7:249   */\n    tag_312:\n      pop\n        /* \"v2-core-master/contracts/UniswapV2Pair.sol\":1577:1668  (bool success, bytes memory data) = token.call(abi.encodeWithSelector(SELECTOR, to, value)) */\n      swap2\n      pop\n      swap2\n      pop\n        /* \"v2-core-master/contracts/UniswapV2Pair.sol\":1686:1693  success */\n      dup2\n        /* \"v2-core-master/contracts/UniswapV2Pair.sol\":1686:1743  success && (data.length == 0 || abi.decode(data, (bool))) */\n      dup1\n      iszero\n      tag_315\n      jumpi\n      pop\n        /* \"v2-core-master/contracts/UniswapV2Pair.sol\":1698:1709  data.length */\n      dup1\n      mload\n        /* \"v2-core-master/contracts/UniswapV2Pair.sol\":1698:1714  data.length == 0 */\n      iszero\n      dup1\n        /* \"v2-core-master/contracts/UniswapV2Pair.sol\":1698:1742  data.length == 0 || abi.decode(data, (bool)) */\n      tag_315\n      jumpi\n      pop\n        /* \"v2-core-master/contracts/UniswapV2Pair.sol\":1729:1733  data */\n      dup1\n        /* \"v2-core-master/contracts/UniswapV2Pair.sol\":1718:1742  abi.decode(data, (bool)) */\n      dup1\n      0x20\n      add\n      swap1\n      mload\n        /* \"--CODEGEN--\":13:15   */\n      0x20\n        /* \"--CODEGEN--\":8:11   */\n      dup2\n        /* \"--CODEGEN--\":5:16   */\n      lt\n        /* \"--CODEGEN--\":2:4   */\n      iszero\n      tag_316\n      jumpi\n        /* \"--CODEGEN--\":29:30   */\n      0x00\n        /* \"--CODEGEN--\":26:27   */\n      dup1\n        /* \"--CODEGEN--\":19:31   */\n      revert\n        /* \"--CODEGEN--\":2:4   */\n    tag_316:\n      pop\n        /* \"v2-core-master/contracts/UniswapV2Pair.sol\":1718:1742  abi.decode(data, (bool)) */\n      mload\n        /* \"v2-core-master/contracts/UniswapV2Pair.sol\":1698:1742  data.length == 0 || abi.decode(data, (bool)) */\n    tag_315:\n        /* \"v2-core-master/contracts/UniswapV2Pair.sol\":1678:1774  require(success && (data.length == 0 || abi.decode(data, (bool))), 'UniswapV2: TRANSFER_FAILED') */\n      tag_317\n      jumpi\n      0x40\n      dup1\n      mload\n      shl(0xe5, 0x461bcd)\n      dup2\n      mstore\n      0x20\n      0x04\n      dup3\n      add\n      mstore\n      0x1a\n      0x24\n      dup3\n      add\n      mstore\n      0x556e697377617056323a205452414e534645525f4641494c4544000000000000\n      0x44\n      dup3\n      add\n      mstore\n      swap1\n      mload\n      swap1\n      dup2\n      swap1\n      sub\n      0x64\n      add\n      swap1\n      revert\n    tag_317:\n        /* \"v2-core-master/contracts/UniswapV2Pair.sol\":1497:1781  function _safeTransfer(address token, address to, uint value) private {... */\n      pop\n      pop\n      pop\n      pop\n      pop\n      jump\t// out\n        /* \"v2-core-master/contracts/libraries/SafeMath.sol\":420:560  function mul(uint x, uint y) internal pure returns (uint z) {... */\n    tag_158:\n        /* \"v2-core-master/contracts/libraries/SafeMath.sol\":472:478  uint z */\n      0x00\n        /* \"v2-core-master/contracts/libraries/SafeMath.sol\":498:504  y == 0 */\n      dup2\n      iszero\n      dup1\n        /* \"v2-core-master/contracts/libraries/SafeMath.sol\":498:528  y == 0 || (z = x * y) / y == x */\n      tag_319\n      jumpi\n      pop\n      pop\n        /* \"v2-core-master/contracts/libraries/SafeMath.sol\":513:518  x * y */\n      dup1\n      dup3\n      mul\n        /* \"v2-core-master/contracts/libraries/SafeMath.sol\":527:528  x */\n      dup3\n        /* \"v2-core-master/contracts/libraries/SafeMath.sol\":522:523  y */\n      dup3\n        /* \"v2-core-master/contracts/libraries/SafeMath.sol\":513:518  x * y */\n      dup3\n        /* \"v2-core-master/contracts/libraries/SafeMath.sol\":522:523  y */\n      dup2\n        /* \"v2-core-master/contracts/libraries/SafeMath.sol\":508:523  (z = x * y) / y */\n      tag_320\n      jumpi\n      invalid\n    tag_320:\n      div\n        /* \"v2-core-master/contracts/libraries/SafeMath.sol\":508:528  (z = x * y) / y == x */\n      eq\n        /* \"v2-core-master/contracts/libraries/SafeMath.sol\":498:528  y == 0 || (z = x * y) / y == x */\n    tag_319:\n        /* \"v2-core-master/contracts/libraries/SafeMath.sol\":490:553  require(y == 0 || (z = x * y) / y == x, 'ds-math-mul-overflow') */\n      tag_171\n      jumpi\n      0x40\n      dup1\n      mload\n      shl(0xe5, 0x461bcd)\n      dup2\n      mstore\n      0x20\n      0x04\n      dup3\n      add\n      mstore\n      0x14\n      0x24\n      dup3\n      add\n      mstore\n      shl(0x60, 0x64732d6d6174682d6d756c2d6f766572666c6f77)\n      0x44\n      dup3\n      add\n      mstore\n      swap1\n      mload\n      swap1\n      dup2\n      swap1\n      sub\n      0x64\n      add\n      swap1\n      revert\n        /* \"v2-core-master/contracts/libraries/SafeMath.sol\":287:414  function sub(uint x, uint y) internal pure returns (uint z) {... */\n    tag_160:\n        /* \"v2-core-master/contracts/libraries/SafeMath.sol\":370:375  x - y */\n      dup1\n      dup3\n      sub\n        /* \"v2-core-master/contracts/libraries/SafeMath.sol\":365:381  (z = x - y) <= x */\n      dup3\n      dup2\n      gt\n      iszero\n        /* \"v2-core-master/contracts/libraries/SafeMath.sol\":357:407  require((z = x - y) <= x, 'ds-math-sub-underflow') */\n      tag_171\n      jumpi\n      0x40\n      dup1\n      mload\n      shl(0xe5, 0x461bcd)\n      dup2\n      mstore\n      0x20\n      0x04\n      dup3\n      add\n      mstore\n      0x15\n      0x24\n      dup3\n      add\n      mstore\n      shl(0x58, 0x64732d6d6174682d7375622d756e646572666c6f77)\n      0x44\n      dup3\n      add\n      mstore\n      swap1\n      mload\n      swap1\n      dup2\n      swap1\n      sub\n      0x64\n      add\n      swap1\n      revert\n        /* \"v2-core-master/contracts/UniswapV2Pair.sol\":2584:3433  function _update(uint balance0, uint balance1, uint112 _reserve0, uint112 _reserve1) private {... */\n    tag_169:\n      sub(shl(0x70, 0x01), 0x01)\n        /* \"v2-core-master/contracts/UniswapV2Pair.sol\":2695:2718  balance0 <= uint112(-1) */\n      dup5\n      gt\n      dup1\n      iszero\n      swap1\n        /* \"v2-core-master/contracts/UniswapV2Pair.sol\":2695:2745  balance0 <= uint112(-1) && balance1 <= uint112(-1) */\n      tag_325\n      jumpi\n      pop\n      sub(shl(0x70, 0x01), 0x01)\n        /* \"v2-core-master/contracts/UniswapV2Pair.sol\":2722:2745  balance1 <= uint112(-1) */\n      dup4\n      gt\n      iszero\n        /* \"v2-core-master/contracts/UniswapV2Pair.sol\":2695:2745  balance0 <= uint112(-1) && balance1 <= uint112(-1) */\n    tag_325:\n        /* \"v2-core-master/contracts/UniswapV2Pair.sol\":2687:2769  require(balance0 <= uint112(-1) && balance1 <= uint112(-1), 'UniswapV2: OVERFLOW') */\n      tag_326\n      jumpi\n      0x40\n      dup1\n      mload\n      shl(0xe5, 0x461bcd)\n      dup2\n      mstore\n      0x20\n      0x04\n      dup3\n      add\n      mstore\n      0x13\n      0x24\n      dup3\n      add\n      mstore\n      shl(0x68, 0x556e697377617056323a204f564552464c4f57)\n      0x44\n      dup3\n      add\n      mstore\n      swap1\n      mload\n      swap1\n      dup2\n      swap1\n      sub\n      0x64\n      add\n      swap1\n      revert\n    tag_326:\n        /* \"v2-core-master/contracts/UniswapV2Pair.sol\":2884:2902  blockTimestampLast */\n      sload(0x09)\n        /* \"v2-core-master/contracts/UniswapV2Pair.sol\":2810:2835  block.timestamp % 2 ** 32 */\n      0xffffffff\n        /* \"v2-core-master/contracts/UniswapV2Pair.sol\":2810:2825  block.timestamp */\n      timestamp\n        /* \"v2-core-master/contracts/UniswapV2Pair.sol\":2810:2835  block.timestamp % 2 ** 32 */\n      dup2\n      and\n      swap2\n      shl(0xe0, 0x01)\n        /* \"v2-core-master/contracts/UniswapV2Pair.sol\":2884:2902  blockTimestampLast */\n      swap1\n      div\n      dup2\n      and\n        /* \"v2-core-master/contracts/UniswapV2Pair.sol\":2867:2902  blockTimestamp - blockTimestampLast */\n      dup3\n      sub\n      swap1\n        /* \"v2-core-master/contracts/UniswapV2Pair.sol\":2939:2954  timeElapsed > 0 */\n      dup2\n      and\n      iszero\n      dup1\n      iszero\n      swap1\n        /* \"v2-core-master/contracts/UniswapV2Pair.sol\":2939:2972  timeElapsed > 0 && _reserve0 != 0 */\n      tag_328\n      jumpi\n      pop\n      sub(shl(0x70, 0x01), 0x01)\n        /* \"v2-core-master/contracts/UniswapV2Pair.sol\":2958:2972  _reserve0 != 0 */\n      dup5\n      and\n      iszero\n      iszero\n        /* \"v2-core-master/contracts/UniswapV2Pair.sol\":2939:2972  timeElapsed > 0 && _reserve0 != 0 */\n    tag_328:\n        /* \"v2-core-master/contracts/UniswapV2Pair.sol\":2939:2990  timeElapsed > 0 && _reserve0 != 0 && _reserve1 != 0 */\n      dup1\n      iszero\n      tag_329\n      jumpi\n      pop\n      sub(shl(0x70, 0x01), 0x01)\n        /* \"v2-core-master/contracts/UniswapV2Pair.sol\":2976:2990  _reserve1 != 0 */\n      dup4\n      and\n      iszero\n      iszero\n        /* \"v2-core-master/contracts/UniswapV2Pair.sol\":2939:2990  timeElapsed > 0 && _reserve0 != 0 && _reserve1 != 0 */\n    tag_329:\n        /* \"v2-core-master/contracts/UniswapV2Pair.sol\":2935:3267  if (timeElapsed > 0 && _reserve0 != 0 && _reserve1 != 0) {... */\n      iszero\n      tag_330\n      jumpi\n        /* \"v2-core-master/contracts/UniswapV2Pair.sol\":3143:3154  timeElapsed */\n      dup1\n        /* \"v2-core-master/contracts/UniswapV2Pair.sol\":3090:3154  uint(UQ112x112.encode(_reserve1).uqdiv(_reserve0)) * timeElapsed */\n      0xffffffff\n      and\n        /* \"v2-core-master/contracts/UniswapV2Pair.sol\":3095:3139  UQ112x112.encode(_reserve1).uqdiv(_reserve0) */\n      tag_331\n        /* \"v2-core-master/contracts/UniswapV2Pair.sol\":3129:3138  _reserve0 */\n      dup6\n        /* \"v2-core-master/contracts/UniswapV2Pair.sol\":3095:3122  UQ112x112.encode(_reserve1) */\n      tag_332\n        /* \"v2-core-master/contracts/UniswapV2Pair.sol\":3112:3121  _reserve1 */\n      dup7\n        /* \"v2-core-master/contracts/UniswapV2Pair.sol\":3095:3111  UQ112x112.encode */\n      tag_333\n        /* \"v2-core-master/contracts/UniswapV2Pair.sol\":3095:3122  UQ112x112.encode(_reserve1) */\n      jump\t// in\n    tag_332:\n      sub(shl(0xe0, 0x01), 0x01)\n        /* \"v2-core-master/contracts/UniswapV2Pair.sol\":3095:3128  UQ112x112.encode(_reserve1).uqdiv */\n      and\n      swap1\n        /* \"v2-core-master/contracts/UniswapV2Pair.sol\":3095:3139  UQ112x112.encode(_reserve1).uqdiv(_reserve0) */\n      0xffffffff\n        /* \"v2-core-master/contracts/UniswapV2Pair.sol\":3095:3128  UQ112x112.encode(_reserve1).uqdiv */\n      tag_334\n        /* \"v2-core-master/contracts/UniswapV2Pair.sol\":3095:3139  UQ112x112.encode(_reserve1).uqdiv(_reserve0) */\n      and\n      jump\t// in\n    tag_331:\n        /* \"v2-core-master/contracts/UniswapV2Pair.sol\":3066:3086  price0CumulativeLast */\n      0x0a\n        /* \"v2-core-master/contracts/UniswapV2Pair.sol\":3066:3154  price0CumulativeLast += uint(UQ112x112.encode(_reserve1).uqdiv(_reserve0)) * timeElapsed */\n      dup1\n      sload\n      sub(shl(0xe0, 0x01), 0x01)\n        /* \"v2-core-master/contracts/UniswapV2Pair.sol\":3090:3140  uint(UQ112x112.encode(_reserve1).uqdiv(_reserve0)) */\n      swap3\n      swap1\n      swap3\n      and\n        /* \"v2-core-master/contracts/UniswapV2Pair.sol\":3090:3154  uint(UQ112x112.encode(_reserve1).uqdiv(_reserve0)) * timeElapsed */\n      swap3\n      swap1\n      swap3\n      mul\n        /* \"v2-core-master/contracts/UniswapV2Pair.sol\":3066:3154  price0CumulativeLast += uint(UQ112x112.encode(_reserve1).uqdiv(_reserve0)) * timeElapsed */\n      add\n      swap1\n      sstore\n        /* \"v2-core-master/contracts/UniswapV2Pair.sol\":3192:3256  uint(UQ112x112.encode(_reserve0).uqdiv(_reserve1)) * timeElapsed */\n      0xffffffff\n      dup2\n      and\n        /* \"v2-core-master/contracts/UniswapV2Pair.sol\":3197:3241  UQ112x112.encode(_reserve0).uqdiv(_reserve1) */\n      tag_335\n        /* \"v2-core-master/contracts/UniswapV2Pair.sol\":3231:3240  _reserve1 */\n      dup5\n        /* \"v2-core-master/contracts/UniswapV2Pair.sol\":3197:3224  UQ112x112.encode(_reserve0) */\n      tag_332\n        /* \"v2-core-master/contracts/UniswapV2Pair.sol\":3214:3223  _reserve0 */\n      dup8\n        /* \"v2-core-master/contracts/UniswapV2Pair.sol\":3197:3213  UQ112x112.encode */\n      tag_333\n        /* \"v2-core-master/contracts/UniswapV2Pair.sol\":3197:3224  UQ112x112.encode(_reserve0) */\n      jump\t// in\n        /* \"v2-core-master/contracts/UniswapV2Pair.sol\":3197:3241  UQ112x112.encode(_reserve0).uqdiv(_reserve1) */\n    tag_335:\n        /* \"v2-core-master/contracts/UniswapV2Pair.sol\":3168:3188  price1CumulativeLast */\n      0x0b\n        /* \"v2-core-master/contracts/UniswapV2Pair.sol\":3168:3256  price1CumulativeLast += uint(UQ112x112.encode(_reserve0).uqdiv(_reserve1)) * timeElapsed */\n      dup1\n      sload\n      sub(shl(0xe0, 0x01), 0x01)\n        /* \"v2-core-master/contracts/UniswapV2Pair.sol\":3192:3242  uint(UQ112x112.encode(_reserve0).uqdiv(_reserve1)) */\n      swap3\n      swap1\n      swap3\n      and\n        /* \"v2-core-master/contracts/UniswapV2Pair.sol\":3192:3256  uint(UQ112x112.encode(_reserve0).uqdiv(_reserve1)) * timeElapsed */\n      swap3\n      swap1\n      swap3\n      mul\n        /* \"v2-core-master/contracts/UniswapV2Pair.sol\":3168:3256  price1CumulativeLast += uint(UQ112x112.encode(_reserve0).uqdiv(_reserve1)) * timeElapsed */\n      add\n      swap1\n      sstore\n        /* \"v2-core-master/contracts/UniswapV2Pair.sol\":2935:3267  if (timeElapsed > 0 && _reserve0 != 0 && _reserve1 != 0) {... */\n    tag_330:\n        /* \"v2-core-master/contracts/UniswapV2Pair.sol\":3276:3284  reserve0 */\n      0x09\n        /* \"v2-core-master/contracts/UniswapV2Pair.sol\":3276:3304  reserve0 = uint112(balance0) */\n      dup1\n      sload\n      not(0xffffffffffffffffffffffffffff)\n      and\n      sub(shl(0x70, 0x01), 0x01)\n      dup9\n      dup2\n      and\n      swap2\n      swap1\n      swap2\n      or\n      not(shl(0x70, 0xffffffffffffffffffffffffffff))\n        /* \"v2-core-master/contracts/UniswapV2Pair.sol\":3314:3342  reserve1 = uint112(balance1) */\n      and\n      shl(0x70, 0x01)\n      dup9\n      dup4\n      and\n      dup2\n      mul\n      swap2\n      swap1\n      swap2\n      or\n      sub(shl(0xe0, 0x01), 0x01)\n        /* \"v2-core-master/contracts/UniswapV2Pair.sol\":3352:3387  blockTimestampLast = blockTimestamp */\n      and\n      shl(0xe0, 0x01)\n      0xffffffff\n      dup8\n      and\n      mul\n      or\n      swap3\n      dup4\n      swap1\n      sstore\n        /* \"v2-core-master/contracts/UniswapV2Pair.sol\":3402:3426  Sync(reserve0, reserve1) */\n      0x40\n      dup1\n      mload\n        /* \"v2-core-master/contracts/UniswapV2Pair.sol\":3407:3415  reserve0 */\n      dup5\n      dup5\n      and\n        /* \"v2-core-master/contracts/UniswapV2Pair.sol\":3402:3426  Sync(reserve0, reserve1) */\n      dup2\n      mstore\n        /* \"v2-core-master/contracts/UniswapV2Pair.sol\":3417:3425  reserve1 */\n      swap2\n      swap1\n      swap4\n      div\n      swap1\n      swap2\n      and\n        /* \"v2-core-master/contracts/UniswapV2Pair.sol\":3402:3426  Sync(reserve0, reserve1) */\n      0x20\n      dup3\n      add\n      mstore\n      dup2\n      mload\n      0x1c411e9a96e071241c2f21f7726b17ae89e3cab4c78be50e062b03a9fffbbad1\n      swap3\n      swap2\n      dup2\n      swap1\n      sub\n      swap1\n      swap2\n      add\n      swap1\n      log1\n        /* \"v2-core-master/contracts/UniswapV2Pair.sol\":2584:3433  function _update(uint balance0, uint balance1, uint112 _reserve0, uint112 _reserve1) private {... */\n      pop\n      pop\n      pop\n      pop\n      pop\n      pop\n      jump\t// out\n        /* \"v2-core-master/contracts/UniswapV2ERC20.sol\":2466:2632  function _approve(address owner, address spender, uint value) private {... */\n    tag_173:\n      sub(shl(0xa0, 0x01), 0x01)\n        /* \"v2-core-master/contracts/UniswapV2ERC20.sol\":2546:2562  allowance[owner] */\n      dup1\n      dup5\n      and\n      0x00\n      dup2\n      dup2\n      mstore\n        /* \"v2-core-master/contracts/UniswapV2ERC20.sol\":2546:2555  allowance */\n      0x02\n        /* \"v2-core-master/contracts/UniswapV2ERC20.sol\":2546:2562  allowance[owner] */\n      0x20\n      swap1\n      dup2\n      mstore\n      0x40\n      dup1\n      dup4\n      keccak256\n        /* \"v2-core-master/contracts/UniswapV2ERC20.sol\":2546:2571  allowance[owner][spender] */\n      swap5\n      dup8\n      and\n      dup1\n      dup5\n      mstore\n      swap5\n      dup3\n      mstore\n      swap2\n      dup3\n      swap1\n      keccak256\n        /* \"v2-core-master/contracts/UniswapV2ERC20.sol\":2546:2579  allowance[owner][spender] = value */\n      dup6\n      swap1\n      sstore\n        /* \"v2-core-master/contracts/UniswapV2ERC20.sol\":2594:2625  Approval(owner, spender, value) */\n      dup2\n      mload\n      dup6\n      dup2\n      mstore\n      swap2\n      mload\n      0x8c5be1e5ebec7d5bd14f71427d1e84f3dd0314c0f7b2291e5b200ac8c7c3b925\n      swap3\n      dup2\n      swap1\n      sub\n      swap1\n      swap2\n      add\n      swap1\n      log3\n        /* \"v2-core-master/contracts/UniswapV2ERC20.sol\":2466:2632  function _approve(address owner, address spender, uint value) private {... */\n      pop\n      pop\n      pop\n      jump\t// out\n        /* \"v2-core-master/contracts/UniswapV2ERC20.sol\":2638:2854  function _transfer(address from, address to, uint value) private {... */\n    tag_178:\n      sub(shl(0xa0, 0x01), 0x01)\n        /* \"v2-core-master/contracts/UniswapV2ERC20.sol\":2731:2746  _balances[from] */\n      dup4\n      and\n      0x00\n      swap1\n      dup2\n      mstore\n        /* \"v2-core-master/contracts/UniswapV2ERC20.sol\":2731:2740  _balances */\n      0x01\n        /* \"v2-core-master/contracts/UniswapV2ERC20.sol\":2731:2746  _balances[from] */\n      0x20\n      mstore\n      0x40\n      swap1\n      keccak256\n      sload\n        /* \"v2-core-master/contracts/UniswapV2ERC20.sol\":2731:2757  _balances[from].sub(value) */\n      tag_339\n      swap1\n        /* \"v2-core-master/contracts/UniswapV2ERC20.sol\":2751:2756  value */\n      dup3\n        /* \"v2-core-master/contracts/UniswapV2ERC20.sol\":2731:2757  _balances[from].sub(value) */\n      0xffffffff\n        /* \"v2-core-master/contracts/UniswapV2ERC20.sol\":2731:2750  _balances[from].sub */\n      tag_160\n        /* \"v2-core-master/contracts/UniswapV2ERC20.sol\":2731:2757  _balances[from].sub(value) */\n      and\n      jump\t// in\n    tag_339:\n      sub(shl(0xa0, 0x01), 0x01)\n        /* \"v2-core-master/contracts/UniswapV2ERC20.sol\":2713:2728  _balances[from] */\n      dup1\n      dup6\n      and\n      0x00\n      swap1\n      dup2\n      mstore\n        /* \"v2-core-master/contracts/UniswapV2ERC20.sol\":2713:2722  _balances */\n      0x01\n        /* \"v2-core-master/contracts/UniswapV2ERC20.sol\":2713:2728  _balances[from] */\n      0x20\n      mstore\n      0x40\n      dup1\n      dup3\n      keccak256\n        /* \"v2-core-master/contracts/UniswapV2ERC20.sol\":2713:2757  _balances[from] = _balances[from].sub(value) */\n      swap4\n      swap1\n      swap4\n      sstore\n        /* \"v2-core-master/contracts/UniswapV2ERC20.sol\":2783:2796  _balances[to] */\n      swap1\n      dup5\n      and\n      dup2\n      mstore\n      keccak256\n      sload\n        /* \"v2-core-master/contracts/UniswapV2ERC20.sol\":2783:2807  _balances[to].add(value) */\n      tag_340\n      swap1\n        /* \"v2-core-master/contracts/UniswapV2ERC20.sol\":2801:2806  value */\n      dup3\n        /* \"v2-core-master/contracts/UniswapV2ERC20.sol\":2783:2807  _balances[to].add(value) */\n      0xffffffff\n        /* \"v2-core-master/contracts/UniswapV2ERC20.sol\":2783:2800  _balances[to].add */\n      tag_216\n        /* \"v2-core-master/contracts/UniswapV2ERC20.sol\":2783:2807  _balances[to].add(value) */\n      and\n      jump\t// in\n    tag_340:\n      sub(shl(0xa0, 0x01), 0x01)\n        /* \"v2-core-master/contracts/UniswapV2ERC20.sol\":2767:2780  _balances[to] */\n      dup1\n      dup5\n      and\n      0x00\n      dup2\n      dup2\n      mstore\n        /* \"v2-core-master/contracts/UniswapV2ERC20.sol\":2767:2776  _balances */\n      0x01\n        /* \"v2-core-master/contracts/UniswapV2ERC20.sol\":2767:2780  _balances[to] */\n      0x20\n      swap1\n      dup2\n      mstore\n      0x40\n      swap2\n      dup3\n      swap1\n      keccak256\n        /* \"v2-core-master/contracts/UniswapV2ERC20.sol\":2767:2807  _balances[to] = _balances[to].add(value) */\n      swap5\n      swap1\n      swap5\n      sstore\n        /* \"v2-core-master/contracts/UniswapV2ERC20.sol\":2822:2847  Transfer(from, to, value) */\n      dup1\n      mload\n      dup6\n      dup2\n      mstore\n      swap1\n      mload\n        /* \"v2-core-master/contracts/UniswapV2ERC20.sol\":2767:2780  _balances[to] */\n      swap2\n      swap4\n        /* \"v2-core-master/contracts/UniswapV2ERC20.sol\":2822:2847  Transfer(from, to, value) */\n      swap3\n      dup8\n      and\n      swap3\n      0x00\n      dup1\n      mload\n      0x20\n      data_ada389e1fc24a8587c776340efb91b36e675792ab631816100d55df0b5cf3cbc\n      dup4\n      codecopy\n      dup2\n      mload\n      swap2\n      mstore\n      swap3\n      swap2\n      dup3\n      swap1\n      sub\n      add\n      swap1\n      log3\n        /* \"v2-core-master/contracts/UniswapV2ERC20.sol\":2638:2854  function _transfer(address from, address to, uint value) private {... */\n      pop\n      pop\n      pop\n      jump\t// out\n        /* \"v2-core-master/contracts/UniswapV2Pair.sol\":3520:4339  function _mintFee(uint112 _reserve0, uint112 _reserve1) private returns (bool feeOn) {... */\n    tag_194:\n        /* \"v2-core-master/contracts/UniswapV2Pair.sol\":3593:3603  bool feeOn */\n      0x00\n        /* \"v2-core-master/contracts/UniswapV2Pair.sol\":3615:3628  address feeTo */\n      dup1\n        /* \"v2-core-master/contracts/UniswapV2Pair.sol\":3649:3656  factory */\n      0x06\n      0x00\n      swap1\n      sload\n      swap1\n      0x0100\n      exp\n      swap1\n      div\n      sub(shl(0xa0, 0x01), 0x01)\n      and\n      sub(shl(0xa0, 0x01), 0x01)\n        /* \"v2-core-master/contracts/UniswapV2Pair.sol\":3631:3663  IUniswapV2Factory(factory).feeTo */\n      and\n      0x017e7e58\n        /* \"v2-core-master/contracts/UniswapV2Pair.sol\":3631:3665  IUniswapV2Factory(factory).feeTo() */\n      mload(0x40)\n      dup2\n      0xffffffff\n      and\n      0xe0\n      shl\n      dup2\n      mstore\n      0x04\n      add\n      0x20\n      mload(0x40)\n      dup1\n      dup4\n      sub\n      dup2\n      dup7\n      dup1\n      extcodesize\n      iszero\n        /* \"--CODEGEN--\":8:17   */\n      dup1\n        /* \"--CODEGEN--\":5:7   */\n      iszero\n      tag_342\n      jumpi\n        /* \"--CODEGEN--\":30:31   */\n      0x00\n        /* \"--CODEGEN--\":27:28   */\n      dup1\n        /* \"--CODEGEN--\":20:32   */\n      revert\n        /* \"--CODEGEN--\":5:7   */\n    tag_342:\n        /* \"v2-core-master/contracts/UniswapV2Pair.sol\":3631:3665  IUniswapV2Factory(factory).feeTo() */\n      pop\n      gas\n      staticcall\n      iszero\n        /* \"--CODEGEN--\":8:17   */\n      dup1\n        /* \"--CODEGEN--\":5:7   */\n      iszero\n      tag_343\n      jumpi\n        /* \"--CODEGEN--\":45:61   */\n      returndatasize\n        /* \"--CODEGEN--\":42:43   */\n      0x00\n        /* \"--CODEGEN--\":39:40   */\n      dup1\n        /* \"--CODEGEN--\":24:62   */\n      returndatacopy\n        /* \"--CODEGEN--\":77:93   */\n      returndatasize\n        /* \"--CODEGEN--\":74:75   */\n      0x00\n        /* \"--CODEGEN--\":67:94   */\n      revert\n        /* \"--CODEGEN--\":5:7   */\n    tag_343:\n        /* \"v2-core-master/contracts/UniswapV2Pair.sol\":3631:3665  IUniswapV2Factory(factory).feeTo() */\n      pop\n      pop\n      pop\n      pop\n      mload(0x40)\n      returndatasize\n        /* \"--CODEGEN--\":13:15   */\n      0x20\n        /* \"--CODEGEN--\":8:11   */\n      dup2\n        /* \"--CODEGEN--\":5:16   */\n      lt\n        /* \"--CODEGEN--\":2:4   */\n      iszero\n      tag_344\n      jumpi\n        /* \"--CODEGEN--\":29:30   */\n      0x00\n        /* \"--CODEGEN--\":26:27   */\n      dup1\n        /* \"--CODEGEN--\":19:31   */\n      revert\n        /* \"--CODEGEN--\":2:4   */\n    tag_344:\n      pop\n        /* \"v2-core-master/contracts/UniswapV2Pair.sol\":3631:3665  IUniswapV2Factory(factory).feeTo() */\n      mload\n        /* \"v2-core-master/contracts/UniswapV2Pair.sol\":3726:3731  kLast */\n      sload(0x0c)\n      sub(shl(0xa0, 0x01), 0x01)\n        /* \"v2-core-master/contracts/UniswapV2Pair.sol\":3683:3702  feeTo != address(0) */\n      dup3\n      and\n      iszero\n      dup1\n      iszero\n      swap5\n      pop\n        /* \"v2-core-master/contracts/UniswapV2Pair.sol\":3631:3665  IUniswapV2Factory(factory).feeTo() */\n      swap2\n      swap3\n      pop\n        /* \"v2-core-master/contracts/UniswapV2Pair.sol\":3726:3731  kLast */\n      swap1\n        /* \"v2-core-master/contracts/UniswapV2Pair.sol\":3756:4333  if (feeOn) {... */\n      tag_345\n      jumpi\n        /* \"v2-core-master/contracts/UniswapV2Pair.sol\":3785:3796  _kLast != 0 */\n      dup1\n      iszero\n        /* \"v2-core-master/contracts/UniswapV2Pair.sol\":3781:4266  if (_kLast != 0) {... */\n      tag_346\n      jumpi\n        /* \"v2-core-master/contracts/UniswapV2Pair.sol\":3816:3826  uint rootK */\n      0x00\n        /* \"v2-core-master/contracts/UniswapV2Pair.sol\":3829:3870  Math.sqrt(uint(_reserve0).mul(_reserve1)) */\n      tag_347\n        /* \"v2-core-master/contracts/UniswapV2Pair.sol\":3839:3869  uint(_reserve0).mul(_reserve1) */\n      tag_198\n      sub(shl(0x70, 0x01), 0x01)\n        /* \"v2-core-master/contracts/UniswapV2Pair.sol\":3839:3854  uint(_reserve0) */\n      dup9\n      dup2\n      and\n      swap1\n        /* \"v2-core-master/contracts/UniswapV2Pair.sol\":3839:3869  uint(_reserve0).mul(_reserve1) */\n      dup9\n      and\n      0xffffffff\n        /* \"v2-core-master/contracts/UniswapV2Pair.sol\":3839:3858  uint(_reserve0).mul */\n      tag_158\n        /* \"v2-core-master/contracts/UniswapV2Pair.sol\":3839:3869  uint(_reserve0).mul(_reserve1) */\n      and\n      jump\t// in\n        /* \"v2-core-master/contracts/UniswapV2Pair.sol\":3829:3870  Math.sqrt(uint(_reserve0).mul(_reserve1)) */\n    tag_347:\n        /* \"v2-core-master/contracts/UniswapV2Pair.sol\":3816:3870  uint rootK = Math.sqrt(uint(_reserve0).mul(_reserve1)) */\n      swap1\n      pop\n        /* \"v2-core-master/contracts/UniswapV2Pair.sol\":3888:3902  uint rootKLast */\n      0x00\n        /* \"v2-core-master/contracts/UniswapV2Pair.sol\":3905:3922  Math.sqrt(_kLast) */\n      tag_349\n        /* \"v2-core-master/contracts/UniswapV2Pair.sol\":3915:3921  _kLast */\n      dup4\n        /* \"v2-core-master/contracts/UniswapV2Pair.sol\":3905:3914  Math.sqrt */\n      tag_199\n        /* \"v2-core-master/contracts/UniswapV2Pair.sol\":3905:3922  Math.sqrt(_kLast) */\n      jump\t// in\n    tag_349:\n        /* \"v2-core-master/contracts/UniswapV2Pair.sol\":3888:3922  uint rootKLast = Math.sqrt(_kLast) */\n      swap1\n      pop\n        /* \"v2-core-master/contracts/UniswapV2Pair.sol\":3952:3961  rootKLast */\n      dup1\n        /* \"v2-core-master/contracts/UniswapV2Pair.sol\":3944:3949  rootK */\n      dup3\n        /* \"v2-core-master/contracts/UniswapV2Pair.sol\":3944:3961  rootK > rootKLast */\n      gt\n        /* \"v2-core-master/contracts/UniswapV2Pair.sol\":3940:4252  if (rootK > rootKLast) {... */\n      iszero\n      tag_350\n      jumpi\n        /* \"v2-core-master/contracts/UniswapV2Pair.sol\":3985:3999  uint numerator */\n      0x00\n        /* \"v2-core-master/contracts/UniswapV2Pair.sol\":4002:4039  totalSupply.mul(rootK.sub(rootKLast)) */\n      tag_351\n        /* \"v2-core-master/contracts/UniswapV2Pair.sol\":4018:4038  rootK.sub(rootKLast) */\n      tag_352\n        /* \"v2-core-master/contracts/UniswapV2Pair.sol\":4018:4023  rootK */\n      dup5\n        /* \"v2-core-master/contracts/UniswapV2Pair.sol\":4028:4037  rootKLast */\n      dup5\n        /* \"v2-core-master/contracts/UniswapV2Pair.sol\":4018:4038  rootK.sub(rootKLast) */\n      0xffffffff\n        /* \"v2-core-master/contracts/UniswapV2Pair.sol\":4018:4027  rootK.sub */\n      tag_160\n        /* \"v2-core-master/contracts/UniswapV2Pair.sol\":4018:4038  rootK.sub(rootKLast) */\n      and\n      jump\t// in\n    tag_352:\n        /* \"v2-core-master/contracts/UniswapV2Pair.sol\":4002:4013  totalSupply */\n      sload(0x00)\n      swap1\n        /* \"v2-core-master/contracts/UniswapV2Pair.sol\":4002:4039  totalSupply.mul(rootK.sub(rootKLast)) */\n      0xffffffff\n        /* \"v2-core-master/contracts/UniswapV2Pair.sol\":4002:4017  totalSupply.mul */\n      tag_158\n        /* \"v2-core-master/contracts/UniswapV2Pair.sol\":4002:4039  totalSupply.mul(rootK.sub(rootKLast)) */\n      and\n      jump\t// in\n    tag_351:\n        /* \"v2-core-master/contracts/UniswapV2Pair.sol\":3985:4039  uint numerator = totalSupply.mul(rootK.sub(rootKLast)) */\n      swap1\n      pop\n        /* \"v2-core-master/contracts/UniswapV2Pair.sol\":4061:4077  uint denominator */\n      0x00\n        /* \"v2-core-master/contracts/UniswapV2Pair.sol\":4080:4107  rootK.mul(5).add(rootKLast) */\n      tag_353\n        /* \"v2-core-master/contracts/UniswapV2Pair.sol\":4097:4106  rootKLast */\n      dup4\n        /* \"v2-core-master/contracts/UniswapV2Pair.sol\":4080:4092  rootK.mul(5) */\n      tag_354\n        /* \"v2-core-master/contracts/UniswapV2Pair.sol\":4080:4085  rootK */\n      dup7\n        /* \"v2-core-master/contracts/UniswapV2Pair.sol\":4090:4091  5 */\n      0x05\n        /* \"v2-core-master/contracts/UniswapV2Pair.sol\":4080:4092  rootK.mul(5) */\n      0xffffffff\n        /* \"v2-core-master/contracts/UniswapV2Pair.sol\":4080:4089  rootK.mul */\n      tag_158\n        /* \"v2-core-master/contracts/UniswapV2Pair.sol\":4080:4092  rootK.mul(5) */\n      and\n      jump\t// in\n    tag_354:\n        /* \"v2-core-master/contracts/UniswapV2Pair.sol\":4080:4096  rootK.mul(5).add */\n      swap1\n        /* \"v2-core-master/contracts/UniswapV2Pair.sol\":4080:4107  rootK.mul(5).add(rootKLast) */\n      0xffffffff\n        /* \"v2-core-master/contracts/UniswapV2Pair.sol\":4080:4096  rootK.mul(5).add */\n      tag_216\n        /* \"v2-core-master/contracts/UniswapV2Pair.sol\":4080:4107  rootK.mul(5).add(rootKLast) */\n      and\n      jump\t// in\n    tag_353:\n        /* \"v2-core-master/contracts/UniswapV2Pair.sol\":4061:4107  uint denominator = rootK.mul(5).add(rootKLast) */\n      swap1\n      pop\n        /* \"v2-core-master/contracts/UniswapV2Pair.sol\":4129:4143  uint liquidity */\n      0x00\n        /* \"v2-core-master/contracts/UniswapV2Pair.sol\":4158:4169  denominator */\n      dup2\n        /* \"v2-core-master/contracts/UniswapV2Pair.sol\":4146:4155  numerator */\n      dup4\n        /* \"v2-core-master/contracts/UniswapV2Pair.sol\":4146:4169  numerator / denominator */\n      dup2\n      tag_355\n      jumpi\n      invalid\n    tag_355:\n      div\n      swap1\n      pop\n        /* \"v2-core-master/contracts/UniswapV2Pair.sol\":4195:4208  liquidity > 0 */\n      dup1\n      iszero\n        /* \"v2-core-master/contracts/UniswapV2Pair.sol\":4191:4233  if (liquidity > 0) _mint(feeTo, liquidity) */\n      tag_357\n      jumpi\n        /* \"v2-core-master/contracts/UniswapV2Pair.sol\":4210:4233  _mint(feeTo, liquidity) */\n      tag_357\n        /* \"v2-core-master/contracts/UniswapV2Pair.sol\":4216:4221  feeTo */\n      dup8\n        /* \"v2-core-master/contracts/UniswapV2Pair.sol\":4223:4232  liquidity */\n      dup3\n        /* \"v2-core-master/contracts/UniswapV2Pair.sol\":4210:4215  _mint */\n      tag_201\n        /* \"v2-core-master/contracts/UniswapV2Pair.sol\":4210:4233  _mint(feeTo, liquidity) */\n      jump\t// in\n    tag_357:\n        /* \"v2-core-master/contracts/UniswapV2Pair.sol\":3940:4252  if (rootK > rootKLast) {... */\n      pop\n      pop\n      pop\n    tag_350:\n        /* \"v2-core-master/contracts/UniswapV2Pair.sol\":3781:4266  if (_kLast != 0) {... */\n      pop\n      pop\n    tag_346:\n        /* \"v2-core-master/contracts/UniswapV2Pair.sol\":3756:4333  if (feeOn) {... */\n      jump(tag_359)\n    tag_345:\n        /* \"v2-core-master/contracts/UniswapV2Pair.sol\":4286:4297  _kLast != 0 */\n      dup1\n      iszero\n        /* \"v2-core-master/contracts/UniswapV2Pair.sol\":4282:4333  if (_kLast != 0) {... */\n      tag_359\n      jumpi\n        /* \"v2-core-master/contracts/UniswapV2Pair.sol\":4321:4322  0 */\n      0x00\n        /* \"v2-core-master/contracts/UniswapV2Pair.sol\":4313:4318  kLast */\n      0x0c\n        /* \"v2-core-master/contracts/UniswapV2Pair.sol\":4313:4322  kLast = 0 */\n      sstore\n        /* \"v2-core-master/contracts/UniswapV2Pair.sol\":4282:4333  if (_kLast != 0) {... */\n    tag_359:\n        /* \"v2-core-master/contracts/UniswapV2Pair.sol\":3520:4339  function _mintFee(uint112 _reserve0, uint112 _reserve1) private returns (bool feeOn) {... */\n      pop\n      pop\n      swap3\n      swap2\n      pop\n      pop\n      jump\t// out\n        /* \"v2-core-master/contracts/libraries/Math.sol\":307:599  function sqrt(uint y) internal pure returns (uint z) {... */\n    tag_199:\n        /* \"v2-core-master/contracts/libraries/Math.sol\":352:358  uint z */\n      0x00\n        /* \"v2-core-master/contracts/libraries/Math.sol\":378:379  3 */\n      0x03\n        /* \"v2-core-master/contracts/libraries/Math.sol\":374:375  y */\n      dup3\n        /* \"v2-core-master/contracts/libraries/Math.sol\":374:379  y > 3 */\n      gt\n        /* \"v2-core-master/contracts/libraries/Math.sol\":370:593  if (y > 3) {... */\n      iszero\n      tag_361\n      jumpi\n      pop\n        /* \"v2-core-master/contracts/libraries/Math.sol\":399:400  y */\n      dup1\n        /* \"v2-core-master/contracts/libraries/Math.sol\":431:432  1 */\n      0x01\n        /* \"v2-core-master/contracts/libraries/Math.sol\":427:428  2 */\n      0x02\n        /* \"v2-core-master/contracts/libraries/Math.sol\":423:428  y / 2 */\n      dup3\n      div\n        /* \"v2-core-master/contracts/libraries/Math.sol\":423:432  y / 2 + 1 */\n      add\n        /* \"v2-core-master/contracts/libraries/Math.sol\":446:535  while (x < z) {... */\n    tag_363:\n        /* \"v2-core-master/contracts/libraries/Math.sol\":457:458  z */\n      dup2\n        /* \"v2-core-master/contracts/libraries/Math.sol\":453:454  x */\n      dup2\n        /* \"v2-core-master/contracts/libraries/Math.sol\":453:458  x < z */\n      lt\n        /* \"v2-core-master/contracts/libraries/Math.sol\":446:535  while (x < z) {... */\n      iszero\n      tag_364\n      jumpi\n        /* \"v2-core-master/contracts/libraries/Math.sol\":482:483  x */\n      dup1\n        /* \"v2-core-master/contracts/libraries/Math.sol\":478:483  z = x */\n      swap2\n      pop\n        /* \"v2-core-master/contracts/libraries/Math.sol\":519:520  2 */\n      0x02\n        /* \"v2-core-master/contracts/libraries/Math.sol\":514:515  x */\n      dup2\n        /* \"v2-core-master/contracts/libraries/Math.sol\":510:511  x */\n      dup3\n        /* \"v2-core-master/contracts/libraries/Math.sol\":506:507  y */\n      dup6\n        /* \"v2-core-master/contracts/libraries/Math.sol\":506:511  y / x */\n      dup2\n      tag_365\n      jumpi\n      invalid\n    tag_365:\n      div\n        /* \"v2-core-master/contracts/libraries/Math.sol\":506:515  y / x + x */\n      add\n        /* \"v2-core-master/contracts/libraries/Math.sol\":505:520  (y / x + x) / 2 */\n      dup2\n      tag_366\n      jumpi\n      invalid\n    tag_366:\n      div\n        /* \"v2-core-master/contracts/libraries/Math.sol\":501:520  x = (y / x + x) / 2 */\n      swap1\n      pop\n        /* \"v2-core-master/contracts/libraries/Math.sol\":446:535  while (x < z) {... */\n      jump(tag_363)\n    tag_364:\n        /* \"v2-core-master/contracts/libraries/Math.sol\":370:593  if (y > 3) {... */\n      pop\n      jump(tag_214)\n    tag_361:\n        /* \"v2-core-master/contracts/libraries/Math.sol\":555:561  y != 0 */\n      dup2\n      iszero\n        /* \"v2-core-master/contracts/libraries/Math.sol\":551:593  if (y != 0) {... */\n      tag_214\n      jumpi\n      pop\n        /* \"v2-core-master/contracts/libraries/Math.sol\":581:582  1 */\n      0x01\n        /* \"v2-core-master/contracts/libraries/Math.sol\":307:599  function sqrt(uint y) internal pure returns (uint z) {... */\n      swap2\n      swap1\n      pop\n      jump\t// out\n        /* \"v2-core-master/contracts/UniswapV2ERC20.sol\":1592:1789  function _mint(address to, uint value) internal {... */\n    tag_201:\n        /* \"v2-core-master/contracts/UniswapV2ERC20.sol\":1664:1675  totalSupply */\n      sload(0x00)\n        /* \"v2-core-master/contracts/UniswapV2ERC20.sol\":1664:1686  totalSupply.add(value) */\n      tag_370\n      swap1\n        /* \"v2-core-master/contracts/UniswapV2ERC20.sol\":1680:1685  value */\n      dup3\n        /* \"v2-core-master/contracts/UniswapV2ERC20.sol\":1664:1686  totalSupply.add(value) */\n      0xffffffff\n        /* \"v2-core-master/contracts/UniswapV2ERC20.sol\":1664:1679  totalSupply.add */\n      tag_216\n        /* \"v2-core-master/contracts/UniswapV2ERC20.sol\":1664:1686  totalSupply.add(value) */\n      and\n      jump\t// in\n    tag_370:\n        /* \"v2-core-master/contracts/UniswapV2ERC20.sol\":1650:1661  totalSupply */\n      0x00\n        /* \"v2-core-master/contracts/UniswapV2ERC20.sol\":1650:1686  totalSupply = totalSupply.add(value) */\n      swap1\n      dup2\n      sstore\n      sub(shl(0xa0, 0x01), 0x01)\n        /* \"v2-core-master/contracts/UniswapV2ERC20.sol\":1712:1725  _balances[to] */\n      dup4\n      and\n      dup2\n      mstore\n        /* \"v2-core-master/contracts/UniswapV2ERC20.sol\":1712:1721  _balances */\n      0x01\n        /* \"v2-core-master/contracts/UniswapV2ERC20.sol\":1712:1725  _balances[to] */\n      0x20\n      mstore\n      0x40\n      swap1\n      keccak256\n      sload\n        /* \"v2-core-master/contracts/UniswapV2ERC20.sol\":1712:1736  _balances[to].add(value) */\n      tag_371\n      swap1\n        /* \"v2-core-master/contracts/UniswapV2ERC20.sol\":1730:1735  value */\n      dup3\n        /* \"v2-core-master/contracts/UniswapV2ERC20.sol\":1712:1736  _balances[to].add(value) */\n      0xffffffff\n        /* \"v2-core-master/contracts/UniswapV2ERC20.sol\":1712:1729  _balances[to].add */\n      tag_216\n        /* \"v2-core-master/contracts/UniswapV2ERC20.sol\":1712:1736  _balances[to].add(value) */\n      and\n      jump\t// in\n    tag_371:\n      sub(shl(0xa0, 0x01), 0x01)\n        /* \"v2-core-master/contracts/UniswapV2ERC20.sol\":1696:1709  _balances[to] */\n      dup4\n      and\n      0x00\n      dup2\n      dup2\n      mstore\n        /* \"v2-core-master/contracts/UniswapV2ERC20.sol\":1696:1705  _balances */\n      0x01\n        /* \"v2-core-master/contracts/UniswapV2ERC20.sol\":1696:1709  _balances[to] */\n      0x20\n      swap1\n      dup2\n      mstore\n      0x40\n      dup1\n      dup4\n      keccak256\n        /* \"v2-core-master/contracts/UniswapV2ERC20.sol\":1696:1736  _balances[to] = _balances[to].add(value) */\n      swap5\n      swap1\n      swap5\n      sstore\n        /* \"v2-core-master/contracts/UniswapV2ERC20.sol\":1751:1782  Transfer(address(0), to, value) */\n      dup4\n      mload\n      dup6\n      dup2\n      mstore\n      swap4\n      mload\n        /* \"v2-core-master/contracts/UniswapV2ERC20.sol\":1696:1709  _balances[to] */\n      swap3\n      swap4\n      swap2\n      swap3\n      0x00\n      dup1\n      mload\n      0x20\n      data_ada389e1fc24a8587c776340efb91b36e675792ab631816100d55df0b5cf3cbc\n      dup4\n      codecopy\n      dup2\n      mload\n      swap2\n      mstore\n        /* \"v2-core-master/contracts/UniswapV2ERC20.sol\":1751:1782  Transfer(address(0), to, value) */\n      swap3\n      dup2\n      swap1\n      sub\n      swap1\n      swap2\n      add\n      swap1\n      log3\n        /* \"v2-core-master/contracts/UniswapV2ERC20.sol\":1592:1789  function _mint(address to, uint value) internal {... */\n      pop\n      pop\n      jump\t// out\n        /* \"v2-core-master/contracts/libraries/Math.sol\":98:192  function min(uint x, uint y) internal pure returns (uint z) {... */\n    tag_208:\n        /* \"v2-core-master/contracts/libraries/Math.sol\":150:156  uint z */\n      0x00\n        /* \"v2-core-master/contracts/libraries/Math.sol\":176:177  y */\n      dup2\n        /* \"v2-core-master/contracts/libraries/Math.sol\":172:173  x */\n      dup4\n        /* \"v2-core-master/contracts/libraries/Math.sol\":172:177  x < y */\n      lt\n        /* \"v2-core-master/contracts/libraries/Math.sol\":172:185  x < y ? x : y */\n      tag_373\n      jumpi\n        /* \"v2-core-master/contracts/libraries/Math.sol\":184:185  y */\n      dup2\n        /* \"v2-core-master/contracts/libraries/Math.sol\":172:185  x < y ? x : y */\n      jump(tag_374)\n    tag_373:\n        /* \"v2-core-master/contracts/libraries/Math.sol\":180:181  x */\n      dup3\n        /* \"v2-core-master/contracts/libraries/Math.sol\":172:185  x < y ? x : y */\n    tag_374:\n        /* \"v2-core-master/contracts/libraries/Math.sol\":168:185  z = x < y ? x : y */\n      swap4\n        /* \"v2-core-master/contracts/libraries/Math.sol\":98:192  function min(uint x, uint y) internal pure returns (uint z) {... */\n      swap3\n      pop\n      pop\n      pop\n      jump\t// out\n        /* \"v2-core-master/contracts/libraries/SafeMath.sol\":155:281  function add(uint x, uint y) internal pure returns (uint z) {... */\n    tag_216:\n        /* \"v2-core-master/contracts/libraries/SafeMath.sol\":238:243  x + y */\n      dup1\n      dup3\n      add\n        /* \"v2-core-master/contracts/libraries/SafeMath.sol\":233:249  (z = x + y) >= x */\n      dup3\n      dup2\n      lt\n      iszero\n        /* \"v2-core-master/contracts/libraries/SafeMath.sol\":225:274  require((z = x + y) >= x, 'ds-math-add-overflow') */\n      tag_171\n      jumpi\n      0x40\n      dup1\n      mload\n      shl(0xe5, 0x461bcd)\n      dup2\n      mstore\n      0x20\n      0x04\n      dup3\n      add\n      mstore\n      0x14\n      0x24\n      dup3\n      add\n      mstore\n      shl(0x60, 0x64732d6d6174682d6164642d6f766572666c6f77)\n      0x44\n      dup3\n      add\n      mstore\n      swap1\n      mload\n      swap1\n      dup2\n      swap1\n      sub\n      0x64\n      add\n      swap1\n      revert\n        /* \"v2-core-master/contracts/UniswapV2ERC20.sol\":2255:2460  function _burn(address from, uint value) internal {... */\n    tag_235:\n      sub(shl(0xa0, 0x01), 0x01)\n        /* \"v2-core-master/contracts/UniswapV2ERC20.sol\":2333:2348  _balances[from] */\n      dup3\n      and\n      0x00\n      swap1\n      dup2\n      mstore\n        /* \"v2-core-master/contracts/UniswapV2ERC20.sol\":2333:2342  _balances */\n      0x01\n        /* \"v2-core-master/contracts/UniswapV2ERC20.sol\":2333:2348  _balances[from] */\n      0x20\n      mstore\n      0x40\n      swap1\n      keccak256\n      sload\n        /* \"v2-core-master/contracts/UniswapV2ERC20.sol\":2333:2359  _balances[from].sub(value) */\n      tag_378\n      swap1\n        /* \"v2-core-master/contracts/UniswapV2ERC20.sol\":2353:2358  value */\n      dup3\n        /* \"v2-core-master/contracts/UniswapV2ERC20.sol\":2333:2359  _balances[from].sub(value) */\n      0xffffffff\n        /* \"v2-core-master/contracts/UniswapV2ERC20.sol\":2333:2352  _balances[from].sub */\n      tag_160\n        /* \"v2-core-master/contracts/UniswapV2ERC20.sol\":2333:2359  _balances[from].sub(value) */\n      and\n      jump\t// in\n    tag_378:\n      sub(shl(0xa0, 0x01), 0x01)\n        /* \"v2-core-master/contracts/UniswapV2ERC20.sol\":2315:2330  _balances[from] */\n      dup4\n      and\n      0x00\n      swap1\n      dup2\n      mstore\n        /* \"v2-core-master/contracts/UniswapV2ERC20.sol\":2315:2324  _balances */\n      0x01\n        /* \"v2-core-master/contracts/UniswapV2ERC20.sol\":2315:2330  _balances[from] */\n      0x20\n      mstore\n      0x40\n      dup2\n      keccak256\n        /* \"v2-core-master/contracts/UniswapV2ERC20.sol\":2315:2359  _balances[from] = _balances[from].sub(value) */\n      swap2\n      swap1\n      swap2\n      sstore\n        /* \"v2-core-master/contracts/UniswapV2ERC20.sol\":2383:2394  totalSupply */\n      sload\n        /* \"v2-core-master/contracts/UniswapV2ERC20.sol\":2383:2405  totalSupply.sub(value) */\n      tag_379\n      swap1\n        /* \"v2-core-master/contracts/UniswapV2ERC20.sol\":2399:2404  value */\n      dup3\n        /* \"v2-core-master/contracts/UniswapV2ERC20.sol\":2383:2405  totalSupply.sub(value) */\n      0xffffffff\n        /* \"v2-core-master/contracts/UniswapV2ERC20.sol\":2383:2398  totalSupply.sub */\n      tag_160\n        /* \"v2-core-master/contracts/UniswapV2ERC20.sol\":2383:2405  totalSupply.sub(value) */\n      and\n      jump\t// in\n    tag_379:\n        /* \"v2-core-master/contracts/UniswapV2ERC20.sol\":2369:2380  totalSupply */\n      0x00\n        /* \"v2-core-master/contracts/UniswapV2ERC20.sol\":2369:2405  totalSupply = totalSupply.sub(value) */\n      swap1\n      dup2\n      sstore\n        /* \"v2-core-master/contracts/UniswapV2ERC20.sol\":2420:2453  Transfer(from, address(0), value) */\n      0x40\n      dup1\n      mload\n      dup4\n      dup2\n      mstore\n      swap1\n      mload\n      sub(shl(0xa0, 0x01), 0x01)\n      dup6\n      and\n      swap2\n      0x00\n      dup1\n      mload\n      0x20\n      data_ada389e1fc24a8587c776340efb91b36e675792ab631816100d55df0b5cf3cbc\n      dup4\n      codecopy\n      dup2\n      mload\n      swap2\n      mstore\n      swap2\n      swap1\n      dup2\n      swap1\n      sub\n      0x20\n      add\n      swap1\n      log3\n        /* \"v2-core-master/contracts/UniswapV2ERC20.sol\":2255:2460  function _burn(address from, uint value) internal {... */\n      pop\n      pop\n      jump\t// out\n        /* \"v2-core-master/contracts/UniswapV2ERC20.sol\":1795:2249  function freezeMint(address account, uint256 amount) internal returns (bool) {... */\n    tag_286:\n        /* \"v2-core-master/contracts/UniswapV2ERC20.sol\":1866:1870  bool */\n      0x00\n      sub(shl(0xa0, 0x01), 0x01)\n        /* \"v2-core-master/contracts/UniswapV2ERC20.sol\":1928:1949  account != address(0) */\n      dup4\n      and\n        /* \"v2-core-master/contracts/UniswapV2ERC20.sol\":1920:1985  require(account != address(0), 'BEP20: mint to the zero address') */\n      tag_381\n      jumpi\n      0x40\n      dup1\n      mload\n      shl(0xe5, 0x461bcd)\n      dup2\n      mstore\n      0x20\n      0x04\n      dup3\n      add\n      mstore\n      0x1f\n      0x24\n      dup3\n      add\n      mstore\n      0x42455032303a206d696e7420746f20746865207a65726f206164647265737300\n      0x44\n      dup3\n      add\n      mstore\n      swap1\n      mload\n      swap1\n      dup2\n      swap1\n      sub\n      0x64\n      add\n      swap1\n      revert\n    tag_381:\n        /* \"v2-core-master/contracts/UniswapV2ERC20.sol\":2075:2086  totalSupply */\n      sload(0x00)\n        /* \"v2-core-master/contracts/UniswapV2ERC20.sol\":2075:2098  totalSupply.add(amount) */\n      tag_382\n      swap1\n        /* \"v2-core-master/contracts/UniswapV2ERC20.sol\":2091:2097  amount */\n      dup4\n        /* \"v2-core-master/contracts/UniswapV2ERC20.sol\":2075:2098  totalSupply.add(amount) */\n      0xffffffff\n        /* \"v2-core-master/contracts/UniswapV2ERC20.sol\":2075:2090  totalSupply.add */\n      tag_216\n        /* \"v2-core-master/contracts/UniswapV2ERC20.sol\":2075:2098  totalSupply.add(amount) */\n      and\n      jump\t// in\n    tag_382:\n        /* \"v2-core-master/contracts/UniswapV2ERC20.sol\":2061:2072  totalSupply */\n      0x00\n        /* \"v2-core-master/contracts/UniswapV2ERC20.sol\":2061:2098  totalSupply = totalSupply.add(amount) */\n      swap1\n      dup2\n      sstore\n      sub(shl(0xa0, 0x01), 0x01)\n        /* \"v2-core-master/contracts/UniswapV2ERC20.sol\":2134:2157  _frozenBalance[account] */\n      dup5\n      and\n      dup2\n      mstore\n        /* \"v2-core-master/contracts/UniswapV2ERC20.sol\":2134:2148  _frozenBalance */\n      0x03\n        /* \"v2-core-master/contracts/UniswapV2ERC20.sol\":2134:2157  _frozenBalance[account] */\n      0x20\n      mstore\n      0x40\n      swap1\n      keccak256\n      sload\n        /* \"v2-core-master/contracts/UniswapV2ERC20.sol\":2134:2169  _frozenBalance[account].add(amount) */\n      tag_383\n      swap1\n        /* \"v2-core-master/contracts/UniswapV2ERC20.sol\":2162:2168  amount */\n      dup4\n        /* \"v2-core-master/contracts/UniswapV2ERC20.sol\":2134:2169  _frozenBalance[account].add(amount) */\n      0xffffffff\n        /* \"v2-core-master/contracts/UniswapV2ERC20.sol\":2134:2161  _frozenBalance[account].add */\n      tag_216\n        /* \"v2-core-master/contracts/UniswapV2ERC20.sol\":2134:2169  _frozenBalance[account].add(amount) */\n      and\n      jump\t// in\n    tag_383:\n      sub(shl(0xa0, 0x01), 0x01)\n        /* \"v2-core-master/contracts/UniswapV2ERC20.sol\":2108:2131  _frozenBalance[account] */\n      dup5\n      and\n      0x00\n      dup2\n      dup2\n      mstore\n        /* \"v2-core-master/contracts/UniswapV2ERC20.sol\":2108:2122  _frozenBalance */\n      0x03\n        /* \"v2-core-master/contracts/UniswapV2ERC20.sol\":2108:2131  _frozenBalance[account] */\n      0x20\n      swap1\n      dup2\n      mstore\n      0x40\n      dup1\n      dup4\n      keccak256\n        /* \"v2-core-master/contracts/UniswapV2ERC20.sol\":2108:2169  _frozenBalance[account] = _frozenBalance[account].add(amount) */\n      swap5\n      swap1\n      swap5\n      sstore\n        /* \"v2-core-master/contracts/UniswapV2ERC20.sol\":2184:2221  Transfer(address(0), account, amount) */\n      dup4\n      mload\n      dup7\n      dup2\n      mstore\n      swap4\n      mload\n        /* \"v2-core-master/contracts/UniswapV2ERC20.sol\":2108:2131  _frozenBalance[account] */\n      swap3\n      swap4\n      swap2\n      swap3\n      0x00\n      dup1\n      mload\n      0x20\n      data_ada389e1fc24a8587c776340efb91b36e675792ab631816100d55df0b5cf3cbc\n      dup4\n      codecopy\n      dup2\n      mload\n      swap2\n      mstore\n        /* \"v2-core-master/contracts/UniswapV2ERC20.sol\":2184:2221  Transfer(address(0), account, amount) */\n      swap3\n      dup2\n      swap1\n      sub\n      swap1\n      swap2\n      add\n      swap1\n      log3\n      pop\n        /* \"v2-core-master/contracts/UniswapV2ERC20.sol\":2238:2242  true */\n      0x01\n        /* \"v2-core-master/contracts/UniswapV2ERC20.sol\":1795:2249  function freezeMint(address account, uint256 amount) internal returns (bool) {... */\n      swap3\n      swap2\n      pop\n      pop\n      jump\t// out\n        /* \"v2-core-master/contracts/libraries/UQ112x112.sol\":283:401  function encode(uint112 y) internal pure returns (uint224 z) {... */\n    tag_333:\n      sub(shl(0x70, 0x01), 0x01)\n        /* \"v2-core-master/contracts/libraries/UQ112x112.sol\":358:368  uint224(y) */\n      and\n      shl(0x70, 0x01)\n        /* \"v2-core-master/contracts/libraries/UQ112x112.sol\":358:375  uint224(y) * Q112 */\n      mul\n      swap1\n        /* \"v2-core-master/contracts/libraries/UQ112x112.sol\":283:401  function encode(uint112 y) internal pure returns (uint224 z) {... */\n      jump\t// out\n        /* \"v2-core-master/contracts/libraries/UQ112x112.sol\":469:575  function uqdiv(uint224 x, uint112 y) internal pure returns (uint224 z) {... */\n    tag_334:\n        /* \"v2-core-master/contracts/libraries/UQ112x112.sol\":529:538  uint224 z */\n      0x00\n      sub(shl(0x70, 0x01), 0x01)\n        /* \"v2-core-master/contracts/libraries/UQ112x112.sol\":558:568  uint224(y) */\n      dup3\n      and\n      sub(shl(0xe0, 0x01), 0x01)\n        /* \"v2-core-master/contracts/libraries/UQ112x112.sol\":554:568  x / uint224(y) */\n      dup5\n      and\n        /* \"v2-core-master/contracts/libraries/UQ112x112.sol\":558:568  uint224(y) */\n      dup2\n        /* \"v2-core-master/contracts/libraries/UQ112x112.sol\":554:568  x / uint224(y) */\n      tag_386\n      jumpi\n      invalid\n    tag_386:\n      div\n      swap4\n        /* \"v2-core-master/contracts/libraries/UQ112x112.sol\":469:575  function uqdiv(uint224 x, uint112 y) internal pure returns (uint224 z) {... */\n      swap3\n      pop\n      pop\n      pop\n      jump\t// out\n    stop\n    data_05339493da7e2cbe77e17beadf6b91132eb307939495f5f1797bf88d95539e83 556e697377617056323a20494e53554646494349454e545f4f55545055545f414d4f554e54\n    data_10e2efc32d8a31d3b2c11a545b3ed09c2dbabc58ef6de4033929d0002e425b67 556e697377617056323a20494e53554646494349454e545f494e5055545f414d4f554e54\n    data_3f354ef449b2a9b081220ce21f57691008110b653edc191d8288e60cef58bb5f 556e697377617056323a20494e53554646494349454e545f4c4951554944495459\n    data_57ebfb4dd8b5082cdba0f23c17077e3b0ecb9782a51e0e9a15e9bc8c4b30c562 556e697377617056323a20494e53554646494349454e545f4c49515549444954595f4255524e4544\n    data_6591c9f5bf1fefaad109b76a20e25c857b696080c952191f86220f001a83663e 556e697377617056323a20494e53554646494349454e545f4c49515549444954595f4d494e544544\n    data_ada389e1fc24a8587c776340efb91b36e675792ab631816100d55df0b5cf3cbc ddf252ad1be2c89b69c2b068fc378daa952ba7f163c4a11628f55a4df523b3ef\n\n    auxdata: 0xa265627a7a72315820a9903e85aeea41d037026a9f8250cffb74bb056cab17c240cf93fee3435c87f364736f6c63430005100032\n}\n",
				"bytecode": {
					"linkReferences": {},
					"object": "60806040526001600d5534801561001557600080fd5b5060405146908060526127978239604080519182900360520182208282018252600b83526a045706f7353776170204c560ac1b6020938401528151808301835260018152603160f81b908401528151808401919091527f5db243d81ee6dc39059f55574d6be718e0d4e0640992da6200b8ba02bf956d24818301527fc89efdaa54c0f20c7adf612882df0950f5a951637e0307cdcb4c672f298b8bc6606082015260808101949094523060a0808601919091528151808603909101815260c09094019052825192019190912060045550600680546001600160a01b03191633179055612691806101066000396000f3fe608060405234801561001057600080fd5b50600436106101da5760003560e01c80636ebcf60711610104578063ba9a7a56116100a2578063d505accf11610071578063d505accf146105b9578063dcbbb3731461060a578063dd62ed3e14610630578063fff6cae91461065e576101da565b8063ba9a7a561461057b578063bc25cf7714610583578063c45a0155146105a9578063d21220a7146105b1576101da565b80637ecebe00116100de5780637ecebe00146104e257806389afcb441461050857806395d89b4114610547578063a9059cbb1461054f576101da565b80636ebcf6071461048e57806370a08231146104b45780637464fc3d146104da576101da565b806330adf81f1161017c578063485cc9551161014b578063485cc9551461042a5780635909c0d5146104585780635a3d5493146104605780636a62784214610468576101da565b806330adf81f146103d6578063313ce567146103de5780633644e515146103fc57806347d5d85614610404576101da565b8063095ea7b3116101b8578063095ea7b3146103225780630dfe16811461036257806318160ddd1461038657806323b872dd146103a0576101da565b8063022c0d9f146101df57806306fdde031461026d5780630902f1ac146102ea575b600080fd5b61026b600480360360808110156101f557600080fd5b8135916020810135916001600160a01b03604083013516919081019060808101606082013564010000000081111561022c57600080fd5b82018360208201111561023e57600080fd5b8035906020019184600183028401116401000000008311171561026057600080fd5b509092509050610666565b005b610275610ba1565b6040805160208082528351818301528351919283929083019185019080838360005b838110156102af578181015183820152602001610297565b50505050905090810190601f1680156102dc5780820380516001836020036101000a031916815260200191505b509250505060405180910390f35b6102f2610bc8565b604080516001600160701b03948516815292909316602083015263ffffffff168183015290519081900360600190f35b61034e6004803603604081101561033857600080fd5b506001600160a01b038135169060200135610bf2565b604080519115158252519081900360200190f35b61036a610c09565b604080516001600160a01b039092168252519081900360200190f35b61038e610c18565b60408051918252519081900360200190f35b61034e600480360360608110156103b657600080fd5b506001600160a01b03813581169160208101359091169060400135610c1e565b61038e610cb8565b6103e6610cdc565b6040805160ff9092168252519081900360200190f35b61038e610ce1565b61038e6004803603602081101561041a57600080fd5b50356001600160a01b0316610ce7565b61026b6004803603604081101561044057600080fd5b506001600160a01b0381358116916020013516610cf9565b61038e610d7d565b61038e610d83565b61038e6004803603602081101561047e57600080fd5b50356001600160a01b0316610d89565b61038e600480360360208110156104a457600080fd5b50356001600160a01b0316611089565b61038e600480360360208110156104ca57600080fd5b50356001600160a01b031661109b565b61038e6110d6565b61038e600480360360208110156104f857600080fd5b50356001600160a01b03166110dc565b61052e6004803603602081101561051e57600080fd5b50356001600160a01b03166110ee565b6040805192835260208301919091528051918290030190f35b610275611494565b61034e6004803603604081101561056557600080fd5b506001600160a01b0381351690602001356114b5565b61038e6114c2565b61026b6004803603602081101561059957600080fd5b50356001600160a01b03166114c8565b61036a611633565b61036a611642565b61026b600480360360e08110156105cf57600080fd5b506001600160a01b03813581169160208101359091169060408101359060608101359060ff6080820135169060a08101359060c00135611651565b61038e6004803603602081101561062057600080fd5b50356001600160a01b0316611853565b61038e6004803603604081101561064657600080fd5b506001600160a01b0381358116916020013516611aa4565b61026b611ac1565b600d546001146106b1576040805162461bcd60e51b8152602060048201526011602482015270155b9a5cddd85c158c8e881313d0d2d151607a1b604482015290519081900360640190fd5b6000600d55841515806106c45750600084115b6106ff5760405162461bcd60e51b81526004018080602001828103825260258152602001806125836025913960400191505060405180910390fd5b60008061070a610bc8565b5091509150816001600160701b03168710801561072f5750806001600160701b031686105b61076a5760405162461bcd60e51b81526004018080602001828103825260218152602001806125cc6021913960400191505060405180910390fd5b60075460085460009182916001600160a01b039182169190811690891682148015906107a85750806001600160a01b0316896001600160a01b031614155b6107f1576040805162461bcd60e51b8152602060048201526015602482015274556e697377617056323a20494e56414c49445f544f60581b604482015290519081900360640190fd5b8a1561080257610802828a8d611c23565b891561081357610813818a8c611c23565b86156108ce57886001600160a01b03166310d1e85c338d8d8c8c6040518663ffffffff1660e01b815260040180866001600160a01b03166001600160a01b03168152602001858152602001848152602001806020018281038252848482818152602001925080828437600081840152601f19601f8201169050808301925050509650505050505050600060405180830381600087803b1580156108b557600080fd5b505af11580156108c9573d6000803e3d6000fd5b505050505b604080516370a0823160e01b815230600482015290516001600160a01b038416916370a08231916024808301926020929190829003018186803b15801561091457600080fd5b505afa158015610928573d6000803e3d6000fd5b505050506040513d602081101561093e57600080fd5b5051604080516370a0823160e01b815230600482015290519195506001600160a01b038316916370a0823191602480820192602092909190829003018186803b15801561098a57600080fd5b505afa15801561099e573d6000803e3d6000fd5b505050506040513d60208110156109b457600080fd5b5051925060009150506001600160701b0385168a900383116109d75760006109e6565b89856001600160701b03160383035b9050600089856001600160701b0316038311610a03576000610a12565b89856001600160701b03160383035b90506000821180610a235750600081115b610a5e5760405162461bcd60e51b81526004018080602001828103825260248152602001806125a86024913960400191505060405180910390fd5b6000610a92610a7484600363ffffffff611dbd16565b610a86876103e863ffffffff611dbd16565b9063ffffffff611e2016565b90506000610aaa610a7484600363ffffffff611dbd16565b9050610adb620f4240610acf6001600160701b038b8116908b1663ffffffff611dbd16565b9063ffffffff611dbd16565b610aeb838363ffffffff611dbd16565b1015610b2d576040805162461bcd60e51b815260206004820152600c60248201526b556e697377617056323a204b60a01b604482015290519081900360640190fd5b5050610b3b84848888611e70565b60408051838152602081018390528082018d9052606081018c905290516001600160a01b038b169133917fd78ad95fa46c994b6551d0da85fc275fe613ce37657fb8d5e3d130840159d8229181900360800190a350506001600d55505050505050505050565b6040518060400160405280600b81526020016a045706f7353776170204c560ac1b81525081565b6009546001600160701b0380821692600160701b830490911691600160e01b900463ffffffff1690565b6000610bff338484612035565b5060015b92915050565b6007546001600160a01b031681565b60005481565b6001600160a01b038316600090815260026020908152604080832033845290915281205460001914610ca3576001600160a01b0384166000908152600260209081526040808320338452909152902054610c7e908363ffffffff611e2016565b6001600160a01b03851660009081526002602090815260408083203384529091529020555b610cae848484612097565b5060019392505050565b7f6e71edae12b1b97f4d1f60370fef10105fa2faae0126114a169c64845d6126c981565b601281565b60045481565b60036020526000908152604090205481565b6006546001600160a01b03163314610d4f576040805162461bcd60e51b81526020600482015260146024820152732ab734b9bbb0b82b191d102327a92124a22222a760611b604482015290519081900360640190fd5b600780546001600160a01b039384166001600160a01b03199182161790915560088054929093169116179055565b600a5481565b600b5481565b6000600d54600114610dd6576040805162461bcd60e51b8152602060048201526011602482015270155b9a5cddd85c158c8e881313d0d2d151607a1b604482015290519081900360640190fd5b6000600d81905580610de6610bc8565b50600754604080516370a0823160e01b815230600482015290519395509193506000926001600160a01b03909116916370a08231916024808301926020929190829003018186803b158015610e3a57600080fd5b505afa158015610e4e573d6000803e3d6000fd5b505050506040513d6020811015610e6457600080fd5b5051600854604080516370a0823160e01b815230600482015290519293506000926001600160a01b03909216916370a0823191602480820192602092909190829003018186803b158015610eb757600080fd5b505afa158015610ecb573d6000803e3d6000fd5b505050506040513d6020811015610ee157600080fd5b505190506000610f00836001600160701b03871663ffffffff611e2016565b90506000610f1d836001600160701b03871663ffffffff611e2016565b90506000610f2b878761213f565b60005490915080610f6857610f546103e8610a86610f4f878763ffffffff611dbd16565b61229d565b9850610f6360006103e86122ee565b610fb7565b610fb46001600160701b038916610f85868463ffffffff611dbd16565b81610f8c57fe5b046001600160701b038916610fa7868563ffffffff611dbd16565b81610fae57fe5b04612372565b98505b60008911610ff65760405162461bcd60e51b81526004018080602001828103825260288152602001806126156028913960400191505060405180910390fd5b6110008a8a6122ee565b61100c86868a8a611e70565b811561103c57600954611038906001600160701b0380821691600160701b90041663ffffffff611dbd16565b600c555b6040805185815260208101859052815133927f4c209b5fc8ad50758f13e2e1088ba56a560dff690a1c6fef26394f4c03821c4f928290030190a250506001600d5550949695505050505050565b60016020526000908152604090205481565b6001600160a01b03811660009081526003602090815260408083205460019092528220546110ce9163ffffffff61238a16565b90505b919050565b600c5481565b60056020526000908152604090205481565b600080600d5460011461113c576040805162461bcd60e51b8152602060048201526011602482015270155b9a5cddd85c158c8e881313d0d2d151607a1b604482015290519081900360640190fd5b6000600d8190558061114c610bc8565b50600754600854604080516370a0823160e01b815230600482015290519496509294506001600160a01b039182169391169160009184916370a08231916024808301926020929190829003018186803b1580156111a857600080fd5b505afa1580156111bc573d6000803e3d6000fd5b505050506040513d60208110156111d257600080fd5b5051604080516370a0823160e01b815230600482015290519192506000916001600160a01b038516916370a08231916024808301926020929190829003018186803b15801561122057600080fd5b505afa158015611234573d6000803e3d6000fd5b505050506040513d602081101561124a57600080fd5b505130600090815260016020526040812054919250611269888861213f565b60005490915080611280848763ffffffff611dbd16565b8161128757fe5b049a508061129b848663ffffffff611dbd16565b816112a257fe5b04995060008b1180156112b5575060008a115b6112f05760405162461bcd60e51b81526004018080602001828103825260288152602001806125ed6028913960400191505060405180910390fd5b6112fa30846123d9565b611305878d8d611c23565b611310868d8c611c23565b604080516370a0823160e01b815230600482015290516001600160a01b038916916370a08231916024808301926020929190829003018186803b15801561135657600080fd5b505afa15801561136a573d6000803e3d6000fd5b505050506040513d602081101561138057600080fd5b5051604080516370a0823160e01b815230600482015290519196506001600160a01b038816916370a0823191602480820192602092909190829003018186803b1580156113cc57600080fd5b505afa1580156113e0573d6000803e3d6000fd5b505050506040513d60208110156113f657600080fd5b5051935061140685858b8b611e70565b811561143657600954611432906001600160701b0380821691600160701b90041663ffffffff611dbd16565b600c555b604080518c8152602081018c905281516001600160a01b038f169233927fdccd412f0b1252819cb1fd330b93224ca42612892bb3f4f789976e6d81936496929081900390910190a35050505050505050506001600d81905550915091565b60405180604001604052806005815260200164045535741560dc1b81525081565b6000610bff338484612097565b6103e881565b600d54600114611513576040805162461bcd60e51b8152602060048201526011602482015270155b9a5cddd85c158c8e881313d0d2d151607a1b604482015290519081900360640190fd5b6000600d55600754600854600954604080516370a0823160e01b815230600482015290516001600160a01b0394851694909316926115c292859287926115bd926001600160701b03169185916370a0823191602480820192602092909190829003018186803b15801561158557600080fd5b505afa158015611599573d6000803e3d6000fd5b505050506040513d60208110156115af57600080fd5b50519063ffffffff611e2016565b611c23565b600954604080516370a0823160e01b8152306004820152905161162992849287926115bd92600160701b90046001600160701b0316916001600160a01b038616916370a0823191602480820192602092909190829003018186803b15801561158557600080fd5b50506001600d5550565b6006546001600160a01b031681565b6008546001600160a01b031681565b4284101561169b576040805162461bcd60e51b8152602060048201526012602482015271155b9a5cddd85c158c8e881156141254915160721b604482015290519081900360640190fd5b6004546001600160a01b0380891660008181526005602090815260408083208054600180820190925582517f6e71edae12b1b97f4d1f60370fef10105fa2faae0126114a169c64845d6126c98186015280840196909652958d166060860152608085018c905260a085019590955260c08085018b90528151808603909101815260e08501825280519083012061190160f01b6101008601526101028501969096526101228085019690965280518085039096018652610142840180825286519683019690962095839052610162840180825286905260ff89166101828501526101a284018890526101c28401879052519193926101e280820193601f1981019281900390910190855afa1580156117b6573d6000803e3d6000fd5b5050604051601f1901519150506001600160a01b038116158015906117ec5750886001600160a01b0316816001600160a01b0316145b61183d576040805162461bcd60e51b815260206004820152601c60248201527f556e697377617056323a20494e56414c49445f5349474e415455524500000000604482015290519081900360640190fd5b611848898989612035565b505050505050505050565b6000600d546001146118a0576040805162461bcd60e51b8152602060048201526011602482015270155b9a5cddd85c158c8e881313d0d2d151607a1b604482015290519081900360640190fd5b6000600d819055806118b0610bc8565b50600754604080516370a0823160e01b815230600482015290519395509193506000926001600160a01b03909116916370a08231916024808301926020929190829003018186803b15801561190457600080fd5b505afa158015611918573d6000803e3d6000fd5b505050506040513d602081101561192e57600080fd5b5051600854604080516370a0823160e01b815230600482015290519293506000926001600160a01b03909216916370a0823191602480820192602092909190829003018186803b15801561198157600080fd5b505afa158015611995573d6000803e3d6000fd5b505050506040513d60208110156119ab57600080fd5b5051905060006119ca836001600160701b03871663ffffffff611e2016565b905060006119e7836001600160701b03871663ffffffff611e2016565b905060006119f5878761213f565b60005490915080611a2e57611a196103e8610a86610f4f878763ffffffff611dbd16565b9850611a2860006103e8612465565b50611a4e565b611a4b6001600160701b038916610f85868463ffffffff611dbd16565b98505b60008911611a8d5760405162461bcd60e51b81526004018080602001828103825260288152602001806126156028913960400191505060405180910390fd5b611a978a8a612465565b5061100c86868a8a611e70565b600260209081526000928352604080842090915290825290205481565b600d54600114611b0c576040805162461bcd60e51b8152602060048201526011602482015270155b9a5cddd85c158c8e881313d0d2d151607a1b604482015290519081900360640190fd5b6000600d55600754604080516370a0823160e01b81523060048201529051611c1c926001600160a01b0316916370a08231916024808301926020929190829003018186803b158015611b5d57600080fd5b505afa158015611b71573d6000803e3d6000fd5b505050506040513d6020811015611b8757600080fd5b5051600854604080516370a0823160e01b815230600482015290516001600160a01b03909216916370a0823191602480820192602092909190829003018186803b158015611bd457600080fd5b505afa158015611be8573d6000803e3d6000fd5b505050506040513d6020811015611bfe57600080fd5b50516009546001600160701b0380821691600160701b900416611e70565b6001600d55565b604080518082018252601981527f7472616e7366657228616464726573732c75696e74323536290000000000000060209182015281516001600160a01b0385811660248301526044808301869052845180840390910181526064909201845291810180516001600160e01b031663a9059cbb60e01b1781529251815160009460609489169392918291908083835b60208310611cd05780518252601f199092019160209182019101611cb1565b6001836020036101000a0380198251168184511680821785525050505050509050019150506000604051808303816000865af19150503d8060008114611d32576040519150601f19603f3d011682016040523d82523d6000602084013e611d37565b606091505b5091509150818015611d65575080511580611d655750808060200190516020811015611d6257600080fd5b50515b611db6576040805162461bcd60e51b815260206004820152601a60248201527f556e697377617056323a205452414e534645525f4641494c4544000000000000604482015290519081900360640190fd5b5050505050565b6000811580611dd857505080820282828281611dd557fe5b04145b610c03576040805162461bcd60e51b815260206004820152601460248201527364732d6d6174682d6d756c2d6f766572666c6f7760601b604482015290519081900360640190fd5b80820382811115610c03576040805162461bcd60e51b815260206004820152601560248201527464732d6d6174682d7375622d756e646572666c6f7760581b604482015290519081900360640190fd5b6001600160701b038411801590611e8e57506001600160701b038311155b611ed5576040805162461bcd60e51b8152602060048201526013602482015272556e697377617056323a204f564552464c4f5760681b604482015290519081900360640190fd5b60095463ffffffff42811691600160e01b90048116820390811615801590611f0557506001600160701b03841615155b8015611f1957506001600160701b03831615155b15611f8a578063ffffffff16611f4785611f328661254b565b6001600160e01b03169063ffffffff61255d16565b600a80546001600160e01b03929092169290920201905563ffffffff8116611f7284611f328761254b565b600b80546001600160e01b0392909216929092020190555b600980546dffffffffffffffffffffffffffff19166001600160701b03888116919091176dffffffffffffffffffffffffffff60701b1916600160701b8883168102919091176001600160e01b0316600160e01b63ffffffff871602179283905560408051848416815291909304909116602082015281517f1c411e9a96e071241c2f21f7726b17ae89e3cab4c78be50e062b03a9fffbbad1929181900390910190a1505050505050565b6001600160a01b03808416600081815260026020908152604080832094871680845294825291829020859055815185815291517f8c5be1e5ebec7d5bd14f71427d1e84f3dd0314c0f7b2291e5b200ac8c7c3b9259281900390910190a3505050565b6001600160a01b0383166000908152600160205260409020546120c0908263ffffffff611e2016565b6001600160a01b0380851660009081526001602052604080822093909355908416815220546120f5908263ffffffff61238a16565b6001600160a01b03808416600081815260016020908152604091829020949094558051858152905191939287169260008051602061263d83398151915292918290030190a3505050565b600080600660009054906101000a90046001600160a01b03166001600160a01b031663017e7e586040518163ffffffff1660e01b815260040160206040518083038186803b15801561219057600080fd5b505afa1580156121a4573d6000803e3d6000fd5b505050506040513d60208110156121ba57600080fd5b5051600c546001600160a01b0382161580159450919250906122895780156122845760006121fd610f4f6001600160701b0388811690881663ffffffff611dbd16565b9050600061220a8361229d565b905080821115612281576000612238612229848463ffffffff611e2016565b6000549063ffffffff611dbd16565b9050600061225d8361225186600563ffffffff611dbd16565b9063ffffffff61238a16565b9050600081838161226a57fe5b049050801561227d5761227d87826122ee565b5050505b50505b612295565b8015612295576000600c555b505092915050565b600060038211156122e0575080600160028204015b818110156122da578091506002818285816122c957fe5b0401816122d257fe5b0490506122b2565b506110d1565b81156110d157506001919050565b600054612301908263ffffffff61238a16565b60009081556001600160a01b03831681526001602052604090205461232c908263ffffffff61238a16565b6001600160a01b038316600081815260016020908152604080832094909455835185815293519293919260008051602061263d8339815191529281900390910190a35050565b60008183106123815781612383565b825b9392505050565b80820182811015610c03576040805162461bcd60e51b815260206004820152601460248201527364732d6d6174682d6164642d6f766572666c6f7760601b604482015290519081900360640190fd5b6001600160a01b038216600090815260016020526040902054612402908263ffffffff611e2016565b6001600160a01b0383166000908152600160205260408120919091555461242f908263ffffffff611e2016565b60009081556040805183815290516001600160a01b0385169160008051602061263d833981519152919081900360200190a35050565b60006001600160a01b0383166124c2576040805162461bcd60e51b815260206004820152601f60248201527f42455032303a206d696e7420746f20746865207a65726f206164647265737300604482015290519081900360640190fd5b6000546124d5908363ffffffff61238a16565b60009081556001600160a01b038416815260036020526040902054612500908363ffffffff61238a16565b6001600160a01b038416600081815260036020908152604080832094909455835186815293519293919260008051602061263d8339815191529281900390910190a350600192915050565b6001600160701b0316600160701b0290565b60006001600160701b0382166001600160e01b0384168161257a57fe5b04939250505056fe556e697377617056323a20494e53554646494349454e545f4f55545055545f414d4f554e54556e697377617056323a20494e53554646494349454e545f494e5055545f414d4f554e54556e697377617056323a20494e53554646494349454e545f4c4951554944495459556e697377617056323a20494e53554646494349454e545f4c49515549444954595f4255524e4544556e697377617056323a20494e53554646494349454e545f4c49515549444954595f4d494e544544ddf252ad1be2c89b69c2b068fc378daa952ba7f163c4a11628f55a4df523b3efa265627a7a72315820a9903e85aeea41d037026a9f8250cffb74bb056cab17c240cf93fee3435c87f364736f6c63430005100032454950373132446f6d61696e28737472696e67206e616d652c737472696e672076657273696f6e2c75696e7432353620636861696e49642c6164647265737320766572696679696e67436f6e747261637429",
					"opcodes": "PUSH1 0x80 PUSH1 0x40 MSTORE PUSH1 0x1 PUSH1 0xD SSTORE CALLVALUE DUP1 ISZERO PUSH2 0x15 JUMPI PUSH1 0x0 DUP1 REVERT JUMPDEST POP PUSH1 0x40 MLOAD CHAINID SWAP1 DUP1 PUSH1 0x52 PUSH2 0x2797 DUP3 CODECOPY PUSH1 0x40 DUP1 MLOAD SWAP2 DUP3 SWAP1 SUB PUSH1 0x52 ADD DUP3 KECCAK256 DUP3 DUP3 ADD DUP3 MSTORE PUSH1 0xB DUP4 MSTORE PUSH11 0x45706F7353776170204C5 PUSH1 0xAC SHL PUSH1 0x20 SWAP4 DUP5 ADD MSTORE DUP2 MLOAD DUP1 DUP4 ADD DUP4 MSTORE PUSH1 0x1 DUP2 MSTORE PUSH1 0x31 PUSH1 0xF8 SHL SWAP1 DUP5 ADD MSTORE DUP2 MLOAD DUP1 DUP5 ADD SWAP2 SWAP1 SWAP2 MSTORE PUSH32 0x5DB243D81EE6DC39059F55574D6BE718E0D4E0640992DA6200B8BA02BF956D24 DUP2 DUP4 ADD MSTORE PUSH32 0xC89EFDAA54C0F20C7ADF612882DF0950F5A951637E0307CDCB4C672F298B8BC6 PUSH1 0x60 DUP3 ADD MSTORE PUSH1 0x80 DUP2 ADD SWAP5 SWAP1 SWAP5 MSTORE ADDRESS PUSH1 0xA0 DUP1 DUP7 ADD SWAP2 SWAP1 SWAP2 MSTORE DUP2 MLOAD DUP1 DUP7 SUB SWAP1 SWAP2 ADD DUP2 MSTORE PUSH1 0xC0 SWAP1 SWAP5 ADD SWAP1 MSTORE DUP3 MLOAD SWAP3 ADD SWAP2 SWAP1 SWAP2 KECCAK256 PUSH1 0x4 SSTORE POP PUSH1 0x6 DUP1 SLOAD PUSH1 0x1 PUSH1 0x1 PUSH1 0xA0 SHL SUB NOT AND CALLER OR SWAP1 SSTORE PUSH2 0x2691 DUP1 PUSH2 0x106 PUSH1 0x0 CODECOPY PUSH1 0x0 RETURN INVALID PUSH1 0x80 PUSH1 0x40 MSTORE CALLVALUE DUP1 ISZERO PUSH2 0x10 JUMPI PUSH1 0x0 DUP1 REVERT JUMPDEST POP PUSH1 0x4 CALLDATASIZE LT PUSH2 0x1DA JUMPI PUSH1 0x0 CALLDATALOAD PUSH1 0xE0 SHR DUP1 PUSH4 0x6EBCF607 GT PUSH2 0x104 JUMPI DUP1 PUSH4 0xBA9A7A56 GT PUSH2 0xA2 JUMPI DUP1 PUSH4 0xD505ACCF GT PUSH2 0x71 JUMPI DUP1 PUSH4 0xD505ACCF EQ PUSH2 0x5B9 JUMPI DUP1 PUSH4 0xDCBBB373 EQ PUSH2 0x60A JUMPI DUP1 PUSH4 0xDD62ED3E EQ PUSH2 0x630 JUMPI DUP1 PUSH4 0xFFF6CAE9 EQ PUSH2 0x65E JUMPI PUSH2 0x1DA JUMP JUMPDEST DUP1 PUSH4 0xBA9A7A56 EQ PUSH2 0x57B JUMPI DUP1 PUSH4 0xBC25CF77 EQ PUSH2 0x583 JUMPI DUP1 PUSH4 0xC45A0155 EQ PUSH2 0x5A9 JUMPI DUP1 PUSH4 0xD21220A7 EQ PUSH2 0x5B1 JUMPI PUSH2 0x1DA JUMP JUMPDEST DUP1 PUSH4 0x7ECEBE00 GT PUSH2 0xDE JUMPI DUP1 PUSH4 0x7ECEBE00 EQ PUSH2 0x4E2 JUMPI DUP1 PUSH4 0x89AFCB44 EQ PUSH2 0x508 JUMPI DUP1 PUSH4 0x95D89B41 EQ PUSH2 0x547 JUMPI DUP1 PUSH4 0xA9059CBB EQ PUSH2 0x54F JUMPI PUSH2 0x1DA JUMP JUMPDEST DUP1 PUSH4 0x6EBCF607 EQ PUSH2 0x48E JUMPI DUP1 PUSH4 0x70A08231 EQ PUSH2 0x4B4 JUMPI DUP1 PUSH4 0x7464FC3D EQ PUSH2 0x4DA JUMPI PUSH2 0x1DA JUMP JUMPDEST DUP1 PUSH4 0x30ADF81F GT PUSH2 0x17C JUMPI DUP1 PUSH4 0x485CC955 GT PUSH2 0x14B JUMPI DUP1 PUSH4 0x485CC955 EQ PUSH2 0x42A JUMPI DUP1 PUSH4 0x5909C0D5 EQ PUSH2 0x458 JUMPI DUP1 PUSH4 0x5A3D5493 EQ PUSH2 0x460 JUMPI DUP1 PUSH4 0x6A627842 EQ PUSH2 0x468 JUMPI PUSH2 0x1DA JUMP JUMPDEST DUP1 PUSH4 0x30ADF81F EQ PUSH2 0x3D6 JUMPI DUP1 PUSH4 0x313CE567 EQ PUSH2 0x3DE JUMPI DUP1 PUSH4 0x3644E515 EQ PUSH2 0x3FC JUMPI DUP1 PUSH4 0x47D5D856 EQ PUSH2 0x404 JUMPI PUSH2 0x1DA JUMP JUMPDEST DUP1 PUSH4 0x95EA7B3 GT PUSH2 0x1B8 JUMPI DUP1 PUSH4 0x95EA7B3 EQ PUSH2 0x322 JUMPI DUP1 PUSH4 0xDFE1681 EQ PUSH2 0x362 JUMPI DUP1 PUSH4 0x18160DDD EQ PUSH2 0x386 JUMPI DUP1 PUSH4 0x23B872DD EQ PUSH2 0x3A0 JUMPI PUSH2 0x1DA JUMP JUMPDEST DUP1 PUSH4 0x22C0D9F EQ PUSH2 0x1DF JUMPI DUP1 PUSH4 0x6FDDE03 EQ PUSH2 0x26D JUMPI DUP1 PUSH4 0x902F1AC EQ PUSH2 0x2EA JUMPI JUMPDEST PUSH1 0x0 DUP1 REVERT JUMPDEST PUSH2 0x26B PUSH1 0x4 DUP1 CALLDATASIZE SUB PUSH1 0x80 DUP2 LT ISZERO PUSH2 0x1F5 JUMPI PUSH1 0x0 DUP1 REVERT JUMPDEST DUP2 CALLDATALOAD SWAP2 PUSH1 0x20 DUP2 ADD CALLDATALOAD SWAP2 PUSH1 0x1 PUSH1 0x1 PUSH1 0xA0 SHL SUB PUSH1 0x40 DUP4 ADD CALLDATALOAD AND SWAP2 SWAP1 DUP2 ADD SWAP1 PUSH1 0x80 DUP2 ADD PUSH1 0x60 DUP3 ADD CALLDATALOAD PUSH5 0x100000000 DUP2 GT ISZERO PUSH2 0x22C JUMPI PUSH1 0x0 DUP1 REVERT JUMPDEST DUP3 ADD DUP4 PUSH1 0x20 DUP3 ADD GT ISZERO PUSH2 0x23E JUMPI PUSH1 0x0 DUP1 REVERT JUMPDEST DUP1 CALLDATALOAD SWAP1 PUSH1 0x20 ADD SWAP2 DUP5 PUSH1 0x1 DUP4 MUL DUP5 ADD GT PUSH5 0x100000000 DUP4 GT OR ISZERO PUSH2 0x260 JUMPI PUSH1 0x0 DUP1 REVERT JUMPDEST POP SWAP1 SWAP3 POP SWAP1 POP PUSH2 0x666 JUMP JUMPDEST STOP JUMPDEST PUSH2 0x275 PUSH2 0xBA1 JUMP JUMPDEST PUSH1 0x40 DUP1 MLOAD PUSH1 0x20 DUP1 DUP3 MSTORE DUP4 MLOAD DUP2 DUP4 ADD MSTORE DUP4 MLOAD SWAP2 SWAP3 DUP4 SWAP3 SWAP1 DUP4 ADD SWAP2 DUP6 ADD SWAP1 DUP1 DUP4 DUP4 PUSH1 0x0 JUMPDEST DUP4 DUP2 LT ISZERO PUSH2 0x2AF JUMPI DUP2 DUP2 ADD MLOAD DUP4 DUP3 ADD MSTORE PUSH1 0x20 ADD PUSH2 0x297 JUMP JUMPDEST POP POP POP POP SWAP1 POP SWAP1 DUP2 ADD SWAP1 PUSH1 0x1F AND DUP1 ISZERO PUSH2 0x2DC JUMPI DUP1 DUP3 SUB DUP1 MLOAD PUSH1 0x1 DUP4 PUSH1 0x20 SUB PUSH2 0x100 EXP SUB NOT AND DUP2 MSTORE PUSH1 0x20 ADD SWAP2 POP JUMPDEST POP SWAP3 POP POP POP PUSH1 0x40 MLOAD DUP1 SWAP2 SUB SWAP1 RETURN JUMPDEST PUSH2 0x2F2 PUSH2 0xBC8 JUMP JUMPDEST PUSH1 0x40 DUP1 MLOAD PUSH1 0x1 PUSH1 0x1 PUSH1 0x70 SHL SUB SWAP5 DUP6 AND DUP2 MSTORE SWAP3 SWAP1 SWAP4 AND PUSH1 0x20 DUP4 ADD MSTORE PUSH4 0xFFFFFFFF AND DUP2 DUP4 ADD MSTORE SWAP1 MLOAD SWAP1 DUP2 SWAP1 SUB PUSH1 0x60 ADD SWAP1 RETURN JUMPDEST PUSH2 0x34E PUSH1 0x4 DUP1 CALLDATASIZE SUB PUSH1 0x40 DUP2 LT ISZERO PUSH2 0x338 JUMPI PUSH1 0x0 DUP1 REVERT JUMPDEST POP PUSH1 0x1 PUSH1 0x1 PUSH1 0xA0 SHL SUB DUP2 CALLDATALOAD AND SWAP1 PUSH1 0x20 ADD CALLDATALOAD PUSH2 0xBF2 JUMP JUMPDEST PUSH1 0x40 DUP1 MLOAD SWAP2 ISZERO ISZERO DUP3 MSTORE MLOAD SWAP1 DUP2 SWAP1 SUB PUSH1 0x20 ADD SWAP1 RETURN JUMPDEST PUSH2 0x36A PUSH2 0xC09 JUMP JUMPDEST PUSH1 0x40 DUP1 MLOAD PUSH1 0x1 PUSH1 0x1 PUSH1 0xA0 SHL SUB SWAP1 SWAP3 AND DUP3 MSTORE MLOAD SWAP1 DUP2 SWAP1 SUB PUSH1 0x20 ADD SWAP1 RETURN JUMPDEST PUSH2 0x38E PUSH2 0xC18 JUMP JUMPDEST PUSH1 0x40 DUP1 MLOAD SWAP2 DUP3 MSTORE MLOAD SWAP1 DUP2 SWAP1 SUB PUSH1 0x20 ADD SWAP1 RETURN JUMPDEST PUSH2 0x34E PUSH1 0x4 DUP1 CALLDATASIZE SUB PUSH1 0x60 DUP2 LT ISZERO PUSH2 0x3B6 JUMPI PUSH1 0x0 DUP1 REVERT JUMPDEST POP PUSH1 0x1 PUSH1 0x1 PUSH1 0xA0 SHL SUB DUP2 CALLDATALOAD DUP2 AND SWAP2 PUSH1 0x20 DUP2 ADD CALLDATALOAD SWAP1 SWAP2 AND SWAP1 PUSH1 0x40 ADD CALLDATALOAD PUSH2 0xC1E JUMP JUMPDEST PUSH2 0x38E PUSH2 0xCB8 JUMP JUMPDEST PUSH2 0x3E6 PUSH2 0xCDC JUMP JUMPDEST PUSH1 0x40 DUP1 MLOAD PUSH1 0xFF SWAP1 SWAP3 AND DUP3 MSTORE MLOAD SWAP1 DUP2 SWAP1 SUB PUSH1 0x20 ADD SWAP1 RETURN JUMPDEST PUSH2 0x38E PUSH2 0xCE1 JUMP JUMPDEST PUSH2 0x38E PUSH1 0x4 DUP1 CALLDATASIZE SUB PUSH1 0x20 DUP2 LT ISZERO PUSH2 0x41A JUMPI PUSH1 0x0 DUP1 REVERT JUMPDEST POP CALLDATALOAD PUSH1 0x1 PUSH1 0x1 PUSH1 0xA0 SHL SUB AND PUSH2 0xCE7 JUMP JUMPDEST PUSH2 0x26B PUSH1 0x4 DUP1 CALLDATASIZE SUB PUSH1 0x40 DUP2 LT ISZERO PUSH2 0x440 JUMPI PUSH1 0x0 DUP1 REVERT JUMPDEST POP PUSH1 0x1 PUSH1 0x1 PUSH1 0xA0 SHL SUB DUP2 CALLDATALOAD DUP2 AND SWAP2 PUSH1 0x20 ADD CALLDATALOAD AND PUSH2 0xCF9 JUMP JUMPDEST PUSH2 0x38E PUSH2 0xD7D JUMP JUMPDEST PUSH2 0x38E PUSH2 0xD83 JUMP JUMPDEST PUSH2 0x38E PUSH1 0x4 DUP1 CALLDATASIZE SUB PUSH1 0x20 DUP2 LT ISZERO PUSH2 0x47E JUMPI PUSH1 0x0 DUP1 REVERT JUMPDEST POP CALLDATALOAD PUSH1 0x1 PUSH1 0x1 PUSH1 0xA0 SHL SUB AND PUSH2 0xD89 JUMP JUMPDEST PUSH2 0x38E PUSH1 0x4 DUP1 CALLDATASIZE SUB PUSH1 0x20 DUP2 LT ISZERO PUSH2 0x4A4 JUMPI PUSH1 0x0 DUP1 REVERT JUMPDEST POP CALLDATALOAD PUSH1 0x1 PUSH1 0x1 PUSH1 0xA0 SHL SUB AND PUSH2 0x1089 JUMP JUMPDEST PUSH2 0x38E PUSH1 0x4 DUP1 CALLDATASIZE SUB PUSH1 0x20 DUP2 LT ISZERO PUSH2 0x4CA JUMPI PUSH1 0x0 DUP1 REVERT JUMPDEST POP CALLDATALOAD PUSH1 0x1 PUSH1 0x1 PUSH1 0xA0 SHL SUB AND PUSH2 0x109B JUMP JUMPDEST PUSH2 0x38E PUSH2 0x10D6 JUMP JUMPDEST PUSH2 0x38E PUSH1 0x4 DUP1 CALLDATASIZE SUB PUSH1 0x20 DUP2 LT ISZERO PUSH2 0x4F8 JUMPI PUSH1 0x0 DUP1 REVERT JUMPDEST POP CALLDATALOAD PUSH1 0x1 PUSH1 0x1 PUSH1 0xA0 SHL SUB AND PUSH2 0x10DC JUMP JUMPDEST PUSH2 0x52E PUSH1 0x4 DUP1 CALLDATASIZE SUB PUSH1 0x20 DUP2 LT ISZERO PUSH2 0x51E JUMPI PUSH1 0x0 DUP1 REVERT JUMPDEST POP CALLDATALOAD PUSH1 0x1 PUSH1 0x1 PUSH1 0xA0 SHL SUB AND PUSH2 0x10EE JUMP JUMPDEST PUSH1 0x40 DUP1 MLOAD SWAP3 DUP4 MSTORE PUSH1 0x20 DUP4 ADD SWAP2 SWAP1 SWAP2 MSTORE DUP1 MLOAD SWAP2 DUP3 SWAP1 SUB ADD SWAP1 RETURN JUMPDEST PUSH2 0x275 PUSH2 0x1494 JUMP JUMPDEST PUSH2 0x34E PUSH1 0x4 DUP1 CALLDATASIZE SUB PUSH1 0x40 DUP2 LT ISZERO PUSH2 0x565 JUMPI PUSH1 0x0 DUP1 REVERT JUMPDEST POP PUSH1 0x1 PUSH1 0x1 PUSH1 0xA0 SHL SUB DUP2 CALLDATALOAD AND SWAP1 PUSH1 0x20 ADD CALLDATALOAD PUSH2 0x14B5 JUMP JUMPDEST PUSH2 0x38E PUSH2 0x14C2 JUMP JUMPDEST PUSH2 0x26B PUSH1 0x4 DUP1 CALLDATASIZE SUB PUSH1 0x20 DUP2 LT ISZERO PUSH2 0x599 JUMPI PUSH1 0x0 DUP1 REVERT JUMPDEST POP CALLDATALOAD PUSH1 0x1 PUSH1 0x1 PUSH1 0xA0 SHL SUB AND PUSH2 0x14C8 JUMP JUMPDEST PUSH2 0x36A PUSH2 0x1633 JUMP JUMPDEST PUSH2 0x36A PUSH2 0x1642 JUMP JUMPDEST PUSH2 0x26B PUSH1 0x4 DUP1 CALLDATASIZE SUB PUSH1 0xE0 DUP2 LT ISZERO PUSH2 0x5CF JUMPI PUSH1 0x0 DUP1 REVERT JUMPDEST POP PUSH1 0x1 PUSH1 0x1 PUSH1 0xA0 SHL SUB DUP2 CALLDATALOAD DUP2 AND SWAP2 PUSH1 0x20 DUP2 ADD CALLDATALOAD SWAP1 SWAP2 AND SWAP1 PUSH1 0x40 DUP2 ADD CALLDATALOAD SWAP1 PUSH1 0x60 DUP2 ADD CALLDATALOAD SWAP1 PUSH1 0xFF PUSH1 0x80 DUP3 ADD CALLDATALOAD AND SWAP1 PUSH1 0xA0 DUP2 ADD CALLDATALOAD SWAP1 PUSH1 0xC0 ADD CALLDATALOAD PUSH2 0x1651 JUMP JUMPDEST PUSH2 0x38E PUSH1 0x4 DUP1 CALLDATASIZE SUB PUSH1 0x20 DUP2 LT ISZERO PUSH2 0x620 JUMPI PUSH1 0x0 DUP1 REVERT JUMPDEST POP CALLDATALOAD PUSH1 0x1 PUSH1 0x1 PUSH1 0xA0 SHL SUB AND PUSH2 0x1853 JUMP JUMPDEST PUSH2 0x38E PUSH1 0x4 DUP1 CALLDATASIZE SUB PUSH1 0x40 DUP2 LT ISZERO PUSH2 0x646 JUMPI PUSH1 0x0 DUP1 REVERT JUMPDEST POP PUSH1 0x1 PUSH1 0x1 PUSH1 0xA0 SHL SUB DUP2 CALLDATALOAD DUP2 AND SWAP2 PUSH1 0x20 ADD CALLDATALOAD AND PUSH2 0x1AA4 JUMP JUMPDEST PUSH2 0x26B PUSH2 0x1AC1 JUMP JUMPDEST PUSH1 0xD SLOAD PUSH1 0x1 EQ PUSH2 0x6B1 JUMPI PUSH1 0x40 DUP1 MLOAD PUSH3 0x461BCD PUSH1 0xE5 SHL DUP2 MSTORE PUSH1 0x20 PUSH1 0x4 DUP3 ADD MSTORE PUSH1 0x11 PUSH1 0x24 DUP3 ADD MSTORE PUSH17 0x155B9A5CDDD85C158C8E881313D0D2D151 PUSH1 0x7A SHL PUSH1 0x44 DUP3 ADD MSTORE SWAP1 MLOAD SWAP1 DUP2 SWAP1 SUB PUSH1 0x64 ADD SWAP1 REVERT JUMPDEST PUSH1 0x0 PUSH1 0xD SSTORE DUP5 ISZERO ISZERO DUP1 PUSH2 0x6C4 JUMPI POP PUSH1 0x0 DUP5 GT JUMPDEST PUSH2 0x6FF JUMPI PUSH1 0x40 MLOAD PUSH3 0x461BCD PUSH1 0xE5 SHL DUP2 MSTORE PUSH1 0x4 ADD DUP1 DUP1 PUSH1 0x20 ADD DUP3 DUP2 SUB DUP3 MSTORE PUSH1 0x25 DUP2 MSTORE PUSH1 0x20 ADD DUP1 PUSH2 0x2583 PUSH1 0x25 SWAP2 CODECOPY PUSH1 0x40 ADD SWAP2 POP POP PUSH1 0x40 MLOAD DUP1 SWAP2 SUB SWAP1 REVERT JUMPDEST PUSH1 0x0 DUP1 PUSH2 0x70A PUSH2 0xBC8 JUMP JUMPDEST POP SWAP2 POP SWAP2 POP DUP2 PUSH1 0x1 PUSH1 0x1 PUSH1 0x70 SHL SUB AND DUP8 LT DUP1 ISZERO PUSH2 0x72F JUMPI POP DUP1 PUSH1 0x1 PUSH1 0x1 PUSH1 0x70 SHL SUB AND DUP7 LT JUMPDEST PUSH2 0x76A JUMPI PUSH1 0x40 MLOAD PUSH3 0x461BCD PUSH1 0xE5 SHL DUP2 MSTORE PUSH1 0x4 ADD DUP1 DUP1 PUSH1 0x20 ADD DUP3 DUP2 SUB DUP3 MSTORE PUSH1 0x21 DUP2 MSTORE PUSH1 0x20 ADD DUP1 PUSH2 0x25CC PUSH1 0x21 SWAP2 CODECOPY PUSH1 0x40 ADD SWAP2 POP POP PUSH1 0x40 MLOAD DUP1 SWAP2 SUB SWAP1 REVERT JUMPDEST PUSH1 0x7 SLOAD PUSH1 0x8 SLOAD PUSH1 0x0 SWAP2 DUP3 SWAP2 PUSH1 0x1 PUSH1 0x1 PUSH1 0xA0 SHL SUB SWAP2 DUP3 AND SWAP2 SWAP1 DUP2 AND SWAP1 DUP10 AND DUP3 EQ DUP1 ISZERO SWAP1 PUSH2 0x7A8 JUMPI POP DUP1 PUSH1 0x1 PUSH1 0x1 PUSH1 0xA0 SHL SUB AND DUP10 PUSH1 0x1 PUSH1 0x1 PUSH1 0xA0 SHL SUB AND EQ ISZERO JUMPDEST PUSH2 0x7F1 JUMPI PUSH1 0x40 DUP1 MLOAD PUSH3 0x461BCD PUSH1 0xE5 SHL DUP2 MSTORE PUSH1 0x20 PUSH1 0x4 DUP3 ADD MSTORE PUSH1 0x15 PUSH1 0x24 DUP3 ADD MSTORE PUSH21 0x556E697377617056323A20494E56414C49445F544F PUSH1 0x58 SHL PUSH1 0x44 DUP3 ADD MSTORE SWAP1 MLOAD SWAP1 DUP2 SWAP1 SUB PUSH1 0x64 ADD SWAP1 REVERT JUMPDEST DUP11 ISZERO PUSH2 0x802 JUMPI PUSH2 0x802 DUP3 DUP11 DUP14 PUSH2 0x1C23 JUMP JUMPDEST DUP10 ISZERO PUSH2 0x813 JUMPI PUSH2 0x813 DUP2 DUP11 DUP13 PUSH2 0x1C23 JUMP JUMPDEST DUP7 ISZERO PUSH2 0x8CE JUMPI DUP9 PUSH1 0x1 PUSH1 0x1 PUSH1 0xA0 SHL SUB AND PUSH4 0x10D1E85C CALLER DUP14 DUP14 DUP13 DUP13 PUSH1 0x40 MLOAD DUP7 PUSH4 0xFFFFFFFF AND PUSH1 0xE0 SHL DUP2 MSTORE PUSH1 0x4 ADD DUP1 DUP7 PUSH1 0x1 PUSH1 0x1 PUSH1 0xA0 SHL SUB AND PUSH1 0x1 PUSH1 0x1 PUSH1 0xA0 SHL SUB AND DUP2 MSTORE PUSH1 0x20 ADD DUP6 DUP2 MSTORE PUSH1 0x20 ADD DUP5 DUP2 MSTORE PUSH1 0x20 ADD DUP1 PUSH1 0x20 ADD DUP3 DUP2 SUB DUP3 MSTORE DUP5 DUP5 DUP3 DUP2 DUP2 MSTORE PUSH1 0x20 ADD SWAP3 POP DUP1 DUP3 DUP5 CALLDATACOPY PUSH1 0x0 DUP2 DUP5 ADD MSTORE PUSH1 0x1F NOT PUSH1 0x1F DUP3 ADD AND SWAP1 POP DUP1 DUP4 ADD SWAP3 POP POP POP SWAP7 POP POP POP POP POP POP POP PUSH1 0x0 PUSH1 0x40 MLOAD DUP1 DUP4 SUB DUP2 PUSH1 0x0 DUP8 DUP1 EXTCODESIZE ISZERO DUP1 ISZERO PUSH2 0x8B5 JUMPI PUSH1 0x0 DUP1 REVERT JUMPDEST POP GAS CALL ISZERO DUP1 ISZERO PUSH2 0x8C9 JUMPI RETURNDATASIZE PUSH1 0x0 DUP1 RETURNDATACOPY RETURNDATASIZE PUSH1 0x0 REVERT JUMPDEST POP POP POP POP JUMPDEST PUSH1 0x40 DUP1 MLOAD PUSH4 0x70A08231 PUSH1 0xE0 SHL DUP2 MSTORE ADDRESS PUSH1 0x4 DUP3 ADD MSTORE SWAP1 MLOAD PUSH1 0x1 PUSH1 0x1 PUSH1 0xA0 SHL SUB DUP5 AND SWAP2 PUSH4 0x70A08231 SWAP2 PUSH1 0x24 DUP1 DUP4 ADD SWAP3 PUSH1 0x20 SWAP3 SWAP2 SWAP1 DUP3 SWAP1 SUB ADD DUP2 DUP7 DUP1 EXTCODESIZE ISZERO DUP1 ISZERO PUSH2 0x914 JUMPI PUSH1 0x0 DUP1 REVERT JUMPDEST POP GAS STATICCALL ISZERO DUP1 ISZERO PUSH2 0x928 JUMPI RETURNDATASIZE PUSH1 0x0 DUP1 RETURNDATACOPY RETURNDATASIZE PUSH1 0x0 REVERT JUMPDEST POP POP POP POP PUSH1 0x40 MLOAD RETURNDATASIZE PUSH1 0x20 DUP2 LT ISZERO PUSH2 0x93E JUMPI PUSH1 0x0 DUP1 REVERT JUMPDEST POP MLOAD PUSH1 0x40 DUP1 MLOAD PUSH4 0x70A08231 PUSH1 0xE0 SHL DUP2 MSTORE ADDRESS PUSH1 0x4 DUP3 ADD MSTORE SWAP1 MLOAD SWAP2 SWAP6 POP PUSH1 0x1 PUSH1 0x1 PUSH1 0xA0 SHL SUB DUP4 AND SWAP2 PUSH4 0x70A08231 SWAP2 PUSH1 0x24 DUP1 DUP3 ADD SWAP3 PUSH1 0x20 SWAP3 SWAP1 SWAP2 SWAP1 DUP3 SWAP1 SUB ADD DUP2 DUP7 DUP1 EXTCODESIZE ISZERO DUP1 ISZERO PUSH2 0x98A JUMPI PUSH1 0x0 DUP1 REVERT JUMPDEST POP GAS STATICCALL ISZERO DUP1 ISZERO PUSH2 0x99E JUMPI RETURNDATASIZE PUSH1 0x0 DUP1 RETURNDATACOPY RETURNDATASIZE PUSH1 0x0 REVERT JUMPDEST POP POP POP POP PUSH1 0x40 MLOAD RETURNDATASIZE PUSH1 0x20 DUP2 LT ISZERO PUSH2 0x9B4 JUMPI PUSH1 0x0 DUP1 REVERT JUMPDEST POP MLOAD SWAP3 POP PUSH1 0x0 SWAP2 POP POP PUSH1 0x1 PUSH1 0x1 PUSH1 0x70 SHL SUB DUP6 AND DUP11 SWAP1 SUB DUP4 GT PUSH2 0x9D7 JUMPI PUSH1 0x0 PUSH2 0x9E6 JUMP JUMPDEST DUP10 DUP6 PUSH1 0x1 PUSH1 0x1 PUSH1 0x70 SHL SUB AND SUB DUP4 SUB JUMPDEST SWAP1 POP PUSH1 0x0 DUP10 DUP6 PUSH1 0x1 PUSH1 0x1 PUSH1 0x70 SHL SUB AND SUB DUP4 GT PUSH2 0xA03 JUMPI PUSH1 0x0 PUSH2 0xA12 JUMP JUMPDEST DUP10 DUP6 PUSH1 0x1 PUSH1 0x1 PUSH1 0x70 SHL SUB AND SUB DUP4 SUB JUMPDEST SWAP1 POP PUSH1 0x0 DUP3 GT DUP1 PUSH2 0xA23 JUMPI POP PUSH1 0x0 DUP2 GT JUMPDEST PUSH2 0xA5E JUMPI PUSH1 0x40 MLOAD PUSH3 0x461BCD PUSH1 0xE5 SHL DUP2 MSTORE PUSH1 0x4 ADD DUP1 DUP1 PUSH1 0x20 ADD DUP3 DUP2 SUB DUP3 MSTORE PUSH1 0x24 DUP2 MSTORE PUSH1 0x20 ADD DUP1 PUSH2 0x25A8 PUSH1 0x24 SWAP2 CODECOPY PUSH1 0x40 ADD SWAP2 POP POP PUSH1 0x40 MLOAD DUP1 SWAP2 SUB SWAP1 REVERT JUMPDEST PUSH1 0x0 PUSH2 0xA92 PUSH2 0xA74 DUP5 PUSH1 0x3 PUSH4 0xFFFFFFFF PUSH2 0x1DBD AND JUMP JUMPDEST PUSH2 0xA86 DUP8 PUSH2 0x3E8 PUSH4 0xFFFFFFFF PUSH2 0x1DBD AND JUMP JUMPDEST SWAP1 PUSH4 0xFFFFFFFF PUSH2 0x1E20 AND JUMP JUMPDEST SWAP1 POP PUSH1 0x0 PUSH2 0xAAA PUSH2 0xA74 DUP5 PUSH1 0x3 PUSH4 0xFFFFFFFF PUSH2 0x1DBD AND JUMP JUMPDEST SWAP1 POP PUSH2 0xADB PUSH3 0xF4240 PUSH2 0xACF PUSH1 0x1 PUSH1 0x1 PUSH1 0x70 SHL SUB DUP12 DUP2 AND SWAP1 DUP12 AND PUSH4 0xFFFFFFFF PUSH2 0x1DBD AND JUMP JUMPDEST SWAP1 PUSH4 0xFFFFFFFF PUSH2 0x1DBD AND JUMP JUMPDEST PUSH2 0xAEB DUP4 DUP4 PUSH4 0xFFFFFFFF PUSH2 0x1DBD AND JUMP JUMPDEST LT ISZERO PUSH2 0xB2D JUMPI PUSH1 0x40 DUP1 MLOAD PUSH3 0x461BCD PUSH1 0xE5 SHL DUP2 MSTORE PUSH1 0x20 PUSH1 0x4 DUP3 ADD MSTORE PUSH1 0xC PUSH1 0x24 DUP3 ADD MSTORE PUSH12 0x556E697377617056323A204B PUSH1 0xA0 SHL PUSH1 0x44 DUP3 ADD MSTORE SWAP1 MLOAD SWAP1 DUP2 SWAP1 SUB PUSH1 0x64 ADD SWAP1 REVERT JUMPDEST POP POP PUSH2 0xB3B DUP5 DUP5 DUP9 DUP9 PUSH2 0x1E70 JUMP JUMPDEST PUSH1 0x40 DUP1 MLOAD DUP4 DUP2 MSTORE PUSH1 0x20 DUP2 ADD DUP4 SWAP1 MSTORE DUP1 DUP3 ADD DUP14 SWAP1 MSTORE PUSH1 0x60 DUP2 ADD DUP13 SWAP1 MSTORE SWAP1 MLOAD PUSH1 0x1 PUSH1 0x1 PUSH1 0xA0 SHL SUB DUP12 AND SWAP2 CALLER SWAP2 PUSH32 0xD78AD95FA46C994B6551D0DA85FC275FE613CE37657FB8D5E3D130840159D822 SWAP2 DUP2 SWAP1 SUB PUSH1 0x80 ADD SWAP1 LOG3 POP POP PUSH1 0x1 PUSH1 0xD SSTORE POP POP POP POP POP POP POP POP POP JUMP JUMPDEST PUSH1 0x40 MLOAD DUP1 PUSH1 0x40 ADD PUSH1 0x40 MSTORE DUP1 PUSH1 0xB DUP2 MSTORE PUSH1 0x20 ADD PUSH11 0x45706F7353776170204C5 PUSH1 0xAC SHL DUP2 MSTORE POP DUP2 JUMP JUMPDEST PUSH1 0x9 SLOAD PUSH1 0x1 PUSH1 0x1 PUSH1 0x70 SHL SUB DUP1 DUP3 AND SWAP3 PUSH1 0x1 PUSH1 0x70 SHL DUP4 DIV SWAP1 SWAP2 AND SWAP2 PUSH1 0x1 PUSH1 0xE0 SHL SWAP1 DIV PUSH4 0xFFFFFFFF AND SWAP1 JUMP JUMPDEST PUSH1 0x0 PUSH2 0xBFF CALLER DUP5 DUP5 PUSH2 0x2035 JUMP JUMPDEST POP PUSH1 0x1 JUMPDEST SWAP3 SWAP2 POP POP JUMP JUMPDEST PUSH1 0x7 SLOAD PUSH1 0x1 PUSH1 0x1 PUSH1 0xA0 SHL SUB AND DUP2 JUMP JUMPDEST PUSH1 0x0 SLOAD DUP2 JUMP JUMPDEST PUSH1 0x1 PUSH1 0x1 PUSH1 0xA0 SHL SUB DUP4 AND PUSH1 0x0 SWAP1 DUP2 MSTORE PUSH1 0x2 PUSH1 0x20 SWAP1 DUP2 MSTORE PUSH1 0x40 DUP1 DUP4 KECCAK256 CALLER DUP5 MSTORE SWAP1 SWAP2 MSTORE DUP2 KECCAK256 SLOAD PUSH1 0x0 NOT EQ PUSH2 0xCA3 JUMPI PUSH1 0x1 PUSH1 0x1 PUSH1 0xA0 SHL SUB DUP5 AND PUSH1 0x0 SWAP1 DUP2 MSTORE PUSH1 0x2 PUSH1 0x20 SWAP1 DUP2 MSTORE PUSH1 0x40 DUP1 DUP4 KECCAK256 CALLER DUP5 MSTORE SWAP1 SWAP2 MSTORE SWAP1 KECCAK256 SLOAD PUSH2 0xC7E SWAP1 DUP4 PUSH4 0xFFFFFFFF PUSH2 0x1E20 AND JUMP JUMPDEST PUSH1 0x1 PUSH1 0x1 PUSH1 0xA0 SHL SUB DUP6 AND PUSH1 0x0 SWAP1 DUP2 MSTORE PUSH1 0x2 PUSH1 0x20 SWAP1 DUP2 MSTORE PUSH1 0x40 DUP1 DUP4 KECCAK256 CALLER DUP5 MSTORE SWAP1 SWAP2 MSTORE SWAP1 KECCAK256 SSTORE JUMPDEST PUSH2 0xCAE DUP5 DUP5 DUP5 PUSH2 0x2097 JUMP JUMPDEST POP PUSH1 0x1 SWAP4 SWAP3 POP POP POP JUMP JUMPDEST PUSH32 0x6E71EDAE12B1B97F4D1F60370FEF10105FA2FAAE0126114A169C64845D6126C9 DUP2 JUMP JUMPDEST PUSH1 0x12 DUP2 JUMP JUMPDEST PUSH1 0x4 SLOAD DUP2 JUMP JUMPDEST PUSH1 0x3 PUSH1 0x20 MSTORE PUSH1 0x0 SWAP1 DUP2 MSTORE PUSH1 0x40 SWAP1 KECCAK256 SLOAD DUP2 JUMP JUMPDEST PUSH1 0x6 SLOAD PUSH1 0x1 PUSH1 0x1 PUSH1 0xA0 SHL SUB AND CALLER EQ PUSH2 0xD4F JUMPI PUSH1 0x40 DUP1 MLOAD PUSH3 0x461BCD PUSH1 0xE5 SHL DUP2 MSTORE PUSH1 0x20 PUSH1 0x4 DUP3 ADD MSTORE PUSH1 0x14 PUSH1 0x24 DUP3 ADD MSTORE PUSH20 0x2AB734B9BBB0B82B191D102327A92124A22222A7 PUSH1 0x61 SHL PUSH1 0x44 DUP3 ADD MSTORE SWAP1 MLOAD SWAP1 DUP2 SWAP1 SUB PUSH1 0x64 ADD SWAP1 REVERT JUMPDEST PUSH1 0x7 DUP1 SLOAD PUSH1 0x1 PUSH1 0x1 PUSH1 0xA0 SHL SUB SWAP4 DUP5 AND PUSH1 0x1 PUSH1 0x1 PUSH1 0xA0 SHL SUB NOT SWAP2 DUP3 AND OR SWAP1 SWAP2 SSTORE PUSH1 0x8 DUP1 SLOAD SWAP3 SWAP1 SWAP4 AND SWAP2 AND OR SWAP1 SSTORE JUMP JUMPDEST PUSH1 0xA SLOAD DUP2 JUMP JUMPDEST PUSH1 0xB SLOAD DUP2 JUMP JUMPDEST PUSH1 0x0 PUSH1 0xD SLOAD PUSH1 0x1 EQ PUSH2 0xDD6 JUMPI PUSH1 0x40 DUP1 MLOAD PUSH3 0x461BCD PUSH1 0xE5 SHL DUP2 MSTORE PUSH1 0x20 PUSH1 0x4 DUP3 ADD MSTORE PUSH1 0x11 PUSH1 0x24 DUP3 ADD MSTORE PUSH17 0x155B9A5CDDD85C158C8E881313D0D2D151 PUSH1 0x7A SHL PUSH1 0x44 DUP3 ADD MSTORE SWAP1 MLOAD SWAP1 DUP2 SWAP1 SUB PUSH1 0x64 ADD SWAP1 REVERT JUMPDEST PUSH1 0x0 PUSH1 0xD DUP2 SWAP1 SSTORE DUP1 PUSH2 0xDE6 PUSH2 0xBC8 JUMP JUMPDEST POP PUSH1 0x7 SLOAD PUSH1 0x40 DUP1 MLOAD PUSH4 0x70A08231 PUSH1 0xE0 SHL DUP2 MSTORE ADDRESS PUSH1 0x4 DUP3 ADD MSTORE SWAP1 MLOAD SWAP4 SWAP6 POP SWAP2 SWAP4 POP PUSH1 0x0 SWAP3 PUSH1 0x1 PUSH1 0x1 PUSH1 0xA0 SHL SUB SWAP1 SWAP2 AND SWAP2 PUSH4 0x70A08231 SWAP2 PUSH1 0x24 DUP1 DUP4 ADD SWAP3 PUSH1 0x20 SWAP3 SWAP2 SWAP1 DUP3 SWAP1 SUB ADD DUP2 DUP7 DUP1 EXTCODESIZE ISZERO DUP1 ISZERO PUSH2 0xE3A JUMPI PUSH1 0x0 DUP1 REVERT JUMPDEST POP GAS STATICCALL ISZERO DUP1 ISZERO PUSH2 0xE4E JUMPI RETURNDATASIZE PUSH1 0x0 DUP1 RETURNDATACOPY RETURNDATASIZE PUSH1 0x0 REVERT JUMPDEST POP POP POP POP PUSH1 0x40 MLOAD RETURNDATASIZE PUSH1 0x20 DUP2 LT ISZERO PUSH2 0xE64 JUMPI PUSH1 0x0 DUP1 REVERT JUMPDEST POP MLOAD PUSH1 0x8 SLOAD PUSH1 0x40 DUP1 MLOAD PUSH4 0x70A08231 PUSH1 0xE0 SHL DUP2 MSTORE ADDRESS PUSH1 0x4 DUP3 ADD MSTORE SWAP1 MLOAD SWAP3 SWAP4 POP PUSH1 0x0 SWAP3 PUSH1 0x1 PUSH1 0x1 PUSH1 0xA0 SHL SUB SWAP1 SWAP3 AND SWAP2 PUSH4 0x70A08231 SWAP2 PUSH1 0x24 DUP1 DUP3 ADD SWAP3 PUSH1 0x20 SWAP3 SWAP1 SWAP2 SWAP1 DUP3 SWAP1 SUB ADD DUP2 DUP7 DUP1 EXTCODESIZE ISZERO DUP1 ISZERO PUSH2 0xEB7 JUMPI PUSH1 0x0 DUP1 REVERT JUMPDEST POP GAS STATICCALL ISZERO DUP1 ISZERO PUSH2 0xECB JUMPI RETURNDATASIZE PUSH1 0x0 DUP1 RETURNDATACOPY RETURNDATASIZE PUSH1 0x0 REVERT JUMPDEST POP POP POP POP PUSH1 0x40 MLOAD RETURNDATASIZE PUSH1 0x20 DUP2 LT ISZERO PUSH2 0xEE1 JUMPI PUSH1 0x0 DUP1 REVERT JUMPDEST POP MLOAD SWAP1 POP PUSH1 0x0 PUSH2 0xF00 DUP4 PUSH1 0x1 PUSH1 0x1 PUSH1 0x70 SHL SUB DUP8 AND PUSH4 0xFFFFFFFF PUSH2 0x1E20 AND JUMP JUMPDEST SWAP1 POP PUSH1 0x0 PUSH2 0xF1D DUP4 PUSH1 0x1 PUSH1 0x1 PUSH1 0x70 SHL SUB DUP8 AND PUSH4 0xFFFFFFFF PUSH2 0x1E20 AND JUMP JUMPDEST SWAP1 POP PUSH1 0x0 PUSH2 0xF2B DUP8 DUP8 PUSH2 0x213F JUMP JUMPDEST PUSH1 0x0 SLOAD SWAP1 SWAP2 POP DUP1 PUSH2 0xF68 JUMPI PUSH2 0xF54 PUSH2 0x3E8 PUSH2 0xA86 PUSH2 0xF4F DUP8 DUP8 PUSH4 0xFFFFFFFF PUSH2 0x1DBD AND JUMP JUMPDEST PUSH2 0x229D JUMP JUMPDEST SWAP9 POP PUSH2 0xF63 PUSH1 0x0 PUSH2 0x3E8 PUSH2 0x22EE JUMP JUMPDEST PUSH2 0xFB7 JUMP JUMPDEST PUSH2 0xFB4 PUSH1 0x1 PUSH1 0x1 PUSH1 0x70 SHL SUB DUP10 AND PUSH2 0xF85 DUP7 DUP5 PUSH4 0xFFFFFFFF PUSH2 0x1DBD AND JUMP JUMPDEST DUP2 PUSH2 0xF8C JUMPI INVALID JUMPDEST DIV PUSH1 0x1 PUSH1 0x1 PUSH1 0x70 SHL SUB DUP10 AND PUSH2 0xFA7 DUP7 DUP6 PUSH4 0xFFFFFFFF PUSH2 0x1DBD AND JUMP JUMPDEST DUP2 PUSH2 0xFAE JUMPI INVALID JUMPDEST DIV PUSH2 0x2372 JUMP JUMPDEST SWAP9 POP JUMPDEST PUSH1 0x0 DUP10 GT PUSH2 0xFF6 JUMPI PUSH1 0x40 MLOAD PUSH3 0x461BCD PUSH1 0xE5 SHL DUP2 MSTORE PUSH1 0x4 ADD DUP1 DUP1 PUSH1 0x20 ADD DUP3 DUP2 SUB DUP3 MSTORE PUSH1 0x28 DUP2 MSTORE PUSH1 0x20 ADD DUP1 PUSH2 0x2615 PUSH1 0x28 SWAP2 CODECOPY PUSH1 0x40 ADD SWAP2 POP POP PUSH1 0x40 MLOAD DUP1 SWAP2 SUB SWAP1 REVERT JUMPDEST PUSH2 0x1000 DUP11 DUP11 PUSH2 0x22EE JUMP JUMPDEST PUSH2 0x100C DUP7 DUP7 DUP11 DUP11 PUSH2 0x1E70 JUMP JUMPDEST DUP2 ISZERO PUSH2 0x103C JUMPI PUSH1 0x9 SLOAD PUSH2 0x1038 SWAP1 PUSH1 0x1 PUSH1 0x1 PUSH1 0x70 SHL SUB DUP1 DUP3 AND SWAP2 PUSH1 0x1 PUSH1 0x70 SHL SWAP1 DIV AND PUSH4 0xFFFFFFFF PUSH2 0x1DBD AND JUMP JUMPDEST PUSH1 0xC SSTORE JUMPDEST PUSH1 0x40 DUP1 MLOAD DUP6 DUP2 MSTORE PUSH1 0x20 DUP2 ADD DUP6 SWAP1 MSTORE DUP2 MLOAD CALLER SWAP3 PUSH32 0x4C209B5FC8AD50758F13E2E1088BA56A560DFF690A1C6FEF26394F4C03821C4F SWAP3 DUP3 SWAP1 SUB ADD SWAP1 LOG2 POP POP PUSH1 0x1 PUSH1 0xD SSTORE POP SWAP5 SWAP7 SWAP6 POP POP POP POP POP POP JUMP JUMPDEST PUSH1 0x1 PUSH1 0x20 MSTORE PUSH1 0x0 SWAP1 DUP2 MSTORE PUSH1 0x40 SWAP1 KECCAK256 SLOAD DUP2 JUMP JUMPDEST PUSH1 0x1 PUSH1 0x1 PUSH1 0xA0 SHL SUB DUP2 AND PUSH1 0x0 SWAP1 DUP2 MSTORE PUSH1 0x3 PUSH1 0x20 SWAP1 DUP2 MSTORE PUSH1 0x40 DUP1 DUP4 KECCAK256 SLOAD PUSH1 0x1 SWAP1 SWAP3 MSTORE DUP3 KECCAK256 SLOAD PUSH2 0x10CE SWAP2 PUSH4 0xFFFFFFFF PUSH2 0x238A AND JUMP JUMPDEST SWAP1 POP JUMPDEST SWAP2 SWAP1 POP JUMP JUMPDEST PUSH1 0xC SLOAD DUP2 JUMP JUMPDEST PUSH1 0x5 PUSH1 0x20 MSTORE PUSH1 0x0 SWAP1 DUP2 MSTORE PUSH1 0x40 SWAP1 KECCAK256 SLOAD DUP2 JUMP JUMPDEST PUSH1 0x0 DUP1 PUSH1 0xD SLOAD PUSH1 0x1 EQ PUSH2 0x113C JUMPI PUSH1 0x40 DUP1 MLOAD PUSH3 0x461BCD PUSH1 0xE5 SHL DUP2 MSTORE PUSH1 0x20 PUSH1 0x4 DUP3 ADD MSTORE PUSH1 0x11 PUSH1 0x24 DUP3 ADD MSTORE PUSH17 0x155B9A5CDDD85C158C8E881313D0D2D151 PUSH1 0x7A SHL PUSH1 0x44 DUP3 ADD MSTORE SWAP1 MLOAD SWAP1 DUP2 SWAP1 SUB PUSH1 0x64 ADD SWAP1 REVERT JUMPDEST PUSH1 0x0 PUSH1 0xD DUP2 SWAP1 SSTORE DUP1 PUSH2 0x114C PUSH2 0xBC8 JUMP JUMPDEST POP PUSH1 0x7 SLOAD PUSH1 0x8 SLOAD PUSH1 0x40 DUP1 MLOAD PUSH4 0x70A08231 PUSH1 0xE0 SHL DUP2 MSTORE ADDRESS PUSH1 0x4 DUP3 ADD MSTORE SWAP1 MLOAD SWAP5 SWAP7 POP SWAP3 SWAP5 POP PUSH1 0x1 PUSH1 0x1 PUSH1 0xA0 SHL SUB SWAP2 DUP3 AND SWAP4 SWAP2 AND SWAP2 PUSH1 0x0 SWAP2 DUP5 SWAP2 PUSH4 0x70A08231 SWAP2 PUSH1 0x24 DUP1 DUP4 ADD SWAP3 PUSH1 0x20 SWAP3 SWAP2 SWAP1 DUP3 SWAP1 SUB ADD DUP2 DUP7 DUP1 EXTCODESIZE ISZERO DUP1 ISZERO PUSH2 0x11A8 JUMPI PUSH1 0x0 DUP1 REVERT JUMPDEST POP GAS STATICCALL ISZERO DUP1 ISZERO PUSH2 0x11BC JUMPI RETURNDATASIZE PUSH1 0x0 DUP1 RETURNDATACOPY RETURNDATASIZE PUSH1 0x0 REVERT JUMPDEST POP POP POP POP PUSH1 0x40 MLOAD RETURNDATASIZE PUSH1 0x20 DUP2 LT ISZERO PUSH2 0x11D2 JUMPI PUSH1 0x0 DUP1 REVERT JUMPDEST POP MLOAD PUSH1 0x40 DUP1 MLOAD PUSH4 0x70A08231 PUSH1 0xE0 SHL DUP2 MSTORE ADDRESS PUSH1 0x4 DUP3 ADD MSTORE SWAP1 MLOAD SWAP2 SWAP3 POP PUSH1 0x0 SWAP2 PUSH1 0x1 PUSH1 0x1 PUSH1 0xA0 SHL SUB DUP6 AND SWAP2 PUSH4 0x70A08231 SWAP2 PUSH1 0x24 DUP1 DUP4 ADD SWAP3 PUSH1 0x20 SWAP3 SWAP2 SWAP1 DUP3 SWAP1 SUB ADD DUP2 DUP7 DUP1 EXTCODESIZE ISZERO DUP1 ISZERO PUSH2 0x1220 JUMPI PUSH1 0x0 DUP1 REVERT JUMPDEST POP GAS STATICCALL ISZERO DUP1 ISZERO PUSH2 0x1234 JUMPI RETURNDATASIZE PUSH1 0x0 DUP1 RETURNDATACOPY RETURNDATASIZE PUSH1 0x0 REVERT JUMPDEST POP POP POP POP PUSH1 0x40 MLOAD RETURNDATASIZE PUSH1 0x20 DUP2 LT ISZERO PUSH2 0x124A JUMPI PUSH1 0x0 DUP1 REVERT JUMPDEST POP MLOAD ADDRESS PUSH1 0x0 SWAP1 DUP2 MSTORE PUSH1 0x1 PUSH1 0x20 MSTORE PUSH1 0x40 DUP2 KECCAK256 SLOAD SWAP2 SWAP3 POP PUSH2 0x1269 DUP9 DUP9 PUSH2 0x213F JUMP JUMPDEST PUSH1 0x0 SLOAD SWAP1 SWAP2 POP DUP1 PUSH2 0x1280 DUP5 DUP8 PUSH4 0xFFFFFFFF PUSH2 0x1DBD AND JUMP JUMPDEST DUP2 PUSH2 0x1287 JUMPI INVALID JUMPDEST DIV SWAP11 POP DUP1 PUSH2 0x129B DUP5 DUP7 PUSH4 0xFFFFFFFF PUSH2 0x1DBD AND JUMP JUMPDEST DUP2 PUSH2 0x12A2 JUMPI INVALID JUMPDEST DIV SWAP10 POP PUSH1 0x0 DUP12 GT DUP1 ISZERO PUSH2 0x12B5 JUMPI POP PUSH1 0x0 DUP11 GT JUMPDEST PUSH2 0x12F0 JUMPI PUSH1 0x40 MLOAD PUSH3 0x461BCD PUSH1 0xE5 SHL DUP2 MSTORE PUSH1 0x4 ADD DUP1 DUP1 PUSH1 0x20 ADD DUP3 DUP2 SUB DUP3 MSTORE PUSH1 0x28 DUP2 MSTORE PUSH1 0x20 ADD DUP1 PUSH2 0x25ED PUSH1 0x28 SWAP2 CODECOPY PUSH1 0x40 ADD SWAP2 POP POP PUSH1 0x40 MLOAD DUP1 SWAP2 SUB SWAP1 REVERT JUMPDEST PUSH2 0x12FA ADDRESS DUP5 PUSH2 0x23D9 JUMP JUMPDEST PUSH2 0x1305 DUP8 DUP14 DUP14 PUSH2 0x1C23 JUMP JUMPDEST PUSH2 0x1310 DUP7 DUP14 DUP13 PUSH2 0x1C23 JUMP JUMPDEST PUSH1 0x40 DUP1 MLOAD PUSH4 0x70A08231 PUSH1 0xE0 SHL DUP2 MSTORE ADDRESS PUSH1 0x4 DUP3 ADD MSTORE SWAP1 MLOAD PUSH1 0x1 PUSH1 0x1 PUSH1 0xA0 SHL SUB DUP10 AND SWAP2 PUSH4 0x70A08231 SWAP2 PUSH1 0x24 DUP1 DUP4 ADD SWAP3 PUSH1 0x20 SWAP3 SWAP2 SWAP1 DUP3 SWAP1 SUB ADD DUP2 DUP7 DUP1 EXTCODESIZE ISZERO DUP1 ISZERO PUSH2 0x1356 JUMPI PUSH1 0x0 DUP1 REVERT JUMPDEST POP GAS STATICCALL ISZERO DUP1 ISZERO PUSH2 0x136A JUMPI RETURNDATASIZE PUSH1 0x0 DUP1 RETURNDATACOPY RETURNDATASIZE PUSH1 0x0 REVERT JUMPDEST POP POP POP POP PUSH1 0x40 MLOAD RETURNDATASIZE PUSH1 0x20 DUP2 LT ISZERO PUSH2 0x1380 JUMPI PUSH1 0x0 DUP1 REVERT JUMPDEST POP MLOAD PUSH1 0x40 DUP1 MLOAD PUSH4 0x70A08231 PUSH1 0xE0 SHL DUP2 MSTORE ADDRESS PUSH1 0x4 DUP3 ADD MSTORE SWAP1 MLOAD SWAP2 SWAP7 POP PUSH1 0x1 PUSH1 0x1 PUSH1 0xA0 SHL SUB DUP9 AND SWAP2 PUSH4 0x70A08231 SWAP2 PUSH1 0x24 DUP1 DUP3 ADD SWAP3 PUSH1 0x20 SWAP3 SWAP1 SWAP2 SWAP1 DUP3 SWAP1 SUB ADD DUP2 DUP7 DUP1 EXTCODESIZE ISZERO DUP1 ISZERO PUSH2 0x13CC JUMPI PUSH1 0x0 DUP1 REVERT JUMPDEST POP GAS STATICCALL ISZERO DUP1 ISZERO PUSH2 0x13E0 JUMPI RETURNDATASIZE PUSH1 0x0 DUP1 RETURNDATACOPY RETURNDATASIZE PUSH1 0x0 REVERT JUMPDEST POP POP POP POP PUSH1 0x40 MLOAD RETURNDATASIZE PUSH1 0x20 DUP2 LT ISZERO PUSH2 0x13F6 JUMPI PUSH1 0x0 DUP1 REVERT JUMPDEST POP MLOAD SWAP4 POP PUSH2 0x1406 DUP6 DUP6 DUP12 DUP12 PUSH2 0x1E70 JUMP JUMPDEST DUP2 ISZERO PUSH2 0x1436 JUMPI PUSH1 0x9 SLOAD PUSH2 0x1432 SWAP1 PUSH1 0x1 PUSH1 0x1 PUSH1 0x70 SHL SUB DUP1 DUP3 AND SWAP2 PUSH1 0x1 PUSH1 0x70 SHL SWAP1 DIV AND PUSH4 0xFFFFFFFF PUSH2 0x1DBD AND JUMP JUMPDEST PUSH1 0xC SSTORE JUMPDEST PUSH1 0x40 DUP1 MLOAD DUP13 DUP2 MSTORE PUSH1 0x20 DUP2 ADD DUP13 SWAP1 MSTORE DUP2 MLOAD PUSH1 0x1 PUSH1 0x1 PUSH1 0xA0 SHL SUB DUP16 AND SWAP3 CALLER SWAP3 PUSH32 0xDCCD412F0B1252819CB1FD330B93224CA42612892BB3F4F789976E6D81936496 SWAP3 SWAP1 DUP2 SWAP1 SUB SWAP1 SWAP2 ADD SWAP1 LOG3 POP POP POP POP POP POP POP POP POP PUSH1 0x1 PUSH1 0xD DUP2 SWAP1 SSTORE POP SWAP2 POP SWAP2 JUMP JUMPDEST PUSH1 0x40 MLOAD DUP1 PUSH1 0x40 ADD PUSH1 0x40 MSTORE DUP1 PUSH1 0x5 DUP2 MSTORE PUSH1 0x20 ADD PUSH5 0x455357415 PUSH1 0xDC SHL DUP2 MSTORE POP DUP2 JUMP JUMPDEST PUSH1 0x0 PUSH2 0xBFF CALLER DUP5 DUP5 PUSH2 0x2097 JUMP JUMPDEST PUSH2 0x3E8 DUP2 JUMP JUMPDEST PUSH1 0xD SLOAD PUSH1 0x1 EQ PUSH2 0x1513 JUMPI PUSH1 0x40 DUP1 MLOAD PUSH3 0x461BCD PUSH1 0xE5 SHL DUP2 MSTORE PUSH1 0x20 PUSH1 0x4 DUP3 ADD MSTORE PUSH1 0x11 PUSH1 0x24 DUP3 ADD MSTORE PUSH17 0x155B9A5CDDD85C158C8E881313D0D2D151 PUSH1 0x7A SHL PUSH1 0x44 DUP3 ADD MSTORE SWAP1 MLOAD SWAP1 DUP2 SWAP1 SUB PUSH1 0x64 ADD SWAP1 REVERT JUMPDEST PUSH1 0x0 PUSH1 0xD SSTORE PUSH1 0x7 SLOAD PUSH1 0x8 SLOAD PUSH1 0x9 SLOAD PUSH1 0x40 DUP1 MLOAD PUSH4 0x70A08231 PUSH1 0xE0 SHL DUP2 MSTORE ADDRESS PUSH1 0x4 DUP3 ADD MSTORE SWAP1 MLOAD PUSH1 0x1 PUSH1 0x1 PUSH1 0xA0 SHL SUB SWAP5 DUP6 AND SWAP5 SWAP1 SWAP4 AND SWAP3 PUSH2 0x15C2 SWAP3 DUP6 SWAP3 DUP8 SWAP3 PUSH2 0x15BD SWAP3 PUSH1 0x1 PUSH1 0x1 PUSH1 0x70 SHL SUB AND SWAP2 DUP6 SWAP2 PUSH4 0x70A08231 SWAP2 PUSH1 0x24 DUP1 DUP3 ADD SWAP3 PUSH1 0x20 SWAP3 SWAP1 SWAP2 SWAP1 DUP3 SWAP1 SUB ADD DUP2 DUP7 DUP1 EXTCODESIZE ISZERO DUP1 ISZERO PUSH2 0x1585 JUMPI PUSH1 0x0 DUP1 REVERT JUMPDEST POP GAS STATICCALL ISZERO DUP1 ISZERO PUSH2 0x1599 JUMPI RETURNDATASIZE PUSH1 0x0 DUP1 RETURNDATACOPY RETURNDATASIZE PUSH1 0x0 REVERT JUMPDEST POP POP POP POP PUSH1 0x40 MLOAD RETURNDATASIZE PUSH1 0x20 DUP2 LT ISZERO PUSH2 0x15AF JUMPI PUSH1 0x0 DUP1 REVERT JUMPDEST POP MLOAD SWAP1 PUSH4 0xFFFFFFFF PUSH2 0x1E20 AND JUMP JUMPDEST PUSH2 0x1C23 JUMP JUMPDEST PUSH1 0x9 SLOAD PUSH1 0x40 DUP1 MLOAD PUSH4 0x70A08231 PUSH1 0xE0 SHL DUP2 MSTORE ADDRESS PUSH1 0x4 DUP3 ADD MSTORE SWAP1 MLOAD PUSH2 0x1629 SWAP3 DUP5 SWAP3 DUP8 SWAP3 PUSH2 0x15BD SWAP3 PUSH1 0x1 PUSH1 0x70 SHL SWAP1 DIV PUSH1 0x1 PUSH1 0x1 PUSH1 0x70 SHL SUB AND SWAP2 PUSH1 0x1 PUSH1 0x1 PUSH1 0xA0 SHL SUB DUP7 AND SWAP2 PUSH4 0x70A08231 SWAP2 PUSH1 0x24 DUP1 DUP3 ADD SWAP3 PUSH1 0x20 SWAP3 SWAP1 SWAP2 SWAP1 DUP3 SWAP1 SUB ADD DUP2 DUP7 DUP1 EXTCODESIZE ISZERO DUP1 ISZERO PUSH2 0x1585 JUMPI PUSH1 0x0 DUP1 REVERT JUMPDEST POP POP PUSH1 0x1 PUSH1 0xD SSTORE POP JUMP JUMPDEST PUSH1 0x6 SLOAD PUSH1 0x1 PUSH1 0x1 PUSH1 0xA0 SHL SUB AND DUP2 JUMP JUMPDEST PUSH1 0x8 SLOAD PUSH1 0x1 PUSH1 0x1 PUSH1 0xA0 SHL SUB AND DUP2 JUMP JUMPDEST TIMESTAMP DUP5 LT ISZERO PUSH2 0x169B JUMPI PUSH1 0x40 DUP1 MLOAD PUSH3 0x461BCD PUSH1 0xE5 SHL DUP2 MSTORE PUSH1 0x20 PUSH1 0x4 DUP3 ADD MSTORE PUSH1 0x12 PUSH1 0x24 DUP3 ADD MSTORE PUSH18 0x155B9A5CDDD85C158C8E8811561412549151 PUSH1 0x72 SHL PUSH1 0x44 DUP3 ADD MSTORE SWAP1 MLOAD SWAP1 DUP2 SWAP1 SUB PUSH1 0x64 ADD SWAP1 REVERT JUMPDEST PUSH1 0x4 SLOAD PUSH1 0x1 PUSH1 0x1 PUSH1 0xA0 SHL SUB DUP1 DUP10 AND PUSH1 0x0 DUP2 DUP2 MSTORE PUSH1 0x5 PUSH1 0x20 SWAP1 DUP2 MSTORE PUSH1 0x40 DUP1 DUP4 KECCAK256 DUP1 SLOAD PUSH1 0x1 DUP1 DUP3 ADD SWAP1 SWAP3 SSTORE DUP3 MLOAD PUSH32 0x6E71EDAE12B1B97F4D1F60370FEF10105FA2FAAE0126114A169C64845D6126C9 DUP2 DUP7 ADD MSTORE DUP1 DUP5 ADD SWAP7 SWAP1 SWAP7 MSTORE SWAP6 DUP14 AND PUSH1 0x60 DUP7 ADD MSTORE PUSH1 0x80 DUP6 ADD DUP13 SWAP1 MSTORE PUSH1 0xA0 DUP6 ADD SWAP6 SWAP1 SWAP6 MSTORE PUSH1 0xC0 DUP1 DUP6 ADD DUP12 SWAP1 MSTORE DUP2 MLOAD DUP1 DUP7 SUB SWAP1 SWAP2 ADD DUP2 MSTORE PUSH1 0xE0 DUP6 ADD DUP3 MSTORE DUP1 MLOAD SWAP1 DUP4 ADD KECCAK256 PUSH2 0x1901 PUSH1 0xF0 SHL PUSH2 0x100 DUP7 ADD MSTORE PUSH2 0x102 DUP6 ADD SWAP7 SWAP1 SWAP7 MSTORE PUSH2 0x122 DUP1 DUP6 ADD SWAP7 SWAP1 SWAP7 MSTORE DUP1 MLOAD DUP1 DUP6 SUB SWAP1 SWAP7 ADD DUP7 MSTORE PUSH2 0x142 DUP5 ADD DUP1 DUP3 MSTORE DUP7 MLOAD SWAP7 DUP4 ADD SWAP7 SWAP1 SWAP7 KECCAK256 SWAP6 DUP4 SWAP1 MSTORE PUSH2 0x162 DUP5 ADD DUP1 DUP3 MSTORE DUP7 SWAP1 MSTORE PUSH1 0xFF DUP10 AND PUSH2 0x182 DUP6 ADD MSTORE PUSH2 0x1A2 DUP5 ADD DUP9 SWAP1 MSTORE PUSH2 0x1C2 DUP5 ADD DUP8 SWAP1 MSTORE MLOAD SWAP2 SWAP4 SWAP3 PUSH2 0x1E2 DUP1 DUP3 ADD SWAP4 PUSH1 0x1F NOT DUP2 ADD SWAP3 DUP2 SWAP1 SUB SWAP1 SWAP2 ADD SWAP1 DUP6 GAS STATICCALL ISZERO DUP1 ISZERO PUSH2 0x17B6 JUMPI RETURNDATASIZE PUSH1 0x0 DUP1 RETURNDATACOPY RETURNDATASIZE PUSH1 0x0 REVERT JUMPDEST POP POP PUSH1 0x40 MLOAD PUSH1 0x1F NOT ADD MLOAD SWAP2 POP POP PUSH1 0x1 PUSH1 0x1 PUSH1 0xA0 SHL SUB DUP2 AND ISZERO DUP1 ISZERO SWAP1 PUSH2 0x17EC JUMPI POP DUP9 PUSH1 0x1 PUSH1 0x1 PUSH1 0xA0 SHL SUB AND DUP2 PUSH1 0x1 PUSH1 0x1 PUSH1 0xA0 SHL SUB AND EQ JUMPDEST PUSH2 0x183D JUMPI PUSH1 0x40 DUP1 MLOAD PUSH3 0x461BCD PUSH1 0xE5 SHL DUP2 MSTORE PUSH1 0x20 PUSH1 0x4 DUP3 ADD MSTORE PUSH1 0x1C PUSH1 0x24 DUP3 ADD MSTORE PUSH32 0x556E697377617056323A20494E56414C49445F5349474E415455524500000000 PUSH1 0x44 DUP3 ADD MSTORE SWAP1 MLOAD SWAP1 DUP2 SWAP1 SUB PUSH1 0x64 ADD SWAP1 REVERT JUMPDEST PUSH2 0x1848 DUP10 DUP10 DUP10 PUSH2 0x2035 JUMP JUMPDEST POP POP POP POP POP POP POP POP POP JUMP JUMPDEST PUSH1 0x0 PUSH1 0xD SLOAD PUSH1 0x1 EQ PUSH2 0x18A0 JUMPI PUSH1 0x40 DUP1 MLOAD PUSH3 0x461BCD PUSH1 0xE5 SHL DUP2 MSTORE PUSH1 0x20 PUSH1 0x4 DUP3 ADD MSTORE PUSH1 0x11 PUSH1 0x24 DUP3 ADD MSTORE PUSH17 0x155B9A5CDDD85C158C8E881313D0D2D151 PUSH1 0x7A SHL PUSH1 0x44 DUP3 ADD MSTORE SWAP1 MLOAD SWAP1 DUP2 SWAP1 SUB PUSH1 0x64 ADD SWAP1 REVERT JUMPDEST PUSH1 0x0 PUSH1 0xD DUP2 SWAP1 SSTORE DUP1 PUSH2 0x18B0 PUSH2 0xBC8 JUMP JUMPDEST POP PUSH1 0x7 SLOAD PUSH1 0x40 DUP1 MLOAD PUSH4 0x70A08231 PUSH1 0xE0 SHL DUP2 MSTORE ADDRESS PUSH1 0x4 DUP3 ADD MSTORE SWAP1 MLOAD SWAP4 SWAP6 POP SWAP2 SWAP4 POP PUSH1 0x0 SWAP3 PUSH1 0x1 PUSH1 0x1 PUSH1 0xA0 SHL SUB SWAP1 SWAP2 AND SWAP2 PUSH4 0x70A08231 SWAP2 PUSH1 0x24 DUP1 DUP4 ADD SWAP3 PUSH1 0x20 SWAP3 SWAP2 SWAP1 DUP3 SWAP1 SUB ADD DUP2 DUP7 DUP1 EXTCODESIZE ISZERO DUP1 ISZERO PUSH2 0x1904 JUMPI PUSH1 0x0 DUP1 REVERT JUMPDEST POP GAS STATICCALL ISZERO DUP1 ISZERO PUSH2 0x1918 JUMPI RETURNDATASIZE PUSH1 0x0 DUP1 RETURNDATACOPY RETURNDATASIZE PUSH1 0x0 REVERT JUMPDEST POP POP POP POP PUSH1 0x40 MLOAD RETURNDATASIZE PUSH1 0x20 DUP2 LT ISZERO PUSH2 0x192E JUMPI PUSH1 0x0 DUP1 REVERT JUMPDEST POP MLOAD PUSH1 0x8 SLOAD PUSH1 0x40 DUP1 MLOAD PUSH4 0x70A08231 PUSH1 0xE0 SHL DUP2 MSTORE ADDRESS PUSH1 0x4 DUP3 ADD MSTORE SWAP1 MLOAD SWAP3 SWAP4 POP PUSH1 0x0 SWAP3 PUSH1 0x1 PUSH1 0x1 PUSH1 0xA0 SHL SUB SWAP1 SWAP3 AND SWAP2 PUSH4 0x70A08231 SWAP2 PUSH1 0x24 DUP1 DUP3 ADD SWAP3 PUSH1 0x20 SWAP3 SWAP1 SWAP2 SWAP1 DUP3 SWAP1 SUB ADD DUP2 DUP7 DUP1 EXTCODESIZE ISZERO DUP1 ISZERO PUSH2 0x1981 JUMPI PUSH1 0x0 DUP1 REVERT JUMPDEST POP GAS STATICCALL ISZERO DUP1 ISZERO PUSH2 0x1995 JUMPI RETURNDATASIZE PUSH1 0x0 DUP1 RETURNDATACOPY RETURNDATASIZE PUSH1 0x0 REVERT JUMPDEST POP POP POP POP PUSH1 0x40 MLOAD RETURNDATASIZE PUSH1 0x20 DUP2 LT ISZERO PUSH2 0x19AB JUMPI PUSH1 0x0 DUP1 REVERT JUMPDEST POP MLOAD SWAP1 POP PUSH1 0x0 PUSH2 0x19CA DUP4 PUSH1 0x1 PUSH1 0x1 PUSH1 0x70 SHL SUB DUP8 AND PUSH4 0xFFFFFFFF PUSH2 0x1E20 AND JUMP JUMPDEST SWAP1 POP PUSH1 0x0 PUSH2 0x19E7 DUP4 PUSH1 0x1 PUSH1 0x1 PUSH1 0x70 SHL SUB DUP8 AND PUSH4 0xFFFFFFFF PUSH2 0x1E20 AND JUMP JUMPDEST SWAP1 POP PUSH1 0x0 PUSH2 0x19F5 DUP8 DUP8 PUSH2 0x213F JUMP JUMPDEST PUSH1 0x0 SLOAD SWAP1 SWAP2 POP DUP1 PUSH2 0x1A2E JUMPI PUSH2 0x1A19 PUSH2 0x3E8 PUSH2 0xA86 PUSH2 0xF4F DUP8 DUP8 PUSH4 0xFFFFFFFF PUSH2 0x1DBD AND JUMP JUMPDEST SWAP9 POP PUSH2 0x1A28 PUSH1 0x0 PUSH2 0x3E8 PUSH2 0x2465 JUMP JUMPDEST POP PUSH2 0x1A4E JUMP JUMPDEST PUSH2 0x1A4B PUSH1 0x1 PUSH1 0x1 PUSH1 0x70 SHL SUB DUP10 AND PUSH2 0xF85 DUP7 DUP5 PUSH4 0xFFFFFFFF PUSH2 0x1DBD AND JUMP JUMPDEST SWAP9 POP JUMPDEST PUSH1 0x0 DUP10 GT PUSH2 0x1A8D JUMPI PUSH1 0x40 MLOAD PUSH3 0x461BCD PUSH1 0xE5 SHL DUP2 MSTORE PUSH1 0x4 ADD DUP1 DUP1 PUSH1 0x20 ADD DUP3 DUP2 SUB DUP3 MSTORE PUSH1 0x28 DUP2 MSTORE PUSH1 0x20 ADD DUP1 PUSH2 0x2615 PUSH1 0x28 SWAP2 CODECOPY PUSH1 0x40 ADD SWAP2 POP POP PUSH1 0x40 MLOAD DUP1 SWAP2 SUB SWAP1 REVERT JUMPDEST PUSH2 0x1A97 DUP11 DUP11 PUSH2 0x2465 JUMP JUMPDEST POP PUSH2 0x100C DUP7 DUP7 DUP11 DUP11 PUSH2 0x1E70 JUMP JUMPDEST PUSH1 0x2 PUSH1 0x20 SWAP1 DUP2 MSTORE PUSH1 0x0 SWAP3 DUP4 MSTORE PUSH1 0x40 DUP1 DUP5 KECCAK256 SWAP1 SWAP2 MSTORE SWAP1 DUP3 MSTORE SWAP1 KECCAK256 SLOAD DUP2 JUMP JUMPDEST PUSH1 0xD SLOAD PUSH1 0x1 EQ PUSH2 0x1B0C JUMPI PUSH1 0x40 DUP1 MLOAD PUSH3 0x461BCD PUSH1 0xE5 SHL DUP2 MSTORE PUSH1 0x20 PUSH1 0x4 DUP3 ADD MSTORE PUSH1 0x11 PUSH1 0x24 DUP3 ADD MSTORE PUSH17 0x155B9A5CDDD85C158C8E881313D0D2D151 PUSH1 0x7A SHL PUSH1 0x44 DUP3 ADD MSTORE SWAP1 MLOAD SWAP1 DUP2 SWAP1 SUB PUSH1 0x64 ADD SWAP1 REVERT JUMPDEST PUSH1 0x0 PUSH1 0xD SSTORE PUSH1 0x7 SLOAD PUSH1 0x40 DUP1 MLOAD PUSH4 0x70A08231 PUSH1 0xE0 SHL DUP2 MSTORE ADDRESS PUSH1 0x4 DUP3 ADD MSTORE SWAP1 MLOAD PUSH2 0x1C1C SWAP3 PUSH1 0x1 PUSH1 0x1 PUSH1 0xA0 SHL SUB AND SWAP2 PUSH4 0x70A08231 SWAP2 PUSH1 0x24 DUP1 DUP4 ADD SWAP3 PUSH1 0x20 SWAP3 SWAP2 SWAP1 DUP3 SWAP1 SUB ADD DUP2 DUP7 DUP1 EXTCODESIZE ISZERO DUP1 ISZERO PUSH2 0x1B5D JUMPI PUSH1 0x0 DUP1 REVERT JUMPDEST POP GAS STATICCALL ISZERO DUP1 ISZERO PUSH2 0x1B71 JUMPI RETURNDATASIZE PUSH1 0x0 DUP1 RETURNDATACOPY RETURNDATASIZE PUSH1 0x0 REVERT JUMPDEST POP POP POP POP PUSH1 0x40 MLOAD RETURNDATASIZE PUSH1 0x20 DUP2 LT ISZERO PUSH2 0x1B87 JUMPI PUSH1 0x0 DUP1 REVERT JUMPDEST POP MLOAD PUSH1 0x8 SLOAD PUSH1 0x40 DUP1 MLOAD PUSH4 0x70A08231 PUSH1 0xE0 SHL DUP2 MSTORE ADDRESS PUSH1 0x4 DUP3 ADD MSTORE SWAP1 MLOAD PUSH1 0x1 PUSH1 0x1 PUSH1 0xA0 SHL SUB SWAP1 SWAP3 AND SWAP2 PUSH4 0x70A08231 SWAP2 PUSH1 0x24 DUP1 DUP3 ADD SWAP3 PUSH1 0x20 SWAP3 SWAP1 SWAP2 SWAP1 DUP3 SWAP1 SUB ADD DUP2 DUP7 DUP1 EXTCODESIZE ISZERO DUP1 ISZERO PUSH2 0x1BD4 JUMPI PUSH1 0x0 DUP1 REVERT JUMPDEST POP GAS STATICCALL ISZERO DUP1 ISZERO PUSH2 0x1BE8 JUMPI RETURNDATASIZE PUSH1 0x0 DUP1 RETURNDATACOPY RETURNDATASIZE PUSH1 0x0 REVERT JUMPDEST POP POP POP POP PUSH1 0x40 MLOAD RETURNDATASIZE PUSH1 0x20 DUP2 LT ISZERO PUSH2 0x1BFE JUMPI PUSH1 0x0 DUP1 REVERT JUMPDEST POP MLOAD PUSH1 0x9 SLOAD PUSH1 0x1 PUSH1 0x1 PUSH1 0x70 SHL SUB DUP1 DUP3 AND SWAP2 PUSH1 0x1 PUSH1 0x70 SHL SWAP1 DIV AND PUSH2 0x1E70 JUMP JUMPDEST PUSH1 0x1 PUSH1 0xD SSTORE JUMP JUMPDEST PUSH1 0x40 DUP1 MLOAD DUP1 DUP3 ADD DUP3 MSTORE PUSH1 0x19 DUP2 MSTORE PUSH32 0x7472616E7366657228616464726573732C75696E743235362900000000000000 PUSH1 0x20 SWAP2 DUP3 ADD MSTORE DUP2 MLOAD PUSH1 0x1 PUSH1 0x1 PUSH1 0xA0 SHL SUB DUP6 DUP2 AND PUSH1 0x24 DUP4 ADD MSTORE PUSH1 0x44 DUP1 DUP4 ADD DUP7 SWAP1 MSTORE DUP5 MLOAD DUP1 DUP5 SUB SWAP1 SWAP2 ADD DUP2 MSTORE PUSH1 0x64 SWAP1 SWAP3 ADD DUP5 MSTORE SWAP2 DUP2 ADD DUP1 MLOAD PUSH1 0x1 PUSH1 0x1 PUSH1 0xE0 SHL SUB AND PUSH4 0xA9059CBB PUSH1 0xE0 SHL OR DUP2 MSTORE SWAP3 MLOAD DUP2 MLOAD PUSH1 0x0 SWAP5 PUSH1 0x60 SWAP5 DUP10 AND SWAP4 SWAP3 SWAP2 DUP3 SWAP2 SWAP1 DUP1 DUP4 DUP4 JUMPDEST PUSH1 0x20 DUP4 LT PUSH2 0x1CD0 JUMPI DUP1 MLOAD DUP3 MSTORE PUSH1 0x1F NOT SWAP1 SWAP3 ADD SWAP2 PUSH1 0x20 SWAP2 DUP3 ADD SWAP2 ADD PUSH2 0x1CB1 JUMP JUMPDEST PUSH1 0x1 DUP4 PUSH1 0x20 SUB PUSH2 0x100 EXP SUB DUP1 NOT DUP3 MLOAD AND DUP2 DUP5 MLOAD AND DUP1 DUP3 OR DUP6 MSTORE POP POP POP POP POP POP SWAP1 POP ADD SWAP2 POP POP PUSH1 0x0 PUSH1 0x40 MLOAD DUP1 DUP4 SUB DUP2 PUSH1 0x0 DUP7 GAS CALL SWAP2 POP POP RETURNDATASIZE DUP1 PUSH1 0x0 DUP2 EQ PUSH2 0x1D32 JUMPI PUSH1 0x40 MLOAD SWAP2 POP PUSH1 0x1F NOT PUSH1 0x3F RETURNDATASIZE ADD AND DUP3 ADD PUSH1 0x40 MSTORE RETURNDATASIZE DUP3 MSTORE RETURNDATASIZE PUSH1 0x0 PUSH1 0x20 DUP5 ADD RETURNDATACOPY PUSH2 0x1D37 JUMP JUMPDEST PUSH1 0x60 SWAP2 POP JUMPDEST POP SWAP2 POP SWAP2 POP DUP2 DUP1 ISZERO PUSH2 0x1D65 JUMPI POP DUP1 MLOAD ISZERO DUP1 PUSH2 0x1D65 JUMPI POP DUP1 DUP1 PUSH1 0x20 ADD SWAP1 MLOAD PUSH1 0x20 DUP2 LT ISZERO PUSH2 0x1D62 JUMPI PUSH1 0x0 DUP1 REVERT JUMPDEST POP MLOAD JUMPDEST PUSH2 0x1DB6 JUMPI PUSH1 0x40 DUP1 MLOAD PUSH3 0x461BCD PUSH1 0xE5 SHL DUP2 MSTORE PUSH1 0x20 PUSH1 0x4 DUP3 ADD MSTORE PUSH1 0x1A PUSH1 0x24 DUP3 ADD MSTORE PUSH32 0x556E697377617056323A205452414E534645525F4641494C4544000000000000 PUSH1 0x44 DUP3 ADD MSTORE SWAP1 MLOAD SWAP1 DUP2 SWAP1 SUB PUSH1 0x64 ADD SWAP1 REVERT JUMPDEST POP POP POP POP POP JUMP JUMPDEST PUSH1 0x0 DUP2 ISZERO DUP1 PUSH2 0x1DD8 JUMPI POP POP DUP1 DUP3 MUL DUP3 DUP3 DUP3 DUP2 PUSH2 0x1DD5 JUMPI INVALID JUMPDEST DIV EQ JUMPDEST PUSH2 0xC03 JUMPI PUSH1 0x40 DUP1 MLOAD PUSH3 0x461BCD PUSH1 0xE5 SHL DUP2 MSTORE PUSH1 0x20 PUSH1 0x4 DUP3 ADD MSTORE PUSH1 0x14 PUSH1 0x24 DUP3 ADD MSTORE PUSH20 0x64732D6D6174682D6D756C2D6F766572666C6F77 PUSH1 0x60 SHL PUSH1 0x44 DUP3 ADD MSTORE SWAP1 MLOAD SWAP1 DUP2 SWAP1 SUB PUSH1 0x64 ADD SWAP1 REVERT JUMPDEST DUP1 DUP3 SUB DUP3 DUP2 GT ISZERO PUSH2 0xC03 JUMPI PUSH1 0x40 DUP1 MLOAD PUSH3 0x461BCD PUSH1 0xE5 SHL DUP2 MSTORE PUSH1 0x20 PUSH1 0x4 DUP3 ADD MSTORE PUSH1 0x15 PUSH1 0x24 DUP3 ADD MSTORE PUSH21 0x64732D6D6174682D7375622D756E646572666C6F77 PUSH1 0x58 SHL PUSH1 0x44 DUP3 ADD MSTORE SWAP1 MLOAD SWAP1 DUP2 SWAP1 SUB PUSH1 0x64 ADD SWAP1 REVERT JUMPDEST PUSH1 0x1 PUSH1 0x1 PUSH1 0x70 SHL SUB DUP5 GT DUP1 ISZERO SWAP1 PUSH2 0x1E8E JUMPI POP PUSH1 0x1 PUSH1 0x1 PUSH1 0x70 SHL SUB DUP4 GT ISZERO JUMPDEST PUSH2 0x1ED5 JUMPI PUSH1 0x40 DUP1 MLOAD PUSH3 0x461BCD PUSH1 0xE5 SHL DUP2 MSTORE PUSH1 0x20 PUSH1 0x4 DUP3 ADD MSTORE PUSH1 0x13 PUSH1 0x24 DUP3 ADD MSTORE PUSH19 0x556E697377617056323A204F564552464C4F57 PUSH1 0x68 SHL PUSH1 0x44 DUP3 ADD MSTORE SWAP1 MLOAD SWAP1 DUP2 SWAP1 SUB PUSH1 0x64 ADD SWAP1 REVERT JUMPDEST PUSH1 0x9 SLOAD PUSH4 0xFFFFFFFF TIMESTAMP DUP2 AND SWAP2 PUSH1 0x1 PUSH1 0xE0 SHL SWAP1 DIV DUP2 AND DUP3 SUB SWAP1 DUP2 AND ISZERO DUP1 ISZERO SWAP1 PUSH2 0x1F05 JUMPI POP PUSH1 0x1 PUSH1 0x1 PUSH1 0x70 SHL SUB DUP5 AND ISZERO ISZERO JUMPDEST DUP1 ISZERO PUSH2 0x1F19 JUMPI POP PUSH1 0x1 PUSH1 0x1 PUSH1 0x70 SHL SUB DUP4 AND ISZERO ISZERO JUMPDEST ISZERO PUSH2 0x1F8A JUMPI DUP1 PUSH4 0xFFFFFFFF AND PUSH2 0x1F47 DUP6 PUSH2 0x1F32 DUP7 PUSH2 0x254B JUMP JUMPDEST PUSH1 0x1 PUSH1 0x1 PUSH1 0xE0 SHL SUB AND SWAP1 PUSH4 0xFFFFFFFF PUSH2 0x255D AND JUMP JUMPDEST PUSH1 0xA DUP1 SLOAD PUSH1 0x1 PUSH1 0x1 PUSH1 0xE0 SHL SUB SWAP3 SWAP1 SWAP3 AND SWAP3 SWAP1 SWAP3 MUL ADD SWAP1 SSTORE PUSH4 0xFFFFFFFF DUP2 AND PUSH2 0x1F72 DUP5 PUSH2 0x1F32 DUP8 PUSH2 0x254B JUMP JUMPDEST PUSH1 0xB DUP1 SLOAD PUSH1 0x1 PUSH1 0x1 PUSH1 0xE0 SHL SUB SWAP3 SWAP1 SWAP3 AND SWAP3 SWAP1 SWAP3 MUL ADD SWAP1 SSTORE JUMPDEST PUSH1 0x9 DUP1 SLOAD PUSH14 0xFFFFFFFFFFFFFFFFFFFFFFFFFFFF NOT AND PUSH1 0x1 PUSH1 0x1 PUSH1 0x70 SHL SUB DUP9 DUP2 AND SWAP2 SWAP1 SWAP2 OR PUSH14 0xFFFFFFFFFFFFFFFFFFFFFFFFFFFF PUSH1 0x70 SHL NOT AND PUSH1 0x1 PUSH1 0x70 SHL DUP9 DUP4 AND DUP2 MUL SWAP2 SWAP1 SWAP2 OR PUSH1 0x1 PUSH1 0x1 PUSH1 0xE0 SHL SUB AND PUSH1 0x1 PUSH1 0xE0 SHL PUSH4 0xFFFFFFFF DUP8 AND MUL OR SWAP3 DUP4 SWAP1 SSTORE PUSH1 0x40 DUP1 MLOAD DUP5 DUP5 AND DUP2 MSTORE SWAP2 SWAP1 SWAP4 DIV SWAP1 SWAP2 AND PUSH1 0x20 DUP3 ADD MSTORE DUP2 MLOAD PUSH32 0x1C411E9A96E071241C2F21F7726B17AE89E3CAB4C78BE50E062B03A9FFFBBAD1 SWAP3 SWAP2 DUP2 SWAP1 SUB SWAP1 SWAP2 ADD SWAP1 LOG1 POP POP POP POP POP POP JUMP JUMPDEST PUSH1 0x1 PUSH1 0x1 PUSH1 0xA0 SHL SUB DUP1 DUP5 AND PUSH1 0x0 DUP2 DUP2 MSTORE PUSH1 0x2 PUSH1 0x20 SWAP1 DUP2 MSTORE PUSH1 0x40 DUP1 DUP4 KECCAK256 SWAP5 DUP8 AND DUP1 DUP5 MSTORE SWAP5 DUP3 MSTORE SWAP2 DUP3 SWAP1 KECCAK256 DUP6 SWAP1 SSTORE DUP2 MLOAD DUP6 DUP2 MSTORE SWAP2 MLOAD PUSH32 0x8C5BE1E5EBEC7D5BD14F71427D1E84F3DD0314C0F7B2291E5B200AC8C7C3B925 SWAP3 DUP2 SWAP1 SUB SWAP1 SWAP2 ADD SWAP1 LOG3 POP POP POP JUMP JUMPDEST PUSH1 0x1 PUSH1 0x1 PUSH1 0xA0 SHL SUB DUP4 AND PUSH1 0x0 SWAP1 DUP2 MSTORE PUSH1 0x1 PUSH1 0x20 MSTORE PUSH1 0x40 SWAP1 KECCAK256 SLOAD PUSH2 0x20C0 SWAP1 DUP3 PUSH4 0xFFFFFFFF PUSH2 0x1E20 AND JUMP JUMPDEST PUSH1 0x1 PUSH1 0x1 PUSH1 0xA0 SHL SUB DUP1 DUP6 AND PUSH1 0x0 SWAP1 DUP2 MSTORE PUSH1 0x1 PUSH1 0x20 MSTORE PUSH1 0x40 DUP1 DUP3 KECCAK256 SWAP4 SWAP1 SWAP4 SSTORE SWAP1 DUP5 AND DUP2 MSTORE KECCAK256 SLOAD PUSH2 0x20F5 SWAP1 DUP3 PUSH4 0xFFFFFFFF PUSH2 0x238A AND JUMP JUMPDEST PUSH1 0x1 PUSH1 0x1 PUSH1 0xA0 SHL SUB DUP1 DUP5 AND PUSH1 0x0 DUP2 DUP2 MSTORE PUSH1 0x1 PUSH1 0x20 SWAP1 DUP2 MSTORE PUSH1 0x40 SWAP2 DUP3 SWAP1 KECCAK256 SWAP5 SWAP1 SWAP5 SSTORE DUP1 MLOAD DUP6 DUP2 MSTORE SWAP1 MLOAD SWAP2 SWAP4 SWAP3 DUP8 AND SWAP3 PUSH1 0x0 DUP1 MLOAD PUSH1 0x20 PUSH2 0x263D DUP4 CODECOPY DUP2 MLOAD SWAP2 MSTORE SWAP3 SWAP2 DUP3 SWAP1 SUB ADD SWAP1 LOG3 POP POP POP JUMP JUMPDEST PUSH1 0x0 DUP1 PUSH1 0x6 PUSH1 0x0 SWAP1 SLOAD SWAP1 PUSH2 0x100 EXP SWAP1 DIV PUSH1 0x1 PUSH1 0x1 PUSH1 0xA0 SHL SUB AND PUSH1 0x1 PUSH1 0x1 PUSH1 0xA0 SHL SUB AND PUSH4 0x17E7E58 PUSH1 0x40 MLOAD DUP2 PUSH4 0xFFFFFFFF AND PUSH1 0xE0 SHL DUP2 MSTORE PUSH1 0x4 ADD PUSH1 0x20 PUSH1 0x40 MLOAD DUP1 DUP4 SUB DUP2 DUP7 DUP1 EXTCODESIZE ISZERO DUP1 ISZERO PUSH2 0x2190 JUMPI PUSH1 0x0 DUP1 REVERT JUMPDEST POP GAS STATICCALL ISZERO DUP1 ISZERO PUSH2 0x21A4 JUMPI RETURNDATASIZE PUSH1 0x0 DUP1 RETURNDATACOPY RETURNDATASIZE PUSH1 0x0 REVERT JUMPDEST POP POP POP POP PUSH1 0x40 MLOAD RETURNDATASIZE PUSH1 0x20 DUP2 LT ISZERO PUSH2 0x21BA JUMPI PUSH1 0x0 DUP1 REVERT JUMPDEST POP MLOAD PUSH1 0xC SLOAD PUSH1 0x1 PUSH1 0x1 PUSH1 0xA0 SHL SUB DUP3 AND ISZERO DUP1 ISZERO SWAP5 POP SWAP2 SWAP3 POP SWAP1 PUSH2 0x2289 JUMPI DUP1 ISZERO PUSH2 0x2284 JUMPI PUSH1 0x0 PUSH2 0x21FD PUSH2 0xF4F PUSH1 0x1 PUSH1 0x1 PUSH1 0x70 SHL SUB DUP9 DUP2 AND SWAP1 DUP9 AND PUSH4 0xFFFFFFFF PUSH2 0x1DBD AND JUMP JUMPDEST SWAP1 POP PUSH1 0x0 PUSH2 0x220A DUP4 PUSH2 0x229D JUMP JUMPDEST SWAP1 POP DUP1 DUP3 GT ISZERO PUSH2 0x2281 JUMPI PUSH1 0x0 PUSH2 0x2238 PUSH2 0x2229 DUP5 DUP5 PUSH4 0xFFFFFFFF PUSH2 0x1E20 AND JUMP JUMPDEST PUSH1 0x0 SLOAD SWAP1 PUSH4 0xFFFFFFFF PUSH2 0x1DBD AND JUMP JUMPDEST SWAP1 POP PUSH1 0x0 PUSH2 0x225D DUP4 PUSH2 0x2251 DUP7 PUSH1 0x5 PUSH4 0xFFFFFFFF PUSH2 0x1DBD AND JUMP JUMPDEST SWAP1 PUSH4 0xFFFFFFFF PUSH2 0x238A AND JUMP JUMPDEST SWAP1 POP PUSH1 0x0 DUP2 DUP4 DUP2 PUSH2 0x226A JUMPI INVALID JUMPDEST DIV SWAP1 POP DUP1 ISZERO PUSH2 0x227D JUMPI PUSH2 0x227D DUP8 DUP3 PUSH2 0x22EE JUMP JUMPDEST POP POP POP JUMPDEST POP POP JUMPDEST PUSH2 0x2295 JUMP JUMPDEST DUP1 ISZERO PUSH2 0x2295 JUMPI PUSH1 0x0 PUSH1 0xC SSTORE JUMPDEST POP POP SWAP3 SWAP2 POP POP JUMP JUMPDEST PUSH1 0x0 PUSH1 0x3 DUP3 GT ISZERO PUSH2 0x22E0 JUMPI POP DUP1 PUSH1 0x1 PUSH1 0x2 DUP3 DIV ADD JUMPDEST DUP2 DUP2 LT ISZERO PUSH2 0x22DA JUMPI DUP1 SWAP2 POP PUSH1 0x2 DUP2 DUP3 DUP6 DUP2 PUSH2 0x22C9 JUMPI INVALID JUMPDEST DIV ADD DUP2 PUSH2 0x22D2 JUMPI INVALID JUMPDEST DIV SWAP1 POP PUSH2 0x22B2 JUMP JUMPDEST POP PUSH2 0x10D1 JUMP JUMPDEST DUP2 ISZERO PUSH2 0x10D1 JUMPI POP PUSH1 0x1 SWAP2 SWAP1 POP JUMP JUMPDEST PUSH1 0x0 SLOAD PUSH2 0x2301 SWAP1 DUP3 PUSH4 0xFFFFFFFF PUSH2 0x238A AND JUMP JUMPDEST PUSH1 0x0 SWAP1 DUP2 SSTORE PUSH1 0x1 PUSH1 0x1 PUSH1 0xA0 SHL SUB DUP4 AND DUP2 MSTORE PUSH1 0x1 PUSH1 0x20 MSTORE PUSH1 0x40 SWAP1 KECCAK256 SLOAD PUSH2 0x232C SWAP1 DUP3 PUSH4 0xFFFFFFFF PUSH2 0x238A AND JUMP JUMPDEST PUSH1 0x1 PUSH1 0x1 PUSH1 0xA0 SHL SUB DUP4 AND PUSH1 0x0 DUP2 DUP2 MSTORE PUSH1 0x1 PUSH1 0x20 SWAP1 DUP2 MSTORE PUSH1 0x40 DUP1 DUP4 KECCAK256 SWAP5 SWAP1 SWAP5 SSTORE DUP4 MLOAD DUP6 DUP2 MSTORE SWAP4 MLOAD SWAP3 SWAP4 SWAP2 SWAP3 PUSH1 0x0 DUP1 MLOAD PUSH1 0x20 PUSH2 0x263D DUP4 CODECOPY DUP2 MLOAD SWAP2 MSTORE SWAP3 DUP2 SWAP1 SUB SWAP1 SWAP2 ADD SWAP1 LOG3 POP POP JUMP JUMPDEST PUSH1 0x0 DUP2 DUP4 LT PUSH2 0x2381 JUMPI DUP2 PUSH2 0x2383 JUMP JUMPDEST DUP3 JUMPDEST SWAP4 SWAP3 POP POP POP JUMP JUMPDEST DUP1 DUP3 ADD DUP3 DUP2 LT ISZERO PUSH2 0xC03 JUMPI PUSH1 0x40 DUP1 MLOAD PUSH3 0x461BCD PUSH1 0xE5 SHL DUP2 MSTORE PUSH1 0x20 PUSH1 0x4 DUP3 ADD MSTORE PUSH1 0x14 PUSH1 0x24 DUP3 ADD MSTORE PUSH20 0x64732D6D6174682D6164642D6F766572666C6F77 PUSH1 0x60 SHL PUSH1 0x44 DUP3 ADD MSTORE SWAP1 MLOAD SWAP1 DUP2 SWAP1 SUB PUSH1 0x64 ADD SWAP1 REVERT JUMPDEST PUSH1 0x1 PUSH1 0x1 PUSH1 0xA0 SHL SUB DUP3 AND PUSH1 0x0 SWAP1 DUP2 MSTORE PUSH1 0x1 PUSH1 0x20 MSTORE PUSH1 0x40 SWAP1 KECCAK256 SLOAD PUSH2 0x2402 SWAP1 DUP3 PUSH4 0xFFFFFFFF PUSH2 0x1E20 AND JUMP JUMPDEST PUSH1 0x1 PUSH1 0x1 PUSH1 0xA0 SHL SUB DUP4 AND PUSH1 0x0 SWAP1 DUP2 MSTORE PUSH1 0x1 PUSH1 0x20 MSTORE PUSH1 0x40 DUP2 KECCAK256 SWAP2 SWAP1 SWAP2 SSTORE SLOAD PUSH2 0x242F SWAP1 DUP3 PUSH4 0xFFFFFFFF PUSH2 0x1E20 AND JUMP JUMPDEST PUSH1 0x0 SWAP1 DUP2 SSTORE PUSH1 0x40 DUP1 MLOAD DUP4 DUP2 MSTORE SWAP1 MLOAD PUSH1 0x1 PUSH1 0x1 PUSH1 0xA0 SHL SUB DUP6 AND SWAP2 PUSH1 0x0 DUP1 MLOAD PUSH1 0x20 PUSH2 0x263D DUP4 CODECOPY DUP2 MLOAD SWAP2 MSTORE SWAP2 SWAP1 DUP2 SWAP1 SUB PUSH1 0x20 ADD SWAP1 LOG3 POP POP JUMP JUMPDEST PUSH1 0x0 PUSH1 0x1 PUSH1 0x1 PUSH1 0xA0 SHL SUB DUP4 AND PUSH2 0x24C2 JUMPI PUSH1 0x40 DUP1 MLOAD PUSH3 0x461BCD PUSH1 0xE5 SHL DUP2 MSTORE PUSH1 0x20 PUSH1 0x4 DUP3 ADD MSTORE PUSH1 0x1F PUSH1 0x24 DUP3 ADD MSTORE PUSH32 0x42455032303A206D696E7420746F20746865207A65726F206164647265737300 PUSH1 0x44 DUP3 ADD MSTORE SWAP1 MLOAD SWAP1 DUP2 SWAP1 SUB PUSH1 0x64 ADD SWAP1 REVERT JUMPDEST PUSH1 0x0 SLOAD PUSH2 0x24D5 SWAP1 DUP4 PUSH4 0xFFFFFFFF PUSH2 0x238A AND JUMP JUMPDEST PUSH1 0x0 SWAP1 DUP2 SSTORE PUSH1 0x1 PUSH1 0x1 PUSH1 0xA0 SHL SUB DUP5 AND DUP2 MSTORE PUSH1 0x3 PUSH1 0x20 MSTORE PUSH1 0x40 SWAP1 KECCAK256 SLOAD PUSH2 0x2500 SWAP1 DUP4 PUSH4 0xFFFFFFFF PUSH2 0x238A AND JUMP JUMPDEST PUSH1 0x1 PUSH1 0x1 PUSH1 0xA0 SHL SUB DUP5 AND PUSH1 0x0 DUP2 DUP2 MSTORE PUSH1 0x3 PUSH1 0x20 SWAP1 DUP2 MSTORE PUSH1 0x40 DUP1 DUP4 KECCAK256 SWAP5 SWAP1 SWAP5 SSTORE DUP4 MLOAD DUP7 DUP2 MSTORE SWAP4 MLOAD SWAP3 SWAP4 SWAP2 SWAP3 PUSH1 0x0 DUP1 MLOAD PUSH1 0x20 PUSH2 0x263D DUP4 CODECOPY DUP2 MLOAD SWAP2 MSTORE SWAP3 DUP2 SWAP1 SUB SWAP1 SWAP2 ADD SWAP1 LOG3 POP PUSH1 0x1 SWAP3 SWAP2 POP POP JUMP JUMPDEST PUSH1 0x1 PUSH1 0x1 PUSH1 0x70 SHL SUB AND PUSH1 0x1 PUSH1 0x70 SHL MUL SWAP1 JUMP JUMPDEST PUSH1 0x0 PUSH1 0x1 PUSH1 0x1 PUSH1 0x70 SHL SUB DUP3 AND PUSH1 0x1 PUSH1 0x1 PUSH1 0xE0 SHL SUB DUP5 AND DUP2 PUSH2 0x257A JUMPI INVALID JUMPDEST DIV SWAP4 SWAP3 POP POP POP JUMP INVALID SSTORE PUSH15 0x697377617056323A20494E53554646 0x49 NUMBER 0x49 GASLIMIT 0x4E SLOAD 0x5F 0x4F SSTORE SLOAD POP SSTORE SLOAD 0x5F COINBASE 0x4D 0x4F SSTORE 0x4E SLOAD SSTORE PUSH15 0x697377617056323A20494E53554646 0x49 NUMBER 0x49 GASLIMIT 0x4E SLOAD 0x5F 0x49 0x4E POP SSTORE SLOAD 0x5F COINBASE 0x4D 0x4F SSTORE 0x4E SLOAD SSTORE PUSH15 0x697377617056323A20494E53554646 0x49 NUMBER 0x49 GASLIMIT 0x4E SLOAD 0x5F 0x4C 0x49 MLOAD SSTORE 0x49 DIFFICULTY 0x49 SLOAD MSIZE SSTORE PUSH15 0x697377617056323A20494E53554646 0x49 NUMBER 0x49 GASLIMIT 0x4E SLOAD 0x5F 0x4C 0x49 MLOAD SSTORE 0x49 DIFFICULTY 0x49 SLOAD MSIZE 0x5F TIMESTAMP SSTORE MSTORE 0x4E GASLIMIT DIFFICULTY SSTORE PUSH15 0x697377617056323A20494E53554646 0x49 NUMBER 0x49 GASLIMIT 0x4E SLOAD 0x5F 0x4C 0x49 MLOAD SSTORE 0x49 DIFFICULTY 0x49 SLOAD MSIZE 0x5F 0x4D 0x49 0x4E SLOAD GASLIMIT DIFFICULTY 0xDD CALLCODE MSTORE 0xAD SHL 0xE2 0xC8 SWAP12 PUSH10 0xC2B068FC378DAA952BA7 CALL PUSH4 0xC4A11628 CREATE2 GAS 0x4D CREATE2 0x23 0xB3 0xEF LOG2 PUSH6 0x627A7A723158 KECCAK256 0xA9 SWAP1 RETURNDATACOPY DUP6 0xAE 0xEA COINBASE 0xD0 CALLDATACOPY MUL PUSH11 0x9F8250CFFB74BB056CAB17 0xC2 BLOCKHASH 0xCF SWAP4 INVALID 0xE3 NUMBER 0x5C DUP8 RETURN PUSH5 0x736F6C6343 STOP SDIV LT STOP ORIGIN GASLIMIT 0x49 POP CALLDATACOPY BALANCE ORIGIN DIFFICULTY PUSH16 0x6D61696E28737472696E67206E616D65 0x2C PUSH20 0x7472696E672076657273696F6E2C75696E743235 CALLDATASIZE KECCAK256 PUSH4 0x6861696E 0x49 PUSH5 0x2C61646472 PUSH6 0x737320766572 PUSH10 0x6679696E67436F6E7472 PUSH2 0x6374 0x29 "
				},
				"gasEstimates": {
					"creation": {
						"codeDepositCost": "1974600",
						"executionCost": "infinite",
						"totalCost": "infinite"
					},
					"external": {
						"DOMAIN_SEPARATOR()": "1088",
						"Lockmint(address)": "infinite",
						"MINIMUM_LIQUIDITY()": "243",
						"PERMIT_TYPEHASH()": "244",
						"_balances(address)": "1170",
						"_frozenBalance(address)": "1236",
						"allowance(address,address)": "1305",
						"approve(address,uint256)": "22366",
						"balanceOf(address)": "infinite",
						"burn(address)": "infinite",
						"decimals()": "275",
						"factory()": "1126",
						"getReserves()": "1240",
						"initialize(address,address)": "42806",
						"kLast()": "1088",
						"mint(address)": "infinite",
						"name()": "infinite",
						"nonces(address)": "1169",
						"permit(address,address,uint256,uint256,uint8,bytes32,bytes32)": "infinite",
						"price0CumulativeLast()": "1065",
						"price1CumulativeLast()": "1087",
						"skim(address)": "infinite",
						"swap(uint256,uint256,address,bytes)": "infinite",
						"symbol()": "infinite",
						"sync()": "infinite",
						"token0()": "1105",
						"token1()": "1148",
						"totalSupply()": "1088",
						"transfer(address,uint256)": "infinite",
						"transferFrom(address,address,uint256)": "infinite"
					},
					"internal": {
						"_mintFee(uint112,uint112)": "infinite",
						"_safeTransfer(address,address,uint256)": "infinite",
						"_update(uint256,uint256,uint112,uint112)": "infinite"
					}
				},
				"methodIdentifiers": {
					"DOMAIN_SEPARATOR()": "3644e515",
					"Lockmint(address)": "dcbbb373",
					"MINIMUM_LIQUIDITY()": "ba9a7a56",
					"PERMIT_TYPEHASH()": "30adf81f",
					"_balances(address)": "6ebcf607",
					"_frozenBalance(address)": "47d5d856",
					"allowance(address,address)": "dd62ed3e",
					"approve(address,uint256)": "095ea7b3",
					"balanceOf(address)": "70a08231",
					"burn(address)": "89afcb44",
					"decimals()": "313ce567",
					"factory()": "c45a0155",
					"getReserves()": "0902f1ac",
					"initialize(address,address)": "485cc955",
					"kLast()": "7464fc3d",
					"mint(address)": "6a627842",
					"name()": "06fdde03",
					"nonces(address)": "7ecebe00",
					"permit(address,address,uint256,uint256,uint8,bytes32,bytes32)": "d505accf",
					"price0CumulativeLast()": "5909c0d5",
					"price1CumulativeLast()": "5a3d5493",
					"skim(address)": "bc25cf77",
					"swap(uint256,uint256,address,bytes)": "022c0d9f",
					"symbol()": "95d89b41",
					"sync()": "fff6cae9",
					"token0()": "0dfe1681",
					"token1()": "d21220a7",
					"totalSupply()": "18160ddd",
					"transfer(address,uint256)": "a9059cbb",
					"transferFrom(address,address,uint256)": "23b872dd"
				}
			},
			"storageLayout": {
				"storage": [
					{
						"astId": 19,
						"contract": "v2-core-master/contracts/UniswapV2Pair.sol:UniswapV2Pair",
						"label": "totalSupply",
						"offset": 0,
						"slot": "0",
						"type": "t_uint256"
					},
					{
						"astId": 23,
						"contract": "v2-core-master/contracts/UniswapV2Pair.sol:UniswapV2Pair",
						"label": "_balances",
						"offset": 0,
						"slot": "1",
						"type": "t_mapping(t_address,t_uint256)"
					},
					{
						"astId": 29,
						"contract": "v2-core-master/contracts/UniswapV2Pair.sol:UniswapV2Pair",
						"label": "allowance",
						"offset": 0,
						"slot": "2",
						"type": "t_mapping(t_address,t_mapping(t_address,t_uint256))"
					},
					{
						"astId": 33,
						"contract": "v2-core-master/contracts/UniswapV2Pair.sol:UniswapV2Pair",
						"label": "_frozenBalance",
						"offset": 0,
						"slot": "3",
						"type": "t_mapping(t_address,t_uint256)"
					},
					{
						"astId": 35,
						"contract": "v2-core-master/contracts/UniswapV2Pair.sol:UniswapV2Pair",
						"label": "DOMAIN_SEPARATOR",
						"offset": 0,
						"slot": "4",
						"type": "t_bytes32"
					},
					{
						"astId": 42,
						"contract": "v2-core-master/contracts/UniswapV2Pair.sol:UniswapV2Pair",
						"label": "nonces",
						"offset": 0,
						"slot": "5",
						"type": "t_mapping(t_address,t_uint256)"
					},
					{
						"astId": 487,
						"contract": "v2-core-master/contracts/UniswapV2Pair.sol:UniswapV2Pair",
						"label": "factory",
						"offset": 0,
						"slot": "6",
						"type": "t_address"
					},
					{
						"astId": 489,
						"contract": "v2-core-master/contracts/UniswapV2Pair.sol:UniswapV2Pair",
						"label": "token0",
						"offset": 0,
						"slot": "7",
						"type": "t_address"
					},
					{
						"astId": 491,
						"contract": "v2-core-master/contracts/UniswapV2Pair.sol:UniswapV2Pair",
						"label": "token1",
						"offset": 0,
						"slot": "8",
						"type": "t_address"
					},
					{
						"astId": 493,
						"contract": "v2-core-master/contracts/UniswapV2Pair.sol:UniswapV2Pair",
						"label": "reserve0",
						"offset": 0,
						"slot": "9",
						"type": "t_uint112"
					},
					{
						"astId": 495,
						"contract": "v2-core-master/contracts/UniswapV2Pair.sol:UniswapV2Pair",
						"label": "reserve1",
						"offset": 14,
						"slot": "9",
						"type": "t_uint112"
					},
					{
						"astId": 497,
						"contract": "v2-core-master/contracts/UniswapV2Pair.sol:UniswapV2Pair",
						"label": "blockTimestampLast",
						"offset": 28,
						"slot": "9",
						"type": "t_uint32"
					},
					{
						"astId": 499,
						"contract": "v2-core-master/contracts/UniswapV2Pair.sol:UniswapV2Pair",
						"label": "price0CumulativeLast",
						"offset": 0,
						"slot": "10",
						"type": "t_uint256"
					},
					{
						"astId": 501,
						"contract": "v2-core-master/contracts/UniswapV2Pair.sol:UniswapV2Pair",
						"label": "price1CumulativeLast",
						"offset": 0,
						"slot": "11",
						"type": "t_uint256"
					},
					{
						"astId": 503,
						"contract": "v2-core-master/contracts/UniswapV2Pair.sol:UniswapV2Pair",
						"label": "kLast",
						"offset": 0,
						"slot": "12",
						"type": "t_uint256"
					},
					{
						"astId": 506,
						"contract": "v2-core-master/contracts/UniswapV2Pair.sol:UniswapV2Pair",
						"label": "unlocked",
						"offset": 0,
						"slot": "13",
						"type": "t_uint256"
					}
				],
				"types": {
					"t_address": {
						"encoding": "inplace",
						"label": "address",
						"numberOfBytes": "20"
					},
					"t_bytes32": {
						"encoding": "inplace",
						"label": "bytes32",
						"numberOfBytes": "32"
					},
					"t_mapping(t_address,t_mapping(t_address,t_uint256))": {
						"encoding": "mapping",
						"key": "t_address",
						"label": "mapping(address => mapping(address => uint256))",
						"numberOfBytes": "32",
						"value": "t_mapping(t_address,t_uint256)"
					},
					"t_mapping(t_address,t_uint256)": {
						"encoding": "mapping",
						"key": "t_address",
						"label": "mapping(address => uint256)",
						"numberOfBytes": "32",
						"value": "t_uint256"
					},
					"t_uint112": {
						"encoding": "inplace",
						"label": "uint112",
						"numberOfBytes": "14"
					},
					"t_uint256": {
						"encoding": "inplace",
						"label": "uint256",
						"numberOfBytes": "32"
					},
					"t_uint32": {
						"encoding": "inplace",
						"label": "uint32",
						"numberOfBytes": "4"
					}
				}
			},
			"userdoc": {
				"methods": {}
			}
		}
	}
}