{
	"v2-core-master/contracts/UniswapV2Pair.sol": {
		"UniswapV2Pair": {
			"abi": [
				{
					"inputs": [],
					"payable": false,
					"stateMutability": "nonpayable",
					"type": "constructor"
				},
				{
					"anonymous": false,
					"inputs": [
						{
							"indexed": true,
							"internalType": "address",
							"name": "owner",
							"type": "address"
						},
						{
							"indexed": true,
							"internalType": "address",
							"name": "spender",
							"type": "address"
						},
						{
							"indexed": false,
							"internalType": "uint256",
							"name": "value",
							"type": "uint256"
						}
					],
					"name": "Approval",
					"type": "event"
				},
				{
					"anonymous": false,
					"inputs": [
						{
							"indexed": true,
							"internalType": "address",
							"name": "sender",
							"type": "address"
						},
						{
							"indexed": false,
							"internalType": "uint256",
							"name": "amount0",
							"type": "uint256"
						},
						{
							"indexed": false,
							"internalType": "uint256",
							"name": "amount1",
							"type": "uint256"
						},
						{
							"indexed": true,
							"internalType": "address",
							"name": "to",
							"type": "address"
						}
					],
					"name": "Burn",
					"type": "event"
				},
				{
					"anonymous": false,
					"inputs": [
						{
							"indexed": true,
							"internalType": "address",
							"name": "sender",
							"type": "address"
						},
						{
							"indexed": false,
							"internalType": "uint256",
							"name": "amount0",
							"type": "uint256"
						},
						{
							"indexed": false,
							"internalType": "uint256",
							"name": "amount1",
							"type": "uint256"
						}
					],
					"name": "Mint",
					"type": "event"
				},
				{
					"anonymous": false,
					"inputs": [
						{
							"indexed": true,
							"internalType": "address",
							"name": "sender",
							"type": "address"
						},
						{
							"indexed": false,
							"internalType": "uint256",
							"name": "amount0In",
							"type": "uint256"
						},
						{
							"indexed": false,
							"internalType": "uint256",
							"name": "amount1In",
							"type": "uint256"
						},
						{
							"indexed": false,
							"internalType": "uint256",
							"name": "amount0Out",
							"type": "uint256"
						},
						{
							"indexed": false,
							"internalType": "uint256",
							"name": "amount1Out",
							"type": "uint256"
						},
						{
							"indexed": true,
							"internalType": "address",
							"name": "to",
							"type": "address"
						}
					],
					"name": "Swap",
					"type": "event"
				},
				{
					"anonymous": false,
					"inputs": [
						{
							"indexed": false,
							"internalType": "uint112",
							"name": "reserve0",
							"type": "uint112"
						},
						{
							"indexed": false,
							"internalType": "uint112",
							"name": "reserve1",
							"type": "uint112"
						}
					],
					"name": "Sync",
					"type": "event"
				},
				{
					"anonymous": false,
					"inputs": [
						{
							"indexed": true,
							"internalType": "address",
							"name": "from",
							"type": "address"
						},
						{
							"indexed": true,
							"internalType": "address",
							"name": "to",
							"type": "address"
						},
						{
							"indexed": false,
							"internalType": "uint256",
							"name": "value",
							"type": "uint256"
						}
					],
					"name": "Transfer",
					"type": "event"
				},
				{
					"constant": true,
					"inputs": [],
					"name": "DOMAIN_SEPARATOR",
					"outputs": [
						{
							"internalType": "bytes32",
							"name": "",
							"type": "bytes32"
						}
					],
					"payable": false,
					"stateMutability": "view",
					"type": "function"
				},
				{
					"constant": true,
					"inputs": [],
					"name": "FeeResiver",
					"outputs": [
						{
							"internalType": "address",
							"name": "",
							"type": "address"
						}
					],
					"payable": false,
					"stateMutability": "view",
					"type": "function"
				},
				{
					"constant": false,
					"inputs": [
						{
							"internalType": "address",
							"name": "to",
							"type": "address"
						}
					],
					"name": "Lockmint",
					"outputs": [
						{
							"internalType": "uint256",
							"name": "liquidity",
							"type": "uint256"
						}
					],
					"payable": false,
					"stateMutability": "nonpayable",
					"type": "function"
				},
				{
					"constant": true,
					"inputs": [],
					"name": "MINIMUM_LIQUIDITY",
					"outputs": [
						{
							"internalType": "uint256",
							"name": "",
							"type": "uint256"
						}
					],
					"payable": false,
					"stateMutability": "view",
					"type": "function"
				},
				{
					"constant": true,
					"inputs": [],
					"name": "PERMIT_TYPEHASH",
					"outputs": [
						{
							"internalType": "bytes32",
							"name": "",
							"type": "bytes32"
						}
					],
					"payable": false,
					"stateMutability": "view",
					"type": "function"
				},
				{
					"constant": true,
					"inputs": [
						{
							"internalType": "address",
							"name": "",
							"type": "address"
						}
					],
					"name": "_balances",
					"outputs": [
						{
							"internalType": "uint256",
							"name": "",
							"type": "uint256"
						}
					],
					"payable": false,
					"stateMutability": "view",
					"type": "function"
				},
				{
					"constant": true,
					"inputs": [
						{
							"internalType": "address",
							"name": "",
							"type": "address"
						}
					],
					"name": "_frozenBalance",
					"outputs": [
						{
							"internalType": "uint256",
							"name": "",
							"type": "uint256"
						}
					],
					"payable": false,
					"stateMutability": "view",
					"type": "function"
				},
				{
					"constant": true,
					"inputs": [
						{
							"internalType": "address",
							"name": "",
							"type": "address"
						},
						{
							"internalType": "address",
							"name": "",
							"type": "address"
						}
					],
					"name": "allowance",
					"outputs": [
						{
							"internalType": "uint256",
							"name": "",
							"type": "uint256"
						}
					],
					"payable": false,
					"stateMutability": "view",
					"type": "function"
				},
				{
					"constant": false,
					"inputs": [
						{
							"internalType": "address",
							"name": "spender",
							"type": "address"
						},
						{
							"internalType": "uint256",
							"name": "value",
							"type": "uint256"
						}
					],
					"name": "approve",
					"outputs": [
						{
							"internalType": "bool",
							"name": "",
							"type": "bool"
						}
					],
					"payable": false,
					"stateMutability": "nonpayable",
					"type": "function"
				},
				{
					"constant": true,
					"inputs": [
						{
							"internalType": "address",
							"name": "account",
							"type": "address"
						}
					],
					"name": "balanceOf",
					"outputs": [
						{
							"internalType": "uint256",
							"name": "",
							"type": "uint256"
						}
					],
					"payable": false,
					"stateMutability": "view",
					"type": "function"
				},
				{
					"constant": false,
					"inputs": [
						{
							"internalType": "address",
							"name": "to",
							"type": "address"
						}
					],
					"name": "burn",
					"outputs": [
						{
							"internalType": "uint256",
							"name": "amount0",
							"type": "uint256"
						},
						{
							"internalType": "uint256",
							"name": "amount1",
							"type": "uint256"
						}
					],
					"payable": false,
					"stateMutability": "nonpayable",
					"type": "function"
				},
				{
					"constant": true,
					"inputs": [],
					"name": "decimals",
					"outputs": [
						{
							"internalType": "uint8",
							"name": "",
							"type": "uint8"
						}
					],
					"payable": false,
					"stateMutability": "view",
					"type": "function"
				},
				{
					"constant": true,
					"inputs": [],
					"name": "factory",
					"outputs": [
						{
							"internalType": "address",
							"name": "",
							"type": "address"
						}
					],
					"payable": false,
					"stateMutability": "view",
					"type": "function"
				},
				{
					"constant": true,
					"inputs": [],
					"name": "getReserves",
					"outputs": [
						{
							"internalType": "uint112",
							"name": "_reserve0",
							"type": "uint112"
						},
						{
							"internalType": "uint112",
							"name": "_reserve1",
							"type": "uint112"
						},
						{
							"internalType": "uint32",
							"name": "_blockTimestampLast",
							"type": "uint32"
						}
					],
					"payable": false,
					"stateMutability": "view",
					"type": "function"
				},
				{
					"constant": false,
					"inputs": [
						{
							"internalType": "address",
							"name": "_token0",
							"type": "address"
						},
						{
							"internalType": "address",
							"name": "_token1",
							"type": "address"
						}
					],
					"name": "initialize",
					"outputs": [],
					"payable": false,
					"stateMutability": "nonpayable",
					"type": "function"
				},
				{
					"constant": true,
					"inputs": [],
					"name": "kLast",
					"outputs": [
						{
							"internalType": "uint256",
							"name": "",
							"type": "uint256"
						}
					],
					"payable": false,
					"stateMutability": "view",
					"type": "function"
				},
				{
					"constant": false,
					"inputs": [
						{
							"internalType": "address",
							"name": "to",
							"type": "address"
						}
					],
					"name": "mint",
					"outputs": [
						{
							"internalType": "uint256",
							"name": "liquidity",
							"type": "uint256"
						}
					],
					"payable": false,
					"stateMutability": "nonpayable",
					"type": "function"
				},
				{
					"constant": true,
					"inputs": [],
					"name": "name",
					"outputs": [
						{
							"internalType": "string",
							"name": "",
							"type": "string"
						}
					],
					"payable": false,
					"stateMutability": "view",
					"type": "function"
				},
				{
					"constant": true,
					"inputs": [
						{
							"internalType": "address",
							"name": "",
							"type": "address"
						}
					],
					"name": "nonces",
					"outputs": [
						{
							"internalType": "uint256",
							"name": "",
							"type": "uint256"
						}
					],
					"payable": false,
					"stateMutability": "view",
					"type": "function"
				},
				{
					"constant": false,
					"inputs": [
						{
							"internalType": "address",
							"name": "owner",
							"type": "address"
						},
						{
							"internalType": "address",
							"name": "spender",
							"type": "address"
						},
						{
							"internalType": "uint256",
							"name": "value",
							"type": "uint256"
						},
						{
							"internalType": "uint256",
							"name": "deadline",
							"type": "uint256"
						},
						{
							"internalType": "uint8",
							"name": "v",
							"type": "uint8"
						},
						{
							"internalType": "bytes32",
							"name": "r",
							"type": "bytes32"
						},
						{
							"internalType": "bytes32",
							"name": "s",
							"type": "bytes32"
						}
					],
					"name": "permit",
					"outputs": [],
					"payable": false,
					"stateMutability": "nonpayable",
					"type": "function"
				},
				{
					"constant": true,
					"inputs": [],
					"name": "price0CumulativeLast",
					"outputs": [
						{
							"internalType": "uint256",
							"name": "",
							"type": "uint256"
						}
					],
					"payable": false,
					"stateMutability": "view",
					"type": "function"
				},
				{
					"constant": true,
					"inputs": [],
					"name": "price1CumulativeLast",
					"outputs": [
						{
							"internalType": "uint256",
							"name": "",
							"type": "uint256"
						}
					],
					"payable": false,
					"stateMutability": "view",
					"type": "function"
				},
				{
					"constant": false,
					"inputs": [
						{
							"internalType": "address",
							"name": "to",
							"type": "address"
						}
					],
					"name": "skim",
					"outputs": [],
					"payable": false,
					"stateMutability": "nonpayable",
					"type": "function"
				},
				{
					"constant": false,
					"inputs": [
						{
							"internalType": "uint256",
							"name": "amount0Out",
							"type": "uint256"
						},
						{
							"internalType": "uint256",
							"name": "amount1Out",
							"type": "uint256"
						},
						{
							"internalType": "address",
							"name": "to",
							"type": "address"
						},
						{
							"internalType": "bytes",
							"name": "data",
							"type": "bytes"
						}
					],
					"name": "swap",
					"outputs": [],
					"payable": false,
					"stateMutability": "nonpayable",
					"type": "function"
				},
				{
					"constant": false,
					"inputs": [
						{
							"internalType": "uint256",
							"name": "amount0Out",
							"type": "uint256"
						},
						{
							"internalType": "uint256",
							"name": "amount1Out",
							"type": "uint256"
						},
						{
							"internalType": "address",
							"name": "to",
							"type": "address"
						},
						{
							"internalType": "bytes",
							"name": "data",
							"type": "bytes"
						}
					],
					"name": "swaptax",
					"outputs": [],
					"payable": false,
					"stateMutability": "nonpayable",
					"type": "function"
				},
				{
					"constant": true,
					"inputs": [],
					"name": "symbol",
					"outputs": [
						{
							"internalType": "string",
							"name": "",
							"type": "string"
						}
					],
					"payable": false,
					"stateMutability": "view",
					"type": "function"
				},
				{
					"constant": false,
					"inputs": [],
					"name": "sync",
					"outputs": [],
					"payable": false,
					"stateMutability": "nonpayable",
					"type": "function"
				},
				{
					"constant": true,
					"inputs": [],
					"name": "token0",
					"outputs": [
						{
							"internalType": "address",
							"name": "",
							"type": "address"
						}
					],
					"payable": false,
					"stateMutability": "view",
					"type": "function"
				},
				{
					"constant": true,
					"inputs": [],
					"name": "token1",
					"outputs": [
						{
							"internalType": "address",
							"name": "",
							"type": "address"
						}
					],
					"payable": false,
					"stateMutability": "view",
					"type": "function"
				},
				{
					"constant": true,
					"inputs": [],
					"name": "totalSupply",
					"outputs": [
						{
							"internalType": "uint256",
							"name": "",
							"type": "uint256"
						}
					],
					"payable": false,
					"stateMutability": "view",
					"type": "function"
				},
				{
					"constant": false,
					"inputs": [
						{
							"internalType": "address",
							"name": "to",
							"type": "address"
						},
						{
							"internalType": "uint256",
							"name": "value",
							"type": "uint256"
						}
					],
					"name": "transfer",
					"outputs": [
						{
							"internalType": "bool",
							"name": "",
							"type": "bool"
						}
					],
					"payable": false,
					"stateMutability": "nonpayable",
					"type": "function"
				},
				{
					"constant": false,
					"inputs": [
						{
							"internalType": "address",
							"name": "from",
							"type": "address"
						},
						{
							"internalType": "address",
							"name": "to",
							"type": "address"
						},
						{
							"internalType": "uint256",
							"name": "value",
							"type": "uint256"
						}
					],
					"name": "transferFrom",
					"outputs": [
						{
							"internalType": "bool",
							"name": "",
							"type": "bool"
						}
					],
					"payable": false,
					"stateMutability": "nonpayable",
					"type": "function"
				}
			],
			"devdoc": {
				"methods": {}
			},
			"evm": {
				"assembly": "    /* \"v2-core-master/contracts/UniswapV2Pair.sol\":290:14124  contract UniswapV2Pair is IUniswapV2Pair, UniswapV2ERC20 {... */\n  mstore(0x40, 0x80)\n    /* \"v2-core-master/contracts/UniswapV2Pair.sol\":416:487  address public  FeeResiver = 0xa66e96ccd65312c4e18C38FdFb673759BC5170D1 */\n  0x06\n  dup1\n  sload\n  not(sub(shl(0xa0, 0x01), 0x01))\n  and\n    /* \"v2-core-master/contracts/UniswapV2Pair.sol\":445:487  0xa66e96ccd65312c4e18C38FdFb673759BC5170D1 */\n  0xa66e96ccd65312c4e18c38fdfb673759bc5170d1\n    /* \"v2-core-master/contracts/UniswapV2Pair.sol\":416:487  address public  FeeResiver = 0xa66e96ccd65312c4e18C38FdFb673759BC5170D1 */\n  or\n  swap1\n  sstore\n  0x01\n    /* \"v2-core-master/contracts/UniswapV2Pair.sol\":1174:1199  uint private unlocked = 1 */\n  0x0e\n  sstore\n    /* \"v2-core-master/contracts/UniswapV2Pair.sol\":2254:2312  constructor() public {... */\n  callvalue\n    /* \"--CODEGEN--\":5:7   */\n  dup1\n  iszero\n  tag_1\n  jumpi\n    /* \"--CODEGEN--\":30:31   */\n  0x00\n    /* \"--CODEGEN--\":27:28   */\n  dup1\n    /* \"--CODEGEN--\":20:32   */\n  revert\n    /* \"--CODEGEN--\":5:7   */\ntag_1:\n  pop\n    /* \"v2-core-master/contracts/UniswapV2ERC20.sol\":1176:1271  keccak256('EIP712Domain(string name,string version,uint256 chainId,address verifyingContract)') */\n  mload(0x40)\n    /* \"v2-core-master/contracts/UniswapV2ERC20.sol\":1080:1087  chainid */\n  chainid\n  swap1\n    /* \"v2-core-master/contracts/UniswapV2ERC20.sol\":1176:1271  keccak256('EIP712Domain(string name,string version,uint256 chainId,address verifyingContract)') */\n  dup1\n  0x52\n  data_8b73c3c69bb8fe3d512ecc4cf759cc79239f7b179b0ffacaa9a75d522b39400f\n  dup3\n  codecopy\n  0x40\n  dup1\n  mload\n  swap2\n  dup3\n  swap1\n  sub\n  0x52\n  add\n  dup3\n  keccak256\n    /* \"v2-core-master/contracts/UniswapV2ERC20.sol\":1305:1309  name */\n  dup3\n  dup3\n  add\n  dup3\n  mstore\n  0x0b\n  dup4\n  mstore\n  shl(0xac, 0x045706f7353776170204c5)\n  0x20\n  swap4\n  dup5\n  add\n  mstore\n    /* \"v2-core-master/contracts/UniswapV2ERC20.sol\":1339:1349  bytes('1') */\n  dup2\n  mload\n  dup1\n  dup4\n  add\n  dup4\n  mstore\n  0x01\n  dup2\n  mstore\n  shl(0xf8, 0x31)\n  swap1\n  dup5\n  add\n  mstore\n    /* \"v2-core-master/contracts/UniswapV2ERC20.sol\":1148:1420  abi.encode(... */\n  dup2\n  mload\n  dup1\n  dup5\n  add\n  swap2\n  swap1\n  swap2\n  mstore\n    /* \"v2-core-master/contracts/UniswapV2ERC20.sol\":1289:1311  keccak256(bytes(name)) */\n  0x5db243d81ee6dc39059f55574d6be718e0d4e0640992da6200b8ba02bf956d24\n    /* \"v2-core-master/contracts/UniswapV2ERC20.sol\":1148:1420  abi.encode(... */\n  dup2\n  dup4\n  add\n  mstore\n    /* \"v2-core-master/contracts/UniswapV2ERC20.sol\":1329:1350  keccak256(bytes('1')) */\n  0xc89efdaa54c0f20c7adf612882df0950f5a951637e0307cdcb4c672f298b8bc6\n    /* \"v2-core-master/contracts/UniswapV2ERC20.sol\":1148:1420  abi.encode(... */\n  0x60\n  dup3\n  add\n  mstore\n  0x80\n  dup2\n  add\n  swap5\n  swap1\n  swap5\n  mstore\n    /* \"v2-core-master/contracts/UniswapV2ERC20.sol\":1401:1405  this */\n  address\n    /* \"v2-core-master/contracts/UniswapV2ERC20.sol\":1148:1420  abi.encode(... */\n  0xa0\n  dup1\n  dup7\n  add\n  swap2\n  swap1\n  swap2\n  mstore\n  dup2\n  mload\n    /* \"--CODEGEN--\":26:47   */\n  dup1\n  dup7\n  sub\n    /* \"--CODEGEN--\":22:54   */\n  swap1\n  swap2\n  add\n    /* \"--CODEGEN--\":6:55   */\n  dup2\n  mstore\n    /* \"v2-core-master/contracts/UniswapV2ERC20.sol\":1148:1420  abi.encode(... */\n  0xc0\n  swap1\n  swap5\n  add\n  swap1\n  mstore\n    /* \"v2-core-master/contracts/UniswapV2ERC20.sol\":1125:1430  keccak256(... */\n  dup3\n  mload\n  swap3\n  add\n  swap2\n  swap1\n  swap2\n  keccak256\n    /* \"v2-core-master/contracts/UniswapV2ERC20.sol\":1106:1122  DOMAIN_SEPARATOR */\n  0x04\n    /* \"v2-core-master/contracts/UniswapV2ERC20.sol\":1106:1430  DOMAIN_SEPARATOR = keccak256(... */\n  sstore\n  pop\n    /* \"v2-core-master/contracts/UniswapV2Pair.sol\":2285:2292  factory */\n  0x07\n    /* \"v2-core-master/contracts/UniswapV2Pair.sol\":2285:2305  factory = msg.sender */\n  dup1\n  sload\n  not(sub(shl(0xa0, 0x01), 0x01))\n  and\n    /* \"v2-core-master/contracts/UniswapV2Pair.sol\":2295:2305  msg.sender */\n  caller\n    /* \"v2-core-master/contracts/UniswapV2Pair.sol\":2285:2305  factory = msg.sender */\n  or\n  swap1\n  sstore\n    /* \"v2-core-master/contracts/UniswapV2Pair.sol\":290:14124  contract UniswapV2Pair is IUniswapV2Pair, UniswapV2ERC20 {... */\n  dataSize(sub_0)\n  dup1\n  dataOffset(sub_0)\n  0x00\n  codecopy\n  0x00\n  return\nstop\ndata_8b73c3c69bb8fe3d512ecc4cf759cc79239f7b179b0ffacaa9a75d522b39400f 454950373132446f6d61696e28737472696e67206e616d652c737472696e672076657273696f6e2c75696e7432353620636861696e49642c6164647265737320766572696679696e67436f6e747261637429\n\nsub_0: assembly {\n        /* \"v2-core-master/contracts/UniswapV2Pair.sol\":290:14124  contract UniswapV2Pair is IUniswapV2Pair, UniswapV2ERC20 {... */\n      mstore(0x40, 0x80)\n      callvalue\n        /* \"--CODEGEN--\":8:17   */\n      dup1\n        /* \"--CODEGEN--\":5:7   */\n      iszero\n      tag_1\n      jumpi\n        /* \"--CODEGEN--\":30:31   */\n      0x00\n        /* \"--CODEGEN--\":27:28   */\n      dup1\n        /* \"--CODEGEN--\":20:32   */\n      revert\n        /* \"--CODEGEN--\":5:7   */\n    tag_1:\n        /* \"v2-core-master/contracts/UniswapV2Pair.sol\":290:14124  contract UniswapV2Pair is IUniswapV2Pair, UniswapV2ERC20 {... */\n      pop\n      jumpi(tag_2, lt(calldatasize, 0x04))\n      shr(0xe0, calldataload(0x00))\n      dup1\n      0x70a08231\n      gt\n      tag_35\n      jumpi\n      dup1\n      0xba9a7a56\n      gt\n      tag_36\n      jumpi\n      dup1\n      0xd505accf\n      gt\n      tag_37\n      jumpi\n      dup1\n      0xd505accf\n      eq\n      tag_31\n      jumpi\n      dup1\n      0xdcbbb373\n      eq\n      tag_32\n      jumpi\n      dup1\n      0xdd62ed3e\n      eq\n      tag_33\n      jumpi\n      dup1\n      0xfff6cae9\n      eq\n      tag_34\n      jumpi\n      jump(tag_2)\n    tag_37:\n      dup1\n      0xba9a7a56\n      eq\n      tag_27\n      jumpi\n      dup1\n      0xbc25cf77\n      eq\n      tag_28\n      jumpi\n      dup1\n      0xc45a0155\n      eq\n      tag_29\n      jumpi\n      dup1\n      0xd21220a7\n      eq\n      tag_30\n      jumpi\n      jump(tag_2)\n    tag_36:\n      dup1\n      0x900820d8\n      gt\n      tag_38\n      jumpi\n      dup1\n      0x900820d8\n      eq\n      tag_23\n      jumpi\n      dup1\n      0x95d89b41\n      eq\n      tag_24\n      jumpi\n      dup1\n      0xa9059cbb\n      eq\n      tag_25\n      jumpi\n      dup1\n      0xb40b848e\n      eq\n      tag_26\n      jumpi\n      jump(tag_2)\n    tag_38:\n      dup1\n      0x70a08231\n      eq\n      tag_19\n      jumpi\n      dup1\n      0x7464fc3d\n      eq\n      tag_20\n      jumpi\n      dup1\n      0x7ecebe00\n      eq\n      tag_21\n      jumpi\n      dup1\n      0x89afcb44\n      eq\n      tag_22\n      jumpi\n      jump(tag_2)\n    tag_35:\n      dup1\n      0x313ce567\n      gt\n      tag_39\n      jumpi\n      dup1\n      0x5909c0d5\n      gt\n      tag_40\n      jumpi\n      dup1\n      0x5909c0d5\n      eq\n      tag_15\n      jumpi\n      dup1\n      0x5a3d5493\n      eq\n      tag_16\n      jumpi\n      dup1\n      0x6a627842\n      eq\n      tag_17\n      jumpi\n      dup1\n      0x6ebcf607\n      eq\n      tag_18\n      jumpi\n      jump(tag_2)\n    tag_40:\n      dup1\n      0x313ce567\n      eq\n      tag_11\n      jumpi\n      dup1\n      0x3644e515\n      eq\n      tag_12\n      jumpi\n      dup1\n      0x47d5d856\n      eq\n      tag_13\n      jumpi\n      dup1\n      0x485cc955\n      eq\n      tag_14\n      jumpi\n      jump(tag_2)\n    tag_39:\n      dup1\n      0x0dfe1681\n      gt\n      tag_41\n      jumpi\n      dup1\n      0x0dfe1681\n      eq\n      tag_7\n      jumpi\n      dup1\n      0x18160ddd\n      eq\n      tag_8\n      jumpi\n      dup1\n      0x23b872dd\n      eq\n      tag_9\n      jumpi\n      dup1\n      0x30adf81f\n      eq\n      tag_10\n      jumpi\n      jump(tag_2)\n    tag_41:\n      dup1\n      0x022c0d9f\n      eq\n      tag_3\n      jumpi\n      dup1\n      0x06fdde03\n      eq\n      tag_4\n      jumpi\n      dup1\n      0x0902f1ac\n      eq\n      tag_5\n      jumpi\n      dup1\n      0x095ea7b3\n      eq\n      tag_6\n      jumpi\n    tag_2:\n      0x00\n      dup1\n      revert\n        /* \"v2-core-master/contracts/UniswapV2Pair.sol\":8726:10704  function swap(uint amount0Out, uint amount1Out, address to, bytes calldata data) external lock {... */\n    tag_3:\n      tag_42\n      0x04\n      dup1\n      calldatasize\n      sub\n        /* \"--CODEGEN--\":13:16   */\n      0x80\n        /* \"--CODEGEN--\":8:11   */\n      dup2\n        /* \"--CODEGEN--\":5:17   */\n      lt\n        /* \"--CODEGEN--\":2:4   */\n      iszero\n      tag_43\n      jumpi\n        /* \"--CODEGEN--\":30:31   */\n      0x00\n        /* \"--CODEGEN--\":27:28   */\n      dup1\n        /* \"--CODEGEN--\":20:32   */\n      revert\n        /* \"--CODEGEN--\":2:4   */\n    tag_43:\n        /* \"v2-core-master/contracts/UniswapV2Pair.sol\":8726:10704  function swap(uint amount0Out, uint amount1Out, address to, bytes calldata data) external lock {... */\n      dup2\n      calldataload\n      swap2\n      0x20\n      dup2\n      add\n      calldataload\n      swap2\n      sub(shl(0xa0, 0x01), 0x01)\n      0x40\n      dup4\n      add\n      calldataload\n      and\n      swap2\n      swap1\n      dup2\n      add\n      swap1\n      0x80\n      dup2\n      add\n      0x60\n      dup3\n      add\n      calldataload\n        /* \"--CODEGEN--\":21:32   */\n      0x0100000000\n        /* \"--CODEGEN--\":5:33   */\n      dup2\n      gt\n        /* \"--CODEGEN--\":2:4   */\n      iszero\n      tag_44\n      jumpi\n        /* \"--CODEGEN--\":46:47   */\n      0x00\n        /* \"--CODEGEN--\":43:44   */\n      dup1\n        /* \"--CODEGEN--\":36:48   */\n      revert\n        /* \"--CODEGEN--\":2:4   */\n    tag_44:\n        /* \"v2-core-master/contracts/UniswapV2Pair.sol\":8726:10704  function swap(uint amount0Out, uint amount1Out, address to, bytes calldata data) external lock {... */\n      dup3\n      add\n        /* \"--CODEGEN--\":35:44   */\n      dup4\n        /* \"--CODEGEN--\":28:32   */\n      0x20\n        /* \"--CODEGEN--\":12:26   */\n      dup3\n        /* \"--CODEGEN--\":8:33   */\n      add\n        /* \"--CODEGEN--\":5:45   */\n      gt\n        /* \"--CODEGEN--\":2:4   */\n      iszero\n      tag_45\n      jumpi\n        /* \"--CODEGEN--\":58:59   */\n      0x00\n        /* \"--CODEGEN--\":55:56   */\n      dup1\n        /* \"--CODEGEN--\":48:60   */\n      revert\n        /* \"--CODEGEN--\":2:4   */\n    tag_45:\n        /* \"v2-core-master/contracts/UniswapV2Pair.sol\":8726:10704  function swap(uint amount0Out, uint amount1Out, address to, bytes calldata data) external lock {... */\n      dup1\n      calldataload\n      swap1\n      0x20\n      add\n      swap2\n        /* \"--CODEGEN--\":100:109   */\n      dup5\n        /* \"--CODEGEN--\":95:96   */\n      0x01\n        /* \"--CODEGEN--\":81:93   */\n      dup4\n        /* \"--CODEGEN--\":77:97   */\n      mul\n        /* \"--CODEGEN--\":67:75   */\n      dup5\n        /* \"--CODEGEN--\":63:98   */\n      add\n        /* \"--CODEGEN--\":60:110   */\n      gt\n        /* \"--CODEGEN--\":39:50   */\n      0x0100000000\n        /* \"--CODEGEN--\":25:37   */\n      dup4\n        /* \"--CODEGEN--\":22:51   */\n      gt\n        /* \"--CODEGEN--\":11:118   */\n      or\n        /* \"--CODEGEN--\":8:10   */\n      iszero\n      tag_46\n      jumpi\n        /* \"--CODEGEN--\":131:132   */\n      0x00\n        /* \"--CODEGEN--\":128:129   */\n      dup1\n        /* \"--CODEGEN--\":121:133   */\n      revert\n        /* \"--CODEGEN--\":8:10   */\n    tag_46:\n      pop\n        /* \"v2-core-master/contracts/UniswapV2Pair.sol\":8726:10704  function swap(uint amount0Out, uint amount1Out, address to, bytes calldata data) external lock {... */\n      swap1\n      swap3\n      pop\n      swap1\n      pop\n      tag_47\n      jump\t// in\n    tag_42:\n      stop\n        /* \"v2-core-master/contracts/UniswapV2ERC20.sol\":192:235  string public constant name = 'EposSwap LP' */\n    tag_4:\n      tag_48\n      tag_49\n      jump\t// in\n    tag_48:\n      0x40\n      dup1\n      mload\n      0x20\n      dup1\n      dup3\n      mstore\n      dup4\n      mload\n      dup2\n      dup4\n      add\n      mstore\n      dup4\n      mload\n      swap2\n      swap3\n      dup4\n      swap3\n      swap1\n      dup4\n      add\n      swap2\n      dup6\n      add\n      swap1\n      dup1\n      dup4\n      dup4\n      0x00\n        /* \"--CODEGEN--\":8:108   */\n    tag_50:\n        /* \"--CODEGEN--\":33:36   */\n      dup4\n        /* \"--CODEGEN--\":30:31   */\n      dup2\n        /* \"--CODEGEN--\":27:37   */\n      lt\n        /* \"--CODEGEN--\":8:108   */\n      iszero\n      tag_52\n      jumpi\n        /* \"--CODEGEN--\":90:101   */\n      dup2\n      dup2\n      add\n        /* \"--CODEGEN--\":84:102   */\n      mload\n        /* \"--CODEGEN--\":71:82   */\n      dup4\n      dup3\n      add\n        /* \"--CODEGEN--\":64:103   */\n      mstore\n        /* \"--CODEGEN--\":52:54   */\n      0x20\n        /* \"--CODEGEN--\":45:55   */\n      add\n        /* \"--CODEGEN--\":8:108   */\n      jump(tag_50)\n    tag_52:\n        /* \"--CODEGEN--\":12:26   */\n      pop\n        /* \"v2-core-master/contracts/UniswapV2ERC20.sol\":192:235  string public constant name = 'EposSwap LP' */\n      pop\n      pop\n      pop\n      swap1\n      pop\n      swap1\n      dup2\n      add\n      swap1\n      0x1f\n      and\n      dup1\n      iszero\n      tag_53\n      jumpi\n      dup1\n      dup3\n      sub\n      dup1\n      mload\n      0x01\n      dup4\n      0x20\n      sub\n      0x0100\n      exp\n      sub\n      not\n      and\n      dup2\n      mstore\n      0x20\n      add\n      swap2\n      pop\n    tag_53:\n      pop\n      swap3\n      pop\n      pop\n      pop\n      mload(0x40)\n      dup1\n      swap2\n      sub\n      swap1\n      return\n        /* \"v2-core-master/contracts/UniswapV2Pair.sol\":1342:1569  function getReserves() public view returns (uint112 _reserve0, uint112 _reserve1, uint32 _blockTimestampLast) {... */\n    tag_5:\n      tag_54\n      tag_55\n      jump\t// in\n    tag_54:\n      0x40\n      dup1\n      mload\n      sub(shl(0x70, 0x01), 0x01)\n      swap5\n      dup6\n      and\n      dup2\n      mstore\n      swap3\n      swap1\n      swap4\n      and\n      0x20\n      dup4\n      add\n      mstore\n      0xffffffff\n      and\n      dup2\n      dup4\n      add\n      mstore\n      swap1\n      mload\n      swap1\n      dup2\n      swap1\n      sub\n      0x60\n      add\n      swap1\n      return\n        /* \"v2-core-master/contracts/UniswapV2ERC20.sol\":2860:3004  function approve(address spender, uint value) external returns (bool) {... */\n    tag_6:\n      tag_56\n      0x04\n      dup1\n      calldatasize\n      sub\n        /* \"--CODEGEN--\":13:15   */\n      0x40\n        /* \"--CODEGEN--\":8:11   */\n      dup2\n        /* \"--CODEGEN--\":5:16   */\n      lt\n        /* \"--CODEGEN--\":2:4   */\n      iszero\n      tag_57\n      jumpi\n        /* \"--CODEGEN--\":29:30   */\n      0x00\n        /* \"--CODEGEN--\":26:27   */\n      dup1\n        /* \"--CODEGEN--\":19:31   */\n      revert\n        /* \"--CODEGEN--\":2:4   */\n    tag_57:\n      pop\n      sub(shl(0xa0, 0x01), 0x01)\n        /* \"v2-core-master/contracts/UniswapV2ERC20.sol\":2860:3004  function approve(address spender, uint value) external returns (bool) {... */\n      dup2\n      calldataload\n      and\n      swap1\n      0x20\n      add\n      calldataload\n      tag_58\n      jump\t// in\n    tag_56:\n      0x40\n      dup1\n      mload\n      swap2\n      iszero\n      iszero\n      dup3\n      mstore\n      mload\n      swap1\n      dup2\n      swap1\n      sub\n      0x20\n      add\n      swap1\n      return\n        /* \"v2-core-master/contracts/UniswapV2Pair.sol\":671:692  address public token0 */\n    tag_7:\n      tag_59\n      tag_60\n      jump\t// in\n    tag_59:\n      0x40\n      dup1\n      mload\n      sub(shl(0xa0, 0x01), 0x01)\n      swap1\n      swap3\n      and\n      dup3\n      mstore\n      mload\n      swap1\n      dup2\n      swap1\n      sub\n      0x20\n      add\n      swap1\n      return\n        /* \"v2-core-master/contracts/UniswapV2ERC20.sol\":327:350  uint public totalSupply */\n    tag_8:\n      tag_61\n      tag_62\n      jump\t// in\n    tag_61:\n      0x40\n      dup1\n      mload\n      swap2\n      dup3\n      mstore\n      mload\n      swap1\n      dup2\n      swap1\n      sub\n      0x20\n      add\n      swap1\n      return\n        /* \"v2-core-master/contracts/UniswapV2ERC20.sol\":3152:3447  function transferFrom(address from, address to, uint value) external returns (bool) {... */\n    tag_9:\n      tag_56\n      0x04\n      dup1\n      calldatasize\n      sub\n        /* \"--CODEGEN--\":13:15   */\n      0x60\n        /* \"--CODEGEN--\":8:11   */\n      dup2\n        /* \"--CODEGEN--\":5:16   */\n      lt\n        /* \"--CODEGEN--\":2:4   */\n      iszero\n      tag_64\n      jumpi\n        /* \"--CODEGEN--\":29:30   */\n      0x00\n        /* \"--CODEGEN--\":26:27   */\n      dup1\n        /* \"--CODEGEN--\":19:31   */\n      revert\n        /* \"--CODEGEN--\":2:4   */\n    tag_64:\n      pop\n      sub(shl(0xa0, 0x01), 0x01)\n        /* \"v2-core-master/contracts/UniswapV2ERC20.sol\":3152:3447  function transferFrom(address from, address to, uint value) external returns (bool) {... */\n      dup2\n      calldataload\n      dup2\n      and\n      swap2\n      0x20\n      dup2\n      add\n      calldataload\n      swap1\n      swap2\n      and\n      swap1\n      0x40\n      add\n      calldataload\n      tag_65\n      jump\t// in\n        /* \"v2-core-master/contracts/UniswapV2ERC20.sol\":679:787  bytes32 public constant PERMIT_TYPEHASH = 0x6e71edae12b1b97f4d1f60370fef10105fa2faae0126114a169c64845d6126c9 */\n    tag_10:\n      tag_61\n      tag_67\n      jump\t// in\n        /* \"v2-core-master/contracts/UniswapV2ERC20.sol\":286:321  uint8 public constant decimals = 18 */\n    tag_11:\n      tag_68\n      tag_69\n      jump\t// in\n    tag_68:\n      0x40\n      dup1\n      mload\n      0xff\n      swap1\n      swap3\n      and\n      dup3\n      mstore\n      mload\n      swap1\n      dup2\n      swap1\n      sub\n      0x20\n      add\n      swap1\n      return\n        /* \"v2-core-master/contracts/UniswapV2ERC20.sol\":538:569  bytes32 public DOMAIN_SEPARATOR */\n    tag_12:\n      tag_61\n      tag_71\n      jump\t// in\n        /* \"v2-core-master/contracts/UniswapV2ERC20.sol\":482:531  mapping(address => uint256) public _frozenBalance */\n    tag_13:\n      tag_61\n      0x04\n      dup1\n      calldatasize\n      sub\n        /* \"--CODEGEN--\":13:15   */\n      0x20\n        /* \"--CODEGEN--\":8:11   */\n      dup2\n        /* \"--CODEGEN--\":5:16   */\n      lt\n        /* \"--CODEGEN--\":2:4   */\n      iszero\n      tag_73\n      jumpi\n        /* \"--CODEGEN--\":29:30   */\n      0x00\n        /* \"--CODEGEN--\":26:27   */\n      dup1\n        /* \"--CODEGEN--\":19:31   */\n      revert\n        /* \"--CODEGEN--\":2:4   */\n    tag_73:\n      pop\n        /* \"v2-core-master/contracts/UniswapV2ERC20.sol\":482:531  mapping(address => uint256) public _frozenBalance */\n      calldataload\n      sub(shl(0xa0, 0x01), 0x01)\n      and\n      tag_74\n      jump\t// in\n        /* \"v2-core-master/contracts/UniswapV2Pair.sol\":2374:2580  function initialize(address _token0, address _token1) external {... */\n    tag_14:\n      tag_42\n      0x04\n      dup1\n      calldatasize\n      sub\n        /* \"--CODEGEN--\":13:15   */\n      0x40\n        /* \"--CODEGEN--\":8:11   */\n      dup2\n        /* \"--CODEGEN--\":5:16   */\n      lt\n        /* \"--CODEGEN--\":2:4   */\n      iszero\n      tag_76\n      jumpi\n        /* \"--CODEGEN--\":29:30   */\n      0x00\n        /* \"--CODEGEN--\":26:27   */\n      dup1\n        /* \"--CODEGEN--\":19:31   */\n      revert\n        /* \"--CODEGEN--\":2:4   */\n    tag_76:\n      pop\n      sub(shl(0xa0, 0x01), 0x01)\n        /* \"v2-core-master/contracts/UniswapV2Pair.sol\":2374:2580  function initialize(address _token0, address _token1) external {... */\n      dup2\n      calldataload\n      dup2\n      and\n      swap2\n      0x20\n      add\n      calldataload\n      and\n      tag_77\n      jump\t// in\n        /* \"v2-core-master/contracts/UniswapV2Pair.sol\":994:1026  uint public price0CumulativeLast */\n    tag_15:\n      tag_61\n      tag_79\n      jump\t// in\n        /* \"v2-core-master/contracts/UniswapV2Pair.sol\":1032:1064  uint public price1CumulativeLast */\n    tag_16:\n      tag_61\n      tag_81\n      jump\t// in\n        /* \"v2-core-master/contracts/UniswapV2Pair.sol\":4526:5747  function mint(address to) external lock returns (uint liquidity) {... */\n    tag_17:\n      tag_61\n      0x04\n      dup1\n      calldatasize\n      sub\n        /* \"--CODEGEN--\":13:15   */\n      0x20\n        /* \"--CODEGEN--\":8:11   */\n      dup2\n        /* \"--CODEGEN--\":5:16   */\n      lt\n        /* \"--CODEGEN--\":2:4   */\n      iszero\n      tag_83\n      jumpi\n        /* \"--CODEGEN--\":29:30   */\n      0x00\n        /* \"--CODEGEN--\":26:27   */\n      dup1\n        /* \"--CODEGEN--\":19:31   */\n      revert\n        /* \"--CODEGEN--\":2:4   */\n    tag_83:\n      pop\n        /* \"v2-core-master/contracts/UniswapV2Pair.sol\":4526:5747  function mint(address to) external lock returns (uint liquidity) {... */\n      calldataload\n      sub(shl(0xa0, 0x01), 0x01)\n      and\n      tag_84\n      jump\t// in\n        /* \"v2-core-master/contracts/UniswapV2ERC20.sol\":356:397  mapping(address => uint) public _balances */\n    tag_18:\n      tag_61\n      0x04\n      dup1\n      calldatasize\n      sub\n        /* \"--CODEGEN--\":13:15   */\n      0x20\n        /* \"--CODEGEN--\":8:11   */\n      dup2\n        /* \"--CODEGEN--\":5:16   */\n      lt\n        /* \"--CODEGEN--\":2:4   */\n      iszero\n      tag_86\n      jumpi\n        /* \"--CODEGEN--\":29:30   */\n      0x00\n        /* \"--CODEGEN--\":26:27   */\n      dup1\n        /* \"--CODEGEN--\":19:31   */\n      revert\n        /* \"--CODEGEN--\":2:4   */\n    tag_86:\n      pop\n        /* \"v2-core-master/contracts/UniswapV2ERC20.sol\":356:397  mapping(address => uint) public _balances */\n      calldataload\n      sub(shl(0xa0, 0x01), 0x01)\n      and\n      tag_87\n      jump\t// in\n        /* \"v2-core-master/contracts/UniswapV2ERC20.sol\":1447:1580  function balanceOf(address account) external view   returns (uint256) {... */\n    tag_19:\n      tag_61\n      0x04\n      dup1\n      calldatasize\n      sub\n        /* \"--CODEGEN--\":13:15   */\n      0x20\n        /* \"--CODEGEN--\":8:11   */\n      dup2\n        /* \"--CODEGEN--\":5:16   */\n      lt\n        /* \"--CODEGEN--\":2:4   */\n      iszero\n      tag_89\n      jumpi\n        /* \"--CODEGEN--\":29:30   */\n      0x00\n        /* \"--CODEGEN--\":26:27   */\n      dup1\n        /* \"--CODEGEN--\":19:31   */\n      revert\n        /* \"--CODEGEN--\":2:4   */\n    tag_89:\n      pop\n        /* \"v2-core-master/contracts/UniswapV2ERC20.sol\":1447:1580  function balanceOf(address account) external view   returns (uint256) {... */\n      calldataload\n      sub(shl(0xa0, 0x01), 0x01)\n      and\n      tag_90\n      jump\t// in\n        /* \"v2-core-master/contracts/UniswapV2Pair.sol\":1070:1087  uint public kLast */\n    tag_20:\n      tag_61\n      tag_92\n      jump\t// in\n        /* \"v2-core-master/contracts/UniswapV2ERC20.sol\":793:831  mapping(address => uint) public nonces */\n    tag_21:\n      tag_61\n      0x04\n      dup1\n      calldatasize\n      sub\n        /* \"--CODEGEN--\":13:15   */\n      0x20\n        /* \"--CODEGEN--\":8:11   */\n      dup2\n        /* \"--CODEGEN--\":5:16   */\n      lt\n        /* \"--CODEGEN--\":2:4   */\n      iszero\n      tag_94\n      jumpi\n        /* \"--CODEGEN--\":29:30   */\n      0x00\n        /* \"--CODEGEN--\":26:27   */\n      dup1\n        /* \"--CODEGEN--\":19:31   */\n      revert\n        /* \"--CODEGEN--\":2:4   */\n    tag_94:\n      pop\n        /* \"v2-core-master/contracts/UniswapV2ERC20.sol\":793:831  mapping(address => uint) public nonces */\n      calldataload\n      sub(shl(0xa0, 0x01), 0x01)\n      and\n      tag_95\n      jump\t// in\n        /* \"v2-core-master/contracts/UniswapV2Pair.sol\":7200:8611  function burn(address to) external lock returns (uint amount0, uint amount1) {... */\n    tag_22:\n      tag_96\n      0x04\n      dup1\n      calldatasize\n      sub\n        /* \"--CODEGEN--\":13:15   */\n      0x20\n        /* \"--CODEGEN--\":8:11   */\n      dup2\n        /* \"--CODEGEN--\":5:16   */\n      lt\n        /* \"--CODEGEN--\":2:4   */\n      iszero\n      tag_97\n      jumpi\n        /* \"--CODEGEN--\":29:30   */\n      0x00\n        /* \"--CODEGEN--\":26:27   */\n      dup1\n        /* \"--CODEGEN--\":19:31   */\n      revert\n        /* \"--CODEGEN--\":2:4   */\n    tag_97:\n      pop\n        /* \"v2-core-master/contracts/UniswapV2Pair.sol\":7200:8611  function burn(address to) external lock returns (uint amount0, uint amount1) {... */\n      calldataload\n      sub(shl(0xa0, 0x01), 0x01)\n      and\n      tag_98\n      jump\t// in\n    tag_96:\n      0x40\n      dup1\n      mload\n      swap3\n      dup4\n      mstore\n      0x20\n      dup4\n      add\n      swap2\n      swap1\n      swap2\n      mstore\n      dup1\n      mload\n      swap2\n      dup3\n      swap1\n      sub\n      add\n      swap1\n      return\n        /* \"v2-core-master/contracts/UniswapV2Pair.sol\":416:487  address public  FeeResiver = 0xa66e96ccd65312c4e18C38FdFb673759BC5170D1 */\n    tag_23:\n      tag_59\n      tag_100\n      jump\t// in\n        /* \"v2-core-master/contracts/UniswapV2ERC20.sol\":241:280  string public constant symbol = 'ESWAP' */\n    tag_24:\n      tag_48\n      tag_102\n      jump\t// in\n        /* \"v2-core-master/contracts/UniswapV2ERC20.sol\":3010:3146  function transfer(address to, uint value) external returns (bool) {... */\n    tag_25:\n      tag_56\n      0x04\n      dup1\n      calldatasize\n      sub\n        /* \"--CODEGEN--\":13:15   */\n      0x40\n        /* \"--CODEGEN--\":8:11   */\n      dup2\n        /* \"--CODEGEN--\":5:16   */\n      lt\n        /* \"--CODEGEN--\":2:4   */\n      iszero\n      tag_108\n      jumpi\n        /* \"--CODEGEN--\":29:30   */\n      0x00\n        /* \"--CODEGEN--\":26:27   */\n      dup1\n        /* \"--CODEGEN--\":19:31   */\n      revert\n        /* \"--CODEGEN--\":2:4   */\n    tag_108:\n      pop\n      sub(shl(0xa0, 0x01), 0x01)\n        /* \"v2-core-master/contracts/UniswapV2ERC20.sol\":3010:3146  function transfer(address to, uint value) external returns (bool) {... */\n      dup2\n      calldataload\n      and\n      swap1\n      0x20\n      add\n      calldataload\n      tag_109\n      jump\t// in\n        /* \"v2-core-master/contracts/UniswapV2Pair.sol\":10826:13529  function swaptax(uint amount0Out, uint amount1Out, address to, bytes calldata data) external lock {... */\n    tag_26:\n      tag_42\n      0x04\n      dup1\n      calldatasize\n      sub\n        /* \"--CODEGEN--\":13:16   */\n      0x80\n        /* \"--CODEGEN--\":8:11   */\n      dup2\n        /* \"--CODEGEN--\":5:17   */\n      lt\n        /* \"--CODEGEN--\":2:4   */\n      iszero\n      tag_111\n      jumpi\n        /* \"--CODEGEN--\":30:31   */\n      0x00\n        /* \"--CODEGEN--\":27:28   */\n      dup1\n        /* \"--CODEGEN--\":20:32   */\n      revert\n        /* \"--CODEGEN--\":2:4   */\n    tag_111:\n        /* \"v2-core-master/contracts/UniswapV2Pair.sol\":10826:13529  function swaptax(uint amount0Out, uint amount1Out, address to, bytes calldata data) external lock {... */\n      dup2\n      calldataload\n      swap2\n      0x20\n      dup2\n      add\n      calldataload\n      swap2\n      sub(shl(0xa0, 0x01), 0x01)\n      0x40\n      dup4\n      add\n      calldataload\n      and\n      swap2\n      swap1\n      dup2\n      add\n      swap1\n      0x80\n      dup2\n      add\n      0x60\n      dup3\n      add\n      calldataload\n        /* \"--CODEGEN--\":21:32   */\n      0x0100000000\n        /* \"--CODEGEN--\":5:33   */\n      dup2\n      gt\n        /* \"--CODEGEN--\":2:4   */\n      iszero\n      tag_112\n      jumpi\n        /* \"--CODEGEN--\":46:47   */\n      0x00\n        /* \"--CODEGEN--\":43:44   */\n      dup1\n        /* \"--CODEGEN--\":36:48   */\n      revert\n        /* \"--CODEGEN--\":2:4   */\n    tag_112:\n        /* \"v2-core-master/contracts/UniswapV2Pair.sol\":10826:13529  function swaptax(uint amount0Out, uint amount1Out, address to, bytes calldata data) external lock {... */\n      dup3\n      add\n        /* \"--CODEGEN--\":35:44   */\n      dup4\n        /* \"--CODEGEN--\":28:32   */\n      0x20\n        /* \"--CODEGEN--\":12:26   */\n      dup3\n        /* \"--CODEGEN--\":8:33   */\n      add\n        /* \"--CODEGEN--\":5:45   */\n      gt\n        /* \"--CODEGEN--\":2:4   */\n      iszero\n      tag_113\n      jumpi\n        /* \"--CODEGEN--\":58:59   */\n      0x00\n        /* \"--CODEGEN--\":55:56   */\n      dup1\n        /* \"--CODEGEN--\":48:60   */\n      revert\n        /* \"--CODEGEN--\":2:4   */\n    tag_113:\n        /* \"v2-core-master/contracts/UniswapV2Pair.sol\":10826:13529  function swaptax(uint amount0Out, uint amount1Out, address to, bytes calldata data) external lock {... */\n      dup1\n      calldataload\n      swap1\n      0x20\n      add\n      swap2\n        /* \"--CODEGEN--\":100:109   */\n      dup5\n        /* \"--CODEGEN--\":95:96   */\n      0x01\n        /* \"--CODEGEN--\":81:93   */\n      dup4\n        /* \"--CODEGEN--\":77:97   */\n      mul\n        /* \"--CODEGEN--\":67:75   */\n      dup5\n        /* \"--CODEGEN--\":63:98   */\n      add\n        /* \"--CODEGEN--\":60:110   */\n      gt\n        /* \"--CODEGEN--\":39:50   */\n      0x0100000000\n        /* \"--CODEGEN--\":25:37   */\n      dup4\n        /* \"--CODEGEN--\":22:51   */\n      gt\n        /* \"--CODEGEN--\":11:118   */\n      or\n        /* \"--CODEGEN--\":8:10   */\n      iszero\n      tag_114\n      jumpi\n        /* \"--CODEGEN--\":131:132   */\n      0x00\n        /* \"--CODEGEN--\":128:129   */\n      dup1\n        /* \"--CODEGEN--\":121:133   */\n      revert\n        /* \"--CODEGEN--\":8:10   */\n    tag_114:\n      pop\n        /* \"v2-core-master/contracts/UniswapV2Pair.sol\":10826:13529  function swaptax(uint amount0Out, uint amount1Out, address to, bytes calldata data) external lock {... */\n      swap1\n      swap3\n      pop\n      swap1\n      pop\n      tag_115\n      jump\t// in\n        /* \"v2-core-master/contracts/UniswapV2Pair.sol\":494:542  uint public constant MINIMUM_LIQUIDITY = 10 ** 3 */\n    tag_27:\n      tag_61\n      tag_117\n      jump\t// in\n        /* \"v2-core-master/contracts/UniswapV2Pair.sol\":13591:13920  function skim(address to) external lock {... */\n    tag_28:\n      tag_42\n      0x04\n      dup1\n      calldatasize\n      sub\n        /* \"--CODEGEN--\":13:15   */\n      0x20\n        /* \"--CODEGEN--\":8:11   */\n      dup2\n        /* \"--CODEGEN--\":5:16   */\n      lt\n        /* \"--CODEGEN--\":2:4   */\n      iszero\n      tag_119\n      jumpi\n        /* \"--CODEGEN--\":29:30   */\n      0x00\n        /* \"--CODEGEN--\":26:27   */\n      dup1\n        /* \"--CODEGEN--\":19:31   */\n      revert\n        /* \"--CODEGEN--\":2:4   */\n    tag_119:\n      pop\n        /* \"v2-core-master/contracts/UniswapV2Pair.sol\":13591:13920  function skim(address to) external lock {... */\n      calldataload\n      sub(shl(0xa0, 0x01), 0x01)\n      and\n      tag_120\n      jump\t// in\n        /* \"v2-core-master/contracts/UniswapV2Pair.sol\":643:665  address public factory */\n    tag_29:\n      tag_59\n      tag_122\n      jump\t// in\n        /* \"v2-core-master/contracts/UniswapV2Pair.sol\":698:719  address public token1 */\n    tag_30:\n      tag_59\n      tag_124\n      jump\t// in\n        /* \"v2-core-master/contracts/UniswapV2ERC20.sol\":3453:4115  function permit(address owner, address spender, uint value, uint deadline, uint8 v, bytes32 r, bytes32 s) external {... */\n    tag_31:\n      tag_42\n      0x04\n      dup1\n      calldatasize\n      sub\n        /* \"--CODEGEN--\":13:16   */\n      0xe0\n        /* \"--CODEGEN--\":8:11   */\n      dup2\n        /* \"--CODEGEN--\":5:17   */\n      lt\n        /* \"--CODEGEN--\":2:4   */\n      iszero\n      tag_126\n      jumpi\n        /* \"--CODEGEN--\":30:31   */\n      0x00\n        /* \"--CODEGEN--\":27:28   */\n      dup1\n        /* \"--CODEGEN--\":20:32   */\n      revert\n        /* \"--CODEGEN--\":2:4   */\n    tag_126:\n      pop\n      sub(shl(0xa0, 0x01), 0x01)\n        /* \"v2-core-master/contracts/UniswapV2ERC20.sol\":3453:4115  function permit(address owner, address spender, uint value, uint deadline, uint8 v, bytes32 r, bytes32 s) external {... */\n      dup2\n      calldataload\n      dup2\n      and\n      swap2\n      0x20\n      dup2\n      add\n      calldataload\n      swap1\n      swap2\n      and\n      swap1\n      0x40\n      dup2\n      add\n      calldataload\n      swap1\n      0x60\n      dup2\n      add\n      calldataload\n      swap1\n      0xff\n      0x80\n      dup3\n      add\n      calldataload\n      and\n      swap1\n      0xa0\n      dup2\n      add\n      calldataload\n      swap1\n      0xc0\n      add\n      calldataload\n      tag_127\n      jump\t// in\n        /* \"v2-core-master/contracts/UniswapV2Pair.sol\":5856:7091  function Lockmint(address to) external lock returns (uint liquidity) {... */\n    tag_32:\n      tag_61\n      0x04\n      dup1\n      calldatasize\n      sub\n        /* \"--CODEGEN--\":13:15   */\n      0x20\n        /* \"--CODEGEN--\":8:11   */\n      dup2\n        /* \"--CODEGEN--\":5:16   */\n      lt\n        /* \"--CODEGEN--\":2:4   */\n      iszero\n      tag_129\n      jumpi\n        /* \"--CODEGEN--\":29:30   */\n      0x00\n        /* \"--CODEGEN--\":26:27   */\n      dup1\n        /* \"--CODEGEN--\":19:31   */\n      revert\n        /* \"--CODEGEN--\":2:4   */\n    tag_129:\n      pop\n        /* \"v2-core-master/contracts/UniswapV2Pair.sol\":5856:7091  function Lockmint(address to) external lock returns (uint liquidity) {... */\n      calldataload\n      sub(shl(0xa0, 0x01), 0x01)\n      and\n      tag_130\n      jump\t// in\n        /* \"v2-core-master/contracts/UniswapV2ERC20.sol\":415:476  mapping(address => mapping(address => uint)) public allowance */\n    tag_33:\n      tag_61\n      0x04\n      dup1\n      calldatasize\n      sub\n        /* \"--CODEGEN--\":13:15   */\n      0x40\n        /* \"--CODEGEN--\":8:11   */\n      dup2\n        /* \"--CODEGEN--\":5:16   */\n      lt\n        /* \"--CODEGEN--\":2:4   */\n      iszero\n      tag_132\n      jumpi\n        /* \"--CODEGEN--\":29:30   */\n      0x00\n        /* \"--CODEGEN--\":26:27   */\n      dup1\n        /* \"--CODEGEN--\":19:31   */\n      revert\n        /* \"--CODEGEN--\":2:4   */\n    tag_132:\n      pop\n      sub(shl(0xa0, 0x01), 0x01)\n        /* \"v2-core-master/contracts/UniswapV2ERC20.sol\":415:476  mapping(address => mapping(address => uint)) public allowance */\n      dup2\n      calldataload\n      dup2\n      and\n      swap2\n      0x20\n      add\n      calldataload\n      and\n      tag_133\n      jump\t// in\n        /* \"v2-core-master/contracts/UniswapV2Pair.sol\":13966:14122  function sync() external lock {... */\n    tag_34:\n      tag_42\n      tag_135\n      jump\t// in\n        /* \"v2-core-master/contracts/UniswapV2Pair.sol\":8726:10704  function swap(uint amount0Out, uint amount1Out, address to, bytes calldata data) external lock {... */\n    tag_47:\n        /* \"v2-core-master/contracts/UniswapV2Pair.sol\":1239:1247  unlocked */\n      sload(0x0e)\n        /* \"v2-core-master/contracts/UniswapV2Pair.sol\":1251:1252  1 */\n      0x01\n        /* \"v2-core-master/contracts/UniswapV2Pair.sol\":1239:1252  unlocked == 1 */\n      eq\n        /* \"v2-core-master/contracts/UniswapV2Pair.sol\":1231:1274  require(unlocked == 1, 'UniswapV2: LOCKED') */\n      tag_137\n      jumpi\n      0x40\n      dup1\n      mload\n      shl(0xe5, 0x461bcd)\n      dup2\n      mstore\n      0x20\n      0x04\n      dup3\n      add\n      mstore\n      0x11\n      0x24\n      dup3\n      add\n      mstore\n      shl(0x7a, 0x155b9a5cddd85c158c8e881313d0d2d151)\n      0x44\n      dup3\n      add\n      mstore\n      swap1\n      mload\n      swap1\n      dup2\n      swap1\n      sub\n      0x64\n      add\n      swap1\n      revert\n    tag_137:\n        /* \"v2-core-master/contracts/UniswapV2Pair.sol\":1295:1296  0 */\n      0x00\n        /* \"v2-core-master/contracts/UniswapV2Pair.sol\":1284:1292  unlocked */\n      0x0e\n        /* \"v2-core-master/contracts/UniswapV2Pair.sol\":1284:1296  unlocked = 0 */\n      sstore\n        /* \"v2-core-master/contracts/UniswapV2Pair.sol\":8839:8853  amount0Out > 0 */\n      dup5\n      iszero\n      iszero\n      dup1\n        /* \"v2-core-master/contracts/UniswapV2Pair.sol\":8839:8871  amount0Out > 0 || amount1Out > 0 */\n      tag_139\n      jumpi\n      pop\n        /* \"v2-core-master/contracts/UniswapV2Pair.sol\":8870:8871  0 */\n      0x00\n        /* \"v2-core-master/contracts/UniswapV2Pair.sol\":8857:8867  amount1Out */\n      dup5\n        /* \"v2-core-master/contracts/UniswapV2Pair.sol\":8857:8871  amount1Out > 0 */\n      gt\n        /* \"v2-core-master/contracts/UniswapV2Pair.sol\":8839:8871  amount0Out > 0 || amount1Out > 0 */\n    tag_139:\n        /* \"v2-core-master/contracts/UniswapV2Pair.sol\":8831:8913  require(amount0Out > 0 || amount1Out > 0, 'UniswapV2: INSUFFICIENT_OUTPUT_AMOUNT') */\n      tag_140\n      jumpi\n      mload(0x40)\n      shl(0xe5, 0x461bcd)\n      dup2\n      mstore\n      0x04\n      add\n      dup1\n      dup1\n      0x20\n      add\n      dup3\n      dup2\n      sub\n      dup3\n      mstore\n      0x25\n      dup2\n      mstore\n      0x20\n      add\n      dup1\n      data_05339493da7e2cbe77e17beadf6b91132eb307939495f5f1797bf88d95539e83\n      0x25\n      swap2\n      codecopy\n      0x40\n      add\n      swap2\n      pop\n      pop\n      mload(0x40)\n      dup1\n      swap2\n      sub\n      swap1\n      revert\n    tag_140:\n        /* \"v2-core-master/contracts/UniswapV2Pair.sol\":8924:8941  uint112 _reserve0 */\n      0x00\n        /* \"v2-core-master/contracts/UniswapV2Pair.sol\":8943:8960  uint112 _reserve1 */\n      dup1\n        /* \"v2-core-master/contracts/UniswapV2Pair.sol\":8966:8979  getReserves() */\n      tag_141\n        /* \"v2-core-master/contracts/UniswapV2Pair.sol\":8966:8977  getReserves */\n      tag_55\n        /* \"v2-core-master/contracts/UniswapV2Pair.sol\":8966:8979  getReserves() */\n      jump\t// in\n    tag_141:\n        /* \"v2-core-master/contracts/UniswapV2Pair.sol\":8923:8979  (uint112 _reserve0, uint112 _reserve1, ) = getReserves() */\n      pop\n      swap2\n      pop\n      swap2\n      pop\n        /* \"v2-core-master/contracts/UniswapV2Pair.sol\":9025:9034  _reserve0 */\n      dup2\n      sub(shl(0x70, 0x01), 0x01)\n        /* \"v2-core-master/contracts/UniswapV2Pair.sol\":9012:9034  amount0Out < _reserve0 */\n      and\n        /* \"v2-core-master/contracts/UniswapV2Pair.sol\":9012:9022  amount0Out */\n      dup8\n        /* \"v2-core-master/contracts/UniswapV2Pair.sol\":9012:9034  amount0Out < _reserve0 */\n      lt\n        /* \"v2-core-master/contracts/UniswapV2Pair.sol\":9012:9060  amount0Out < _reserve0 && amount1Out < _reserve1 */\n      dup1\n      iszero\n      tag_142\n      jumpi\n      pop\n        /* \"v2-core-master/contracts/UniswapV2Pair.sol\":9051:9060  _reserve1 */\n      dup1\n      sub(shl(0x70, 0x01), 0x01)\n        /* \"v2-core-master/contracts/UniswapV2Pair.sol\":9038:9060  amount1Out < _reserve1 */\n      and\n        /* \"v2-core-master/contracts/UniswapV2Pair.sol\":9038:9048  amount1Out */\n      dup7\n        /* \"v2-core-master/contracts/UniswapV2Pair.sol\":9038:9060  amount1Out < _reserve1 */\n      lt\n        /* \"v2-core-master/contracts/UniswapV2Pair.sol\":9012:9060  amount0Out < _reserve0 && amount1Out < _reserve1 */\n    tag_142:\n        /* \"v2-core-master/contracts/UniswapV2Pair.sol\":9004:9098  require(amount0Out < _reserve0 && amount1Out < _reserve1, 'UniswapV2: INSUFFICIENT_LIQUIDITY') */\n      tag_143\n      jumpi\n      mload(0x40)\n      shl(0xe5, 0x461bcd)\n      dup2\n      mstore\n      0x04\n      add\n      dup1\n      dup1\n      0x20\n      add\n      dup3\n      dup2\n      sub\n      dup3\n      mstore\n      0x21\n      dup2\n      mstore\n      0x20\n      add\n      dup1\n      data_3f354ef449b2a9b081220ce21f57691008110b653edc191d8288e60cef58bb5f\n      0x21\n      swap2\n      codecopy\n      0x40\n      add\n      swap2\n      pop\n      pop\n      mload(0x40)\n      dup1\n      swap2\n      sub\n      swap1\n      revert\n    tag_143:\n        /* \"v2-core-master/contracts/UniswapV2Pair.sol\":9254:9260  token0 */\n      sload(0x08)\n        /* \"v2-core-master/contracts/UniswapV2Pair.sol\":9292:9298  token1 */\n      sload(0x09)\n        /* \"v2-core-master/contracts/UniswapV2Pair.sol\":9109:9122  uint balance0 */\n      0x00\n      swap2\n      dup3\n      swap2\n      sub(shl(0xa0, 0x01), 0x01)\n        /* \"v2-core-master/contracts/UniswapV2Pair.sol\":9254:9260  token0 */\n      swap2\n      dup3\n      and\n      swap2\n        /* \"v2-core-master/contracts/UniswapV2Pair.sol\":9292:9298  token1 */\n      swap1\n      dup2\n      and\n      swap1\n        /* \"v2-core-master/contracts/UniswapV2Pair.sol\":9320:9333  to != _token0 */\n      dup10\n      and\n      dup3\n      eq\n      dup1\n      iszero\n      swap1\n        /* \"v2-core-master/contracts/UniswapV2Pair.sol\":9320:9350  to != _token0 && to != _token1 */\n      tag_144\n      jumpi\n      pop\n        /* \"v2-core-master/contracts/UniswapV2Pair.sol\":9343:9350  _token1 */\n      dup1\n      sub(shl(0xa0, 0x01), 0x01)\n        /* \"v2-core-master/contracts/UniswapV2Pair.sol\":9337:9350  to != _token1 */\n      and\n        /* \"v2-core-master/contracts/UniswapV2Pair.sol\":9337:9339  to */\n      dup10\n      sub(shl(0xa0, 0x01), 0x01)\n        /* \"v2-core-master/contracts/UniswapV2Pair.sol\":9337:9350  to != _token1 */\n      and\n      eq\n      iszero\n        /* \"v2-core-master/contracts/UniswapV2Pair.sol\":9320:9350  to != _token0 && to != _token1 */\n    tag_144:\n        /* \"v2-core-master/contracts/UniswapV2Pair.sol\":9312:9376  require(to != _token0 && to != _token1, 'UniswapV2: INVALID_TO') */\n      tag_145\n      jumpi\n      0x40\n      dup1\n      mload\n      shl(0xe5, 0x461bcd)\n      dup2\n      mstore\n      0x20\n      0x04\n      dup3\n      add\n      mstore\n      0x15\n      0x24\n      dup3\n      add\n      mstore\n      shl(0x58, 0x556e697377617056323a20494e56414c49445f544f)\n      0x44\n      dup3\n      add\n      mstore\n      swap1\n      mload\n      swap1\n      dup2\n      swap1\n      sub\n      0x64\n      add\n      swap1\n      revert\n    tag_145:\n        /* \"v2-core-master/contracts/UniswapV2Pair.sol\":9394:9408  amount0Out > 0 */\n      dup11\n      iszero\n        /* \"v2-core-master/contracts/UniswapV2Pair.sol\":9390:9448  if (amount0Out > 0) _safeTransfer(_token0, to, amount0Out) */\n      tag_147\n      jumpi\n        /* \"v2-core-master/contracts/UniswapV2Pair.sol\":9410:9448  _safeTransfer(_token0, to, amount0Out) */\n      tag_147\n        /* \"v2-core-master/contracts/UniswapV2Pair.sol\":9424:9431  _token0 */\n      dup3\n        /* \"v2-core-master/contracts/UniswapV2Pair.sol\":9433:9435  to */\n      dup11\n        /* \"v2-core-master/contracts/UniswapV2Pair.sol\":9437:9447  amount0Out */\n      dup14\n        /* \"v2-core-master/contracts/UniswapV2Pair.sol\":9410:9423  _safeTransfer */\n      tag_148\n        /* \"v2-core-master/contracts/UniswapV2Pair.sol\":9410:9448  _safeTransfer(_token0, to, amount0Out) */\n      jump\t// in\n    tag_147:\n        /* \"v2-core-master/contracts/UniswapV2Pair.sol\":9500:9514  amount1Out > 0 */\n      dup10\n      iszero\n        /* \"v2-core-master/contracts/UniswapV2Pair.sol\":9496:9554  if (amount1Out > 0) _safeTransfer(_token1, to, amount1Out) */\n      tag_150\n      jumpi\n        /* \"v2-core-master/contracts/UniswapV2Pair.sol\":9516:9554  _safeTransfer(_token1, to, amount1Out) */\n      tag_150\n        /* \"v2-core-master/contracts/UniswapV2Pair.sol\":9530:9537  _token1 */\n      dup2\n        /* \"v2-core-master/contracts/UniswapV2Pair.sol\":9539:9541  to */\n      dup11\n        /* \"v2-core-master/contracts/UniswapV2Pair.sol\":9543:9553  amount1Out */\n      dup13\n        /* \"v2-core-master/contracts/UniswapV2Pair.sol\":9516:9529  _safeTransfer */\n      tag_148\n        /* \"v2-core-master/contracts/UniswapV2Pair.sol\":9516:9554  _safeTransfer(_token1, to, amount1Out) */\n      jump\t// in\n    tag_150:\n        /* \"v2-core-master/contracts/UniswapV2Pair.sol\":9606:9621  data.length > 0 */\n      dup7\n      iszero\n        /* \"v2-core-master/contracts/UniswapV2Pair.sol\":9602:9699  if (data.length > 0) IUniswapV2Callee(to).uniswapV2Call(msg.sender, amount0Out, amount1Out, data) */\n      tag_151\n      jumpi\n        /* \"v2-core-master/contracts/UniswapV2Pair.sol\":9640:9642  to */\n      dup9\n      sub(shl(0xa0, 0x01), 0x01)\n        /* \"v2-core-master/contracts/UniswapV2Pair.sol\":9623:9657  IUniswapV2Callee(to).uniswapV2Call */\n      and\n      0x10d1e85c\n        /* \"v2-core-master/contracts/UniswapV2Pair.sol\":9658:9668  msg.sender */\n      caller\n        /* \"v2-core-master/contracts/UniswapV2Pair.sol\":9670:9680  amount0Out */\n      dup14\n        /* \"v2-core-master/contracts/UniswapV2Pair.sol\":9682:9692  amount1Out */\n      dup14\n        /* \"v2-core-master/contracts/UniswapV2Pair.sol\":9694:9698  data */\n      dup13\n      dup13\n        /* \"v2-core-master/contracts/UniswapV2Pair.sol\":9623:9699  IUniswapV2Callee(to).uniswapV2Call(msg.sender, amount0Out, amount1Out, data) */\n      mload(0x40)\n      dup7\n      0xffffffff\n      and\n      0xe0\n      shl\n      dup2\n      mstore\n      0x04\n      add\n      dup1\n      dup7\n      sub(shl(0xa0, 0x01), 0x01)\n      and\n      sub(shl(0xa0, 0x01), 0x01)\n      and\n      dup2\n      mstore\n      0x20\n      add\n      dup6\n      dup2\n      mstore\n      0x20\n      add\n      dup5\n      dup2\n      mstore\n      0x20\n      add\n      dup1\n      0x20\n      add\n      dup3\n      dup2\n      sub\n      dup3\n      mstore\n      dup5\n      dup5\n      dup3\n      dup2\n      dup2\n      mstore\n      0x20\n      add\n      swap3\n      pop\n        /* \"--CODEGEN--\":30:33   */\n      dup1\n        /* \"--CODEGEN--\":22:28   */\n      dup3\n        /* \"--CODEGEN--\":14:20   */\n      dup5\n        /* \"--CODEGEN--\":1:34   */\n      calldatacopy\n        /* \"--CODEGEN--\":99:100   */\n      0x00\n        /* \"--CODEGEN--\":93:96   */\n      dup2\n        /* \"--CODEGEN--\":85:91   */\n      dup5\n        /* \"--CODEGEN--\":81:97   */\n      add\n        /* \"--CODEGEN--\":74:101   */\n      mstore\n        /* \"--CODEGEN--\":137:141   */\n      0x1f\n        /* \"--CODEGEN--\":133:142   */\n      not\n        /* \"--CODEGEN--\":126:130   */\n      0x1f\n        /* \"--CODEGEN--\":121:124   */\n      dup3\n        /* \"--CODEGEN--\":117:131   */\n      add\n        /* \"--CODEGEN--\":113:143   */\n      and\n        /* \"--CODEGEN--\":106:143   */\n      swap1\n      pop\n        /* \"--CODEGEN--\":169:172   */\n      dup1\n        /* \"--CODEGEN--\":161:167   */\n      dup4\n        /* \"--CODEGEN--\":157:173   */\n      add\n        /* \"--CODEGEN--\":147:173   */\n      swap3\n      pop\n        /* \"v2-core-master/contracts/UniswapV2Pair.sol\":9623:9699  IUniswapV2Callee(to).uniswapV2Call(msg.sender, amount0Out, amount1Out, data) */\n      pop\n      pop\n      swap7\n      pop\n      pop\n      pop\n      pop\n      pop\n      pop\n      pop\n      0x00\n      mload(0x40)\n      dup1\n      dup4\n      sub\n      dup2\n      0x00\n      dup8\n      dup1\n      extcodesize\n      iszero\n        /* \"--CODEGEN--\":8:17   */\n      dup1\n        /* \"--CODEGEN--\":5:7   */\n      iszero\n      tag_152\n      jumpi\n        /* \"--CODEGEN--\":30:31   */\n      0x00\n        /* \"--CODEGEN--\":27:28   */\n      dup1\n        /* \"--CODEGEN--\":20:32   */\n      revert\n        /* \"--CODEGEN--\":5:7   */\n    tag_152:\n        /* \"v2-core-master/contracts/UniswapV2Pair.sol\":9623:9699  IUniswapV2Callee(to).uniswapV2Call(msg.sender, amount0Out, amount1Out, data) */\n      pop\n      gas\n      call\n      iszero\n        /* \"--CODEGEN--\":8:17   */\n      dup1\n        /* \"--CODEGEN--\":5:7   */\n      iszero\n      tag_153\n      jumpi\n        /* \"--CODEGEN--\":45:61   */\n      returndatasize\n        /* \"--CODEGEN--\":42:43   */\n      0x00\n        /* \"--CODEGEN--\":39:40   */\n      dup1\n        /* \"--CODEGEN--\":24:62   */\n      returndatacopy\n        /* \"--CODEGEN--\":77:93   */\n      returndatasize\n        /* \"--CODEGEN--\":74:75   */\n      0x00\n        /* \"--CODEGEN--\":67:94   */\n      revert\n        /* \"--CODEGEN--\":5:7   */\n    tag_153:\n        /* \"v2-core-master/contracts/UniswapV2Pair.sol\":9623:9699  IUniswapV2Callee(to).uniswapV2Call(msg.sender, amount0Out, amount1Out, data) */\n      pop\n      pop\n      pop\n      pop\n        /* \"v2-core-master/contracts/UniswapV2Pair.sol\":9602:9699  if (data.length > 0) IUniswapV2Callee(to).uniswapV2Call(msg.sender, amount0Out, amount1Out, data) */\n    tag_151:\n        /* \"v2-core-master/contracts/UniswapV2Pair.sol\":9724:9764  IERC20(_token0).balanceOf(address(this)) */\n      0x40\n      dup1\n      mload\n      shl(0xe0, 0x70a08231)\n      dup2\n      mstore\n        /* \"v2-core-master/contracts/UniswapV2Pair.sol\":9758:9762  this */\n      address\n        /* \"v2-core-master/contracts/UniswapV2Pair.sol\":9724:9764  IERC20(_token0).balanceOf(address(this)) */\n      0x04\n      dup3\n      add\n      mstore\n      swap1\n      mload\n      sub(shl(0xa0, 0x01), 0x01)\n        /* \"v2-core-master/contracts/UniswapV2Pair.sol\":9724:9749  IERC20(_token0).balanceOf */\n      dup5\n      and\n      swap2\n      0x70a08231\n      swap2\n        /* \"v2-core-master/contracts/UniswapV2Pair.sol\":9724:9764  IERC20(_token0).balanceOf(address(this)) */\n      0x24\n      dup1\n      dup4\n      add\n      swap3\n      0x20\n      swap3\n      swap2\n      swap1\n      dup3\n      swap1\n      sub\n      add\n      dup2\n        /* \"v2-core-master/contracts/UniswapV2Pair.sol\":9724:9749  IERC20(_token0).balanceOf */\n      dup7\n        /* \"v2-core-master/contracts/UniswapV2Pair.sol\":9724:9764  IERC20(_token0).balanceOf(address(this)) */\n      dup1\n      extcodesize\n      iszero\n        /* \"--CODEGEN--\":5:7   */\n      dup1\n      iszero\n      tag_154\n      jumpi\n        /* \"--CODEGEN--\":30:31   */\n      0x00\n        /* \"--CODEGEN--\":27:28   */\n      dup1\n        /* \"--CODEGEN--\":20:32   */\n      revert\n        /* \"--CODEGEN--\":5:7   */\n    tag_154:\n        /* \"v2-core-master/contracts/UniswapV2Pair.sol\":9724:9764  IERC20(_token0).balanceOf(address(this)) */\n      pop\n      gas\n      staticcall\n      iszero\n        /* \"--CODEGEN--\":8:17   */\n      dup1\n        /* \"--CODEGEN--\":5:7   */\n      iszero\n      tag_155\n      jumpi\n        /* \"--CODEGEN--\":45:61   */\n      returndatasize\n        /* \"--CODEGEN--\":42:43   */\n      0x00\n        /* \"--CODEGEN--\":39:40   */\n      dup1\n        /* \"--CODEGEN--\":24:62   */\n      returndatacopy\n        /* \"--CODEGEN--\":77:93   */\n      returndatasize\n        /* \"--CODEGEN--\":74:75   */\n      0x00\n        /* \"--CODEGEN--\":67:94   */\n      revert\n        /* \"--CODEGEN--\":5:7   */\n    tag_155:\n        /* \"v2-core-master/contracts/UniswapV2Pair.sol\":9724:9764  IERC20(_token0).balanceOf(address(this)) */\n      pop\n      pop\n      pop\n      pop\n      mload(0x40)\n      returndatasize\n        /* \"--CODEGEN--\":13:15   */\n      0x20\n        /* \"--CODEGEN--\":8:11   */\n      dup2\n        /* \"--CODEGEN--\":5:16   */\n      lt\n        /* \"--CODEGEN--\":2:4   */\n      iszero\n      tag_156\n      jumpi\n        /* \"--CODEGEN--\":29:30   */\n      0x00\n        /* \"--CODEGEN--\":26:27   */\n      dup1\n        /* \"--CODEGEN--\":19:31   */\n      revert\n        /* \"--CODEGEN--\":2:4   */\n    tag_156:\n      pop\n        /* \"v2-core-master/contracts/UniswapV2Pair.sol\":9724:9764  IERC20(_token0).balanceOf(address(this)) */\n      mload\n        /* \"v2-core-master/contracts/UniswapV2Pair.sol\":9789:9829  IERC20(_token1).balanceOf(address(this)) */\n      0x40\n      dup1\n      mload\n      shl(0xe0, 0x70a08231)\n      dup2\n      mstore\n        /* \"v2-core-master/contracts/UniswapV2Pair.sol\":9823:9827  this */\n      address\n        /* \"v2-core-master/contracts/UniswapV2Pair.sol\":9789:9829  IERC20(_token1).balanceOf(address(this)) */\n      0x04\n      dup3\n      add\n      mstore\n      swap1\n      mload\n        /* \"v2-core-master/contracts/UniswapV2Pair.sol\":9724:9764  IERC20(_token0).balanceOf(address(this)) */\n      swap2\n      swap6\n      pop\n      sub(shl(0xa0, 0x01), 0x01)\n        /* \"v2-core-master/contracts/UniswapV2Pair.sol\":9789:9814  IERC20(_token1).balanceOf */\n      dup4\n      and\n      swap2\n      0x70a08231\n      swap2\n        /* \"v2-core-master/contracts/UniswapV2Pair.sol\":9789:9829  IERC20(_token1).balanceOf(address(this)) */\n      0x24\n      dup1\n      dup3\n      add\n      swap3\n        /* \"v2-core-master/contracts/UniswapV2Pair.sol\":9724:9764  IERC20(_token0).balanceOf(address(this)) */\n      0x20\n      swap3\n        /* \"v2-core-master/contracts/UniswapV2Pair.sol\":9789:9829  IERC20(_token1).balanceOf(address(this)) */\n      swap1\n      swap2\n      swap1\n      dup3\n      swap1\n      sub\n      add\n      dup2\n        /* \"v2-core-master/contracts/UniswapV2Pair.sol\":9789:9814  IERC20(_token1).balanceOf */\n      dup7\n        /* \"v2-core-master/contracts/UniswapV2Pair.sol\":9789:9829  IERC20(_token1).balanceOf(address(this)) */\n      dup1\n      extcodesize\n      iszero\n        /* \"--CODEGEN--\":5:7   */\n      dup1\n      iszero\n      tag_157\n      jumpi\n        /* \"--CODEGEN--\":30:31   */\n      0x00\n        /* \"--CODEGEN--\":27:28   */\n      dup1\n        /* \"--CODEGEN--\":20:32   */\n      revert\n        /* \"--CODEGEN--\":5:7   */\n    tag_157:\n        /* \"v2-core-master/contracts/UniswapV2Pair.sol\":9789:9829  IERC20(_token1).balanceOf(address(this)) */\n      pop\n      gas\n      staticcall\n      iszero\n        /* \"--CODEGEN--\":8:17   */\n      dup1\n        /* \"--CODEGEN--\":5:7   */\n      iszero\n      tag_158\n      jumpi\n        /* \"--CODEGEN--\":45:61   */\n      returndatasize\n        /* \"--CODEGEN--\":42:43   */\n      0x00\n        /* \"--CODEGEN--\":39:40   */\n      dup1\n        /* \"--CODEGEN--\":24:62   */\n      returndatacopy\n        /* \"--CODEGEN--\":77:93   */\n      returndatasize\n        /* \"--CODEGEN--\":74:75   */\n      0x00\n        /* \"--CODEGEN--\":67:94   */\n      revert\n        /* \"--CODEGEN--\":5:7   */\n    tag_158:\n        /* \"v2-core-master/contracts/UniswapV2Pair.sol\":9789:9829  IERC20(_token1).balanceOf(address(this)) */\n      pop\n      pop\n      pop\n      pop\n      mload(0x40)\n      returndatasize\n        /* \"--CODEGEN--\":13:15   */\n      0x20\n        /* \"--CODEGEN--\":8:11   */\n      dup2\n        /* \"--CODEGEN--\":5:16   */\n      lt\n        /* \"--CODEGEN--\":2:4   */\n      iszero\n      tag_159\n      jumpi\n        /* \"--CODEGEN--\":29:30   */\n      0x00\n        /* \"--CODEGEN--\":26:27   */\n      dup1\n        /* \"--CODEGEN--\":19:31   */\n      revert\n        /* \"--CODEGEN--\":2:4   */\n    tag_159:\n      pop\n        /* \"v2-core-master/contracts/UniswapV2Pair.sol\":9789:9829  IERC20(_token1).balanceOf(address(this)) */\n      mload\n      swap3\n      pop\n        /* \"v2-core-master/contracts/UniswapV2Pair.sol\":9849:9863  uint amount0In */\n      0x00\n      swap2\n      pop\n      pop\n      sub(shl(0x70, 0x01), 0x01)\n        /* \"v2-core-master/contracts/UniswapV2Pair.sol\":9877:9899  _reserve0 - amount0Out */\n      dup6\n      and\n      dup11\n      swap1\n      sub\n        /* \"v2-core-master/contracts/UniswapV2Pair.sol\":9866:9899  balance0 > _reserve0 - amount0Out */\n      dup4\n      gt\n        /* \"v2-core-master/contracts/UniswapV2Pair.sol\":9866:9941  balance0 > _reserve0 - amount0Out ? balance0 - (_reserve0 - amount0Out) : 0 */\n      tag_160\n      jumpi\n        /* \"v2-core-master/contracts/UniswapV2Pair.sol\":9940:9941  0 */\n      0x00\n        /* \"v2-core-master/contracts/UniswapV2Pair.sol\":9866:9941  balance0 > _reserve0 - amount0Out ? balance0 - (_reserve0 - amount0Out) : 0 */\n      jump(tag_161)\n    tag_160:\n        /* \"v2-core-master/contracts/UniswapV2Pair.sol\":9926:9936  amount0Out */\n      dup10\n        /* \"v2-core-master/contracts/UniswapV2Pair.sol\":9914:9923  _reserve0 */\n      dup6\n      sub(shl(0x70, 0x01), 0x01)\n        /* \"v2-core-master/contracts/UniswapV2Pair.sol\":9914:9936  _reserve0 - amount0Out */\n      and\n      sub\n        /* \"v2-core-master/contracts/UniswapV2Pair.sol\":9902:9910  balance0 */\n      dup4\n        /* \"v2-core-master/contracts/UniswapV2Pair.sol\":9902:9937  balance0 - (_reserve0 - amount0Out) */\n      sub\n        /* \"v2-core-master/contracts/UniswapV2Pair.sol\":9866:9941  balance0 > _reserve0 - amount0Out ? balance0 - (_reserve0 - amount0Out) : 0 */\n    tag_161:\n        /* \"v2-core-master/contracts/UniswapV2Pair.sol\":9849:9941  uint amount0In = balance0 > _reserve0 - amount0Out ? balance0 - (_reserve0 - amount0Out) : 0 */\n      swap1\n      pop\n        /* \"v2-core-master/contracts/UniswapV2Pair.sol\":9951:9965  uint amount1In */\n      0x00\n        /* \"v2-core-master/contracts/UniswapV2Pair.sol\":9991:10001  amount1Out */\n      dup10\n        /* \"v2-core-master/contracts/UniswapV2Pair.sol\":9979:9988  _reserve1 */\n      dup6\n      sub(shl(0x70, 0x01), 0x01)\n        /* \"v2-core-master/contracts/UniswapV2Pair.sol\":9979:10001  _reserve1 - amount1Out */\n      and\n      sub\n        /* \"v2-core-master/contracts/UniswapV2Pair.sol\":9968:9976  balance1 */\n      dup4\n        /* \"v2-core-master/contracts/UniswapV2Pair.sol\":9968:10001  balance1 > _reserve1 - amount1Out */\n      gt\n        /* \"v2-core-master/contracts/UniswapV2Pair.sol\":9968:10043  balance1 > _reserve1 - amount1Out ? balance1 - (_reserve1 - amount1Out) : 0 */\n      tag_162\n      jumpi\n        /* \"v2-core-master/contracts/UniswapV2Pair.sol\":10042:10043  0 */\n      0x00\n        /* \"v2-core-master/contracts/UniswapV2Pair.sol\":9968:10043  balance1 > _reserve1 - amount1Out ? balance1 - (_reserve1 - amount1Out) : 0 */\n      jump(tag_163)\n    tag_162:\n        /* \"v2-core-master/contracts/UniswapV2Pair.sol\":10028:10038  amount1Out */\n      dup10\n        /* \"v2-core-master/contracts/UniswapV2Pair.sol\":10016:10025  _reserve1 */\n      dup6\n      sub(shl(0x70, 0x01), 0x01)\n        /* \"v2-core-master/contracts/UniswapV2Pair.sol\":10016:10038  _reserve1 - amount1Out */\n      and\n      sub\n        /* \"v2-core-master/contracts/UniswapV2Pair.sol\":10004:10012  balance1 */\n      dup4\n        /* \"v2-core-master/contracts/UniswapV2Pair.sol\":10004:10039  balance1 - (_reserve1 - amount1Out) */\n      sub\n        /* \"v2-core-master/contracts/UniswapV2Pair.sol\":9968:10043  balance1 > _reserve1 - amount1Out ? balance1 - (_reserve1 - amount1Out) : 0 */\n    tag_163:\n        /* \"v2-core-master/contracts/UniswapV2Pair.sol\":9951:10043  uint amount1In = balance1 > _reserve1 - amount1Out ? balance1 - (_reserve1 - amount1Out) : 0 */\n      swap1\n      pop\n        /* \"v2-core-master/contracts/UniswapV2Pair.sol\":10073:10074  0 */\n      0x00\n        /* \"v2-core-master/contracts/UniswapV2Pair.sol\":10061:10070  amount0In */\n      dup3\n        /* \"v2-core-master/contracts/UniswapV2Pair.sol\":10061:10074  amount0In > 0 */\n      gt\n        /* \"v2-core-master/contracts/UniswapV2Pair.sol\":10061:10091  amount0In > 0 || amount1In > 0 */\n      dup1\n      tag_164\n      jumpi\n      pop\n        /* \"v2-core-master/contracts/UniswapV2Pair.sol\":10090:10091  0 */\n      0x00\n        /* \"v2-core-master/contracts/UniswapV2Pair.sol\":10078:10087  amount1In */\n      dup2\n        /* \"v2-core-master/contracts/UniswapV2Pair.sol\":10078:10091  amount1In > 0 */\n      gt\n        /* \"v2-core-master/contracts/UniswapV2Pair.sol\":10061:10091  amount0In > 0 || amount1In > 0 */\n    tag_164:\n        /* \"v2-core-master/contracts/UniswapV2Pair.sol\":10053:10132  require(amount0In > 0 || amount1In > 0, 'UniswapV2: INSUFFICIENT_INPUT_AMOUNT') */\n      tag_165\n      jumpi\n      mload(0x40)\n      shl(0xe5, 0x461bcd)\n      dup2\n      mstore\n      0x04\n      add\n      dup1\n      dup1\n      0x20\n      add\n      dup3\n      dup2\n      sub\n      dup3\n      mstore\n      0x24\n      dup2\n      mstore\n      0x20\n      add\n      dup1\n      data_10e2efc32d8a31d3b2c11a545b3ed09c2dbabc58ef6de4033929d0002e425b67\n      0x24\n      swap2\n      codecopy\n      0x40\n      add\n      swap2\n      pop\n      pop\n      mload(0x40)\n      dup1\n      swap2\n      sub\n      swap1\n      revert\n    tag_165:\n        /* \"v2-core-master/contracts/UniswapV2Pair.sol\":10232:10253  uint balance0Adjusted */\n      0x00\n        /* \"v2-core-master/contracts/UniswapV2Pair.sol\":10256:10296  balance0.mul(1000).sub(amount0In.mul(3)) */\n      tag_166\n        /* \"v2-core-master/contracts/UniswapV2Pair.sol\":10279:10295  amount0In.mul(3) */\n      tag_167\n        /* \"v2-core-master/contracts/UniswapV2Pair.sol\":10279:10288  amount0In */\n      dup5\n        /* \"v2-core-master/contracts/UniswapV2Pair.sol\":10293:10294  3 */\n      0x03\n        /* \"v2-core-master/contracts/UniswapV2Pair.sol\":10279:10295  amount0In.mul(3) */\n      0xffffffff\n        /* \"v2-core-master/contracts/UniswapV2Pair.sol\":10279:10292  amount0In.mul */\n      tag_168\n        /* \"v2-core-master/contracts/UniswapV2Pair.sol\":10279:10295  amount0In.mul(3) */\n      and\n      jump\t// in\n    tag_167:\n        /* \"v2-core-master/contracts/UniswapV2Pair.sol\":10256:10274  balance0.mul(1000) */\n      tag_169\n        /* \"v2-core-master/contracts/UniswapV2Pair.sol\":10256:10264  balance0 */\n      dup8\n        /* \"v2-core-master/contracts/UniswapV2Pair.sol\":10269:10273  1000 */\n      0x03e8\n        /* \"v2-core-master/contracts/UniswapV2Pair.sol\":10256:10274  balance0.mul(1000) */\n      0xffffffff\n        /* \"v2-core-master/contracts/UniswapV2Pair.sol\":10256:10268  balance0.mul */\n      tag_168\n        /* \"v2-core-master/contracts/UniswapV2Pair.sol\":10256:10274  balance0.mul(1000) */\n      and\n      jump\t// in\n    tag_169:\n        /* \"v2-core-master/contracts/UniswapV2Pair.sol\":10256:10278  balance0.mul(1000).sub */\n      swap1\n        /* \"v2-core-master/contracts/UniswapV2Pair.sol\":10256:10296  balance0.mul(1000).sub(amount0In.mul(3)) */\n      0xffffffff\n        /* \"v2-core-master/contracts/UniswapV2Pair.sol\":10256:10278  balance0.mul(1000).sub */\n      tag_170\n        /* \"v2-core-master/contracts/UniswapV2Pair.sol\":10256:10296  balance0.mul(1000).sub(amount0In.mul(3)) */\n      and\n      jump\t// in\n    tag_166:\n        /* \"v2-core-master/contracts/UniswapV2Pair.sol\":10232:10296  uint balance0Adjusted = balance0.mul(1000).sub(amount0In.mul(3)) */\n      swap1\n      pop\n        /* \"v2-core-master/contracts/UniswapV2Pair.sol\":10310:10331  uint balance1Adjusted */\n      0x00\n        /* \"v2-core-master/contracts/UniswapV2Pair.sol\":10334:10374  balance1.mul(1000).sub(amount1In.mul(3)) */\n      tag_171\n        /* \"v2-core-master/contracts/UniswapV2Pair.sol\":10357:10373  amount1In.mul(3) */\n      tag_167\n        /* \"v2-core-master/contracts/UniswapV2Pair.sol\":10357:10366  amount1In */\n      dup5\n        /* \"v2-core-master/contracts/UniswapV2Pair.sol\":10371:10372  3 */\n      0x03\n        /* \"v2-core-master/contracts/UniswapV2Pair.sol\":10357:10373  amount1In.mul(3) */\n      0xffffffff\n        /* \"v2-core-master/contracts/UniswapV2Pair.sol\":10357:10370  amount1In.mul */\n      tag_168\n        /* \"v2-core-master/contracts/UniswapV2Pair.sol\":10357:10373  amount1In.mul(3) */\n      and\n      jump\t// in\n        /* \"v2-core-master/contracts/UniswapV2Pair.sol\":10334:10374  balance1.mul(1000).sub(amount1In.mul(3)) */\n    tag_171:\n        /* \"v2-core-master/contracts/UniswapV2Pair.sol\":10310:10374  uint balance1Adjusted = balance1.mul(1000).sub(amount1In.mul(3)) */\n      swap1\n      pop\n        /* \"v2-core-master/contracts/UniswapV2Pair.sol\":10455:10500  uint(_reserve0).mul(_reserve1).mul(1000 ** 2) */\n      tag_174\n        /* \"v2-core-master/contracts/UniswapV2Pair.sol\":10490:10499  1000 ** 2 */\n      0x0f4240\n        /* \"v2-core-master/contracts/UniswapV2Pair.sol\":10455:10485  uint(_reserve0).mul(_reserve1) */\n      tag_175\n      sub(shl(0x70, 0x01), 0x01)\n        /* \"v2-core-master/contracts/UniswapV2Pair.sol\":10455:10470  uint(_reserve0) */\n      dup12\n      dup2\n      and\n      swap1\n        /* \"v2-core-master/contracts/UniswapV2Pair.sol\":10455:10485  uint(_reserve0).mul(_reserve1) */\n      dup12\n      and\n      0xffffffff\n        /* \"v2-core-master/contracts/UniswapV2Pair.sol\":10455:10474  uint(_reserve0).mul */\n      tag_168\n        /* \"v2-core-master/contracts/UniswapV2Pair.sol\":10455:10485  uint(_reserve0).mul(_reserve1) */\n      and\n      jump\t// in\n    tag_175:\n        /* \"v2-core-master/contracts/UniswapV2Pair.sol\":10455:10489  uint(_reserve0).mul(_reserve1).mul */\n      swap1\n        /* \"v2-core-master/contracts/UniswapV2Pair.sol\":10455:10500  uint(_reserve0).mul(_reserve1).mul(1000 ** 2) */\n      0xffffffff\n        /* \"v2-core-master/contracts/UniswapV2Pair.sol\":10455:10489  uint(_reserve0).mul(_reserve1).mul */\n      tag_168\n        /* \"v2-core-master/contracts/UniswapV2Pair.sol\":10455:10500  uint(_reserve0).mul(_reserve1).mul(1000 ** 2) */\n      and\n      jump\t// in\n    tag_174:\n        /* \"v2-core-master/contracts/UniswapV2Pair.sol\":10413:10451  balance0Adjusted.mul(balance1Adjusted) */\n      tag_176\n        /* \"v2-core-master/contracts/UniswapV2Pair.sol\":10413:10429  balance0Adjusted */\n      dup4\n        /* \"v2-core-master/contracts/UniswapV2Pair.sol\":10434:10450  balance1Adjusted */\n      dup4\n        /* \"v2-core-master/contracts/UniswapV2Pair.sol\":10413:10451  balance0Adjusted.mul(balance1Adjusted) */\n      0xffffffff\n        /* \"v2-core-master/contracts/UniswapV2Pair.sol\":10413:10433  balance0Adjusted.mul */\n      tag_168\n        /* \"v2-core-master/contracts/UniswapV2Pair.sol\":10413:10451  balance0Adjusted.mul(balance1Adjusted) */\n      and\n      jump\t// in\n    tag_176:\n        /* \"v2-core-master/contracts/UniswapV2Pair.sol\":10413:10500  balance0Adjusted.mul(balance1Adjusted) >= uint(_reserve0).mul(_reserve1).mul(1000 ** 2) */\n      lt\n      iszero\n        /* \"v2-core-master/contracts/UniswapV2Pair.sol\":10388:10546  require(... */\n      tag_177\n      jumpi\n      0x40\n      dup1\n      mload\n      shl(0xe5, 0x461bcd)\n      dup2\n      mstore\n      0x20\n      0x04\n      dup3\n      add\n      mstore\n      0x0c\n      0x24\n      dup3\n      add\n      mstore\n      shl(0xa0, 0x556e697377617056323a204b)\n      0x44\n      dup3\n      add\n      mstore\n      swap1\n      mload\n      swap1\n      dup2\n      swap1\n      sub\n      0x64\n      add\n      swap1\n      revert\n    tag_177:\n        /* \"v2-core-master/contracts/UniswapV2Pair.sol\":1306:1307  _ */\n      pop\n      pop\n        /* \"v2-core-master/contracts/UniswapV2Pair.sol\":10567:10616  _update(balance0, balance1, _reserve0, _reserve1) */\n      tag_178\n        /* \"v2-core-master/contracts/UniswapV2Pair.sol\":10575:10583  balance0 */\n      dup5\n        /* \"v2-core-master/contracts/UniswapV2Pair.sol\":10585:10593  balance1 */\n      dup5\n        /* \"v2-core-master/contracts/UniswapV2Pair.sol\":10595:10604  _reserve0 */\n      dup9\n        /* \"v2-core-master/contracts/UniswapV2Pair.sol\":10606:10615  _reserve1 */\n      dup9\n        /* \"v2-core-master/contracts/UniswapV2Pair.sol\":10567:10574  _update */\n      tag_179\n        /* \"v2-core-master/contracts/UniswapV2Pair.sol\":10567:10616  _update(balance0, balance1, _reserve0, _reserve1) */\n      jump\t// in\n    tag_178:\n        /* \"v2-core-master/contracts/UniswapV2Pair.sol\":10631:10697  Swap(msg.sender, amount0In, amount1In, amount0Out, amount1Out, to) */\n      0x40\n      dup1\n      mload\n      dup4\n      dup2\n      mstore\n      0x20\n      dup2\n      add\n      dup4\n      swap1\n      mstore\n      dup1\n      dup3\n      add\n      dup14\n      swap1\n      mstore\n      0x60\n      dup2\n      add\n      dup13\n      swap1\n      mstore\n      swap1\n      mload\n      sub(shl(0xa0, 0x01), 0x01)\n      dup12\n      and\n      swap2\n        /* \"v2-core-master/contracts/UniswapV2Pair.sol\":10636:10646  msg.sender */\n      caller\n      swap2\n        /* \"v2-core-master/contracts/UniswapV2Pair.sol\":10631:10697  Swap(msg.sender, amount0In, amount1In, amount0Out, amount1Out, to) */\n      0xd78ad95fa46c994b6551d0da85fc275fe613ce37657fb8d5e3d130840159d822\n      swap2\n      dup2\n      swap1\n      sub\n      0x80\n      add\n      swap1\n      log3\n      pop\n      pop\n        /* \"v2-core-master/contracts/UniswapV2Pair.sol\":1328:1329  1 */\n      0x01\n        /* \"v2-core-master/contracts/UniswapV2Pair.sol\":1317:1325  unlocked */\n      0x0e\n        /* \"v2-core-master/contracts/UniswapV2Pair.sol\":1317:1329  unlocked = 1 */\n      sstore\n      pop\n      pop\n      pop\n      pop\n      pop\n      pop\n      pop\n      pop\n      pop\n        /* \"v2-core-master/contracts/UniswapV2Pair.sol\":8726:10704  function swap(uint amount0Out, uint amount1Out, address to, bytes calldata data) external lock {... */\n      jump\t// out\n        /* \"v2-core-master/contracts/UniswapV2ERC20.sol\":192:235  string public constant name = 'EposSwap LP' */\n    tag_49:\n      mload(0x40)\n      dup1\n      0x40\n      add\n      0x40\n      mstore\n      dup1\n      0x0b\n      dup2\n      mstore\n      0x20\n      add\n      shl(0xac, 0x045706f7353776170204c5)\n      dup2\n      mstore\n      pop\n      dup2\n      jump\t// out\n        /* \"v2-core-master/contracts/UniswapV2Pair.sol\":1342:1569  function getReserves() public view returns (uint112 _reserve0, uint112 _reserve1, uint32 _blockTimestampLast) {... */\n    tag_55:\n        /* \"v2-core-master/contracts/UniswapV2Pair.sol\":1474:1482  reserve0 */\n      sload(0x0a)\n      sub(shl(0x70, 0x01), 0x01)\n      dup1\n      dup3\n      and\n      swap3\n      shl(0x70, 0x01)\n        /* \"v2-core-master/contracts/UniswapV2Pair.sol\":1504:1512  reserve1 */\n      dup4\n      div\n      swap1\n      swap2\n      and\n      swap2\n      shl(0xe0, 0x01)\n        /* \"v2-core-master/contracts/UniswapV2Pair.sol\":1544:1562  blockTimestampLast */\n      swap1\n      div\n      0xffffffff\n      and\n      swap1\n        /* \"v2-core-master/contracts/UniswapV2Pair.sol\":1342:1569  function getReserves() public view returns (uint112 _reserve0, uint112 _reserve1, uint32 _blockTimestampLast) {... */\n      jump\t// out\n        /* \"v2-core-master/contracts/UniswapV2ERC20.sol\":2860:3004  function approve(address spender, uint value) external returns (bool) {... */\n    tag_58:\n        /* \"v2-core-master/contracts/UniswapV2ERC20.sol\":2924:2928  bool */\n      0x00\n        /* \"v2-core-master/contracts/UniswapV2ERC20.sol\":2940:2976  _approve(msg.sender, spender, value) */\n      tag_182\n        /* \"v2-core-master/contracts/UniswapV2ERC20.sol\":2949:2959  msg.sender */\n      caller\n        /* \"v2-core-master/contracts/UniswapV2ERC20.sol\":2961:2968  spender */\n      dup5\n        /* \"v2-core-master/contracts/UniswapV2ERC20.sol\":2970:2975  value */\n      dup5\n        /* \"v2-core-master/contracts/UniswapV2ERC20.sol\":2940:2948  _approve */\n      tag_183\n        /* \"v2-core-master/contracts/UniswapV2ERC20.sol\":2940:2976  _approve(msg.sender, spender, value) */\n      jump\t// in\n    tag_182:\n      pop\n        /* \"v2-core-master/contracts/UniswapV2ERC20.sol\":2993:2997  true */\n      0x01\n        /* \"v2-core-master/contracts/UniswapV2ERC20.sol\":2860:3004  function approve(address spender, uint value) external returns (bool) {... */\n    tag_181:\n      swap3\n      swap2\n      pop\n      pop\n      jump\t// out\n        /* \"v2-core-master/contracts/UniswapV2Pair.sol\":671:692  address public token0 */\n    tag_60:\n      and(sub(shl(0xa0, 0x01), 0x01), sload(0x08))\n      dup2\n      jump\t// out\n        /* \"v2-core-master/contracts/UniswapV2ERC20.sol\":327:350  uint public totalSupply */\n    tag_62:\n      sload(0x00)\n      dup2\n      jump\t// out\n        /* \"v2-core-master/contracts/UniswapV2ERC20.sol\":3152:3447  function transferFrom(address from, address to, uint value) external returns (bool) {... */\n    tag_65:\n      sub(shl(0xa0, 0x01), 0x01)\n        /* \"v2-core-master/contracts/UniswapV2ERC20.sol\":3250:3265  allowance[from] */\n      dup4\n      and\n        /* \"v2-core-master/contracts/UniswapV2ERC20.sol\":3230:3234  bool */\n      0x00\n        /* \"v2-core-master/contracts/UniswapV2ERC20.sol\":3250:3265  allowance[from] */\n      swap1\n      dup2\n      mstore\n        /* \"v2-core-master/contracts/UniswapV2ERC20.sol\":3250:3259  allowance */\n      0x02\n        /* \"v2-core-master/contracts/UniswapV2ERC20.sol\":3250:3265  allowance[from] */\n      0x20\n      swap1\n      dup2\n      mstore\n      0x40\n      dup1\n      dup4\n      keccak256\n        /* \"v2-core-master/contracts/UniswapV2ERC20.sol\":3266:3276  msg.sender */\n      caller\n        /* \"v2-core-master/contracts/UniswapV2ERC20.sol\":3250:3277  allowance[from][msg.sender] */\n      dup5\n      mstore\n      swap1\n      swap2\n      mstore\n      dup2\n      keccak256\n      sload\n      not(0x00)\n        /* \"v2-core-master/contracts/UniswapV2ERC20.sol\":3250:3289  allowance[from][msg.sender] != uint(-1) */\n      eq\n        /* \"v2-core-master/contracts/UniswapV2ERC20.sol\":3246:3384  if (allowance[from][msg.sender] != uint(-1)) {... */\n      tag_185\n      jumpi\n      sub(shl(0xa0, 0x01), 0x01)\n        /* \"v2-core-master/contracts/UniswapV2ERC20.sol\":3335:3350  allowance[from] */\n      dup5\n      and\n      0x00\n      swap1\n      dup2\n      mstore\n        /* \"v2-core-master/contracts/UniswapV2ERC20.sol\":3335:3344  allowance */\n      0x02\n        /* \"v2-core-master/contracts/UniswapV2ERC20.sol\":3335:3350  allowance[from] */\n      0x20\n      swap1\n      dup2\n      mstore\n      0x40\n      dup1\n      dup4\n      keccak256\n        /* \"v2-core-master/contracts/UniswapV2ERC20.sol\":3351:3361  msg.sender */\n      caller\n        /* \"v2-core-master/contracts/UniswapV2ERC20.sol\":3335:3362  allowance[from][msg.sender] */\n      dup5\n      mstore\n      swap1\n      swap2\n      mstore\n      swap1\n      keccak256\n      sload\n        /* \"v2-core-master/contracts/UniswapV2ERC20.sol\":3335:3373  allowance[from][msg.sender].sub(value) */\n      tag_186\n      swap1\n        /* \"v2-core-master/contracts/UniswapV2ERC20.sol\":3367:3372  value */\n      dup4\n        /* \"v2-core-master/contracts/UniswapV2ERC20.sol\":3335:3373  allowance[from][msg.sender].sub(value) */\n      0xffffffff\n        /* \"v2-core-master/contracts/UniswapV2ERC20.sol\":3335:3366  allowance[from][msg.sender].sub */\n      tag_170\n        /* \"v2-core-master/contracts/UniswapV2ERC20.sol\":3335:3373  allowance[from][msg.sender].sub(value) */\n      and\n      jump\t// in\n    tag_186:\n      sub(shl(0xa0, 0x01), 0x01)\n        /* \"v2-core-master/contracts/UniswapV2ERC20.sol\":3305:3320  allowance[from] */\n      dup6\n      and\n      0x00\n      swap1\n      dup2\n      mstore\n        /* \"v2-core-master/contracts/UniswapV2ERC20.sol\":3305:3314  allowance */\n      0x02\n        /* \"v2-core-master/contracts/UniswapV2ERC20.sol\":3305:3320  allowance[from] */\n      0x20\n      swap1\n      dup2\n      mstore\n      0x40\n      dup1\n      dup4\n      keccak256\n        /* \"v2-core-master/contracts/UniswapV2ERC20.sol\":3321:3331  msg.sender */\n      caller\n        /* \"v2-core-master/contracts/UniswapV2ERC20.sol\":3305:3332  allowance[from][msg.sender] */\n      dup5\n      mstore\n      swap1\n      swap2\n      mstore\n      swap1\n      keccak256\n        /* \"v2-core-master/contracts/UniswapV2ERC20.sol\":3305:3373  allowance[from][msg.sender] = allowance[from][msg.sender].sub(value) */\n      sstore\n        /* \"v2-core-master/contracts/UniswapV2ERC20.sol\":3246:3384  if (allowance[from][msg.sender] != uint(-1)) {... */\n    tag_185:\n        /* \"v2-core-master/contracts/UniswapV2ERC20.sol\":3393:3419  _transfer(from, to, value) */\n      tag_187\n        /* \"v2-core-master/contracts/UniswapV2ERC20.sol\":3403:3407  from */\n      dup5\n        /* \"v2-core-master/contracts/UniswapV2ERC20.sol\":3409:3411  to */\n      dup5\n        /* \"v2-core-master/contracts/UniswapV2ERC20.sol\":3413:3418  value */\n      dup5\n        /* \"v2-core-master/contracts/UniswapV2ERC20.sol\":3393:3402  _transfer */\n      tag_188\n        /* \"v2-core-master/contracts/UniswapV2ERC20.sol\":3393:3419  _transfer(from, to, value) */\n      jump\t// in\n    tag_187:\n      pop\n        /* \"v2-core-master/contracts/UniswapV2ERC20.sol\":3436:3440  true */\n      0x01\n        /* \"v2-core-master/contracts/UniswapV2ERC20.sol\":3152:3447  function transferFrom(address from, address to, uint value) external returns (bool) {... */\n      swap4\n      swap3\n      pop\n      pop\n      pop\n      jump\t// out\n        /* \"v2-core-master/contracts/UniswapV2ERC20.sol\":679:787  bytes32 public constant PERMIT_TYPEHASH = 0x6e71edae12b1b97f4d1f60370fef10105fa2faae0126114a169c64845d6126c9 */\n    tag_67:\n        /* \"v2-core-master/contracts/UniswapV2ERC20.sol\":721:787  0x6e71edae12b1b97f4d1f60370fef10105fa2faae0126114a169c64845d6126c9 */\n      0x6e71edae12b1b97f4d1f60370fef10105fa2faae0126114a169c64845d6126c9\n        /* \"v2-core-master/contracts/UniswapV2ERC20.sol\":679:787  bytes32 public constant PERMIT_TYPEHASH = 0x6e71edae12b1b97f4d1f60370fef10105fa2faae0126114a169c64845d6126c9 */\n      dup2\n      jump\t// out\n        /* \"v2-core-master/contracts/UniswapV2ERC20.sol\":286:321  uint8 public constant decimals = 18 */\n    tag_69:\n        /* \"v2-core-master/contracts/UniswapV2ERC20.sol\":319:321  18 */\n      0x12\n        /* \"v2-core-master/contracts/UniswapV2ERC20.sol\":286:321  uint8 public constant decimals = 18 */\n      dup2\n      jump\t// out\n        /* \"v2-core-master/contracts/UniswapV2ERC20.sol\":538:569  bytes32 public DOMAIN_SEPARATOR */\n    tag_71:\n      sload(0x04)\n      dup2\n      jump\t// out\n        /* \"v2-core-master/contracts/UniswapV2ERC20.sol\":482:531  mapping(address => uint256) public _frozenBalance */\n    tag_74:\n      mstore(0x20, 0x03)\n      0x00\n      swap1\n      dup2\n      mstore\n      0x40\n      swap1\n      keccak256\n      sload\n      dup2\n      jump\t// out\n        /* \"v2-core-master/contracts/UniswapV2Pair.sol\":2374:2580  function initialize(address _token0, address _token1) external {... */\n    tag_77:\n        /* \"v2-core-master/contracts/UniswapV2Pair.sol\":2469:2476  factory */\n      and(sub(shl(0xa0, 0x01), 0x01), sload(0x07))\n        /* \"v2-core-master/contracts/UniswapV2Pair.sol\":2455:2465  msg.sender */\n      caller\n        /* \"v2-core-master/contracts/UniswapV2Pair.sol\":2455:2476  msg.sender == factory */\n      eq\n        /* \"v2-core-master/contracts/UniswapV2Pair.sol\":2447:2501  require(msg.sender == factory, 'UniswapV2: FORBIDDEN') */\n      tag_190\n      jumpi\n      0x40\n      dup1\n      mload\n      shl(0xe5, 0x461bcd)\n      dup2\n      mstore\n      0x20\n      0x04\n      dup3\n      add\n      mstore\n      0x14\n      0x24\n      dup3\n      add\n      mstore\n      shl(0x61, 0x2ab734b9bbb0b82b191d102327a92124a22222a7)\n      0x44\n      dup3\n      add\n      mstore\n      swap1\n      mload\n      swap1\n      dup2\n      swap1\n      sub\n      0x64\n      add\n      swap1\n      revert\n    tag_190:\n        /* \"v2-core-master/contracts/UniswapV2Pair.sol\":2531:2537  token0 */\n      0x08\n        /* \"v2-core-master/contracts/UniswapV2Pair.sol\":2531:2547  token0 = _token0 */\n      dup1\n      sload\n      sub(shl(0xa0, 0x01), 0x01)\n      swap4\n      dup5\n      and\n      not(sub(shl(0xa0, 0x01), 0x01))\n      swap2\n      dup3\n      and\n      or\n      swap1\n      swap2\n      sstore\n        /* \"v2-core-master/contracts/UniswapV2Pair.sol\":2557:2563  token1 */\n      0x09\n        /* \"v2-core-master/contracts/UniswapV2Pair.sol\":2557:2573  token1 = _token1 */\n      dup1\n      sload\n      swap3\n      swap1\n      swap4\n      and\n      swap2\n      and\n      or\n      swap1\n      sstore\n        /* \"v2-core-master/contracts/UniswapV2Pair.sol\":2374:2580  function initialize(address _token0, address _token1) external {... */\n      jump\t// out\n        /* \"v2-core-master/contracts/UniswapV2Pair.sol\":994:1026  uint public price0CumulativeLast */\n    tag_79:\n      sload(0x0b)\n      dup2\n      jump\t// out\n        /* \"v2-core-master/contracts/UniswapV2Pair.sol\":1032:1064  uint public price1CumulativeLast */\n    tag_81:\n      sload(0x0c)\n      dup2\n      jump\t// out\n        /* \"v2-core-master/contracts/UniswapV2Pair.sol\":4526:5747  function mint(address to) external lock returns (uint liquidity) {... */\n    tag_84:\n        /* \"v2-core-master/contracts/UniswapV2Pair.sol\":4575:4589  uint liquidity */\n      0x00\n        /* \"v2-core-master/contracts/UniswapV2Pair.sol\":1239:1247  unlocked */\n      sload(0x0e)\n        /* \"v2-core-master/contracts/UniswapV2Pair.sol\":1251:1252  1 */\n      0x01\n        /* \"v2-core-master/contracts/UniswapV2Pair.sol\":1239:1252  unlocked == 1 */\n      eq\n        /* \"v2-core-master/contracts/UniswapV2Pair.sol\":1231:1274  require(unlocked == 1, 'UniswapV2: LOCKED') */\n      tag_192\n      jumpi\n      0x40\n      dup1\n      mload\n      shl(0xe5, 0x461bcd)\n      dup2\n      mstore\n      0x20\n      0x04\n      dup3\n      add\n      mstore\n      0x11\n      0x24\n      dup3\n      add\n      mstore\n      shl(0x7a, 0x155b9a5cddd85c158c8e881313d0d2d151)\n      0x44\n      dup3\n      add\n      mstore\n      swap1\n      mload\n      swap1\n      dup2\n      swap1\n      sub\n      0x64\n      add\n      swap1\n      revert\n    tag_192:\n        /* \"v2-core-master/contracts/UniswapV2Pair.sol\":1295:1296  0 */\n      0x00\n        /* \"v2-core-master/contracts/UniswapV2Pair.sol\":1284:1292  unlocked */\n      0x0e\n        /* \"v2-core-master/contracts/UniswapV2Pair.sol\":1284:1296  unlocked = 0 */\n      dup2\n      swap1\n      sstore\n        /* \"v2-core-master/contracts/UniswapV2Pair.sol\":1295:1296  0 */\n      dup1\n        /* \"v2-core-master/contracts/UniswapV2Pair.sol\":4644:4657  getReserves() */\n      tag_194\n        /* \"v2-core-master/contracts/UniswapV2Pair.sol\":4644:4655  getReserves */\n      tag_55\n        /* \"v2-core-master/contracts/UniswapV2Pair.sol\":4644:4657  getReserves() */\n      jump\t// in\n    tag_194:\n      pop\n        /* \"v2-core-master/contracts/UniswapV2Pair.sol\":4705:4711  token0 */\n      sload(0x08)\n        /* \"v2-core-master/contracts/UniswapV2Pair.sol\":4698:4737  IERC20(token0).balanceOf(address(this)) */\n      0x40\n      dup1\n      mload\n      shl(0xe0, 0x70a08231)\n      dup2\n      mstore\n        /* \"v2-core-master/contracts/UniswapV2Pair.sol\":4731:4735  this */\n      address\n        /* \"v2-core-master/contracts/UniswapV2Pair.sol\":4698:4737  IERC20(token0).balanceOf(address(this)) */\n      0x04\n      dup3\n      add\n      mstore\n      swap1\n      mload\n        /* \"v2-core-master/contracts/UniswapV2Pair.sol\":4601:4657  (uint112 _reserve0, uint112 _reserve1, ) = getReserves() */\n      swap4\n      swap6\n      pop\n      swap2\n      swap4\n      pop\n        /* \"v2-core-master/contracts/UniswapV2Pair.sol\":4682:4695  uint balance0 */\n      0x00\n      swap3\n      sub(shl(0xa0, 0x01), 0x01)\n        /* \"v2-core-master/contracts/UniswapV2Pair.sol\":4705:4711  token0 */\n      swap1\n      swap2\n      and\n      swap2\n        /* \"v2-core-master/contracts/UniswapV2Pair.sol\":4698:4722  IERC20(token0).balanceOf */\n      0x70a08231\n      swap2\n        /* \"v2-core-master/contracts/UniswapV2Pair.sol\":4698:4737  IERC20(token0).balanceOf(address(this)) */\n      0x24\n      dup1\n      dup4\n      add\n      swap3\n      0x20\n      swap3\n      swap2\n      swap1\n      dup3\n      swap1\n      sub\n      add\n      dup2\n        /* \"v2-core-master/contracts/UniswapV2Pair.sol\":4705:4711  token0 */\n      dup7\n        /* \"v2-core-master/contracts/UniswapV2Pair.sol\":4698:4737  IERC20(token0).balanceOf(address(this)) */\n      dup1\n      extcodesize\n      iszero\n        /* \"--CODEGEN--\":5:7   */\n      dup1\n      iszero\n      tag_195\n      jumpi\n        /* \"--CODEGEN--\":30:31   */\n      0x00\n        /* \"--CODEGEN--\":27:28   */\n      dup1\n        /* \"--CODEGEN--\":20:32   */\n      revert\n        /* \"--CODEGEN--\":5:7   */\n    tag_195:\n        /* \"v2-core-master/contracts/UniswapV2Pair.sol\":4698:4737  IERC20(token0).balanceOf(address(this)) */\n      pop\n      gas\n      staticcall\n      iszero\n        /* \"--CODEGEN--\":8:17   */\n      dup1\n        /* \"--CODEGEN--\":5:7   */\n      iszero\n      tag_196\n      jumpi\n        /* \"--CODEGEN--\":45:61   */\n      returndatasize\n        /* \"--CODEGEN--\":42:43   */\n      0x00\n        /* \"--CODEGEN--\":39:40   */\n      dup1\n        /* \"--CODEGEN--\":24:62   */\n      returndatacopy\n        /* \"--CODEGEN--\":77:93   */\n      returndatasize\n        /* \"--CODEGEN--\":74:75   */\n      0x00\n        /* \"--CODEGEN--\":67:94   */\n      revert\n        /* \"--CODEGEN--\":5:7   */\n    tag_196:\n        /* \"v2-core-master/contracts/UniswapV2Pair.sol\":4698:4737  IERC20(token0).balanceOf(address(this)) */\n      pop\n      pop\n      pop\n      pop\n      mload(0x40)\n      returndatasize\n        /* \"--CODEGEN--\":13:15   */\n      0x20\n        /* \"--CODEGEN--\":8:11   */\n      dup2\n        /* \"--CODEGEN--\":5:16   */\n      lt\n        /* \"--CODEGEN--\":2:4   */\n      iszero\n      tag_197\n      jumpi\n        /* \"--CODEGEN--\":29:30   */\n      0x00\n        /* \"--CODEGEN--\":26:27   */\n      dup1\n        /* \"--CODEGEN--\":19:31   */\n      revert\n        /* \"--CODEGEN--\":2:4   */\n    tag_197:\n      pop\n        /* \"v2-core-master/contracts/UniswapV2Pair.sol\":4698:4737  IERC20(token0).balanceOf(address(this)) */\n      mload\n        /* \"v2-core-master/contracts/UniswapV2Pair.sol\":4770:4776  token1 */\n      sload(0x09)\n        /* \"v2-core-master/contracts/UniswapV2Pair.sol\":4763:4802  IERC20(token1).balanceOf(address(this)) */\n      0x40\n      dup1\n      mload\n      shl(0xe0, 0x70a08231)\n      dup2\n      mstore\n        /* \"v2-core-master/contracts/UniswapV2Pair.sol\":4796:4800  this */\n      address\n        /* \"v2-core-master/contracts/UniswapV2Pair.sol\":4763:4802  IERC20(token1).balanceOf(address(this)) */\n      0x04\n      dup3\n      add\n      mstore\n      swap1\n      mload\n        /* \"v2-core-master/contracts/UniswapV2Pair.sol\":4698:4737  IERC20(token0).balanceOf(address(this)) */\n      swap3\n      swap4\n      pop\n        /* \"v2-core-master/contracts/UniswapV2Pair.sol\":4747:4760  uint balance1 */\n      0x00\n      swap3\n      sub(shl(0xa0, 0x01), 0x01)\n        /* \"v2-core-master/contracts/UniswapV2Pair.sol\":4770:4776  token1 */\n      swap1\n      swap3\n      and\n      swap2\n        /* \"v2-core-master/contracts/UniswapV2Pair.sol\":4763:4787  IERC20(token1).balanceOf */\n      0x70a08231\n      swap2\n        /* \"v2-core-master/contracts/UniswapV2Pair.sol\":4763:4802  IERC20(token1).balanceOf(address(this)) */\n      0x24\n      dup1\n      dup3\n      add\n      swap3\n        /* \"v2-core-master/contracts/UniswapV2Pair.sol\":4698:4737  IERC20(token0).balanceOf(address(this)) */\n      0x20\n      swap3\n        /* \"v2-core-master/contracts/UniswapV2Pair.sol\":4763:4802  IERC20(token1).balanceOf(address(this)) */\n      swap1\n      swap2\n      swap1\n      dup3\n      swap1\n      sub\n      add\n      dup2\n        /* \"v2-core-master/contracts/UniswapV2Pair.sol\":4770:4776  token1 */\n      dup7\n        /* \"v2-core-master/contracts/UniswapV2Pair.sol\":4763:4802  IERC20(token1).balanceOf(address(this)) */\n      dup1\n      extcodesize\n      iszero\n        /* \"--CODEGEN--\":5:7   */\n      dup1\n      iszero\n      tag_198\n      jumpi\n        /* \"--CODEGEN--\":30:31   */\n      0x00\n        /* \"--CODEGEN--\":27:28   */\n      dup1\n        /* \"--CODEGEN--\":20:32   */\n      revert\n        /* \"--CODEGEN--\":5:7   */\n    tag_198:\n        /* \"v2-core-master/contracts/UniswapV2Pair.sol\":4763:4802  IERC20(token1).balanceOf(address(this)) */\n      pop\n      gas\n      staticcall\n      iszero\n        /* \"--CODEGEN--\":8:17   */\n      dup1\n        /* \"--CODEGEN--\":5:7   */\n      iszero\n      tag_199\n      jumpi\n        /* \"--CODEGEN--\":45:61   */\n      returndatasize\n        /* \"--CODEGEN--\":42:43   */\n      0x00\n        /* \"--CODEGEN--\":39:40   */\n      dup1\n        /* \"--CODEGEN--\":24:62   */\n      returndatacopy\n        /* \"--CODEGEN--\":77:93   */\n      returndatasize\n        /* \"--CODEGEN--\":74:75   */\n      0x00\n        /* \"--CODEGEN--\":67:94   */\n      revert\n        /* \"--CODEGEN--\":5:7   */\n    tag_199:\n        /* \"v2-core-master/contracts/UniswapV2Pair.sol\":4763:4802  IERC20(token1).balanceOf(address(this)) */\n      pop\n      pop\n      pop\n      pop\n      mload(0x40)\n      returndatasize\n        /* \"--CODEGEN--\":13:15   */\n      0x20\n        /* \"--CODEGEN--\":8:11   */\n      dup2\n        /* \"--CODEGEN--\":5:16   */\n      lt\n        /* \"--CODEGEN--\":2:4   */\n      iszero\n      tag_200\n      jumpi\n        /* \"--CODEGEN--\":29:30   */\n      0x00\n        /* \"--CODEGEN--\":26:27   */\n      dup1\n        /* \"--CODEGEN--\":19:31   */\n      revert\n        /* \"--CODEGEN--\":2:4   */\n    tag_200:\n      pop\n        /* \"v2-core-master/contracts/UniswapV2Pair.sol\":4763:4802  IERC20(token1).balanceOf(address(this)) */\n      mload\n      swap1\n      pop\n        /* \"v2-core-master/contracts/UniswapV2Pair.sol\":4812:4824  uint amount0 */\n      0x00\n        /* \"v2-core-master/contracts/UniswapV2Pair.sol\":4827:4850  balance0.sub(_reserve0) */\n      tag_201\n        /* \"v2-core-master/contracts/UniswapV2Pair.sol\":4827:4835  balance0 */\n      dup4\n      sub(shl(0x70, 0x01), 0x01)\n        /* \"v2-core-master/contracts/UniswapV2Pair.sol\":4827:4850  balance0.sub(_reserve0) */\n      dup8\n      and\n      0xffffffff\n        /* \"v2-core-master/contracts/UniswapV2Pair.sol\":4827:4839  balance0.sub */\n      tag_170\n        /* \"v2-core-master/contracts/UniswapV2Pair.sol\":4827:4850  balance0.sub(_reserve0) */\n      and\n      jump\t// in\n    tag_201:\n        /* \"v2-core-master/contracts/UniswapV2Pair.sol\":4812:4850  uint amount0 = balance0.sub(_reserve0) */\n      swap1\n      pop\n        /* \"v2-core-master/contracts/UniswapV2Pair.sol\":4860:4872  uint amount1 */\n      0x00\n        /* \"v2-core-master/contracts/UniswapV2Pair.sol\":4875:4898  balance1.sub(_reserve1) */\n      tag_202\n        /* \"v2-core-master/contracts/UniswapV2Pair.sol\":4875:4883  balance1 */\n      dup4\n      sub(shl(0x70, 0x01), 0x01)\n        /* \"v2-core-master/contracts/UniswapV2Pair.sol\":4875:4898  balance1.sub(_reserve1) */\n      dup8\n      and\n      0xffffffff\n        /* \"v2-core-master/contracts/UniswapV2Pair.sol\":4875:4887  balance1.sub */\n      tag_170\n        /* \"v2-core-master/contracts/UniswapV2Pair.sol\":4875:4898  balance1.sub(_reserve1) */\n      and\n      jump\t// in\n    tag_202:\n        /* \"v2-core-master/contracts/UniswapV2Pair.sol\":4860:4898  uint amount1 = balance1.sub(_reserve1) */\n      swap1\n      pop\n        /* \"v2-core-master/contracts/UniswapV2Pair.sol\":4909:4919  bool feeOn */\n      0x00\n        /* \"v2-core-master/contracts/UniswapV2Pair.sol\":4922:4952  _mintFee(_reserve0, _reserve1) */\n      tag_203\n        /* \"v2-core-master/contracts/UniswapV2Pair.sol\":4931:4940  _reserve0 */\n      dup8\n        /* \"v2-core-master/contracts/UniswapV2Pair.sol\":4942:4951  _reserve1 */\n      dup8\n        /* \"v2-core-master/contracts/UniswapV2Pair.sol\":4922:4930  _mintFee */\n      tag_204\n        /* \"v2-core-master/contracts/UniswapV2Pair.sol\":4922:4952  _mintFee(_reserve0, _reserve1) */\n      jump\t// in\n    tag_203:\n        /* \"v2-core-master/contracts/UniswapV2Pair.sol\":4962:4979  uint _totalSupply */\n      0x00\n        /* \"v2-core-master/contracts/UniswapV2Pair.sol\":4982:4993  totalSupply */\n      sload\n        /* \"v2-core-master/contracts/UniswapV2Pair.sol\":4909:4952  bool feeOn = _mintFee(_reserve0, _reserve1) */\n      swap1\n      swap2\n      pop\n        /* \"v2-core-master/contracts/UniswapV2Pair.sol\":5085:5102  _totalSupply == 0 */\n      dup1\n        /* \"v2-core-master/contracts/UniswapV2Pair.sol\":5081:5429  if (_totalSupply == 0) {... */\n      tag_205\n      jumpi\n        /* \"v2-core-master/contracts/UniswapV2Pair.sol\":5130:5184  Math.sqrt(amount0.mul(amount1)).sub(MINIMUM_LIQUIDITY) */\n      tag_206\n        /* \"v2-core-master/contracts/UniswapV2Pair.sol\":535:542  10 ** 3 */\n      0x03e8\n        /* \"v2-core-master/contracts/UniswapV2Pair.sol\":5130:5161  Math.sqrt(amount0.mul(amount1)) */\n      tag_169\n        /* \"v2-core-master/contracts/UniswapV2Pair.sol\":5140:5160  amount0.mul(amount1) */\n      tag_208\n        /* \"v2-core-master/contracts/UniswapV2Pair.sol\":5140:5147  amount0 */\n      dup8\n        /* \"v2-core-master/contracts/UniswapV2Pair.sol\":5152:5159  amount1 */\n      dup8\n        /* \"v2-core-master/contracts/UniswapV2Pair.sol\":5140:5160  amount0.mul(amount1) */\n      0xffffffff\n        /* \"v2-core-master/contracts/UniswapV2Pair.sol\":5140:5151  amount0.mul */\n      tag_168\n        /* \"v2-core-master/contracts/UniswapV2Pair.sol\":5140:5160  amount0.mul(amount1) */\n      and\n      jump\t// in\n    tag_208:\n        /* \"v2-core-master/contracts/UniswapV2Pair.sol\":5130:5139  Math.sqrt */\n      tag_209\n        /* \"v2-core-master/contracts/UniswapV2Pair.sol\":5130:5161  Math.sqrt(amount0.mul(amount1)) */\n      jump\t// in\n        /* \"v2-core-master/contracts/UniswapV2Pair.sol\":5130:5184  Math.sqrt(amount0.mul(amount1)).sub(MINIMUM_LIQUIDITY) */\n    tag_206:\n        /* \"v2-core-master/contracts/UniswapV2Pair.sol\":5118:5184  liquidity = Math.sqrt(amount0.mul(amount1)).sub(MINIMUM_LIQUIDITY) */\n      swap9\n      pop\n        /* \"v2-core-master/contracts/UniswapV2Pair.sol\":5198:5234  _mint(address(0), MINIMUM_LIQUIDITY) */\n      tag_210\n        /* \"v2-core-master/contracts/UniswapV2Pair.sol\":5212:5213  0 */\n      0x00\n        /* \"v2-core-master/contracts/UniswapV2Pair.sol\":535:542  10 ** 3 */\n      0x03e8\n        /* \"v2-core-master/contracts/UniswapV2Pair.sol\":5198:5203  _mint */\n      tag_211\n        /* \"v2-core-master/contracts/UniswapV2Pair.sol\":5198:5234  _mint(address(0), MINIMUM_LIQUIDITY) */\n      jump\t// in\n    tag_210:\n        /* \"v2-core-master/contracts/UniswapV2Pair.sol\":5081:5429  if (_totalSupply == 0) {... */\n      jump(tag_212)\n    tag_205:\n        /* \"v2-core-master/contracts/UniswapV2Pair.sol\":5332:5418  Math.min(amount0.mul(_totalSupply) / _reserve0, amount1.mul(_totalSupply) / _reserve1) */\n      tag_213\n      sub(shl(0x70, 0x01), 0x01)\n        /* \"v2-core-master/contracts/UniswapV2Pair.sol\":5341:5378  amount0.mul(_totalSupply) / _reserve0 */\n      dup10\n      and\n        /* \"v2-core-master/contracts/UniswapV2Pair.sol\":5341:5366  amount0.mul(_totalSupply) */\n      tag_214\n        /* \"v2-core-master/contracts/UniswapV2Pair.sol\":5341:5348  amount0 */\n      dup7\n        /* \"v2-core-master/contracts/UniswapV2Pair.sol\":5353:5365  _totalSupply */\n      dup5\n        /* \"v2-core-master/contracts/UniswapV2Pair.sol\":5341:5366  amount0.mul(_totalSupply) */\n      0xffffffff\n        /* \"v2-core-master/contracts/UniswapV2Pair.sol\":5341:5352  amount0.mul */\n      tag_168\n        /* \"v2-core-master/contracts/UniswapV2Pair.sol\":5341:5366  amount0.mul(_totalSupply) */\n      and\n      jump\t// in\n    tag_214:\n        /* \"v2-core-master/contracts/UniswapV2Pair.sol\":5341:5378  amount0.mul(_totalSupply) / _reserve0 */\n      dup2\n      tag_215\n      jumpi\n      invalid\n    tag_215:\n      div\n      sub(shl(0x70, 0x01), 0x01)\n        /* \"v2-core-master/contracts/UniswapV2Pair.sol\":5380:5417  amount1.mul(_totalSupply) / _reserve1 */\n      dup10\n      and\n        /* \"v2-core-master/contracts/UniswapV2Pair.sol\":5380:5405  amount1.mul(_totalSupply) */\n      tag_216\n        /* \"v2-core-master/contracts/UniswapV2Pair.sol\":5380:5387  amount1 */\n      dup7\n        /* \"v2-core-master/contracts/UniswapV2Pair.sol\":5392:5404  _totalSupply */\n      dup6\n        /* \"v2-core-master/contracts/UniswapV2Pair.sol\":5380:5405  amount1.mul(_totalSupply) */\n      0xffffffff\n        /* \"v2-core-master/contracts/UniswapV2Pair.sol\":5380:5391  amount1.mul */\n      tag_168\n        /* \"v2-core-master/contracts/UniswapV2Pair.sol\":5380:5405  amount1.mul(_totalSupply) */\n      and\n      jump\t// in\n    tag_216:\n        /* \"v2-core-master/contracts/UniswapV2Pair.sol\":5380:5417  amount1.mul(_totalSupply) / _reserve1 */\n      dup2\n      tag_217\n      jumpi\n      invalid\n    tag_217:\n      div\n        /* \"v2-core-master/contracts/UniswapV2Pair.sol\":5332:5340  Math.min */\n      tag_218\n        /* \"v2-core-master/contracts/UniswapV2Pair.sol\":5332:5418  Math.min(amount0.mul(_totalSupply) / _reserve0, amount1.mul(_totalSupply) / _reserve1) */\n      jump\t// in\n    tag_213:\n        /* \"v2-core-master/contracts/UniswapV2Pair.sol\":5320:5418  liquidity = Math.min(amount0.mul(_totalSupply) / _reserve0, amount1.mul(_totalSupply) / _reserve1) */\n      swap9\n      pop\n        /* \"v2-core-master/contracts/UniswapV2Pair.sol\":5081:5429  if (_totalSupply == 0) {... */\n    tag_212:\n        /* \"v2-core-master/contracts/UniswapV2Pair.sol\":5458:5459  0 */\n      0x00\n        /* \"v2-core-master/contracts/UniswapV2Pair.sol\":5446:5455  liquidity */\n      dup10\n        /* \"v2-core-master/contracts/UniswapV2Pair.sol\":5446:5459  liquidity > 0 */\n      gt\n        /* \"v2-core-master/contracts/UniswapV2Pair.sol\":5438:5504  require(liquidity > 0, 'UniswapV2: INSUFFICIENT_LIQUIDITY_MINTED') */\n      tag_219\n      jumpi\n      mload(0x40)\n      shl(0xe5, 0x461bcd)\n      dup2\n      mstore\n      0x04\n      add\n      dup1\n      dup1\n      0x20\n      add\n      dup3\n      dup2\n      sub\n      dup3\n      mstore\n      0x28\n      dup2\n      mstore\n      0x20\n      add\n      dup1\n      data_6591c9f5bf1fefaad109b76a20e25c857b696080c952191f86220f001a83663e\n      0x28\n      swap2\n      codecopy\n      0x40\n      add\n      swap2\n      pop\n      pop\n      mload(0x40)\n      dup1\n      swap2\n      sub\n      swap1\n      revert\n    tag_219:\n        /* \"v2-core-master/contracts/UniswapV2Pair.sol\":5514:5534  _mint(to, liquidity) */\n      tag_220\n        /* \"v2-core-master/contracts/UniswapV2Pair.sol\":5520:5522  to */\n      dup11\n        /* \"v2-core-master/contracts/UniswapV2Pair.sol\":5524:5533  liquidity */\n      dup11\n        /* \"v2-core-master/contracts/UniswapV2Pair.sol\":5514:5519  _mint */\n      tag_211\n        /* \"v2-core-master/contracts/UniswapV2Pair.sol\":5514:5534  _mint(to, liquidity) */\n      jump\t// in\n    tag_220:\n        /* \"v2-core-master/contracts/UniswapV2Pair.sol\":5545:5594  _update(balance0, balance1, _reserve0, _reserve1) */\n      tag_221\n        /* \"v2-core-master/contracts/UniswapV2Pair.sol\":5553:5561  balance0 */\n      dup7\n        /* \"v2-core-master/contracts/UniswapV2Pair.sol\":5563:5571  balance1 */\n      dup7\n        /* \"v2-core-master/contracts/UniswapV2Pair.sol\":5573:5582  _reserve0 */\n      dup11\n        /* \"v2-core-master/contracts/UniswapV2Pair.sol\":5584:5593  _reserve1 */\n      dup11\n        /* \"v2-core-master/contracts/UniswapV2Pair.sol\":5545:5552  _update */\n      tag_179\n        /* \"v2-core-master/contracts/UniswapV2Pair.sol\":5545:5594  _update(balance0, balance1, _reserve0, _reserve1) */\n      jump\t// in\n    tag_221:\n        /* \"v2-core-master/contracts/UniswapV2Pair.sol\":5608:5613  feeOn */\n      dup2\n        /* \"v2-core-master/contracts/UniswapV2Pair.sol\":5604:5651  if (feeOn) kLast = uint(reserve0).mul(reserve1) */\n      iszero\n      tag_222\n      jumpi\n        /* \"v2-core-master/contracts/UniswapV2Pair.sol\":5642:5650  reserve1 */\n      sload(0x0a)\n        /* \"v2-core-master/contracts/UniswapV2Pair.sol\":5623:5651  uint(reserve0).mul(reserve1) */\n      tag_223\n      swap1\n      sub(shl(0x70, 0x01), 0x01)\n        /* \"v2-core-master/contracts/UniswapV2Pair.sol\":5628:5636  reserve0 */\n      dup1\n      dup3\n      and\n      swap2\n      shl(0x70, 0x01)\n        /* \"v2-core-master/contracts/UniswapV2Pair.sol\":5642:5650  reserve1 */\n      swap1\n      div\n      and\n        /* \"v2-core-master/contracts/UniswapV2Pair.sol\":5623:5651  uint(reserve0).mul(reserve1) */\n      0xffffffff\n        /* \"v2-core-master/contracts/UniswapV2Pair.sol\":5623:5641  uint(reserve0).mul */\n      tag_168\n        /* \"v2-core-master/contracts/UniswapV2Pair.sol\":5623:5651  uint(reserve0).mul(reserve1) */\n      and\n      jump\t// in\n    tag_223:\n        /* \"v2-core-master/contracts/UniswapV2Pair.sol\":5615:5620  kLast */\n      0x0d\n        /* \"v2-core-master/contracts/UniswapV2Pair.sol\":5615:5651  kLast = uint(reserve0).mul(reserve1) */\n      sstore\n        /* \"v2-core-master/contracts/UniswapV2Pair.sol\":5604:5651  if (feeOn) kLast = uint(reserve0).mul(reserve1) */\n    tag_222:\n        /* \"v2-core-master/contracts/UniswapV2Pair.sol\":5706:5740  Mint(msg.sender, amount0, amount1) */\n      0x40\n      dup1\n      mload\n      dup6\n      dup2\n      mstore\n      0x20\n      dup2\n      add\n      dup6\n      swap1\n      mstore\n      dup2\n      mload\n        /* \"v2-core-master/contracts/UniswapV2Pair.sol\":5711:5721  msg.sender */\n      caller\n      swap3\n        /* \"v2-core-master/contracts/UniswapV2Pair.sol\":5706:5740  Mint(msg.sender, amount0, amount1) */\n      0x4c209b5fc8ad50758f13e2e1088ba56a560dff690a1c6fef26394f4c03821c4f\n      swap3\n      dup3\n      swap1\n      sub\n      add\n      swap1\n      log2\n      pop\n      pop\n        /* \"v2-core-master/contracts/UniswapV2Pair.sol\":1328:1329  1 */\n      0x01\n        /* \"v2-core-master/contracts/UniswapV2Pair.sol\":1317:1325  unlocked */\n      0x0e\n        /* \"v2-core-master/contracts/UniswapV2Pair.sol\":1317:1329  unlocked = 1 */\n      sstore\n      pop\n        /* \"v2-core-master/contracts/UniswapV2Pair.sol\":4526:5747  function mint(address to) external lock returns (uint liquidity) {... */\n      swap5\n      swap7\n      swap6\n      pop\n      pop\n      pop\n      pop\n      pop\n      pop\n      jump\t// out\n        /* \"v2-core-master/contracts/UniswapV2ERC20.sol\":356:397  mapping(address => uint) public _balances */\n    tag_87:\n      mstore(0x20, 0x01)\n      0x00\n      swap1\n      dup2\n      mstore\n      0x40\n      swap1\n      keccak256\n      sload\n      dup2\n      jump\t// out\n        /* \"v2-core-master/contracts/UniswapV2ERC20.sol\":1447:1580  function balanceOf(address account) external view   returns (uint256) {... */\n    tag_90:\n      sub(shl(0xa0, 0x01), 0x01)\n        /* \"v2-core-master/contracts/UniswapV2ERC20.sol\":1553:1576  _frozenBalance[account] */\n      dup2\n      and\n        /* \"v2-core-master/contracts/UniswapV2ERC20.sol\":1508:1515  uint256 */\n      0x00\n        /* \"v2-core-master/contracts/UniswapV2ERC20.sol\":1553:1576  _frozenBalance[account] */\n      swap1\n      dup2\n      mstore\n        /* \"v2-core-master/contracts/UniswapV2ERC20.sol\":1553:1567  _frozenBalance */\n      0x03\n        /* \"v2-core-master/contracts/UniswapV2ERC20.sol\":1553:1576  _frozenBalance[account] */\n      0x20\n      swap1\n      dup2\n      mstore\n      0x40\n      dup1\n      dup4\n      keccak256\n      sload\n        /* \"v2-core-master/contracts/UniswapV2ERC20.sol\":1530:1539  _balances */\n      0x01\n        /* \"v2-core-master/contracts/UniswapV2ERC20.sol\":1530:1548  _balances[account] */\n      swap1\n      swap3\n      mstore\n      dup3\n      keccak256\n      sload\n        /* \"v2-core-master/contracts/UniswapV2ERC20.sol\":1530:1577  _balances[account].add(_frozenBalance[account]) */\n      tag_225\n      swap2\n      0xffffffff\n        /* \"v2-core-master/contracts/UniswapV2ERC20.sol\":1530:1552  _balances[account].add */\n      tag_226\n        /* \"v2-core-master/contracts/UniswapV2ERC20.sol\":1530:1577  _balances[account].add(_frozenBalance[account]) */\n      and\n      jump\t// in\n    tag_225:\n        /* \"v2-core-master/contracts/UniswapV2ERC20.sol\":1523:1577  return _balances[account].add(_frozenBalance[account]) */\n      swap1\n      pop\n        /* \"v2-core-master/contracts/UniswapV2ERC20.sol\":1447:1580  function balanceOf(address account) external view   returns (uint256) {... */\n    tag_224:\n      swap2\n      swap1\n      pop\n      jump\t// out\n        /* \"v2-core-master/contracts/UniswapV2Pair.sol\":1070:1087  uint public kLast */\n    tag_92:\n      sload(0x0d)\n      dup2\n      jump\t// out\n        /* \"v2-core-master/contracts/UniswapV2ERC20.sol\":793:831  mapping(address => uint) public nonces */\n    tag_95:\n      mstore(0x20, 0x05)\n      0x00\n      swap1\n      dup2\n      mstore\n      0x40\n      swap1\n      keccak256\n      sload\n      dup2\n      jump\t// out\n        /* \"v2-core-master/contracts/UniswapV2Pair.sol\":7200:8611  function burn(address to) external lock returns (uint amount0, uint amount1) {... */\n    tag_98:\n        /* \"v2-core-master/contracts/UniswapV2Pair.sol\":7249:7261  uint amount0 */\n      0x00\n        /* \"v2-core-master/contracts/UniswapV2Pair.sol\":7263:7275  uint amount1 */\n      dup1\n        /* \"v2-core-master/contracts/UniswapV2Pair.sol\":1239:1247  unlocked */\n      sload(0x0e)\n        /* \"v2-core-master/contracts/UniswapV2Pair.sol\":1251:1252  1 */\n      0x01\n        /* \"v2-core-master/contracts/UniswapV2Pair.sol\":1239:1252  unlocked == 1 */\n      eq\n        /* \"v2-core-master/contracts/UniswapV2Pair.sol\":1231:1274  require(unlocked == 1, 'UniswapV2: LOCKED') */\n      tag_228\n      jumpi\n      0x40\n      dup1\n      mload\n      shl(0xe5, 0x461bcd)\n      dup2\n      mstore\n      0x20\n      0x04\n      dup3\n      add\n      mstore\n      0x11\n      0x24\n      dup3\n      add\n      mstore\n      shl(0x7a, 0x155b9a5cddd85c158c8e881313d0d2d151)\n      0x44\n      dup3\n      add\n      mstore\n      swap1\n      mload\n      swap1\n      dup2\n      swap1\n      sub\n      0x64\n      add\n      swap1\n      revert\n    tag_228:\n        /* \"v2-core-master/contracts/UniswapV2Pair.sol\":1295:1296  0 */\n      0x00\n        /* \"v2-core-master/contracts/UniswapV2Pair.sol\":1284:1292  unlocked */\n      0x0e\n        /* \"v2-core-master/contracts/UniswapV2Pair.sol\":1284:1296  unlocked = 0 */\n      dup2\n      swap1\n      sstore\n        /* \"v2-core-master/contracts/UniswapV2Pair.sol\":1295:1296  0 */\n      dup1\n        /* \"v2-core-master/contracts/UniswapV2Pair.sol\":7330:7343  getReserves() */\n      tag_230\n        /* \"v2-core-master/contracts/UniswapV2Pair.sol\":7330:7341  getReserves */\n      tag_55\n        /* \"v2-core-master/contracts/UniswapV2Pair.sol\":7330:7343  getReserves() */\n      jump\t// in\n    tag_230:\n      pop\n        /* \"v2-core-master/contracts/UniswapV2Pair.sol\":7386:7392  token0 */\n      sload(0x08)\n        /* \"v2-core-master/contracts/UniswapV2Pair.sol\":7435:7441  token1 */\n      sload(0x09)\n        /* \"v2-core-master/contracts/UniswapV2Pair.sol\":7482:7522  IERC20(_token0).balanceOf(address(this)) */\n      0x40\n      dup1\n      mload\n      shl(0xe0, 0x70a08231)\n      dup2\n      mstore\n        /* \"v2-core-master/contracts/UniswapV2Pair.sol\":7516:7520  this */\n      address\n        /* \"v2-core-master/contracts/UniswapV2Pair.sol\":7482:7522  IERC20(_token0).balanceOf(address(this)) */\n      0x04\n      dup3\n      add\n      mstore\n      swap1\n      mload\n        /* \"v2-core-master/contracts/UniswapV2Pair.sol\":7287:7343  (uint112 _reserve0, uint112 _reserve1, ) = getReserves() */\n      swap5\n      swap7\n      pop\n      swap3\n      swap5\n      pop\n      sub(shl(0xa0, 0x01), 0x01)\n        /* \"v2-core-master/contracts/UniswapV2Pair.sol\":7386:7392  token0 */\n      swap2\n      dup3\n      and\n      swap4\n        /* \"v2-core-master/contracts/UniswapV2Pair.sol\":7435:7441  token1 */\n      swap2\n      and\n      swap2\n        /* \"v2-core-master/contracts/UniswapV2Pair.sol\":7368:7383  address _token0 */\n      0x00\n      swap2\n        /* \"v2-core-master/contracts/UniswapV2Pair.sol\":7386:7392  token0 */\n      dup5\n      swap2\n        /* \"v2-core-master/contracts/UniswapV2Pair.sol\":7482:7507  IERC20(_token0).balanceOf */\n      0x70a08231\n      swap2\n        /* \"v2-core-master/contracts/UniswapV2Pair.sol\":7482:7522  IERC20(_token0).balanceOf(address(this)) */\n      0x24\n      dup1\n      dup4\n      add\n      swap3\n      0x20\n      swap3\n      swap2\n      swap1\n      dup3\n      swap1\n      sub\n      add\n      dup2\n        /* \"v2-core-master/contracts/UniswapV2Pair.sol\":7386:7392  token0 */\n      dup7\n        /* \"v2-core-master/contracts/UniswapV2Pair.sol\":7482:7522  IERC20(_token0).balanceOf(address(this)) */\n      dup1\n      extcodesize\n      iszero\n        /* \"--CODEGEN--\":5:7   */\n      dup1\n      iszero\n      tag_231\n      jumpi\n        /* \"--CODEGEN--\":30:31   */\n      0x00\n        /* \"--CODEGEN--\":27:28   */\n      dup1\n        /* \"--CODEGEN--\":20:32   */\n      revert\n        /* \"--CODEGEN--\":5:7   */\n    tag_231:\n        /* \"v2-core-master/contracts/UniswapV2Pair.sol\":7482:7522  IERC20(_token0).balanceOf(address(this)) */\n      pop\n      gas\n      staticcall\n      iszero\n        /* \"--CODEGEN--\":8:17   */\n      dup1\n        /* \"--CODEGEN--\":5:7   */\n      iszero\n      tag_232\n      jumpi\n        /* \"--CODEGEN--\":45:61   */\n      returndatasize\n        /* \"--CODEGEN--\":42:43   */\n      0x00\n        /* \"--CODEGEN--\":39:40   */\n      dup1\n        /* \"--CODEGEN--\":24:62   */\n      returndatacopy\n        /* \"--CODEGEN--\":77:93   */\n      returndatasize\n        /* \"--CODEGEN--\":74:75   */\n      0x00\n        /* \"--CODEGEN--\":67:94   */\n      revert\n        /* \"--CODEGEN--\":5:7   */\n    tag_232:\n        /* \"v2-core-master/contracts/UniswapV2Pair.sol\":7482:7522  IERC20(_token0).balanceOf(address(this)) */\n      pop\n      pop\n      pop\n      pop\n      mload(0x40)\n      returndatasize\n        /* \"--CODEGEN--\":13:15   */\n      0x20\n        /* \"--CODEGEN--\":8:11   */\n      dup2\n        /* \"--CODEGEN--\":5:16   */\n      lt\n        /* \"--CODEGEN--\":2:4   */\n      iszero\n      tag_233\n      jumpi\n        /* \"--CODEGEN--\":29:30   */\n      0x00\n        /* \"--CODEGEN--\":26:27   */\n      dup1\n        /* \"--CODEGEN--\":19:31   */\n      revert\n        /* \"--CODEGEN--\":2:4   */\n    tag_233:\n      pop\n        /* \"v2-core-master/contracts/UniswapV2Pair.sol\":7482:7522  IERC20(_token0).balanceOf(address(this)) */\n      mload\n        /* \"v2-core-master/contracts/UniswapV2Pair.sol\":7548:7588  IERC20(_token1).balanceOf(address(this)) */\n      0x40\n      dup1\n      mload\n      shl(0xe0, 0x70a08231)\n      dup2\n      mstore\n        /* \"v2-core-master/contracts/UniswapV2Pair.sol\":7582:7586  this */\n      address\n        /* \"v2-core-master/contracts/UniswapV2Pair.sol\":7548:7588  IERC20(_token1).balanceOf(address(this)) */\n      0x04\n      dup3\n      add\n      mstore\n      swap1\n      mload\n        /* \"v2-core-master/contracts/UniswapV2Pair.sol\":7482:7522  IERC20(_token0).balanceOf(address(this)) */\n      swap2\n      swap3\n      pop\n        /* \"v2-core-master/contracts/UniswapV2Pair.sol\":7532:7545  uint balance1 */\n      0x00\n      swap2\n      sub(shl(0xa0, 0x01), 0x01)\n        /* \"v2-core-master/contracts/UniswapV2Pair.sol\":7548:7573  IERC20(_token1).balanceOf */\n      dup6\n      and\n      swap2\n      0x70a08231\n      swap2\n        /* \"v2-core-master/contracts/UniswapV2Pair.sol\":7548:7588  IERC20(_token1).balanceOf(address(this)) */\n      0x24\n      dup1\n      dup4\n      add\n      swap3\n        /* \"v2-core-master/contracts/UniswapV2Pair.sol\":7482:7522  IERC20(_token0).balanceOf(address(this)) */\n      0x20\n      swap3\n        /* \"v2-core-master/contracts/UniswapV2Pair.sol\":7548:7588  IERC20(_token1).balanceOf(address(this)) */\n      swap2\n      swap1\n      dup3\n      swap1\n      sub\n      add\n      dup2\n        /* \"v2-core-master/contracts/UniswapV2Pair.sol\":7548:7573  IERC20(_token1).balanceOf */\n      dup7\n        /* \"v2-core-master/contracts/UniswapV2Pair.sol\":7548:7588  IERC20(_token1).balanceOf(address(this)) */\n      dup1\n      extcodesize\n      iszero\n        /* \"--CODEGEN--\":5:7   */\n      dup1\n      iszero\n      tag_234\n      jumpi\n        /* \"--CODEGEN--\":30:31   */\n      0x00\n        /* \"--CODEGEN--\":27:28   */\n      dup1\n        /* \"--CODEGEN--\":20:32   */\n      revert\n        /* \"--CODEGEN--\":5:7   */\n    tag_234:\n        /* \"v2-core-master/contracts/UniswapV2Pair.sol\":7548:7588  IERC20(_token1).balanceOf(address(this)) */\n      pop\n      gas\n      staticcall\n      iszero\n        /* \"--CODEGEN--\":8:17   */\n      dup1\n        /* \"--CODEGEN--\":5:7   */\n      iszero\n      tag_235\n      jumpi\n        /* \"--CODEGEN--\":45:61   */\n      returndatasize\n        /* \"--CODEGEN--\":42:43   */\n      0x00\n        /* \"--CODEGEN--\":39:40   */\n      dup1\n        /* \"--CODEGEN--\":24:62   */\n      returndatacopy\n        /* \"--CODEGEN--\":77:93   */\n      returndatasize\n        /* \"--CODEGEN--\":74:75   */\n      0x00\n        /* \"--CODEGEN--\":67:94   */\n      revert\n        /* \"--CODEGEN--\":5:7   */\n    tag_235:\n        /* \"v2-core-master/contracts/UniswapV2Pair.sol\":7548:7588  IERC20(_token1).balanceOf(address(this)) */\n      pop\n      pop\n      pop\n      pop\n      mload(0x40)\n      returndatasize\n        /* \"--CODEGEN--\":13:15   */\n      0x20\n        /* \"--CODEGEN--\":8:11   */\n      dup2\n        /* \"--CODEGEN--\":5:16   */\n      lt\n        /* \"--CODEGEN--\":2:4   */\n      iszero\n      tag_236\n      jumpi\n        /* \"--CODEGEN--\":29:30   */\n      0x00\n        /* \"--CODEGEN--\":26:27   */\n      dup1\n        /* \"--CODEGEN--\":19:31   */\n      revert\n        /* \"--CODEGEN--\":2:4   */\n    tag_236:\n      pop\n        /* \"v2-core-master/contracts/UniswapV2Pair.sol\":7548:7588  IERC20(_token1).balanceOf(address(this)) */\n      mload\n        /* \"v2-core-master/contracts/UniswapV2Pair.sol\":7633:7637  this */\n      address\n        /* \"v2-core-master/contracts/UniswapV2Pair.sol\":7598:7612  uint liquidity */\n      0x00\n        /* \"v2-core-master/contracts/UniswapV2Pair.sol\":7615:7639  _balances[address(this)] */\n      swap1\n      dup2\n      mstore\n        /* \"v2-core-master/contracts/UniswapV2Pair.sol\":7615:7624  _balances */\n      0x01\n        /* \"v2-core-master/contracts/UniswapV2Pair.sol\":7548:7588  IERC20(_token1).balanceOf(address(this)) */\n      0x20\n        /* \"v2-core-master/contracts/UniswapV2Pair.sol\":7615:7639  _balances[address(this)] */\n      mstore\n      0x40\n      dup2\n      keccak256\n      sload\n        /* \"v2-core-master/contracts/UniswapV2Pair.sol\":7548:7588  IERC20(_token1).balanceOf(address(this)) */\n      swap2\n      swap3\n      pop\n        /* \"v2-core-master/contracts/UniswapV2Pair.sol\":7691:7721  _mintFee(_reserve0, _reserve1) */\n      tag_237\n        /* \"v2-core-master/contracts/UniswapV2Pair.sol\":7700:7709  _reserve0 */\n      dup9\n        /* \"v2-core-master/contracts/UniswapV2Pair.sol\":7711:7720  _reserve1 */\n      dup9\n        /* \"v2-core-master/contracts/UniswapV2Pair.sol\":7691:7699  _mintFee */\n      tag_204\n        /* \"v2-core-master/contracts/UniswapV2Pair.sol\":7691:7721  _mintFee(_reserve0, _reserve1) */\n      jump\t// in\n    tag_237:\n        /* \"v2-core-master/contracts/UniswapV2Pair.sol\":7731:7748  uint _totalSupply */\n      0x00\n        /* \"v2-core-master/contracts/UniswapV2Pair.sol\":7751:7762  totalSupply */\n      sload\n        /* \"v2-core-master/contracts/UniswapV2Pair.sol\":7678:7721  bool feeOn = _mintFee(_reserve0, _reserve1) */\n      swap1\n      swap2\n      pop\n        /* \"v2-core-master/contracts/UniswapV2Pair.sol\":7751:7762  totalSupply */\n      dup1\n        /* \"v2-core-master/contracts/UniswapV2Pair.sol\":7860:7883  liquidity.mul(balance0) */\n      tag_238\n        /* \"v2-core-master/contracts/UniswapV2Pair.sol\":7860:7869  liquidity */\n      dup5\n        /* \"v2-core-master/contracts/UniswapV2Pair.sol\":7874:7882  balance0 */\n      dup8\n        /* \"v2-core-master/contracts/UniswapV2Pair.sol\":7860:7883  liquidity.mul(balance0) */\n      0xffffffff\n        /* \"v2-core-master/contracts/UniswapV2Pair.sol\":7860:7873  liquidity.mul */\n      tag_168\n        /* \"v2-core-master/contracts/UniswapV2Pair.sol\":7860:7883  liquidity.mul(balance0) */\n      and\n      jump\t// in\n    tag_238:\n        /* \"v2-core-master/contracts/UniswapV2Pair.sol\":7860:7898  liquidity.mul(balance0) / _totalSupply */\n      dup2\n      tag_239\n      jumpi\n      invalid\n    tag_239:\n      div\n      swap11\n      pop\n        /* \"v2-core-master/contracts/UniswapV2Pair.sol\":7992:8004  _totalSupply */\n      dup1\n        /* \"v2-core-master/contracts/UniswapV2Pair.sol\":7966:7989  liquidity.mul(balance1) */\n      tag_240\n        /* \"v2-core-master/contracts/UniswapV2Pair.sol\":7966:7975  liquidity */\n      dup5\n        /* \"v2-core-master/contracts/UniswapV2Pair.sol\":7980:7988  balance1 */\n      dup7\n        /* \"v2-core-master/contracts/UniswapV2Pair.sol\":7966:7989  liquidity.mul(balance1) */\n      0xffffffff\n        /* \"v2-core-master/contracts/UniswapV2Pair.sol\":7966:7979  liquidity.mul */\n      tag_168\n        /* \"v2-core-master/contracts/UniswapV2Pair.sol\":7966:7989  liquidity.mul(balance1) */\n      and\n      jump\t// in\n    tag_240:\n        /* \"v2-core-master/contracts/UniswapV2Pair.sol\":7966:8004  liquidity.mul(balance1) / _totalSupply */\n      dup2\n      tag_241\n      jumpi\n      invalid\n    tag_241:\n      div\n        /* \"v2-core-master/contracts/UniswapV2Pair.sol\":7956:8004  amount1 = liquidity.mul(balance1) / _totalSupply */\n      swap10\n      pop\n        /* \"v2-core-master/contracts/UniswapV2Pair.sol\":8080:8081  0 */\n      0x00\n        /* \"v2-core-master/contracts/UniswapV2Pair.sol\":8070:8077  amount0 */\n      dup12\n        /* \"v2-core-master/contracts/UniswapV2Pair.sol\":8070:8081  amount0 > 0 */\n      gt\n        /* \"v2-core-master/contracts/UniswapV2Pair.sol\":8070:8096  amount0 > 0 && amount1 > 0 */\n      dup1\n      iszero\n      tag_242\n      jumpi\n      pop\n        /* \"v2-core-master/contracts/UniswapV2Pair.sol\":8095:8096  0 */\n      0x00\n        /* \"v2-core-master/contracts/UniswapV2Pair.sol\":8085:8092  amount1 */\n      dup11\n        /* \"v2-core-master/contracts/UniswapV2Pair.sol\":8085:8096  amount1 > 0 */\n      gt\n        /* \"v2-core-master/contracts/UniswapV2Pair.sol\":8070:8096  amount0 > 0 && amount1 > 0 */\n    tag_242:\n        /* \"v2-core-master/contracts/UniswapV2Pair.sol\":8062:8141  require(amount0 > 0 && amount1 > 0, 'UniswapV2: INSUFFICIENT_LIQUIDITY_BURNED') */\n      tag_243\n      jumpi\n      mload(0x40)\n      shl(0xe5, 0x461bcd)\n      dup2\n      mstore\n      0x04\n      add\n      dup1\n      dup1\n      0x20\n      add\n      dup3\n      dup2\n      sub\n      dup3\n      mstore\n      0x28\n      dup2\n      mstore\n      0x20\n      add\n      dup1\n      data_57ebfb4dd8b5082cdba0f23c17077e3b0ecb9782a51e0e9a15e9bc8c4b30c562\n      0x28\n      swap2\n      codecopy\n      0x40\n      add\n      swap2\n      pop\n      pop\n      mload(0x40)\n      dup1\n      swap2\n      sub\n      swap1\n      revert\n    tag_243:\n        /* \"v2-core-master/contracts/UniswapV2Pair.sol\":8151:8182  _burn(address(this), liquidity) */\n      tag_244\n        /* \"v2-core-master/contracts/UniswapV2Pair.sol\":8165:8169  this */\n      address\n        /* \"v2-core-master/contracts/UniswapV2Pair.sol\":8172:8181  liquidity */\n      dup5\n        /* \"v2-core-master/contracts/UniswapV2Pair.sol\":8151:8156  _burn */\n      tag_245\n        /* \"v2-core-master/contracts/UniswapV2Pair.sol\":8151:8182  _burn(address(this), liquidity) */\n      jump\t// in\n    tag_244:\n        /* \"v2-core-master/contracts/UniswapV2Pair.sol\":8192:8227  _safeTransfer(_token0, to, amount0) */\n      tag_246\n        /* \"v2-core-master/contracts/UniswapV2Pair.sol\":8206:8213  _token0 */\n      dup8\n        /* \"v2-core-master/contracts/UniswapV2Pair.sol\":8215:8217  to */\n      dup14\n        /* \"v2-core-master/contracts/UniswapV2Pair.sol\":8219:8226  amount0 */\n      dup14\n        /* \"v2-core-master/contracts/UniswapV2Pair.sol\":8192:8205  _safeTransfer */\n      tag_148\n        /* \"v2-core-master/contracts/UniswapV2Pair.sol\":8192:8227  _safeTransfer(_token0, to, amount0) */\n      jump\t// in\n    tag_246:\n        /* \"v2-core-master/contracts/UniswapV2Pair.sol\":8237:8272  _safeTransfer(_token1, to, amount1) */\n      tag_247\n        /* \"v2-core-master/contracts/UniswapV2Pair.sol\":8251:8258  _token1 */\n      dup7\n        /* \"v2-core-master/contracts/UniswapV2Pair.sol\":8260:8262  to */\n      dup14\n        /* \"v2-core-master/contracts/UniswapV2Pair.sol\":8264:8271  amount1 */\n      dup13\n        /* \"v2-core-master/contracts/UniswapV2Pair.sol\":8237:8250  _safeTransfer */\n      tag_148\n        /* \"v2-core-master/contracts/UniswapV2Pair.sol\":8237:8272  _safeTransfer(_token1, to, amount1) */\n      jump\t// in\n    tag_247:\n        /* \"v2-core-master/contracts/UniswapV2Pair.sol\":8293:8333  IERC20(_token0).balanceOf(address(this)) */\n      0x40\n      dup1\n      mload\n      shl(0xe0, 0x70a08231)\n      dup2\n      mstore\n        /* \"v2-core-master/contracts/UniswapV2Pair.sol\":8327:8331  this */\n      address\n        /* \"v2-core-master/contracts/UniswapV2Pair.sol\":8293:8333  IERC20(_token0).balanceOf(address(this)) */\n      0x04\n      dup3\n      add\n      mstore\n      swap1\n      mload\n      sub(shl(0xa0, 0x01), 0x01)\n        /* \"v2-core-master/contracts/UniswapV2Pair.sol\":8293:8318  IERC20(_token0).balanceOf */\n      dup10\n      and\n      swap2\n      0x70a08231\n      swap2\n        /* \"v2-core-master/contracts/UniswapV2Pair.sol\":8293:8333  IERC20(_token0).balanceOf(address(this)) */\n      0x24\n      dup1\n      dup4\n      add\n      swap3\n      0x20\n      swap3\n      swap2\n      swap1\n      dup3\n      swap1\n      sub\n      add\n      dup2\n        /* \"v2-core-master/contracts/UniswapV2Pair.sol\":8293:8318  IERC20(_token0).balanceOf */\n      dup7\n        /* \"v2-core-master/contracts/UniswapV2Pair.sol\":8293:8333  IERC20(_token0).balanceOf(address(this)) */\n      dup1\n      extcodesize\n      iszero\n        /* \"--CODEGEN--\":5:7   */\n      dup1\n      iszero\n      tag_248\n      jumpi\n        /* \"--CODEGEN--\":30:31   */\n      0x00\n        /* \"--CODEGEN--\":27:28   */\n      dup1\n        /* \"--CODEGEN--\":20:32   */\n      revert\n        /* \"--CODEGEN--\":5:7   */\n    tag_248:\n        /* \"v2-core-master/contracts/UniswapV2Pair.sol\":8293:8333  IERC20(_token0).balanceOf(address(this)) */\n      pop\n      gas\n      staticcall\n      iszero\n        /* \"--CODEGEN--\":8:17   */\n      dup1\n        /* \"--CODEGEN--\":5:7   */\n      iszero\n      tag_249\n      jumpi\n        /* \"--CODEGEN--\":45:61   */\n      returndatasize\n        /* \"--CODEGEN--\":42:43   */\n      0x00\n        /* \"--CODEGEN--\":39:40   */\n      dup1\n        /* \"--CODEGEN--\":24:62   */\n      returndatacopy\n        /* \"--CODEGEN--\":77:93   */\n      returndatasize\n        /* \"--CODEGEN--\":74:75   */\n      0x00\n        /* \"--CODEGEN--\":67:94   */\n      revert\n        /* \"--CODEGEN--\":5:7   */\n    tag_249:\n        /* \"v2-core-master/contracts/UniswapV2Pair.sol\":8293:8333  IERC20(_token0).balanceOf(address(this)) */\n      pop\n      pop\n      pop\n      pop\n      mload(0x40)\n      returndatasize\n        /* \"--CODEGEN--\":13:15   */\n      0x20\n        /* \"--CODEGEN--\":8:11   */\n      dup2\n        /* \"--CODEGEN--\":5:16   */\n      lt\n        /* \"--CODEGEN--\":2:4   */\n      iszero\n      tag_250\n      jumpi\n        /* \"--CODEGEN--\":29:30   */\n      0x00\n        /* \"--CODEGEN--\":26:27   */\n      dup1\n        /* \"--CODEGEN--\":19:31   */\n      revert\n        /* \"--CODEGEN--\":2:4   */\n    tag_250:\n      pop\n        /* \"v2-core-master/contracts/UniswapV2Pair.sol\":8293:8333  IERC20(_token0).balanceOf(address(this)) */\n      mload\n        /* \"v2-core-master/contracts/UniswapV2Pair.sol\":8354:8394  IERC20(_token1).balanceOf(address(this)) */\n      0x40\n      dup1\n      mload\n      shl(0xe0, 0x70a08231)\n      dup2\n      mstore\n        /* \"v2-core-master/contracts/UniswapV2Pair.sol\":8388:8392  this */\n      address\n        /* \"v2-core-master/contracts/UniswapV2Pair.sol\":8354:8394  IERC20(_token1).balanceOf(address(this)) */\n      0x04\n      dup3\n      add\n      mstore\n      swap1\n      mload\n        /* \"v2-core-master/contracts/UniswapV2Pair.sol\":8293:8333  IERC20(_token0).balanceOf(address(this)) */\n      swap2\n      swap7\n      pop\n      sub(shl(0xa0, 0x01), 0x01)\n        /* \"v2-core-master/contracts/UniswapV2Pair.sol\":8354:8379  IERC20(_token1).balanceOf */\n      dup9\n      and\n      swap2\n      0x70a08231\n      swap2\n        /* \"v2-core-master/contracts/UniswapV2Pair.sol\":8354:8394  IERC20(_token1).balanceOf(address(this)) */\n      0x24\n      dup1\n      dup3\n      add\n      swap3\n        /* \"v2-core-master/contracts/UniswapV2Pair.sol\":8293:8333  IERC20(_token0).balanceOf(address(this)) */\n      0x20\n      swap3\n        /* \"v2-core-master/contracts/UniswapV2Pair.sol\":8354:8394  IERC20(_token1).balanceOf(address(this)) */\n      swap1\n      swap2\n      swap1\n      dup3\n      swap1\n      sub\n      add\n      dup2\n        /* \"v2-core-master/contracts/UniswapV2Pair.sol\":8354:8379  IERC20(_token1).balanceOf */\n      dup7\n        /* \"v2-core-master/contracts/UniswapV2Pair.sol\":8354:8394  IERC20(_token1).balanceOf(address(this)) */\n      dup1\n      extcodesize\n      iszero\n        /* \"--CODEGEN--\":5:7   */\n      dup1\n      iszero\n      tag_251\n      jumpi\n        /* \"--CODEGEN--\":30:31   */\n      0x00\n        /* \"--CODEGEN--\":27:28   */\n      dup1\n        /* \"--CODEGEN--\":20:32   */\n      revert\n        /* \"--CODEGEN--\":5:7   */\n    tag_251:\n        /* \"v2-core-master/contracts/UniswapV2Pair.sol\":8354:8394  IERC20(_token1).balanceOf(address(this)) */\n      pop\n      gas\n      staticcall\n      iszero\n        /* \"--CODEGEN--\":8:17   */\n      dup1\n        /* \"--CODEGEN--\":5:7   */\n      iszero\n      tag_252\n      jumpi\n        /* \"--CODEGEN--\":45:61   */\n      returndatasize\n        /* \"--CODEGEN--\":42:43   */\n      0x00\n        /* \"--CODEGEN--\":39:40   */\n      dup1\n        /* \"--CODEGEN--\":24:62   */\n      returndatacopy\n        /* \"--CODEGEN--\":77:93   */\n      returndatasize\n        /* \"--CODEGEN--\":74:75   */\n      0x00\n        /* \"--CODEGEN--\":67:94   */\n      revert\n        /* \"--CODEGEN--\":5:7   */\n    tag_252:\n        /* \"v2-core-master/contracts/UniswapV2Pair.sol\":8354:8394  IERC20(_token1).balanceOf(address(this)) */\n      pop\n      pop\n      pop\n      pop\n      mload(0x40)\n      returndatasize\n        /* \"--CODEGEN--\":13:15   */\n      0x20\n        /* \"--CODEGEN--\":8:11   */\n      dup2\n        /* \"--CODEGEN--\":5:16   */\n      lt\n        /* \"--CODEGEN--\":2:4   */\n      iszero\n      tag_253\n      jumpi\n        /* \"--CODEGEN--\":29:30   */\n      0x00\n        /* \"--CODEGEN--\":26:27   */\n      dup1\n        /* \"--CODEGEN--\":19:31   */\n      revert\n        /* \"--CODEGEN--\":2:4   */\n    tag_253:\n      pop\n        /* \"v2-core-master/contracts/UniswapV2Pair.sol\":8354:8394  IERC20(_token1).balanceOf(address(this)) */\n      mload\n      swap4\n      pop\n        /* \"v2-core-master/contracts/UniswapV2Pair.sol\":8405:8454  _update(balance0, balance1, _reserve0, _reserve1) */\n      tag_254\n        /* \"v2-core-master/contracts/UniswapV2Pair.sol\":8413:8421  balance0 */\n      dup6\n        /* \"v2-core-master/contracts/UniswapV2Pair.sol\":8354:8394  IERC20(_token1).balanceOf(address(this)) */\n      dup6\n        /* \"v2-core-master/contracts/UniswapV2Pair.sol\":8433:8442  _reserve0 */\n      dup12\n        /* \"v2-core-master/contracts/UniswapV2Pair.sol\":8444:8453  _reserve1 */\n      dup12\n        /* \"v2-core-master/contracts/UniswapV2Pair.sol\":8405:8412  _update */\n      tag_179\n        /* \"v2-core-master/contracts/UniswapV2Pair.sol\":8405:8454  _update(balance0, balance1, _reserve0, _reserve1) */\n      jump\t// in\n    tag_254:\n        /* \"v2-core-master/contracts/UniswapV2Pair.sol\":8468:8473  feeOn */\n      dup2\n        /* \"v2-core-master/contracts/UniswapV2Pair.sol\":8464:8511  if (feeOn) kLast = uint(reserve0).mul(reserve1) */\n      iszero\n      tag_255\n      jumpi\n        /* \"v2-core-master/contracts/UniswapV2Pair.sol\":8502:8510  reserve1 */\n      sload(0x0a)\n        /* \"v2-core-master/contracts/UniswapV2Pair.sol\":8483:8511  uint(reserve0).mul(reserve1) */\n      tag_256\n      swap1\n      sub(shl(0x70, 0x01), 0x01)\n        /* \"v2-core-master/contracts/UniswapV2Pair.sol\":8488:8496  reserve0 */\n      dup1\n      dup3\n      and\n      swap2\n      shl(0x70, 0x01)\n        /* \"v2-core-master/contracts/UniswapV2Pair.sol\":8502:8510  reserve1 */\n      swap1\n      div\n      and\n        /* \"v2-core-master/contracts/UniswapV2Pair.sol\":8483:8511  uint(reserve0).mul(reserve1) */\n      0xffffffff\n        /* \"v2-core-master/contracts/UniswapV2Pair.sol\":8483:8501  uint(reserve0).mul */\n      tag_168\n        /* \"v2-core-master/contracts/UniswapV2Pair.sol\":8483:8511  uint(reserve0).mul(reserve1) */\n      and\n      jump\t// in\n    tag_256:\n        /* \"v2-core-master/contracts/UniswapV2Pair.sol\":8475:8480  kLast */\n      0x0d\n        /* \"v2-core-master/contracts/UniswapV2Pair.sol\":8475:8511  kLast = uint(reserve0).mul(reserve1) */\n      sstore\n        /* \"v2-core-master/contracts/UniswapV2Pair.sol\":8464:8511  if (feeOn) kLast = uint(reserve0).mul(reserve1) */\n    tag_255:\n        /* \"v2-core-master/contracts/UniswapV2Pair.sol\":8566:8604  Burn(msg.sender, amount0, amount1, to) */\n      0x40\n      dup1\n      mload\n      dup13\n      dup2\n      mstore\n      0x20\n      dup2\n      add\n      dup13\n      swap1\n      mstore\n      dup2\n      mload\n      sub(shl(0xa0, 0x01), 0x01)\n      dup16\n      and\n      swap3\n        /* \"v2-core-master/contracts/UniswapV2Pair.sol\":8571:8581  msg.sender */\n      caller\n      swap3\n        /* \"v2-core-master/contracts/UniswapV2Pair.sol\":8566:8604  Burn(msg.sender, amount0, amount1, to) */\n      0xdccd412f0b1252819cb1fd330b93224ca42612892bb3f4f789976e6d81936496\n      swap3\n      swap1\n      dup2\n      swap1\n      sub\n      swap1\n      swap2\n      add\n      swap1\n      log3\n        /* \"v2-core-master/contracts/UniswapV2Pair.sol\":1306:1307  _ */\n      pop\n      pop\n      pop\n      pop\n      pop\n      pop\n      pop\n      pop\n      pop\n        /* \"v2-core-master/contracts/UniswapV2Pair.sol\":1328:1329  1 */\n      0x01\n        /* \"v2-core-master/contracts/UniswapV2Pair.sol\":1317:1325  unlocked */\n      0x0e\n        /* \"v2-core-master/contracts/UniswapV2Pair.sol\":1317:1329  unlocked = 1 */\n      dup2\n      swap1\n      sstore\n      pop\n        /* \"v2-core-master/contracts/UniswapV2Pair.sol\":7200:8611  function burn(address to) external lock returns (uint amount0, uint amount1) {... */\n      swap2\n      pop\n      swap2\n      jump\t// out\n        /* \"v2-core-master/contracts/UniswapV2Pair.sol\":416:487  address public  FeeResiver = 0xa66e96ccd65312c4e18C38FdFb673759BC5170D1 */\n    tag_100:\n      and(sub(shl(0xa0, 0x01), 0x01), sload(0x06))\n      dup2\n      jump\t// out\n        /* \"v2-core-master/contracts/UniswapV2ERC20.sol\":241:280  string public constant symbol = 'ESWAP' */\n    tag_102:\n      mload(0x40)\n      dup1\n      0x40\n      add\n      0x40\n      mstore\n      dup1\n      0x05\n      dup2\n      mstore\n      0x20\n      add\n      shl(0xdc, 0x0455357415)\n      dup2\n      mstore\n      pop\n      dup2\n      jump\t// out\n        /* \"v2-core-master/contracts/UniswapV2ERC20.sol\":3010:3146  function transfer(address to, uint value) external returns (bool) {... */\n    tag_109:\n        /* \"v2-core-master/contracts/UniswapV2ERC20.sol\":3070:3074  bool */\n      0x00\n        /* \"v2-core-master/contracts/UniswapV2ERC20.sol\":3086:3118  _transfer(msg.sender, to, value) */\n      tag_182\n        /* \"v2-core-master/contracts/UniswapV2ERC20.sol\":3096:3106  msg.sender */\n      caller\n        /* \"v2-core-master/contracts/UniswapV2ERC20.sol\":3108:3110  to */\n      dup5\n        /* \"v2-core-master/contracts/UniswapV2ERC20.sol\":3112:3117  value */\n      dup5\n        /* \"v2-core-master/contracts/UniswapV2ERC20.sol\":3086:3095  _transfer */\n      tag_188\n        /* \"v2-core-master/contracts/UniswapV2ERC20.sol\":3086:3118  _transfer(msg.sender, to, value) */\n      jump\t// in\n        /* \"v2-core-master/contracts/UniswapV2Pair.sol\":10826:13529  function swaptax(uint amount0Out, uint amount1Out, address to, bytes calldata data) external lock {... */\n    tag_115:\n        /* \"v2-core-master/contracts/UniswapV2Pair.sol\":1239:1247  unlocked */\n      sload(0x0e)\n        /* \"v2-core-master/contracts/UniswapV2Pair.sol\":1251:1252  1 */\n      0x01\n        /* \"v2-core-master/contracts/UniswapV2Pair.sol\":1239:1252  unlocked == 1 */\n      eq\n        /* \"v2-core-master/contracts/UniswapV2Pair.sol\":1231:1274  require(unlocked == 1, 'UniswapV2: LOCKED') */\n      tag_260\n      jumpi\n      0x40\n      dup1\n      mload\n      shl(0xe5, 0x461bcd)\n      dup2\n      mstore\n      0x20\n      0x04\n      dup3\n      add\n      mstore\n      0x11\n      0x24\n      dup3\n      add\n      mstore\n      shl(0x7a, 0x155b9a5cddd85c158c8e881313d0d2d151)\n      0x44\n      dup3\n      add\n      mstore\n      swap1\n      mload\n      swap1\n      dup2\n      swap1\n      sub\n      0x64\n      add\n      swap1\n      revert\n    tag_260:\n        /* \"v2-core-master/contracts/UniswapV2Pair.sol\":1295:1296  0 */\n      0x00\n        /* \"v2-core-master/contracts/UniswapV2Pair.sol\":1284:1292  unlocked */\n      0x0e\n        /* \"v2-core-master/contracts/UniswapV2Pair.sol\":1284:1296  unlocked = 0 */\n      sstore\n        /* \"v2-core-master/contracts/UniswapV2Pair.sol\":10942:10956  amount0Out > 0 */\n      dup5\n      iszero\n      iszero\n      dup1\n        /* \"v2-core-master/contracts/UniswapV2Pair.sol\":10942:10974  amount0Out > 0 || amount1Out > 0 */\n      tag_262\n      jumpi\n      pop\n        /* \"v2-core-master/contracts/UniswapV2Pair.sol\":10973:10974  0 */\n      0x00\n        /* \"v2-core-master/contracts/UniswapV2Pair.sol\":10960:10970  amount1Out */\n      dup5\n        /* \"v2-core-master/contracts/UniswapV2Pair.sol\":10960:10974  amount1Out > 0 */\n      gt\n        /* \"v2-core-master/contracts/UniswapV2Pair.sol\":10942:10974  amount0Out > 0 || amount1Out > 0 */\n    tag_262:\n        /* \"v2-core-master/contracts/UniswapV2Pair.sol\":10934:11016  require(amount0Out > 0 || amount1Out > 0, 'UniswapV2: INSUFFICIENT_OUTPUT_AMOUNT') */\n      tag_263\n      jumpi\n      mload(0x40)\n      shl(0xe5, 0x461bcd)\n      dup2\n      mstore\n      0x04\n      add\n      dup1\n      dup1\n      0x20\n      add\n      dup3\n      dup2\n      sub\n      dup3\n      mstore\n      0x25\n      dup2\n      mstore\n      0x20\n      add\n      dup1\n      data_05339493da7e2cbe77e17beadf6b91132eb307939495f5f1797bf88d95539e83\n      0x25\n      swap2\n      codecopy\n      0x40\n      add\n      swap2\n      pop\n      pop\n      mload(0x40)\n      dup1\n      swap2\n      sub\n      swap1\n      revert\n    tag_263:\n        /* \"v2-core-master/contracts/UniswapV2Pair.sol\":11027:11044  uint112 _reserve0 */\n      0x00\n        /* \"v2-core-master/contracts/UniswapV2Pair.sol\":11046:11063  uint112 _reserve1 */\n      dup1\n        /* \"v2-core-master/contracts/UniswapV2Pair.sol\":11069:11082  getReserves() */\n      tag_264\n        /* \"v2-core-master/contracts/UniswapV2Pair.sol\":11069:11080  getReserves */\n      tag_55\n        /* \"v2-core-master/contracts/UniswapV2Pair.sol\":11069:11082  getReserves() */\n      jump\t// in\n    tag_264:\n        /* \"v2-core-master/contracts/UniswapV2Pair.sol\":11026:11082  (uint112 _reserve0, uint112 _reserve1, ) = getReserves() */\n      pop\n      swap2\n      pop\n      swap2\n      pop\n        /* \"v2-core-master/contracts/UniswapV2Pair.sol\":11127:11136  _reserve0 */\n      dup2\n      sub(shl(0x70, 0x01), 0x01)\n        /* \"v2-core-master/contracts/UniswapV2Pair.sol\":11114:11136  amount0Out < _reserve0 */\n      and\n        /* \"v2-core-master/contracts/UniswapV2Pair.sol\":11114:11124  amount0Out */\n      dup8\n        /* \"v2-core-master/contracts/UniswapV2Pair.sol\":11114:11136  amount0Out < _reserve0 */\n      lt\n        /* \"v2-core-master/contracts/UniswapV2Pair.sol\":11114:11162  amount0Out < _reserve0 && amount1Out < _reserve1 */\n      dup1\n      iszero\n      tag_265\n      jumpi\n      pop\n        /* \"v2-core-master/contracts/UniswapV2Pair.sol\":11153:11162  _reserve1 */\n      dup1\n      sub(shl(0x70, 0x01), 0x01)\n        /* \"v2-core-master/contracts/UniswapV2Pair.sol\":11140:11162  amount1Out < _reserve1 */\n      and\n        /* \"v2-core-master/contracts/UniswapV2Pair.sol\":11140:11150  amount1Out */\n      dup7\n        /* \"v2-core-master/contracts/UniswapV2Pair.sol\":11140:11162  amount1Out < _reserve1 */\n      lt\n        /* \"v2-core-master/contracts/UniswapV2Pair.sol\":11114:11162  amount0Out < _reserve0 && amount1Out < _reserve1 */\n    tag_265:\n        /* \"v2-core-master/contracts/UniswapV2Pair.sol\":11106:11200  require(amount0Out < _reserve0 && amount1Out < _reserve1, 'UniswapV2: INSUFFICIENT_LIQUIDITY') */\n      tag_266\n      jumpi\n      mload(0x40)\n      shl(0xe5, 0x461bcd)\n      dup2\n      mstore\n      0x04\n      add\n      dup1\n      dup1\n      0x20\n      add\n      dup3\n      dup2\n      sub\n      dup3\n      mstore\n      0x21\n      dup2\n      mstore\n      0x20\n      add\n      dup1\n      data_3f354ef449b2a9b081220ce21f57691008110b653edc191d8288e60cef58bb5f\n      0x21\n      swap2\n      codecopy\n      0x40\n      add\n      swap2\n      pop\n      pop\n      mload(0x40)\n      dup1\n      swap2\n      sub\n      swap1\n      revert\n    tag_266:\n        /* \"v2-core-master/contracts/UniswapV2Pair.sol\":11371:11377  token0 */\n      sload(0x08)\n        /* \"v2-core-master/contracts/UniswapV2Pair.sol\":11409:11415  token1 */\n      sload(0x09)\n        /* \"v2-core-master/contracts/UniswapV2Pair.sol\":11211:11224  uint balance0 */\n      0x00\n      swap2\n      dup3\n      swap2\n      sub(shl(0xa0, 0x01), 0x01)\n        /* \"v2-core-master/contracts/UniswapV2Pair.sol\":11371:11377  token0 */\n      swap2\n      dup3\n      and\n      swap2\n        /* \"v2-core-master/contracts/UniswapV2Pair.sol\":11409:11415  token1 */\n      and\n        /* \"v2-core-master/contracts/UniswapV2Pair.sol\":11211:11224  uint balance0 */\n      dup3\n        /* \"v2-core-master/contracts/UniswapV2Pair.sol\":11477:11480  100 */\n      0x64\n        /* \"v2-core-master/contracts/UniswapV2Pair.sol\":11475:11476  5 */\n      0x05\n        /* \"v2-core-master/contracts/UniswapV2Pair.sol\":11462:11476  amount0Out * 5 */\n      dup14\n      mul\n        /* \"v2-core-master/contracts/UniswapV2Pair.sol\":11462:11480  amount0Out * 5/100 */\n      div\n        /* \"v2-core-master/contracts/UniswapV2Pair.sol\":11449:11480  amount0Out - amount0Out * 5/100 */\n      dup13\n      sub\n      swap1\n      pop\n        /* \"v2-core-master/contracts/UniswapV2Pair.sol\":11496:11514  uint taxamount1Out */\n      0x00\n        /* \"v2-core-master/contracts/UniswapV2Pair.sol\":11545:11548  100 */\n      0x64\n        /* \"v2-core-master/contracts/UniswapV2Pair.sol\":11543:11544  5 */\n      0x05\n        /* \"v2-core-master/contracts/UniswapV2Pair.sol\":11530:11544  amount1Out * 5 */\n      dup14\n      mul\n        /* \"v2-core-master/contracts/UniswapV2Pair.sol\":11530:11548  amount1Out * 5/100 */\n      div\n        /* \"v2-core-master/contracts/UniswapV2Pair.sol\":11517:11527  amount1Out */\n      dup13\n        /* \"v2-core-master/contracts/UniswapV2Pair.sol\":11517:11548  amount1Out - amount1Out * 5/100 */\n      sub\n        /* \"v2-core-master/contracts/UniswapV2Pair.sol\":11496:11548  uint taxamount1Out = amount1Out - amount1Out * 5/100 */\n      swap1\n      pop\n        /* \"v2-core-master/contracts/UniswapV2Pair.sol\":11589:11596  _token0 */\n      dup4\n      sub(shl(0xa0, 0x01), 0x01)\n        /* \"v2-core-master/contracts/UniswapV2Pair.sol\":11583:11596  to != _token0 */\n      and\n        /* \"v2-core-master/contracts/UniswapV2Pair.sol\":11583:11585  to */\n      dup12\n      sub(shl(0xa0, 0x01), 0x01)\n        /* \"v2-core-master/contracts/UniswapV2Pair.sol\":11583:11596  to != _token0 */\n      and\n      eq\n      iszero\n        /* \"v2-core-master/contracts/UniswapV2Pair.sol\":11583:11613  to != _token0 && to != _token1 */\n      dup1\n      iszero\n      tag_269\n      jumpi\n      pop\n        /* \"v2-core-master/contracts/UniswapV2Pair.sol\":11606:11613  _token1 */\n      dup3\n      sub(shl(0xa0, 0x01), 0x01)\n        /* \"v2-core-master/contracts/UniswapV2Pair.sol\":11600:11613  to != _token1 */\n      and\n        /* \"v2-core-master/contracts/UniswapV2Pair.sol\":11600:11602  to */\n      dup12\n      sub(shl(0xa0, 0x01), 0x01)\n        /* \"v2-core-master/contracts/UniswapV2Pair.sol\":11600:11613  to != _token1 */\n      and\n      eq\n      iszero\n        /* \"v2-core-master/contracts/UniswapV2Pair.sol\":11583:11613  to != _token0 && to != _token1 */\n    tag_269:\n        /* \"v2-core-master/contracts/UniswapV2Pair.sol\":11575:11639  require(to != _token0 && to != _token1, 'UniswapV2: INVALID_TO') */\n      tag_270\n      jumpi\n      0x40\n      dup1\n      mload\n      shl(0xe5, 0x461bcd)\n      dup2\n      mstore\n      0x20\n      0x04\n      dup3\n      add\n      mstore\n      0x15\n      0x24\n      dup3\n      add\n      mstore\n      shl(0x58, 0x556e697377617056323a20494e56414c49445f544f)\n      0x44\n      dup3\n      add\n      mstore\n      swap1\n      mload\n      swap1\n      dup2\n      swap1\n      sub\n      0x64\n      add\n      swap1\n      revert\n    tag_270:\n        /* \"v2-core-master/contracts/UniswapV2Pair.sol\":11671:11685  amount0Out > 0 */\n      dup13\n      iszero\n        /* \"v2-core-master/contracts/UniswapV2Pair.sol\":11667:11728  if (amount0Out > 0) _safeTransfer(_token0, to, taxamount0Out) */\n      tag_272\n      jumpi\n        /* \"v2-core-master/contracts/UniswapV2Pair.sol\":11687:11728  _safeTransfer(_token0, to, taxamount0Out) */\n      tag_272\n        /* \"v2-core-master/contracts/UniswapV2Pair.sol\":11701:11708  _token0 */\n      dup5\n        /* \"v2-core-master/contracts/UniswapV2Pair.sol\":11710:11712  to */\n      dup13\n        /* \"v2-core-master/contracts/UniswapV2Pair.sol\":11714:11727  taxamount0Out */\n      dup5\n        /* \"v2-core-master/contracts/UniswapV2Pair.sol\":11687:11700  _safeTransfer */\n      tag_148\n        /* \"v2-core-master/contracts/UniswapV2Pair.sol\":11687:11728  _safeTransfer(_token0, to, taxamount0Out) */\n      jump\t// in\n    tag_272:\n        /* \"v2-core-master/contracts/UniswapV2Pair.sol\":11782:11796  amount1Out > 0 */\n      dup12\n      iszero\n        /* \"v2-core-master/contracts/UniswapV2Pair.sol\":11778:11839  if (amount1Out > 0) _safeTransfer(_token1, to, taxamount1Out) */\n      tag_274\n      jumpi\n        /* \"v2-core-master/contracts/UniswapV2Pair.sol\":11798:11839  _safeTransfer(_token1, to, taxamount1Out) */\n      tag_274\n        /* \"v2-core-master/contracts/UniswapV2Pair.sol\":11812:11819  _token1 */\n      dup4\n        /* \"v2-core-master/contracts/UniswapV2Pair.sol\":11821:11823  to */\n      dup13\n        /* \"v2-core-master/contracts/UniswapV2Pair.sol\":11825:11838  taxamount1Out */\n      dup4\n        /* \"v2-core-master/contracts/UniswapV2Pair.sol\":11798:11811  _safeTransfer */\n      tag_148\n        /* \"v2-core-master/contracts/UniswapV2Pair.sol\":11798:11839  _safeTransfer(_token1, to, taxamount1Out) */\n      jump\t// in\n    tag_274:\n        /* \"v2-core-master/contracts/UniswapV2Pair.sol\":12003:12018  data.length > 0 */\n      dup9\n      iszero\n        /* \"v2-core-master/contracts/UniswapV2Pair.sol\":11999:12102  if (data.length > 0) IUniswapV2Callee(to).uniswapV2Call(msg.sender, taxamount0Out, taxamount1Out, data) */\n      tag_275\n      jumpi\n        /* \"v2-core-master/contracts/UniswapV2Pair.sol\":12037:12039  to */\n      dup11\n      sub(shl(0xa0, 0x01), 0x01)\n        /* \"v2-core-master/contracts/UniswapV2Pair.sol\":12020:12054  IUniswapV2Callee(to).uniswapV2Call */\n      and\n      0x10d1e85c\n        /* \"v2-core-master/contracts/UniswapV2Pair.sol\":12055:12065  msg.sender */\n      caller\n        /* \"v2-core-master/contracts/UniswapV2Pair.sol\":12067:12080  taxamount0Out */\n      dup5\n        /* \"v2-core-master/contracts/UniswapV2Pair.sol\":12082:12095  taxamount1Out */\n      dup5\n        /* \"v2-core-master/contracts/UniswapV2Pair.sol\":12097:12101  data */\n      dup15\n      dup15\n        /* \"v2-core-master/contracts/UniswapV2Pair.sol\":12020:12102  IUniswapV2Callee(to).uniswapV2Call(msg.sender, taxamount0Out, taxamount1Out, data) */\n      mload(0x40)\n      dup7\n      0xffffffff\n      and\n      0xe0\n      shl\n      dup2\n      mstore\n      0x04\n      add\n      dup1\n      dup7\n      sub(shl(0xa0, 0x01), 0x01)\n      and\n      sub(shl(0xa0, 0x01), 0x01)\n      and\n      dup2\n      mstore\n      0x20\n      add\n      dup6\n      dup2\n      mstore\n      0x20\n      add\n      dup5\n      dup2\n      mstore\n      0x20\n      add\n      dup1\n      0x20\n      add\n      dup3\n      dup2\n      sub\n      dup3\n      mstore\n      dup5\n      dup5\n      dup3\n      dup2\n      dup2\n      mstore\n      0x20\n      add\n      swap3\n      pop\n        /* \"--CODEGEN--\":30:33   */\n      dup1\n        /* \"--CODEGEN--\":22:28   */\n      dup3\n        /* \"--CODEGEN--\":14:20   */\n      dup5\n        /* \"--CODEGEN--\":1:34   */\n      calldatacopy\n        /* \"--CODEGEN--\":99:100   */\n      0x00\n        /* \"--CODEGEN--\":93:96   */\n      dup2\n        /* \"--CODEGEN--\":85:91   */\n      dup5\n        /* \"--CODEGEN--\":81:97   */\n      add\n        /* \"--CODEGEN--\":74:101   */\n      mstore\n        /* \"--CODEGEN--\":137:141   */\n      0x1f\n        /* \"--CODEGEN--\":133:142   */\n      not\n        /* \"--CODEGEN--\":126:130   */\n      0x1f\n        /* \"--CODEGEN--\":121:124   */\n      dup3\n        /* \"--CODEGEN--\":117:131   */\n      add\n        /* \"--CODEGEN--\":113:143   */\n      and\n        /* \"--CODEGEN--\":106:143   */\n      swap1\n      pop\n        /* \"--CODEGEN--\":169:172   */\n      dup1\n        /* \"--CODEGEN--\":161:167   */\n      dup4\n        /* \"--CODEGEN--\":157:173   */\n      add\n        /* \"--CODEGEN--\":147:173   */\n      swap3\n      pop\n        /* \"v2-core-master/contracts/UniswapV2Pair.sol\":12020:12102  IUniswapV2Callee(to).uniswapV2Call(msg.sender, taxamount0Out, taxamount1Out, data) */\n      pop\n      pop\n      swap7\n      pop\n      pop\n      pop\n      pop\n      pop\n      pop\n      pop\n      0x00\n      mload(0x40)\n      dup1\n      dup4\n      sub\n      dup2\n      0x00\n      dup8\n      dup1\n      extcodesize\n      iszero\n        /* \"--CODEGEN--\":8:17   */\n      dup1\n        /* \"--CODEGEN--\":5:7   */\n      iszero\n      tag_276\n      jumpi\n        /* \"--CODEGEN--\":30:31   */\n      0x00\n        /* \"--CODEGEN--\":27:28   */\n      dup1\n        /* \"--CODEGEN--\":20:32   */\n      revert\n        /* \"--CODEGEN--\":5:7   */\n    tag_276:\n        /* \"v2-core-master/contracts/UniswapV2Pair.sol\":12020:12102  IUniswapV2Callee(to).uniswapV2Call(msg.sender, taxamount0Out, taxamount1Out, data) */\n      pop\n      gas\n      call\n      iszero\n        /* \"--CODEGEN--\":8:17   */\n      dup1\n        /* \"--CODEGEN--\":5:7   */\n      iszero\n      tag_277\n      jumpi\n        /* \"--CODEGEN--\":45:61   */\n      returndatasize\n        /* \"--CODEGEN--\":42:43   */\n      0x00\n        /* \"--CODEGEN--\":39:40   */\n      dup1\n        /* \"--CODEGEN--\":24:62   */\n      returndatacopy\n        /* \"--CODEGEN--\":77:93   */\n      returndatasize\n        /* \"--CODEGEN--\":74:75   */\n      0x00\n        /* \"--CODEGEN--\":67:94   */\n      revert\n        /* \"--CODEGEN--\":5:7   */\n    tag_277:\n        /* \"v2-core-master/contracts/UniswapV2Pair.sol\":12020:12102  IUniswapV2Callee(to).uniswapV2Call(msg.sender, taxamount0Out, taxamount1Out, data) */\n      pop\n      pop\n      pop\n      pop\n        /* \"v2-core-master/contracts/UniswapV2Pair.sol\":11999:12102  if (data.length > 0) IUniswapV2Callee(to).uniswapV2Call(msg.sender, taxamount0Out, taxamount1Out, data) */\n    tag_275:\n        /* \"v2-core-master/contracts/UniswapV2Pair.sol\":12452:12462  FeeResiver */\n      sload(0x06)\n        /* \"v2-core-master/contracts/UniswapV2Pair.sol\":12143:12146  100 */\n      0x64\n        /* \"v2-core-master/contracts/UniswapV2Pair.sol\":12141:12142  5 */\n      0x05\n        /* \"v2-core-master/contracts/UniswapV2Pair.sol\":12128:12142  amount0Out * 5 */\n      dup16\n      dup2\n      mul\n        /* \"v2-core-master/contracts/UniswapV2Pair.sol\":12128:12146  amount0Out * 5/100 */\n      dup3\n      swap1\n      div\n      swap3\n        /* \"v2-core-master/contracts/UniswapV2Pair.sol\":12173:12187  amount1Out * 5 */\n      swap1\n      dup16\n      mul\n        /* \"v2-core-master/contracts/UniswapV2Pair.sol\":12173:12191  amount1Out * 5/100 */\n      swap2\n      swap1\n      swap2\n      div\n      swap1\n        /* \"v2-core-master/contracts/UniswapV2Pair.sol\":12429:12469  _safeTransfer(_token0, FeeResiver, tax0) */\n      tag_280\n      swap1\n        /* \"v2-core-master/contracts/UniswapV2Pair.sol\":12443:12450  _token0 */\n      dup8\n      swap1\n      sub(shl(0xa0, 0x01), 0x01)\n        /* \"v2-core-master/contracts/UniswapV2Pair.sol\":12452:12462  FeeResiver */\n      and\n        /* \"v2-core-master/contracts/UniswapV2Pair.sol\":12128:12146  amount0Out * 5/100 */\n      dup5\n        /* \"v2-core-master/contracts/UniswapV2Pair.sol\":12429:12442  _safeTransfer */\n      tag_148\n        /* \"v2-core-master/contracts/UniswapV2Pair.sol\":12429:12469  _safeTransfer(_token0, FeeResiver, tax0) */\n      jump\t// in\n    tag_280:\n        /* \"v2-core-master/contracts/UniswapV2Pair.sol\":12507:12517  FeeResiver */\n      sload(0x06)\n        /* \"v2-core-master/contracts/UniswapV2Pair.sol\":12484:12524  _safeTransfer(_token1, FeeResiver, tax1) */\n      tag_281\n      swap1\n        /* \"v2-core-master/contracts/UniswapV2Pair.sol\":12498:12505  _token1 */\n      dup7\n      swap1\n      sub(shl(0xa0, 0x01), 0x01)\n        /* \"v2-core-master/contracts/UniswapV2Pair.sol\":12507:12517  FeeResiver */\n      and\n        /* \"v2-core-master/contracts/UniswapV2Pair.sol\":12519:12523  tax1 */\n      dup4\n        /* \"v2-core-master/contracts/UniswapV2Pair.sol\":12484:12497  _safeTransfer */\n      tag_148\n        /* \"v2-core-master/contracts/UniswapV2Pair.sol\":12484:12524  _safeTransfer(_token1, FeeResiver, tax1) */\n      jump\t// in\n    tag_281:\n        /* \"v2-core-master/contracts/UniswapV2Pair.sol\":12550:12590  IERC20(_token0).balanceOf(address(this)) */\n      0x40\n      dup1\n      mload\n      shl(0xe0, 0x70a08231)\n      dup2\n      mstore\n        /* \"v2-core-master/contracts/UniswapV2Pair.sol\":12584:12588  this */\n      address\n        /* \"v2-core-master/contracts/UniswapV2Pair.sol\":12550:12590  IERC20(_token0).balanceOf(address(this)) */\n      0x04\n      dup3\n      add\n      mstore\n      swap1\n      mload\n      sub(shl(0xa0, 0x01), 0x01)\n        /* \"v2-core-master/contracts/UniswapV2Pair.sol\":12550:12575  IERC20(_token0).balanceOf */\n      dup9\n      and\n      swap2\n      0x70a08231\n      swap2\n        /* \"v2-core-master/contracts/UniswapV2Pair.sol\":12550:12590  IERC20(_token0).balanceOf(address(this)) */\n      0x24\n      dup1\n      dup4\n      add\n      swap3\n      0x20\n      swap3\n      swap2\n      swap1\n      dup3\n      swap1\n      sub\n      add\n      dup2\n        /* \"v2-core-master/contracts/UniswapV2Pair.sol\":12550:12575  IERC20(_token0).balanceOf */\n      dup7\n        /* \"v2-core-master/contracts/UniswapV2Pair.sol\":12550:12590  IERC20(_token0).balanceOf(address(this)) */\n      dup1\n      extcodesize\n      iszero\n        /* \"--CODEGEN--\":5:7   */\n      dup1\n      iszero\n      tag_282\n      jumpi\n        /* \"--CODEGEN--\":30:31   */\n      0x00\n        /* \"--CODEGEN--\":27:28   */\n      dup1\n        /* \"--CODEGEN--\":20:32   */\n      revert\n        /* \"--CODEGEN--\":5:7   */\n    tag_282:\n        /* \"v2-core-master/contracts/UniswapV2Pair.sol\":12550:12590  IERC20(_token0).balanceOf(address(this)) */\n      pop\n      gas\n      staticcall\n      iszero\n        /* \"--CODEGEN--\":8:17   */\n      dup1\n        /* \"--CODEGEN--\":5:7   */\n      iszero\n      tag_283\n      jumpi\n        /* \"--CODEGEN--\":45:61   */\n      returndatasize\n        /* \"--CODEGEN--\":42:43   */\n      0x00\n        /* \"--CODEGEN--\":39:40   */\n      dup1\n        /* \"--CODEGEN--\":24:62   */\n      returndatacopy\n        /* \"--CODEGEN--\":77:93   */\n      returndatasize\n        /* \"--CODEGEN--\":74:75   */\n      0x00\n        /* \"--CODEGEN--\":67:94   */\n      revert\n        /* \"--CODEGEN--\":5:7   */\n    tag_283:\n        /* \"v2-core-master/contracts/UniswapV2Pair.sol\":12550:12590  IERC20(_token0).balanceOf(address(this)) */\n      pop\n      pop\n      pop\n      pop\n      mload(0x40)\n      returndatasize\n        /* \"--CODEGEN--\":13:15   */\n      0x20\n        /* \"--CODEGEN--\":8:11   */\n      dup2\n        /* \"--CODEGEN--\":5:16   */\n      lt\n        /* \"--CODEGEN--\":2:4   */\n      iszero\n      tag_284\n      jumpi\n        /* \"--CODEGEN--\":29:30   */\n      0x00\n        /* \"--CODEGEN--\":26:27   */\n      dup1\n        /* \"--CODEGEN--\":19:31   */\n      revert\n        /* \"--CODEGEN--\":2:4   */\n    tag_284:\n      pop\n        /* \"v2-core-master/contracts/UniswapV2Pair.sol\":12550:12590  IERC20(_token0).balanceOf(address(this)) */\n      mload\n        /* \"v2-core-master/contracts/UniswapV2Pair.sol\":12615:12655  IERC20(_token1).balanceOf(address(this)) */\n      0x40\n      dup1\n      mload\n      shl(0xe0, 0x70a08231)\n      dup2\n      mstore\n        /* \"v2-core-master/contracts/UniswapV2Pair.sol\":12649:12653  this */\n      address\n        /* \"v2-core-master/contracts/UniswapV2Pair.sol\":12615:12655  IERC20(_token1).balanceOf(address(this)) */\n      0x04\n      dup3\n      add\n      mstore\n      swap1\n      mload\n        /* \"v2-core-master/contracts/UniswapV2Pair.sol\":12550:12590  IERC20(_token0).balanceOf(address(this)) */\n      swap2\n      swap10\n      pop\n      sub(shl(0xa0, 0x01), 0x01)\n        /* \"v2-core-master/contracts/UniswapV2Pair.sol\":12615:12640  IERC20(_token1).balanceOf */\n      dup8\n      and\n      swap2\n      0x70a08231\n      swap2\n        /* \"v2-core-master/contracts/UniswapV2Pair.sol\":12615:12655  IERC20(_token1).balanceOf(address(this)) */\n      0x24\n      dup1\n      dup3\n      add\n      swap3\n        /* \"v2-core-master/contracts/UniswapV2Pair.sol\":12550:12590  IERC20(_token0).balanceOf(address(this)) */\n      0x20\n      swap3\n        /* \"v2-core-master/contracts/UniswapV2Pair.sol\":12615:12655  IERC20(_token1).balanceOf(address(this)) */\n      swap1\n      swap2\n      swap1\n      dup3\n      swap1\n      sub\n      add\n      dup2\n        /* \"v2-core-master/contracts/UniswapV2Pair.sol\":12615:12640  IERC20(_token1).balanceOf */\n      dup7\n        /* \"v2-core-master/contracts/UniswapV2Pair.sol\":12615:12655  IERC20(_token1).balanceOf(address(this)) */\n      dup1\n      extcodesize\n      iszero\n        /* \"--CODEGEN--\":5:7   */\n      dup1\n      iszero\n      tag_285\n      jumpi\n        /* \"--CODEGEN--\":30:31   */\n      0x00\n        /* \"--CODEGEN--\":27:28   */\n      dup1\n        /* \"--CODEGEN--\":20:32   */\n      revert\n        /* \"--CODEGEN--\":5:7   */\n    tag_285:\n        /* \"v2-core-master/contracts/UniswapV2Pair.sol\":12615:12655  IERC20(_token1).balanceOf(address(this)) */\n      pop\n      gas\n      staticcall\n      iszero\n        /* \"--CODEGEN--\":8:17   */\n      dup1\n        /* \"--CODEGEN--\":5:7   */\n      iszero\n      tag_286\n      jumpi\n        /* \"--CODEGEN--\":45:61   */\n      returndatasize\n        /* \"--CODEGEN--\":42:43   */\n      0x00\n        /* \"--CODEGEN--\":39:40   */\n      dup1\n        /* \"--CODEGEN--\":24:62   */\n      returndatacopy\n        /* \"--CODEGEN--\":77:93   */\n      returndatasize\n        /* \"--CODEGEN--\":74:75   */\n      0x00\n        /* \"--CODEGEN--\":67:94   */\n      revert\n        /* \"--CODEGEN--\":5:7   */\n    tag_286:\n        /* \"v2-core-master/contracts/UniswapV2Pair.sol\":12615:12655  IERC20(_token1).balanceOf(address(this)) */\n      pop\n      pop\n      pop\n      pop\n      mload(0x40)\n      returndatasize\n        /* \"--CODEGEN--\":13:15   */\n      0x20\n        /* \"--CODEGEN--\":8:11   */\n      dup2\n        /* \"--CODEGEN--\":5:16   */\n      lt\n        /* \"--CODEGEN--\":2:4   */\n      iszero\n      tag_287\n      jumpi\n        /* \"--CODEGEN--\":29:30   */\n      0x00\n        /* \"--CODEGEN--\":26:27   */\n      dup1\n        /* \"--CODEGEN--\":19:31   */\n      revert\n        /* \"--CODEGEN--\":2:4   */\n    tag_287:\n      pop\n        /* \"v2-core-master/contracts/UniswapV2Pair.sol\":12615:12655  IERC20(_token1).balanceOf(address(this)) */\n      mload\n      swap7\n      pop\n        /* \"v2-core-master/contracts/UniswapV2Pair.sol\":12675:12689  uint amount0In */\n      0x00\n      swap6\n      pop\n      pop\n      pop\n      pop\n      pop\n      pop\n      sub(shl(0x70, 0x01), 0x01)\n        /* \"v2-core-master/contracts/UniswapV2Pair.sol\":12703:12725  _reserve0 - amount0Out */\n      dup6\n      and\n      dup11\n      swap1\n      sub\n        /* \"v2-core-master/contracts/UniswapV2Pair.sol\":12692:12725  balance0 > _reserve0 - amount0Out */\n      dup4\n      gt\n        /* \"v2-core-master/contracts/UniswapV2Pair.sol\":12692:12767  balance0 > _reserve0 - amount0Out ? balance0 - (_reserve0 - amount0Out) : 0 */\n      tag_160\n      jumpi\n        /* \"v2-core-master/contracts/UniswapV2Pair.sol\":12766:12767  0 */\n      0x00\n        /* \"v2-core-master/contracts/UniswapV2Pair.sol\":12692:12767  balance0 > _reserve0 - amount0Out ? balance0 - (_reserve0 - amount0Out) : 0 */\n      jump(tag_161)\n        /* \"v2-core-master/contracts/UniswapV2Pair.sol\":494:542  uint public constant MINIMUM_LIQUIDITY = 10 ** 3 */\n    tag_117:\n        /* \"v2-core-master/contracts/UniswapV2Pair.sol\":535:542  10 ** 3 */\n      0x03e8\n        /* \"v2-core-master/contracts/UniswapV2Pair.sol\":494:542  uint public constant MINIMUM_LIQUIDITY = 10 ** 3 */\n      dup2\n      jump\t// out\n        /* \"v2-core-master/contracts/UniswapV2Pair.sol\":13591:13920  function skim(address to) external lock {... */\n    tag_120:\n        /* \"v2-core-master/contracts/UniswapV2Pair.sol\":1239:1247  unlocked */\n      sload(0x0e)\n        /* \"v2-core-master/contracts/UniswapV2Pair.sol\":1251:1252  1 */\n      0x01\n        /* \"v2-core-master/contracts/UniswapV2Pair.sol\":1239:1252  unlocked == 1 */\n      eq\n        /* \"v2-core-master/contracts/UniswapV2Pair.sol\":1231:1274  require(unlocked == 1, 'UniswapV2: LOCKED') */\n      tag_306\n      jumpi\n      0x40\n      dup1\n      mload\n      shl(0xe5, 0x461bcd)\n      dup2\n      mstore\n      0x20\n      0x04\n      dup3\n      add\n      mstore\n      0x11\n      0x24\n      dup3\n      add\n      mstore\n      shl(0x7a, 0x155b9a5cddd85c158c8e881313d0d2d151)\n      0x44\n      dup3\n      add\n      mstore\n      swap1\n      mload\n      swap1\n      dup2\n      swap1\n      sub\n      0x64\n      add\n      swap1\n      revert\n    tag_306:\n        /* \"v2-core-master/contracts/UniswapV2Pair.sol\":1295:1296  0 */\n      0x00\n        /* \"v2-core-master/contracts/UniswapV2Pair.sol\":1284:1292  unlocked */\n      0x0e\n        /* \"v2-core-master/contracts/UniswapV2Pair.sol\":1284:1296  unlocked = 0 */\n      sstore\n        /* \"v2-core-master/contracts/UniswapV2Pair.sol\":13659:13665  token0 */\n      sload(0x08)\n        /* \"v2-core-master/contracts/UniswapV2Pair.sol\":13708:13714  token1 */\n      sload(0x09)\n        /* \"v2-core-master/contracts/UniswapV2Pair.sol\":13811:13819  reserve0 */\n      sload(0x0a)\n        /* \"v2-core-master/contracts/UniswapV2Pair.sol\":13766:13806  IERC20(_token0).balanceOf(address(this)) */\n      0x40\n      dup1\n      mload\n      shl(0xe0, 0x70a08231)\n      dup2\n      mstore\n        /* \"v2-core-master/contracts/UniswapV2Pair.sol\":13800:13804  this */\n      address\n        /* \"v2-core-master/contracts/UniswapV2Pair.sol\":13766:13806  IERC20(_token0).balanceOf(address(this)) */\n      0x04\n      dup3\n      add\n      mstore\n      swap1\n      mload\n      sub(shl(0xa0, 0x01), 0x01)\n        /* \"v2-core-master/contracts/UniswapV2Pair.sol\":13659:13665  token0 */\n      swap5\n      dup6\n      and\n      swap5\n        /* \"v2-core-master/contracts/UniswapV2Pair.sol\":13708:13714  token1 */\n      swap1\n      swap4\n      and\n      swap3\n        /* \"v2-core-master/contracts/UniswapV2Pair.sol\":13739:13821  _safeTransfer(_token0, to, IERC20(_token0).balanceOf(address(this)).sub(reserve0)) */\n      tag_308\n      swap3\n        /* \"v2-core-master/contracts/UniswapV2Pair.sol\":13659:13665  token0 */\n      dup6\n      swap3\n        /* \"v2-core-master/contracts/UniswapV2Pair.sol\":13762:13764  to */\n      dup8\n      swap3\n        /* \"v2-core-master/contracts/UniswapV2Pair.sol\":13766:13820  IERC20(_token0).balanceOf(address(this)).sub(reserve0) */\n      tag_309\n      swap3\n      sub(shl(0x70, 0x01), 0x01)\n        /* \"v2-core-master/contracts/UniswapV2Pair.sol\":13811:13819  reserve0 */\n      and\n      swap2\n        /* \"v2-core-master/contracts/UniswapV2Pair.sol\":13659:13665  token0 */\n      dup6\n      swap2\n        /* \"v2-core-master/contracts/UniswapV2Pair.sol\":13766:13791  IERC20(_token0).balanceOf */\n      0x70a08231\n      swap2\n        /* \"v2-core-master/contracts/UniswapV2Pair.sol\":13766:13806  IERC20(_token0).balanceOf(address(this)) */\n      0x24\n      dup1\n      dup3\n      add\n      swap3\n      0x20\n      swap3\n      swap1\n      swap2\n      swap1\n      dup3\n      swap1\n      sub\n      add\n      dup2\n        /* \"v2-core-master/contracts/UniswapV2Pair.sol\":13659:13665  token0 */\n      dup7\n        /* \"v2-core-master/contracts/UniswapV2Pair.sol\":13766:13806  IERC20(_token0).balanceOf(address(this)) */\n      dup1\n      extcodesize\n      iszero\n        /* \"--CODEGEN--\":5:7   */\n      dup1\n      iszero\n      tag_310\n      jumpi\n        /* \"--CODEGEN--\":30:31   */\n      0x00\n        /* \"--CODEGEN--\":27:28   */\n      dup1\n        /* \"--CODEGEN--\":20:32   */\n      revert\n        /* \"--CODEGEN--\":5:7   */\n    tag_310:\n        /* \"v2-core-master/contracts/UniswapV2Pair.sol\":13766:13806  IERC20(_token0).balanceOf(address(this)) */\n      pop\n      gas\n      staticcall\n      iszero\n        /* \"--CODEGEN--\":8:17   */\n      dup1\n        /* \"--CODEGEN--\":5:7   */\n      iszero\n      tag_311\n      jumpi\n        /* \"--CODEGEN--\":45:61   */\n      returndatasize\n        /* \"--CODEGEN--\":42:43   */\n      0x00\n        /* \"--CODEGEN--\":39:40   */\n      dup1\n        /* \"--CODEGEN--\":24:62   */\n      returndatacopy\n        /* \"--CODEGEN--\":77:93   */\n      returndatasize\n        /* \"--CODEGEN--\":74:75   */\n      0x00\n        /* \"--CODEGEN--\":67:94   */\n      revert\n        /* \"--CODEGEN--\":5:7   */\n    tag_311:\n        /* \"v2-core-master/contracts/UniswapV2Pair.sol\":13766:13806  IERC20(_token0).balanceOf(address(this)) */\n      pop\n      pop\n      pop\n      pop\n      mload(0x40)\n      returndatasize\n        /* \"--CODEGEN--\":13:15   */\n      0x20\n        /* \"--CODEGEN--\":8:11   */\n      dup2\n        /* \"--CODEGEN--\":5:16   */\n      lt\n        /* \"--CODEGEN--\":2:4   */\n      iszero\n      tag_312\n      jumpi\n        /* \"--CODEGEN--\":29:30   */\n      0x00\n        /* \"--CODEGEN--\":26:27   */\n      dup1\n        /* \"--CODEGEN--\":19:31   */\n      revert\n        /* \"--CODEGEN--\":2:4   */\n    tag_312:\n      pop\n        /* \"v2-core-master/contracts/UniswapV2Pair.sol\":13766:13806  IERC20(_token0).balanceOf(address(this)) */\n      mload\n      swap1\n        /* \"v2-core-master/contracts/UniswapV2Pair.sol\":13766:13820  IERC20(_token0).balanceOf(address(this)).sub(reserve0) */\n      0xffffffff\n        /* \"v2-core-master/contracts/UniswapV2Pair.sol\":13766:13810  IERC20(_token0).balanceOf(address(this)).sub */\n      tag_170\n        /* \"v2-core-master/contracts/UniswapV2Pair.sol\":13766:13820  IERC20(_token0).balanceOf(address(this)).sub(reserve0) */\n      and\n      jump\t// in\n    tag_309:\n        /* \"v2-core-master/contracts/UniswapV2Pair.sol\":13739:13752  _safeTransfer */\n      tag_148\n        /* \"v2-core-master/contracts/UniswapV2Pair.sol\":13739:13821  _safeTransfer(_token0, to, IERC20(_token0).balanceOf(address(this)).sub(reserve0)) */\n      jump\t// in\n    tag_308:\n        /* \"v2-core-master/contracts/UniswapV2Pair.sol\":13903:13911  reserve1 */\n      sload(0x0a)\n        /* \"v2-core-master/contracts/UniswapV2Pair.sol\":13858:13898  IERC20(_token1).balanceOf(address(this)) */\n      0x40\n      dup1\n      mload\n      shl(0xe0, 0x70a08231)\n      dup2\n      mstore\n        /* \"v2-core-master/contracts/UniswapV2Pair.sol\":13892:13896  this */\n      address\n        /* \"v2-core-master/contracts/UniswapV2Pair.sol\":13858:13898  IERC20(_token1).balanceOf(address(this)) */\n      0x04\n      dup3\n      add\n      mstore\n      swap1\n      mload\n        /* \"v2-core-master/contracts/UniswapV2Pair.sol\":13831:13913  _safeTransfer(_token1, to, IERC20(_token1).balanceOf(address(this)).sub(reserve1)) */\n      tag_313\n      swap3\n        /* \"v2-core-master/contracts/UniswapV2Pair.sol\":13845:13852  _token1 */\n      dup5\n      swap3\n        /* \"v2-core-master/contracts/UniswapV2Pair.sol\":13854:13856  to */\n      dup8\n      swap3\n        /* \"v2-core-master/contracts/UniswapV2Pair.sol\":13858:13912  IERC20(_token1).balanceOf(address(this)).sub(reserve1) */\n      tag_309\n      swap3\n      shl(0x70, 0x01)\n        /* \"v2-core-master/contracts/UniswapV2Pair.sol\":13903:13911  reserve1 */\n      swap1\n      div\n      sub(shl(0x70, 0x01), 0x01)\n      and\n      swap2\n      sub(shl(0xa0, 0x01), 0x01)\n        /* \"v2-core-master/contracts/UniswapV2Pair.sol\":13858:13883  IERC20(_token1).balanceOf */\n      dup7\n      and\n      swap2\n      0x70a08231\n      swap2\n        /* \"v2-core-master/contracts/UniswapV2Pair.sol\":13858:13898  IERC20(_token1).balanceOf(address(this)) */\n      0x24\n      dup1\n      dup3\n      add\n      swap3\n      0x20\n      swap3\n      swap1\n      swap2\n      swap1\n      dup3\n      swap1\n      sub\n      add\n      dup2\n        /* \"v2-core-master/contracts/UniswapV2Pair.sol\":13858:13883  IERC20(_token1).balanceOf */\n      dup7\n        /* \"v2-core-master/contracts/UniswapV2Pair.sol\":13858:13898  IERC20(_token1).balanceOf(address(this)) */\n      dup1\n      extcodesize\n      iszero\n        /* \"--CODEGEN--\":5:7   */\n      dup1\n      iszero\n      tag_310\n      jumpi\n        /* \"--CODEGEN--\":30:31   */\n      0x00\n        /* \"--CODEGEN--\":27:28   */\n      dup1\n        /* \"--CODEGEN--\":20:32   */\n      revert\n        /* \"v2-core-master/contracts/UniswapV2Pair.sol\":13831:13913  _safeTransfer(_token1, to, IERC20(_token1).balanceOf(address(this)).sub(reserve1)) */\n    tag_313:\n      pop\n      pop\n        /* \"v2-core-master/contracts/UniswapV2Pair.sol\":1328:1329  1 */\n      0x01\n        /* \"v2-core-master/contracts/UniswapV2Pair.sol\":1317:1325  unlocked */\n      0x0e\n        /* \"v2-core-master/contracts/UniswapV2Pair.sol\":1317:1329  unlocked = 1 */\n      sstore\n      pop\n        /* \"v2-core-master/contracts/UniswapV2Pair.sol\":13591:13920  function skim(address to) external lock {... */\n      jump\t// out\n        /* \"v2-core-master/contracts/UniswapV2Pair.sol\":643:665  address public factory */\n    tag_122:\n      and(sub(shl(0xa0, 0x01), 0x01), sload(0x07))\n      dup2\n      jump\t// out\n        /* \"v2-core-master/contracts/UniswapV2Pair.sol\":698:719  address public token1 */\n    tag_124:\n      and(sub(shl(0xa0, 0x01), 0x01), sload(0x09))\n      dup2\n      jump\t// out\n        /* \"v2-core-master/contracts/UniswapV2ERC20.sol\":3453:4115  function permit(address owner, address spender, uint value, uint deadline, uint8 v, bytes32 r, bytes32 s) external {... */\n    tag_127:\n        /* \"v2-core-master/contracts/UniswapV2ERC20.sol\":3598:3613  block.timestamp */\n      timestamp\n        /* \"v2-core-master/contracts/UniswapV2ERC20.sol\":3586:3594  deadline */\n      dup5\n        /* \"v2-core-master/contracts/UniswapV2ERC20.sol\":3586:3613  deadline >= block.timestamp */\n      lt\n      iszero\n        /* \"v2-core-master/contracts/UniswapV2ERC20.sol\":3578:3636  require(deadline >= block.timestamp, 'UniswapV2: EXPIRED') */\n      tag_319\n      jumpi\n      0x40\n      dup1\n      mload\n      shl(0xe5, 0x461bcd)\n      dup2\n      mstore\n      0x20\n      0x04\n      dup3\n      add\n      mstore\n      0x12\n      0x24\n      dup3\n      add\n      mstore\n      shl(0x72, 0x155b9a5cddd85c158c8e8811561412549151)\n      0x44\n      dup3\n      add\n      mstore\n      swap1\n      mload\n      swap1\n      dup2\n      swap1\n      sub\n      0x64\n      add\n      swap1\n      revert\n    tag_319:\n        /* \"v2-core-master/contracts/UniswapV2ERC20.sol\":3748:3764  DOMAIN_SEPARATOR */\n      sload(0x04)\n      sub(shl(0xa0, 0x01), 0x01)\n        /* \"v2-core-master/contracts/UniswapV2ERC20.sol\":3843:3856  nonces[owner] */\n      dup1\n      dup10\n      and\n        /* \"v2-core-master/contracts/UniswapV2ERC20.sol\":3646:3660  bytes32 digest */\n      0x00\n        /* \"v2-core-master/contracts/UniswapV2ERC20.sol\":3843:3856  nonces[owner] */\n      dup2\n      dup2\n      mstore\n        /* \"v2-core-master/contracts/UniswapV2ERC20.sol\":3843:3849  nonces */\n      0x05\n        /* \"v2-core-master/contracts/UniswapV2ERC20.sol\":3843:3856  nonces[owner] */\n      0x20\n      swap1\n      dup2\n      mstore\n      0x40\n      dup1\n      dup4\n      keccak256\n        /* \"v2-core-master/contracts/UniswapV2ERC20.sol\":3843:3858  nonces[owner]++ */\n      dup1\n      sload\n      0x01\n      dup1\n      dup3\n      add\n      swap1\n      swap3\n      sstore\n        /* \"v2-core-master/contracts/UniswapV2ERC20.sol\":3792:3869  abi.encode(PERMIT_TYPEHASH, owner, spender, value, nonces[owner]++, deadline) */\n      dup3\n      mload\n        /* \"v2-core-master/contracts/UniswapV2ERC20.sol\":721:787  0x6e71edae12b1b97f4d1f60370fef10105fa2faae0126114a169c64845d6126c9 */\n      0x6e71edae12b1b97f4d1f60370fef10105fa2faae0126114a169c64845d6126c9\n        /* \"v2-core-master/contracts/UniswapV2ERC20.sol\":3792:3869  abi.encode(PERMIT_TYPEHASH, owner, spender, value, nonces[owner]++, deadline) */\n      dup2\n      dup7\n      add\n      mstore\n      dup1\n      dup5\n      add\n      swap7\n      swap1\n      swap7\n      mstore\n      swap6\n      dup14\n      and\n      0x60\n      dup7\n      add\n      mstore\n      0x80\n      dup6\n      add\n      dup13\n      swap1\n      mstore\n      0xa0\n      dup6\n      add\n      swap6\n      swap1\n      swap6\n      mstore\n      0xc0\n      dup1\n      dup6\n      add\n      dup12\n      swap1\n      mstore\n      dup2\n      mload\n        /* \"--CODEGEN--\":26:47   */\n      dup1\n      dup7\n      sub\n        /* \"--CODEGEN--\":22:54   */\n      swap1\n      swap2\n      add\n        /* \"--CODEGEN--\":6:55   */\n      dup2\n      mstore\n        /* \"v2-core-master/contracts/UniswapV2ERC20.sol\":3792:3869  abi.encode(PERMIT_TYPEHASH, owner, spender, value, nonces[owner]++, deadline) */\n      0xe0\n      dup6\n      add\n      dup3\n      mstore\n        /* \"v2-core-master/contracts/UniswapV2ERC20.sol\":3782:3870  keccak256(abi.encode(PERMIT_TYPEHASH, owner, spender, value, nonces[owner]++, deadline)) */\n      dup1\n      mload\n      swap1\n      dup4\n      add\n      keccak256\n      shl(0xf0, 0x1901)\n        /* \"v2-core-master/contracts/UniswapV2ERC20.sol\":3686:3884  abi.encodePacked(... */\n      0x0100\n      dup7\n      add\n      mstore\n      0x0102\n      dup6\n      add\n      swap7\n      swap1\n      swap7\n      mstore\n      0x0122\n      dup1\n      dup6\n      add\n      swap7\n      swap1\n      swap7\n      mstore\n      dup1\n      mload\n        /* \"--CODEGEN--\":26:47   */\n      dup1\n      dup6\n      sub\n        /* \"--CODEGEN--\":22:54   */\n      swap1\n      swap7\n      add\n        /* \"--CODEGEN--\":6:55   */\n      dup7\n      mstore\n        /* \"v2-core-master/contracts/UniswapV2ERC20.sol\":3686:3884  abi.encodePacked(... */\n      0x0142\n      dup5\n      add\n      dup1\n      dup3\n      mstore\n        /* \"v2-core-master/contracts/UniswapV2ERC20.sol\":3663:3894  keccak256(... */\n      dup7\n      mload\n      swap7\n      dup4\n      add\n      swap7\n      swap1\n      swap7\n      keccak256\n        /* \"v2-core-master/contracts/UniswapV2ERC20.sol\":3931:3957  ecrecover(digest, v, r, s) */\n      swap6\n      dup4\n      swap1\n      mstore\n      0x0162\n      dup5\n      add\n      dup1\n      dup3\n      mstore\n      dup7\n      swap1\n      mstore\n      0xff\n      dup10\n      and\n      0x0182\n      dup6\n      add\n      mstore\n      0x01a2\n      dup5\n      add\n      dup9\n      swap1\n      mstore\n      0x01c2\n      dup5\n      add\n      dup8\n      swap1\n      mstore\n      mload\n        /* \"v2-core-master/contracts/UniswapV2ERC20.sol\":3646:3660  bytes32 digest */\n      swap2\n      swap4\n        /* \"v2-core-master/contracts/UniswapV2ERC20.sol\":3843:3858  nonces[owner]++ */\n      swap3\n        /* \"v2-core-master/contracts/UniswapV2ERC20.sol\":3931:3957  ecrecover(digest, v, r, s) */\n      0x01e2\n      dup1\n      dup3\n      add\n      swap4\n      not(0x1f)\n      dup2\n      add\n      swap3\n      dup2\n      swap1\n      sub\n      swap1\n      swap2\n      add\n      swap1\n        /* \"v2-core-master/contracts/UniswapV2ERC20.sol\":3843:3858  nonces[owner]++ */\n      dup6\n        /* \"v2-core-master/contracts/UniswapV2ERC20.sol\":3931:3957  ecrecover(digest, v, r, s) */\n      gas\n      staticcall\n      iszero\n        /* \"--CODEGEN--\":8:17   */\n      dup1\n        /* \"--CODEGEN--\":5:7   */\n      iszero\n      tag_320\n      jumpi\n        /* \"--CODEGEN--\":45:61   */\n      returndatasize\n        /* \"--CODEGEN--\":42:43   */\n      0x00\n        /* \"--CODEGEN--\":39:40   */\n      dup1\n        /* \"--CODEGEN--\":24:62   */\n      returndatacopy\n        /* \"--CODEGEN--\":77:93   */\n      returndatasize\n        /* \"--CODEGEN--\":74:75   */\n      0x00\n        /* \"--CODEGEN--\":67:94   */\n      revert\n        /* \"--CODEGEN--\":5:7   */\n    tag_320:\n      pop\n      pop\n        /* \"v2-core-master/contracts/UniswapV2ERC20.sol\":3931:3957  ecrecover(digest, v, r, s) */\n      mload(add(not(0x1f), mload(0x40)))\n      swap2\n      pop\n      pop\n      sub(shl(0xa0, 0x01), 0x01)\n        /* \"v2-core-master/contracts/UniswapV2ERC20.sol\":3975:4005  recoveredAddress != address(0) */\n      dup2\n      and\n      iszero\n      dup1\n      iszero\n      swap1\n        /* \"v2-core-master/contracts/UniswapV2ERC20.sol\":3975:4034  recoveredAddress != address(0) && recoveredAddress == owner */\n      tag_321\n      jumpi\n      pop\n        /* \"v2-core-master/contracts/UniswapV2ERC20.sol\":4029:4034  owner */\n      dup9\n      sub(shl(0xa0, 0x01), 0x01)\n        /* \"v2-core-master/contracts/UniswapV2ERC20.sol\":4009:4034  recoveredAddress == owner */\n      and\n        /* \"v2-core-master/contracts/UniswapV2ERC20.sol\":4009:4025  recoveredAddress */\n      dup2\n      sub(shl(0xa0, 0x01), 0x01)\n        /* \"v2-core-master/contracts/UniswapV2ERC20.sol\":4009:4034  recoveredAddress == owner */\n      and\n      eq\n        /* \"v2-core-master/contracts/UniswapV2ERC20.sol\":3975:4034  recoveredAddress != address(0) && recoveredAddress == owner */\n    tag_321:\n        /* \"v2-core-master/contracts/UniswapV2ERC20.sol\":3967:4067  require(recoveredAddress != address(0) && recoveredAddress == owner, 'UniswapV2: INVALID_SIGNATURE') */\n      tag_322\n      jumpi\n      0x40\n      dup1\n      mload\n      shl(0xe5, 0x461bcd)\n      dup2\n      mstore\n      0x20\n      0x04\n      dup3\n      add\n      mstore\n      0x1c\n      0x24\n      dup3\n      add\n      mstore\n      0x556e697377617056323a20494e56414c49445f5349474e415455524500000000\n      0x44\n      dup3\n      add\n      mstore\n      swap1\n      mload\n      swap1\n      dup2\n      swap1\n      sub\n      0x64\n      add\n      swap1\n      revert\n    tag_322:\n        /* \"v2-core-master/contracts/UniswapV2ERC20.sol\":4077:4108  _approve(owner, spender, value) */\n      tag_323\n        /* \"v2-core-master/contracts/UniswapV2ERC20.sol\":4086:4091  owner */\n      dup10\n        /* \"v2-core-master/contracts/UniswapV2ERC20.sol\":4093:4100  spender */\n      dup10\n        /* \"v2-core-master/contracts/UniswapV2ERC20.sol\":4102:4107  value */\n      dup10\n        /* \"v2-core-master/contracts/UniswapV2ERC20.sol\":4077:4085  _approve */\n      tag_183\n        /* \"v2-core-master/contracts/UniswapV2ERC20.sol\":4077:4108  _approve(owner, spender, value) */\n      jump\t// in\n    tag_323:\n        /* \"v2-core-master/contracts/UniswapV2ERC20.sol\":3453:4115  function permit(address owner, address spender, uint value, uint deadline, uint8 v, bytes32 r, bytes32 s) external {... */\n      pop\n      pop\n      pop\n      pop\n      pop\n      pop\n      pop\n      pop\n      pop\n      jump\t// out\n        /* \"v2-core-master/contracts/UniswapV2Pair.sol\":5856:7091  function Lockmint(address to) external lock returns (uint liquidity) {... */\n    tag_130:\n        /* \"v2-core-master/contracts/UniswapV2Pair.sol\":5909:5923  uint liquidity */\n      0x00\n        /* \"v2-core-master/contracts/UniswapV2Pair.sol\":1239:1247  unlocked */\n      sload(0x0e)\n        /* \"v2-core-master/contracts/UniswapV2Pair.sol\":1251:1252  1 */\n      0x01\n        /* \"v2-core-master/contracts/UniswapV2Pair.sol\":1239:1252  unlocked == 1 */\n      eq\n        /* \"v2-core-master/contracts/UniswapV2Pair.sol\":1231:1274  require(unlocked == 1, 'UniswapV2: LOCKED') */\n      tag_325\n      jumpi\n      0x40\n      dup1\n      mload\n      shl(0xe5, 0x461bcd)\n      dup2\n      mstore\n      0x20\n      0x04\n      dup3\n      add\n      mstore\n      0x11\n      0x24\n      dup3\n      add\n      mstore\n      shl(0x7a, 0x155b9a5cddd85c158c8e881313d0d2d151)\n      0x44\n      dup3\n      add\n      mstore\n      swap1\n      mload\n      swap1\n      dup2\n      swap1\n      sub\n      0x64\n      add\n      swap1\n      revert\n    tag_325:\n        /* \"v2-core-master/contracts/UniswapV2Pair.sol\":1295:1296  0 */\n      0x00\n        /* \"v2-core-master/contracts/UniswapV2Pair.sol\":1284:1292  unlocked */\n      0x0e\n        /* \"v2-core-master/contracts/UniswapV2Pair.sol\":1284:1296  unlocked = 0 */\n      dup2\n      swap1\n      sstore\n        /* \"v2-core-master/contracts/UniswapV2Pair.sol\":1295:1296  0 */\n      dup1\n        /* \"v2-core-master/contracts/UniswapV2Pair.sol\":5978:5991  getReserves() */\n      tag_327\n        /* \"v2-core-master/contracts/UniswapV2Pair.sol\":5978:5989  getReserves */\n      tag_55\n        /* \"v2-core-master/contracts/UniswapV2Pair.sol\":5978:5991  getReserves() */\n      jump\t// in\n    tag_327:\n      pop\n        /* \"v2-core-master/contracts/UniswapV2Pair.sol\":6039:6045  token0 */\n      sload(0x08)\n        /* \"v2-core-master/contracts/UniswapV2Pair.sol\":6032:6071  IERC20(token0).balanceOf(address(this)) */\n      0x40\n      dup1\n      mload\n      shl(0xe0, 0x70a08231)\n      dup2\n      mstore\n        /* \"v2-core-master/contracts/UniswapV2Pair.sol\":6065:6069  this */\n      address\n        /* \"v2-core-master/contracts/UniswapV2Pair.sol\":6032:6071  IERC20(token0).balanceOf(address(this)) */\n      0x04\n      dup3\n      add\n      mstore\n      swap1\n      mload\n        /* \"v2-core-master/contracts/UniswapV2Pair.sol\":5935:5991  (uint112 _reserve0, uint112 _reserve1, ) = getReserves() */\n      swap4\n      swap6\n      pop\n      swap2\n      swap4\n      pop\n        /* \"v2-core-master/contracts/UniswapV2Pair.sol\":6016:6029  uint balance0 */\n      0x00\n      swap3\n      sub(shl(0xa0, 0x01), 0x01)\n        /* \"v2-core-master/contracts/UniswapV2Pair.sol\":6039:6045  token0 */\n      swap1\n      swap2\n      and\n      swap2\n        /* \"v2-core-master/contracts/UniswapV2Pair.sol\":6032:6056  IERC20(token0).balanceOf */\n      0x70a08231\n      swap2\n        /* \"v2-core-master/contracts/UniswapV2Pair.sol\":6032:6071  IERC20(token0).balanceOf(address(this)) */\n      0x24\n      dup1\n      dup4\n      add\n      swap3\n      0x20\n      swap3\n      swap2\n      swap1\n      dup3\n      swap1\n      sub\n      add\n      dup2\n        /* \"v2-core-master/contracts/UniswapV2Pair.sol\":6039:6045  token0 */\n      dup7\n        /* \"v2-core-master/contracts/UniswapV2Pair.sol\":6032:6071  IERC20(token0).balanceOf(address(this)) */\n      dup1\n      extcodesize\n      iszero\n        /* \"--CODEGEN--\":5:7   */\n      dup1\n      iszero\n      tag_328\n      jumpi\n        /* \"--CODEGEN--\":30:31   */\n      0x00\n        /* \"--CODEGEN--\":27:28   */\n      dup1\n        /* \"--CODEGEN--\":20:32   */\n      revert\n        /* \"--CODEGEN--\":5:7   */\n    tag_328:\n        /* \"v2-core-master/contracts/UniswapV2Pair.sol\":6032:6071  IERC20(token0).balanceOf(address(this)) */\n      pop\n      gas\n      staticcall\n      iszero\n        /* \"--CODEGEN--\":8:17   */\n      dup1\n        /* \"--CODEGEN--\":5:7   */\n      iszero\n      tag_329\n      jumpi\n        /* \"--CODEGEN--\":45:61   */\n      returndatasize\n        /* \"--CODEGEN--\":42:43   */\n      0x00\n        /* \"--CODEGEN--\":39:40   */\n      dup1\n        /* \"--CODEGEN--\":24:62   */\n      returndatacopy\n        /* \"--CODEGEN--\":77:93   */\n      returndatasize\n        /* \"--CODEGEN--\":74:75   */\n      0x00\n        /* \"--CODEGEN--\":67:94   */\n      revert\n        /* \"--CODEGEN--\":5:7   */\n    tag_329:\n        /* \"v2-core-master/contracts/UniswapV2Pair.sol\":6032:6071  IERC20(token0).balanceOf(address(this)) */\n      pop\n      pop\n      pop\n      pop\n      mload(0x40)\n      returndatasize\n        /* \"--CODEGEN--\":13:15   */\n      0x20\n        /* \"--CODEGEN--\":8:11   */\n      dup2\n        /* \"--CODEGEN--\":5:16   */\n      lt\n        /* \"--CODEGEN--\":2:4   */\n      iszero\n      tag_330\n      jumpi\n        /* \"--CODEGEN--\":29:30   */\n      0x00\n        /* \"--CODEGEN--\":26:27   */\n      dup1\n        /* \"--CODEGEN--\":19:31   */\n      revert\n        /* \"--CODEGEN--\":2:4   */\n    tag_330:\n      pop\n        /* \"v2-core-master/contracts/UniswapV2Pair.sol\":6032:6071  IERC20(token0).balanceOf(address(this)) */\n      mload\n        /* \"v2-core-master/contracts/UniswapV2Pair.sol\":6104:6110  token1 */\n      sload(0x09)\n        /* \"v2-core-master/contracts/UniswapV2Pair.sol\":6097:6136  IERC20(token1).balanceOf(address(this)) */\n      0x40\n      dup1\n      mload\n      shl(0xe0, 0x70a08231)\n      dup2\n      mstore\n        /* \"v2-core-master/contracts/UniswapV2Pair.sol\":6130:6134  this */\n      address\n        /* \"v2-core-master/contracts/UniswapV2Pair.sol\":6097:6136  IERC20(token1).balanceOf(address(this)) */\n      0x04\n      dup3\n      add\n      mstore\n      swap1\n      mload\n        /* \"v2-core-master/contracts/UniswapV2Pair.sol\":6032:6071  IERC20(token0).balanceOf(address(this)) */\n      swap3\n      swap4\n      pop\n        /* \"v2-core-master/contracts/UniswapV2Pair.sol\":6081:6094  uint balance1 */\n      0x00\n      swap3\n      sub(shl(0xa0, 0x01), 0x01)\n        /* \"v2-core-master/contracts/UniswapV2Pair.sol\":6104:6110  token1 */\n      swap1\n      swap3\n      and\n      swap2\n        /* \"v2-core-master/contracts/UniswapV2Pair.sol\":6097:6121  IERC20(token1).balanceOf */\n      0x70a08231\n      swap2\n        /* \"v2-core-master/contracts/UniswapV2Pair.sol\":6097:6136  IERC20(token1).balanceOf(address(this)) */\n      0x24\n      dup1\n      dup3\n      add\n      swap3\n        /* \"v2-core-master/contracts/UniswapV2Pair.sol\":6032:6071  IERC20(token0).balanceOf(address(this)) */\n      0x20\n      swap3\n        /* \"v2-core-master/contracts/UniswapV2Pair.sol\":6097:6136  IERC20(token1).balanceOf(address(this)) */\n      swap1\n      swap2\n      swap1\n      dup3\n      swap1\n      sub\n      add\n      dup2\n        /* \"v2-core-master/contracts/UniswapV2Pair.sol\":6104:6110  token1 */\n      dup7\n        /* \"v2-core-master/contracts/UniswapV2Pair.sol\":6097:6136  IERC20(token1).balanceOf(address(this)) */\n      dup1\n      extcodesize\n      iszero\n        /* \"--CODEGEN--\":5:7   */\n      dup1\n      iszero\n      tag_331\n      jumpi\n        /* \"--CODEGEN--\":30:31   */\n      0x00\n        /* \"--CODEGEN--\":27:28   */\n      dup1\n        /* \"--CODEGEN--\":20:32   */\n      revert\n        /* \"--CODEGEN--\":5:7   */\n    tag_331:\n        /* \"v2-core-master/contracts/UniswapV2Pair.sol\":6097:6136  IERC20(token1).balanceOf(address(this)) */\n      pop\n      gas\n      staticcall\n      iszero\n        /* \"--CODEGEN--\":8:17   */\n      dup1\n        /* \"--CODEGEN--\":5:7   */\n      iszero\n      tag_332\n      jumpi\n        /* \"--CODEGEN--\":45:61   */\n      returndatasize\n        /* \"--CODEGEN--\":42:43   */\n      0x00\n        /* \"--CODEGEN--\":39:40   */\n      dup1\n        /* \"--CODEGEN--\":24:62   */\n      returndatacopy\n        /* \"--CODEGEN--\":77:93   */\n      returndatasize\n        /* \"--CODEGEN--\":74:75   */\n      0x00\n        /* \"--CODEGEN--\":67:94   */\n      revert\n        /* \"--CODEGEN--\":5:7   */\n    tag_332:\n        /* \"v2-core-master/contracts/UniswapV2Pair.sol\":6097:6136  IERC20(token1).balanceOf(address(this)) */\n      pop\n      pop\n      pop\n      pop\n      mload(0x40)\n      returndatasize\n        /* \"--CODEGEN--\":13:15   */\n      0x20\n        /* \"--CODEGEN--\":8:11   */\n      dup2\n        /* \"--CODEGEN--\":5:16   */\n      lt\n        /* \"--CODEGEN--\":2:4   */\n      iszero\n      tag_333\n      jumpi\n        /* \"--CODEGEN--\":29:30   */\n      0x00\n        /* \"--CODEGEN--\":26:27   */\n      dup1\n        /* \"--CODEGEN--\":19:31   */\n      revert\n        /* \"--CODEGEN--\":2:4   */\n    tag_333:\n      pop\n        /* \"v2-core-master/contracts/UniswapV2Pair.sol\":6097:6136  IERC20(token1).balanceOf(address(this)) */\n      mload\n      swap1\n      pop\n        /* \"v2-core-master/contracts/UniswapV2Pair.sol\":6146:6158  uint amount0 */\n      0x00\n        /* \"v2-core-master/contracts/UniswapV2Pair.sol\":6161:6184  balance0.sub(_reserve0) */\n      tag_334\n        /* \"v2-core-master/contracts/UniswapV2Pair.sol\":6161:6169  balance0 */\n      dup4\n      sub(shl(0x70, 0x01), 0x01)\n        /* \"v2-core-master/contracts/UniswapV2Pair.sol\":6161:6184  balance0.sub(_reserve0) */\n      dup8\n      and\n      0xffffffff\n        /* \"v2-core-master/contracts/UniswapV2Pair.sol\":6161:6173  balance0.sub */\n      tag_170\n        /* \"v2-core-master/contracts/UniswapV2Pair.sol\":6161:6184  balance0.sub(_reserve0) */\n      and\n      jump\t// in\n    tag_334:\n        /* \"v2-core-master/contracts/UniswapV2Pair.sol\":6146:6184  uint amount0 = balance0.sub(_reserve0) */\n      swap1\n      pop\n        /* \"v2-core-master/contracts/UniswapV2Pair.sol\":6194:6206  uint amount1 */\n      0x00\n        /* \"v2-core-master/contracts/UniswapV2Pair.sol\":6209:6232  balance1.sub(_reserve1) */\n      tag_335\n        /* \"v2-core-master/contracts/UniswapV2Pair.sol\":6209:6217  balance1 */\n      dup4\n      sub(shl(0x70, 0x01), 0x01)\n        /* \"v2-core-master/contracts/UniswapV2Pair.sol\":6209:6232  balance1.sub(_reserve1) */\n      dup8\n      and\n      0xffffffff\n        /* \"v2-core-master/contracts/UniswapV2Pair.sol\":6209:6221  balance1.sub */\n      tag_170\n        /* \"v2-core-master/contracts/UniswapV2Pair.sol\":6209:6232  balance1.sub(_reserve1) */\n      and\n      jump\t// in\n    tag_335:\n        /* \"v2-core-master/contracts/UniswapV2Pair.sol\":6194:6232  uint amount1 = balance1.sub(_reserve1) */\n      swap1\n      pop\n        /* \"v2-core-master/contracts/UniswapV2Pair.sol\":6243:6253  bool feeOn */\n      0x00\n        /* \"v2-core-master/contracts/UniswapV2Pair.sol\":6256:6286  _mintFee(_reserve0, _reserve1) */\n      tag_336\n        /* \"v2-core-master/contracts/UniswapV2Pair.sol\":6265:6274  _reserve0 */\n      dup8\n        /* \"v2-core-master/contracts/UniswapV2Pair.sol\":6276:6285  _reserve1 */\n      dup8\n        /* \"v2-core-master/contracts/UniswapV2Pair.sol\":6256:6264  _mintFee */\n      tag_204\n        /* \"v2-core-master/contracts/UniswapV2Pair.sol\":6256:6286  _mintFee(_reserve0, _reserve1) */\n      jump\t// in\n    tag_336:\n        /* \"v2-core-master/contracts/UniswapV2Pair.sol\":6296:6313  uint _totalSupply */\n      0x00\n        /* \"v2-core-master/contracts/UniswapV2Pair.sol\":6316:6327  totalSupply */\n      sload\n        /* \"v2-core-master/contracts/UniswapV2Pair.sol\":6243:6286  bool feeOn = _mintFee(_reserve0, _reserve1) */\n      swap1\n      swap2\n      pop\n        /* \"v2-core-master/contracts/UniswapV2Pair.sol\":6419:6436  _totalSupply == 0 */\n      dup1\n        /* \"v2-core-master/contracts/UniswapV2Pair.sol\":6415:6768  if (_totalSupply == 0) {... */\n      tag_337\n      jumpi\n        /* \"v2-core-master/contracts/UniswapV2Pair.sol\":6464:6518  Math.sqrt(amount0.mul(amount1)).sub(MINIMUM_LIQUIDITY) */\n      tag_338\n        /* \"v2-core-master/contracts/UniswapV2Pair.sol\":535:542  10 ** 3 */\n      0x03e8\n        /* \"v2-core-master/contracts/UniswapV2Pair.sol\":6464:6495  Math.sqrt(amount0.mul(amount1)) */\n      tag_169\n        /* \"v2-core-master/contracts/UniswapV2Pair.sol\":6474:6494  amount0.mul(amount1) */\n      tag_208\n        /* \"v2-core-master/contracts/UniswapV2Pair.sol\":6474:6481  amount0 */\n      dup8\n        /* \"v2-core-master/contracts/UniswapV2Pair.sol\":6486:6493  amount1 */\n      dup8\n        /* \"v2-core-master/contracts/UniswapV2Pair.sol\":6474:6494  amount0.mul(amount1) */\n      0xffffffff\n        /* \"v2-core-master/contracts/UniswapV2Pair.sol\":6474:6485  amount0.mul */\n      tag_168\n        /* \"v2-core-master/contracts/UniswapV2Pair.sol\":6474:6494  amount0.mul(amount1) */\n      and\n      jump\t// in\n        /* \"v2-core-master/contracts/UniswapV2Pair.sol\":6464:6518  Math.sqrt(amount0.mul(amount1)).sub(MINIMUM_LIQUIDITY) */\n    tag_338:\n        /* \"v2-core-master/contracts/UniswapV2Pair.sol\":6452:6518  liquidity = Math.sqrt(amount0.mul(amount1)).sub(MINIMUM_LIQUIDITY) */\n      swap9\n      pop\n        /* \"v2-core-master/contracts/UniswapV2Pair.sol\":6532:6573  freezeMint(address(0), MINIMUM_LIQUIDITY) */\n      tag_341\n        /* \"v2-core-master/contracts/UniswapV2Pair.sol\":6551:6552  0 */\n      0x00\n        /* \"v2-core-master/contracts/UniswapV2Pair.sol\":535:542  10 ** 3 */\n      0x03e8\n        /* \"v2-core-master/contracts/UniswapV2Pair.sol\":6532:6542  freezeMint */\n      tag_342\n        /* \"v2-core-master/contracts/UniswapV2Pair.sol\":6532:6573  freezeMint(address(0), MINIMUM_LIQUIDITY) */\n      jump\t// in\n    tag_341:\n      pop\n        /* \"v2-core-master/contracts/UniswapV2Pair.sol\":6415:6768  if (_totalSupply == 0) {... */\n      jump(tag_343)\n    tag_337:\n        /* \"v2-core-master/contracts/UniswapV2Pair.sol\":6671:6757  Math.min(amount0.mul(_totalSupply) / _reserve0, amount1.mul(_totalSupply) / _reserve1) */\n      tag_344\n      sub(shl(0x70, 0x01), 0x01)\n        /* \"v2-core-master/contracts/UniswapV2Pair.sol\":6680:6717  amount0.mul(_totalSupply) / _reserve0 */\n      dup10\n      and\n        /* \"v2-core-master/contracts/UniswapV2Pair.sol\":6680:6705  amount0.mul(_totalSupply) */\n      tag_214\n        /* \"v2-core-master/contracts/UniswapV2Pair.sol\":6680:6687  amount0 */\n      dup7\n        /* \"v2-core-master/contracts/UniswapV2Pair.sol\":6692:6704  _totalSupply */\n      dup5\n        /* \"v2-core-master/contracts/UniswapV2Pair.sol\":6680:6705  amount0.mul(_totalSupply) */\n      0xffffffff\n        /* \"v2-core-master/contracts/UniswapV2Pair.sol\":6680:6691  amount0.mul */\n      tag_168\n        /* \"v2-core-master/contracts/UniswapV2Pair.sol\":6680:6705  amount0.mul(_totalSupply) */\n      and\n      jump\t// in\n        /* \"v2-core-master/contracts/UniswapV2Pair.sol\":6671:6757  Math.min(amount0.mul(_totalSupply) / _reserve0, amount1.mul(_totalSupply) / _reserve1) */\n    tag_344:\n        /* \"v2-core-master/contracts/UniswapV2Pair.sol\":6659:6757  liquidity = Math.min(amount0.mul(_totalSupply) / _reserve0, amount1.mul(_totalSupply) / _reserve1) */\n      swap9\n      pop\n        /* \"v2-core-master/contracts/UniswapV2Pair.sol\":6415:6768  if (_totalSupply == 0) {... */\n    tag_343:\n        /* \"v2-core-master/contracts/UniswapV2Pair.sol\":6797:6798  0 */\n      0x00\n        /* \"v2-core-master/contracts/UniswapV2Pair.sol\":6785:6794  liquidity */\n      dup10\n        /* \"v2-core-master/contracts/UniswapV2Pair.sol\":6785:6798  liquidity > 0 */\n      gt\n        /* \"v2-core-master/contracts/UniswapV2Pair.sol\":6777:6843  require(liquidity > 0, 'UniswapV2: INSUFFICIENT_LIQUIDITY_MINTED') */\n      tag_349\n      jumpi\n      mload(0x40)\n      shl(0xe5, 0x461bcd)\n      dup2\n      mstore\n      0x04\n      add\n      dup1\n      dup1\n      0x20\n      add\n      dup3\n      dup2\n      sub\n      dup3\n      mstore\n      0x28\n      dup2\n      mstore\n      0x20\n      add\n      dup1\n      data_6591c9f5bf1fefaad109b76a20e25c857b696080c952191f86220f001a83663e\n      0x28\n      swap2\n      codecopy\n      0x40\n      add\n      swap2\n      pop\n      pop\n      mload(0x40)\n      dup1\n      swap2\n      sub\n      swap1\n      revert\n    tag_349:\n        /* \"v2-core-master/contracts/UniswapV2Pair.sol\":6853:6878  freezeMint(to, liquidity) */\n      tag_350\n        /* \"v2-core-master/contracts/UniswapV2Pair.sol\":6864:6866  to */\n      dup11\n        /* \"v2-core-master/contracts/UniswapV2Pair.sol\":6868:6877  liquidity */\n      dup11\n        /* \"v2-core-master/contracts/UniswapV2Pair.sol\":6853:6863  freezeMint */\n      tag_342\n        /* \"v2-core-master/contracts/UniswapV2Pair.sol\":6853:6878  freezeMint(to, liquidity) */\n      jump\t// in\n    tag_350:\n      pop\n        /* \"v2-core-master/contracts/UniswapV2Pair.sol\":6889:6938  _update(balance0, balance1, _reserve0, _reserve1) */\n      tag_221\n        /* \"v2-core-master/contracts/UniswapV2Pair.sol\":6897:6905  balance0 */\n      dup7\n        /* \"v2-core-master/contracts/UniswapV2Pair.sol\":6907:6915  balance1 */\n      dup7\n        /* \"v2-core-master/contracts/UniswapV2Pair.sol\":6917:6926  _reserve0 */\n      dup11\n        /* \"v2-core-master/contracts/UniswapV2Pair.sol\":6928:6937  _reserve1 */\n      dup11\n        /* \"v2-core-master/contracts/UniswapV2Pair.sol\":6889:6896  _update */\n      tag_179\n        /* \"v2-core-master/contracts/UniswapV2Pair.sol\":6889:6938  _update(balance0, balance1, _reserve0, _reserve1) */\n      jump\t// in\n        /* \"v2-core-master/contracts/UniswapV2ERC20.sol\":415:476  mapping(address => mapping(address => uint)) public allowance */\n    tag_133:\n      0x02\n      0x20\n      swap1\n      dup2\n      mstore\n      0x00\n      swap3\n      dup4\n      mstore\n      0x40\n      dup1\n      dup5\n      keccak256\n      swap1\n      swap2\n      mstore\n      swap1\n      dup3\n      mstore\n      swap1\n      keccak256\n      sload\n      dup2\n      jump\t// out\n        /* \"v2-core-master/contracts/UniswapV2Pair.sol\":13966:14122  function sync() external lock {... */\n    tag_135:\n        /* \"v2-core-master/contracts/UniswapV2Pair.sol\":1239:1247  unlocked */\n      sload(0x0e)\n        /* \"v2-core-master/contracts/UniswapV2Pair.sol\":1251:1252  1 */\n      0x01\n        /* \"v2-core-master/contracts/UniswapV2Pair.sol\":1239:1252  unlocked == 1 */\n      eq\n        /* \"v2-core-master/contracts/UniswapV2Pair.sol\":1231:1274  require(unlocked == 1, 'UniswapV2: LOCKED') */\n      tag_355\n      jumpi\n      0x40\n      dup1\n      mload\n      shl(0xe5, 0x461bcd)\n      dup2\n      mstore\n      0x20\n      0x04\n      dup3\n      add\n      mstore\n      0x11\n      0x24\n      dup3\n      add\n      mstore\n      shl(0x7a, 0x155b9a5cddd85c158c8e881313d0d2d151)\n      0x44\n      dup3\n      add\n      mstore\n      swap1\n      mload\n      swap1\n      dup2\n      swap1\n      sub\n      0x64\n      add\n      swap1\n      revert\n    tag_355:\n        /* \"v2-core-master/contracts/UniswapV2Pair.sol\":1295:1296  0 */\n      0x00\n        /* \"v2-core-master/contracts/UniswapV2Pair.sol\":1284:1292  unlocked */\n      0x0e\n        /* \"v2-core-master/contracts/UniswapV2Pair.sol\":1284:1296  unlocked = 0 */\n      sstore\n        /* \"v2-core-master/contracts/UniswapV2Pair.sol\":14021:14027  token0 */\n      sload(0x08)\n        /* \"v2-core-master/contracts/UniswapV2Pair.sol\":14014:14053  IERC20(token0).balanceOf(address(this)) */\n      0x40\n      dup1\n      mload\n      shl(0xe0, 0x70a08231)\n      dup2\n      mstore\n        /* \"v2-core-master/contracts/UniswapV2Pair.sol\":14047:14051  this */\n      address\n        /* \"v2-core-master/contracts/UniswapV2Pair.sol\":14014:14053  IERC20(token0).balanceOf(address(this)) */\n      0x04\n      dup3\n      add\n      mstore\n      swap1\n      mload\n        /* \"v2-core-master/contracts/UniswapV2Pair.sol\":14006:14115  _update(IERC20(token0).balanceOf(address(this)), IERC20(token1).balanceOf(address(this)), reserve0, reserve1) */\n      tag_357\n      swap3\n      sub(shl(0xa0, 0x01), 0x01)\n        /* \"v2-core-master/contracts/UniswapV2Pair.sol\":14021:14027  token0 */\n      and\n      swap2\n        /* \"v2-core-master/contracts/UniswapV2Pair.sol\":14014:14038  IERC20(token0).balanceOf */\n      0x70a08231\n      swap2\n        /* \"v2-core-master/contracts/UniswapV2Pair.sol\":14014:14053  IERC20(token0).balanceOf(address(this)) */\n      0x24\n      dup1\n      dup4\n      add\n      swap3\n      0x20\n      swap3\n      swap2\n      swap1\n      dup3\n      swap1\n      sub\n      add\n      dup2\n        /* \"v2-core-master/contracts/UniswapV2Pair.sol\":14021:14027  token0 */\n      dup7\n        /* \"v2-core-master/contracts/UniswapV2Pair.sol\":14014:14053  IERC20(token0).balanceOf(address(this)) */\n      dup1\n      extcodesize\n      iszero\n        /* \"--CODEGEN--\":5:7   */\n      dup1\n      iszero\n      tag_358\n      jumpi\n        /* \"--CODEGEN--\":30:31   */\n      0x00\n        /* \"--CODEGEN--\":27:28   */\n      dup1\n        /* \"--CODEGEN--\":20:32   */\n      revert\n        /* \"--CODEGEN--\":5:7   */\n    tag_358:\n        /* \"v2-core-master/contracts/UniswapV2Pair.sol\":14014:14053  IERC20(token0).balanceOf(address(this)) */\n      pop\n      gas\n      staticcall\n      iszero\n        /* \"--CODEGEN--\":8:17   */\n      dup1\n        /* \"--CODEGEN--\":5:7   */\n      iszero\n      tag_359\n      jumpi\n        /* \"--CODEGEN--\":45:61   */\n      returndatasize\n        /* \"--CODEGEN--\":42:43   */\n      0x00\n        /* \"--CODEGEN--\":39:40   */\n      dup1\n        /* \"--CODEGEN--\":24:62   */\n      returndatacopy\n        /* \"--CODEGEN--\":77:93   */\n      returndatasize\n        /* \"--CODEGEN--\":74:75   */\n      0x00\n        /* \"--CODEGEN--\":67:94   */\n      revert\n        /* \"--CODEGEN--\":5:7   */\n    tag_359:\n        /* \"v2-core-master/contracts/UniswapV2Pair.sol\":14014:14053  IERC20(token0).balanceOf(address(this)) */\n      pop\n      pop\n      pop\n      pop\n      mload(0x40)\n      returndatasize\n        /* \"--CODEGEN--\":13:15   */\n      0x20\n        /* \"--CODEGEN--\":8:11   */\n      dup2\n        /* \"--CODEGEN--\":5:16   */\n      lt\n        /* \"--CODEGEN--\":2:4   */\n      iszero\n      tag_360\n      jumpi\n        /* \"--CODEGEN--\":29:30   */\n      0x00\n        /* \"--CODEGEN--\":26:27   */\n      dup1\n        /* \"--CODEGEN--\":19:31   */\n      revert\n        /* \"--CODEGEN--\":2:4   */\n    tag_360:\n      pop\n        /* \"v2-core-master/contracts/UniswapV2Pair.sol\":14014:14053  IERC20(token0).balanceOf(address(this)) */\n      mload\n        /* \"v2-core-master/contracts/UniswapV2Pair.sol\":14062:14068  token1 */\n      sload(0x09)\n        /* \"v2-core-master/contracts/UniswapV2Pair.sol\":14055:14094  IERC20(token1).balanceOf(address(this)) */\n      0x40\n      dup1\n      mload\n      shl(0xe0, 0x70a08231)\n      dup2\n      mstore\n        /* \"v2-core-master/contracts/UniswapV2Pair.sol\":14088:14092  this */\n      address\n        /* \"v2-core-master/contracts/UniswapV2Pair.sol\":14055:14094  IERC20(token1).balanceOf(address(this)) */\n      0x04\n      dup3\n      add\n      mstore\n      swap1\n      mload\n      sub(shl(0xa0, 0x01), 0x01)\n        /* \"v2-core-master/contracts/UniswapV2Pair.sol\":14062:14068  token1 */\n      swap1\n      swap3\n      and\n      swap2\n        /* \"v2-core-master/contracts/UniswapV2Pair.sol\":14055:14079  IERC20(token1).balanceOf */\n      0x70a08231\n      swap2\n        /* \"v2-core-master/contracts/UniswapV2Pair.sol\":14055:14094  IERC20(token1).balanceOf(address(this)) */\n      0x24\n      dup1\n      dup3\n      add\n      swap3\n        /* \"v2-core-master/contracts/UniswapV2Pair.sol\":14014:14053  IERC20(token0).balanceOf(address(this)) */\n      0x20\n      swap3\n        /* \"v2-core-master/contracts/UniswapV2Pair.sol\":14055:14094  IERC20(token1).balanceOf(address(this)) */\n      swap1\n      swap2\n      swap1\n      dup3\n      swap1\n      sub\n      add\n      dup2\n        /* \"v2-core-master/contracts/UniswapV2Pair.sol\":14062:14068  token1 */\n      dup7\n        /* \"v2-core-master/contracts/UniswapV2Pair.sol\":14055:14094  IERC20(token1).balanceOf(address(this)) */\n      dup1\n      extcodesize\n      iszero\n        /* \"--CODEGEN--\":5:7   */\n      dup1\n      iszero\n      tag_361\n      jumpi\n        /* \"--CODEGEN--\":30:31   */\n      0x00\n        /* \"--CODEGEN--\":27:28   */\n      dup1\n        /* \"--CODEGEN--\":20:32   */\n      revert\n        /* \"--CODEGEN--\":5:7   */\n    tag_361:\n        /* \"v2-core-master/contracts/UniswapV2Pair.sol\":14055:14094  IERC20(token1).balanceOf(address(this)) */\n      pop\n      gas\n      staticcall\n      iszero\n        /* \"--CODEGEN--\":8:17   */\n      dup1\n        /* \"--CODEGEN--\":5:7   */\n      iszero\n      tag_362\n      jumpi\n        /* \"--CODEGEN--\":45:61   */\n      returndatasize\n        /* \"--CODEGEN--\":42:43   */\n      0x00\n        /* \"--CODEGEN--\":39:40   */\n      dup1\n        /* \"--CODEGEN--\":24:62   */\n      returndatacopy\n        /* \"--CODEGEN--\":77:93   */\n      returndatasize\n        /* \"--CODEGEN--\":74:75   */\n      0x00\n        /* \"--CODEGEN--\":67:94   */\n      revert\n        /* \"--CODEGEN--\":5:7   */\n    tag_362:\n        /* \"v2-core-master/contracts/UniswapV2Pair.sol\":14055:14094  IERC20(token1).balanceOf(address(this)) */\n      pop\n      pop\n      pop\n      pop\n      mload(0x40)\n      returndatasize\n        /* \"--CODEGEN--\":13:15   */\n      0x20\n        /* \"--CODEGEN--\":8:11   */\n      dup2\n        /* \"--CODEGEN--\":5:16   */\n      lt\n        /* \"--CODEGEN--\":2:4   */\n      iszero\n      tag_363\n      jumpi\n        /* \"--CODEGEN--\":29:30   */\n      0x00\n        /* \"--CODEGEN--\":26:27   */\n      dup1\n        /* \"--CODEGEN--\":19:31   */\n      revert\n        /* \"--CODEGEN--\":2:4   */\n    tag_363:\n      pop\n        /* \"v2-core-master/contracts/UniswapV2Pair.sol\":14055:14094  IERC20(token1).balanceOf(address(this)) */\n      mload\n        /* \"v2-core-master/contracts/UniswapV2Pair.sol\":14096:14104  reserve0 */\n      sload(0x0a)\n      sub(shl(0x70, 0x01), 0x01)\n      dup1\n      dup3\n      and\n      swap2\n      shl(0x70, 0x01)\n        /* \"v2-core-master/contracts/UniswapV2Pair.sol\":14106:14114  reserve1 */\n      swap1\n      div\n      and\n        /* \"v2-core-master/contracts/UniswapV2Pair.sol\":14006:14013  _update */\n      tag_179\n        /* \"v2-core-master/contracts/UniswapV2Pair.sol\":14006:14115  _update(IERC20(token0).balanceOf(address(this)), IERC20(token1).balanceOf(address(this)), reserve0, reserve1) */\n      jump\t// in\n    tag_357:\n        /* \"v2-core-master/contracts/UniswapV2Pair.sol\":1328:1329  1 */\n      0x01\n        /* \"v2-core-master/contracts/UniswapV2Pair.sol\":1317:1325  unlocked */\n      0x0e\n        /* \"v2-core-master/contracts/UniswapV2Pair.sol\":1317:1329  unlocked = 1 */\n      sstore\n        /* \"v2-core-master/contracts/UniswapV2Pair.sol\":13966:14122  function sync() external lock {... */\n      jump\t// out\n        /* \"v2-core-master/contracts/UniswapV2Pair.sol\":1575:1859  function _safeTransfer(address token, address to, uint value) private {... */\n    tag_148:\n        /* \"v2-core-master/contracts/UniswapV2Pair.sol\":600:634  bytes('transfer(address,uint256)') */\n      0x40\n      dup1\n      mload\n      dup1\n      dup3\n      add\n      dup3\n      mstore\n      0x19\n      dup2\n      mstore\n      0x7472616e7366657228616464726573732c75696e743235362900000000000000\n      0x20\n      swap2\n      dup3\n      add\n      mstore\n        /* \"v2-core-master/contracts/UniswapV2Pair.sol\":1702:1745  abi.encodeWithSelector(SELECTOR, to, value) */\n      dup2\n      mload\n      sub(shl(0xa0, 0x01), 0x01)\n      dup6\n      dup2\n      and\n      0x24\n      dup4\n      add\n      mstore\n      0x44\n      dup1\n      dup4\n      add\n      dup7\n      swap1\n      mstore\n      dup5\n      mload\n        /* \"--CODEGEN--\":26:47   */\n      dup1\n      dup5\n      sub\n        /* \"--CODEGEN--\":22:54   */\n      swap1\n      swap2\n      add\n        /* \"--CODEGEN--\":6:55   */\n      dup2\n      mstore\n        /* \"v2-core-master/contracts/UniswapV2Pair.sol\":1702:1745  abi.encodeWithSelector(SELECTOR, to, value) */\n      0x64\n      swap1\n      swap3\n      add\n      dup5\n      mstore\n        /* \"--CODEGEN--\":25:43   */\n      swap2\n      dup2\n      add\n        /* \"--CODEGEN--\":61:78   */\n      dup1\n      mload\n      sub(shl(0xe0, 0x01), 0x01)\n        /* \"--CODEGEN--\":182:197   */\n      and\n      shl(0xe0, 0xa9059cbb)\n        /* \"--CODEGEN--\":179:208   */\n      or\n        /* \"--CODEGEN--\":160:209   */\n      dup2\n      mstore\n        /* \"v2-core-master/contracts/UniswapV2Pair.sol\":1691:1746  token.call(abi.encodeWithSelector(SELECTOR, to, value)) */\n      swap3\n      mload\n      dup2\n      mload\n        /* \"v2-core-master/contracts/UniswapV2Pair.sol\":1656:1668  bool success */\n      0x00\n      swap5\n        /* \"v2-core-master/contracts/UniswapV2Pair.sol\":1670:1687  bytes memory data */\n      0x60\n      swap5\n        /* \"v2-core-master/contracts/UniswapV2Pair.sol\":1691:1701  token.call */\n      dup10\n      and\n      swap4\n        /* \"v2-core-master/contracts/UniswapV2Pair.sol\":1702:1745  abi.encodeWithSelector(SELECTOR, to, value) */\n      swap3\n        /* \"v2-core-master/contracts/UniswapV2Pair.sol\":1691:1746  token.call(abi.encodeWithSelector(SELECTOR, to, value)) */\n      swap2\n      dup3\n      swap2\n        /* \"--CODEGEN--\":25:43   */\n      swap1\n        /* \"v2-core-master/contracts/UniswapV2Pair.sol\":1691:1746  token.call(abi.encodeWithSelector(SELECTOR, to, value)) */\n      dup1\n      dup4\n        /* \"--CODEGEN--\":25:43   */\n      dup4\n        /* \"--CODEGEN--\":36:189   */\n    tag_365:\n        /* \"--CODEGEN--\":66:68   */\n      0x20\n        /* \"--CODEGEN--\":61:64   */\n      dup4\n        /* \"--CODEGEN--\":58:69   */\n      lt\n        /* \"--CODEGEN--\":36:189   */\n      tag_367\n      jumpi\n        /* \"--CODEGEN--\":176:186   */\n      dup1\n      mload\n        /* \"--CODEGEN--\":164:187   */\n      dup3\n      mstore\n      not(0x1f)\n        /* \"--CODEGEN--\":139:151   */\n      swap1\n      swap3\n      add\n      swap2\n        /* \"--CODEGEN--\":98:100   */\n      0x20\n        /* \"--CODEGEN--\":89:101   */\n      swap2\n      dup3\n      add\n      swap2\n        /* \"--CODEGEN--\":114:126   */\n      add\n        /* \"--CODEGEN--\":36:189   */\n      jump(tag_365)\n    tag_367:\n        /* \"--CODEGEN--\":274:275   */\n      0x01\n        /* \"--CODEGEN--\":267:270   */\n      dup4\n        /* \"--CODEGEN--\":263:265   */\n      0x20\n        /* \"--CODEGEN--\":259:271   */\n      sub\n        /* \"--CODEGEN--\":254:257   */\n      0x0100\n        /* \"--CODEGEN--\":250:272   */\n      exp\n        /* \"--CODEGEN--\":246:276   */\n      sub\n        /* \"--CODEGEN--\":315:319   */\n      dup1\n        /* \"--CODEGEN--\":311:320   */\n      not\n        /* \"--CODEGEN--\":305:308   */\n      dup3\n        /* \"--CODEGEN--\":299:309   */\n      mload\n        /* \"--CODEGEN--\":295:321   */\n      and\n        /* \"--CODEGEN--\":356:360   */\n      dup2\n        /* \"--CODEGEN--\":350:353   */\n      dup5\n        /* \"--CODEGEN--\":344:354   */\n      mload\n        /* \"--CODEGEN--\":340:361   */\n      and\n        /* \"--CODEGEN--\":389:396   */\n      dup1\n        /* \"--CODEGEN--\":380:387   */\n      dup3\n        /* \"--CODEGEN--\":377:397   */\n      or\n        /* \"--CODEGEN--\":372:375   */\n      dup6\n        /* \"--CODEGEN--\":365:398   */\n      mstore\n        /* \"--CODEGEN--\":3:402   */\n      pop\n      pop\n      pop\n        /* \"v2-core-master/contracts/UniswapV2Pair.sol\":1691:1746  token.call(abi.encodeWithSelector(SELECTOR, to, value)) */\n      pop\n      pop\n      pop\n      swap1\n      pop\n      add\n      swap2\n      pop\n      pop\n      0x00\n      mload(0x40)\n      dup1\n      dup4\n      sub\n      dup2\n      0x00\n      dup7\n      gas\n      call\n      swap2\n      pop\n      pop\n      returndatasize\n        /* \"--CODEGEN--\":14:15   */\n      dup1\n        /* \"--CODEGEN--\":21:22   */\n      0x00\n        /* \"--CODEGEN--\":16:47   */\n      dup2\n      eq\n      tag_369\n      jumpi\n        /* \"--CODEGEN--\":75:79   */\n      0x40\n        /* \"--CODEGEN--\":69:80   */\n      mload\n        /* \"--CODEGEN--\":64:80   */\n      swap2\n      pop\n        /* \"--CODEGEN--\":144:148   */\n      0x1f\n        /* \"--CODEGEN--\":140:149   */\n      not\n        /* \"--CODEGEN--\":133:137   */\n      0x3f\n        /* \"--CODEGEN--\":115:131   */\n      returndatasize\n        /* \"--CODEGEN--\":111:138   */\n      add\n        /* \"--CODEGEN--\":107:150   */\n      and\n        /* \"--CODEGEN--\":104:105   */\n      dup3\n        /* \"--CODEGEN--\":100:151   */\n      add\n        /* \"--CODEGEN--\":94:98   */\n      0x40\n        /* \"--CODEGEN--\":87:152   */\n      mstore\n        /* \"--CODEGEN--\":169:185   */\n      returndatasize\n        /* \"--CODEGEN--\":166:167   */\n      dup3\n        /* \"--CODEGEN--\":159:186   */\n      mstore\n        /* \"--CODEGEN--\":225:241   */\n      returndatasize\n        /* \"--CODEGEN--\":222:223   */\n      0x00\n        /* \"--CODEGEN--\":215:219   */\n      0x20\n        /* \"--CODEGEN--\":212:213   */\n      dup5\n        /* \"--CODEGEN--\":208:220   */\n      add\n        /* \"--CODEGEN--\":193:242   */\n      returndatacopy\n        /* \"--CODEGEN--\":7:249   */\n      jump(tag_368)\n        /* \"--CODEGEN--\":16:47   */\n    tag_369:\n        /* \"--CODEGEN--\":36:40   */\n      0x60\n        /* \"--CODEGEN--\":31:40   */\n      swap2\n      pop\n        /* \"--CODEGEN--\":7:249   */\n    tag_368:\n      pop\n        /* \"v2-core-master/contracts/UniswapV2Pair.sol\":1655:1746  (bool success, bytes memory data) = token.call(abi.encodeWithSelector(SELECTOR, to, value)) */\n      swap2\n      pop\n      swap2\n      pop\n        /* \"v2-core-master/contracts/UniswapV2Pair.sol\":1764:1771  success */\n      dup2\n        /* \"v2-core-master/contracts/UniswapV2Pair.sol\":1764:1821  success && (data.length == 0 || abi.decode(data, (bool))) */\n      dup1\n      iszero\n      tag_371\n      jumpi\n      pop\n        /* \"v2-core-master/contracts/UniswapV2Pair.sol\":1776:1787  data.length */\n      dup1\n      mload\n        /* \"v2-core-master/contracts/UniswapV2Pair.sol\":1776:1792  data.length == 0 */\n      iszero\n      dup1\n        /* \"v2-core-master/contracts/UniswapV2Pair.sol\":1776:1820  data.length == 0 || abi.decode(data, (bool)) */\n      tag_371\n      jumpi\n      pop\n        /* \"v2-core-master/contracts/UniswapV2Pair.sol\":1807:1811  data */\n      dup1\n        /* \"v2-core-master/contracts/UniswapV2Pair.sol\":1796:1820  abi.decode(data, (bool)) */\n      dup1\n      0x20\n      add\n      swap1\n      mload\n        /* \"--CODEGEN--\":13:15   */\n      0x20\n        /* \"--CODEGEN--\":8:11   */\n      dup2\n        /* \"--CODEGEN--\":5:16   */\n      lt\n        /* \"--CODEGEN--\":2:4   */\n      iszero\n      tag_372\n      jumpi\n        /* \"--CODEGEN--\":29:30   */\n      0x00\n        /* \"--CODEGEN--\":26:27   */\n      dup1\n        /* \"--CODEGEN--\":19:31   */\n      revert\n        /* \"--CODEGEN--\":2:4   */\n    tag_372:\n      pop\n        /* \"v2-core-master/contracts/UniswapV2Pair.sol\":1796:1820  abi.decode(data, (bool)) */\n      mload\n        /* \"v2-core-master/contracts/UniswapV2Pair.sol\":1776:1820  data.length == 0 || abi.decode(data, (bool)) */\n    tag_371:\n        /* \"v2-core-master/contracts/UniswapV2Pair.sol\":1756:1852  require(success && (data.length == 0 || abi.decode(data, (bool))), 'UniswapV2: TRANSFER_FAILED') */\n      tag_373\n      jumpi\n      0x40\n      dup1\n      mload\n      shl(0xe5, 0x461bcd)\n      dup2\n      mstore\n      0x20\n      0x04\n      dup3\n      add\n      mstore\n      0x1a\n      0x24\n      dup3\n      add\n      mstore\n      0x556e697377617056323a205452414e534645525f4641494c4544000000000000\n      0x44\n      dup3\n      add\n      mstore\n      swap1\n      mload\n      swap1\n      dup2\n      swap1\n      sub\n      0x64\n      add\n      swap1\n      revert\n    tag_373:\n        /* \"v2-core-master/contracts/UniswapV2Pair.sol\":1575:1859  function _safeTransfer(address token, address to, uint value) private {... */\n      pop\n      pop\n      pop\n      pop\n      pop\n      jump\t// out\n        /* \"v2-core-master/contracts/libraries/SafeMath.sol\":420:560  function mul(uint x, uint y) internal pure returns (uint z) {... */\n    tag_168:\n        /* \"v2-core-master/contracts/libraries/SafeMath.sol\":472:478  uint z */\n      0x00\n        /* \"v2-core-master/contracts/libraries/SafeMath.sol\":498:504  y == 0 */\n      dup2\n      iszero\n      dup1\n        /* \"v2-core-master/contracts/libraries/SafeMath.sol\":498:528  y == 0 || (z = x * y) / y == x */\n      tag_375\n      jumpi\n      pop\n      pop\n        /* \"v2-core-master/contracts/libraries/SafeMath.sol\":513:518  x * y */\n      dup1\n      dup3\n      mul\n        /* \"v2-core-master/contracts/libraries/SafeMath.sol\":527:528  x */\n      dup3\n        /* \"v2-core-master/contracts/libraries/SafeMath.sol\":522:523  y */\n      dup3\n        /* \"v2-core-master/contracts/libraries/SafeMath.sol\":513:518  x * y */\n      dup3\n        /* \"v2-core-master/contracts/libraries/SafeMath.sol\":522:523  y */\n      dup2\n        /* \"v2-core-master/contracts/libraries/SafeMath.sol\":508:523  (z = x * y) / y */\n      tag_376\n      jumpi\n      invalid\n    tag_376:\n      div\n        /* \"v2-core-master/contracts/libraries/SafeMath.sol\":508:528  (z = x * y) / y == x */\n      eq\n        /* \"v2-core-master/contracts/libraries/SafeMath.sol\":498:528  y == 0 || (z = x * y) / y == x */\n    tag_375:\n        /* \"v2-core-master/contracts/libraries/SafeMath.sol\":490:553  require(y == 0 || (z = x * y) / y == x, 'ds-math-mul-overflow') */\n      tag_181\n      jumpi\n      0x40\n      dup1\n      mload\n      shl(0xe5, 0x461bcd)\n      dup2\n      mstore\n      0x20\n      0x04\n      dup3\n      add\n      mstore\n      0x14\n      0x24\n      dup3\n      add\n      mstore\n      shl(0x60, 0x64732d6d6174682d6d756c2d6f766572666c6f77)\n      0x44\n      dup3\n      add\n      mstore\n      swap1\n      mload\n      swap1\n      dup2\n      swap1\n      sub\n      0x64\n      add\n      swap1\n      revert\n        /* \"v2-core-master/contracts/libraries/SafeMath.sol\":287:414  function sub(uint x, uint y) internal pure returns (uint z) {... */\n    tag_170:\n        /* \"v2-core-master/contracts/libraries/SafeMath.sol\":370:375  x - y */\n      dup1\n      dup3\n      sub\n        /* \"v2-core-master/contracts/libraries/SafeMath.sol\":365:381  (z = x - y) <= x */\n      dup3\n      dup2\n      gt\n      iszero\n        /* \"v2-core-master/contracts/libraries/SafeMath.sol\":357:407  require((z = x - y) <= x, 'ds-math-sub-underflow') */\n      tag_181\n      jumpi\n      0x40\n      dup1\n      mload\n      shl(0xe5, 0x461bcd)\n      dup2\n      mstore\n      0x20\n      0x04\n      dup3\n      add\n      mstore\n      0x15\n      0x24\n      dup3\n      add\n      mstore\n      shl(0x58, 0x64732d6d6174682d7375622d756e646572666c6f77)\n      0x44\n      dup3\n      add\n      mstore\n      swap1\n      mload\n      swap1\n      dup2\n      swap1\n      sub\n      0x64\n      add\n      swap1\n      revert\n        /* \"v2-core-master/contracts/UniswapV2Pair.sol\":2662:3511  function _update(uint balance0, uint balance1, uint112 _reserve0, uint112 _reserve1) private {... */\n    tag_179:\n      sub(shl(0x70, 0x01), 0x01)\n        /* \"v2-core-master/contracts/UniswapV2Pair.sol\":2773:2796  balance0 <= uint112(-1) */\n      dup5\n      gt\n      dup1\n      iszero\n      swap1\n        /* \"v2-core-master/contracts/UniswapV2Pair.sol\":2773:2823  balance0 <= uint112(-1) && balance1 <= uint112(-1) */\n      tag_381\n      jumpi\n      pop\n      sub(shl(0x70, 0x01), 0x01)\n        /* \"v2-core-master/contracts/UniswapV2Pair.sol\":2800:2823  balance1 <= uint112(-1) */\n      dup4\n      gt\n      iszero\n        /* \"v2-core-master/contracts/UniswapV2Pair.sol\":2773:2823  balance0 <= uint112(-1) && balance1 <= uint112(-1) */\n    tag_381:\n        /* \"v2-core-master/contracts/UniswapV2Pair.sol\":2765:2847  require(balance0 <= uint112(-1) && balance1 <= uint112(-1), 'UniswapV2: OVERFLOW') */\n      tag_382\n      jumpi\n      0x40\n      dup1\n      mload\n      shl(0xe5, 0x461bcd)\n      dup2\n      mstore\n      0x20\n      0x04\n      dup3\n      add\n      mstore\n      0x13\n      0x24\n      dup3\n      add\n      mstore\n      shl(0x68, 0x556e697377617056323a204f564552464c4f57)\n      0x44\n      dup3\n      add\n      mstore\n      swap1\n      mload\n      swap1\n      dup2\n      swap1\n      sub\n      0x64\n      add\n      swap1\n      revert\n    tag_382:\n        /* \"v2-core-master/contracts/UniswapV2Pair.sol\":2962:2980  blockTimestampLast */\n      sload(0x0a)\n        /* \"v2-core-master/contracts/UniswapV2Pair.sol\":2888:2913  block.timestamp % 2 ** 32 */\n      0xffffffff\n        /* \"v2-core-master/contracts/UniswapV2Pair.sol\":2888:2903  block.timestamp */\n      timestamp\n        /* \"v2-core-master/contracts/UniswapV2Pair.sol\":2888:2913  block.timestamp % 2 ** 32 */\n      dup2\n      and\n      swap2\n      shl(0xe0, 0x01)\n        /* \"v2-core-master/contracts/UniswapV2Pair.sol\":2962:2980  blockTimestampLast */\n      swap1\n      div\n      dup2\n      and\n        /* \"v2-core-master/contracts/UniswapV2Pair.sol\":2945:2980  blockTimestamp - blockTimestampLast */\n      dup3\n      sub\n      swap1\n        /* \"v2-core-master/contracts/UniswapV2Pair.sol\":3017:3032  timeElapsed > 0 */\n      dup2\n      and\n      iszero\n      dup1\n      iszero\n      swap1\n        /* \"v2-core-master/contracts/UniswapV2Pair.sol\":3017:3050  timeElapsed > 0 && _reserve0 != 0 */\n      tag_384\n      jumpi\n      pop\n      sub(shl(0x70, 0x01), 0x01)\n        /* \"v2-core-master/contracts/UniswapV2Pair.sol\":3036:3050  _reserve0 != 0 */\n      dup5\n      and\n      iszero\n      iszero\n        /* \"v2-core-master/contracts/UniswapV2Pair.sol\":3017:3050  timeElapsed > 0 && _reserve0 != 0 */\n    tag_384:\n        /* \"v2-core-master/contracts/UniswapV2Pair.sol\":3017:3068  timeElapsed > 0 && _reserve0 != 0 && _reserve1 != 0 */\n      dup1\n      iszero\n      tag_385\n      jumpi\n      pop\n      sub(shl(0x70, 0x01), 0x01)\n        /* \"v2-core-master/contracts/UniswapV2Pair.sol\":3054:3068  _reserve1 != 0 */\n      dup4\n      and\n      iszero\n      iszero\n        /* \"v2-core-master/contracts/UniswapV2Pair.sol\":3017:3068  timeElapsed > 0 && _reserve0 != 0 && _reserve1 != 0 */\n    tag_385:\n        /* \"v2-core-master/contracts/UniswapV2Pair.sol\":3013:3345  if (timeElapsed > 0 && _reserve0 != 0 && _reserve1 != 0) {... */\n      iszero\n      tag_386\n      jumpi\n        /* \"v2-core-master/contracts/UniswapV2Pair.sol\":3221:3232  timeElapsed */\n      dup1\n        /* \"v2-core-master/contracts/UniswapV2Pair.sol\":3168:3232  uint(UQ112x112.encode(_reserve1).uqdiv(_reserve0)) * timeElapsed */\n      0xffffffff\n      and\n        /* \"v2-core-master/contracts/UniswapV2Pair.sol\":3173:3217  UQ112x112.encode(_reserve1).uqdiv(_reserve0) */\n      tag_387\n        /* \"v2-core-master/contracts/UniswapV2Pair.sol\":3207:3216  _reserve0 */\n      dup6\n        /* \"v2-core-master/contracts/UniswapV2Pair.sol\":3173:3200  UQ112x112.encode(_reserve1) */\n      tag_388\n        /* \"v2-core-master/contracts/UniswapV2Pair.sol\":3190:3199  _reserve1 */\n      dup7\n        /* \"v2-core-master/contracts/UniswapV2Pair.sol\":3173:3189  UQ112x112.encode */\n      tag_389\n        /* \"v2-core-master/contracts/UniswapV2Pair.sol\":3173:3200  UQ112x112.encode(_reserve1) */\n      jump\t// in\n    tag_388:\n      sub(shl(0xe0, 0x01), 0x01)\n        /* \"v2-core-master/contracts/UniswapV2Pair.sol\":3173:3206  UQ112x112.encode(_reserve1).uqdiv */\n      and\n      swap1\n        /* \"v2-core-master/contracts/UniswapV2Pair.sol\":3173:3217  UQ112x112.encode(_reserve1).uqdiv(_reserve0) */\n      0xffffffff\n        /* \"v2-core-master/contracts/UniswapV2Pair.sol\":3173:3206  UQ112x112.encode(_reserve1).uqdiv */\n      tag_390\n        /* \"v2-core-master/contracts/UniswapV2Pair.sol\":3173:3217  UQ112x112.encode(_reserve1).uqdiv(_reserve0) */\n      and\n      jump\t// in\n    tag_387:\n        /* \"v2-core-master/contracts/UniswapV2Pair.sol\":3144:3164  price0CumulativeLast */\n      0x0b\n        /* \"v2-core-master/contracts/UniswapV2Pair.sol\":3144:3232  price0CumulativeLast += uint(UQ112x112.encode(_reserve1).uqdiv(_reserve0)) * timeElapsed */\n      dup1\n      sload\n      sub(shl(0xe0, 0x01), 0x01)\n        /* \"v2-core-master/contracts/UniswapV2Pair.sol\":3168:3218  uint(UQ112x112.encode(_reserve1).uqdiv(_reserve0)) */\n      swap3\n      swap1\n      swap3\n      and\n        /* \"v2-core-master/contracts/UniswapV2Pair.sol\":3168:3232  uint(UQ112x112.encode(_reserve1).uqdiv(_reserve0)) * timeElapsed */\n      swap3\n      swap1\n      swap3\n      mul\n        /* \"v2-core-master/contracts/UniswapV2Pair.sol\":3144:3232  price0CumulativeLast += uint(UQ112x112.encode(_reserve1).uqdiv(_reserve0)) * timeElapsed */\n      add\n      swap1\n      sstore\n        /* \"v2-core-master/contracts/UniswapV2Pair.sol\":3270:3334  uint(UQ112x112.encode(_reserve0).uqdiv(_reserve1)) * timeElapsed */\n      0xffffffff\n      dup2\n      and\n        /* \"v2-core-master/contracts/UniswapV2Pair.sol\":3275:3319  UQ112x112.encode(_reserve0).uqdiv(_reserve1) */\n      tag_391\n        /* \"v2-core-master/contracts/UniswapV2Pair.sol\":3309:3318  _reserve1 */\n      dup5\n        /* \"v2-core-master/contracts/UniswapV2Pair.sol\":3275:3302  UQ112x112.encode(_reserve0) */\n      tag_388\n        /* \"v2-core-master/contracts/UniswapV2Pair.sol\":3292:3301  _reserve0 */\n      dup8\n        /* \"v2-core-master/contracts/UniswapV2Pair.sol\":3275:3291  UQ112x112.encode */\n      tag_389\n        /* \"v2-core-master/contracts/UniswapV2Pair.sol\":3275:3302  UQ112x112.encode(_reserve0) */\n      jump\t// in\n        /* \"v2-core-master/contracts/UniswapV2Pair.sol\":3275:3319  UQ112x112.encode(_reserve0).uqdiv(_reserve1) */\n    tag_391:\n        /* \"v2-core-master/contracts/UniswapV2Pair.sol\":3246:3266  price1CumulativeLast */\n      0x0c\n        /* \"v2-core-master/contracts/UniswapV2Pair.sol\":3246:3334  price1CumulativeLast += uint(UQ112x112.encode(_reserve0).uqdiv(_reserve1)) * timeElapsed */\n      dup1\n      sload\n      sub(shl(0xe0, 0x01), 0x01)\n        /* \"v2-core-master/contracts/UniswapV2Pair.sol\":3270:3320  uint(UQ112x112.encode(_reserve0).uqdiv(_reserve1)) */\n      swap3\n      swap1\n      swap3\n      and\n        /* \"v2-core-master/contracts/UniswapV2Pair.sol\":3270:3334  uint(UQ112x112.encode(_reserve0).uqdiv(_reserve1)) * timeElapsed */\n      swap3\n      swap1\n      swap3\n      mul\n        /* \"v2-core-master/contracts/UniswapV2Pair.sol\":3246:3334  price1CumulativeLast += uint(UQ112x112.encode(_reserve0).uqdiv(_reserve1)) * timeElapsed */\n      add\n      swap1\n      sstore\n        /* \"v2-core-master/contracts/UniswapV2Pair.sol\":3013:3345  if (timeElapsed > 0 && _reserve0 != 0 && _reserve1 != 0) {... */\n    tag_386:\n        /* \"v2-core-master/contracts/UniswapV2Pair.sol\":3354:3362  reserve0 */\n      0x0a\n        /* \"v2-core-master/contracts/UniswapV2Pair.sol\":3354:3382  reserve0 = uint112(balance0) */\n      dup1\n      sload\n      not(0xffffffffffffffffffffffffffff)\n      and\n      sub(shl(0x70, 0x01), 0x01)\n      dup9\n      dup2\n      and\n      swap2\n      swap1\n      swap2\n      or\n      not(shl(0x70, 0xffffffffffffffffffffffffffff))\n        /* \"v2-core-master/contracts/UniswapV2Pair.sol\":3392:3420  reserve1 = uint112(balance1) */\n      and\n      shl(0x70, 0x01)\n      dup9\n      dup4\n      and\n      dup2\n      mul\n      swap2\n      swap1\n      swap2\n      or\n      sub(shl(0xe0, 0x01), 0x01)\n        /* \"v2-core-master/contracts/UniswapV2Pair.sol\":3430:3465  blockTimestampLast = blockTimestamp */\n      and\n      shl(0xe0, 0x01)\n      0xffffffff\n      dup8\n      and\n      mul\n      or\n      swap3\n      dup4\n      swap1\n      sstore\n        /* \"v2-core-master/contracts/UniswapV2Pair.sol\":3480:3504  Sync(reserve0, reserve1) */\n      0x40\n      dup1\n      mload\n        /* \"v2-core-master/contracts/UniswapV2Pair.sol\":3485:3493  reserve0 */\n      dup5\n      dup5\n      and\n        /* \"v2-core-master/contracts/UniswapV2Pair.sol\":3480:3504  Sync(reserve0, reserve1) */\n      dup2\n      mstore\n        /* \"v2-core-master/contracts/UniswapV2Pair.sol\":3495:3503  reserve1 */\n      swap2\n      swap1\n      swap4\n      div\n      swap1\n      swap2\n      and\n        /* \"v2-core-master/contracts/UniswapV2Pair.sol\":3480:3504  Sync(reserve0, reserve1) */\n      0x20\n      dup3\n      add\n      mstore\n      dup2\n      mload\n      0x1c411e9a96e071241c2f21f7726b17ae89e3cab4c78be50e062b03a9fffbbad1\n      swap3\n      swap2\n      dup2\n      swap1\n      sub\n      swap1\n      swap2\n      add\n      swap1\n      log1\n        /* \"v2-core-master/contracts/UniswapV2Pair.sol\":2662:3511  function _update(uint balance0, uint balance1, uint112 _reserve0, uint112 _reserve1) private {... */\n      pop\n      pop\n      pop\n      pop\n      pop\n      pop\n      jump\t// out\n        /* \"v2-core-master/contracts/UniswapV2ERC20.sol\":2466:2632  function _approve(address owner, address spender, uint value) private {... */\n    tag_183:\n      sub(shl(0xa0, 0x01), 0x01)\n        /* \"v2-core-master/contracts/UniswapV2ERC20.sol\":2546:2562  allowance[owner] */\n      dup1\n      dup5\n      and\n      0x00\n      dup2\n      dup2\n      mstore\n        /* \"v2-core-master/contracts/UniswapV2ERC20.sol\":2546:2555  allowance */\n      0x02\n        /* \"v2-core-master/contracts/UniswapV2ERC20.sol\":2546:2562  allowance[owner] */\n      0x20\n      swap1\n      dup2\n      mstore\n      0x40\n      dup1\n      dup4\n      keccak256\n        /* \"v2-core-master/contracts/UniswapV2ERC20.sol\":2546:2571  allowance[owner][spender] */\n      swap5\n      dup8\n      and\n      dup1\n      dup5\n      mstore\n      swap5\n      dup3\n      mstore\n      swap2\n      dup3\n      swap1\n      keccak256\n        /* \"v2-core-master/contracts/UniswapV2ERC20.sol\":2546:2579  allowance[owner][spender] = value */\n      dup6\n      swap1\n      sstore\n        /* \"v2-core-master/contracts/UniswapV2ERC20.sol\":2594:2625  Approval(owner, spender, value) */\n      dup2\n      mload\n      dup6\n      dup2\n      mstore\n      swap2\n      mload\n      0x8c5be1e5ebec7d5bd14f71427d1e84f3dd0314c0f7b2291e5b200ac8c7c3b925\n      swap3\n      dup2\n      swap1\n      sub\n      swap1\n      swap2\n      add\n      swap1\n      log3\n        /* \"v2-core-master/contracts/UniswapV2ERC20.sol\":2466:2632  function _approve(address owner, address spender, uint value) private {... */\n      pop\n      pop\n      pop\n      jump\t// out\n        /* \"v2-core-master/contracts/UniswapV2ERC20.sol\":2638:2854  function _transfer(address from, address to, uint value) private {... */\n    tag_188:\n      sub(shl(0xa0, 0x01), 0x01)\n        /* \"v2-core-master/contracts/UniswapV2ERC20.sol\":2731:2746  _balances[from] */\n      dup4\n      and\n      0x00\n      swap1\n      dup2\n      mstore\n        /* \"v2-core-master/contracts/UniswapV2ERC20.sol\":2731:2740  _balances */\n      0x01\n        /* \"v2-core-master/contracts/UniswapV2ERC20.sol\":2731:2746  _balances[from] */\n      0x20\n      mstore\n      0x40\n      swap1\n      keccak256\n      sload\n        /* \"v2-core-master/contracts/UniswapV2ERC20.sol\":2731:2757  _balances[from].sub(value) */\n      tag_395\n      swap1\n        /* \"v2-core-master/contracts/UniswapV2ERC20.sol\":2751:2756  value */\n      dup3\n        /* \"v2-core-master/contracts/UniswapV2ERC20.sol\":2731:2757  _balances[from].sub(value) */\n      0xffffffff\n        /* \"v2-core-master/contracts/UniswapV2ERC20.sol\":2731:2750  _balances[from].sub */\n      tag_170\n        /* \"v2-core-master/contracts/UniswapV2ERC20.sol\":2731:2757  _balances[from].sub(value) */\n      and\n      jump\t// in\n    tag_395:\n      sub(shl(0xa0, 0x01), 0x01)\n        /* \"v2-core-master/contracts/UniswapV2ERC20.sol\":2713:2728  _balances[from] */\n      dup1\n      dup6\n      and\n      0x00\n      swap1\n      dup2\n      mstore\n        /* \"v2-core-master/contracts/UniswapV2ERC20.sol\":2713:2722  _balances */\n      0x01\n        /* \"v2-core-master/contracts/UniswapV2ERC20.sol\":2713:2728  _balances[from] */\n      0x20\n      mstore\n      0x40\n      dup1\n      dup3\n      keccak256\n        /* \"v2-core-master/contracts/UniswapV2ERC20.sol\":2713:2757  _balances[from] = _balances[from].sub(value) */\n      swap4\n      swap1\n      swap4\n      sstore\n        /* \"v2-core-master/contracts/UniswapV2ERC20.sol\":2783:2796  _balances[to] */\n      swap1\n      dup5\n      and\n      dup2\n      mstore\n      keccak256\n      sload\n        /* \"v2-core-master/contracts/UniswapV2ERC20.sol\":2783:2807  _balances[to].add(value) */\n      tag_396\n      swap1\n        /* \"v2-core-master/contracts/UniswapV2ERC20.sol\":2801:2806  value */\n      dup3\n        /* \"v2-core-master/contracts/UniswapV2ERC20.sol\":2783:2807  _balances[to].add(value) */\n      0xffffffff\n        /* \"v2-core-master/contracts/UniswapV2ERC20.sol\":2783:2800  _balances[to].add */\n      tag_226\n        /* \"v2-core-master/contracts/UniswapV2ERC20.sol\":2783:2807  _balances[to].add(value) */\n      and\n      jump\t// in\n    tag_396:\n      sub(shl(0xa0, 0x01), 0x01)\n        /* \"v2-core-master/contracts/UniswapV2ERC20.sol\":2767:2780  _balances[to] */\n      dup1\n      dup5\n      and\n      0x00\n      dup2\n      dup2\n      mstore\n        /* \"v2-core-master/contracts/UniswapV2ERC20.sol\":2767:2776  _balances */\n      0x01\n        /* \"v2-core-master/contracts/UniswapV2ERC20.sol\":2767:2780  _balances[to] */\n      0x20\n      swap1\n      dup2\n      mstore\n      0x40\n      swap2\n      dup3\n      swap1\n      keccak256\n        /* \"v2-core-master/contracts/UniswapV2ERC20.sol\":2767:2807  _balances[to] = _balances[to].add(value) */\n      swap5\n      swap1\n      swap5\n      sstore\n        /* \"v2-core-master/contracts/UniswapV2ERC20.sol\":2822:2847  Transfer(from, to, value) */\n      dup1\n      mload\n      dup6\n      dup2\n      mstore\n      swap1\n      mload\n        /* \"v2-core-master/contracts/UniswapV2ERC20.sol\":2767:2780  _balances[to] */\n      swap2\n      swap4\n        /* \"v2-core-master/contracts/UniswapV2ERC20.sol\":2822:2847  Transfer(from, to, value) */\n      swap3\n      dup8\n      and\n      swap3\n      0x00\n      dup1\n      mload\n      0x20\n      data_ada389e1fc24a8587c776340efb91b36e675792ab631816100d55df0b5cf3cbc\n      dup4\n      codecopy\n      dup2\n      mload\n      swap2\n      mstore\n      swap3\n      swap2\n      dup3\n      swap1\n      sub\n      add\n      swap1\n      log3\n        /* \"v2-core-master/contracts/UniswapV2ERC20.sol\":2638:2854  function _transfer(address from, address to, uint value) private {... */\n      pop\n      pop\n      pop\n      jump\t// out\n        /* \"v2-core-master/contracts/UniswapV2Pair.sol\":3598:4417  function _mintFee(uint112 _reserve0, uint112 _reserve1) private returns (bool feeOn) {... */\n    tag_204:\n        /* \"v2-core-master/contracts/UniswapV2Pair.sol\":3671:3681  bool feeOn */\n      0x00\n        /* \"v2-core-master/contracts/UniswapV2Pair.sol\":3693:3706  address feeTo */\n      dup1\n        /* \"v2-core-master/contracts/UniswapV2Pair.sol\":3727:3734  factory */\n      0x07\n      0x00\n      swap1\n      sload\n      swap1\n      0x0100\n      exp\n      swap1\n      div\n      sub(shl(0xa0, 0x01), 0x01)\n      and\n      sub(shl(0xa0, 0x01), 0x01)\n        /* \"v2-core-master/contracts/UniswapV2Pair.sol\":3709:3741  IUniswapV2Factory(factory).feeTo */\n      and\n      0x017e7e58\n        /* \"v2-core-master/contracts/UniswapV2Pair.sol\":3709:3743  IUniswapV2Factory(factory).feeTo() */\n      mload(0x40)\n      dup2\n      0xffffffff\n      and\n      0xe0\n      shl\n      dup2\n      mstore\n      0x04\n      add\n      0x20\n      mload(0x40)\n      dup1\n      dup4\n      sub\n      dup2\n      dup7\n      dup1\n      extcodesize\n      iszero\n        /* \"--CODEGEN--\":8:17   */\n      dup1\n        /* \"--CODEGEN--\":5:7   */\n      iszero\n      tag_398\n      jumpi\n        /* \"--CODEGEN--\":30:31   */\n      0x00\n        /* \"--CODEGEN--\":27:28   */\n      dup1\n        /* \"--CODEGEN--\":20:32   */\n      revert\n        /* \"--CODEGEN--\":5:7   */\n    tag_398:\n        /* \"v2-core-master/contracts/UniswapV2Pair.sol\":3709:3743  IUniswapV2Factory(factory).feeTo() */\n      pop\n      gas\n      staticcall\n      iszero\n        /* \"--CODEGEN--\":8:17   */\n      dup1\n        /* \"--CODEGEN--\":5:7   */\n      iszero\n      tag_399\n      jumpi\n        /* \"--CODEGEN--\":45:61   */\n      returndatasize\n        /* \"--CODEGEN--\":42:43   */\n      0x00\n        /* \"--CODEGEN--\":39:40   */\n      dup1\n        /* \"--CODEGEN--\":24:62   */\n      returndatacopy\n        /* \"--CODEGEN--\":77:93   */\n      returndatasize\n        /* \"--CODEGEN--\":74:75   */\n      0x00\n        /* \"--CODEGEN--\":67:94   */\n      revert\n        /* \"--CODEGEN--\":5:7   */\n    tag_399:\n        /* \"v2-core-master/contracts/UniswapV2Pair.sol\":3709:3743  IUniswapV2Factory(factory).feeTo() */\n      pop\n      pop\n      pop\n      pop\n      mload(0x40)\n      returndatasize\n        /* \"--CODEGEN--\":13:15   */\n      0x20\n        /* \"--CODEGEN--\":8:11   */\n      dup2\n        /* \"--CODEGEN--\":5:16   */\n      lt\n        /* \"--CODEGEN--\":2:4   */\n      iszero\n      tag_400\n      jumpi\n        /* \"--CODEGEN--\":29:30   */\n      0x00\n        /* \"--CODEGEN--\":26:27   */\n      dup1\n        /* \"--CODEGEN--\":19:31   */\n      revert\n        /* \"--CODEGEN--\":2:4   */\n    tag_400:\n      pop\n        /* \"v2-core-master/contracts/UniswapV2Pair.sol\":3709:3743  IUniswapV2Factory(factory).feeTo() */\n      mload\n        /* \"v2-core-master/contracts/UniswapV2Pair.sol\":3804:3809  kLast */\n      sload(0x0d)\n      sub(shl(0xa0, 0x01), 0x01)\n        /* \"v2-core-master/contracts/UniswapV2Pair.sol\":3761:3780  feeTo != address(0) */\n      dup3\n      and\n      iszero\n      dup1\n      iszero\n      swap5\n      pop\n        /* \"v2-core-master/contracts/UniswapV2Pair.sol\":3709:3743  IUniswapV2Factory(factory).feeTo() */\n      swap2\n      swap3\n      pop\n        /* \"v2-core-master/contracts/UniswapV2Pair.sol\":3804:3809  kLast */\n      swap1\n        /* \"v2-core-master/contracts/UniswapV2Pair.sol\":3834:4411  if (feeOn) {... */\n      tag_401\n      jumpi\n        /* \"v2-core-master/contracts/UniswapV2Pair.sol\":3863:3874  _kLast != 0 */\n      dup1\n      iszero\n        /* \"v2-core-master/contracts/UniswapV2Pair.sol\":3859:4344  if (_kLast != 0) {... */\n      tag_402\n      jumpi\n        /* \"v2-core-master/contracts/UniswapV2Pair.sol\":3894:3904  uint rootK */\n      0x00\n        /* \"v2-core-master/contracts/UniswapV2Pair.sol\":3907:3948  Math.sqrt(uint(_reserve0).mul(_reserve1)) */\n      tag_403\n        /* \"v2-core-master/contracts/UniswapV2Pair.sol\":3917:3947  uint(_reserve0).mul(_reserve1) */\n      tag_208\n      sub(shl(0x70, 0x01), 0x01)\n        /* \"v2-core-master/contracts/UniswapV2Pair.sol\":3917:3932  uint(_reserve0) */\n      dup9\n      dup2\n      and\n      swap1\n        /* \"v2-core-master/contracts/UniswapV2Pair.sol\":3917:3947  uint(_reserve0).mul(_reserve1) */\n      dup9\n      and\n      0xffffffff\n        /* \"v2-core-master/contracts/UniswapV2Pair.sol\":3917:3936  uint(_reserve0).mul */\n      tag_168\n        /* \"v2-core-master/contracts/UniswapV2Pair.sol\":3917:3947  uint(_reserve0).mul(_reserve1) */\n      and\n      jump\t// in\n        /* \"v2-core-master/contracts/UniswapV2Pair.sol\":3907:3948  Math.sqrt(uint(_reserve0).mul(_reserve1)) */\n    tag_403:\n        /* \"v2-core-master/contracts/UniswapV2Pair.sol\":3894:3948  uint rootK = Math.sqrt(uint(_reserve0).mul(_reserve1)) */\n      swap1\n      pop\n        /* \"v2-core-master/contracts/UniswapV2Pair.sol\":3966:3980  uint rootKLast */\n      0x00\n        /* \"v2-core-master/contracts/UniswapV2Pair.sol\":3983:4000  Math.sqrt(_kLast) */\n      tag_405\n        /* \"v2-core-master/contracts/UniswapV2Pair.sol\":3993:3999  _kLast */\n      dup4\n        /* \"v2-core-master/contracts/UniswapV2Pair.sol\":3983:3992  Math.sqrt */\n      tag_209\n        /* \"v2-core-master/contracts/UniswapV2Pair.sol\":3983:4000  Math.sqrt(_kLast) */\n      jump\t// in\n    tag_405:\n        /* \"v2-core-master/contracts/UniswapV2Pair.sol\":3966:4000  uint rootKLast = Math.sqrt(_kLast) */\n      swap1\n      pop\n        /* \"v2-core-master/contracts/UniswapV2Pair.sol\":4030:4039  rootKLast */\n      dup1\n        /* \"v2-core-master/contracts/UniswapV2Pair.sol\":4022:4027  rootK */\n      dup3\n        /* \"v2-core-master/contracts/UniswapV2Pair.sol\":4022:4039  rootK > rootKLast */\n      gt\n        /* \"v2-core-master/contracts/UniswapV2Pair.sol\":4018:4330  if (rootK > rootKLast) {... */\n      iszero\n      tag_406\n      jumpi\n        /* \"v2-core-master/contracts/UniswapV2Pair.sol\":4063:4077  uint numerator */\n      0x00\n        /* \"v2-core-master/contracts/UniswapV2Pair.sol\":4080:4117  totalSupply.mul(rootK.sub(rootKLast)) */\n      tag_407\n        /* \"v2-core-master/contracts/UniswapV2Pair.sol\":4096:4116  rootK.sub(rootKLast) */\n      tag_408\n        /* \"v2-core-master/contracts/UniswapV2Pair.sol\":4096:4101  rootK */\n      dup5\n        /* \"v2-core-master/contracts/UniswapV2Pair.sol\":4106:4115  rootKLast */\n      dup5\n        /* \"v2-core-master/contracts/UniswapV2Pair.sol\":4096:4116  rootK.sub(rootKLast) */\n      0xffffffff\n        /* \"v2-core-master/contracts/UniswapV2Pair.sol\":4096:4105  rootK.sub */\n      tag_170\n        /* \"v2-core-master/contracts/UniswapV2Pair.sol\":4096:4116  rootK.sub(rootKLast) */\n      and\n      jump\t// in\n    tag_408:\n        /* \"v2-core-master/contracts/UniswapV2Pair.sol\":4080:4091  totalSupply */\n      sload(0x00)\n      swap1\n        /* \"v2-core-master/contracts/UniswapV2Pair.sol\":4080:4117  totalSupply.mul(rootK.sub(rootKLast)) */\n      0xffffffff\n        /* \"v2-core-master/contracts/UniswapV2Pair.sol\":4080:4095  totalSupply.mul */\n      tag_168\n        /* \"v2-core-master/contracts/UniswapV2Pair.sol\":4080:4117  totalSupply.mul(rootK.sub(rootKLast)) */\n      and\n      jump\t// in\n    tag_407:\n        /* \"v2-core-master/contracts/UniswapV2Pair.sol\":4063:4117  uint numerator = totalSupply.mul(rootK.sub(rootKLast)) */\n      swap1\n      pop\n        /* \"v2-core-master/contracts/UniswapV2Pair.sol\":4139:4155  uint denominator */\n      0x00\n        /* \"v2-core-master/contracts/UniswapV2Pair.sol\":4158:4185  rootK.mul(5).add(rootKLast) */\n      tag_409\n        /* \"v2-core-master/contracts/UniswapV2Pair.sol\":4175:4184  rootKLast */\n      dup4\n        /* \"v2-core-master/contracts/UniswapV2Pair.sol\":4158:4170  rootK.mul(5) */\n      tag_410\n        /* \"v2-core-master/contracts/UniswapV2Pair.sol\":4158:4163  rootK */\n      dup7\n        /* \"v2-core-master/contracts/UniswapV2Pair.sol\":4168:4169  5 */\n      0x05\n        /* \"v2-core-master/contracts/UniswapV2Pair.sol\":4158:4170  rootK.mul(5) */\n      0xffffffff\n        /* \"v2-core-master/contracts/UniswapV2Pair.sol\":4158:4167  rootK.mul */\n      tag_168\n        /* \"v2-core-master/contracts/UniswapV2Pair.sol\":4158:4170  rootK.mul(5) */\n      and\n      jump\t// in\n    tag_410:\n        /* \"v2-core-master/contracts/UniswapV2Pair.sol\":4158:4174  rootK.mul(5).add */\n      swap1\n        /* \"v2-core-master/contracts/UniswapV2Pair.sol\":4158:4185  rootK.mul(5).add(rootKLast) */\n      0xffffffff\n        /* \"v2-core-master/contracts/UniswapV2Pair.sol\":4158:4174  rootK.mul(5).add */\n      tag_226\n        /* \"v2-core-master/contracts/UniswapV2Pair.sol\":4158:4185  rootK.mul(5).add(rootKLast) */\n      and\n      jump\t// in\n    tag_409:\n        /* \"v2-core-master/contracts/UniswapV2Pair.sol\":4139:4185  uint denominator = rootK.mul(5).add(rootKLast) */\n      swap1\n      pop\n        /* \"v2-core-master/contracts/UniswapV2Pair.sol\":4207:4221  uint liquidity */\n      0x00\n        /* \"v2-core-master/contracts/UniswapV2Pair.sol\":4236:4247  denominator */\n      dup2\n        /* \"v2-core-master/contracts/UniswapV2Pair.sol\":4224:4233  numerator */\n      dup4\n        /* \"v2-core-master/contracts/UniswapV2Pair.sol\":4224:4247  numerator / denominator */\n      dup2\n      tag_411\n      jumpi\n      invalid\n    tag_411:\n      div\n      swap1\n      pop\n        /* \"v2-core-master/contracts/UniswapV2Pair.sol\":4273:4286  liquidity > 0 */\n      dup1\n      iszero\n        /* \"v2-core-master/contracts/UniswapV2Pair.sol\":4269:4311  if (liquidity > 0) _mint(feeTo, liquidity) */\n      tag_413\n      jumpi\n        /* \"v2-core-master/contracts/UniswapV2Pair.sol\":4288:4311  _mint(feeTo, liquidity) */\n      tag_413\n        /* \"v2-core-master/contracts/UniswapV2Pair.sol\":4294:4299  feeTo */\n      dup8\n        /* \"v2-core-master/contracts/UniswapV2Pair.sol\":4301:4310  liquidity */\n      dup3\n        /* \"v2-core-master/contracts/UniswapV2Pair.sol\":4288:4293  _mint */\n      tag_211\n        /* \"v2-core-master/contracts/UniswapV2Pair.sol\":4288:4311  _mint(feeTo, liquidity) */\n      jump\t// in\n    tag_413:\n        /* \"v2-core-master/contracts/UniswapV2Pair.sol\":4018:4330  if (rootK > rootKLast) {... */\n      pop\n      pop\n      pop\n    tag_406:\n        /* \"v2-core-master/contracts/UniswapV2Pair.sol\":3859:4344  if (_kLast != 0) {... */\n      pop\n      pop\n    tag_402:\n        /* \"v2-core-master/contracts/UniswapV2Pair.sol\":3834:4411  if (feeOn) {... */\n      jump(tag_415)\n    tag_401:\n        /* \"v2-core-master/contracts/UniswapV2Pair.sol\":4364:4375  _kLast != 0 */\n      dup1\n      iszero\n        /* \"v2-core-master/contracts/UniswapV2Pair.sol\":4360:4411  if (_kLast != 0) {... */\n      tag_415\n      jumpi\n        /* \"v2-core-master/contracts/UniswapV2Pair.sol\":4399:4400  0 */\n      0x00\n        /* \"v2-core-master/contracts/UniswapV2Pair.sol\":4391:4396  kLast */\n      0x0d\n        /* \"v2-core-master/contracts/UniswapV2Pair.sol\":4391:4400  kLast = 0 */\n      sstore\n        /* \"v2-core-master/contracts/UniswapV2Pair.sol\":4360:4411  if (_kLast != 0) {... */\n    tag_415:\n        /* \"v2-core-master/contracts/UniswapV2Pair.sol\":3598:4417  function _mintFee(uint112 _reserve0, uint112 _reserve1) private returns (bool feeOn) {... */\n      pop\n      pop\n      swap3\n      swap2\n      pop\n      pop\n      jump\t// out\n        /* \"v2-core-master/contracts/libraries/Math.sol\":307:599  function sqrt(uint y) internal pure returns (uint z) {... */\n    tag_209:\n        /* \"v2-core-master/contracts/libraries/Math.sol\":352:358  uint z */\n      0x00\n        /* \"v2-core-master/contracts/libraries/Math.sol\":378:379  3 */\n      0x03\n        /* \"v2-core-master/contracts/libraries/Math.sol\":374:375  y */\n      dup3\n        /* \"v2-core-master/contracts/libraries/Math.sol\":374:379  y > 3 */\n      gt\n        /* \"v2-core-master/contracts/libraries/Math.sol\":370:593  if (y > 3) {... */\n      iszero\n      tag_417\n      jumpi\n      pop\n        /* \"v2-core-master/contracts/libraries/Math.sol\":399:400  y */\n      dup1\n        /* \"v2-core-master/contracts/libraries/Math.sol\":431:432  1 */\n      0x01\n        /* \"v2-core-master/contracts/libraries/Math.sol\":427:428  2 */\n      0x02\n        /* \"v2-core-master/contracts/libraries/Math.sol\":423:428  y / 2 */\n      dup3\n      div\n        /* \"v2-core-master/contracts/libraries/Math.sol\":423:432  y / 2 + 1 */\n      add\n        /* \"v2-core-master/contracts/libraries/Math.sol\":446:535  while (x < z) {... */\n    tag_419:\n        /* \"v2-core-master/contracts/libraries/Math.sol\":457:458  z */\n      dup2\n        /* \"v2-core-master/contracts/libraries/Math.sol\":453:454  x */\n      dup2\n        /* \"v2-core-master/contracts/libraries/Math.sol\":453:458  x < z */\n      lt\n        /* \"v2-core-master/contracts/libraries/Math.sol\":446:535  while (x < z) {... */\n      iszero\n      tag_420\n      jumpi\n        /* \"v2-core-master/contracts/libraries/Math.sol\":482:483  x */\n      dup1\n        /* \"v2-core-master/contracts/libraries/Math.sol\":478:483  z = x */\n      swap2\n      pop\n        /* \"v2-core-master/contracts/libraries/Math.sol\":519:520  2 */\n      0x02\n        /* \"v2-core-master/contracts/libraries/Math.sol\":514:515  x */\n      dup2\n        /* \"v2-core-master/contracts/libraries/Math.sol\":510:511  x */\n      dup3\n        /* \"v2-core-master/contracts/libraries/Math.sol\":506:507  y */\n      dup6\n        /* \"v2-core-master/contracts/libraries/Math.sol\":506:511  y / x */\n      dup2\n      tag_421\n      jumpi\n      invalid\n    tag_421:\n      div\n        /* \"v2-core-master/contracts/libraries/Math.sol\":506:515  y / x + x */\n      add\n        /* \"v2-core-master/contracts/libraries/Math.sol\":505:520  (y / x + x) / 2 */\n      dup2\n      tag_422\n      jumpi\n      invalid\n    tag_422:\n      div\n        /* \"v2-core-master/contracts/libraries/Math.sol\":501:520  x = (y / x + x) / 2 */\n      swap1\n      pop\n        /* \"v2-core-master/contracts/libraries/Math.sol\":446:535  while (x < z) {... */\n      jump(tag_419)\n    tag_420:\n        /* \"v2-core-master/contracts/libraries/Math.sol\":370:593  if (y > 3) {... */\n      pop\n      jump(tag_224)\n    tag_417:\n        /* \"v2-core-master/contracts/libraries/Math.sol\":555:561  y != 0 */\n      dup2\n      iszero\n        /* \"v2-core-master/contracts/libraries/Math.sol\":551:593  if (y != 0) {... */\n      tag_224\n      jumpi\n      pop\n        /* \"v2-core-master/contracts/libraries/Math.sol\":581:582  1 */\n      0x01\n        /* \"v2-core-master/contracts/libraries/Math.sol\":307:599  function sqrt(uint y) internal pure returns (uint z) {... */\n      swap2\n      swap1\n      pop\n      jump\t// out\n        /* \"v2-core-master/contracts/UniswapV2ERC20.sol\":1592:1789  function _mint(address to, uint value) internal {... */\n    tag_211:\n        /* \"v2-core-master/contracts/UniswapV2ERC20.sol\":1664:1675  totalSupply */\n      sload(0x00)\n        /* \"v2-core-master/contracts/UniswapV2ERC20.sol\":1664:1686  totalSupply.add(value) */\n      tag_426\n      swap1\n        /* \"v2-core-master/contracts/UniswapV2ERC20.sol\":1680:1685  value */\n      dup3\n        /* \"v2-core-master/contracts/UniswapV2ERC20.sol\":1664:1686  totalSupply.add(value) */\n      0xffffffff\n        /* \"v2-core-master/contracts/UniswapV2ERC20.sol\":1664:1679  totalSupply.add */\n      tag_226\n        /* \"v2-core-master/contracts/UniswapV2ERC20.sol\":1664:1686  totalSupply.add(value) */\n      and\n      jump\t// in\n    tag_426:\n        /* \"v2-core-master/contracts/UniswapV2ERC20.sol\":1650:1661  totalSupply */\n      0x00\n        /* \"v2-core-master/contracts/UniswapV2ERC20.sol\":1650:1686  totalSupply = totalSupply.add(value) */\n      swap1\n      dup2\n      sstore\n      sub(shl(0xa0, 0x01), 0x01)\n        /* \"v2-core-master/contracts/UniswapV2ERC20.sol\":1712:1725  _balances[to] */\n      dup4\n      and\n      dup2\n      mstore\n        /* \"v2-core-master/contracts/UniswapV2ERC20.sol\":1712:1721  _balances */\n      0x01\n        /* \"v2-core-master/contracts/UniswapV2ERC20.sol\":1712:1725  _balances[to] */\n      0x20\n      mstore\n      0x40\n      swap1\n      keccak256\n      sload\n        /* \"v2-core-master/contracts/UniswapV2ERC20.sol\":1712:1736  _balances[to].add(value) */\n      tag_427\n      swap1\n        /* \"v2-core-master/contracts/UniswapV2ERC20.sol\":1730:1735  value */\n      dup3\n        /* \"v2-core-master/contracts/UniswapV2ERC20.sol\":1712:1736  _balances[to].add(value) */\n      0xffffffff\n        /* \"v2-core-master/contracts/UniswapV2ERC20.sol\":1712:1729  _balances[to].add */\n      tag_226\n        /* \"v2-core-master/contracts/UniswapV2ERC20.sol\":1712:1736  _balances[to].add(value) */\n      and\n      jump\t// in\n    tag_427:\n      sub(shl(0xa0, 0x01), 0x01)\n        /* \"v2-core-master/contracts/UniswapV2ERC20.sol\":1696:1709  _balances[to] */\n      dup4\n      and\n      0x00\n      dup2\n      dup2\n      mstore\n        /* \"v2-core-master/contracts/UniswapV2ERC20.sol\":1696:1705  _balances */\n      0x01\n        /* \"v2-core-master/contracts/UniswapV2ERC20.sol\":1696:1709  _balances[to] */\n      0x20\n      swap1\n      dup2\n      mstore\n      0x40\n      dup1\n      dup4\n      keccak256\n        /* \"v2-core-master/contracts/UniswapV2ERC20.sol\":1696:1736  _balances[to] = _balances[to].add(value) */\n      swap5\n      swap1\n      swap5\n      sstore\n        /* \"v2-core-master/contracts/UniswapV2ERC20.sol\":1751:1782  Transfer(address(0), to, value) */\n      dup4\n      mload\n      dup6\n      dup2\n      mstore\n      swap4\n      mload\n        /* \"v2-core-master/contracts/UniswapV2ERC20.sol\":1696:1709  _balances[to] */\n      swap3\n      swap4\n      swap2\n      swap3\n      0x00\n      dup1\n      mload\n      0x20\n      data_ada389e1fc24a8587c776340efb91b36e675792ab631816100d55df0b5cf3cbc\n      dup4\n      codecopy\n      dup2\n      mload\n      swap2\n      mstore\n        /* \"v2-core-master/contracts/UniswapV2ERC20.sol\":1751:1782  Transfer(address(0), to, value) */\n      swap3\n      dup2\n      swap1\n      sub\n      swap1\n      swap2\n      add\n      swap1\n      log3\n        /* \"v2-core-master/contracts/UniswapV2ERC20.sol\":1592:1789  function _mint(address to, uint value) internal {... */\n      pop\n      pop\n      jump\t// out\n        /* \"v2-core-master/contracts/libraries/Math.sol\":98:192  function min(uint x, uint y) internal pure returns (uint z) {... */\n    tag_218:\n        /* \"v2-core-master/contracts/libraries/Math.sol\":150:156  uint z */\n      0x00\n        /* \"v2-core-master/contracts/libraries/Math.sol\":176:177  y */\n      dup2\n        /* \"v2-core-master/contracts/libraries/Math.sol\":172:173  x */\n      dup4\n        /* \"v2-core-master/contracts/libraries/Math.sol\":172:177  x < y */\n      lt\n        /* \"v2-core-master/contracts/libraries/Math.sol\":172:185  x < y ? x : y */\n      tag_429\n      jumpi\n        /* \"v2-core-master/contracts/libraries/Math.sol\":184:185  y */\n      dup2\n        /* \"v2-core-master/contracts/libraries/Math.sol\":172:185  x < y ? x : y */\n      jump(tag_430)\n    tag_429:\n        /* \"v2-core-master/contracts/libraries/Math.sol\":180:181  x */\n      dup3\n        /* \"v2-core-master/contracts/libraries/Math.sol\":172:185  x < y ? x : y */\n    tag_430:\n        /* \"v2-core-master/contracts/libraries/Math.sol\":168:185  z = x < y ? x : y */\n      swap4\n        /* \"v2-core-master/contracts/libraries/Math.sol\":98:192  function min(uint x, uint y) internal pure returns (uint z) {... */\n      swap3\n      pop\n      pop\n      pop\n      jump\t// out\n        /* \"v2-core-master/contracts/libraries/SafeMath.sol\":155:281  function add(uint x, uint y) internal pure returns (uint z) {... */\n    tag_226:\n        /* \"v2-core-master/contracts/libraries/SafeMath.sol\":238:243  x + y */\n      dup1\n      dup3\n      add\n        /* \"v2-core-master/contracts/libraries/SafeMath.sol\":233:249  (z = x + y) >= x */\n      dup3\n      dup2\n      lt\n      iszero\n        /* \"v2-core-master/contracts/libraries/SafeMath.sol\":225:274  require((z = x + y) >= x, 'ds-math-add-overflow') */\n      tag_181\n      jumpi\n      0x40\n      dup1\n      mload\n      shl(0xe5, 0x461bcd)\n      dup2\n      mstore\n      0x20\n      0x04\n      dup3\n      add\n      mstore\n      0x14\n      0x24\n      dup3\n      add\n      mstore\n      shl(0x60, 0x64732d6d6174682d6164642d6f766572666c6f77)\n      0x44\n      dup3\n      add\n      mstore\n      swap1\n      mload\n      swap1\n      dup2\n      swap1\n      sub\n      0x64\n      add\n      swap1\n      revert\n        /* \"v2-core-master/contracts/UniswapV2ERC20.sol\":2255:2460  function _burn(address from, uint value) internal {... */\n    tag_245:\n      sub(shl(0xa0, 0x01), 0x01)\n        /* \"v2-core-master/contracts/UniswapV2ERC20.sol\":2333:2348  _balances[from] */\n      dup3\n      and\n      0x00\n      swap1\n      dup2\n      mstore\n        /* \"v2-core-master/contracts/UniswapV2ERC20.sol\":2333:2342  _balances */\n      0x01\n        /* \"v2-core-master/contracts/UniswapV2ERC20.sol\":2333:2348  _balances[from] */\n      0x20\n      mstore\n      0x40\n      swap1\n      keccak256\n      sload\n        /* \"v2-core-master/contracts/UniswapV2ERC20.sol\":2333:2359  _balances[from].sub(value) */\n      tag_434\n      swap1\n        /* \"v2-core-master/contracts/UniswapV2ERC20.sol\":2353:2358  value */\n      dup3\n        /* \"v2-core-master/contracts/UniswapV2ERC20.sol\":2333:2359  _balances[from].sub(value) */\n      0xffffffff\n        /* \"v2-core-master/contracts/UniswapV2ERC20.sol\":2333:2352  _balances[from].sub */\n      tag_170\n        /* \"v2-core-master/contracts/UniswapV2ERC20.sol\":2333:2359  _balances[from].sub(value) */\n      and\n      jump\t// in\n    tag_434:\n      sub(shl(0xa0, 0x01), 0x01)\n        /* \"v2-core-master/contracts/UniswapV2ERC20.sol\":2315:2330  _balances[from] */\n      dup4\n      and\n      0x00\n      swap1\n      dup2\n      mstore\n        /* \"v2-core-master/contracts/UniswapV2ERC20.sol\":2315:2324  _balances */\n      0x01\n        /* \"v2-core-master/contracts/UniswapV2ERC20.sol\":2315:2330  _balances[from] */\n      0x20\n      mstore\n      0x40\n      dup2\n      keccak256\n        /* \"v2-core-master/contracts/UniswapV2ERC20.sol\":2315:2359  _balances[from] = _balances[from].sub(value) */\n      swap2\n      swap1\n      swap2\n      sstore\n        /* \"v2-core-master/contracts/UniswapV2ERC20.sol\":2383:2394  totalSupply */\n      sload\n        /* \"v2-core-master/contracts/UniswapV2ERC20.sol\":2383:2405  totalSupply.sub(value) */\n      tag_435\n      swap1\n        /* \"v2-core-master/contracts/UniswapV2ERC20.sol\":2399:2404  value */\n      dup3\n        /* \"v2-core-master/contracts/UniswapV2ERC20.sol\":2383:2405  totalSupply.sub(value) */\n      0xffffffff\n        /* \"v2-core-master/contracts/UniswapV2ERC20.sol\":2383:2398  totalSupply.sub */\n      tag_170\n        /* \"v2-core-master/contracts/UniswapV2ERC20.sol\":2383:2405  totalSupply.sub(value) */\n      and\n      jump\t// in\n    tag_435:\n        /* \"v2-core-master/contracts/UniswapV2ERC20.sol\":2369:2380  totalSupply */\n      0x00\n        /* \"v2-core-master/contracts/UniswapV2ERC20.sol\":2369:2405  totalSupply = totalSupply.sub(value) */\n      swap1\n      dup2\n      sstore\n        /* \"v2-core-master/contracts/UniswapV2ERC20.sol\":2420:2453  Transfer(from, address(0), value) */\n      0x40\n      dup1\n      mload\n      dup4\n      dup2\n      mstore\n      swap1\n      mload\n      sub(shl(0xa0, 0x01), 0x01)\n      dup6\n      and\n      swap2\n      0x00\n      dup1\n      mload\n      0x20\n      data_ada389e1fc24a8587c776340efb91b36e675792ab631816100d55df0b5cf3cbc\n      dup4\n      codecopy\n      dup2\n      mload\n      swap2\n      mstore\n      swap2\n      swap1\n      dup2\n      swap1\n      sub\n      0x20\n      add\n      swap1\n      log3\n        /* \"v2-core-master/contracts/UniswapV2ERC20.sol\":2255:2460  function _burn(address from, uint value) internal {... */\n      pop\n      pop\n      jump\t// out\n        /* \"v2-core-master/contracts/UniswapV2ERC20.sol\":1795:2249  function freezeMint(address account, uint256 amount) internal returns (bool) {... */\n    tag_342:\n        /* \"v2-core-master/contracts/UniswapV2ERC20.sol\":1866:1870  bool */\n      0x00\n      sub(shl(0xa0, 0x01), 0x01)\n        /* \"v2-core-master/contracts/UniswapV2ERC20.sol\":1928:1949  account != address(0) */\n      dup4\n      and\n        /* \"v2-core-master/contracts/UniswapV2ERC20.sol\":1920:1985  require(account != address(0), 'BEP20: mint to the zero address') */\n      tag_437\n      jumpi\n      0x40\n      dup1\n      mload\n      shl(0xe5, 0x461bcd)\n      dup2\n      mstore\n      0x20\n      0x04\n      dup3\n      add\n      mstore\n      0x1f\n      0x24\n      dup3\n      add\n      mstore\n      0x42455032303a206d696e7420746f20746865207a65726f206164647265737300\n      0x44\n      dup3\n      add\n      mstore\n      swap1\n      mload\n      swap1\n      dup2\n      swap1\n      sub\n      0x64\n      add\n      swap1\n      revert\n    tag_437:\n        /* \"v2-core-master/contracts/UniswapV2ERC20.sol\":2075:2086  totalSupply */\n      sload(0x00)\n        /* \"v2-core-master/contracts/UniswapV2ERC20.sol\":2075:2098  totalSupply.add(amount) */\n      tag_438\n      swap1\n        /* \"v2-core-master/contracts/UniswapV2ERC20.sol\":2091:2097  amount */\n      dup4\n        /* \"v2-core-master/contracts/UniswapV2ERC20.sol\":2075:2098  totalSupply.add(amount) */\n      0xffffffff\n        /* \"v2-core-master/contracts/UniswapV2ERC20.sol\":2075:2090  totalSupply.add */\n      tag_226\n        /* \"v2-core-master/contracts/UniswapV2ERC20.sol\":2075:2098  totalSupply.add(amount) */\n      and\n      jump\t// in\n    tag_438:\n        /* \"v2-core-master/contracts/UniswapV2ERC20.sol\":2061:2072  totalSupply */\n      0x00\n        /* \"v2-core-master/contracts/UniswapV2ERC20.sol\":2061:2098  totalSupply = totalSupply.add(amount) */\n      swap1\n      dup2\n      sstore\n      sub(shl(0xa0, 0x01), 0x01)\n        /* \"v2-core-master/contracts/UniswapV2ERC20.sol\":2134:2157  _frozenBalance[account] */\n      dup5\n      and\n      dup2\n      mstore\n        /* \"v2-core-master/contracts/UniswapV2ERC20.sol\":2134:2148  _frozenBalance */\n      0x03\n        /* \"v2-core-master/contracts/UniswapV2ERC20.sol\":2134:2157  _frozenBalance[account] */\n      0x20\n      mstore\n      0x40\n      swap1\n      keccak256\n      sload\n        /* \"v2-core-master/contracts/UniswapV2ERC20.sol\":2134:2169  _frozenBalance[account].add(amount) */\n      tag_439\n      swap1\n        /* \"v2-core-master/contracts/UniswapV2ERC20.sol\":2162:2168  amount */\n      dup4\n        /* \"v2-core-master/contracts/UniswapV2ERC20.sol\":2134:2169  _frozenBalance[account].add(amount) */\n      0xffffffff\n        /* \"v2-core-master/contracts/UniswapV2ERC20.sol\":2134:2161  _frozenBalance[account].add */\n      tag_226\n        /* \"v2-core-master/contracts/UniswapV2ERC20.sol\":2134:2169  _frozenBalance[account].add(amount) */\n      and\n      jump\t// in\n    tag_439:\n      sub(shl(0xa0, 0x01), 0x01)\n        /* \"v2-core-master/contracts/UniswapV2ERC20.sol\":2108:2131  _frozenBalance[account] */\n      dup5\n      and\n      0x00\n      dup2\n      dup2\n      mstore\n        /* \"v2-core-master/contracts/UniswapV2ERC20.sol\":2108:2122  _frozenBalance */\n      0x03\n        /* \"v2-core-master/contracts/UniswapV2ERC20.sol\":2108:2131  _frozenBalance[account] */\n      0x20\n      swap1\n      dup2\n      mstore\n      0x40\n      dup1\n      dup4\n      keccak256\n        /* \"v2-core-master/contracts/UniswapV2ERC20.sol\":2108:2169  _frozenBalance[account] = _frozenBalance[account].add(amount) */\n      swap5\n      swap1\n      swap5\n      sstore\n        /* \"v2-core-master/contracts/UniswapV2ERC20.sol\":2184:2221  Transfer(address(0), account, amount) */\n      dup4\n      mload\n      dup7\n      dup2\n      mstore\n      swap4\n      mload\n        /* \"v2-core-master/contracts/UniswapV2ERC20.sol\":2108:2131  _frozenBalance[account] */\n      swap3\n      swap4\n      swap2\n      swap3\n      0x00\n      dup1\n      mload\n      0x20\n      data_ada389e1fc24a8587c776340efb91b36e675792ab631816100d55df0b5cf3cbc\n      dup4\n      codecopy\n      dup2\n      mload\n      swap2\n      mstore\n        /* \"v2-core-master/contracts/UniswapV2ERC20.sol\":2184:2221  Transfer(address(0), account, amount) */\n      swap3\n      dup2\n      swap1\n      sub\n      swap1\n      swap2\n      add\n      swap1\n      log3\n      pop\n        /* \"v2-core-master/contracts/UniswapV2ERC20.sol\":2238:2242  true */\n      0x01\n        /* \"v2-core-master/contracts/UniswapV2ERC20.sol\":1795:2249  function freezeMint(address account, uint256 amount) internal returns (bool) {... */\n      swap3\n      swap2\n      pop\n      pop\n      jump\t// out\n        /* \"v2-core-master/contracts/libraries/UQ112x112.sol\":283:401  function encode(uint112 y) internal pure returns (uint224 z) {... */\n    tag_389:\n      sub(shl(0x70, 0x01), 0x01)\n        /* \"v2-core-master/contracts/libraries/UQ112x112.sol\":358:368  uint224(y) */\n      and\n      shl(0x70, 0x01)\n        /* \"v2-core-master/contracts/libraries/UQ112x112.sol\":358:375  uint224(y) * Q112 */\n      mul\n      swap1\n        /* \"v2-core-master/contracts/libraries/UQ112x112.sol\":283:401  function encode(uint112 y) internal pure returns (uint224 z) {... */\n      jump\t// out\n        /* \"v2-core-master/contracts/libraries/UQ112x112.sol\":469:575  function uqdiv(uint224 x, uint112 y) internal pure returns (uint224 z) {... */\n    tag_390:\n        /* \"v2-core-master/contracts/libraries/UQ112x112.sol\":529:538  uint224 z */\n      0x00\n      sub(shl(0x70, 0x01), 0x01)\n        /* \"v2-core-master/contracts/libraries/UQ112x112.sol\":558:568  uint224(y) */\n      dup3\n      and\n      sub(shl(0xe0, 0x01), 0x01)\n        /* \"v2-core-master/contracts/libraries/UQ112x112.sol\":554:568  x / uint224(y) */\n      dup5\n      and\n        /* \"v2-core-master/contracts/libraries/UQ112x112.sol\":558:568  uint224(y) */\n      dup2\n        /* \"v2-core-master/contracts/libraries/UQ112x112.sol\":554:568  x / uint224(y) */\n      tag_442\n      jumpi\n      invalid\n    tag_442:\n      div\n      swap4\n        /* \"v2-core-master/contracts/libraries/UQ112x112.sol\":469:575  function uqdiv(uint224 x, uint112 y) internal pure returns (uint224 z) {... */\n      swap3\n      pop\n      pop\n      pop\n      jump\t// out\n    stop\n    data_05339493da7e2cbe77e17beadf6b91132eb307939495f5f1797bf88d95539e83 556e697377617056323a20494e53554646494349454e545f4f55545055545f414d4f554e54\n    data_10e2efc32d8a31d3b2c11a545b3ed09c2dbabc58ef6de4033929d0002e425b67 556e697377617056323a20494e53554646494349454e545f494e5055545f414d4f554e54\n    data_3f354ef449b2a9b081220ce21f57691008110b653edc191d8288e60cef58bb5f 556e697377617056323a20494e53554646494349454e545f4c4951554944495459\n    data_57ebfb4dd8b5082cdba0f23c17077e3b0ecb9782a51e0e9a15e9bc8c4b30c562 556e697377617056323a20494e53554646494349454e545f4c49515549444954595f4255524e4544\n    data_6591c9f5bf1fefaad109b76a20e25c857b696080c952191f86220f001a83663e 556e697377617056323a20494e53554646494349454e545f4c49515549444954595f4d494e544544\n    data_ada389e1fc24a8587c776340efb91b36e675792ab631816100d55df0b5cf3cbc ddf252ad1be2c89b69c2b068fc378daa952ba7f163c4a11628f55a4df523b3ef\n\n    auxdata: 0xa265627a7a7231582061d2c20522472c84a426dbc108ceecae78f1323d1ab61ee3782018fedde4e0fe64736f6c63430005100032\n}\n",
				"bytecode": {
					"linkReferences": {},
					"object": "6080604052600680546001600160a01b03191673a66e96ccd65312c4e18c38fdfb673759bc5170d11790556001600e5534801561003b57600080fd5b506040514690806052612c558239604080519182900360520182208282018252600b83526a045706f7353776170204c560ac1b6020938401528151808301835260018152603160f81b908401528151808401919091527f5db243d81ee6dc39059f55574d6be718e0d4e0640992da6200b8ba02bf956d24818301527fc89efdaa54c0f20c7adf612882df0950f5a951637e0307cdcb4c672f298b8bc6606082015260808101949094523060a0808601919091528151808603909101815260c09094019052825192019190912060045550600780546001600160a01b03191633179055612b298061012c6000396000f3fe608060405234801561001057600080fd5b50600436106101f05760003560e01c806370a082311161010f578063ba9a7a56116100a2578063d505accf11610071578063d505accf14610663578063dcbbb373146106b4578063dd62ed3e146106da578063fff6cae914610708576101f0565b8063ba9a7a5614610625578063bc25cf771461062d578063c45a015514610653578063d21220a71461065b576101f0565b8063900820d8116100de578063900820d81461055d57806395d89b4114610565578063a9059cbb1461056d578063b40b848e14610599576101f0565b806370a08231146104ca5780637464fc3d146104f05780637ecebe00146104f857806389afcb441461051e576101f0565b8063313ce567116101875780635909c0d5116101565780635909c0d51461046e5780635a3d5493146104765780636a6278421461047e5780636ebcf607146104a4576101f0565b8063313ce567146103f45780633644e5151461041257806347d5d8561461041a578063485cc95514610440576101f0565b80630dfe1681116101c35780630dfe16811461037857806318160ddd1461039c57806323b872dd146103b657806330adf81f146103ec576101f0565b8063022c0d9f146101f557806306fdde03146102835780630902f1ac14610300578063095ea7b314610338575b600080fd5b6102816004803603608081101561020b57600080fd5b8135916020810135916001600160a01b03604083013516919081019060808101606082013564010000000081111561024257600080fd5b82018360208201111561025457600080fd5b8035906020019184600183028401116401000000008311171561027657600080fd5b509092509050610710565b005b61028b610c4b565b6040805160208082528351818301528351919283929083019185019080838360005b838110156102c55781810151838201526020016102ad565b50505050905090810190601f1680156102f25780820380516001836020036101000a031916815260200191505b509250505060405180910390f35b610308610c72565b604080516001600160701b03948516815292909316602083015263ffffffff168183015290519081900360600190f35b6103646004803603604081101561034e57600080fd5b506001600160a01b038135169060200135610c9c565b604080519115158252519081900360200190f35b610380610cb3565b604080516001600160a01b039092168252519081900360200190f35b6103a4610cc2565b60408051918252519081900360200190f35b610364600480360360608110156103cc57600080fd5b506001600160a01b03813581169160208101359091169060400135610cc8565b6103a4610d62565b6103fc610d86565b6040805160ff9092168252519081900360200190f35b6103a4610d8b565b6103a46004803603602081101561043057600080fd5b50356001600160a01b0316610d91565b6102816004803603604081101561045657600080fd5b506001600160a01b0381358116916020013516610da3565b6103a4610e27565b6103a4610e2d565b6103a46004803603602081101561049457600080fd5b50356001600160a01b0316610e33565b6103a4600480360360208110156104ba57600080fd5b50356001600160a01b0316611133565b6103a4600480360360208110156104e057600080fd5b50356001600160a01b0316611145565b6103a4611180565b6103a46004803603602081101561050e57600080fd5b50356001600160a01b0316611186565b6105446004803603602081101561053457600080fd5b50356001600160a01b0316611198565b6040805192835260208301919091528051918290030190f35b61038061153e565b61028b61154d565b6103646004803603604081101561058357600080fd5b506001600160a01b03813516906020013561156e565b610281600480360360808110156105af57600080fd5b8135916020810135916001600160a01b0360408301351691908101906080810160608201356401000000008111156105e657600080fd5b8201836020820111156105f857600080fd5b8035906020019184600183028401116401000000008311171561061a57600080fd5b50909250905061157b565b6103a461195a565b6102816004803603602081101561064357600080fd5b50356001600160a01b0316611960565b610380611acb565b610380611ada565b610281600480360360e081101561067957600080fd5b506001600160a01b03813581169160208101359091169060408101359060608101359060ff6080820135169060a08101359060c00135611ae9565b6103a4600480360360208110156106ca57600080fd5b50356001600160a01b0316611ceb565b6103a4600480360360408110156106f057600080fd5b506001600160a01b0381358116916020013516611f3c565b610281611f59565b600e5460011461075b576040805162461bcd60e51b8152602060048201526011602482015270155b9a5cddd85c158c8e881313d0d2d151607a1b604482015290519081900360640190fd5b6000600e558415158061076e5750600084115b6107a95760405162461bcd60e51b8152600401808060200182810382526025815260200180612a1b6025913960400191505060405180910390fd5b6000806107b4610c72565b5091509150816001600160701b0316871080156107d95750806001600160701b031686105b6108145760405162461bcd60e51b8152600401808060200182810382526021815260200180612a646021913960400191505060405180910390fd5b60085460095460009182916001600160a01b039182169190811690891682148015906108525750806001600160a01b0316896001600160a01b031614155b61089b576040805162461bcd60e51b8152602060048201526015602482015274556e697377617056323a20494e56414c49445f544f60581b604482015290519081900360640190fd5b8a156108ac576108ac828a8d6120bb565b89156108bd576108bd818a8c6120bb565b861561097857886001600160a01b03166310d1e85c338d8d8c8c6040518663ffffffff1660e01b815260040180866001600160a01b03166001600160a01b03168152602001858152602001848152602001806020018281038252848482818152602001925080828437600081840152601f19601f8201169050808301925050509650505050505050600060405180830381600087803b15801561095f57600080fd5b505af1158015610973573d6000803e3d6000fd5b505050505b604080516370a0823160e01b815230600482015290516001600160a01b038416916370a08231916024808301926020929190829003018186803b1580156109be57600080fd5b505afa1580156109d2573d6000803e3d6000fd5b505050506040513d60208110156109e857600080fd5b5051604080516370a0823160e01b815230600482015290519195506001600160a01b038316916370a0823191602480820192602092909190829003018186803b158015610a3457600080fd5b505afa158015610a48573d6000803e3d6000fd5b505050506040513d6020811015610a5e57600080fd5b5051925060009150506001600160701b0385168a90038311610a81576000610a90565b89856001600160701b03160383035b9050600089856001600160701b0316038311610aad576000610abc565b89856001600160701b03160383035b90506000821180610acd5750600081115b610b085760405162461bcd60e51b8152600401808060200182810382526024815260200180612a406024913960400191505060405180910390fd5b6000610b3c610b1e84600363ffffffff61225516565b610b30876103e863ffffffff61225516565b9063ffffffff6122b816565b90506000610b54610b1e84600363ffffffff61225516565b9050610b85620f4240610b796001600160701b038b8116908b1663ffffffff61225516565b9063ffffffff61225516565b610b95838363ffffffff61225516565b1015610bd7576040805162461bcd60e51b815260206004820152600c60248201526b556e697377617056323a204b60a01b604482015290519081900360640190fd5b5050610be584848888612308565b60408051838152602081018390528082018d9052606081018c905290516001600160a01b038b169133917fd78ad95fa46c994b6551d0da85fc275fe613ce37657fb8d5e3d130840159d8229181900360800190a350506001600e55505050505050505050565b6040518060400160405280600b81526020016a045706f7353776170204c560ac1b81525081565b600a546001600160701b0380821692600160701b830490911691600160e01b900463ffffffff1690565b6000610ca93384846124cd565b5060015b92915050565b6008546001600160a01b031681565b60005481565b6001600160a01b038316600090815260026020908152604080832033845290915281205460001914610d4d576001600160a01b0384166000908152600260209081526040808320338452909152902054610d28908363ffffffff6122b816565b6001600160a01b03851660009081526002602090815260408083203384529091529020555b610d5884848461252f565b5060019392505050565b7f6e71edae12b1b97f4d1f60370fef10105fa2faae0126114a169c64845d6126c981565b601281565b60045481565b60036020526000908152604090205481565b6007546001600160a01b03163314610df9576040805162461bcd60e51b81526020600482015260146024820152732ab734b9bbb0b82b191d102327a92124a22222a760611b604482015290519081900360640190fd5b600880546001600160a01b039384166001600160a01b03199182161790915560098054929093169116179055565b600b5481565b600c5481565b6000600e54600114610e80576040805162461bcd60e51b8152602060048201526011602482015270155b9a5cddd85c158c8e881313d0d2d151607a1b604482015290519081900360640190fd5b6000600e81905580610e90610c72565b50600854604080516370a0823160e01b815230600482015290519395509193506000926001600160a01b03909116916370a08231916024808301926020929190829003018186803b158015610ee457600080fd5b505afa158015610ef8573d6000803e3d6000fd5b505050506040513d6020811015610f0e57600080fd5b5051600954604080516370a0823160e01b815230600482015290519293506000926001600160a01b03909216916370a0823191602480820192602092909190829003018186803b158015610f6157600080fd5b505afa158015610f75573d6000803e3d6000fd5b505050506040513d6020811015610f8b57600080fd5b505190506000610faa836001600160701b03871663ffffffff6122b816565b90506000610fc7836001600160701b03871663ffffffff6122b816565b90506000610fd587876125d7565b6000549091508061101257610ffe6103e8610b30610ff9878763ffffffff61225516565b612735565b985061100d60006103e8612786565b611061565b61105e6001600160701b03891661102f868463ffffffff61225516565b8161103657fe5b046001600160701b038916611051868563ffffffff61225516565b8161105857fe5b0461280a565b98505b600089116110a05760405162461bcd60e51b8152600401808060200182810382526028815260200180612aad6028913960400191505060405180910390fd5b6110aa8a8a612786565b6110b686868a8a612308565b81156110e657600a546110e2906001600160701b0380821691600160701b90041663ffffffff61225516565b600d555b6040805185815260208101859052815133927f4c209b5fc8ad50758f13e2e1088ba56a560dff690a1c6fef26394f4c03821c4f928290030190a250506001600e5550949695505050505050565b60016020526000908152604090205481565b6001600160a01b03811660009081526003602090815260408083205460019092528220546111789163ffffffff61282216565b90505b919050565b600d5481565b60056020526000908152604090205481565b600080600e546001146111e6576040805162461bcd60e51b8152602060048201526011602482015270155b9a5cddd85c158c8e881313d0d2d151607a1b604482015290519081900360640190fd5b6000600e819055806111f6610c72565b50600854600954604080516370a0823160e01b815230600482015290519496509294506001600160a01b039182169391169160009184916370a08231916024808301926020929190829003018186803b15801561125257600080fd5b505afa158015611266573d6000803e3d6000fd5b505050506040513d602081101561127c57600080fd5b5051604080516370a0823160e01b815230600482015290519192506000916001600160a01b038516916370a08231916024808301926020929190829003018186803b1580156112ca57600080fd5b505afa1580156112de573d6000803e3d6000fd5b505050506040513d60208110156112f457600080fd5b50513060009081526001602052604081205491925061131388886125d7565b6000549091508061132a848763ffffffff61225516565b8161133157fe5b049a5080611345848663ffffffff61225516565b8161134c57fe5b04995060008b11801561135f575060008a115b61139a5760405162461bcd60e51b8152600401808060200182810382526028815260200180612a856028913960400191505060405180910390fd5b6113a43084612871565b6113af878d8d6120bb565b6113ba868d8c6120bb565b604080516370a0823160e01b815230600482015290516001600160a01b038916916370a08231916024808301926020929190829003018186803b15801561140057600080fd5b505afa158015611414573d6000803e3d6000fd5b505050506040513d602081101561142a57600080fd5b5051604080516370a0823160e01b815230600482015290519196506001600160a01b038816916370a0823191602480820192602092909190829003018186803b15801561147657600080fd5b505afa15801561148a573d6000803e3d6000fd5b505050506040513d60208110156114a057600080fd5b505193506114b085858b8b612308565b81156114e057600a546114dc906001600160701b0380821691600160701b90041663ffffffff61225516565b600d555b604080518c8152602081018c905281516001600160a01b038f169233927fdccd412f0b1252819cb1fd330b93224ca42612892bb3f4f789976e6d81936496929081900390910190a35050505050505050506001600e81905550915091565b6006546001600160a01b031681565b60405180604001604052806005815260200164045535741560dc1b81525081565b6000610ca933848461252f565b600e546001146115c6576040805162461bcd60e51b8152602060048201526011602482015270155b9a5cddd85c158c8e881313d0d2d151607a1b604482015290519081900360640190fd5b6000600e55841515806115d95750600084115b6116145760405162461bcd60e51b8152600401808060200182810382526025815260200180612a1b6025913960400191505060405180910390fd5b60008061161f610c72565b5091509150816001600160701b0316871080156116445750806001600160701b031686105b61167f5760405162461bcd60e51b8152600401808060200182810382526021815260200180612a646021913960400191505060405180910390fd5b60085460095460009182916001600160a01b03918216911682606460058d02048c0390506000606460058d02048c039050836001600160a01b03168b6001600160a01b0316141580156116e45750826001600160a01b03168b6001600160a01b031614155b61172d576040805162461bcd60e51b8152602060048201526015602482015274556e697377617056323a20494e56414c49445f544f60581b604482015290519081900360640190fd5b8c1561173e5761173e848c846120bb565b8b1561174f5761174f838c836120bb565b881561180a578a6001600160a01b03166310d1e85c3384848e8e6040518663ffffffff1660e01b815260040180866001600160a01b03166001600160a01b03168152602001858152602001848152602001806020018281038252848482818152602001925080828437600081840152601f19601f8201169050808301925050509650505050505050600060405180830381600087803b1580156117f157600080fd5b505af1158015611805573d6000803e3d6000fd5b505050505b600654606460058f810282900492908f0291909104906118359087906001600160a01b0316846120bb565b60065461184d9086906001600160a01b0316836120bb565b604080516370a0823160e01b815230600482015290516001600160a01b038816916370a08231916024808301926020929190829003018186803b15801561189357600080fd5b505afa1580156118a7573d6000803e3d6000fd5b505050506040513d60208110156118bd57600080fd5b5051604080516370a0823160e01b815230600482015290519199506001600160a01b038716916370a0823191602480820192602092909190829003018186803b15801561190957600080fd5b505afa15801561191d573d6000803e3d6000fd5b505050506040513d602081101561193357600080fd5b505196506000955050505050506001600160701b0385168a90038311610a81576000610a90565b6103e881565b600e546001146119ab576040805162461bcd60e51b8152602060048201526011602482015270155b9a5cddd85c158c8e881313d0d2d151607a1b604482015290519081900360640190fd5b6000600e55600854600954600a54604080516370a0823160e01b815230600482015290516001600160a01b039485169490931692611a5a9285928792611a55926001600160701b03169185916370a0823191602480820192602092909190829003018186803b158015611a1d57600080fd5b505afa158015611a31573d6000803e3d6000fd5b505050506040513d6020811015611a4757600080fd5b50519063ffffffff6122b816565b6120bb565b600a54604080516370a0823160e01b81523060048201529051611ac19284928792611a5592600160701b90046001600160701b0316916001600160a01b038616916370a0823191602480820192602092909190829003018186803b158015611a1d57600080fd5b50506001600e5550565b6007546001600160a01b031681565b6009546001600160a01b031681565b42841015611b33576040805162461bcd60e51b8152602060048201526012602482015271155b9a5cddd85c158c8e881156141254915160721b604482015290519081900360640190fd5b6004546001600160a01b0380891660008181526005602090815260408083208054600180820190925582517f6e71edae12b1b97f4d1f60370fef10105fa2faae0126114a169c64845d6126c98186015280840196909652958d166060860152608085018c905260a085019590955260c08085018b90528151808603909101815260e08501825280519083012061190160f01b6101008601526101028501969096526101228085019690965280518085039096018652610142840180825286519683019690962095839052610162840180825286905260ff89166101828501526101a284018890526101c28401879052519193926101e280820193601f1981019281900390910190855afa158015611c4e573d6000803e3d6000fd5b5050604051601f1901519150506001600160a01b03811615801590611c845750886001600160a01b0316816001600160a01b0316145b611cd5576040805162461bcd60e51b815260206004820152601c60248201527f556e697377617056323a20494e56414c49445f5349474e415455524500000000604482015290519081900360640190fd5b611ce08989896124cd565b505050505050505050565b6000600e54600114611d38576040805162461bcd60e51b8152602060048201526011602482015270155b9a5cddd85c158c8e881313d0d2d151607a1b604482015290519081900360640190fd5b6000600e81905580611d48610c72565b50600854604080516370a0823160e01b815230600482015290519395509193506000926001600160a01b03909116916370a08231916024808301926020929190829003018186803b158015611d9c57600080fd5b505afa158015611db0573d6000803e3d6000fd5b505050506040513d6020811015611dc657600080fd5b5051600954604080516370a0823160e01b815230600482015290519293506000926001600160a01b03909216916370a0823191602480820192602092909190829003018186803b158015611e1957600080fd5b505afa158015611e2d573d6000803e3d6000fd5b505050506040513d6020811015611e4357600080fd5b505190506000611e62836001600160701b03871663ffffffff6122b816565b90506000611e7f836001600160701b03871663ffffffff6122b816565b90506000611e8d87876125d7565b60005490915080611ec657611eb16103e8610b30610ff9878763ffffffff61225516565b9850611ec060006103e86128fd565b50611ee6565b611ee36001600160701b03891661102f868463ffffffff61225516565b98505b60008911611f255760405162461bcd60e51b8152600401808060200182810382526028815260200180612aad6028913960400191505060405180910390fd5b611f2f8a8a6128fd565b506110b686868a8a612308565b600260209081526000928352604080842090915290825290205481565b600e54600114611fa4576040805162461bcd60e51b8152602060048201526011602482015270155b9a5cddd85c158c8e881313d0d2d151607a1b604482015290519081900360640190fd5b6000600e55600854604080516370a0823160e01b815230600482015290516120b4926001600160a01b0316916370a08231916024808301926020929190829003018186803b158015611ff557600080fd5b505afa158015612009573d6000803e3d6000fd5b505050506040513d602081101561201f57600080fd5b5051600954604080516370a0823160e01b815230600482015290516001600160a01b03909216916370a0823191602480820192602092909190829003018186803b15801561206c57600080fd5b505afa158015612080573d6000803e3d6000fd5b505050506040513d602081101561209657600080fd5b5051600a546001600160701b0380821691600160701b900416612308565b6001600e55565b604080518082018252601981527f7472616e7366657228616464726573732c75696e74323536290000000000000060209182015281516001600160a01b0385811660248301526044808301869052845180840390910181526064909201845291810180516001600160e01b031663a9059cbb60e01b1781529251815160009460609489169392918291908083835b602083106121685780518252601f199092019160209182019101612149565b6001836020036101000a0380198251168184511680821785525050505050509050019150506000604051808303816000865af19150503d80600081146121ca576040519150601f19603f3d011682016040523d82523d6000602084013e6121cf565b606091505b50915091508180156121fd5750805115806121fd57508080602001905160208110156121fa57600080fd5b50515b61224e576040805162461bcd60e51b815260206004820152601a60248201527f556e697377617056323a205452414e534645525f4641494c4544000000000000604482015290519081900360640190fd5b5050505050565b60008115806122705750508082028282828161226d57fe5b04145b610cad576040805162461bcd60e51b815260206004820152601460248201527364732d6d6174682d6d756c2d6f766572666c6f7760601b604482015290519081900360640190fd5b80820382811115610cad576040805162461bcd60e51b815260206004820152601560248201527464732d6d6174682d7375622d756e646572666c6f7760581b604482015290519081900360640190fd5b6001600160701b03841180159061232657506001600160701b038311155b61236d576040805162461bcd60e51b8152602060048201526013602482015272556e697377617056323a204f564552464c4f5760681b604482015290519081900360640190fd5b600a5463ffffffff42811691600160e01b9004811682039081161580159061239d57506001600160701b03841615155b80156123b157506001600160701b03831615155b15612422578063ffffffff166123df856123ca866129e3565b6001600160e01b03169063ffffffff6129f516565b600b80546001600160e01b03929092169290920201905563ffffffff811661240a846123ca876129e3565b600c80546001600160e01b0392909216929092020190555b600a80546dffffffffffffffffffffffffffff19166001600160701b03888116919091176dffffffffffffffffffffffffffff60701b1916600160701b8883168102919091176001600160e01b0316600160e01b63ffffffff871602179283905560408051848416815291909304909116602082015281517f1c411e9a96e071241c2f21f7726b17ae89e3cab4c78be50e062b03a9fffbbad1929181900390910190a1505050505050565b6001600160a01b03808416600081815260026020908152604080832094871680845294825291829020859055815185815291517f8c5be1e5ebec7d5bd14f71427d1e84f3dd0314c0f7b2291e5b200ac8c7c3b9259281900390910190a3505050565b6001600160a01b038316600090815260016020526040902054612558908263ffffffff6122b816565b6001600160a01b03808516600090815260016020526040808220939093559084168152205461258d908263ffffffff61282216565b6001600160a01b038084166000818152600160209081526040918290209490945580518581529051919392871692600080516020612ad583398151915292918290030190a3505050565b600080600760009054906101000a90046001600160a01b03166001600160a01b031663017e7e586040518163ffffffff1660e01b815260040160206040518083038186803b15801561262857600080fd5b505afa15801561263c573d6000803e3d6000fd5b505050506040513d602081101561265257600080fd5b5051600d546001600160a01b03821615801594509192509061272157801561271c576000612695610ff96001600160701b0388811690881663ffffffff61225516565b905060006126a283612735565b9050808211156127195760006126d06126c1848463ffffffff6122b816565b6000549063ffffffff61225516565b905060006126f5836126e986600563ffffffff61225516565b9063ffffffff61282216565b9050600081838161270257fe5b0490508015612715576127158782612786565b5050505b50505b61272d565b801561272d576000600d555b505092915050565b60006003821115612778575080600160028204015b818110156127725780915060028182858161276157fe5b04018161276a57fe5b04905061274a565b5061117b565b811561117b57506001919050565b600054612799908263ffffffff61282216565b60009081556001600160a01b0383168152600160205260409020546127c4908263ffffffff61282216565b6001600160a01b0383166000818152600160209081526040808320949094558351858152935192939192600080516020612ad58339815191529281900390910190a35050565b6000818310612819578161281b565b825b9392505050565b80820182811015610cad576040805162461bcd60e51b815260206004820152601460248201527364732d6d6174682d6164642d6f766572666c6f7760601b604482015290519081900360640190fd5b6001600160a01b03821660009081526001602052604090205461289a908263ffffffff6122b816565b6001600160a01b038316600090815260016020526040812091909155546128c7908263ffffffff6122b816565b60009081556040805183815290516001600160a01b03851691600080516020612ad5833981519152919081900360200190a35050565b60006001600160a01b03831661295a576040805162461bcd60e51b815260206004820152601f60248201527f42455032303a206d696e7420746f20746865207a65726f206164647265737300604482015290519081900360640190fd5b60005461296d908363ffffffff61282216565b60009081556001600160a01b038416815260036020526040902054612998908363ffffffff61282216565b6001600160a01b0384166000818152600360209081526040808320949094558351868152935192939192600080516020612ad58339815191529281900390910190a350600192915050565b6001600160701b0316600160701b0290565b60006001600160701b0382166001600160e01b03841681612a1257fe5b04939250505056fe556e697377617056323a20494e53554646494349454e545f4f55545055545f414d4f554e54556e697377617056323a20494e53554646494349454e545f494e5055545f414d4f554e54556e697377617056323a20494e53554646494349454e545f4c4951554944495459556e697377617056323a20494e53554646494349454e545f4c49515549444954595f4255524e4544556e697377617056323a20494e53554646494349454e545f4c49515549444954595f4d494e544544ddf252ad1be2c89b69c2b068fc378daa952ba7f163c4a11628f55a4df523b3efa265627a7a7231582061d2c20522472c84a426dbc108ceecae78f1323d1ab61ee3782018fedde4e0fe64736f6c63430005100032454950373132446f6d61696e28737472696e67206e616d652c737472696e672076657273696f6e2c75696e7432353620636861696e49642c6164647265737320766572696679696e67436f6e747261637429",
					"opcodes": "PUSH1 0x80 PUSH1 0x40 MSTORE PUSH1 0x6 DUP1 SLOAD PUSH1 0x1 PUSH1 0x1 PUSH1 0xA0 SHL SUB NOT AND PUSH20 0xA66E96CCD65312C4E18C38FDFB673759BC5170D1 OR SWAP1 SSTORE PUSH1 0x1 PUSH1 0xE SSTORE CALLVALUE DUP1 ISZERO PUSH2 0x3B JUMPI PUSH1 0x0 DUP1 REVERT JUMPDEST POP PUSH1 0x40 MLOAD CHAINID SWAP1 DUP1 PUSH1 0x52 PUSH2 0x2C55 DUP3 CODECOPY PUSH1 0x40 DUP1 MLOAD SWAP2 DUP3 SWAP1 SUB PUSH1 0x52 ADD DUP3 KECCAK256 DUP3 DUP3 ADD DUP3 MSTORE PUSH1 0xB DUP4 MSTORE PUSH11 0x45706F7353776170204C5 PUSH1 0xAC SHL PUSH1 0x20 SWAP4 DUP5 ADD MSTORE DUP2 MLOAD DUP1 DUP4 ADD DUP4 MSTORE PUSH1 0x1 DUP2 MSTORE PUSH1 0x31 PUSH1 0xF8 SHL SWAP1 DUP5 ADD MSTORE DUP2 MLOAD DUP1 DUP5 ADD SWAP2 SWAP1 SWAP2 MSTORE PUSH32 0x5DB243D81EE6DC39059F55574D6BE718E0D4E0640992DA6200B8BA02BF956D24 DUP2 DUP4 ADD MSTORE PUSH32 0xC89EFDAA54C0F20C7ADF612882DF0950F5A951637E0307CDCB4C672F298B8BC6 PUSH1 0x60 DUP3 ADD MSTORE PUSH1 0x80 DUP2 ADD SWAP5 SWAP1 SWAP5 MSTORE ADDRESS PUSH1 0xA0 DUP1 DUP7 ADD SWAP2 SWAP1 SWAP2 MSTORE DUP2 MLOAD DUP1 DUP7 SUB SWAP1 SWAP2 ADD DUP2 MSTORE PUSH1 0xC0 SWAP1 SWAP5 ADD SWAP1 MSTORE DUP3 MLOAD SWAP3 ADD SWAP2 SWAP1 SWAP2 KECCAK256 PUSH1 0x4 SSTORE POP PUSH1 0x7 DUP1 SLOAD PUSH1 0x1 PUSH1 0x1 PUSH1 0xA0 SHL SUB NOT AND CALLER OR SWAP1 SSTORE PUSH2 0x2B29 DUP1 PUSH2 0x12C PUSH1 0x0 CODECOPY PUSH1 0x0 RETURN INVALID PUSH1 0x80 PUSH1 0x40 MSTORE CALLVALUE DUP1 ISZERO PUSH2 0x10 JUMPI PUSH1 0x0 DUP1 REVERT JUMPDEST POP PUSH1 0x4 CALLDATASIZE LT PUSH2 0x1F0 JUMPI PUSH1 0x0 CALLDATALOAD PUSH1 0xE0 SHR DUP1 PUSH4 0x70A08231 GT PUSH2 0x10F JUMPI DUP1 PUSH4 0xBA9A7A56 GT PUSH2 0xA2 JUMPI DUP1 PUSH4 0xD505ACCF GT PUSH2 0x71 JUMPI DUP1 PUSH4 0xD505ACCF EQ PUSH2 0x663 JUMPI DUP1 PUSH4 0xDCBBB373 EQ PUSH2 0x6B4 JUMPI DUP1 PUSH4 0xDD62ED3E EQ PUSH2 0x6DA JUMPI DUP1 PUSH4 0xFFF6CAE9 EQ PUSH2 0x708 JUMPI PUSH2 0x1F0 JUMP JUMPDEST DUP1 PUSH4 0xBA9A7A56 EQ PUSH2 0x625 JUMPI DUP1 PUSH4 0xBC25CF77 EQ PUSH2 0x62D JUMPI DUP1 PUSH4 0xC45A0155 EQ PUSH2 0x653 JUMPI DUP1 PUSH4 0xD21220A7 EQ PUSH2 0x65B JUMPI PUSH2 0x1F0 JUMP JUMPDEST DUP1 PUSH4 0x900820D8 GT PUSH2 0xDE JUMPI DUP1 PUSH4 0x900820D8 EQ PUSH2 0x55D JUMPI DUP1 PUSH4 0x95D89B41 EQ PUSH2 0x565 JUMPI DUP1 PUSH4 0xA9059CBB EQ PUSH2 0x56D JUMPI DUP1 PUSH4 0xB40B848E EQ PUSH2 0x599 JUMPI PUSH2 0x1F0 JUMP JUMPDEST DUP1 PUSH4 0x70A08231 EQ PUSH2 0x4CA JUMPI DUP1 PUSH4 0x7464FC3D EQ PUSH2 0x4F0 JUMPI DUP1 PUSH4 0x7ECEBE00 EQ PUSH2 0x4F8 JUMPI DUP1 PUSH4 0x89AFCB44 EQ PUSH2 0x51E JUMPI PUSH2 0x1F0 JUMP JUMPDEST DUP1 PUSH4 0x313CE567 GT PUSH2 0x187 JUMPI DUP1 PUSH4 0x5909C0D5 GT PUSH2 0x156 JUMPI DUP1 PUSH4 0x5909C0D5 EQ PUSH2 0x46E JUMPI DUP1 PUSH4 0x5A3D5493 EQ PUSH2 0x476 JUMPI DUP1 PUSH4 0x6A627842 EQ PUSH2 0x47E JUMPI DUP1 PUSH4 0x6EBCF607 EQ PUSH2 0x4A4 JUMPI PUSH2 0x1F0 JUMP JUMPDEST DUP1 PUSH4 0x313CE567 EQ PUSH2 0x3F4 JUMPI DUP1 PUSH4 0x3644E515 EQ PUSH2 0x412 JUMPI DUP1 PUSH4 0x47D5D856 EQ PUSH2 0x41A JUMPI DUP1 PUSH4 0x485CC955 EQ PUSH2 0x440 JUMPI PUSH2 0x1F0 JUMP JUMPDEST DUP1 PUSH4 0xDFE1681 GT PUSH2 0x1C3 JUMPI DUP1 PUSH4 0xDFE1681 EQ PUSH2 0x378 JUMPI DUP1 PUSH4 0x18160DDD EQ PUSH2 0x39C JUMPI DUP1 PUSH4 0x23B872DD EQ PUSH2 0x3B6 JUMPI DUP1 PUSH4 0x30ADF81F EQ PUSH2 0x3EC JUMPI PUSH2 0x1F0 JUMP JUMPDEST DUP1 PUSH4 0x22C0D9F EQ PUSH2 0x1F5 JUMPI DUP1 PUSH4 0x6FDDE03 EQ PUSH2 0x283 JUMPI DUP1 PUSH4 0x902F1AC EQ PUSH2 0x300 JUMPI DUP1 PUSH4 0x95EA7B3 EQ PUSH2 0x338 JUMPI JUMPDEST PUSH1 0x0 DUP1 REVERT JUMPDEST PUSH2 0x281 PUSH1 0x4 DUP1 CALLDATASIZE SUB PUSH1 0x80 DUP2 LT ISZERO PUSH2 0x20B JUMPI PUSH1 0x0 DUP1 REVERT JUMPDEST DUP2 CALLDATALOAD SWAP2 PUSH1 0x20 DUP2 ADD CALLDATALOAD SWAP2 PUSH1 0x1 PUSH1 0x1 PUSH1 0xA0 SHL SUB PUSH1 0x40 DUP4 ADD CALLDATALOAD AND SWAP2 SWAP1 DUP2 ADD SWAP1 PUSH1 0x80 DUP2 ADD PUSH1 0x60 DUP3 ADD CALLDATALOAD PUSH5 0x100000000 DUP2 GT ISZERO PUSH2 0x242 JUMPI PUSH1 0x0 DUP1 REVERT JUMPDEST DUP3 ADD DUP4 PUSH1 0x20 DUP3 ADD GT ISZERO PUSH2 0x254 JUMPI PUSH1 0x0 DUP1 REVERT JUMPDEST DUP1 CALLDATALOAD SWAP1 PUSH1 0x20 ADD SWAP2 DUP5 PUSH1 0x1 DUP4 MUL DUP5 ADD GT PUSH5 0x100000000 DUP4 GT OR ISZERO PUSH2 0x276 JUMPI PUSH1 0x0 DUP1 REVERT JUMPDEST POP SWAP1 SWAP3 POP SWAP1 POP PUSH2 0x710 JUMP JUMPDEST STOP JUMPDEST PUSH2 0x28B PUSH2 0xC4B JUMP JUMPDEST PUSH1 0x40 DUP1 MLOAD PUSH1 0x20 DUP1 DUP3 MSTORE DUP4 MLOAD DUP2 DUP4 ADD MSTORE DUP4 MLOAD SWAP2 SWAP3 DUP4 SWAP3 SWAP1 DUP4 ADD SWAP2 DUP6 ADD SWAP1 DUP1 DUP4 DUP4 PUSH1 0x0 JUMPDEST DUP4 DUP2 LT ISZERO PUSH2 0x2C5 JUMPI DUP2 DUP2 ADD MLOAD DUP4 DUP3 ADD MSTORE PUSH1 0x20 ADD PUSH2 0x2AD JUMP JUMPDEST POP POP POP POP SWAP1 POP SWAP1 DUP2 ADD SWAP1 PUSH1 0x1F AND DUP1 ISZERO PUSH2 0x2F2 JUMPI DUP1 DUP3 SUB DUP1 MLOAD PUSH1 0x1 DUP4 PUSH1 0x20 SUB PUSH2 0x100 EXP SUB NOT AND DUP2 MSTORE PUSH1 0x20 ADD SWAP2 POP JUMPDEST POP SWAP3 POP POP POP PUSH1 0x40 MLOAD DUP1 SWAP2 SUB SWAP1 RETURN JUMPDEST PUSH2 0x308 PUSH2 0xC72 JUMP JUMPDEST PUSH1 0x40 DUP1 MLOAD PUSH1 0x1 PUSH1 0x1 PUSH1 0x70 SHL SUB SWAP5 DUP6 AND DUP2 MSTORE SWAP3 SWAP1 SWAP4 AND PUSH1 0x20 DUP4 ADD MSTORE PUSH4 0xFFFFFFFF AND DUP2 DUP4 ADD MSTORE SWAP1 MLOAD SWAP1 DUP2 SWAP1 SUB PUSH1 0x60 ADD SWAP1 RETURN JUMPDEST PUSH2 0x364 PUSH1 0x4 DUP1 CALLDATASIZE SUB PUSH1 0x40 DUP2 LT ISZERO PUSH2 0x34E JUMPI PUSH1 0x0 DUP1 REVERT JUMPDEST POP PUSH1 0x1 PUSH1 0x1 PUSH1 0xA0 SHL SUB DUP2 CALLDATALOAD AND SWAP1 PUSH1 0x20 ADD CALLDATALOAD PUSH2 0xC9C JUMP JUMPDEST PUSH1 0x40 DUP1 MLOAD SWAP2 ISZERO ISZERO DUP3 MSTORE MLOAD SWAP1 DUP2 SWAP1 SUB PUSH1 0x20 ADD SWAP1 RETURN JUMPDEST PUSH2 0x380 PUSH2 0xCB3 JUMP JUMPDEST PUSH1 0x40 DUP1 MLOAD PUSH1 0x1 PUSH1 0x1 PUSH1 0xA0 SHL SUB SWAP1 SWAP3 AND DUP3 MSTORE MLOAD SWAP1 DUP2 SWAP1 SUB PUSH1 0x20 ADD SWAP1 RETURN JUMPDEST PUSH2 0x3A4 PUSH2 0xCC2 JUMP JUMPDEST PUSH1 0x40 DUP1 MLOAD SWAP2 DUP3 MSTORE MLOAD SWAP1 DUP2 SWAP1 SUB PUSH1 0x20 ADD SWAP1 RETURN JUMPDEST PUSH2 0x364 PUSH1 0x4 DUP1 CALLDATASIZE SUB PUSH1 0x60 DUP2 LT ISZERO PUSH2 0x3CC JUMPI PUSH1 0x0 DUP1 REVERT JUMPDEST POP PUSH1 0x1 PUSH1 0x1 PUSH1 0xA0 SHL SUB DUP2 CALLDATALOAD DUP2 AND SWAP2 PUSH1 0x20 DUP2 ADD CALLDATALOAD SWAP1 SWAP2 AND SWAP1 PUSH1 0x40 ADD CALLDATALOAD PUSH2 0xCC8 JUMP JUMPDEST PUSH2 0x3A4 PUSH2 0xD62 JUMP JUMPDEST PUSH2 0x3FC PUSH2 0xD86 JUMP JUMPDEST PUSH1 0x40 DUP1 MLOAD PUSH1 0xFF SWAP1 SWAP3 AND DUP3 MSTORE MLOAD SWAP1 DUP2 SWAP1 SUB PUSH1 0x20 ADD SWAP1 RETURN JUMPDEST PUSH2 0x3A4 PUSH2 0xD8B JUMP JUMPDEST PUSH2 0x3A4 PUSH1 0x4 DUP1 CALLDATASIZE SUB PUSH1 0x20 DUP2 LT ISZERO PUSH2 0x430 JUMPI PUSH1 0x0 DUP1 REVERT JUMPDEST POP CALLDATALOAD PUSH1 0x1 PUSH1 0x1 PUSH1 0xA0 SHL SUB AND PUSH2 0xD91 JUMP JUMPDEST PUSH2 0x281 PUSH1 0x4 DUP1 CALLDATASIZE SUB PUSH1 0x40 DUP2 LT ISZERO PUSH2 0x456 JUMPI PUSH1 0x0 DUP1 REVERT JUMPDEST POP PUSH1 0x1 PUSH1 0x1 PUSH1 0xA0 SHL SUB DUP2 CALLDATALOAD DUP2 AND SWAP2 PUSH1 0x20 ADD CALLDATALOAD AND PUSH2 0xDA3 JUMP JUMPDEST PUSH2 0x3A4 PUSH2 0xE27 JUMP JUMPDEST PUSH2 0x3A4 PUSH2 0xE2D JUMP JUMPDEST PUSH2 0x3A4 PUSH1 0x4 DUP1 CALLDATASIZE SUB PUSH1 0x20 DUP2 LT ISZERO PUSH2 0x494 JUMPI PUSH1 0x0 DUP1 REVERT JUMPDEST POP CALLDATALOAD PUSH1 0x1 PUSH1 0x1 PUSH1 0xA0 SHL SUB AND PUSH2 0xE33 JUMP JUMPDEST PUSH2 0x3A4 PUSH1 0x4 DUP1 CALLDATASIZE SUB PUSH1 0x20 DUP2 LT ISZERO PUSH2 0x4BA JUMPI PUSH1 0x0 DUP1 REVERT JUMPDEST POP CALLDATALOAD PUSH1 0x1 PUSH1 0x1 PUSH1 0xA0 SHL SUB AND PUSH2 0x1133 JUMP JUMPDEST PUSH2 0x3A4 PUSH1 0x4 DUP1 CALLDATASIZE SUB PUSH1 0x20 DUP2 LT ISZERO PUSH2 0x4E0 JUMPI PUSH1 0x0 DUP1 REVERT JUMPDEST POP CALLDATALOAD PUSH1 0x1 PUSH1 0x1 PUSH1 0xA0 SHL SUB AND PUSH2 0x1145 JUMP JUMPDEST PUSH2 0x3A4 PUSH2 0x1180 JUMP JUMPDEST PUSH2 0x3A4 PUSH1 0x4 DUP1 CALLDATASIZE SUB PUSH1 0x20 DUP2 LT ISZERO PUSH2 0x50E JUMPI PUSH1 0x0 DUP1 REVERT JUMPDEST POP CALLDATALOAD PUSH1 0x1 PUSH1 0x1 PUSH1 0xA0 SHL SUB AND PUSH2 0x1186 JUMP JUMPDEST PUSH2 0x544 PUSH1 0x4 DUP1 CALLDATASIZE SUB PUSH1 0x20 DUP2 LT ISZERO PUSH2 0x534 JUMPI PUSH1 0x0 DUP1 REVERT JUMPDEST POP CALLDATALOAD PUSH1 0x1 PUSH1 0x1 PUSH1 0xA0 SHL SUB AND PUSH2 0x1198 JUMP JUMPDEST PUSH1 0x40 DUP1 MLOAD SWAP3 DUP4 MSTORE PUSH1 0x20 DUP4 ADD SWAP2 SWAP1 SWAP2 MSTORE DUP1 MLOAD SWAP2 DUP3 SWAP1 SUB ADD SWAP1 RETURN JUMPDEST PUSH2 0x380 PUSH2 0x153E JUMP JUMPDEST PUSH2 0x28B PUSH2 0x154D JUMP JUMPDEST PUSH2 0x364 PUSH1 0x4 DUP1 CALLDATASIZE SUB PUSH1 0x40 DUP2 LT ISZERO PUSH2 0x583 JUMPI PUSH1 0x0 DUP1 REVERT JUMPDEST POP PUSH1 0x1 PUSH1 0x1 PUSH1 0xA0 SHL SUB DUP2 CALLDATALOAD AND SWAP1 PUSH1 0x20 ADD CALLDATALOAD PUSH2 0x156E JUMP JUMPDEST PUSH2 0x281 PUSH1 0x4 DUP1 CALLDATASIZE SUB PUSH1 0x80 DUP2 LT ISZERO PUSH2 0x5AF JUMPI PUSH1 0x0 DUP1 REVERT JUMPDEST DUP2 CALLDATALOAD SWAP2 PUSH1 0x20 DUP2 ADD CALLDATALOAD SWAP2 PUSH1 0x1 PUSH1 0x1 PUSH1 0xA0 SHL SUB PUSH1 0x40 DUP4 ADD CALLDATALOAD AND SWAP2 SWAP1 DUP2 ADD SWAP1 PUSH1 0x80 DUP2 ADD PUSH1 0x60 DUP3 ADD CALLDATALOAD PUSH5 0x100000000 DUP2 GT ISZERO PUSH2 0x5E6 JUMPI PUSH1 0x0 DUP1 REVERT JUMPDEST DUP3 ADD DUP4 PUSH1 0x20 DUP3 ADD GT ISZERO PUSH2 0x5F8 JUMPI PUSH1 0x0 DUP1 REVERT JUMPDEST DUP1 CALLDATALOAD SWAP1 PUSH1 0x20 ADD SWAP2 DUP5 PUSH1 0x1 DUP4 MUL DUP5 ADD GT PUSH5 0x100000000 DUP4 GT OR ISZERO PUSH2 0x61A JUMPI PUSH1 0x0 DUP1 REVERT JUMPDEST POP SWAP1 SWAP3 POP SWAP1 POP PUSH2 0x157B JUMP JUMPDEST PUSH2 0x3A4 PUSH2 0x195A JUMP JUMPDEST PUSH2 0x281 PUSH1 0x4 DUP1 CALLDATASIZE SUB PUSH1 0x20 DUP2 LT ISZERO PUSH2 0x643 JUMPI PUSH1 0x0 DUP1 REVERT JUMPDEST POP CALLDATALOAD PUSH1 0x1 PUSH1 0x1 PUSH1 0xA0 SHL SUB AND PUSH2 0x1960 JUMP JUMPDEST PUSH2 0x380 PUSH2 0x1ACB JUMP JUMPDEST PUSH2 0x380 PUSH2 0x1ADA JUMP JUMPDEST PUSH2 0x281 PUSH1 0x4 DUP1 CALLDATASIZE SUB PUSH1 0xE0 DUP2 LT ISZERO PUSH2 0x679 JUMPI PUSH1 0x0 DUP1 REVERT JUMPDEST POP PUSH1 0x1 PUSH1 0x1 PUSH1 0xA0 SHL SUB DUP2 CALLDATALOAD DUP2 AND SWAP2 PUSH1 0x20 DUP2 ADD CALLDATALOAD SWAP1 SWAP2 AND SWAP1 PUSH1 0x40 DUP2 ADD CALLDATALOAD SWAP1 PUSH1 0x60 DUP2 ADD CALLDATALOAD SWAP1 PUSH1 0xFF PUSH1 0x80 DUP3 ADD CALLDATALOAD AND SWAP1 PUSH1 0xA0 DUP2 ADD CALLDATALOAD SWAP1 PUSH1 0xC0 ADD CALLDATALOAD PUSH2 0x1AE9 JUMP JUMPDEST PUSH2 0x3A4 PUSH1 0x4 DUP1 CALLDATASIZE SUB PUSH1 0x20 DUP2 LT ISZERO PUSH2 0x6CA JUMPI PUSH1 0x0 DUP1 REVERT JUMPDEST POP CALLDATALOAD PUSH1 0x1 PUSH1 0x1 PUSH1 0xA0 SHL SUB AND PUSH2 0x1CEB JUMP JUMPDEST PUSH2 0x3A4 PUSH1 0x4 DUP1 CALLDATASIZE SUB PUSH1 0x40 DUP2 LT ISZERO PUSH2 0x6F0 JUMPI PUSH1 0x0 DUP1 REVERT JUMPDEST POP PUSH1 0x1 PUSH1 0x1 PUSH1 0xA0 SHL SUB DUP2 CALLDATALOAD DUP2 AND SWAP2 PUSH1 0x20 ADD CALLDATALOAD AND PUSH2 0x1F3C JUMP JUMPDEST PUSH2 0x281 PUSH2 0x1F59 JUMP JUMPDEST PUSH1 0xE SLOAD PUSH1 0x1 EQ PUSH2 0x75B JUMPI PUSH1 0x40 DUP1 MLOAD PUSH3 0x461BCD PUSH1 0xE5 SHL DUP2 MSTORE PUSH1 0x20 PUSH1 0x4 DUP3 ADD MSTORE PUSH1 0x11 PUSH1 0x24 DUP3 ADD MSTORE PUSH17 0x155B9A5CDDD85C158C8E881313D0D2D151 PUSH1 0x7A SHL PUSH1 0x44 DUP3 ADD MSTORE SWAP1 MLOAD SWAP1 DUP2 SWAP1 SUB PUSH1 0x64 ADD SWAP1 REVERT JUMPDEST PUSH1 0x0 PUSH1 0xE SSTORE DUP5 ISZERO ISZERO DUP1 PUSH2 0x76E JUMPI POP PUSH1 0x0 DUP5 GT JUMPDEST PUSH2 0x7A9 JUMPI PUSH1 0x40 MLOAD PUSH3 0x461BCD PUSH1 0xE5 SHL DUP2 MSTORE PUSH1 0x4 ADD DUP1 DUP1 PUSH1 0x20 ADD DUP3 DUP2 SUB DUP3 MSTORE PUSH1 0x25 DUP2 MSTORE PUSH1 0x20 ADD DUP1 PUSH2 0x2A1B PUSH1 0x25 SWAP2 CODECOPY PUSH1 0x40 ADD SWAP2 POP POP PUSH1 0x40 MLOAD DUP1 SWAP2 SUB SWAP1 REVERT JUMPDEST PUSH1 0x0 DUP1 PUSH2 0x7B4 PUSH2 0xC72 JUMP JUMPDEST POP SWAP2 POP SWAP2 POP DUP2 PUSH1 0x1 PUSH1 0x1 PUSH1 0x70 SHL SUB AND DUP8 LT DUP1 ISZERO PUSH2 0x7D9 JUMPI POP DUP1 PUSH1 0x1 PUSH1 0x1 PUSH1 0x70 SHL SUB AND DUP7 LT JUMPDEST PUSH2 0x814 JUMPI PUSH1 0x40 MLOAD PUSH3 0x461BCD PUSH1 0xE5 SHL DUP2 MSTORE PUSH1 0x4 ADD DUP1 DUP1 PUSH1 0x20 ADD DUP3 DUP2 SUB DUP3 MSTORE PUSH1 0x21 DUP2 MSTORE PUSH1 0x20 ADD DUP1 PUSH2 0x2A64 PUSH1 0x21 SWAP2 CODECOPY PUSH1 0x40 ADD SWAP2 POP POP PUSH1 0x40 MLOAD DUP1 SWAP2 SUB SWAP1 REVERT JUMPDEST PUSH1 0x8 SLOAD PUSH1 0x9 SLOAD PUSH1 0x0 SWAP2 DUP3 SWAP2 PUSH1 0x1 PUSH1 0x1 PUSH1 0xA0 SHL SUB SWAP2 DUP3 AND SWAP2 SWAP1 DUP2 AND SWAP1 DUP10 AND DUP3 EQ DUP1 ISZERO SWAP1 PUSH2 0x852 JUMPI POP DUP1 PUSH1 0x1 PUSH1 0x1 PUSH1 0xA0 SHL SUB AND DUP10 PUSH1 0x1 PUSH1 0x1 PUSH1 0xA0 SHL SUB AND EQ ISZERO JUMPDEST PUSH2 0x89B JUMPI PUSH1 0x40 DUP1 MLOAD PUSH3 0x461BCD PUSH1 0xE5 SHL DUP2 MSTORE PUSH1 0x20 PUSH1 0x4 DUP3 ADD MSTORE PUSH1 0x15 PUSH1 0x24 DUP3 ADD MSTORE PUSH21 0x556E697377617056323A20494E56414C49445F544F PUSH1 0x58 SHL PUSH1 0x44 DUP3 ADD MSTORE SWAP1 MLOAD SWAP1 DUP2 SWAP1 SUB PUSH1 0x64 ADD SWAP1 REVERT JUMPDEST DUP11 ISZERO PUSH2 0x8AC JUMPI PUSH2 0x8AC DUP3 DUP11 DUP14 PUSH2 0x20BB JUMP JUMPDEST DUP10 ISZERO PUSH2 0x8BD JUMPI PUSH2 0x8BD DUP2 DUP11 DUP13 PUSH2 0x20BB JUMP JUMPDEST DUP7 ISZERO PUSH2 0x978 JUMPI DUP9 PUSH1 0x1 PUSH1 0x1 PUSH1 0xA0 SHL SUB AND PUSH4 0x10D1E85C CALLER DUP14 DUP14 DUP13 DUP13 PUSH1 0x40 MLOAD DUP7 PUSH4 0xFFFFFFFF AND PUSH1 0xE0 SHL DUP2 MSTORE PUSH1 0x4 ADD DUP1 DUP7 PUSH1 0x1 PUSH1 0x1 PUSH1 0xA0 SHL SUB AND PUSH1 0x1 PUSH1 0x1 PUSH1 0xA0 SHL SUB AND DUP2 MSTORE PUSH1 0x20 ADD DUP6 DUP2 MSTORE PUSH1 0x20 ADD DUP5 DUP2 MSTORE PUSH1 0x20 ADD DUP1 PUSH1 0x20 ADD DUP3 DUP2 SUB DUP3 MSTORE DUP5 DUP5 DUP3 DUP2 DUP2 MSTORE PUSH1 0x20 ADD SWAP3 POP DUP1 DUP3 DUP5 CALLDATACOPY PUSH1 0x0 DUP2 DUP5 ADD MSTORE PUSH1 0x1F NOT PUSH1 0x1F DUP3 ADD AND SWAP1 POP DUP1 DUP4 ADD SWAP3 POP POP POP SWAP7 POP POP POP POP POP POP POP PUSH1 0x0 PUSH1 0x40 MLOAD DUP1 DUP4 SUB DUP2 PUSH1 0x0 DUP8 DUP1 EXTCODESIZE ISZERO DUP1 ISZERO PUSH2 0x95F JUMPI PUSH1 0x0 DUP1 REVERT JUMPDEST POP GAS CALL ISZERO DUP1 ISZERO PUSH2 0x973 JUMPI RETURNDATASIZE PUSH1 0x0 DUP1 RETURNDATACOPY RETURNDATASIZE PUSH1 0x0 REVERT JUMPDEST POP POP POP POP JUMPDEST PUSH1 0x40 DUP1 MLOAD PUSH4 0x70A08231 PUSH1 0xE0 SHL DUP2 MSTORE ADDRESS PUSH1 0x4 DUP3 ADD MSTORE SWAP1 MLOAD PUSH1 0x1 PUSH1 0x1 PUSH1 0xA0 SHL SUB DUP5 AND SWAP2 PUSH4 0x70A08231 SWAP2 PUSH1 0x24 DUP1 DUP4 ADD SWAP3 PUSH1 0x20 SWAP3 SWAP2 SWAP1 DUP3 SWAP1 SUB ADD DUP2 DUP7 DUP1 EXTCODESIZE ISZERO DUP1 ISZERO PUSH2 0x9BE JUMPI PUSH1 0x0 DUP1 REVERT JUMPDEST POP GAS STATICCALL ISZERO DUP1 ISZERO PUSH2 0x9D2 JUMPI RETURNDATASIZE PUSH1 0x0 DUP1 RETURNDATACOPY RETURNDATASIZE PUSH1 0x0 REVERT JUMPDEST POP POP POP POP PUSH1 0x40 MLOAD RETURNDATASIZE PUSH1 0x20 DUP2 LT ISZERO PUSH2 0x9E8 JUMPI PUSH1 0x0 DUP1 REVERT JUMPDEST POP MLOAD PUSH1 0x40 DUP1 MLOAD PUSH4 0x70A08231 PUSH1 0xE0 SHL DUP2 MSTORE ADDRESS PUSH1 0x4 DUP3 ADD MSTORE SWAP1 MLOAD SWAP2 SWAP6 POP PUSH1 0x1 PUSH1 0x1 PUSH1 0xA0 SHL SUB DUP4 AND SWAP2 PUSH4 0x70A08231 SWAP2 PUSH1 0x24 DUP1 DUP3 ADD SWAP3 PUSH1 0x20 SWAP3 SWAP1 SWAP2 SWAP1 DUP3 SWAP1 SUB ADD DUP2 DUP7 DUP1 EXTCODESIZE ISZERO DUP1 ISZERO PUSH2 0xA34 JUMPI PUSH1 0x0 DUP1 REVERT JUMPDEST POP GAS STATICCALL ISZERO DUP1 ISZERO PUSH2 0xA48 JUMPI RETURNDATASIZE PUSH1 0x0 DUP1 RETURNDATACOPY RETURNDATASIZE PUSH1 0x0 REVERT JUMPDEST POP POP POP POP PUSH1 0x40 MLOAD RETURNDATASIZE PUSH1 0x20 DUP2 LT ISZERO PUSH2 0xA5E JUMPI PUSH1 0x0 DUP1 REVERT JUMPDEST POP MLOAD SWAP3 POP PUSH1 0x0 SWAP2 POP POP PUSH1 0x1 PUSH1 0x1 PUSH1 0x70 SHL SUB DUP6 AND DUP11 SWAP1 SUB DUP4 GT PUSH2 0xA81 JUMPI PUSH1 0x0 PUSH2 0xA90 JUMP JUMPDEST DUP10 DUP6 PUSH1 0x1 PUSH1 0x1 PUSH1 0x70 SHL SUB AND SUB DUP4 SUB JUMPDEST SWAP1 POP PUSH1 0x0 DUP10 DUP6 PUSH1 0x1 PUSH1 0x1 PUSH1 0x70 SHL SUB AND SUB DUP4 GT PUSH2 0xAAD JUMPI PUSH1 0x0 PUSH2 0xABC JUMP JUMPDEST DUP10 DUP6 PUSH1 0x1 PUSH1 0x1 PUSH1 0x70 SHL SUB AND SUB DUP4 SUB JUMPDEST SWAP1 POP PUSH1 0x0 DUP3 GT DUP1 PUSH2 0xACD JUMPI POP PUSH1 0x0 DUP2 GT JUMPDEST PUSH2 0xB08 JUMPI PUSH1 0x40 MLOAD PUSH3 0x461BCD PUSH1 0xE5 SHL DUP2 MSTORE PUSH1 0x4 ADD DUP1 DUP1 PUSH1 0x20 ADD DUP3 DUP2 SUB DUP3 MSTORE PUSH1 0x24 DUP2 MSTORE PUSH1 0x20 ADD DUP1 PUSH2 0x2A40 PUSH1 0x24 SWAP2 CODECOPY PUSH1 0x40 ADD SWAP2 POP POP PUSH1 0x40 MLOAD DUP1 SWAP2 SUB SWAP1 REVERT JUMPDEST PUSH1 0x0 PUSH2 0xB3C PUSH2 0xB1E DUP5 PUSH1 0x3 PUSH4 0xFFFFFFFF PUSH2 0x2255 AND JUMP JUMPDEST PUSH2 0xB30 DUP8 PUSH2 0x3E8 PUSH4 0xFFFFFFFF PUSH2 0x2255 AND JUMP JUMPDEST SWAP1 PUSH4 0xFFFFFFFF PUSH2 0x22B8 AND JUMP JUMPDEST SWAP1 POP PUSH1 0x0 PUSH2 0xB54 PUSH2 0xB1E DUP5 PUSH1 0x3 PUSH4 0xFFFFFFFF PUSH2 0x2255 AND JUMP JUMPDEST SWAP1 POP PUSH2 0xB85 PUSH3 0xF4240 PUSH2 0xB79 PUSH1 0x1 PUSH1 0x1 PUSH1 0x70 SHL SUB DUP12 DUP2 AND SWAP1 DUP12 AND PUSH4 0xFFFFFFFF PUSH2 0x2255 AND JUMP JUMPDEST SWAP1 PUSH4 0xFFFFFFFF PUSH2 0x2255 AND JUMP JUMPDEST PUSH2 0xB95 DUP4 DUP4 PUSH4 0xFFFFFFFF PUSH2 0x2255 AND JUMP JUMPDEST LT ISZERO PUSH2 0xBD7 JUMPI PUSH1 0x40 DUP1 MLOAD PUSH3 0x461BCD PUSH1 0xE5 SHL DUP2 MSTORE PUSH1 0x20 PUSH1 0x4 DUP3 ADD MSTORE PUSH1 0xC PUSH1 0x24 DUP3 ADD MSTORE PUSH12 0x556E697377617056323A204B PUSH1 0xA0 SHL PUSH1 0x44 DUP3 ADD MSTORE SWAP1 MLOAD SWAP1 DUP2 SWAP1 SUB PUSH1 0x64 ADD SWAP1 REVERT JUMPDEST POP POP PUSH2 0xBE5 DUP5 DUP5 DUP9 DUP9 PUSH2 0x2308 JUMP JUMPDEST PUSH1 0x40 DUP1 MLOAD DUP4 DUP2 MSTORE PUSH1 0x20 DUP2 ADD DUP4 SWAP1 MSTORE DUP1 DUP3 ADD DUP14 SWAP1 MSTORE PUSH1 0x60 DUP2 ADD DUP13 SWAP1 MSTORE SWAP1 MLOAD PUSH1 0x1 PUSH1 0x1 PUSH1 0xA0 SHL SUB DUP12 AND SWAP2 CALLER SWAP2 PUSH32 0xD78AD95FA46C994B6551D0DA85FC275FE613CE37657FB8D5E3D130840159D822 SWAP2 DUP2 SWAP1 SUB PUSH1 0x80 ADD SWAP1 LOG3 POP POP PUSH1 0x1 PUSH1 0xE SSTORE POP POP POP POP POP POP POP POP POP JUMP JUMPDEST PUSH1 0x40 MLOAD DUP1 PUSH1 0x40 ADD PUSH1 0x40 MSTORE DUP1 PUSH1 0xB DUP2 MSTORE PUSH1 0x20 ADD PUSH11 0x45706F7353776170204C5 PUSH1 0xAC SHL DUP2 MSTORE POP DUP2 JUMP JUMPDEST PUSH1 0xA SLOAD PUSH1 0x1 PUSH1 0x1 PUSH1 0x70 SHL SUB DUP1 DUP3 AND SWAP3 PUSH1 0x1 PUSH1 0x70 SHL DUP4 DIV SWAP1 SWAP2 AND SWAP2 PUSH1 0x1 PUSH1 0xE0 SHL SWAP1 DIV PUSH4 0xFFFFFFFF AND SWAP1 JUMP JUMPDEST PUSH1 0x0 PUSH2 0xCA9 CALLER DUP5 DUP5 PUSH2 0x24CD JUMP JUMPDEST POP PUSH1 0x1 JUMPDEST SWAP3 SWAP2 POP POP JUMP JUMPDEST PUSH1 0x8 SLOAD PUSH1 0x1 PUSH1 0x1 PUSH1 0xA0 SHL SUB AND DUP2 JUMP JUMPDEST PUSH1 0x0 SLOAD DUP2 JUMP JUMPDEST PUSH1 0x1 PUSH1 0x1 PUSH1 0xA0 SHL SUB DUP4 AND PUSH1 0x0 SWAP1 DUP2 MSTORE PUSH1 0x2 PUSH1 0x20 SWAP1 DUP2 MSTORE PUSH1 0x40 DUP1 DUP4 KECCAK256 CALLER DUP5 MSTORE SWAP1 SWAP2 MSTORE DUP2 KECCAK256 SLOAD PUSH1 0x0 NOT EQ PUSH2 0xD4D JUMPI PUSH1 0x1 PUSH1 0x1 PUSH1 0xA0 SHL SUB DUP5 AND PUSH1 0x0 SWAP1 DUP2 MSTORE PUSH1 0x2 PUSH1 0x20 SWAP1 DUP2 MSTORE PUSH1 0x40 DUP1 DUP4 KECCAK256 CALLER DUP5 MSTORE SWAP1 SWAP2 MSTORE SWAP1 KECCAK256 SLOAD PUSH2 0xD28 SWAP1 DUP4 PUSH4 0xFFFFFFFF PUSH2 0x22B8 AND JUMP JUMPDEST PUSH1 0x1 PUSH1 0x1 PUSH1 0xA0 SHL SUB DUP6 AND PUSH1 0x0 SWAP1 DUP2 MSTORE PUSH1 0x2 PUSH1 0x20 SWAP1 DUP2 MSTORE PUSH1 0x40 DUP1 DUP4 KECCAK256 CALLER DUP5 MSTORE SWAP1 SWAP2 MSTORE SWAP1 KECCAK256 SSTORE JUMPDEST PUSH2 0xD58 DUP5 DUP5 DUP5 PUSH2 0x252F JUMP JUMPDEST POP PUSH1 0x1 SWAP4 SWAP3 POP POP POP JUMP JUMPDEST PUSH32 0x6E71EDAE12B1B97F4D1F60370FEF10105FA2FAAE0126114A169C64845D6126C9 DUP2 JUMP JUMPDEST PUSH1 0x12 DUP2 JUMP JUMPDEST PUSH1 0x4 SLOAD DUP2 JUMP JUMPDEST PUSH1 0x3 PUSH1 0x20 MSTORE PUSH1 0x0 SWAP1 DUP2 MSTORE PUSH1 0x40 SWAP1 KECCAK256 SLOAD DUP2 JUMP JUMPDEST PUSH1 0x7 SLOAD PUSH1 0x1 PUSH1 0x1 PUSH1 0xA0 SHL SUB AND CALLER EQ PUSH2 0xDF9 JUMPI PUSH1 0x40 DUP1 MLOAD PUSH3 0x461BCD PUSH1 0xE5 SHL DUP2 MSTORE PUSH1 0x20 PUSH1 0x4 DUP3 ADD MSTORE PUSH1 0x14 PUSH1 0x24 DUP3 ADD MSTORE PUSH20 0x2AB734B9BBB0B82B191D102327A92124A22222A7 PUSH1 0x61 SHL PUSH1 0x44 DUP3 ADD MSTORE SWAP1 MLOAD SWAP1 DUP2 SWAP1 SUB PUSH1 0x64 ADD SWAP1 REVERT JUMPDEST PUSH1 0x8 DUP1 SLOAD PUSH1 0x1 PUSH1 0x1 PUSH1 0xA0 SHL SUB SWAP4 DUP5 AND PUSH1 0x1 PUSH1 0x1 PUSH1 0xA0 SHL SUB NOT SWAP2 DUP3 AND OR SWAP1 SWAP2 SSTORE PUSH1 0x9 DUP1 SLOAD SWAP3 SWAP1 SWAP4 AND SWAP2 AND OR SWAP1 SSTORE JUMP JUMPDEST PUSH1 0xB SLOAD DUP2 JUMP JUMPDEST PUSH1 0xC SLOAD DUP2 JUMP JUMPDEST PUSH1 0x0 PUSH1 0xE SLOAD PUSH1 0x1 EQ PUSH2 0xE80 JUMPI PUSH1 0x40 DUP1 MLOAD PUSH3 0x461BCD PUSH1 0xE5 SHL DUP2 MSTORE PUSH1 0x20 PUSH1 0x4 DUP3 ADD MSTORE PUSH1 0x11 PUSH1 0x24 DUP3 ADD MSTORE PUSH17 0x155B9A5CDDD85C158C8E881313D0D2D151 PUSH1 0x7A SHL PUSH1 0x44 DUP3 ADD MSTORE SWAP1 MLOAD SWAP1 DUP2 SWAP1 SUB PUSH1 0x64 ADD SWAP1 REVERT JUMPDEST PUSH1 0x0 PUSH1 0xE DUP2 SWAP1 SSTORE DUP1 PUSH2 0xE90 PUSH2 0xC72 JUMP JUMPDEST POP PUSH1 0x8 SLOAD PUSH1 0x40 DUP1 MLOAD PUSH4 0x70A08231 PUSH1 0xE0 SHL DUP2 MSTORE ADDRESS PUSH1 0x4 DUP3 ADD MSTORE SWAP1 MLOAD SWAP4 SWAP6 POP SWAP2 SWAP4 POP PUSH1 0x0 SWAP3 PUSH1 0x1 PUSH1 0x1 PUSH1 0xA0 SHL SUB SWAP1 SWAP2 AND SWAP2 PUSH4 0x70A08231 SWAP2 PUSH1 0x24 DUP1 DUP4 ADD SWAP3 PUSH1 0x20 SWAP3 SWAP2 SWAP1 DUP3 SWAP1 SUB ADD DUP2 DUP7 DUP1 EXTCODESIZE ISZERO DUP1 ISZERO PUSH2 0xEE4 JUMPI PUSH1 0x0 DUP1 REVERT JUMPDEST POP GAS STATICCALL ISZERO DUP1 ISZERO PUSH2 0xEF8 JUMPI RETURNDATASIZE PUSH1 0x0 DUP1 RETURNDATACOPY RETURNDATASIZE PUSH1 0x0 REVERT JUMPDEST POP POP POP POP PUSH1 0x40 MLOAD RETURNDATASIZE PUSH1 0x20 DUP2 LT ISZERO PUSH2 0xF0E JUMPI PUSH1 0x0 DUP1 REVERT JUMPDEST POP MLOAD PUSH1 0x9 SLOAD PUSH1 0x40 DUP1 MLOAD PUSH4 0x70A08231 PUSH1 0xE0 SHL DUP2 MSTORE ADDRESS PUSH1 0x4 DUP3 ADD MSTORE SWAP1 MLOAD SWAP3 SWAP4 POP PUSH1 0x0 SWAP3 PUSH1 0x1 PUSH1 0x1 PUSH1 0xA0 SHL SUB SWAP1 SWAP3 AND SWAP2 PUSH4 0x70A08231 SWAP2 PUSH1 0x24 DUP1 DUP3 ADD SWAP3 PUSH1 0x20 SWAP3 SWAP1 SWAP2 SWAP1 DUP3 SWAP1 SUB ADD DUP2 DUP7 DUP1 EXTCODESIZE ISZERO DUP1 ISZERO PUSH2 0xF61 JUMPI PUSH1 0x0 DUP1 REVERT JUMPDEST POP GAS STATICCALL ISZERO DUP1 ISZERO PUSH2 0xF75 JUMPI RETURNDATASIZE PUSH1 0x0 DUP1 RETURNDATACOPY RETURNDATASIZE PUSH1 0x0 REVERT JUMPDEST POP POP POP POP PUSH1 0x40 MLOAD RETURNDATASIZE PUSH1 0x20 DUP2 LT ISZERO PUSH2 0xF8B JUMPI PUSH1 0x0 DUP1 REVERT JUMPDEST POP MLOAD SWAP1 POP PUSH1 0x0 PUSH2 0xFAA DUP4 PUSH1 0x1 PUSH1 0x1 PUSH1 0x70 SHL SUB DUP8 AND PUSH4 0xFFFFFFFF PUSH2 0x22B8 AND JUMP JUMPDEST SWAP1 POP PUSH1 0x0 PUSH2 0xFC7 DUP4 PUSH1 0x1 PUSH1 0x1 PUSH1 0x70 SHL SUB DUP8 AND PUSH4 0xFFFFFFFF PUSH2 0x22B8 AND JUMP JUMPDEST SWAP1 POP PUSH1 0x0 PUSH2 0xFD5 DUP8 DUP8 PUSH2 0x25D7 JUMP JUMPDEST PUSH1 0x0 SLOAD SWAP1 SWAP2 POP DUP1 PUSH2 0x1012 JUMPI PUSH2 0xFFE PUSH2 0x3E8 PUSH2 0xB30 PUSH2 0xFF9 DUP8 DUP8 PUSH4 0xFFFFFFFF PUSH2 0x2255 AND JUMP JUMPDEST PUSH2 0x2735 JUMP JUMPDEST SWAP9 POP PUSH2 0x100D PUSH1 0x0 PUSH2 0x3E8 PUSH2 0x2786 JUMP JUMPDEST PUSH2 0x1061 JUMP JUMPDEST PUSH2 0x105E PUSH1 0x1 PUSH1 0x1 PUSH1 0x70 SHL SUB DUP10 AND PUSH2 0x102F DUP7 DUP5 PUSH4 0xFFFFFFFF PUSH2 0x2255 AND JUMP JUMPDEST DUP2 PUSH2 0x1036 JUMPI INVALID JUMPDEST DIV PUSH1 0x1 PUSH1 0x1 PUSH1 0x70 SHL SUB DUP10 AND PUSH2 0x1051 DUP7 DUP6 PUSH4 0xFFFFFFFF PUSH2 0x2255 AND JUMP JUMPDEST DUP2 PUSH2 0x1058 JUMPI INVALID JUMPDEST DIV PUSH2 0x280A JUMP JUMPDEST SWAP9 POP JUMPDEST PUSH1 0x0 DUP10 GT PUSH2 0x10A0 JUMPI PUSH1 0x40 MLOAD PUSH3 0x461BCD PUSH1 0xE5 SHL DUP2 MSTORE PUSH1 0x4 ADD DUP1 DUP1 PUSH1 0x20 ADD DUP3 DUP2 SUB DUP3 MSTORE PUSH1 0x28 DUP2 MSTORE PUSH1 0x20 ADD DUP1 PUSH2 0x2AAD PUSH1 0x28 SWAP2 CODECOPY PUSH1 0x40 ADD SWAP2 POP POP PUSH1 0x40 MLOAD DUP1 SWAP2 SUB SWAP1 REVERT JUMPDEST PUSH2 0x10AA DUP11 DUP11 PUSH2 0x2786 JUMP JUMPDEST PUSH2 0x10B6 DUP7 DUP7 DUP11 DUP11 PUSH2 0x2308 JUMP JUMPDEST DUP2 ISZERO PUSH2 0x10E6 JUMPI PUSH1 0xA SLOAD PUSH2 0x10E2 SWAP1 PUSH1 0x1 PUSH1 0x1 PUSH1 0x70 SHL SUB DUP1 DUP3 AND SWAP2 PUSH1 0x1 PUSH1 0x70 SHL SWAP1 DIV AND PUSH4 0xFFFFFFFF PUSH2 0x2255 AND JUMP JUMPDEST PUSH1 0xD SSTORE JUMPDEST PUSH1 0x40 DUP1 MLOAD DUP6 DUP2 MSTORE PUSH1 0x20 DUP2 ADD DUP6 SWAP1 MSTORE DUP2 MLOAD CALLER SWAP3 PUSH32 0x4C209B5FC8AD50758F13E2E1088BA56A560DFF690A1C6FEF26394F4C03821C4F SWAP3 DUP3 SWAP1 SUB ADD SWAP1 LOG2 POP POP PUSH1 0x1 PUSH1 0xE SSTORE POP SWAP5 SWAP7 SWAP6 POP POP POP POP POP POP JUMP JUMPDEST PUSH1 0x1 PUSH1 0x20 MSTORE PUSH1 0x0 SWAP1 DUP2 MSTORE PUSH1 0x40 SWAP1 KECCAK256 SLOAD DUP2 JUMP JUMPDEST PUSH1 0x1 PUSH1 0x1 PUSH1 0xA0 SHL SUB DUP2 AND PUSH1 0x0 SWAP1 DUP2 MSTORE PUSH1 0x3 PUSH1 0x20 SWAP1 DUP2 MSTORE PUSH1 0x40 DUP1 DUP4 KECCAK256 SLOAD PUSH1 0x1 SWAP1 SWAP3 MSTORE DUP3 KECCAK256 SLOAD PUSH2 0x1178 SWAP2 PUSH4 0xFFFFFFFF PUSH2 0x2822 AND JUMP JUMPDEST SWAP1 POP JUMPDEST SWAP2 SWAP1 POP JUMP JUMPDEST PUSH1 0xD SLOAD DUP2 JUMP JUMPDEST PUSH1 0x5 PUSH1 0x20 MSTORE PUSH1 0x0 SWAP1 DUP2 MSTORE PUSH1 0x40 SWAP1 KECCAK256 SLOAD DUP2 JUMP JUMPDEST PUSH1 0x0 DUP1 PUSH1 0xE SLOAD PUSH1 0x1 EQ PUSH2 0x11E6 JUMPI PUSH1 0x40 DUP1 MLOAD PUSH3 0x461BCD PUSH1 0xE5 SHL DUP2 MSTORE PUSH1 0x20 PUSH1 0x4 DUP3 ADD MSTORE PUSH1 0x11 PUSH1 0x24 DUP3 ADD MSTORE PUSH17 0x155B9A5CDDD85C158C8E881313D0D2D151 PUSH1 0x7A SHL PUSH1 0x44 DUP3 ADD MSTORE SWAP1 MLOAD SWAP1 DUP2 SWAP1 SUB PUSH1 0x64 ADD SWAP1 REVERT JUMPDEST PUSH1 0x0 PUSH1 0xE DUP2 SWAP1 SSTORE DUP1 PUSH2 0x11F6 PUSH2 0xC72 JUMP JUMPDEST POP PUSH1 0x8 SLOAD PUSH1 0x9 SLOAD PUSH1 0x40 DUP1 MLOAD PUSH4 0x70A08231 PUSH1 0xE0 SHL DUP2 MSTORE ADDRESS PUSH1 0x4 DUP3 ADD MSTORE SWAP1 MLOAD SWAP5 SWAP7 POP SWAP3 SWAP5 POP PUSH1 0x1 PUSH1 0x1 PUSH1 0xA0 SHL SUB SWAP2 DUP3 AND SWAP4 SWAP2 AND SWAP2 PUSH1 0x0 SWAP2 DUP5 SWAP2 PUSH4 0x70A08231 SWAP2 PUSH1 0x24 DUP1 DUP4 ADD SWAP3 PUSH1 0x20 SWAP3 SWAP2 SWAP1 DUP3 SWAP1 SUB ADD DUP2 DUP7 DUP1 EXTCODESIZE ISZERO DUP1 ISZERO PUSH2 0x1252 JUMPI PUSH1 0x0 DUP1 REVERT JUMPDEST POP GAS STATICCALL ISZERO DUP1 ISZERO PUSH2 0x1266 JUMPI RETURNDATASIZE PUSH1 0x0 DUP1 RETURNDATACOPY RETURNDATASIZE PUSH1 0x0 REVERT JUMPDEST POP POP POP POP PUSH1 0x40 MLOAD RETURNDATASIZE PUSH1 0x20 DUP2 LT ISZERO PUSH2 0x127C JUMPI PUSH1 0x0 DUP1 REVERT JUMPDEST POP MLOAD PUSH1 0x40 DUP1 MLOAD PUSH4 0x70A08231 PUSH1 0xE0 SHL DUP2 MSTORE ADDRESS PUSH1 0x4 DUP3 ADD MSTORE SWAP1 MLOAD SWAP2 SWAP3 POP PUSH1 0x0 SWAP2 PUSH1 0x1 PUSH1 0x1 PUSH1 0xA0 SHL SUB DUP6 AND SWAP2 PUSH4 0x70A08231 SWAP2 PUSH1 0x24 DUP1 DUP4 ADD SWAP3 PUSH1 0x20 SWAP3 SWAP2 SWAP1 DUP3 SWAP1 SUB ADD DUP2 DUP7 DUP1 EXTCODESIZE ISZERO DUP1 ISZERO PUSH2 0x12CA JUMPI PUSH1 0x0 DUP1 REVERT JUMPDEST POP GAS STATICCALL ISZERO DUP1 ISZERO PUSH2 0x12DE JUMPI RETURNDATASIZE PUSH1 0x0 DUP1 RETURNDATACOPY RETURNDATASIZE PUSH1 0x0 REVERT JUMPDEST POP POP POP POP PUSH1 0x40 MLOAD RETURNDATASIZE PUSH1 0x20 DUP2 LT ISZERO PUSH2 0x12F4 JUMPI PUSH1 0x0 DUP1 REVERT JUMPDEST POP MLOAD ADDRESS PUSH1 0x0 SWAP1 DUP2 MSTORE PUSH1 0x1 PUSH1 0x20 MSTORE PUSH1 0x40 DUP2 KECCAK256 SLOAD SWAP2 SWAP3 POP PUSH2 0x1313 DUP9 DUP9 PUSH2 0x25D7 JUMP JUMPDEST PUSH1 0x0 SLOAD SWAP1 SWAP2 POP DUP1 PUSH2 0x132A DUP5 DUP8 PUSH4 0xFFFFFFFF PUSH2 0x2255 AND JUMP JUMPDEST DUP2 PUSH2 0x1331 JUMPI INVALID JUMPDEST DIV SWAP11 POP DUP1 PUSH2 0x1345 DUP5 DUP7 PUSH4 0xFFFFFFFF PUSH2 0x2255 AND JUMP JUMPDEST DUP2 PUSH2 0x134C JUMPI INVALID JUMPDEST DIV SWAP10 POP PUSH1 0x0 DUP12 GT DUP1 ISZERO PUSH2 0x135F JUMPI POP PUSH1 0x0 DUP11 GT JUMPDEST PUSH2 0x139A JUMPI PUSH1 0x40 MLOAD PUSH3 0x461BCD PUSH1 0xE5 SHL DUP2 MSTORE PUSH1 0x4 ADD DUP1 DUP1 PUSH1 0x20 ADD DUP3 DUP2 SUB DUP3 MSTORE PUSH1 0x28 DUP2 MSTORE PUSH1 0x20 ADD DUP1 PUSH2 0x2A85 PUSH1 0x28 SWAP2 CODECOPY PUSH1 0x40 ADD SWAP2 POP POP PUSH1 0x40 MLOAD DUP1 SWAP2 SUB SWAP1 REVERT JUMPDEST PUSH2 0x13A4 ADDRESS DUP5 PUSH2 0x2871 JUMP JUMPDEST PUSH2 0x13AF DUP8 DUP14 DUP14 PUSH2 0x20BB JUMP JUMPDEST PUSH2 0x13BA DUP7 DUP14 DUP13 PUSH2 0x20BB JUMP JUMPDEST PUSH1 0x40 DUP1 MLOAD PUSH4 0x70A08231 PUSH1 0xE0 SHL DUP2 MSTORE ADDRESS PUSH1 0x4 DUP3 ADD MSTORE SWAP1 MLOAD PUSH1 0x1 PUSH1 0x1 PUSH1 0xA0 SHL SUB DUP10 AND SWAP2 PUSH4 0x70A08231 SWAP2 PUSH1 0x24 DUP1 DUP4 ADD SWAP3 PUSH1 0x20 SWAP3 SWAP2 SWAP1 DUP3 SWAP1 SUB ADD DUP2 DUP7 DUP1 EXTCODESIZE ISZERO DUP1 ISZERO PUSH2 0x1400 JUMPI PUSH1 0x0 DUP1 REVERT JUMPDEST POP GAS STATICCALL ISZERO DUP1 ISZERO PUSH2 0x1414 JUMPI RETURNDATASIZE PUSH1 0x0 DUP1 RETURNDATACOPY RETURNDATASIZE PUSH1 0x0 REVERT JUMPDEST POP POP POP POP PUSH1 0x40 MLOAD RETURNDATASIZE PUSH1 0x20 DUP2 LT ISZERO PUSH2 0x142A JUMPI PUSH1 0x0 DUP1 REVERT JUMPDEST POP MLOAD PUSH1 0x40 DUP1 MLOAD PUSH4 0x70A08231 PUSH1 0xE0 SHL DUP2 MSTORE ADDRESS PUSH1 0x4 DUP3 ADD MSTORE SWAP1 MLOAD SWAP2 SWAP7 POP PUSH1 0x1 PUSH1 0x1 PUSH1 0xA0 SHL SUB DUP9 AND SWAP2 PUSH4 0x70A08231 SWAP2 PUSH1 0x24 DUP1 DUP3 ADD SWAP3 PUSH1 0x20 SWAP3 SWAP1 SWAP2 SWAP1 DUP3 SWAP1 SUB ADD DUP2 DUP7 DUP1 EXTCODESIZE ISZERO DUP1 ISZERO PUSH2 0x1476 JUMPI PUSH1 0x0 DUP1 REVERT JUMPDEST POP GAS STATICCALL ISZERO DUP1 ISZERO PUSH2 0x148A JUMPI RETURNDATASIZE PUSH1 0x0 DUP1 RETURNDATACOPY RETURNDATASIZE PUSH1 0x0 REVERT JUMPDEST POP POP POP POP PUSH1 0x40 MLOAD RETURNDATASIZE PUSH1 0x20 DUP2 LT ISZERO PUSH2 0x14A0 JUMPI PUSH1 0x0 DUP1 REVERT JUMPDEST POP MLOAD SWAP4 POP PUSH2 0x14B0 DUP6 DUP6 DUP12 DUP12 PUSH2 0x2308 JUMP JUMPDEST DUP2 ISZERO PUSH2 0x14E0 JUMPI PUSH1 0xA SLOAD PUSH2 0x14DC SWAP1 PUSH1 0x1 PUSH1 0x1 PUSH1 0x70 SHL SUB DUP1 DUP3 AND SWAP2 PUSH1 0x1 PUSH1 0x70 SHL SWAP1 DIV AND PUSH4 0xFFFFFFFF PUSH2 0x2255 AND JUMP JUMPDEST PUSH1 0xD SSTORE JUMPDEST PUSH1 0x40 DUP1 MLOAD DUP13 DUP2 MSTORE PUSH1 0x20 DUP2 ADD DUP13 SWAP1 MSTORE DUP2 MLOAD PUSH1 0x1 PUSH1 0x1 PUSH1 0xA0 SHL SUB DUP16 AND SWAP3 CALLER SWAP3 PUSH32 0xDCCD412F0B1252819CB1FD330B93224CA42612892BB3F4F789976E6D81936496 SWAP3 SWAP1 DUP2 SWAP1 SUB SWAP1 SWAP2 ADD SWAP1 LOG3 POP POP POP POP POP POP POP POP POP PUSH1 0x1 PUSH1 0xE DUP2 SWAP1 SSTORE POP SWAP2 POP SWAP2 JUMP JUMPDEST PUSH1 0x6 SLOAD PUSH1 0x1 PUSH1 0x1 PUSH1 0xA0 SHL SUB AND DUP2 JUMP JUMPDEST PUSH1 0x40 MLOAD DUP1 PUSH1 0x40 ADD PUSH1 0x40 MSTORE DUP1 PUSH1 0x5 DUP2 MSTORE PUSH1 0x20 ADD PUSH5 0x455357415 PUSH1 0xDC SHL DUP2 MSTORE POP DUP2 JUMP JUMPDEST PUSH1 0x0 PUSH2 0xCA9 CALLER DUP5 DUP5 PUSH2 0x252F JUMP JUMPDEST PUSH1 0xE SLOAD PUSH1 0x1 EQ PUSH2 0x15C6 JUMPI PUSH1 0x40 DUP1 MLOAD PUSH3 0x461BCD PUSH1 0xE5 SHL DUP2 MSTORE PUSH1 0x20 PUSH1 0x4 DUP3 ADD MSTORE PUSH1 0x11 PUSH1 0x24 DUP3 ADD MSTORE PUSH17 0x155B9A5CDDD85C158C8E881313D0D2D151 PUSH1 0x7A SHL PUSH1 0x44 DUP3 ADD MSTORE SWAP1 MLOAD SWAP1 DUP2 SWAP1 SUB PUSH1 0x64 ADD SWAP1 REVERT JUMPDEST PUSH1 0x0 PUSH1 0xE SSTORE DUP5 ISZERO ISZERO DUP1 PUSH2 0x15D9 JUMPI POP PUSH1 0x0 DUP5 GT JUMPDEST PUSH2 0x1614 JUMPI PUSH1 0x40 MLOAD PUSH3 0x461BCD PUSH1 0xE5 SHL DUP2 MSTORE PUSH1 0x4 ADD DUP1 DUP1 PUSH1 0x20 ADD DUP3 DUP2 SUB DUP3 MSTORE PUSH1 0x25 DUP2 MSTORE PUSH1 0x20 ADD DUP1 PUSH2 0x2A1B PUSH1 0x25 SWAP2 CODECOPY PUSH1 0x40 ADD SWAP2 POP POP PUSH1 0x40 MLOAD DUP1 SWAP2 SUB SWAP1 REVERT JUMPDEST PUSH1 0x0 DUP1 PUSH2 0x161F PUSH2 0xC72 JUMP JUMPDEST POP SWAP2 POP SWAP2 POP DUP2 PUSH1 0x1 PUSH1 0x1 PUSH1 0x70 SHL SUB AND DUP8 LT DUP1 ISZERO PUSH2 0x1644 JUMPI POP DUP1 PUSH1 0x1 PUSH1 0x1 PUSH1 0x70 SHL SUB AND DUP7 LT JUMPDEST PUSH2 0x167F JUMPI PUSH1 0x40 MLOAD PUSH3 0x461BCD PUSH1 0xE5 SHL DUP2 MSTORE PUSH1 0x4 ADD DUP1 DUP1 PUSH1 0x20 ADD DUP3 DUP2 SUB DUP3 MSTORE PUSH1 0x21 DUP2 MSTORE PUSH1 0x20 ADD DUP1 PUSH2 0x2A64 PUSH1 0x21 SWAP2 CODECOPY PUSH1 0x40 ADD SWAP2 POP POP PUSH1 0x40 MLOAD DUP1 SWAP2 SUB SWAP1 REVERT JUMPDEST PUSH1 0x8 SLOAD PUSH1 0x9 SLOAD PUSH1 0x0 SWAP2 DUP3 SWAP2 PUSH1 0x1 PUSH1 0x1 PUSH1 0xA0 SHL SUB SWAP2 DUP3 AND SWAP2 AND DUP3 PUSH1 0x64 PUSH1 0x5 DUP14 MUL DIV DUP13 SUB SWAP1 POP PUSH1 0x0 PUSH1 0x64 PUSH1 0x5 DUP14 MUL DIV DUP13 SUB SWAP1 POP DUP4 PUSH1 0x1 PUSH1 0x1 PUSH1 0xA0 SHL SUB AND DUP12 PUSH1 0x1 PUSH1 0x1 PUSH1 0xA0 SHL SUB AND EQ ISZERO DUP1 ISZERO PUSH2 0x16E4 JUMPI POP DUP3 PUSH1 0x1 PUSH1 0x1 PUSH1 0xA0 SHL SUB AND DUP12 PUSH1 0x1 PUSH1 0x1 PUSH1 0xA0 SHL SUB AND EQ ISZERO JUMPDEST PUSH2 0x172D JUMPI PUSH1 0x40 DUP1 MLOAD PUSH3 0x461BCD PUSH1 0xE5 SHL DUP2 MSTORE PUSH1 0x20 PUSH1 0x4 DUP3 ADD MSTORE PUSH1 0x15 PUSH1 0x24 DUP3 ADD MSTORE PUSH21 0x556E697377617056323A20494E56414C49445F544F PUSH1 0x58 SHL PUSH1 0x44 DUP3 ADD MSTORE SWAP1 MLOAD SWAP1 DUP2 SWAP1 SUB PUSH1 0x64 ADD SWAP1 REVERT JUMPDEST DUP13 ISZERO PUSH2 0x173E JUMPI PUSH2 0x173E DUP5 DUP13 DUP5 PUSH2 0x20BB JUMP JUMPDEST DUP12 ISZERO PUSH2 0x174F JUMPI PUSH2 0x174F DUP4 DUP13 DUP4 PUSH2 0x20BB JUMP JUMPDEST DUP9 ISZERO PUSH2 0x180A JUMPI DUP11 PUSH1 0x1 PUSH1 0x1 PUSH1 0xA0 SHL SUB AND PUSH4 0x10D1E85C CALLER DUP5 DUP5 DUP15 DUP15 PUSH1 0x40 MLOAD DUP7 PUSH4 0xFFFFFFFF AND PUSH1 0xE0 SHL DUP2 MSTORE PUSH1 0x4 ADD DUP1 DUP7 PUSH1 0x1 PUSH1 0x1 PUSH1 0xA0 SHL SUB AND PUSH1 0x1 PUSH1 0x1 PUSH1 0xA0 SHL SUB AND DUP2 MSTORE PUSH1 0x20 ADD DUP6 DUP2 MSTORE PUSH1 0x20 ADD DUP5 DUP2 MSTORE PUSH1 0x20 ADD DUP1 PUSH1 0x20 ADD DUP3 DUP2 SUB DUP3 MSTORE DUP5 DUP5 DUP3 DUP2 DUP2 MSTORE PUSH1 0x20 ADD SWAP3 POP DUP1 DUP3 DUP5 CALLDATACOPY PUSH1 0x0 DUP2 DUP5 ADD MSTORE PUSH1 0x1F NOT PUSH1 0x1F DUP3 ADD AND SWAP1 POP DUP1 DUP4 ADD SWAP3 POP POP POP SWAP7 POP POP POP POP POP POP POP PUSH1 0x0 PUSH1 0x40 MLOAD DUP1 DUP4 SUB DUP2 PUSH1 0x0 DUP8 DUP1 EXTCODESIZE ISZERO DUP1 ISZERO PUSH2 0x17F1 JUMPI PUSH1 0x0 DUP1 REVERT JUMPDEST POP GAS CALL ISZERO DUP1 ISZERO PUSH2 0x1805 JUMPI RETURNDATASIZE PUSH1 0x0 DUP1 RETURNDATACOPY RETURNDATASIZE PUSH1 0x0 REVERT JUMPDEST POP POP POP POP JUMPDEST PUSH1 0x6 SLOAD PUSH1 0x64 PUSH1 0x5 DUP16 DUP2 MUL DUP3 SWAP1 DIV SWAP3 SWAP1 DUP16 MUL SWAP2 SWAP1 SWAP2 DIV SWAP1 PUSH2 0x1835 SWAP1 DUP8 SWAP1 PUSH1 0x1 PUSH1 0x1 PUSH1 0xA0 SHL SUB AND DUP5 PUSH2 0x20BB JUMP JUMPDEST PUSH1 0x6 SLOAD PUSH2 0x184D SWAP1 DUP7 SWAP1 PUSH1 0x1 PUSH1 0x1 PUSH1 0xA0 SHL SUB AND DUP4 PUSH2 0x20BB JUMP JUMPDEST PUSH1 0x40 DUP1 MLOAD PUSH4 0x70A08231 PUSH1 0xE0 SHL DUP2 MSTORE ADDRESS PUSH1 0x4 DUP3 ADD MSTORE SWAP1 MLOAD PUSH1 0x1 PUSH1 0x1 PUSH1 0xA0 SHL SUB DUP9 AND SWAP2 PUSH4 0x70A08231 SWAP2 PUSH1 0x24 DUP1 DUP4 ADD SWAP3 PUSH1 0x20 SWAP3 SWAP2 SWAP1 DUP3 SWAP1 SUB ADD DUP2 DUP7 DUP1 EXTCODESIZE ISZERO DUP1 ISZERO PUSH2 0x1893 JUMPI PUSH1 0x0 DUP1 REVERT JUMPDEST POP GAS STATICCALL ISZERO DUP1 ISZERO PUSH2 0x18A7 JUMPI RETURNDATASIZE PUSH1 0x0 DUP1 RETURNDATACOPY RETURNDATASIZE PUSH1 0x0 REVERT JUMPDEST POP POP POP POP PUSH1 0x40 MLOAD RETURNDATASIZE PUSH1 0x20 DUP2 LT ISZERO PUSH2 0x18BD JUMPI PUSH1 0x0 DUP1 REVERT JUMPDEST POP MLOAD PUSH1 0x40 DUP1 MLOAD PUSH4 0x70A08231 PUSH1 0xE0 SHL DUP2 MSTORE ADDRESS PUSH1 0x4 DUP3 ADD MSTORE SWAP1 MLOAD SWAP2 SWAP10 POP PUSH1 0x1 PUSH1 0x1 PUSH1 0xA0 SHL SUB DUP8 AND SWAP2 PUSH4 0x70A08231 SWAP2 PUSH1 0x24 DUP1 DUP3 ADD SWAP3 PUSH1 0x20 SWAP3 SWAP1 SWAP2 SWAP1 DUP3 SWAP1 SUB ADD DUP2 DUP7 DUP1 EXTCODESIZE ISZERO DUP1 ISZERO PUSH2 0x1909 JUMPI PUSH1 0x0 DUP1 REVERT JUMPDEST POP GAS STATICCALL ISZERO DUP1 ISZERO PUSH2 0x191D JUMPI RETURNDATASIZE PUSH1 0x0 DUP1 RETURNDATACOPY RETURNDATASIZE PUSH1 0x0 REVERT JUMPDEST POP POP POP POP PUSH1 0x40 MLOAD RETURNDATASIZE PUSH1 0x20 DUP2 LT ISZERO PUSH2 0x1933 JUMPI PUSH1 0x0 DUP1 REVERT JUMPDEST POP MLOAD SWAP7 POP PUSH1 0x0 SWAP6 POP POP POP POP POP POP PUSH1 0x1 PUSH1 0x1 PUSH1 0x70 SHL SUB DUP6 AND DUP11 SWAP1 SUB DUP4 GT PUSH2 0xA81 JUMPI PUSH1 0x0 PUSH2 0xA90 JUMP JUMPDEST PUSH2 0x3E8 DUP2 JUMP JUMPDEST PUSH1 0xE SLOAD PUSH1 0x1 EQ PUSH2 0x19AB JUMPI PUSH1 0x40 DUP1 MLOAD PUSH3 0x461BCD PUSH1 0xE5 SHL DUP2 MSTORE PUSH1 0x20 PUSH1 0x4 DUP3 ADD MSTORE PUSH1 0x11 PUSH1 0x24 DUP3 ADD MSTORE PUSH17 0x155B9A5CDDD85C158C8E881313D0D2D151 PUSH1 0x7A SHL PUSH1 0x44 DUP3 ADD MSTORE SWAP1 MLOAD SWAP1 DUP2 SWAP1 SUB PUSH1 0x64 ADD SWAP1 REVERT JUMPDEST PUSH1 0x0 PUSH1 0xE SSTORE PUSH1 0x8 SLOAD PUSH1 0x9 SLOAD PUSH1 0xA SLOAD PUSH1 0x40 DUP1 MLOAD PUSH4 0x70A08231 PUSH1 0xE0 SHL DUP2 MSTORE ADDRESS PUSH1 0x4 DUP3 ADD MSTORE SWAP1 MLOAD PUSH1 0x1 PUSH1 0x1 PUSH1 0xA0 SHL SUB SWAP5 DUP6 AND SWAP5 SWAP1 SWAP4 AND SWAP3 PUSH2 0x1A5A SWAP3 DUP6 SWAP3 DUP8 SWAP3 PUSH2 0x1A55 SWAP3 PUSH1 0x1 PUSH1 0x1 PUSH1 0x70 SHL SUB AND SWAP2 DUP6 SWAP2 PUSH4 0x70A08231 SWAP2 PUSH1 0x24 DUP1 DUP3 ADD SWAP3 PUSH1 0x20 SWAP3 SWAP1 SWAP2 SWAP1 DUP3 SWAP1 SUB ADD DUP2 DUP7 DUP1 EXTCODESIZE ISZERO DUP1 ISZERO PUSH2 0x1A1D JUMPI PUSH1 0x0 DUP1 REVERT JUMPDEST POP GAS STATICCALL ISZERO DUP1 ISZERO PUSH2 0x1A31 JUMPI RETURNDATASIZE PUSH1 0x0 DUP1 RETURNDATACOPY RETURNDATASIZE PUSH1 0x0 REVERT JUMPDEST POP POP POP POP PUSH1 0x40 MLOAD RETURNDATASIZE PUSH1 0x20 DUP2 LT ISZERO PUSH2 0x1A47 JUMPI PUSH1 0x0 DUP1 REVERT JUMPDEST POP MLOAD SWAP1 PUSH4 0xFFFFFFFF PUSH2 0x22B8 AND JUMP JUMPDEST PUSH2 0x20BB JUMP JUMPDEST PUSH1 0xA SLOAD PUSH1 0x40 DUP1 MLOAD PUSH4 0x70A08231 PUSH1 0xE0 SHL DUP2 MSTORE ADDRESS PUSH1 0x4 DUP3 ADD MSTORE SWAP1 MLOAD PUSH2 0x1AC1 SWAP3 DUP5 SWAP3 DUP8 SWAP3 PUSH2 0x1A55 SWAP3 PUSH1 0x1 PUSH1 0x70 SHL SWAP1 DIV PUSH1 0x1 PUSH1 0x1 PUSH1 0x70 SHL SUB AND SWAP2 PUSH1 0x1 PUSH1 0x1 PUSH1 0xA0 SHL SUB DUP7 AND SWAP2 PUSH4 0x70A08231 SWAP2 PUSH1 0x24 DUP1 DUP3 ADD SWAP3 PUSH1 0x20 SWAP3 SWAP1 SWAP2 SWAP1 DUP3 SWAP1 SUB ADD DUP2 DUP7 DUP1 EXTCODESIZE ISZERO DUP1 ISZERO PUSH2 0x1A1D JUMPI PUSH1 0x0 DUP1 REVERT JUMPDEST POP POP PUSH1 0x1 PUSH1 0xE SSTORE POP JUMP JUMPDEST PUSH1 0x7 SLOAD PUSH1 0x1 PUSH1 0x1 PUSH1 0xA0 SHL SUB AND DUP2 JUMP JUMPDEST PUSH1 0x9 SLOAD PUSH1 0x1 PUSH1 0x1 PUSH1 0xA0 SHL SUB AND DUP2 JUMP JUMPDEST TIMESTAMP DUP5 LT ISZERO PUSH2 0x1B33 JUMPI PUSH1 0x40 DUP1 MLOAD PUSH3 0x461BCD PUSH1 0xE5 SHL DUP2 MSTORE PUSH1 0x20 PUSH1 0x4 DUP3 ADD MSTORE PUSH1 0x12 PUSH1 0x24 DUP3 ADD MSTORE PUSH18 0x155B9A5CDDD85C158C8E8811561412549151 PUSH1 0x72 SHL PUSH1 0x44 DUP3 ADD MSTORE SWAP1 MLOAD SWAP1 DUP2 SWAP1 SUB PUSH1 0x64 ADD SWAP1 REVERT JUMPDEST PUSH1 0x4 SLOAD PUSH1 0x1 PUSH1 0x1 PUSH1 0xA0 SHL SUB DUP1 DUP10 AND PUSH1 0x0 DUP2 DUP2 MSTORE PUSH1 0x5 PUSH1 0x20 SWAP1 DUP2 MSTORE PUSH1 0x40 DUP1 DUP4 KECCAK256 DUP1 SLOAD PUSH1 0x1 DUP1 DUP3 ADD SWAP1 SWAP3 SSTORE DUP3 MLOAD PUSH32 0x6E71EDAE12B1B97F4D1F60370FEF10105FA2FAAE0126114A169C64845D6126C9 DUP2 DUP7 ADD MSTORE DUP1 DUP5 ADD SWAP7 SWAP1 SWAP7 MSTORE SWAP6 DUP14 AND PUSH1 0x60 DUP7 ADD MSTORE PUSH1 0x80 DUP6 ADD DUP13 SWAP1 MSTORE PUSH1 0xA0 DUP6 ADD SWAP6 SWAP1 SWAP6 MSTORE PUSH1 0xC0 DUP1 DUP6 ADD DUP12 SWAP1 MSTORE DUP2 MLOAD DUP1 DUP7 SUB SWAP1 SWAP2 ADD DUP2 MSTORE PUSH1 0xE0 DUP6 ADD DUP3 MSTORE DUP1 MLOAD SWAP1 DUP4 ADD KECCAK256 PUSH2 0x1901 PUSH1 0xF0 SHL PUSH2 0x100 DUP7 ADD MSTORE PUSH2 0x102 DUP6 ADD SWAP7 SWAP1 SWAP7 MSTORE PUSH2 0x122 DUP1 DUP6 ADD SWAP7 SWAP1 SWAP7 MSTORE DUP1 MLOAD DUP1 DUP6 SUB SWAP1 SWAP7 ADD DUP7 MSTORE PUSH2 0x142 DUP5 ADD DUP1 DUP3 MSTORE DUP7 MLOAD SWAP7 DUP4 ADD SWAP7 SWAP1 SWAP7 KECCAK256 SWAP6 DUP4 SWAP1 MSTORE PUSH2 0x162 DUP5 ADD DUP1 DUP3 MSTORE DUP7 SWAP1 MSTORE PUSH1 0xFF DUP10 AND PUSH2 0x182 DUP6 ADD MSTORE PUSH2 0x1A2 DUP5 ADD DUP9 SWAP1 MSTORE PUSH2 0x1C2 DUP5 ADD DUP8 SWAP1 MSTORE MLOAD SWAP2 SWAP4 SWAP3 PUSH2 0x1E2 DUP1 DUP3 ADD SWAP4 PUSH1 0x1F NOT DUP2 ADD SWAP3 DUP2 SWAP1 SUB SWAP1 SWAP2 ADD SWAP1 DUP6 GAS STATICCALL ISZERO DUP1 ISZERO PUSH2 0x1C4E JUMPI RETURNDATASIZE PUSH1 0x0 DUP1 RETURNDATACOPY RETURNDATASIZE PUSH1 0x0 REVERT JUMPDEST POP POP PUSH1 0x40 MLOAD PUSH1 0x1F NOT ADD MLOAD SWAP2 POP POP PUSH1 0x1 PUSH1 0x1 PUSH1 0xA0 SHL SUB DUP2 AND ISZERO DUP1 ISZERO SWAP1 PUSH2 0x1C84 JUMPI POP DUP9 PUSH1 0x1 PUSH1 0x1 PUSH1 0xA0 SHL SUB AND DUP2 PUSH1 0x1 PUSH1 0x1 PUSH1 0xA0 SHL SUB AND EQ JUMPDEST PUSH2 0x1CD5 JUMPI PUSH1 0x40 DUP1 MLOAD PUSH3 0x461BCD PUSH1 0xE5 SHL DUP2 MSTORE PUSH1 0x20 PUSH1 0x4 DUP3 ADD MSTORE PUSH1 0x1C PUSH1 0x24 DUP3 ADD MSTORE PUSH32 0x556E697377617056323A20494E56414C49445F5349474E415455524500000000 PUSH1 0x44 DUP3 ADD MSTORE SWAP1 MLOAD SWAP1 DUP2 SWAP1 SUB PUSH1 0x64 ADD SWAP1 REVERT JUMPDEST PUSH2 0x1CE0 DUP10 DUP10 DUP10 PUSH2 0x24CD JUMP JUMPDEST POP POP POP POP POP POP POP POP POP JUMP JUMPDEST PUSH1 0x0 PUSH1 0xE SLOAD PUSH1 0x1 EQ PUSH2 0x1D38 JUMPI PUSH1 0x40 DUP1 MLOAD PUSH3 0x461BCD PUSH1 0xE5 SHL DUP2 MSTORE PUSH1 0x20 PUSH1 0x4 DUP3 ADD MSTORE PUSH1 0x11 PUSH1 0x24 DUP3 ADD MSTORE PUSH17 0x155B9A5CDDD85C158C8E881313D0D2D151 PUSH1 0x7A SHL PUSH1 0x44 DUP3 ADD MSTORE SWAP1 MLOAD SWAP1 DUP2 SWAP1 SUB PUSH1 0x64 ADD SWAP1 REVERT JUMPDEST PUSH1 0x0 PUSH1 0xE DUP2 SWAP1 SSTORE DUP1 PUSH2 0x1D48 PUSH2 0xC72 JUMP JUMPDEST POP PUSH1 0x8 SLOAD PUSH1 0x40 DUP1 MLOAD PUSH4 0x70A08231 PUSH1 0xE0 SHL DUP2 MSTORE ADDRESS PUSH1 0x4 DUP3 ADD MSTORE SWAP1 MLOAD SWAP4 SWAP6 POP SWAP2 SWAP4 POP PUSH1 0x0 SWAP3 PUSH1 0x1 PUSH1 0x1 PUSH1 0xA0 SHL SUB SWAP1 SWAP2 AND SWAP2 PUSH4 0x70A08231 SWAP2 PUSH1 0x24 DUP1 DUP4 ADD SWAP3 PUSH1 0x20 SWAP3 SWAP2 SWAP1 DUP3 SWAP1 SUB ADD DUP2 DUP7 DUP1 EXTCODESIZE ISZERO DUP1 ISZERO PUSH2 0x1D9C JUMPI PUSH1 0x0 DUP1 REVERT JUMPDEST POP GAS STATICCALL ISZERO DUP1 ISZERO PUSH2 0x1DB0 JUMPI RETURNDATASIZE PUSH1 0x0 DUP1 RETURNDATACOPY RETURNDATASIZE PUSH1 0x0 REVERT JUMPDEST POP POP POP POP PUSH1 0x40 MLOAD RETURNDATASIZE PUSH1 0x20 DUP2 LT ISZERO PUSH2 0x1DC6 JUMPI PUSH1 0x0 DUP1 REVERT JUMPDEST POP MLOAD PUSH1 0x9 SLOAD PUSH1 0x40 DUP1 MLOAD PUSH4 0x70A08231 PUSH1 0xE0 SHL DUP2 MSTORE ADDRESS PUSH1 0x4 DUP3 ADD MSTORE SWAP1 MLOAD SWAP3 SWAP4 POP PUSH1 0x0 SWAP3 PUSH1 0x1 PUSH1 0x1 PUSH1 0xA0 SHL SUB SWAP1 SWAP3 AND SWAP2 PUSH4 0x70A08231 SWAP2 PUSH1 0x24 DUP1 DUP3 ADD SWAP3 PUSH1 0x20 SWAP3 SWAP1 SWAP2 SWAP1 DUP3 SWAP1 SUB ADD DUP2 DUP7 DUP1 EXTCODESIZE ISZERO DUP1 ISZERO PUSH2 0x1E19 JUMPI PUSH1 0x0 DUP1 REVERT JUMPDEST POP GAS STATICCALL ISZERO DUP1 ISZERO PUSH2 0x1E2D JUMPI RETURNDATASIZE PUSH1 0x0 DUP1 RETURNDATACOPY RETURNDATASIZE PUSH1 0x0 REVERT JUMPDEST POP POP POP POP PUSH1 0x40 MLOAD RETURNDATASIZE PUSH1 0x20 DUP2 LT ISZERO PUSH2 0x1E43 JUMPI PUSH1 0x0 DUP1 REVERT JUMPDEST POP MLOAD SWAP1 POP PUSH1 0x0 PUSH2 0x1E62 DUP4 PUSH1 0x1 PUSH1 0x1 PUSH1 0x70 SHL SUB DUP8 AND PUSH4 0xFFFFFFFF PUSH2 0x22B8 AND JUMP JUMPDEST SWAP1 POP PUSH1 0x0 PUSH2 0x1E7F DUP4 PUSH1 0x1 PUSH1 0x1 PUSH1 0x70 SHL SUB DUP8 AND PUSH4 0xFFFFFFFF PUSH2 0x22B8 AND JUMP JUMPDEST SWAP1 POP PUSH1 0x0 PUSH2 0x1E8D DUP8 DUP8 PUSH2 0x25D7 JUMP JUMPDEST PUSH1 0x0 SLOAD SWAP1 SWAP2 POP DUP1 PUSH2 0x1EC6 JUMPI PUSH2 0x1EB1 PUSH2 0x3E8 PUSH2 0xB30 PUSH2 0xFF9 DUP8 DUP8 PUSH4 0xFFFFFFFF PUSH2 0x2255 AND JUMP JUMPDEST SWAP9 POP PUSH2 0x1EC0 PUSH1 0x0 PUSH2 0x3E8 PUSH2 0x28FD JUMP JUMPDEST POP PUSH2 0x1EE6 JUMP JUMPDEST PUSH2 0x1EE3 PUSH1 0x1 PUSH1 0x1 PUSH1 0x70 SHL SUB DUP10 AND PUSH2 0x102F DUP7 DUP5 PUSH4 0xFFFFFFFF PUSH2 0x2255 AND JUMP JUMPDEST SWAP9 POP JUMPDEST PUSH1 0x0 DUP10 GT PUSH2 0x1F25 JUMPI PUSH1 0x40 MLOAD PUSH3 0x461BCD PUSH1 0xE5 SHL DUP2 MSTORE PUSH1 0x4 ADD DUP1 DUP1 PUSH1 0x20 ADD DUP3 DUP2 SUB DUP3 MSTORE PUSH1 0x28 DUP2 MSTORE PUSH1 0x20 ADD DUP1 PUSH2 0x2AAD PUSH1 0x28 SWAP2 CODECOPY PUSH1 0x40 ADD SWAP2 POP POP PUSH1 0x40 MLOAD DUP1 SWAP2 SUB SWAP1 REVERT JUMPDEST PUSH2 0x1F2F DUP11 DUP11 PUSH2 0x28FD JUMP JUMPDEST POP PUSH2 0x10B6 DUP7 DUP7 DUP11 DUP11 PUSH2 0x2308 JUMP JUMPDEST PUSH1 0x2 PUSH1 0x20 SWAP1 DUP2 MSTORE PUSH1 0x0 SWAP3 DUP4 MSTORE PUSH1 0x40 DUP1 DUP5 KECCAK256 SWAP1 SWAP2 MSTORE SWAP1 DUP3 MSTORE SWAP1 KECCAK256 SLOAD DUP2 JUMP JUMPDEST PUSH1 0xE SLOAD PUSH1 0x1 EQ PUSH2 0x1FA4 JUMPI PUSH1 0x40 DUP1 MLOAD PUSH3 0x461BCD PUSH1 0xE5 SHL DUP2 MSTORE PUSH1 0x20 PUSH1 0x4 DUP3 ADD MSTORE PUSH1 0x11 PUSH1 0x24 DUP3 ADD MSTORE PUSH17 0x155B9A5CDDD85C158C8E881313D0D2D151 PUSH1 0x7A SHL PUSH1 0x44 DUP3 ADD MSTORE SWAP1 MLOAD SWAP1 DUP2 SWAP1 SUB PUSH1 0x64 ADD SWAP1 REVERT JUMPDEST PUSH1 0x0 PUSH1 0xE SSTORE PUSH1 0x8 SLOAD PUSH1 0x40 DUP1 MLOAD PUSH4 0x70A08231 PUSH1 0xE0 SHL DUP2 MSTORE ADDRESS PUSH1 0x4 DUP3 ADD MSTORE SWAP1 MLOAD PUSH2 0x20B4 SWAP3 PUSH1 0x1 PUSH1 0x1 PUSH1 0xA0 SHL SUB AND SWAP2 PUSH4 0x70A08231 SWAP2 PUSH1 0x24 DUP1 DUP4 ADD SWAP3 PUSH1 0x20 SWAP3 SWAP2 SWAP1 DUP3 SWAP1 SUB ADD DUP2 DUP7 DUP1 EXTCODESIZE ISZERO DUP1 ISZERO PUSH2 0x1FF5 JUMPI PUSH1 0x0 DUP1 REVERT JUMPDEST POP GAS STATICCALL ISZERO DUP1 ISZERO PUSH2 0x2009 JUMPI RETURNDATASIZE PUSH1 0x0 DUP1 RETURNDATACOPY RETURNDATASIZE PUSH1 0x0 REVERT JUMPDEST POP POP POP POP PUSH1 0x40 MLOAD RETURNDATASIZE PUSH1 0x20 DUP2 LT ISZERO PUSH2 0x201F JUMPI PUSH1 0x0 DUP1 REVERT JUMPDEST POP MLOAD PUSH1 0x9 SLOAD PUSH1 0x40 DUP1 MLOAD PUSH4 0x70A08231 PUSH1 0xE0 SHL DUP2 MSTORE ADDRESS PUSH1 0x4 DUP3 ADD MSTORE SWAP1 MLOAD PUSH1 0x1 PUSH1 0x1 PUSH1 0xA0 SHL SUB SWAP1 SWAP3 AND SWAP2 PUSH4 0x70A08231 SWAP2 PUSH1 0x24 DUP1 DUP3 ADD SWAP3 PUSH1 0x20 SWAP3 SWAP1 SWAP2 SWAP1 DUP3 SWAP1 SUB ADD DUP2 DUP7 DUP1 EXTCODESIZE ISZERO DUP1 ISZERO PUSH2 0x206C JUMPI PUSH1 0x0 DUP1 REVERT JUMPDEST POP GAS STATICCALL ISZERO DUP1 ISZERO PUSH2 0x2080 JUMPI RETURNDATASIZE PUSH1 0x0 DUP1 RETURNDATACOPY RETURNDATASIZE PUSH1 0x0 REVERT JUMPDEST POP POP POP POP PUSH1 0x40 MLOAD RETURNDATASIZE PUSH1 0x20 DUP2 LT ISZERO PUSH2 0x2096 JUMPI PUSH1 0x0 DUP1 REVERT JUMPDEST POP MLOAD PUSH1 0xA SLOAD PUSH1 0x1 PUSH1 0x1 PUSH1 0x70 SHL SUB DUP1 DUP3 AND SWAP2 PUSH1 0x1 PUSH1 0x70 SHL SWAP1 DIV AND PUSH2 0x2308 JUMP JUMPDEST PUSH1 0x1 PUSH1 0xE SSTORE JUMP JUMPDEST PUSH1 0x40 DUP1 MLOAD DUP1 DUP3 ADD DUP3 MSTORE PUSH1 0x19 DUP2 MSTORE PUSH32 0x7472616E7366657228616464726573732C75696E743235362900000000000000 PUSH1 0x20 SWAP2 DUP3 ADD MSTORE DUP2 MLOAD PUSH1 0x1 PUSH1 0x1 PUSH1 0xA0 SHL SUB DUP6 DUP2 AND PUSH1 0x24 DUP4 ADD MSTORE PUSH1 0x44 DUP1 DUP4 ADD DUP7 SWAP1 MSTORE DUP5 MLOAD DUP1 DUP5 SUB SWAP1 SWAP2 ADD DUP2 MSTORE PUSH1 0x64 SWAP1 SWAP3 ADD DUP5 MSTORE SWAP2 DUP2 ADD DUP1 MLOAD PUSH1 0x1 PUSH1 0x1 PUSH1 0xE0 SHL SUB AND PUSH4 0xA9059CBB PUSH1 0xE0 SHL OR DUP2 MSTORE SWAP3 MLOAD DUP2 MLOAD PUSH1 0x0 SWAP5 PUSH1 0x60 SWAP5 DUP10 AND SWAP4 SWAP3 SWAP2 DUP3 SWAP2 SWAP1 DUP1 DUP4 DUP4 JUMPDEST PUSH1 0x20 DUP4 LT PUSH2 0x2168 JUMPI DUP1 MLOAD DUP3 MSTORE PUSH1 0x1F NOT SWAP1 SWAP3 ADD SWAP2 PUSH1 0x20 SWAP2 DUP3 ADD SWAP2 ADD PUSH2 0x2149 JUMP JUMPDEST PUSH1 0x1 DUP4 PUSH1 0x20 SUB PUSH2 0x100 EXP SUB DUP1 NOT DUP3 MLOAD AND DUP2 DUP5 MLOAD AND DUP1 DUP3 OR DUP6 MSTORE POP POP POP POP POP POP SWAP1 POP ADD SWAP2 POP POP PUSH1 0x0 PUSH1 0x40 MLOAD DUP1 DUP4 SUB DUP2 PUSH1 0x0 DUP7 GAS CALL SWAP2 POP POP RETURNDATASIZE DUP1 PUSH1 0x0 DUP2 EQ PUSH2 0x21CA JUMPI PUSH1 0x40 MLOAD SWAP2 POP PUSH1 0x1F NOT PUSH1 0x3F RETURNDATASIZE ADD AND DUP3 ADD PUSH1 0x40 MSTORE RETURNDATASIZE DUP3 MSTORE RETURNDATASIZE PUSH1 0x0 PUSH1 0x20 DUP5 ADD RETURNDATACOPY PUSH2 0x21CF JUMP JUMPDEST PUSH1 0x60 SWAP2 POP JUMPDEST POP SWAP2 POP SWAP2 POP DUP2 DUP1 ISZERO PUSH2 0x21FD JUMPI POP DUP1 MLOAD ISZERO DUP1 PUSH2 0x21FD JUMPI POP DUP1 DUP1 PUSH1 0x20 ADD SWAP1 MLOAD PUSH1 0x20 DUP2 LT ISZERO PUSH2 0x21FA JUMPI PUSH1 0x0 DUP1 REVERT JUMPDEST POP MLOAD JUMPDEST PUSH2 0x224E JUMPI PUSH1 0x40 DUP1 MLOAD PUSH3 0x461BCD PUSH1 0xE5 SHL DUP2 MSTORE PUSH1 0x20 PUSH1 0x4 DUP3 ADD MSTORE PUSH1 0x1A PUSH1 0x24 DUP3 ADD MSTORE PUSH32 0x556E697377617056323A205452414E534645525F4641494C4544000000000000 PUSH1 0x44 DUP3 ADD MSTORE SWAP1 MLOAD SWAP1 DUP2 SWAP1 SUB PUSH1 0x64 ADD SWAP1 REVERT JUMPDEST POP POP POP POP POP JUMP JUMPDEST PUSH1 0x0 DUP2 ISZERO DUP1 PUSH2 0x2270 JUMPI POP POP DUP1 DUP3 MUL DUP3 DUP3 DUP3 DUP2 PUSH2 0x226D JUMPI INVALID JUMPDEST DIV EQ JUMPDEST PUSH2 0xCAD JUMPI PUSH1 0x40 DUP1 MLOAD PUSH3 0x461BCD PUSH1 0xE5 SHL DUP2 MSTORE PUSH1 0x20 PUSH1 0x4 DUP3 ADD MSTORE PUSH1 0x14 PUSH1 0x24 DUP3 ADD MSTORE PUSH20 0x64732D6D6174682D6D756C2D6F766572666C6F77 PUSH1 0x60 SHL PUSH1 0x44 DUP3 ADD MSTORE SWAP1 MLOAD SWAP1 DUP2 SWAP1 SUB PUSH1 0x64 ADD SWAP1 REVERT JUMPDEST DUP1 DUP3 SUB DUP3 DUP2 GT ISZERO PUSH2 0xCAD JUMPI PUSH1 0x40 DUP1 MLOAD PUSH3 0x461BCD PUSH1 0xE5 SHL DUP2 MSTORE PUSH1 0x20 PUSH1 0x4 DUP3 ADD MSTORE PUSH1 0x15 PUSH1 0x24 DUP3 ADD MSTORE PUSH21 0x64732D6D6174682D7375622D756E646572666C6F77 PUSH1 0x58 SHL PUSH1 0x44 DUP3 ADD MSTORE SWAP1 MLOAD SWAP1 DUP2 SWAP1 SUB PUSH1 0x64 ADD SWAP1 REVERT JUMPDEST PUSH1 0x1 PUSH1 0x1 PUSH1 0x70 SHL SUB DUP5 GT DUP1 ISZERO SWAP1 PUSH2 0x2326 JUMPI POP PUSH1 0x1 PUSH1 0x1 PUSH1 0x70 SHL SUB DUP4 GT ISZERO JUMPDEST PUSH2 0x236D JUMPI PUSH1 0x40 DUP1 MLOAD PUSH3 0x461BCD PUSH1 0xE5 SHL DUP2 MSTORE PUSH1 0x20 PUSH1 0x4 DUP3 ADD MSTORE PUSH1 0x13 PUSH1 0x24 DUP3 ADD MSTORE PUSH19 0x556E697377617056323A204F564552464C4F57 PUSH1 0x68 SHL PUSH1 0x44 DUP3 ADD MSTORE SWAP1 MLOAD SWAP1 DUP2 SWAP1 SUB PUSH1 0x64 ADD SWAP1 REVERT JUMPDEST PUSH1 0xA SLOAD PUSH4 0xFFFFFFFF TIMESTAMP DUP2 AND SWAP2 PUSH1 0x1 PUSH1 0xE0 SHL SWAP1 DIV DUP2 AND DUP3 SUB SWAP1 DUP2 AND ISZERO DUP1 ISZERO SWAP1 PUSH2 0x239D JUMPI POP PUSH1 0x1 PUSH1 0x1 PUSH1 0x70 SHL SUB DUP5 AND ISZERO ISZERO JUMPDEST DUP1 ISZERO PUSH2 0x23B1 JUMPI POP PUSH1 0x1 PUSH1 0x1 PUSH1 0x70 SHL SUB DUP4 AND ISZERO ISZERO JUMPDEST ISZERO PUSH2 0x2422 JUMPI DUP1 PUSH4 0xFFFFFFFF AND PUSH2 0x23DF DUP6 PUSH2 0x23CA DUP7 PUSH2 0x29E3 JUMP JUMPDEST PUSH1 0x1 PUSH1 0x1 PUSH1 0xE0 SHL SUB AND SWAP1 PUSH4 0xFFFFFFFF PUSH2 0x29F5 AND JUMP JUMPDEST PUSH1 0xB DUP1 SLOAD PUSH1 0x1 PUSH1 0x1 PUSH1 0xE0 SHL SUB SWAP3 SWAP1 SWAP3 AND SWAP3 SWAP1 SWAP3 MUL ADD SWAP1 SSTORE PUSH4 0xFFFFFFFF DUP2 AND PUSH2 0x240A DUP5 PUSH2 0x23CA DUP8 PUSH2 0x29E3 JUMP JUMPDEST PUSH1 0xC DUP1 SLOAD PUSH1 0x1 PUSH1 0x1 PUSH1 0xE0 SHL SUB SWAP3 SWAP1 SWAP3 AND SWAP3 SWAP1 SWAP3 MUL ADD SWAP1 SSTORE JUMPDEST PUSH1 0xA DUP1 SLOAD PUSH14 0xFFFFFFFFFFFFFFFFFFFFFFFFFFFF NOT AND PUSH1 0x1 PUSH1 0x1 PUSH1 0x70 SHL SUB DUP9 DUP2 AND SWAP2 SWAP1 SWAP2 OR PUSH14 0xFFFFFFFFFFFFFFFFFFFFFFFFFFFF PUSH1 0x70 SHL NOT AND PUSH1 0x1 PUSH1 0x70 SHL DUP9 DUP4 AND DUP2 MUL SWAP2 SWAP1 SWAP2 OR PUSH1 0x1 PUSH1 0x1 PUSH1 0xE0 SHL SUB AND PUSH1 0x1 PUSH1 0xE0 SHL PUSH4 0xFFFFFFFF DUP8 AND MUL OR SWAP3 DUP4 SWAP1 SSTORE PUSH1 0x40 DUP1 MLOAD DUP5 DUP5 AND DUP2 MSTORE SWAP2 SWAP1 SWAP4 DIV SWAP1 SWAP2 AND PUSH1 0x20 DUP3 ADD MSTORE DUP2 MLOAD PUSH32 0x1C411E9A96E071241C2F21F7726B17AE89E3CAB4C78BE50E062B03A9FFFBBAD1 SWAP3 SWAP2 DUP2 SWAP1 SUB SWAP1 SWAP2 ADD SWAP1 LOG1 POP POP POP POP POP POP JUMP JUMPDEST PUSH1 0x1 PUSH1 0x1 PUSH1 0xA0 SHL SUB DUP1 DUP5 AND PUSH1 0x0 DUP2 DUP2 MSTORE PUSH1 0x2 PUSH1 0x20 SWAP1 DUP2 MSTORE PUSH1 0x40 DUP1 DUP4 KECCAK256 SWAP5 DUP8 AND DUP1 DUP5 MSTORE SWAP5 DUP3 MSTORE SWAP2 DUP3 SWAP1 KECCAK256 DUP6 SWAP1 SSTORE DUP2 MLOAD DUP6 DUP2 MSTORE SWAP2 MLOAD PUSH32 0x8C5BE1E5EBEC7D5BD14F71427D1E84F3DD0314C0F7B2291E5B200AC8C7C3B925 SWAP3 DUP2 SWAP1 SUB SWAP1 SWAP2 ADD SWAP1 LOG3 POP POP POP JUMP JUMPDEST PUSH1 0x1 PUSH1 0x1 PUSH1 0xA0 SHL SUB DUP4 AND PUSH1 0x0 SWAP1 DUP2 MSTORE PUSH1 0x1 PUSH1 0x20 MSTORE PUSH1 0x40 SWAP1 KECCAK256 SLOAD PUSH2 0x2558 SWAP1 DUP3 PUSH4 0xFFFFFFFF PUSH2 0x22B8 AND JUMP JUMPDEST PUSH1 0x1 PUSH1 0x1 PUSH1 0xA0 SHL SUB DUP1 DUP6 AND PUSH1 0x0 SWAP1 DUP2 MSTORE PUSH1 0x1 PUSH1 0x20 MSTORE PUSH1 0x40 DUP1 DUP3 KECCAK256 SWAP4 SWAP1 SWAP4 SSTORE SWAP1 DUP5 AND DUP2 MSTORE KECCAK256 SLOAD PUSH2 0x258D SWAP1 DUP3 PUSH4 0xFFFFFFFF PUSH2 0x2822 AND JUMP JUMPDEST PUSH1 0x1 PUSH1 0x1 PUSH1 0xA0 SHL SUB DUP1 DUP5 AND PUSH1 0x0 DUP2 DUP2 MSTORE PUSH1 0x1 PUSH1 0x20 SWAP1 DUP2 MSTORE PUSH1 0x40 SWAP2 DUP3 SWAP1 KECCAK256 SWAP5 SWAP1 SWAP5 SSTORE DUP1 MLOAD DUP6 DUP2 MSTORE SWAP1 MLOAD SWAP2 SWAP4 SWAP3 DUP8 AND SWAP3 PUSH1 0x0 DUP1 MLOAD PUSH1 0x20 PUSH2 0x2AD5 DUP4 CODECOPY DUP2 MLOAD SWAP2 MSTORE SWAP3 SWAP2 DUP3 SWAP1 SUB ADD SWAP1 LOG3 POP POP POP JUMP JUMPDEST PUSH1 0x0 DUP1 PUSH1 0x7 PUSH1 0x0 SWAP1 SLOAD SWAP1 PUSH2 0x100 EXP SWAP1 DIV PUSH1 0x1 PUSH1 0x1 PUSH1 0xA0 SHL SUB AND PUSH1 0x1 PUSH1 0x1 PUSH1 0xA0 SHL SUB AND PUSH4 0x17E7E58 PUSH1 0x40 MLOAD DUP2 PUSH4 0xFFFFFFFF AND PUSH1 0xE0 SHL DUP2 MSTORE PUSH1 0x4 ADD PUSH1 0x20 PUSH1 0x40 MLOAD DUP1 DUP4 SUB DUP2 DUP7 DUP1 EXTCODESIZE ISZERO DUP1 ISZERO PUSH2 0x2628 JUMPI PUSH1 0x0 DUP1 REVERT JUMPDEST POP GAS STATICCALL ISZERO DUP1 ISZERO PUSH2 0x263C JUMPI RETURNDATASIZE PUSH1 0x0 DUP1 RETURNDATACOPY RETURNDATASIZE PUSH1 0x0 REVERT JUMPDEST POP POP POP POP PUSH1 0x40 MLOAD RETURNDATASIZE PUSH1 0x20 DUP2 LT ISZERO PUSH2 0x2652 JUMPI PUSH1 0x0 DUP1 REVERT JUMPDEST POP MLOAD PUSH1 0xD SLOAD PUSH1 0x1 PUSH1 0x1 PUSH1 0xA0 SHL SUB DUP3 AND ISZERO DUP1 ISZERO SWAP5 POP SWAP2 SWAP3 POP SWAP1 PUSH2 0x2721 JUMPI DUP1 ISZERO PUSH2 0x271C JUMPI PUSH1 0x0 PUSH2 0x2695 PUSH2 0xFF9 PUSH1 0x1 PUSH1 0x1 PUSH1 0x70 SHL SUB DUP9 DUP2 AND SWAP1 DUP9 AND PUSH4 0xFFFFFFFF PUSH2 0x2255 AND JUMP JUMPDEST SWAP1 POP PUSH1 0x0 PUSH2 0x26A2 DUP4 PUSH2 0x2735 JUMP JUMPDEST SWAP1 POP DUP1 DUP3 GT ISZERO PUSH2 0x2719 JUMPI PUSH1 0x0 PUSH2 0x26D0 PUSH2 0x26C1 DUP5 DUP5 PUSH4 0xFFFFFFFF PUSH2 0x22B8 AND JUMP JUMPDEST PUSH1 0x0 SLOAD SWAP1 PUSH4 0xFFFFFFFF PUSH2 0x2255 AND JUMP JUMPDEST SWAP1 POP PUSH1 0x0 PUSH2 0x26F5 DUP4 PUSH2 0x26E9 DUP7 PUSH1 0x5 PUSH4 0xFFFFFFFF PUSH2 0x2255 AND JUMP JUMPDEST SWAP1 PUSH4 0xFFFFFFFF PUSH2 0x2822 AND JUMP JUMPDEST SWAP1 POP PUSH1 0x0 DUP2 DUP4 DUP2 PUSH2 0x2702 JUMPI INVALID JUMPDEST DIV SWAP1 POP DUP1 ISZERO PUSH2 0x2715 JUMPI PUSH2 0x2715 DUP8 DUP3 PUSH2 0x2786 JUMP JUMPDEST POP POP POP JUMPDEST POP POP JUMPDEST PUSH2 0x272D JUMP JUMPDEST DUP1 ISZERO PUSH2 0x272D JUMPI PUSH1 0x0 PUSH1 0xD SSTORE JUMPDEST POP POP SWAP3 SWAP2 POP POP JUMP JUMPDEST PUSH1 0x0 PUSH1 0x3 DUP3 GT ISZERO PUSH2 0x2778 JUMPI POP DUP1 PUSH1 0x1 PUSH1 0x2 DUP3 DIV ADD JUMPDEST DUP2 DUP2 LT ISZERO PUSH2 0x2772 JUMPI DUP1 SWAP2 POP PUSH1 0x2 DUP2 DUP3 DUP6 DUP2 PUSH2 0x2761 JUMPI INVALID JUMPDEST DIV ADD DUP2 PUSH2 0x276A JUMPI INVALID JUMPDEST DIV SWAP1 POP PUSH2 0x274A JUMP JUMPDEST POP PUSH2 0x117B JUMP JUMPDEST DUP2 ISZERO PUSH2 0x117B JUMPI POP PUSH1 0x1 SWAP2 SWAP1 POP JUMP JUMPDEST PUSH1 0x0 SLOAD PUSH2 0x2799 SWAP1 DUP3 PUSH4 0xFFFFFFFF PUSH2 0x2822 AND JUMP JUMPDEST PUSH1 0x0 SWAP1 DUP2 SSTORE PUSH1 0x1 PUSH1 0x1 PUSH1 0xA0 SHL SUB DUP4 AND DUP2 MSTORE PUSH1 0x1 PUSH1 0x20 MSTORE PUSH1 0x40 SWAP1 KECCAK256 SLOAD PUSH2 0x27C4 SWAP1 DUP3 PUSH4 0xFFFFFFFF PUSH2 0x2822 AND JUMP JUMPDEST PUSH1 0x1 PUSH1 0x1 PUSH1 0xA0 SHL SUB DUP4 AND PUSH1 0x0 DUP2 DUP2 MSTORE PUSH1 0x1 PUSH1 0x20 SWAP1 DUP2 MSTORE PUSH1 0x40 DUP1 DUP4 KECCAK256 SWAP5 SWAP1 SWAP5 SSTORE DUP4 MLOAD DUP6 DUP2 MSTORE SWAP4 MLOAD SWAP3 SWAP4 SWAP2 SWAP3 PUSH1 0x0 DUP1 MLOAD PUSH1 0x20 PUSH2 0x2AD5 DUP4 CODECOPY DUP2 MLOAD SWAP2 MSTORE SWAP3 DUP2 SWAP1 SUB SWAP1 SWAP2 ADD SWAP1 LOG3 POP POP JUMP JUMPDEST PUSH1 0x0 DUP2 DUP4 LT PUSH2 0x2819 JUMPI DUP2 PUSH2 0x281B JUMP JUMPDEST DUP3 JUMPDEST SWAP4 SWAP3 POP POP POP JUMP JUMPDEST DUP1 DUP3 ADD DUP3 DUP2 LT ISZERO PUSH2 0xCAD JUMPI PUSH1 0x40 DUP1 MLOAD PUSH3 0x461BCD PUSH1 0xE5 SHL DUP2 MSTORE PUSH1 0x20 PUSH1 0x4 DUP3 ADD MSTORE PUSH1 0x14 PUSH1 0x24 DUP3 ADD MSTORE PUSH20 0x64732D6D6174682D6164642D6F766572666C6F77 PUSH1 0x60 SHL PUSH1 0x44 DUP3 ADD MSTORE SWAP1 MLOAD SWAP1 DUP2 SWAP1 SUB PUSH1 0x64 ADD SWAP1 REVERT JUMPDEST PUSH1 0x1 PUSH1 0x1 PUSH1 0xA0 SHL SUB DUP3 AND PUSH1 0x0 SWAP1 DUP2 MSTORE PUSH1 0x1 PUSH1 0x20 MSTORE PUSH1 0x40 SWAP1 KECCAK256 SLOAD PUSH2 0x289A SWAP1 DUP3 PUSH4 0xFFFFFFFF PUSH2 0x22B8 AND JUMP JUMPDEST PUSH1 0x1 PUSH1 0x1 PUSH1 0xA0 SHL SUB DUP4 AND PUSH1 0x0 SWAP1 DUP2 MSTORE PUSH1 0x1 PUSH1 0x20 MSTORE PUSH1 0x40 DUP2 KECCAK256 SWAP2 SWAP1 SWAP2 SSTORE SLOAD PUSH2 0x28C7 SWAP1 DUP3 PUSH4 0xFFFFFFFF PUSH2 0x22B8 AND JUMP JUMPDEST PUSH1 0x0 SWAP1 DUP2 SSTORE PUSH1 0x40 DUP1 MLOAD DUP4 DUP2 MSTORE SWAP1 MLOAD PUSH1 0x1 PUSH1 0x1 PUSH1 0xA0 SHL SUB DUP6 AND SWAP2 PUSH1 0x0 DUP1 MLOAD PUSH1 0x20 PUSH2 0x2AD5 DUP4 CODECOPY DUP2 MLOAD SWAP2 MSTORE SWAP2 SWAP1 DUP2 SWAP1 SUB PUSH1 0x20 ADD SWAP1 LOG3 POP POP JUMP JUMPDEST PUSH1 0x0 PUSH1 0x1 PUSH1 0x1 PUSH1 0xA0 SHL SUB DUP4 AND PUSH2 0x295A JUMPI PUSH1 0x40 DUP1 MLOAD PUSH3 0x461BCD PUSH1 0xE5 SHL DUP2 MSTORE PUSH1 0x20 PUSH1 0x4 DUP3 ADD MSTORE PUSH1 0x1F PUSH1 0x24 DUP3 ADD MSTORE PUSH32 0x42455032303A206D696E7420746F20746865207A65726F206164647265737300 PUSH1 0x44 DUP3 ADD MSTORE SWAP1 MLOAD SWAP1 DUP2 SWAP1 SUB PUSH1 0x64 ADD SWAP1 REVERT JUMPDEST PUSH1 0x0 SLOAD PUSH2 0x296D SWAP1 DUP4 PUSH4 0xFFFFFFFF PUSH2 0x2822 AND JUMP JUMPDEST PUSH1 0x0 SWAP1 DUP2 SSTORE PUSH1 0x1 PUSH1 0x1 PUSH1 0xA0 SHL SUB DUP5 AND DUP2 MSTORE PUSH1 0x3 PUSH1 0x20 MSTORE PUSH1 0x40 SWAP1 KECCAK256 SLOAD PUSH2 0x2998 SWAP1 DUP4 PUSH4 0xFFFFFFFF PUSH2 0x2822 AND JUMP JUMPDEST PUSH1 0x1 PUSH1 0x1 PUSH1 0xA0 SHL SUB DUP5 AND PUSH1 0x0 DUP2 DUP2 MSTORE PUSH1 0x3 PUSH1 0x20 SWAP1 DUP2 MSTORE PUSH1 0x40 DUP1 DUP4 KECCAK256 SWAP5 SWAP1 SWAP5 SSTORE DUP4 MLOAD DUP7 DUP2 MSTORE SWAP4 MLOAD SWAP3 SWAP4 SWAP2 SWAP3 PUSH1 0x0 DUP1 MLOAD PUSH1 0x20 PUSH2 0x2AD5 DUP4 CODECOPY DUP2 MLOAD SWAP2 MSTORE SWAP3 DUP2 SWAP1 SUB SWAP1 SWAP2 ADD SWAP1 LOG3 POP PUSH1 0x1 SWAP3 SWAP2 POP POP JUMP JUMPDEST PUSH1 0x1 PUSH1 0x1 PUSH1 0x70 SHL SUB AND PUSH1 0x1 PUSH1 0x70 SHL MUL SWAP1 JUMP JUMPDEST PUSH1 0x0 PUSH1 0x1 PUSH1 0x1 PUSH1 0x70 SHL SUB DUP3 AND PUSH1 0x1 PUSH1 0x1 PUSH1 0xE0 SHL SUB DUP5 AND DUP2 PUSH2 0x2A12 JUMPI INVALID JUMPDEST DIV SWAP4 SWAP3 POP POP POP JUMP INVALID SSTORE PUSH15 0x697377617056323A20494E53554646 0x49 NUMBER 0x49 GASLIMIT 0x4E SLOAD 0x5F 0x4F SSTORE SLOAD POP SSTORE SLOAD 0x5F COINBASE 0x4D 0x4F SSTORE 0x4E SLOAD SSTORE PUSH15 0x697377617056323A20494E53554646 0x49 NUMBER 0x49 GASLIMIT 0x4E SLOAD 0x5F 0x49 0x4E POP SSTORE SLOAD 0x5F COINBASE 0x4D 0x4F SSTORE 0x4E SLOAD SSTORE PUSH15 0x697377617056323A20494E53554646 0x49 NUMBER 0x49 GASLIMIT 0x4E SLOAD 0x5F 0x4C 0x49 MLOAD SSTORE 0x49 DIFFICULTY 0x49 SLOAD MSIZE SSTORE PUSH15 0x697377617056323A20494E53554646 0x49 NUMBER 0x49 GASLIMIT 0x4E SLOAD 0x5F 0x4C 0x49 MLOAD SSTORE 0x49 DIFFICULTY 0x49 SLOAD MSIZE 0x5F TIMESTAMP SSTORE MSTORE 0x4E GASLIMIT DIFFICULTY SSTORE PUSH15 0x697377617056323A20494E53554646 0x49 NUMBER 0x49 GASLIMIT 0x4E SLOAD 0x5F 0x4C 0x49 MLOAD SSTORE 0x49 DIFFICULTY 0x49 SLOAD MSIZE 0x5F 0x4D 0x49 0x4E SLOAD GASLIMIT DIFFICULTY 0xDD CALLCODE MSTORE 0xAD SHL 0xE2 0xC8 SWAP12 PUSH10 0xC2B068FC378DAA952BA7 CALL PUSH4 0xC4A11628 CREATE2 GAS 0x4D CREATE2 0x23 0xB3 0xEF LOG2 PUSH6 0x627A7A723158 KECCAK256 PUSH2 0xD2C2 SDIV 0x22 SELFBALANCE 0x2C DUP5 LOG4 0x26 0xDB 0xC1 ADDMOD 0xCE 0xEC 0xAE PUSH25 0xF1323D1AB61EE3782018FEDDE4E0FE64736F6C634300051000 ORIGIN GASLIMIT 0x49 POP CALLDATACOPY BALANCE ORIGIN DIFFICULTY PUSH16 0x6D61696E28737472696E67206E616D65 0x2C PUSH20 0x7472696E672076657273696F6E2C75696E743235 CALLDATASIZE KECCAK256 PUSH4 0x6861696E 0x49 PUSH5 0x2C61646472 PUSH6 0x737320766572 PUSH10 0x6679696E67436F6E7472 PUSH2 0x6374 0x29 "
				},
				"gasEstimates": {
					"creation": {
						"codeDepositCost": "2209800",
						"executionCost": "infinite",
						"totalCost": "infinite"
					},
					"external": {
						"DOMAIN_SEPARATOR()": "1066",
						"FeeResiver()": "1082",
						"Lockmint(address)": "infinite",
						"MINIMUM_LIQUIDITY()": "243",
						"PERMIT_TYPEHASH()": "310",
						"_balances(address)": "1235",
						"_frozenBalance(address)": "1214",
						"allowance(address,address)": "1305",
						"approve(address,uint256)": "22433",
						"balanceOf(address)": "infinite",
						"burn(address)": "infinite",
						"decimals()": "253",
						"factory()": "1126",
						"getReserves()": "1240",
						"initialize(address,address)": "42873",
						"kLast()": "1066",
						"mint(address)": "infinite",
						"name()": "infinite",
						"nonces(address)": "1214",
						"permit(address,address,uint256,uint256,uint8,bytes32,bytes32)": "infinite",
						"price0CumulativeLast()": "1043",
						"price1CumulativeLast()": "1065",
						"skim(address)": "infinite",
						"swap(uint256,uint256,address,bytes)": "infinite",
						"swaptax(uint256,uint256,address,bytes)": "infinite",
						"symbol()": "infinite",
						"sync()": "infinite",
						"token0()": "1083",
						"token1()": "1148",
						"totalSupply()": "1066",
						"transfer(address,uint256)": "infinite",
						"transferFrom(address,address,uint256)": "infinite"
					},
					"internal": {
						"_mintFee(uint112,uint112)": "infinite",
						"_safeTransfer(address,address,uint256)": "infinite",
						"_update(uint256,uint256,uint112,uint112)": "infinite"
					}
				},
				"methodIdentifiers": {
					"DOMAIN_SEPARATOR()": "3644e515",
					"FeeResiver()": "900820d8",
					"Lockmint(address)": "dcbbb373",
					"MINIMUM_LIQUIDITY()": "ba9a7a56",
					"PERMIT_TYPEHASH()": "30adf81f",
					"_balances(address)": "6ebcf607",
					"_frozenBalance(address)": "47d5d856",
					"allowance(address,address)": "dd62ed3e",
					"approve(address,uint256)": "095ea7b3",
					"balanceOf(address)": "70a08231",
					"burn(address)": "89afcb44",
					"decimals()": "313ce567",
					"factory()": "c45a0155",
					"getReserves()": "0902f1ac",
					"initialize(address,address)": "485cc955",
					"kLast()": "7464fc3d",
					"mint(address)": "6a627842",
					"name()": "06fdde03",
					"nonces(address)": "7ecebe00",
					"permit(address,address,uint256,uint256,uint8,bytes32,bytes32)": "d505accf",
					"price0CumulativeLast()": "5909c0d5",
					"price1CumulativeLast()": "5a3d5493",
					"skim(address)": "bc25cf77",
					"swap(uint256,uint256,address,bytes)": "022c0d9f",
					"swaptax(uint256,uint256,address,bytes)": "b40b848e",
					"symbol()": "95d89b41",
					"sync()": "fff6cae9",
					"token0()": "0dfe1681",
					"token1()": "d21220a7",
					"totalSupply()": "18160ddd",
					"transfer(address,uint256)": "a9059cbb",
					"transferFrom(address,address,uint256)": "23b872dd"
				}
			},
			"storageLayout": {
				"storage": [
					{
						"astId": 19,
						"contract": "v2-core-master/contracts/UniswapV2Pair.sol:UniswapV2Pair",
						"label": "totalSupply",
						"offset": 0,
						"slot": "0",
						"type": "t_uint256"
					},
					{
						"astId": 23,
						"contract": "v2-core-master/contracts/UniswapV2Pair.sol:UniswapV2Pair",
						"label": "_balances",
						"offset": 0,
						"slot": "1",
						"type": "t_mapping(t_address,t_uint256)"
					},
					{
						"astId": 29,
						"contract": "v2-core-master/contracts/UniswapV2Pair.sol:UniswapV2Pair",
						"label": "allowance",
						"offset": 0,
						"slot": "2",
						"type": "t_mapping(t_address,t_mapping(t_address,t_uint256))"
					},
					{
						"astId": 33,
						"contract": "v2-core-master/contracts/UniswapV2Pair.sol:UniswapV2Pair",
						"label": "_frozenBalance",
						"offset": 0,
						"slot": "3",
						"type": "t_mapping(t_address,t_uint256)"
					},
					{
						"astId": 35,
						"contract": "v2-core-master/contracts/UniswapV2Pair.sol:UniswapV2Pair",
						"label": "DOMAIN_SEPARATOR",
						"offset": 0,
						"slot": "4",
						"type": "t_bytes32"
					},
					{
						"astId": 42,
						"contract": "v2-core-master/contracts/UniswapV2Pair.sol:UniswapV2Pair",
						"label": "nonces",
						"offset": 0,
						"slot": "5",
						"type": "t_mapping(t_address,t_uint256)"
					},
					{
						"astId": 474,
						"contract": "v2-core-master/contracts/UniswapV2Pair.sol:UniswapV2Pair",
						"label": "FeeResiver",
						"offset": 0,
						"slot": "6",
						"type": "t_address"
					},
					{
						"astId": 490,
						"contract": "v2-core-master/contracts/UniswapV2Pair.sol:UniswapV2Pair",
						"label": "factory",
						"offset": 0,
						"slot": "7",
						"type": "t_address"
					},
					{
						"astId": 492,
						"contract": "v2-core-master/contracts/UniswapV2Pair.sol:UniswapV2Pair",
						"label": "token0",
						"offset": 0,
						"slot": "8",
						"type": "t_address"
					},
					{
						"astId": 494,
						"contract": "v2-core-master/contracts/UniswapV2Pair.sol:UniswapV2Pair",
						"label": "token1",
						"offset": 0,
						"slot": "9",
						"type": "t_address"
					},
					{
						"astId": 496,
						"contract": "v2-core-master/contracts/UniswapV2Pair.sol:UniswapV2Pair",
						"label": "reserve0",
						"offset": 0,
						"slot": "10",
						"type": "t_uint112"
					},
					{
						"astId": 498,
						"contract": "v2-core-master/contracts/UniswapV2Pair.sol:UniswapV2Pair",
						"label": "reserve1",
						"offset": 14,
						"slot": "10",
						"type": "t_uint112"
					},
					{
						"astId": 500,
						"contract": "v2-core-master/contracts/UniswapV2Pair.sol:UniswapV2Pair",
						"label": "blockTimestampLast",
						"offset": 28,
						"slot": "10",
						"type": "t_uint32"
					},
					{
						"astId": 502,
						"contract": "v2-core-master/contracts/UniswapV2Pair.sol:UniswapV2Pair",
						"label": "price0CumulativeLast",
						"offset": 0,
						"slot": "11",
						"type": "t_uint256"
					},
					{
						"astId": 504,
						"contract": "v2-core-master/contracts/UniswapV2Pair.sol:UniswapV2Pair",
						"label": "price1CumulativeLast",
						"offset": 0,
						"slot": "12",
						"type": "t_uint256"
					},
					{
						"astId": 506,
						"contract": "v2-core-master/contracts/UniswapV2Pair.sol:UniswapV2Pair",
						"label": "kLast",
						"offset": 0,
						"slot": "13",
						"type": "t_uint256"
					},
					{
						"astId": 509,
						"contract": "v2-core-master/contracts/UniswapV2Pair.sol:UniswapV2Pair",
						"label": "unlocked",
						"offset": 0,
						"slot": "14",
						"type": "t_uint256"
					}
				],
				"types": {
					"t_address": {
						"encoding": "inplace",
						"label": "address",
						"numberOfBytes": "20"
					},
					"t_bytes32": {
						"encoding": "inplace",
						"label": "bytes32",
						"numberOfBytes": "32"
					},
					"t_mapping(t_address,t_mapping(t_address,t_uint256))": {
						"encoding": "mapping",
						"key": "t_address",
						"label": "mapping(address => mapping(address => uint256))",
						"numberOfBytes": "32",
						"value": "t_mapping(t_address,t_uint256)"
					},
					"t_mapping(t_address,t_uint256)": {
						"encoding": "mapping",
						"key": "t_address",
						"label": "mapping(address => uint256)",
						"numberOfBytes": "32",
						"value": "t_uint256"
					},
					"t_uint112": {
						"encoding": "inplace",
						"label": "uint112",
						"numberOfBytes": "14"
					},
					"t_uint256": {
						"encoding": "inplace",
						"label": "uint256",
						"numberOfBytes": "32"
					},
					"t_uint32": {
						"encoding": "inplace",
						"label": "uint32",
						"numberOfBytes": "4"
					}
				}
			},
			"userdoc": {
				"methods": {}
			}
		}
	}
}